:020000040800F2
:10000000000C0020CD0100080D320008890D000809
:1000100009320008C50900080D4200080000000070
:10002000000000000000000000000000C93E0008C1
:10003000310B0008000000007D3D0008193F00085A
:10004000E7010008E7010008E7010008B13E0008E9
:10005000E7010008E7010008E7010008E7010008E0
:10006000E7010008490D0008E7010008E701000862
:10007000E7010008E7010008C9090008990A00081B
:10008000E7010008E7010008E7010008E7010008B0
:10009000E7010008E7010008E7010008E7010008A0
:1000A000E7010008E7010008E7010008E701000890
:1000B000E7010008E7010008E7010008E701000880
:1000C000E7010008E7010008E7010008B53E000865
:1000D000B93E0008E7010008E7010008E701000851
:1000E000F50C0008E7010008E7010008E701000837
:1000F000E7010008E7010008E7010008E701000840
:10010000E7010008E7010008E7010008E70100082F
:10011000E7010008E7010008E7010008E70100081F
:10012000E7010008E7010008E7010008E70100080F
:1001300000F002F800F03AF80AA090E8000C8244BF
:100140008344AAF10107DA4501D100F02FF8AFF29C
:10015000090EBAE80F0013F0010F18BFFB1A43F0A5
:100160000103184758F8020078F80200103A24BF3B
:1001700078C878C1FAD8520724BF30C830C144BF0C
:1001800004680C607047000000230024002500264E
:10019000103A28BF78C1FBD8520728BF30C148BFEA
:1001A0000B6070471FB51FBD10B510BD00F05DF8A6
:1001B0001146FFF7F7FF04F09BFE00F07BF803B455
:1001C000FFF7F2FF03BC00F07FF80000094880470A
:1001D00009480047FEE7FEE7FEE7FEE7FEE7FEE729
:1001E000FEE7FEE7FEE7FEE704480549054A064B41
:1001F0007047000009400008310100080006002097
:10020000000C002000080020000800204FF0000231
:1002100000B5134694469646203922BFA0E80C50FC
:10022000A0E80C50B1F12001BFF4F7AF090728BFD7
:10023000A0E80C5048BF0CC05DF804EB890028BF53
:1002400040F8042B08BF704748BF20F8022B11F07C
:10025000804F18BF00F8012B7047704770477047F8
:1002600000487047D000002070477546FFF7F8FF40
:10027000AE4605006946534620F00700854618B093
:1002800020B5FFF7B1FFBDE820404FF000064FF06A
:1002900000074FF000084FF0000BAC46ACE8C00977
:1002A000ACE8C009ACE8C009ACE8C00921F007011E
:1002B0008D46704710B50446AFF300802046BDE878
:1002C0001040FFF77CBF000001491820ABBEFEE7DD
:1002D0002600020080B584B0ADF80E0040F2C800E0
:1002E000C2F200000068806B029000F017FA0190E3
:1002F00000F01EFA019ADDF808C00346BDF80E00B2
:100300006946086000210846E04704B080BD00004F
:1003100080B582B0ADF80600ADF804108DF803206A
:10032000BDF80600BDF8041040F23012C2F200021F
:100330009368D3F800C09DF80320203AB3F806E094
:1003400002FB0EF29B880733DB0802FB03C200F0BE
:10035000F1FB02B080BD000080B58AB0ADF8260088
:10036000ADF8241008928DF81F300120ADF81C0064
:100370000020ADF81A000590049008980390FFE75C
:100380000398411C0391007820B1FFE705980130E4
:100390000590F5E700F0C2F940F23011C2F2000119
:1003A00089688988B0FBF1F004909DF81F00014630
:1003B0000291012808D0FFE70298022818D0FFE731
:1003C000029803280FD023E0BDF82600059940F2DB
:1003D0003012C2F20002926892885143A0EB5100A1
:1003E000ADF81C0019E0BDF82600ADF81C0014E0C3
:1003F000BDF826100498059A801A40F23012C2F215
:100400000002926892885043401AADF81C0004E044
:10041000BDF82600ADF81C00FFE7FFE7089800785C
:10042000002818BF0120019000F078F902460198D9
:10043000BDF81A1040F23013C2F200039B689B888B
:1004400001FB13218AB200219A42A8BF0121084270
:100450001CD0FFE7BDF81C00BDF82410089A1278E4
:10046000FFF756FF40F23010C2F20000806881882A
:10047000BDF81C000844ADF81C0008980130089035
:10048000BDF81A000130ADF81A00C7E70AB080BD08
:1004900080B586B0ADF81600ADF8141004920020B7
:1004A000039002900498D0F8120002900498D0F8BB
:1004B00016000390BDF81600BDF81410BDF8082012
:1004C000BDF80C3003F002FD40F2C800C2F200009B
:1004D0000068006B68B1FFE740F2C800C2F200009C
:1004E0000068036BBDF81600BDF81410049A984715
:1004F000FFE700F013F9019000F01AF9019A0346A2
:100500000021084603F0E2FC06B080BD80B584B04F
:10051000ADF80E00ADF80C10ADF80A2000200190E7
:1005200040F2C800C2F200000068006AA0B1FFE714
:1005300040F2C800C2F200000068D0F820C040F2CB
:100540003010C2F200000088BDF80E10BDF80C207B
:10055000BDF80A30E0471CE000200190FFE7019859
:10056000BDF80A10884213D2FFE7BDF80E000199CA
:100570000844BDF80C1040F23012C2F2000212889A
:1005800080B200F009F8FFE7019801300190E6E73A
:10059000FFE704B080BD000080B582B0ADF8060072
:1005A000ADF80410ADF8022040F2C800C2F200001D
:1005B0000068406970B1FFE740F2C800C2F2000075
:1005C00000684369BDF80600BDF80410BDF80220BC
:1005D0009847FFE702B080BD80B582B0ADF8060055
:1005E000ADF80410ADF80220ADF80030BDF80600FB
:1005F000BDF80410BDF80220FFF788FFBDF8060023
:10060000BDF80410BDF8002011440139BDF80220E6
:1006100089B2FFF77BFFBDF80600BDF80410BDF8F6
:10062000002000F00FF8BDF80600BDF802100844E5
:100630000138BDF80410BDF8002080B200F002F8C7
:1006400002B080BD80B584B0ADF80E00ADF80C10DE
:10065000ADF80A200020019040F2C800C2F200006C
:100660000068406AA0B1FFE740F2C800C2F2000093
:100670000068D0F824C040F23010C2F200000088B8
:10068000BDF80E10BDF80C20BDF80A30E0471CE0A4
:1006900000200190FFE70198BDF80A10884213D2AC
:1006A000FFE7BDF80E00BDF80C10019A114440F2AE
:1006B0003012C2F20002128889B2FFF76DFFFFE725
:1006C000019801300190E6E7FFE704B080BD00002B
:1006D00010B584B0ADF80E00ADF80C10ADF80A20DE
:1006E000ADF8083040F2C800C2F200000068D0F84F
:1006F00038C0BDF80E00BDF80C10BDF80A20BDF8DA
:10070000083040F2301EC2F2000EBEF800E06C4627
:10071000C4F800E0E04704B010BD000080B540F22E
:10072000C800C2F200000068806A804780BD0000F7
:1007300080B540F2C800C2F200000068C06A80477D
:1007400080BD000080B582B001208DF8070040F226
:10075000C800C2F2000000680068804740F2301212
:10076000C2F200024FF6FF7050600021009111604C
:1007700040F20801C2F200019160FFF7ABFD009862
:100780008DF807009DF8070002B080BD81B0ADF87C
:100790000200BDF8020040F23011C2F200014860D0
:1007A00001B0704781B00090009840F23011C2F261
:1007B0000001886001B0704781B0ADF80200BDF85B
:1007C000020040F23011C2F20001086001B070472F
:1007D00080B58AB0099040F2CC00C2F200000068F7
:1007E0000169002088470999088009980088002835
:1007F00000F08380FFE740F2CC00C2F20000006806
:10080000436900200DF1220108AA9847BDF8220093
:100810000790BDF82000069040F24C20C2F2000084
:10082000008880024EF61B41C9F2CB51A0FB01109B
:10083000C00A039040F24E20C2F2000000888002FD
:100840004BF66F01C9F2D401A0FB0110C00A02905F
:1008500003984FF4C8714843019002984FF48C718B
:1008600048430090079803994843800A0199A0EBF8
:1008700091200590069802994843800A0099A0EBC0
:10088000912004900598B0F1FF3F03DCFFE70020C2
:10089000059011E0059840F24C21C2F20001098850
:1008A000884208DBFFE740F24C20C2F200000088DB
:1008B00001380590FFE7FFE70498B0F1FF3F03DC44
:1008C000FFE70020049011E0049840F24E21C2F2AC
:1008D00000010988884208DBFFE740F24E20C2F29F
:1008E0000000008801380490FFE7FFE705980999A8
:1008F0004880049809998880FFE70AB080BD00000D
:1009000080B582B0ADF80600ADF8041001208DF876
:100910000300BDF8060040F24C21C2F2000108803D
:10092000BDF8042040F24E20C2F200000280098887
:1009300089024EF61B42C9F2CB52A1FB0221CA0A20
:1009400040F2D051C2F200010A60008880024BF6EA
:100950006F02C9F2D402A0FB0220C20A40F2D450B6
:10096000C2F20000026009684FF4C872514340F2BD
:100970005422C2F20002116000684FF48C714843A7
:1009800040F25821C2F20001086040F2CC00C2F2ED
:100990000000006820B1FFE700208DF80300FFE7AA
:1009A0009DF8030048B9FFE740F2CC00C2F2000016
:1009B0000068016800208847FFE79DF8030002B047
:1009C00080BD0000FFE7FEE780B582B00020C4F2E2
:1009D000020000688004002855D5FFE70421C4F216
:1009E00002014FF4005008608021C4F2072100206A
:1009F0000860FFE740F20010C4F20720006840B131
:100A0000FFE743F60C00C4F2000000788DF8070001
:100A1000F0E743F60001C4F20001086840F48040AA
:100A200020F038000860022000F0D0F9FFE740F223
:100A30000010C4F20720006840B1FFE743F60C0045
:100A4000C4F2000000688DF80700F0E743F60001EB
:100A5000C4F20001086840F0400008604421C4F27C
:100A6000020100200860FFE74420C4F20200006891
:100A7000C00708B1FFE7F7E740F24011C2F20001FA
:100A80000020086006E00421C4F202014FF4805007
:100A90000860FFE702B080BD80B50020C4F202000C
:100AA0000068800300283BD5FFE70421C4F202015F
:100AB0004FF4003008605821C4F2020100200860A1
:100AC000FFE75820C4F202000068C00708B1FFE742
:100AD000F7E78421C4F2072100200860FFE740F215
:100AE0001C10C4F20720006808B1FFE7F7E70220F6
:100AF00000F06CF940F24010C2F2000000680128DA
:100B000007D1FFE740F28411C4F2212101200860DF
:100B1000FFE740F24011C2F200010020086006E049
:100B20000421C4F202014FF480300860FFE780BD69
:100B30007047000080B58AB0ADF82600ADF82410EB
:100B4000089200200090079006900590ADF81200E2
:100B5000ADF810008DF80F000290019040F23011B6
:100B6000C2F200018A68D288ADF8122089688988AB
:100B7000ADF81010BDF81210BDF810205143362208
:100B800002EB410340F25C21C2F200014B80BDF850
:100B90001230BDF810C003FB0CF302EB43031B0C37
:100BA0008B804A81BDF810204A828882BDF81220CD
:100BB000CA820883BDF81020D11D01F0F801891AFE
:100BC0008DF80F100790FFE70798BDF812108842C4
:100BD00080F08380FFE7089ABDF810000730C00856
:100BE000079900FB01200290BDF81000C11D0320F1
:100BF000B0EBD10F0AD1FFE7029908784A788978DB
:100C0000000440EA022008440190FFE7BDF810000C
:100C1000C11D0220B0EBD10F06D1FFE7029800887A
:100C2000000400BA0190FFE7BDF81000C11D0120CB
:100C3000B0EBD10F04D1FFE7029800780190FFE7F5
:100C400000200690FFE70698BDF8101088423FD2BA
:100C5000FFE707980138BDF81010069A00FB012144
:100C6000382000EB410005900198BDF81010069A5D
:100C7000891A9DF80F2011440139C840C00788B176
:100C8000FFE740F23010C2F200000168059B40F21D
:100C90005C22C2F20002D1540068000A0599114496
:100CA000487010E040F23010C2F200004168059B2D
:100CB00040F25C22C2F20002D1544068000A059959
:100CC00011444870FFE7FFE7069801300690BAE745
:100CD000FFE707980130079076E7BDF82600BDF8DA
:100CE000241040F25C22C2F20002FFF7D1FB0AB0EE
:100CF00080BD000080B54FF4006000F049FEB8B13F
:100D0000FFE74FF4006000F005FD40F60000C4F27C
:100D100001000821C0F2084100F0ACFF38B9FFE73C
:100D200040F2E451C2F2000101200870FFE7FFE742
:100D30004FF4004000F02CFE28B1FFE74FF40040D4
:100D400000F0E8FCFFE780BD80B5082000F020FE41
:100D5000C0B1FFE7082000F0DDFC40F60000C4F25F
:100D6000010040F6080100F085FF38B9FFE740F2C6
:100D7000E451C2F2000101200870FFE7082000F0F2
:100D8000C9FCFFE780BD0000FFE7FEE780B582B049
:100D90000190019801F0C2FE02B080BD81B08DF8D3
:100DA00003009DF8030038B1FFE740F29811C4F248
:100DB00022210120086006E040F29811C4F22221AD
:100DC00000200860FFE701B07047000081B000908C
:100DD000FFE70098411E009108B1FFE7F9E701B075
:100DE0007047000080B58AB041F21801C4F20201D8
:100DF000086840F01C00086041F21401C4F20201CE
:100E0000086840F00100086040F60441C4F20101A6
:100E100002910868042262F31B60086041F200013D
:100E2000C4F20101039108680222019262F31B607F
:100E3000086001200590FFF7B1FFDDF804C00299BA
:100E40000598DDF80CE040F60003C4F201031A68CF
:100E50006CF303021A6040F28012C4F22122049261
:100E6000106040F29412C4F22222106040F2841208
:100E7000C4F221221060DEF800204FF0030C6CF366
:100E80001752CEF800201A686CF307121A6048F265
:100E9000B412C4F22122106040F2B832C4F24222ED
:100EA000106008680B2262F317500860086862F34C
:100EB0001F70086043F60001C4F2000140F24730A1
:100EC0000860086840F0400008600A200690FFF7BC
:100ED0005DFF049A069800211160FFF757FF049AFE
:100EE000059906981160FFF751FF0F2007900D211B
:100EF000089103F05DFA079803F0C4F908990E20F1
:100F0000099003F055FA099803F0BCF90AB080BDC6
:100F100080B584B08DF80F0002910192009303F028
:100F200077F92C21C4F207210020086040F28411D7
:100F3000C4F2212108609DF80F0001F015FE009811
:100F4000C0000090009801F035FE0298019900F071
:100F500061F804B080BD000080B584B08DF80F004A
:100F600002910192009303F053F92C21C4F207215E
:100F70000020086040F28411C4F2212108609DF82D
:100F80000F0001F0F1FD0098C0000090009801F002
:100F900011FE0298019900F015F904B080BD00001F
:100FA00083B00290019100920421C4F202014FF437
:100FB000805008604421C4F2020100200860FFE76D
:100FC0004420C4F202000068C00708B1FFE7F7E759
:100FD00002985021C4F2020108604C21C4F20201BF
:100FE00043F60C00C4F20000086001984821C4F2E6
:100FF0000201086000984421C4F2020108600868F8
:1010000040F0010008608021C4F20721012008603F
:1010100003B0704780B588B0079006910020049017
:1010200003900422C4F202024FF480511160442163
:10103000C4F202010860FFE74420C4F20200006825
:10104000C00708B1FFE7F7E740F24810C2F200001E
:101050005021C4F2020108604C21C4F2020143F69F
:101060000C00C4F2000008604821C4F202014FF4F1
:101070008070086002904421C4F2020143F2A00093
:101080000860086840F0010008608021C4F2072170
:1010900001200860FFE70698002849D0FFE7029882
:1010A0004821C4F202010968884240D0FFE7029853
:1010B0000138029020B9FFE74FF480700290FFE7FB
:1010C00000BF00BF00BF0499481C049040F24810C4
:1010D000C2F20000405C039A511C03910DF105011E
:1010E00088540498B0F5807F03D3FFE70020049074
:1010F000FFE70398032819D1FFE700200390069823
:10110000013806909DF805009DF806209DF807100F
:1011100000F0F800000202F0FC0240EAC20040EADF
:10112000D10007998A1C07920880FFE7FFE7B2E722
:101130008021C4F2072100200860FFE740F2001080
:10114000C4F20720006840B1FFE743F60C00C4F288
:10115000000000688DF81700F0E743F60001C4F2C4
:101160000001086840F4804020F038000860022048
:10117000FFF72CFEFFE740F20010C4F207200068E2
:1011800040B1FFE743F60C00C4F2000000688DF8A0
:101190001700F0E74421C4F2020100200860FFE7D5
:1011A0004420C4F202000068C00708B1FFE7F7E777
:1011B00040F28411C4F221210120086001F038FDC1
:1011C00008B080BD80B584B00390029143F28200E4
:1011D0000190FFE7029860B3FFE702984FF6FF71B6
:1011E000884215D3FFE740F24011C2F2000102200D
:1011F00008600398019A4FF6FE710091FFF7D0FE48
:1012000000990298401A02900398084403900DE058
:1012100040F24011C2F200010120086003980299D7
:10122000019AFFF7BDFE00200290FFE702F0F0FFF9
:10123000D0E740F28411C4F221210120086001F0BE
:10124000F7FC04B080BD000080B582B08DF80700C7
:1012500002F0DEFF2C21C4F207210020086040F2DA
:101260008411C4F22121009108609DF8070001F06B
:101270007BFC00990120086002B080BD80B584B07D
:101280008DF80F00ADF80C10029202F0C1FF2C2176
:10129000C4F20721009100200190086040F28411FF
:1012A000C4F2212108609DF80F0001F05DFC009957
:1012B000019A01200860029903A800F0C1F804B067
:1012C00080BD000080B584B08DF80F0002910192BE
:1012D00002F09EFF2C21C4F207210091002008603B
:1012E00040F28411C4F2212108609DF80F0001F042
:1012F0003BFC0098012202600298019900F0A0F8DE
:1013000004B080BD80B584B08DF80F0002910192C9
:1013100002F07EFF2C21C4F207210020086040F279
:101320008411C4F2212108609DF80F0001F01CFC1B
:1013300002980199012200F007F904B080BD000075
:1013400080B584B0ADF80E0002F062FF2C21C4F22B
:10135000072101200290086040F28411C4F221218B
:10136000019100200860BDF80E0001F09FFC01997A
:101370000298086004B080BD80B582B08DF8070087
:1013800002F046FF2C21C4F207210020086040F241
:101390008411C4F22121009108609DF8070001F03A
:1013A0009FFC00990120086002B080BD83B00290CC
:1013B000019100920421C4F202014FF480300860D0
:1013C00043F60001C4F20001086820F04000086004
:1013D0005821C4F2020100200860FFE75820C4F23F
:1013E00002000068C00708B1FFE7F7E70298642130
:1013F000C4F2020108606021C4F2020143F60C004D
:10140000C4F20000086001985C21C4F20201086087
:1014100000985821C4F2020108608422C4F2072215
:101420000120106043F60002C4F20002106840F090
:1014300040001060086840F00100086003B0704789
:1014400080B584B0039002910192019860B9FFE7E2
:101450000398018840F24820C2F200000180039006
:1014600043F21250009003E043F292500090FFE7E5
:10147000FFE70298002864D0FFE702984FF6FE715C
:10148000884214D8FFE740F24011C2F20001012067
:10149000086003980299009AFFF788FF00200290E5
:1014A000019818B1FFE702F0B3FEFFE748E00298A9
:1014B0004FF6FB71C0F20101884221D8FFE740F2EC
:1014C0004011C2F2000102200860039802994FF611
:1014D000FE72891A009AFFF769FF019850B1FFE781
:1014E0000299039800EB41000421CFF6FE710844F5
:1014F0000390FFE74FF6FE70029002F089FE1EE0B7
:1015000040F24011C2F20001022008600398009AE4
:101510004FF6FE71FFF74AFF019840B1FFE70398CD
:101520004FF6FC71C0F2010108440390FFE70298F6
:101530004FF6FE71401A029002F06AFEFFE7FFE7E5
:1015400097E704B080BD000080B584B0039002919D
:101550000192019860B9FFE70398017840F24A20B0
:10156000C2F200000170039043F21200009003E009
:1015700043F292000090FFE7FFE70298C0B3FFE755
:1015800002984FF6FE71884214D8FFE740F24011EE
:10159000C2F200010120086003980299009AFFF747
:1015A00005FF00200290019818B1FFE702F030FE1D
:1015B000FFE71CE040F24011C2F200010220086087
:1015C0000398009A4FF6FE71FFF7F0FE019830B1D4
:1015D000FFE703984FF6FE7108440390FFE7029877
:1015E0004FF6FE71401A029002F012FEFFE7C4E7C8
:1015F00004B080BD82B00190019A41F21C00C4F297
:1016000002000168114301600068019908400090E0
:10161000009802B07047000082B00190019A41F238
:101620001C00C4F2020001681143016000680199C6
:1016300008400090009802B07047000082B001900E
:10164000019A41F21C00C4F20200016811430160DA
:101650000068019908400090009802B070470000AF
:1016600082B00190019A41F21800C4F202000168B0
:10167000114301600068019908400090009802B091
:101680007047000082B00190019A41F21800C4F244
:101690000200016811430160006801990840009050
:1016A000009802B07047000082B00190019A41F2A8
:1016B0001800C4F20200016811430160006801993A
:1016C00008400090009802B07047000082B001907E
:1016D000019A41F21800C4F202000168114301604E
:1016E0000068019908400090009802B0704700001F
:1016F00082B00190019A41F21800C4F20200016820
:10170000114301600068019908400090009802B000
:101710007047000081B00090009840F21441C4F27C
:101720000101086001B0704781B00090009A40F25A
:101730000441C4F2010108689043086001B0704799
:1017400081B00090009A40F20C41C4F20101086897
:101750009043086001B0704781B00090009A40F259
:101760000041C4F2010108689043086001B070476D
:1017700081B00090009A40F20841C4F2010108686B
:101780009043086001B0704781B00090009A40F229
:101790000441C4F2010108681043086001B07047B9
:1017A00081B00090009A40F20C41C4F20101086837
:1017B0001043086001B0704781B00090009A40F279
:1017C0000041C4F2010108681043086001B070478D
:1017D00081B00090009A40F20841C4F2010108680B
:1017E0001043086001B0704780B584B003900020BA
:1017F0008DF80B0003984088C00808B9FFE707E0A0
:101800004FF2EE70C0F602006E2102F011FEFFE70B
:101810000398007928B1FFE703980079012801D1E6
:10182000FFE707E04FF2EE70C0F602006F2102F012
:10183000FFFDFFE70398407950B1FFE70398407937
:10184000012805D0FFE703984079022801D1FFE77E
:1018500007E04FF2EE70C0F60200702102F0E8FDE2
:10186000FFE703980079002800F08480FFE70398E1
:10187000807978B1FFE70398807901280AD0FFE7E3
:1018800003988079022805D0FFE703988079032820
:1018900001D1FFE707E04FF2EE70C0F602007521BC
:1018A00002F0C6FDFFE703980068002861D0FFE75B
:1018B000039840790146019140B1FFE70198012862
:1018C0000DD0FFE70198022812D01AE003980068B3
:1018D000FFF72AFF03980068FFF76EFF15E00398F3
:1018E0000068FFF739FF03980068FFF74DFF0CE031
:1018F00003980068FFF760FF03980068FFF744FF54
:1019000003E001208DF80B00FFE70398807978B39E
:10191000FFE70398807901460091012808D0FFE78E
:10192000009802280DD0FFE70098032812D01AE093
:1019300003980068FFF704FF03980068FFF748FF6B
:1019400015E003980068FFF713FF03980068FFF79E
:1019500027FF0CE003980068FFF73AFF0398006840
:10196000FFF71EFF03E001208DF80B00FFE7FFE704
:10197000FFE708E003980068FFF7EEFE03980068B1
:10198000FFF7D2FEFFE79DF80B0004B080BD00001A
:1019900081B0009040F21440C4F201000068009948
:1019A0000840401AB0FA80F0400901B070470000CA
:1019B00042F20000C4F20200006800F00700704725
:1019C00081B0009042F20001C4F20201086820F0E8
:1019D0000700009A1043086001B070470421C4F268
:1019E0000101086840F60042C0F20072104308602E
:1019F000704700000421C4F20101086820F0E06093
:101A00000860086840F000700860704782B001907C
:101A100000919DF800000821C4F2010151F8200056
:101A2000009A4FEA124C20EA1240019B9CFAACFC4F
:101A3000BCFA8CFC03FA0CF31843D2B241F8220032
:101A400002B0704780B586B005900491059840F6C5
:101A50000001C4F20101884230D0FFE7059840F64A
:101A60000041C4F20101884228D0FFE7059841F205
:101A70000001C4F20101884220D0FFE7059841F23D
:101A80000041C4F20101884218D0FFE7059841F6F1
:101A90000001C4F20101884210D0FFE7059841F629
:101AA0000041C4F20101884208D0FFE7059842F2E4
:101AB0000001C4F20101884201D1FFE707E04FF2C3
:101AC000B670C0F60200A32102F0B2FCFFE7049852
:101AD00000686FF07B41084207D0FFE70498C078A8
:101AE00010F0FB0F01D1FFE707E04FF2B670C0F630
:101AF0000200A42102F09CFCFFE704980068C0F3F8
:101B00000F200390039890FAA0F0B0FA80F00290B2
:101B1000FFE703980299C840002800F0A880FFE77B
:101B200003980299C840C007002800F09C80FFE796
:101B30000298072806D8FFE7029940F20110884072
:101B4000019009E00298A0F108014FF001108840CF
:101B500040F080600190FFE704984068082819D1A0
:101B6000FFE70498006928B1FFE70498006901289D
:101B700001D1FFE707E04FF2B670C0F60200BF21C7
:101B800002F056FCFFE705980199049A126900F0EB
:101B9000E1F8FFE704984068A0B1FFE704984068C7
:101BA00004280FD0FFE70498406808280AD0FFE710
:101BB00004984068012805D0FFE704984068092888
:101BC00001D1FFE707E04FF2B670C0F60200C62170
:101BD00002F02EFCFFE705980199049A526800F084
:101BE00085F804984068012805D0FFE7049840680C
:101BF000092837D1FFE70498806802280AD0FFE758
:101C000004988068012805D0FFE7049880680328BD
:101C100001D1FFE707E04FF2B670C0F60200CE2117
:101C200002F006FCFFE70498C06828B1FFE70498BB
:101C3000C068042801D1FFE707E04FF2B670C0F694
:101C40000200CF2102F0F4FBFFE705980199049A06
:101C5000926800F095F805980199049AD26800F00E
:101C60005FF8FFE7FFE702980130029051E700209C
:101C700006B080BD82B00190009101988068BDF8E7
:101C800001100840401AB0FA80F0400902B07047D5
:101C900082B001900091BDF801000199486102B045
:101CA0007047000082B001900091BDF801000199D9
:101CB000086102B07047000084B003900291019265
:101CC00003989DF80B100844009000990868029A48
:101CD00092FAA2F2B2FA82F293000F229A40904353
:101CE000019A9A401043086004B0704784B0039092
:101CF0000291019203989DF80B10084400900099FE
:101D00000868029A92FAA2F2B2FA82F293000F22C3
:101D10009A409043019A9A401043086004B070477B
:101D200084B003900291019203989DF80B1008442F
:101D3000009000990868029A92FAA2F2B2FA82F22E
:101D4000930004229A409043019A9A4010430860FD
:101D500004B0704783B00290019100920298C0686D
:101D600001990A0A20EA1120009992FAA2F2B2FA25
:101D700082F2914008430299C86003B070470000A6
:101D800084B003900291019203989DF80B100844CF
:101D9000009000990868029A92FAA2F2B2FA82F2CE
:101DA000930003229A409043019A9A40104308609E
:101DB00004B0704784B0039002910398C06801900A
:101DC000BDF809000090019A009802EA00019043D2
:101DD00040EA01400399086104B0704780B582B0C1
:101DE000019001984FF47A7100F002F802B080BDC2
:101DF00082B00190009101980099B0FBF1F0013898
:101E00004EF21401CEF2000108604EF21801CEF23B
:101E10000001002008604EF21001CEF20001052002
:101E2000086002B07047000041F20400C4F20200F2
:101E3000006800F0F000704741F20400C4F20200B4
:101E4000006800F4E060704741F20400C4F2020050
:101E5000006800F46050704741F20400C4F20200D0
:101E6000006800F00C00704741F20400C4F2020068
:101E7000006800F00C00704780B582B0019001F05E
:101E8000B7FF019908600198006801F079FF019996
:101E900048600198406801F087FF019988600198C7
:101EA000406801F093FF0199C86002B080BD000056
:101EB00041F20001C4F20201086840F48030086079
:101EC0007047000041F20000C4F202000068C0F355
:101ED0004040704782B00190009141F20401C4F289
:101EE0000201086820F47C10019A02F44032009B41
:101EF0001A431043086002B07047000041F200012D
:101F0000C4F20201086840F0807008607047000069
:101F100041F20400C4F20200006800F4803070470F
:101F200041F20400C4F20200006800F4701070472F
:101F300041F20400C4F202000068C0F34040704760
:101F400041F20000C4F202000068C0F34060704734
:101F500081B0009041F20401C4F20201086820F04F
:101F6000F000009A1043086001B0704781B0009003
:101F700041F20401C4F20201086820F4E060009A12
:101F80001043086001B0704781B0009041F2040135
:101F9000C4F20201086820F46050009A10430860FF
:101FA00001B0704781B0009041F20401C4F2020117
:101FB000086820F00300009A1043086001B07047E1
:101FC00081B000900099086840F04000086001B0BE
:101FD0007047000080B584B00390029101208DF815
:101FE0000700039843F20001C4F20101884210D0B7
:101FF000FFE7039843F60001C4F20001884208D0CD
:10200000FFE7039843F60041C4F20001884201D182
:10201000FFE707E04FF62600C0F60200B72102F006
:1020200007FAFFE70298006890B1FFE7029800689E
:10203000B0F5806F0CD0FFE702980068B0F5004F54
:1020400006D0FFE702980068B0F5404F01D1FFE7E6
:1020500007E04FF62600C0F60200BA2102F0E8F9C8
:10206000FFE702984068B0F5827F04D0FFE702984E
:10207000406808B9FFE707E04FF62600C0F6020007
:10208000BB2102F0D5F9FFE70298806830B1FFE785
:1020900002988068B0F5006F01D1FFE707E04FF6C6
:1020A0002600C0F60200BC2102F0C2F9FFE7029848
:1020B000C06828B1FFE70298C068022801D1FFE795
:1020C00007E04FF62600C0F60200BD2102F0B0F98D
:1020D000FFE70298006928B1FFE70298006901282C
:1020E00001D1FFE707E04FF62600C0F60200BE214F
:1020F00002F09EF9FFE702984069B0F5007F0AD030
:10210000FFE70298406930B1FFE702984069B0F5F7
:10211000802F01D1FFE707E04FF62600C0F602004E
:10212000BF2102F085F9FFE70298806918B3FFE745
:102130000298806908281ED0FFE70298806910285D
:1021400019D0FFE702988069182814D0FFE7029899
:10215000806920280FD0FFE70298806928280AD0DC
:10216000FFE702988069302805D0FFE70298806970
:10217000382801D1FFE707E04FF62600C0F602003D
:10218000C02102F055F9FFE70298C069802804D009
:10219000FFE70298C06908B9FFE707E04FF626009D
:1021A000C0F60200C12102F043F9FFE70298006A7D
:1021B000B0F5005F04D0FFE70298006A08B9FFE7B6
:1021C00007E04FF62600C0F60200C22102F030F907
:1021D000FFE7039800F052F8002845D1FFE7039885
:1021E00000684FF6BF718843029A00921168D2F8D6
:1021F00004E0D2F808C0D36841EA0E0141EA0C01BC
:102200001943136919435369194393691943D369EE
:102210001943126A11430843039908600398406800
:1022200020F004000299C98A084303994860029883
:10223000006AB0F5005F13D1FFE70298406A08B169
:10224000FFE707E04FF62600C0F60200E52102F0A6
:10225000EFF8FFE703980299496A00F017F8FFE7E3
:1022600000208DF80700FFE70399C86920F400609B
:10227000C8619DF8070004B080BD000081B00090E7
:1022800000980068C0F3801001B0704782B00190E0
:102290000091BDF800000199086102B0704700008C
:1022A0004EF21001CEF20001086840F00200086012
:1022B0007047000081B00090009840F25801C2F2CF
:1022C0000001086001B0704781B000900099086873
:1022D00020F08000086001B07047000081B00090DD
:1022E0000099886820F08000886001B07047000085
:1022F00081B000900099486940F00100486101B048
:102300007047000080B584B003900291039842F6B4
:102310000041C4F20101884235D0FFE7039843F23F
:102320000041C4F2010188422DD0FFE70398B0F1CB
:10233000804F28D0FFE7039840F20041C4F200012B
:10234000884220D0FFE7039840F60001C4F2000164
:10235000884218D0FFE7039840F60041C4F200011C
:10236000884210D0FFE7039841F20001C4F2000157
:10237000884208D0FFE7039841F20041C4F200010F
:10238000884201D1FFE708E04FF65D00C0F6020089
:102390004FF4A57102F04CF8FFE702984068A0B135
:1023A000FFE70298406810280FD0FFE702984068C6
:1023B00040280AD0FFE702984068202805D0FFE7B0
:1023C00002984068602801D1FFE708E04FF65D0001
:1023D000C0F6020040F24B1102F02AF8FFE7029823
:1023E000C06860B1FFE70298C068B0F5807F06D092
:1023F000FFE70298C068B0F5007F01D1FFE708E071
:102400004FF65D00C0F602004FF4A67102F010F81E
:10241000FFE7039800680190039842F60041C4F278
:102420000101884225D0FFE7039843F20041C4F23E
:10243000010188421DD0FFE70398B0F1804F18D00A
:10244000FFE7039840F20041C4F20001884210D037
:10245000FFE7039840F60001C4F20001884208D06B
:10246000FFE7039840F60041C4F20001884208D11A
:10247000FFE7019820F07000029949680843019035
:10248000FFE7039842F60041C4F20101884225D0DB
:10249000FFE7039843F20041C4F2010188421DD0D6
:1024A000FFE70398B0F1804F18D0FFE7039840F2A0
:1024B0000041C4F20001884210D0FFE7039840F6C3
:1024C0000001C4F20001884208D0FFE7039840F6FB
:1024D0000041C4F20001884208D1FFE7019820F4CE
:1024E00040700299C96808430190FFE70198039979
:1024F000086003980299896800F032F903980299FC
:10250000098800F035F9039842F60041C4F2010150
:10251000884208D0FFE7039843F20041C4F201016A
:10252000884206D1FFE703980299096900F028F96B
:10253000FFE70398FFF7DCFE002004B080BD000039
:1025400089B0089007910798012803D1FFE7002080
:10255000049030E00798042803D1FFE7012003909E
:1025600026E00798102803D1FFE7022002901CE024
:102570000798402803D1FFE70320019012E0079855
:10258000B0F5807F03D1FFE70420009007E00799B2
:102590000620B1F5806F08BF05200090FFE7009886
:1025A0000190FFE701980290FFE702980390FFE790
:1025B00003980490FFE704988DF81B0008989DF895
:1025C0001B2047F66D31C0F60001895C08441830C5
:1025D00005909DF81B1047F67430C0F60000415C72
:1025E000042000FA01F2059908689043086009B0D8
:1025F0007047000089B0089007910798012803D11F
:10260000FFE70020049030E00798042803D1FFE79B
:102610000120039026E00798102803D1FFE702204D
:1026200002901CE00798402803D1FFE703200190A7
:1026300012E00798B0F5807F03D1FFE704200090F7
:1026400007E007990620B1F5806F08BF05200090CC
:10265000FFE700980190FFE701980290FFE70298DA
:102660000390FFE703980490FFE704988DF81B00A0
:1026700008989DF81B2047F66D31C0F60001895C73
:102680000844183005909DF81B1047F67430C0F6CA
:102690000000415C082000FA01F205990868104327
:1026A000086009B07047000080B586B005900491BD
:1026B000039201208DF80B000498019001280ED0A0
:1026C000FFE70198102811D0FFE70198B0F5807F4F
:1026D00013D0FFE70198B0F5805F15D01BE0059897
:1026E000039900F037FE8DF80B0015E0059803996B
:1026F00000F078FF8DF80B000EE00598039901F0CB
:10270000BDF88DF80B0007E00598039901F002FA77
:102710008DF80B0000E0FFE79DF80B0006B080BDD0
:1027200082B00190009100980199486302B070470F
:1027300082B00190009100980199886302B07047BF
:1027400082B00190009100980199C86302B070476F
:1027500082B00190009100980199086402B070471E
:1027600082B00190009100980199C86202B0704750
:1027700082B00190009100980199886202B0704780
:1027800082B00190009100980199086302B07047EF
:1027900082B0019000910198406820F0700000998B
:1027A00008430199486002B07047000081B0009072
:1027B0000099086920F4904008610099486920F068
:1027C0002A00486101B0704781B000900099C86844
:1027D00040F40050C86001B07047000080B588B078
:1027E0000790069101208DF81700002004900798AB
:1027F00043F60001C4F20101884220D0FFE70798A8
:1028000044F20041C4F20001884218D0FFE7079863
:1028100044F60001C4F20001884210D0FFE7079897
:1028200044F60041C4F20001884208D0FFE707984F
:1028300045F20001C4F20001884201D1FFE707E040
:102840004FF69400C0F60200CE2101F0F1FDFFE743
:10285000069800684AF62021C0F24401884201D857
:10286000FFE707E04FF69400C0F60200CF2101F029
:10287000DFFDFFE70698406830B1FFE70698406843
:10288000B0F5805F01D1FFE707E04FF69400C0F696
:102890000200D02101F0CCFDFFE706988068B0F57A
:1028A000805F10D0FFE70698806860B1FFE7069868
:1028B0008068B0F5405F06D0FFE706988068B0F505
:1028C000005F01D1FFE707E04FF69400C0F6020079
:1028D000D12101F0ADFDFFE70698C06860B1FFE7C8
:1028E0000698C068B0F5806F06D0FFE70698C0680C
:1028F000B0F5C06F01D1FFE707E04FF69400C0F6D6
:102900000200D22101F094FDFFE70698006978B13A
:10291000FFE70698006904280AD0FFE706980069D7
:10292000082805D0FFE7069800690C2801D1FFE7C9
:1029300007E04FF69400C0F60200D32101F078FDC5
:10294000FFE70698406990B1FFE706984069B0F547
:10295000807F0CD0FFE706984069B0F5007F06D075
:10296000FFE706984069B0F5407F01D1FFE707E037
:102970004FF69400C0F60200D42101F059FDFFE7A4
:10298000079800F07FF8002878D1FFE70798C06823
:1029900041F20C618843069A5168D3681269194361
:1029A000114308430799C86007980699896800F0A1
:1029B000A7F807980699496900F094F86846FFF768
:1029C0005BFA079843F60001C4F20101884203D183
:1029D000FFE70398049030E0079844F20041C4F206
:1029E0000001884203D1FFE70298049024E0079891
:1029F00044F60001C4F20001884203D1FFE70298C7
:102A0000049018E0079844F60041C4F2000188429F
:102A100003D1FFE7029804900CE0079845F200010B
:102A2000C4F20001884203D1FFE70298049000E05D
:102A3000FFE7FFE7FFE7FFE7FFE70498E8B1FFE7FD
:102A400006980068C8B1FFE700208DF817000798C6
:102A50000499069A126800F01DF8079880681028FB
:102A600001D3FFE708E04FF69400C0F602004FF4F0
:102A70009B7101F0DDFCFFE7FFE7FFE79DF8170022
:102A800008B080BD81B000900098C068C0F34030AD
:102A900001B0704783B00290019100920198192112
:102AA000484300998900B0FBF1F348F21F51C5F289
:102AB000EB11A3FB01204209642002FB10333220FA
:102AC00000EB0310A0FB0101F02000EA511000EB25
:102AD0000210C1F34311084480B20299886003B028
:102AE0007047000082B0019000910198406920F485
:102AF0004070009908430199486102B07047000096
:102B000082B0019000910198006920F44050009932
:102B100008430199086102B07047000082B001903B
:102B20004EF21000CEF2000000680090009801986C
:102B3000013020B1FFE7019801300190FFE7FFE786
:102B4000019870B1FFE74EF21000CEF2000000686D
:102B5000C003002804D5FFE7019801380190FFE782
:102B6000EEE702B07047000080B582B08DF8070034
:102B700040F29411C4F22221002008609DF8070061
:102B800043F60C01C4F2000108600220FEF71EF9B2
:102B9000FFE740F21C10C4F20720006808B1FFE70D
:102BA000F7E740F29411C4F222210120086002B03C
:102BB00080BD000081B0009040F60441C4F20101E4
:102BC0000868032262F317500860FFE70098411E6F
:102BD000009148B1FFE748F2B411C4F2212100206E
:102BE000086001200860F1E740F60441C4F20101E9
:102BF00008680B2262F317500860FFE740F20010EC
:102C0000C4F20720006838B1FFE743F60C00C4F2B5
:102C1000000000680090F1E743F60001C4F20001F3
:102C2000086840F4806020F03800086001B0704708
:102C300080B582B043F60001C4F20001086820F0BC
:102C400040000860FFE740F20010C4F2072000686F
:102C500038B1FFE743F60C00C4F2000000680190B1
:102C6000F1E743F60001C4F20001086820F4876030
:102C700008600220FEF7AAF8FFE740F20010C4F255
:102C80000720006838B1FFE743F60C00C4F20000EB
:102C900000680190F1E743F60001C4F20001086802
:102CA00040F04000086002B080BD000080B582B0F6
:102CB000ADF80600BDF8060043F60C01C4F20001B1
:102CC00008600120FEF782F8FFE740F21C10C4F212
:102CD0000720006808B1FFE7F7E702B080BD0000F9
:102CE00080B582B08DF807009DF8070043F60C010F
:102CF000C4F2000108600220FEF768F8FFE740F226
:102D00001C10C4F20720006808B1FFE7F7E702B023
:102D100080BD000010B598B000200F90179016905D
:102D2000159014901390129011901020FEF7AAFCA9
:102D30002020FEF7A7FC04200C90FEF7A3FC08203F
:102D40000790FEF79FFC41F20000C4F201000390DF
:102D500040F20771C0F20241FEF79AFF40F60040D0
:102D6000C4F2010002904FF6FF71C0F21F410191C1
:102D7000FEF78EFF40F60000C4F201000B90112117
:102D8000C0F21141FEF784FF41F20040C4F201009D
:102D9000069040F204410591FEF77AFF039843F64E
:102DA0003801C0F20841FEF77DFF0B9841F2177120
:102DB000FEF778FF03980F9943F63F72C0F20A427C
:102DC00011920122099212920222089213921491F6
:102DD00011A90491FEF736FE0499089BDDF824C082
:102DE0000F9A0B9841F2177EC0F2114ECDF844E0D5
:102DF000CDF848C013931492FEF724FE0499089B63
:102E0000DDF824C00F9ADDF804E00298CDF844E024
:102E1000CDF848C013931492FEF714FE04990C9A4F
:102E200003981423C0F2144311931292FEF70AFE82
:102E30000499089BDDF824C00F9ADDF814E0069889
:102E4000CDF844E0CDF848C013931492FEF7FAFD94
:102E50000F984FF07041FEF7D9FD0F980221CFF285
:102E60000001FEF7D3FD0F980321CFF20001FEF71A
:102E7000CDFD079B0898099A0F9916938DF85C2051
:102E80008DF85D108DF85E0016A80A90FEF7ACFC78
:102E9000099A0F990A984FF4006316938DF85C20F5
:102EA0008DF85D1003218DF85E10FEF79DFC0999E9
:102EB0000F9A0A984FF4004316938DF85C108DF822
:102EC0005D208DF85E10FEF78FFC0C9A0B9840F693
:102ED0000801FEF7F1FE0B980C9A0821C0F2084198
:102EE000FEF7EAFE0B980C9A8021C0F28041FEF7B3
:102EF000E3FE01F0E7F90F9A0E210E9100F0BEF902
:102F0000014609200D9001F00FFA0D9801F08AF9A1
:102F100001F0D8F90E990F9A00F0B0F90146282077
:102F2000109001F001FA109801F07CF918B010BD72
:102F300080B596B00CA805902821FDF767F9002010
:102F400004900B900A900990089007904FF48050DD
:102F5000FEF7AAFB04200090FEF7A6FB04984AF2B5
:102F6000A001079109210891032109910A9040F6D7
:102F70000000C4F20100029007A90191FEF762FD72
:102F8000009A0199029844F2400307930892FEF7D1
:102F900059FD01F09FF9049A114600F0A5F9014688
:102FA0002320039001F0E2F9039801F053F904980B
:102FB00005990C904FF482720D920E900F90109024
:102FC0004FF40072119220221292139014900A2052
:102FD000159043F20000C4F201000690FEF7FAFFDC
:102FE0000698FEF7EDFF16B080BD000080B596B0E4
:102FF0000CA805902821FDF709F9002004900B90FA
:103000000A900990089007904FF48040FEF704FB67
:103010000820FEF749FB0498A021C0F2A0410791C7
:1030200009210891032109910A9040F60040C4F259
:103030000100029007A90191FEF704FD0199029891
:103040004022C0F24042079204220892FEF7FAFCA6
:1030500001F040F9049A114600F046F90146242097
:10306000039001F083F9039801F0F4F804980599AE
:103070000C904FF482720D920E900F9010904FF4BE
:10308000007211921290139014900A20159043F63A
:103090000000C4F200000690FEF79CFF0698FEF7C1
:1030A0008FFF16B080BD000080B596B00020039061
:1030B0001590149013901290119010900F900E9004
:1030C0000D900C900B900A90099008900790069034
:1030D0000590049002200290FEF7B0FA0398ADF834
:1030E000440012904FF6FF711391149040F200408B
:1030F000C4F20000019011A9FFF704F90198FFF74D
:10310000E3F8019801210091FFF774FA0099019802
:10311000039A602309930A920B920C920D9209AACA
:10312000FFF7C2FA00990198FFF70AFA019803998C
:10313000FFF72EFB0198FFF7D1F81020FEF7C6FA33
:103140000299039844F240020492092205920691E2
:10315000079041F20000C4F2010004A9FEF772FCDE
:10316000FEF73CFC16B080BD80B592B00020049004
:10317000119010900F900E900D900C900B900A9063
:1031800009900890079006904FF48040FEF7B0FA3F
:1031900004200190FEF7ACFA04980221C0F202412B
:1031A00006910921079103210891099040F600003A
:1031B000C4F20100039006A90291FEF743FC019AB4
:1031C000029903980423C0F2044306930792FEF782
:1031D00039FC04984FF4E1310B910C900D900E9056
:1031E0000C210F911090119043F60000C4F20100E1
:1031F00005900BA9FFF7F2FA0598FFF7D7FA0598A3
:10320000FFF7E2FA12B080BDFFE7FEE7FFE7FEE757
:1032100088B0079006910592079800F00700049087
:103220000498C0F10700052803D3FFE704200190AC
:1032300004E00498C0F107000190FFE701980390B3
:1032400004980430062803D8FFE70020009003E02C
:10325000049803380090FFE70098029006980399BD
:10326000012202FA01F101390840029B98400599B8
:103270009A40013A1140084308B0704788B007905F
:1032800006910592079800F0070004900498C0F199
:103290000700052803D3FFE70420019004E0049809
:1032A000C0F107000190FFE70198039004980430F3
:1032B000062803D8FFE70020009003E004980338B5
:1032C0000090FFE70098029006980399012202FA05
:1032D00001F101390840029B984005999A40013A52
:1032E0001140084308B0704788B0079006910592D6
:1032F000079800F0070004900498C0F10700052823
:1033000003D3FFE70420019004E00498C0F1070014
:103310000190FFE70198039004980430062803D831
:10332000FFE70020009003E0049803380090FFE7D7
:103330000098029006980399012202FA01F10139DE
:103340000840029B984005999A40013A1140084371
:1033500008B0704780B586B005900491059842F694
:103360000041C4F20101884225D0FFE7059843F2ED
:103370000041C4F2010188421DD0FFE70598B0F179
:10338000804F18D0FFE7059840F20041C4F20001D9
:10339000884210D0FFE7059840F60001C4F2000112
:1033A000884208D0FFE7059840F60041C4F20001CA
:1033B000884201D1FFE708E04FF65D00C0F6020049
:1033C00040F2FF2101F034F8FFE70498006818B3D9
:1033D000FFE70498006810281ED0FFE704980068F3
:1033E000202819D0FFE704980068302814D0FFE7A0
:1033F0000498006840280FD0FFE704980068502820
:103400000AD0FFE704980068602805D0FFE7049819
:103410000068702801D1FFE708E04FF65D00C0F6B4
:1034200002004FF4407101F003F8FFE70498406890
:1034300028B1FFE704984068012801D1FFE708E0C0
:103440004FF65D00C0F6020040F2013100F0F0FFDF
:10345000FFE70498006928B1FFE704980069022893
:1034600001D1FFE708E04FF65D00C0F6020040F230
:10347000023100F0DDFFFFE70498806828B1FFE724
:1034800004988068012801D1FFE708E04FF65D004D
:10349000C0F6020040F2033100F0CAFFFFE70498D3
:1034A000406928B1FFE704984069022801D1FFE78D
:1034B00008E04FF65D00C0F602004FF4417100F0E5
:1034C000B7FFFFE70599086A20F001000862059838
:1034D000006A029005984068019005988069039001
:1034E000039820F003000390039820F070000499E3
:1034F000096808430390029820F0020004990969C2
:1035000008430290029820F001000499496808439A
:103510000290059842F60041C4F20101884208D0A9
:10352000FFE7059843F20041C4F20101884248D107
:10353000FFE70498C06930B1FFE70498C069B0F5AF
:10354000807F01D1FFE708E04FF65D00C0F6020082
:103550004FF4487100F06CFFFFE70498806930B1C8
:10356000FFE704988069B0F5807F01D1FFE708E0AC
:103570004FF65D00C0F6020040F2213100F058FF26
:10358000FFE7029820F008000499496940EA8100A9
:103590000290029820F004000499896840EA8100B2
:1035A0000290019820F48070049989690843019081
:1035B000019820F400700499C96940EA4100019023
:1035C000FFE7019805994860039805998861059877
:1035D0000499C968FFF7A4F80298059908620020C9
:1035E00006B080BD80B586B005900491059842F67E
:1035F0000041C4F20101884225D0FFE7059843F25B
:103600000041C4F2010188421DD0FFE70598B0F1E6
:10361000804F18D0FFE7059840F20041C4F2000146
:10362000884210D0FFE7059840F60001C4F200017F
:10363000884208D0FFE7059840F60041C4F2000137
:10364000884201D1FFE708E04FF65D00C0F60200B6
:1036500040F24E3100F0ECFEFFE70498006818B32A
:10366000FFE70498006810281ED0FFE70498006860
:10367000202819D0FFE704980068302814D0FFE70D
:103680000498006840280FD0FFE70498006850288D
:103690000AD0FFE704980068602805D0FFE7049887
:1036A0000068702801D1FFE708E04FF65D00C0F622
:1036B000020040F24F3100F0BBFEFFE70498406883
:1036C00028B1FFE704984068012801D1FFE708E02E
:1036D0004FF65D00C0F602004FF4547100F0A8FEF2
:1036E000FFE70498006928B1FFE704980069022801
:1036F00001D1FFE708E04FF65D00C0F6020040F29E
:10370000513100F095FEFFE70498806828B1FFE78B
:1037100004988068012801D1FFE708E04FF65D00BA
:10372000C0F6020040F2523100F082FEFFE704983A
:10373000406928B1FFE704984069022801D1FFE7FA
:1037400008E04FF65D00C0F6020040F2533100F091
:103750006FFEFFE70599086A20F0100008620598DF
:10376000006A02900598406801900598806903906E
:10377000039820F440700390039820F4E0400499EB
:10378000096840EA01200390029820F02000049983
:10379000096940EA01100290029820F01000049993
:1037A000496840EA01100290059842F60041C4F2CF
:1037B0000101884208D0FFE7059843F20041C4F2B6
:1037C0000101884249D1FFE70498C06930B1FFE7A1
:1037D0000498C069B0F5807F01D1FFE708E04FF69B
:1037E0005D00C0F6020040F26F3100F021FEFFE7FD
:1037F0000498806930B1FFE704988069B0F5807F54
:1038000001D1FFE708E04FF65D00C0F602004FF47B
:103810005C7100F00DFEFFE7029820F08000049933
:10382000496940EA81100290029820F04000049912
:10383000896840EA81100290019820F48060049920
:10384000896940EA81000190019820F400600499A0
:10385000C96940EAC1000190FFE7019805994860F5
:1038600003980599886105980499C968FEF760FF77
:10387000029805990862002006B080BD80B586B028
:1038800005900491059842F60041C4F20101884276
:1038900025D0FFE7059843F20041C4F201018842B8
:1038A0001DD0FFE70598B0F1804F18D0FFE70598CD
:1038B00040F20041C4F20001884210D0FFE70598B1
:1038C00040F60001C4F20001884208D0FFE70598E5
:1038D00040F60041C4F20001884201D1FFE708E050
:1038E0004FF65D00C0F6020040F29D3100F0A0FDF1
:1038F000FFE70498006818B3FFE7049800681028F1
:103900001ED0FFE704980068202819D0FFE704982C
:103910000068302814D0FFE70498006840280FD0D2
:10392000FFE70498006850280AD0FFE70498006871
:10393000602805D0FFE704980068702801D1FFE7F0
:1039400008E04FF65D00C0F6020040F29E3100F044
:103950006FFDFFE70498406828B1FFE704984068CE
:10396000012801D1FFE708E04FF65D00C0F6020034
:1039700040F29F3100F05CFDFFE70498006928B138
:10398000FFE704980069022801D1FFE708E04FF63D
:103990005D00C0F602004FF4687100F049FDFFE7DA
:1039A0000498806828B1FFE704988068012801D155
:1039B000FFE708E04FF65D00C0F6020040F2A131DB
:1039C00000F036FDFFE70498406928B1FFE704984E
:1039D0004069022801D1FFE708E04FF65D00C0F61C
:1039E000020040F2A23100F023FDFFE70599086ACA
:1039F00020F4807008620598006A0290059840687B
:103A000001900598C0690390039820F0030003908B
:103A1000039820F070000499096808430390029805
:103A200020F400700499096940EA0120029002988C
:103A300020F480700499496840EA012002900598BA
:103A400042F60041C4F20101884208D0FFE7059820
:103A500043F20041C4F20101884249D1FFE70498D2
:103A6000C06930B1FFE70498C069B0F5807F01D12B
:103A7000FFE708E04FF65D00C0F6020040F2BE31FD
:103A800000F0D6FCFFE70498806930B1FFE70498A6
:103A90008069B0F5807F01D1FFE708E04FF65D0057
:103AA000C0F6020040F2BF3100F0C2FCFFE702980E
:103AB00020F400600499496940EA8120029002984C
:103AC00020F480600499896840EA8120029001987E
:103AD00020F480500499896940EA0110019001980E
:103AE00020F400500499C96940EA41100190FFE7B1
:103AF00001980599486003980599C861059804994B
:103B0000C968FEF71DFE029805990862002006B0FC
:103B100080BD000080B586B005900491059842F6FE
:103B20000041C4F20101884225D0FFE7059843F225
:103B30000041C4F2010188421DD0FFE70598B0F1B1
:103B4000804F18D0FFE7059840F20041C4F2000111
:103B5000884210D0FFE7059840F60001C4F200014A
:103B6000884208D0FFE7059840F60041C4F2000102
:103B7000884201D1FFE708E04FF65D00C0F6020081
:103B80004FF47B7100F054FCFFE70498006818B311
:103B9000FFE70498006810281ED0FFE7049800682B
:103BA000202819D0FFE704980068302814D0FFE7D8
:103BB0000498006840280FD0FFE704980068502858
:103BC0000AD0FFE704980068602805D0FFE7049852
:103BD0000068702801D1FFE708E04FF65D00C0F6ED
:103BE000020040F2ED3100F023FCFFE7049840684A
:103BF00028B1FFE704984068012801D1FFE708E0F9
:103C00004FF65D00C0F6020040F2EE3100F010FC0D
:103C1000FFE70498006928B1FFE7049800690228CB
:103C200001D1FFE708E04FF65D00C0F6020040F268
:103C3000EF3100F0FDFBFFE70498406928B1FFE792
:103C400004984069022801D1FFE708E04FF65D00C3
:103C5000C0F602004FF47C7100F0EAFBFFE7049825
:103C6000806828B1FFE704988068012801D1FFE748
:103C700008E04FF65D00C0F6020040F2F13100F0BE
:103C8000D7FBFFE70599086A20F480500862059881
:103C9000006A02900598406801900598C0690390F9
:103CA000039820F440700390039820F4E0400499B6
:103CB000096840EA01200390029820F4005004991A
:103CC000096940EA01300290029820F4805004997A
:103CD000496840EA01300290059842F60041C4F27A
:103CE0000101884208D0FFE7059843F20041C4F281
:103CF0000101884231D1FFE70498C06930B1FFE784
:103D00000498C069B0F5807F01D1FFE708E04FF665
:103D10005D00C0F6020040F20D4100F089FBFFE7B4
:103D20000498806930B1FFE704988069B0F5807F1E
:103D300001D1FFE708E04FF65D00C0F6020040F257
:103D40000E4100F075FBFFE7019820F480400499D4
:103D5000896940EA81100190FFE701980599486060
:103D600003980599C86105980499C968FEF7F0FCA5
:103D7000029805990862002006B080BD70470000D7
:103D800080B582B0019001980090FEF74DF8014691
:103D90000098C9B20A0945F6A551C0F60001895C30
:103DA000C84002B080BD000080B582B0019001988B
:103DB0000090FEF741F8014600980A0A45F6B55111
:103DC000C0F60001895CC84002B080BD80B582B0F9
:103DD000019001980090FEF737F801460098CA0A52
:103DE00045F6B551C0F60001895CC84002B080BDFF
:103DF00080B582B000200190FEF736F801460091B0
:103E000040B1FFE7009804280AD0FFE7009808288F
:103E10000CD00FE041F20020C0F27A0001900FE0D8
:103E200041F20020C0F27A00019009E000F00CF8A5
:103E3000019005E041F20020C0F27A000190FFE716
:103E4000019802B080BD000080B584B000200390CE
:103E50000290FEF75DF802900298019028B1FFE70A
:103E60000198B0F5803F06D010E040F60010C0F297
:103E70003D00039010E0FEF75BF8411C41F200208A
:103E8000C0F27A00B0FBF1F0039005E040F60010BC
:103E9000C0F23D000390FFE703980090FEF740F862
:103EA00002460098022101EB9241484304B080BDD4
:103EB000704700007047000040F2CD51C2F200018F
:103EC00008780130087070477047000080B582B0F4
:103ED000ADF80600ADF80410ADF80220ADF80030E2
:103EE00040F2C800C2F200000068C06988B1FFE774
:103EF00040F2C800C2F200000068D0F81CC0BDF853
:103F00000600BDF80410BDF80220BDF80030E047FF
:103F1000FFE702B080BD000080B540F2E850C2F279
:103F20000000006840B1FFE740F2E851C2F2000132
:103F3000086801380860FFE740F25020C2F2000034
:103F4000016801310160006847F6D501C2F2E961FC
:103F500048434FEAB00041F26E21C0F2830188422B
:103F60000AD8FFE740F60000C4F201001021C0F2B9
:103F70001041FDF71FFFFFE780BD000080B582B054
:103F80000220FDF71DFDFFE7FDF712FD022801D01D
:103F9000FFE7F9E7FDF78CFFFFE7FDF793FF012847
:103FA00001D0FFE7F9E74FF480304FF4E011FDF75F
:103FB00091FFFDF7A3FFFFE7FDF7C2FF012801D046
:103FC000FFE7F9E700200190FDF7C2FF4FF48060A2
:103FD000FDF7CCFF0198FDF7D7FF0220FDF7E2FFC8
:103FE000FFE7FDF739FF082801D0FFE7F9E74AF2BC
:103FF0000020C0F24A400090FDF7F0FE0098FEF766
:1040000059F902B080BD00007047000081B00090F7
:10401000FFE70098411E009108B1FFE7F9E701B002
:104020007047000080B582B040F24B20C2F2000021
:10403000007848B9FFE700F04BF840F24B21C2F29C
:10404000000101200870FFE740F20C10C4F22120AB
:10405000006820B1FFE700208DF8070003E0012091
:104060008DF80700FFE79DF8070002B080BD000053
:1040700080B582B040F29011C4F22121009100205D
:104080000860902000F0A2F800F068F80099ADF800
:10409000060001200860BDF80600C00802B080BD1F
:1040A00080B582B040F29011C4F22121009100202D
:1040B0000860D02000F08AF800F050F80099ADF8C0
:1040C000060001200860BDF80600C00802B080BDEF
:1040D00041F21801C4F20201086840F004000860CF
:1040E00040F29011C4F221210120086040F29411A5
:1040F000C4F22121086040F29C11C4F22121086021
:1041000040F60002C4F201021168042363F30F3188
:10411000116011684FF0030C6CF3134111601168CA
:104120004FF00B0C6CF31751116011686CF31F7199
:104130001160116863F31B61116040F23031C4F209
:104140004221086043F20001C4F2010140F26730ED
:104150000860086840F040000860704780B582B091
:1041600043F20C01C4F20101002008700220FFF7A5
:104170004DFFFFE740F21C10C4F22620006808B192
:10418000FFE7F7E743F20C01C4F2010108788DF86C
:104190000700002008700220FFF738FFFFE740F219
:1041A0001C10C4F22620006808B1FFE7F7E743F2CD
:1041B0000C00C4F2010000788DF806009DF807108D
:1041C0009DF8060040EA012002B080BD80B582B0B3
:1041D0008DF807009DF8070043F20C01C4F20101BD
:1041E00008700220FFF712FFFFE740F21C10C4F234
:1041F0002620006808B1FFE7F7E743F20C00C4F29D
:10420000010000788DF8070002B080BDFFE7FEE7EF
:10421000FFE740F24010C2F20000006808B1FFE77B
:10422000F7E7704781B08DF803009DF9030000287F
:104230000ED4FFE79DF9031001F01F02012090400A
:104240004A094EF20011CEF2000141F82200FFE7C8
:1042500001B0704781B08DF803009DF9030000287C
:104260000ED4FFE79DF9031001F01F0201209040DA
:104270004A094EF20011CEF2000141F82200FFE798
:1042800001B0704781B08DF803009DF9030000284C
:104290000ED4FFE79DF9031001F01F0201209040AA
:1042A0004A094EF20011CEF2000141F82200FFE768
:1042B00001B070474EF60C50CEF200000068C0F31B
:1042C000022070474EF60C50CEF200000068C0F39A
:1042D000022070474EF60C50CEF200000068C0F38A
:1042E0000220704782B08DF8070000919DF9070009
:1042F00000280AD4FFE7009800019DF907104EF24C
:104300000042CEF2000288540BE0009800019DF8B4
:10431000071001F00F014EF61452CEF2000288543D
:10432000FFE702B07047000082B08DF807000091EF
:104330009DF9070000280AD4FFE7009800019DF9C5
:1043400007104EF20042CEF2000288540BE00098B3
:1043500000019DF8071001F00F014EF61452CEF245
:1043600000028854FFE702B07047000082B08DF869
:10437000070000919DF9070000280AD4FFE7009884
:1043800000019DF907104EF20042CEF2000288545F
:104390000BE0009800019DF8071001F00F014EF6A8
:1043A0001452CEF200028854FFE702B070470000BA
:1043B00082B08DF8070000919DF9070000280AD40B
:1043C000FFE7009800019DF907104EF20042CEF27F
:1043D000000288540BE0009800019DF8071001F0DE
:1043E0000F014EF61452CEF200028854FFE702B0DD
:1043F0007047000083B00290029800F00700009020
:104400004EF60C51CEF200010868019001984FF66B
:10441000FF02104001900198009A40EA0220002219
:10442000C0F2FA52104301900198086003B070473F
:1044300082B00190009102B07047000080B500206A
:10444000FCF7ACFC1020FCF7FFFE80BD80B511200E
:10445000FCF7FAFE0120FCF7A1FC80BD80B584B01A
:10446000ADF80E00ADF80C1002920298D0F80200E0
:1044700000900298D0F80A00019000980199401A23
:104480004008009001990298084402900299009A0D
:104490002C20FCF717FF04B080BD000080B582B06F
:1044A000ADF80600ADF80410ADF80220ADF800300C
:1044B0002A20FCF7C9FE9DF80500FCF75DFF9DF87A
:1044C0000400FCF759FFBDF80400BDF800100844D3
:1044D0000138C0F30720FCF74FFFBDF80400BDF81A
:1044E000001008440138C0B2FCF746FF2B20FCF74F
:1044F000ABFE9DF80300FCF73FFF9DF80200FCF7C0
:104500003BFF9DF80300FCF737FF9DF80200FCF726
:1045100033FFBDF80610BDF800202C20FCF7AEFEDE
:1045200002B080BD80B582B0DDF810C0ADF80600E5
:10453000ADF80410ADF80220ADF80030BDF806006B
:10454000BDF80410BDF80220BDF8003000F094FA68
:104550000499BDF80200BDF8002042432C20FCF76E
:10456000B1FE02B080BD000080B582B0ADF806009B
:10457000ADF80410ADF80220ADF800302A20FCF7A9
:1045800063FE9DF80500FCF7F7FE9DF80400FCF7BC
:10459000F3FE9DF80500FCF7EFFE9DF80400FCF724
:1045A000EBFE2B20FCF750FE9DF80300FCF7E4FE29
:1045B0009DF80200FCF7E0FEBDF80200BDF8001017
:1045C00008440138C0F30720FCF7D6FEBDF802000E
:1045D000BDF8001008440138C0B2FCF7CDFEBDF8AC
:1045E0000610BDF800202C20FCF748FE02B080BD6C
:1045F00080B584B084460698ADF80EC0ADF80C10B6
:10460000ADF80A20ADF80830ADF806002A20FCF716
:104610001BFE9DF80F00FCF7AFFE9DF80E00FCF7A7
:10462000ABFEBDF80E00BDF80A1008440138C0F317
:104630000720FCF7A1FEBDF80E00BDF80A100844E3
:104640000138C0B2FCF798FE2B20FCF7FDFD9DF869
:104650000D00FCF791FE9DF80C00FCF78DFEBDF8F7
:104660000C00BDF8081008440138C0F30720FCF71F
:1046700083FEBDF80C00BDF8081008440138C0B234
:10468000FCF77AFEBDF80610BDF80A00BDF8082058
:1046900042432C20FCF7F2FD04B080BD4FF4A07023
:1046A000704700004FF4F0707047000080B586B08E
:1046B00040F23C10C2F200000078C007C8B9FFE722
:1046C00040F23C10C2F20000017841F0010101709B
:1046D00000788007002803D4FFE7FCF783FBFFE79F
:1046E00040F23C11C2F20001087840F0020008706C
:1046F000FFE70A200090FCF749FB1120FCF7A4FD1E
:104700000098FCF743FB45F69E51C0F6000102916C
:10471000B42001220492FCF7F5FD05200590FCF77A
:1047200035FB049A4FF64511C0F60201C120FCF793
:10473000E9FD0598FCF72AFB45F6A051C0F60001FB
:10474000C5200422FCF7DEFD0598FCF71FFB47F6A9
:104750007B31C0F60001E0200F220192FCF7D2FD70
:104760000598FCF713FB019A47F68B31C0F6000160
:10477000E120FCF7C7FD0598FCF708FB049A4FF60B
:10478000B911C0F602013A200390FCF7BBFD059871
:10479000FCF7FCFA0299049AB020FCF7B3FD0598E7
:1047A000FCF7F4FA0398049A4FF6B711C0F6020129
:1047B000FCF7A8FD0598FCF7E9FA3620FCF744FD64
:1047C000E820FCF7D9FD0598FCF7E0FA1320FCF788
:1047D0003BFD0598FCF7DAFA2020FCF735FD782040
:1047E000FCF7D4FA2920FCF72FFD06B080BD0000AD
:1047F00080B582B000200090D320694603220123B7
:10480000FCF7AAFB009849F20041C0F286018842F9
:1048100005D1FFE749F28640ADF8060003E000202D
:10482000ADF80600FFE7BDF8060002B080BD00004D
:1048300080B584B0ADF80E00ADF80C104FF6B9118C
:10484000C0F602013A20009001220192FCF75AFDC5
:104850002A20FCF7F9FC9DF80F00FCF78DFD9DF870
:104860000E00FCF789FD9DF80F00FCF785FD9DF813
:104870000E00FCF781FD2B20FCF7E6FC9DF80D00F7
:10488000FCF77AFD9DF80C00FCF776FD9DF80D0015
:10489000FCF772FD9DF80C00FCF76EFD019B2E20CD
:1048A0000DF10A011A46FCF733FB0098019A4FF606
:1048B000B711C0F60201FCF725FDBDF80A0004B0EF
:1048C00080BD000080B584B0DDF818C0ADF80E00E2
:1048D000ADF80C10ADF80A20ADF80830BDF80E00A8
:1048E000BDF80C10BDF80A20BDF8083000F0C4F87F
:1048F0004FF6B911C0F602013A2000900122019250
:10490000FCF700FD019B0699BDF80A00BDF80820E0
:1049100042432E20FCF7FCFA0098019A4FF6B7119B
:10492000C0F60201FCF7EEFC04B080BD80B582B099
:10493000ADF80600ADF80410ADF80220BDF8040093
:1049400040F2C451C2F20001C98888420AD1FFE78F
:10495000BDF8020040F2C451C2F200014988884209
:1049600018D0FFE7BDF8040040F2C451C2F20001C4
:10497000C880BDF8020021F8020FBDF80400BDF8A0
:1049800002201044C0F5F070488033200322FCF769
:1049900099FCFFE740F2C450C2F200008188BDF9E3
:1049A000062092FBF1F000FB1120ADF80600BDF9E6
:1049B0000600B0F1FF3F0DDCFFE740F2C451C2F248
:1049C00000018888BDF80620104449880844ADF8E5
:1049D00006000AE0BDF8060040F2C451C2F2000130
:1049E00049880844ADF80600FFE7BDF9060040F22B
:1049F000C451C2F20001098888420DD0FFE7BDF81A
:104A0000061040F2C450C2F2000001800188372035
:104A10000122FCF733FCFFE702B080BD80B582B015
:104A2000ADF80600ADF804102A20FCF70DFC9DF847
:104A30000700FCF7A1FC9DF80600FCF79DFC9DF823
:104A40000700FCF799FC9DF80600FCF795FC2B206D
:104A5000FCF7FAFB9DF80500FCF78EFC9DF80400BE
:104A6000FCF78AFC9DF80500FCF786FC9DF8040025
:104A7000FCF782FC02B080BD80B582B0ADF80600C4
:104A8000ADF80410ADF80220ADF80030BDF8040018
:104A900040F2FC51C2F200010880BDF80400BDF8EC
:104AA00000100844013840F2FA51C2F200010880B7
:104AB0002A20FCF7C9FB9DF80700FCF75DFC9DF878
:104AC0000600FCF759FCBDF80600BDF802100844CA
:104AD0000138C0F30720FCF74FFCBDF80600BDF815
:104AE000021008440138C0B2FCF746FC2B20FCF74A
:104AF000ABFB9DF80500FCF73FFC9DF80400FCF7BC
:104B00003BFCBDF80400BDF8001008440138C0F3B8
:104B10000720FCF731FCBDF80400BDF80010084484
:104B20000138C0B2FCF728FC02B080BD80B582B06D
:104B3000ADF80600ADF80410ADF802202A20FCF70D
:104B400083FB9DF80700FCF717FC9DF80600FCF7B7
:104B500013FC9DF80700FCF70FFC9DF80600FCF71E
:104B60000BFC2B20FCF770FB9DF80500FCF704FC08
:104B70009DF80400FCF700FC9DF80500FCF7FCFB29
:104B80009DF80400FCF7F8FB2C20FCF75DFBBDF85A
:104B90000200FCF7D5FB02B080BD000080B588B0F4
:104BA000ADF81E0040F2CC51C2F2000100200870A6
:104BB000FFF738FA00286AD0FFE7FFF759FA0690A6
:104BC000FFF76EFA049008200290FFE70298411E5A
:104BD000029100285AD0FFE7FFF74AFA0590FFF745
:104BE0005FFA039006980599401AB0F1FF3F05DC83
:104BF000FFE706990598401A019004E00698059988
:104C0000401A0190FFE70198072839DCFFE7049874
:104C10000399401AB0F1FF3F05DCFFE704990398C0
:104C2000401A009004E004980399401A0090FFE7AE
:104C30000098072824DCFFE70698059908444010EF
:104C400006900498039908444010049000200290B4
:104C5000FFF7E8F998B1FFE7069840F2F451C2F285
:104C600000010880049840F2F651C2F20001088069
:104C700040F2CC51C2F2000101200870FFE704E0CD
:104C80000598069003980490FFE79FE7FFE740F23E
:104C9000CC50C2F20000007808B080BD83B0ADF8FF
:104CA0000A000191009240F2F450C2F20000008824
:104CB0000199088040F2F650C2F200000088009985
:104CC000088003B07047000080B582B0ADF80600E0
:104CD00040F23C10C2F2000000788007002803D4A4
:104CE000FFE7FCF77FF8FFE740F23C11C2F200015A
:104CF000087840F00200087002B080BD80B584B032
:104D000040F2E451C2F200010391002002900870C9
:104D1000FBF718FDFBF702FD0190FBF709FD0146CB
:104D20000198FBF7EDFD41F2B042C0F60102A5206B
:104D30005521FBF7ADFB40F20000C2F20000FBF78B
:104D400031FD0298039940F2C352C2F20002107082
:104D500040F2F852C2F20002107040F2CE52C2F29B
:104D6000000210700120087004B080BD88B0069069
:104D700000200590FFE705980A280CD8FFE7059A60
:104D800040F2D851C2F2000100208854FFE7059894
:104D900001300590EFE70698049000208DF80F0091
:104DA0004CF60020C3F69A300290069840B9FFE70F
:104DB00040F2D850C2F2000030210170079058E054
:104DC00000208DF80700FFE70498029988420AD274
:104DD000FFE702984CF6CD41CCF6CC41A0FB011088
:104DE000C0080290F0E7029818B9FFE7012002908E
:104DF000FFE7FFE704990120009031B9FFE702982F
:104E0000002818BF01200090FFE70098C00750B3AA
:104E1000FFE7FFE70498029988420AD3FFE79DF86D
:104E20000F0001308DF80F0002990498401A049089
:104E3000F0E79DF80F0030309DF80720511C8DF8E9
:104E4000071040F2D851C2F20001885400208DF8BA
:104E50000F0002984CF6CD41CCF6CC41A0FB0110DE
:104E6000C0080290C6E740F2D850C2F20000079096
:104E7000FFE7079808B0704710B584B08C468646A7
:104E800007980699ADF80EE0ADF80CC0ADF80A2011
:104E9000ADF80830ADF80610ADF80400BDF80E10FE
:104EA000BDF806200020914200901CDAFFE7BDF813
:104EB0000E10BDF80A2000209142009013DDFFE79C
:104EC000BDF80C10BDF804200020914200900ADAD1
:104ED000FFE7BDF80C10BDF8082000209142C8BFC4
:104EE00001200090FFE7009800F0010004B010BD21
:104EF00080B582B000200090019040F25021C2F2B3
:104F0000000108600120FCF7ABFB4FF08050FCF77C
:104F100071FB0320FFF76EFAFFF7CCF9009A0F211F
:104F2000FEF776F901464FF0FF30FFF7DBF9FCF7AB
:104F300061FDFFF723F84FF40050FCF791FBFDF7FC
:104F4000E9FEFDF7F5FFFEF751F8FEF7ADF8FEF7C5
:104F50000BF9FDF7A5F962B64FF4FA70FDF7DEFD27
:104F6000FFF7CCFEFFE740F2E450C2F20000007809
:104F700048B1FFE700F04EFD40F2E451C2F20001FB
:104F800000200870FFE7EEE780B5CEB040F2C350D6
:104F9000C2F200000078012840F0CC80FFE74FF615
:104FA000FF704990FBF708FCFBF7B8FB4190FBF75B
:104FB000BFFB419A783883B2002046903C214C9147
:104FC000FBF786FB4998FBF7E1FB4FF2BE70479079
:104FD000FBF7F2FB46984C994FF4D272459232237C
:104FE0004493FBF7F9FA4698FBF7E6FB40F2100012
:104FF000C2F200004290026810204390492103232E
:105000004893FBF7A9F94998FBF7C0FB4798FBF7D2
:10501000D3FB449B459A46986E21FBF7DDFA4698F0
:10502000FBF7CAFB42994398489B4A687B21FBF7F0
:1050300093F94998FBF7AAFB4798FBF7BDFB449B04
:10504000459A4698A021FBF7C7FA4698FBF7B4FBB0
:1050500042994398489B8A68AD21FBF77DF94998AE
:10506000FBF794FB4798FBF7A7FB449B459A4698B0
:10507000D2214B91FBF7B0FA4998FBF787FB479891
:10508000FBF79AFB45984C9AC8231146FBF7A4FA04
:105090004798FBF791FBFBF741FB46994C9B024677
:1050A0000846FBF715FB45F27872C0F6020240F2A3
:1050B000A9100521FBF7ECF94698FBF77DFB479813
:1050C000FBF764FB489B4C984FF6E002C0F60202E7
:1050D0001221FBF741F945F23012C0F6020214200A
:1050E0000B21FBF7D5F94998FBF766FB4C9A40F288
:1050F000A5104A903D213323FBF7EAFA48F2E81263
:10510000C0F6000240F2B1104D904C21FBF7C0F9FF
:105110004998FBF751FB4A984B994C9A3123FBF77E
:10512000D7FA4D9847F6A032C0F60002E121FBF70E
:10513000AFF9FFE740F2C350C2F200000078022846
:1051400040F0CC80FFE74FF6FF703C90FBF734FB5C
:10515000FBF7E4FA3490FBF7EBFA349A783883B231
:10516000002039903C213F91FBF7B2FA3C98FBF7C5
:105170000DFB4FF2BE703A90FBF71EFB39983F993A
:105180004FF4D272389232233793FBF725FA3998CD
:10519000FBF712FB40F24C00C2F2000035900268AF
:1051A00010203690492103233B93FBF7D5F83C9818
:1051B000FBF7ECFA3A98FBF7FFFA379B389A3998E5
:1051C0006E21FBF709FA3998FBF7F6FA359936980C
:1051D0003B9B4A687B21FBF7BFF83C98FBF7D6FA6C
:1051E0003A98FBF7E9FA379B389A3998A021FBF7F0
:1051F000F3F93998FBF7E0FA359936983B9B8A68C2
:10520000AD21FBF7A9F83C98FBF7C0FA3A98FBF7F9
:10521000D3FA379B389A3998D2213E91FBF7DCF9C3
:105220003C98FBF7B3FA3A98FBF7C6FA38983F9ADE
:10523000C8231146FBF7D0F93A98FBF7BDFAFBF704
:105240006DFA39993F9B02460846FBF741FA45F251
:105250007872C0F6020240F2A9100521FBF718F996
:105260003998FBF7A9FA3A98FBF790FA3B9B3F98DD
:105270004FF68412C0F602021221FBF76DF845F2D8
:105280003012C0F6020214200B21FBF701F93C9802
:10529000FBF792FA3F9A40F2A5103D903D2133234F
:1052A000FBF716FA48F2E812C0F6000240F2B1101D
:1052B00040904C21FBF7ECF83C98FBF77DFA3D98C9
:1052C0003E993F9A3123FBF703FA409847F6A03204
:1052D000C0F60002E121FBF7DBF8FFE740F2C35024
:1052E000C2F200000078032840F0CC80FFE74FF6C0
:1052F000FF702F90FBF760FAFBF710FA2790FBF78F
:1053000017FA279A783883B200202C903C213291EA
:10531000FBF7DEF92F98FBF739FA4FF2BE702D90AC
:10532000FBF74AFA2C9832994FF4D2722B9232231F
:105330002A93FBF751F92C98FBF73EFA40F21C0038
:10534000C2F200002890026810202990492103230E
:105350002E93FBF701F82F98FBF718FA2D98FBF71F
:105360002BFA2A9B2B9A2C986E21FBF735F92C9857
:10537000FBF722FA289929982E9B4A687B21FAF795
:10538000EBFF2F98FBF702FA2D98FBF715FA2A9BF3
:105390002B9A2C98A021FBF71FF92C98FBF70CFAFD
:1053A000289929982E9B8A68AD21FAF7D5FF2F9866
:1053B000FBF7ECF92D98FBF7FFF92A9B2B9A2C9819
:1053C000D2213191FBF708F92F98FBF7DFF92D98DF
:1053D000FBF7F2F92B98329AC8231146FBF7FCF839
:1053E0002D98FBF7E9F9FBF799F92C99329B0246C6
:1053F0000846FBF76DF945F27872C0F6020240F2FA
:10540000A9100521FBF744F82C98FBF7D5F92D9846
:10541000FBF7BCF92E9B32984FF68D12C0F60202B4
:105420001221FAF799FF45F23012C0F60202142059
:105430000B21FBF72DF82F98FBF7BEF9329A40F2BB
:10544000A51030903D213323FBF742F948F2E812D2
:10545000C0F6000240F2B11033904C21FBF718F86F
:105460002F98FBF7A9F930983199329A3123FBF73D
:105470002FF9339847F6A032C0F60002E121FBF77E
:1054800007F8FFE740F2C350C2F2000000780B2893
:1054900040F0CF80FFE74FF6FF702290FBF78CF9CA
:1054A000FBF73CF91A90FBF743F91A9A783883B264
:1054B00000201F903C212591FBF70AF92298FBF769
:1054C00065F94FF2BE702090FBF776F91F98259989
:1054D0004FF4D2721E9232231D93FBF77DF81F9872
:1054E000FBF76AF940F24000C2F200001B9002682C
:1054F00010201C90492103232193FAF72DFF2298B5
:10550000FBF744F92098FBF757F91D9B1E9A1F984B
:105510006E21FBF761F81F98FBF74EF91B991C9859
:10552000219B4A687B21FAF717FF2298FBF72EF997
:105530002098FBF741F91D9B1E9A1F98A021FBF7AD
:105540004BF81F98FBF738F91B991C98219B8A6828
:10555000AD21FAF701FF2298FBF718F92098FBF725
:105560002BF91D9B1E9A1F98D2212491FBF734F82A
:105570001F98FBF721F92298FBF708F92098FBF711
:105580001BF91E98259AC8231146FBF725F8209889
:10559000FBF712F9FBF7C2F81F99259B0246084654
:1055A000FBF796F845F27872C0F6020240F2A910B5
:1055B0000521FAF76DFF1F98FBF7FEF82098FBF71F
:1055C000E5F8219B25984FF6D802C0F60202122179
:1055D000FAF7C2FE45F23012C0F6020214200B2187
:1055E000FAF756FF2298FBF7E7F8259A40F2A51044
:1055F00023903D213323FBF76BF848F2E812C0F605
:10560000000240F2B11026904C21FAF741FF229897
:10561000FBF7D2F823982499259A3123FBF758F801
:10562000269847F6A032C0F60002E121FAF730FFD3
:10563000FFE740F2C350C2F2000000780C2840F0AF
:105640004981FFE74FF6FF701890FBF7B5F8FBF7BD
:1056500065F80C90FBF76CF80C9A783883B2002050
:1056600010903C211791FBF733F81898FBF78EF850
:105670004FF2BE701590FBF79FF8109817994FF4F2
:10568000D272169232230D93FAF7A6FF1098FBF709
:1056900093F840F2F850C2F200001990017840F2FD
:1056A0002800C2F200000E9050F8212010200F9028
:1056B000492103231193FAF74FFE1898FBF766F878
:1056C0001598FBF779F80D9B1098169A6E21FAF74A
:1056D00083FF1098FBF770F80E990F98119B199A99
:1056E000127801EB82014A687B21FAF735FE18989F
:1056F000FBF74CF81598FBF75FF80D9B1098169A7E
:10570000A021FAF769FF1098FBF756F80E990F9849
:10571000119B199A127801EB82018A68AD21FAF780
:105720001BFE1898FBF732F81598FBF745F80D9B10
:105730001098169AD2211391FAF74EFF1098FBF7A2
:105740003BF80E990F98119B199A127801EB820180
:10575000CA68DF21FAF700FE1898FBF717F81598CA
:10576000FBF72AF81698179AC8231146FAF734FF60
:105770001598FBF721F8FAF7D1FF1099179B02460D
:105780000846FAF7A5FF45F27872C0F6020240F229
:10579000A9100521FAF77CFE1098FBF70DF8159873
:1057A000FAF7F4FF119B17984FF66F12C0F602023A
:1057B0001221FAF7D1FD45F23012C0F60202142090
:1057C0000B21FAF765FE1898FAF7F6FF179A40F2E0
:1057D000A51012903D213323FAF77AFF48F2E81220
:1057E000C0F6000240F2B11014904C21FAF750FEBE
:1057F0001898FAF7E1FF12981399179A3123FAF7DC
:1058000067FF149847F6A032C0F60002E121FAF7CC
:105810003FFE1598FAF7D0FF1698179A6D21662368
:10582000FAF756FF1898FAF7C7FF1998007818B9D1
:10583000FFE700200B9009E040F2F850C2F20000B0
:10584000007800EB8000C0000B90FFE70B987230EF
:1058500081B240F2A91032220323FAF739FF40F255
:10586000F850C2F20000007818B9FFE700200A9053
:1058700009E040F2F850C2F20000007800EB80002E
:10588000C0000A90FFE70A98773081B240F2A91071
:1058900032220323FAF71CFF40F2F850C2F2000054
:1058A000007818B9FFE70020099009E040F2F850AD
:1058B000C2F20000007800EB8000C0000990FFE712
:1058C00009987C3081B240F2A91032220323FAF702
:1058D000FFFEFFE740F2C350C2F20000007800284C
:1058E00065D1FFE74FF6FF70FAF7F4FC4FF2BE7098
:1058F0000690FAF761FFFAF711FF024600210891BE
:105900003C2305930846FAF7E3FEFAF711FF3C380B
:105910000490FAF703FF0499059B0246089889B2A0
:10592000FAF7D6FE45F27872C0F6020240F2A910EC
:105930000521FAF7ADFD0698FAF728FF0898FAF75F
:105940003BFF4FF6EE02C0F60202102012210323A5
:10595000FAF702FD48F63002C0F6000214205C217E
:105960000791FAF795FD0799089840F2C252C2F2E2
:105970000002107046F63832C0F60202AE20FAF786
:1059800087FD0799089840F2F952C2F200021070A0
:105990004CF2B042C0F601024FF4A470FAF778FD61
:1059A000089840F2E351C2F200010870FFE74FF29D
:1059B000BE700090FAF700FF0098FAF7E7FEFAF7DA
:1059C000ADFE64380190FAF7B3FE014601983C3908
:1059D00080B289B264223C23FAF77AFE0020FAF7FB
:1059E000EBFEFAF79BFE54380390FAF7A1FE2A3833
:1059F000029040F2C350C2F200000078FFF7B6F9FF
:105A000002990246039880B289B20123FAF7A4FCF6
:105A10004EB080BD80B584B040F2EC50C2F20000C0
:105A2000FAF7D6FE40F2E850C2F200000068002803
:105A300040F0B181FFE740F2EC50C2F20000008874
:105A4000012840F0A881FFE740F2E851C2F20001CE
:105A50006420086040F2C350C2F2000000780146A2
:105A600003910C2800F296810399DFE811F00D00F4
:105A70009B00E600FF0093019301930193019301C2
:105A8000930193011801310140F2EC51C2F200017F
:105A9000488889886B46E2225A609A221A6014224A
:105AA0005C23FFF7E9F9E0B1FFE740F2C250C2F230
:105AB00000000078A0B9FFE748F63002C0F6000207
:105AC00014205C21FAF7E4FC40F2C251C2F200015A
:105AD0000120087040F2C351C2F200010870FFE7D4
