:020000040800F2
:1000000070060020D50100080D2500082105000814
:100010000925000809050008B531000800000000A6
:10002000000000000000000000000000D9300008BF
:100030000D05000800000000A52F0008DD300008B5
:10004000EF010008EF010008EF010008EF010008D0
:10005000EF010008EF010008EF010008EF010008C0
:10006000EF010008EF010008EF010008EF010008B0
:10007000EF010008EF010008EF010008EF010008A0
:10008000EF010008EF010008EF010008EF01000890
:10009000EF010008EF010008EF010008EF01000880
:1000A000EF010008EF010008EF010008EF01000870
:1000B000EF010008EF010008EF010008EF01000860
:1000C000EF010008EF010008EF010008EF01000850
:1000D000EF010008EF010008EF010008EF01000840
:1000E000EF010008EF010008EF010008EF01000830
:1000F000EF010008EF010008EF010008EF01000820
:10010000EF010008EF010008EF010008EF0100080F
:10011000EF010008EF010008EF010008EF010008FF
:10012000EF010008EF010008EF010008EF010008EF
:1001300000F002F800F03EF80AA090E8000C8244BB
:100140008344AAF10107DA4501D100F033F8AFF298
:10015000090EBAE80F0013F0010F18BFFB1A43F0A5
:100160000103184798360000B8360000103A24BF43
:1001700078C878C1FAD8520724BF30C830C144BF0C
:1001800004680C607047000000230024002500264E
:10019000103A28BF78C1FBD8520728BF30C148BFEA
:1001A0000B6070471FB59DE8030000F0CFF81FBD3E
:1001B00010B510BD00F026F91146FFF7F3FF03F06C
:1001C000D9F800F044F903B4FFF7F2FF03BC00F0E4
:1001D00075F900000948804709480047FEE7FEE737
:1001E000FEE7FEE7FEE7FEE7FEE7FEE7FEE7FEE7E7
:1001F00004480549054A064B70470000B131000824
:1002000031010008700000207006002070020020FC
:100210007002002070B5064600F07CF8056806F113
:100220000B0020F00704B4429CBF002070BD2B4699
:100230006A68BAB11068A04210D304F1080188427C
:100240003CBF5068586007D351681019416011686D
:10025000091B016058601460101D70BD1346526880
:10026000002AE7D12146284600F05CF80028DED1BC
:1002700070BD70B50446051F00F04CF80068002CF6
:1002800014BF446870BD002C18BFAC423CBF204670
:100290006468F8D301680A18AA4218BF456003D100
:1002A0002A6805461144016028684119A1421CBF13
:1002B0006C6070BD6168696021680844286070BD29
:1002C0004FF0000200B5134694469646203922BFEF
:1002D000A0E80C50A0E80C50B1F12001BFF4F7AF3A
:1002E000090728BFA0E80C5048BF0CC05DF804EB1C
:1002F000890028BF40F8042B08BF704748BF20F88A
:10030000022B11F0804F18BF00F8012B7047704787
:1003100070477047004870471000002070477047D2
:100320007047704738B504460A4600206946AFF367
:100330000080002808BF38BD02460099204600F022
:100340003FF8012038BD012000F054B8F8B5AFF3F4
:100350000080054600200C46102000BF0646A81964
:10036000A0420DD9324669460020AFF30080070055
:1003700008BF00F03FF80098A04218BF0546C41916
:10038000FFF7C8FF05600746F01D20F0070046197B
:10039000284600F00AF8B44208BFF8BDA21B314657
:1003A0003868BDE8F84000F00BB800210160C0E9F2
:1003B0000110704710207047004870470800002067
:1003C000034640688C46002818BF88423CBF03465D
:1003D0004068F8D318681844884207D00CF103002D
:1003E00020F00700001D411A521A0146081D0A603C
:1003F000FFF73FBF10B500F039F8BDE8104000F03E
:100400002FB870477546FFF7D7FFAE46050069461F
:10041000534620F00700854618B020B5FFF7E8FEE8
:10042000BDE820404FF000064FF000074FF00008F5
:100430004FF0000BAC46ACE8C009ACE8C009ACE832
:10044000C009ACE8C00921F007018D46704710B51E
:100450000446AFF300802046BDE81040FFF7B3BE6E
:10046000002801D000F02AB87047000010B501281C
:1004700005D0002103A000F027F8012010BD09A13C
:10048000F8E7000053494752544D454D3A204F7507
:1004900074206F662068656170206D656D6F72797C
:1004A000000000003A2048656170206D656D6F7234
:1004B0007920636F72727570746564000149182049
:1004C000ABBEFEE72600020070B505460C460A20CA
:1004D00000E06D1C00F011F835B128780028F8D143
:1004E00002E0641C00F009F814B120780028F8D16B
:1004F000BDE870400A20AFF3008008B569468DF86A
:1005000000000320ABBE08BDFFE7FEE77047000018
:1005100081B0EFF3108072B60090FFE7FEE70000B5
:10052000FFE7FEE782B00190019A41F21C00C4F29D
:1005300002000168114301600068019908400090C1
:10054000009802B07047000082B00190019A41F219
:100550001C00C4F2020001681143016000680199A7
:1005600008400090009802B07047000082B00190EF
:10057000019A41F21C00C4F20200016811430160BB
:100580000068019908400090009802B07047000090
:1005900082B00190019A41F21C00C4F2020001688D
:1005A000114301600068019908400090009802B072
:1005B0007047000082B00190019A41F21800C4F225
:1005C0000200016811430160006801990840009031
:1005D000009802B07047000082B00190019A41F289
:1005E0001800C4F20200016811430160006801991B
:1005F00008400090009802B07047000082B001905F
:10060000019A41F21800C4F202000168114301602E
:100610000068019908400090009802B070470000FF
:1006200082B00190019A41F21800C4F20200016800
:10063000114301600068019908400090009802B0E1
:100640007047000082B00190019A41F21800C4F294
:1006500002000168114301600068019908400090A0
:10066000009802B07047000081B00090009A40F2FC
:100670000441C4F2010108689043086001B070476A
:1006800081B00090009A40F20C41C4F20101086868
:100690009043086001B0704781B00090009A40F22A
:1006A0000041C4F2010108689043086001B070473E
:1006B00081B00090009A40F20841C4F2010108683C
:1006C0009043086001B0704781B00090009A40F2FA
:1006D0000441C4F2010108681043086001B070478A
:1006E00081B00090009A40F20C41C4F20101086808
:1006F0001043086001B0704781B00090009A40F24A
:100700000041C4F2010108681043086001B070475D
:1007100081B00090009A40F20841C4F201010868DB
:100720001043086001B0704780B584B0039000208A
:100730008DF80B0003984088C00808B9FFE707E070
:1007400043F21D70C0F600006E2102F07DFDFFE750
:100750000398007928B1FFE703980079012801D1B7
:10076000FFE707E043F21D70C0F600006F2102F0C2
:100770006BFDFFE70398407950B1FFE7039840799C
:10078000012805D0FFE703984079022801D1FFE74F
:1007900007E043F21D70C0F60000702102F054FD26
:1007A000FFE703980079002800F08480FFE70398B2
:1007B000807978B1FFE70398807901280AD0FFE7B4
:1007C00003988079022805D0FFE7039880790328F1
:1007D00001D1FFE707E043F21D70C0F6000075216C
:1007E00002F032FDFFE703980068002861D0FFE7C0
:1007F000039840790146019140B1FFE70198012833
:100800000DD0FFE70198022812D01AE00398006883
:10081000FFF72AFF03980068FFF76EFF15E00398C3
:100820000068FFF739FF03980068FFF74DFF0CE001
:1008300003980068FFF760FF03980068FFF744FF24
:1008400003E001208DF80B00FFE70398807978B36F
:10085000FFE70398807901460091012808D0FFE75F
:10086000009802280DD0FFE70098032812D01AE064
:1008700003980068FFF704FF03980068FFF748FF3C
:1008800015E003980068FFF713FF03980068FFF76F
:1008900027FF0CE003980068FFF73AFF0398006811
:1008A000FFF71EFF03E001208DF80B00FFE7FFE7D5
:1008B000FFE708E003980068FFF7EEFE0398006882
:1008C000FFF7D2FEFFE79DF80B0004B080BD0000EB
:1008D00042F20000C4F20200006800F00700704716
:1008E00081B0009042F20001C4F20201086820F0D9
:1008F0000700009A1043086001B070470421C4F259
:100900000101086840F60042C0F20072104308601E
:10091000704700000421C4F20101086820F0E06083
:100920000860086840F000700860704782B001906D
:1009300000919DF800000821C4F2010151F8200047
:10094000009A4FEA124C20EA1240019B9CFAACFC40
:10095000BCFA8CFC03FA0CF31843D2B241F8220023
:1009600002B0704780B586B005900491059840F6B6
:100970000001C4F20101884230D0FFE7059840F63B
:100980000041C4F20101884228D0FFE7059841F2F6
:100990000001C4F20101884220D0FFE7059841F22E
:1009A0000041C4F20101884218D0FFE7059841F6E2
:1009B0000001C4F20101884210D0FFE7059841F61A
:1009C0000041C4F20101884208D0FFE7059842F2D5
:1009D0000001C4F20101884201D1FFE707E043F2C0
:1009E000AE60C0F60000A32102F02EFCFFE70498E1
:1009F00000686FF07B41084207D0FFE70498C07899
:100A000010F0FB0F01D1FFE707E043F2AE60C0F644
:100A10000000A42102F018FCFFE704980068C0F36E
:100A20000F200390039890FAA0F0B0FA80F00290A3
:100A3000FFE703980299C840002800F0A880FFE76C
:100A400003980299C840C007002800F09C80FFE787
:100A50000298072806D8FFE7029940F20110884063
:100A6000019009E00298A0F108014FF001108840C0
:100A700040F080600190FFE704984068082819D191
:100A8000FFE70498006928B1FFE70498006901288E
:100A900001D1FFE707E043F2AE60C0F60000BF21DE
:100AA00002F0D2FBFFE705980199049A126900F061
:100AB000C9F8FFE704984068A0B1FFE704984068D0
:100AC00004280FD0FFE70498406808280AD0FFE701
:100AD00004984068012805D0FFE704984068092879
:100AE00001D1FFE707E043F2AE60C0F60000C62187
:100AF00002F0AAFBFFE705980199049A526800F0FA
:100B00006DF804984068012805D0FFE70498406814
:100B1000092837D1FFE70498806802280AD0FFE748
:100B200004988068012805D0FFE7049880680328AE
:100B300001D1FFE707E043F2AE60C0F60000CE212E
:100B400002F082FBFFE70498C06828B1FFE7049831
:100B5000C068042801D1FFE707E043F2AE60C0F6A9
:100B60000000CF2102F070FBFFE705980199049A7D
:100B7000926800F07DF805980199049AD26800F017
:100B800047F8FFE7FFE702980130029051E70020A5
:100B900006B080BD82B001900091BDF801000199BE
:100BA000486102B07047000084B003900291019246
:100BB00003989DF80B100844009000990868029A69
:100BC00092FAA2F2B2FA82F293000F229A40904374
:100BD000019A9A401043086004B0704784B00390B3
:100BE0000291019203989DF80B100844009000991F
:100BF0000868029A92FAA2F2B2FA82F293000F22E5
:100C00009A409043019A9A401043086004B070479C
:100C100084B003900291019203989DF80B10084450
:100C2000009000990868029A92FAA2F2B2FA82F24F
:100C3000930004229A409043019A9A40104308601E
:100C400004B0704783B00290019100920298C0688E
:100C500001990A0A20EA1120009992FAA2F2B2FA46
:100C600082F2914008430299C86003B070470000C7
:100C700084B003900291019203989DF80B100844F0
:100C8000009000990868029A92FAA2F2B2FA82F2EF
:100C9000930003229A409043019A9A4010430860BF
:100CA00004B0704780B582B0019001984FF47A711A
:100CB00000F002F802B080BD82B00190009101986E
:100CC0000099B0FBF1F001384EF21401CEF20001B0
:100CD00008604EF21801CEF20001002008604EF2CA
:100CE0001001CEF200010520086002B0704700003C
:100CF00047F20001C4F20001086840F48070086007
:100D00007047000047F20001C4F20001086840F497
:100D1000807008607047000041F22001C4F20201B7
:100D2000086840F4004008607047000041F220016C
:100D3000C4F20201086840F40040086070470000F7
:100D400041F22001C4F20201086840F480300860DA
:100D50007047000041F20400C4F20200006800F095
:100D6000F000704741F20400C4F20200006800F491
:100D7000E060704741F20400C4F20200006800F431
:100D80006050704741F22000C4F20200006800F495
:100D90004070704741F20400C4F20200006800F0A5
:100DA0000C00704741F20400C4F20200006800F039
:100DB0000C00704780B582B0019002F02DF90199C6
:100DC00008600198006802F0EFF801994860019806
:100DD000406802F0FDF8019988600198406802F0CF
:100DE00009F90199C86002B080BD000041F200011C
:100DF000C4F20201086840F48030086070470000C7
:100E000041F20000C4F202000068C0F340407047A5
:100E100041F22001C4F20201086840F001000860BC
:100E20007047000041F22000C4F202000068C0F3E5
:100E30004000704782B00190009141F20401C4F279
:100E40000201086820F47C10019A02F44032009BF1
:100E50001A431043086002B07047000041F20001DD
:100E6000C4F20201086840F080700860704700001A
:100E700041F20400C4F20200006800F480307047C0
:100E800041F20400C4F20200006800F470107047E0
:100E900041F20400C4F202000068C0F34040704711
:100EA00041F20000C4F202000068C0F340607047E5
:100EB00041F22001C4F20201086820F48030086089
:100EC0007047000081B0009041F20401C4F20201B9
:100ED000086820F0F000009A1043086001B07047E5
:100EE00081B0009041F20401C4F20201086820F4CC
:100EF000E060009A1043086001B0704781B0009034
:100F000041F20401C4F20201086820F46050009A22
:100F10001043086001B0704781B0009041F2200199
:100F2000C4F20201086820F44070009A104308607F
:100F300001B0704781B0009041F20401C4F2020197
:100F4000086820F00300009A1043086001B0704761
:100F500081B000900099486820F00200486001B01C
:100F60007047000081B000900099486820F00400AC
:100F7000486001B07047000081B000900099486857
:100F800020F00800486001B07047000081B0009078
:100F90000099486820F00100486001B070470000E7
:100FA00081B000900099486840F01000486001B09E
:100FB0007047000081B000900099486820F0100050
:100FC000486001B07047000080B586B005904FF4CE
:100FD0007A70049000208DF80F000290059842F678
:100FE0000001C4F20001884201D1FFE708E043F2AA
:100FF000E660C0F600004FF4BA7102F025F9FFE791
:10100000059800F001F90290FFE704990020019093
:1010100031B1FFE70298013818BF01200190FFE7C6
:101020000198C007A8B1FFE700F0E8FB012804D150
:10103000FFE7049801380490FFE7059800F0E4F812
:101040000290049820B9FFE701208DF80F00FFE718
:10105000DBE70598FFF7A4FF9DF80F0006B080BD01
:1010600080B586B005904FF47A70049000208DF81A
:101070000F000290059842F60001C4F20001884278
:1010800001D1FFE708E043F2E660C0F6000040F25D
:101090009B1102F0D9F8FFE70598FFF78BFF059841
:1010A00000F0B2F80290FFE704990020019031B1FE
:1010B000FFE70298013818BF01200190FFE701986F
:1010C000C007A8B1FFE700F099FB012804D1FFE7B2
:1010D000049801380490FFE7059800F095F8029015
:1010E000049820B9FFE701208DF80F00FFE7DBE748
:1010F0009DF80F0006B080BD80B584B003900291CA
:1011000001208DF80700039842F60001C4F20001A7
:10111000884201D1FFE707E043F2E660C0F6000035
:10112000A22102F091F8FFE7029801680020B0EBDD
:10113000115F01D1FFE707E043F2E660C0F600006F
:10114000A32102F081F8FFE70298406888B1FFE729
:101150000298406880280CD0FFE702984068B0F5FC
:10116000807F06D0FFE702984068B0F5407F01D14C
:10117000FFE707E043F2E660C0F60000A42102F0BA
:1011800063F8FFE7039800F087F901282FD0FFE705
:101190000398FFF719FF012828D0FFE70398FFF70E
:1011A000D7FE0398FFF7DEFE0398FFF7EFFE0298E5
:1011B000406838B1FFE746F60040C4F2000000F096
:1011C00065F8FFE70298416846F60040C4F2000067
:1011D00000F04EF803980299096800F033F803987C
:1011E000FFF73EFF00208DF80700FFE7FFE79DF8BF
:1011F000070004B080BD000081B0009000984068F6
:10120000C0F3C00001B0704781B000900098406802
:10121000C0F3401001B0704782B001900091019876
:10122000806820F00F00BDF8021008430199886023
:101230000198C068009961F30F000199C86002B07D
:101240007047000082B0019000910198806820F002
:101250000F00BDF802100843019988600198C0682A
:10126000009961F30F000199C86002B07047000057
:1012700082B0019000910198C06A20F460700099DA
:1012800008430199C86202B07047000081B0009025
:1012900046F63041C4F20001086820F00100086001
:1012A00001B0704780B586B005900491039201208B
:1012B0008DF80B0000200190059842F60001C4F261
:1012C0000001884201D1FFE707E043F2E660C0F683
:1012D0000000E42101F0B8FFFFE7049820B1FFE728
:1012E0000498012801D1FFE707E043F2E660C0F669
:1012F0000000E52101F0A8FFFFE7049858BBFFE7D5
:1013000003980078172801D8FFE707E043F2E6606A
:10131000C0F60000E92101F097FFFFE7039840784D
:101320003B2801D8FFE707E043F2E660C0F6000083
:10133000EA2101F089FFFFE7039880783B2801D874
:10134000FFE707E043F2E660C0F60000EB2101F0A2
:101350007BFFFFE742E003980078010901EB810180
:1013600000F00F0000EB4100C0B2172801D8FFE7E2
:1013700007E043F2E660C0F60000EF2101F064FFF1
:10138000FFE703984078010901EB810100F00F00AD
:1013900000EB4100C0B23B2801D8FFE707E043F271
:1013A000E660C0F60000F02101F04EFFFFE7039871
:1013B0008078010901EB810100F00F0000EB410092
:1013C000C0B23B2801D8FFE707E043F2E660C0F671
:1013D0000000F12101F038FFFFE7FFE70598FFF774
:1013E000F3FD012843D0FFE7049890B9FFE7039984
:1013F00008784A7889784FF461635843C2EB021247
:1014000000EB8200084401900598019900F036F83D
:1014100029E0039908784A788978030903EB830364
:1014200000F00F0000EB4300C0B24FF4616358437B
:10143000130903EB830302F00F0202EB4302D2B263
:10144000C2EB021200EB82000A0902EB820201F0F9
:101450000F0101EB4201C9B20844019005980199BE
:1014600000F00CF8FFE700208DF80B00FFE705986F
:10147000FFF7F6FD9DF80B0006B080BD82B001902D
:101480000091BDF8020001998861BDF80000019942
:10149000C86102B07047000080B586B005904FF477
:1014A0007A70049000208DF80F000290059842F6A3
:1014B0000001C4F20001884201D1FFE708E043F2D5
:1014C000E660C0F6000040F2F51101F0BDFEFFE756
:1014D0000598FFF751FD0598FFF78EFE0290FFE794
:1014E00004990020019031B1FFE70298002818BF4D
:1014F00001200190FFE70198C007A8B1FFE700F0C5
:101500007DF9012804D1FFE7049801380490FFE732
:101510000598FFF771FE0290049820B9FFE70120BB
:101520008DF80F00FFE7DBE79DF80F0006B080BDE8
:1015300080B584B00390029101208DF807000398D4
:1015400043F20001C4F20101884210D0FFE7039882
:1015500043F60001C4F20001884208D0FFE7039877
:1015600043F60041C4F20001884201D1FFE707E0E1
:1015700043F25570C0F60000B72101F065FEFFE7A9
:101580000298006890B1FFE702980068B0F5806F9C
:101590000CD0FFE702980068B0F5004F06D0FFE7D7
:1015A00002980068B0F5404F01D1FFE707E043F231
:1015B0005570C0F60000BA2101F046FEFFE7029820
:1015C0004068B0F5827F04D0FFE70298406808B910
:1015D000FFE707E043F25570C0F60000BB2101F0C1
:1015E00033FEFFE70298806830B1FFE70298806819
:1015F000B0F5006F01D1FFE707E043F25570C0F688
:101600000000BC2101F020FEFFE70298C06828B16D
:10161000FFE70298C068022801D1FFE707E043F224
:101620005570C0F60000BD2101F00EFEFFE70298E4
:10163000006928B1FFE702980069012801D1FFE79E
:1016400007E043F25570C0F60000BE2101F0FCFD3A
:10165000FFE702984069B0F5007F0AD0FFE70298E3
:10166000406930B1FFE702984069B0F5802F01D1A1
:10167000FFE707E043F25570C0F60000BF2101F01C
:10168000E3FDFFE70298806918B3FFE702988069DD
:1016900008281ED0FFE702988069102819D0FFE7BC
:1016A00002988069182814D0FFE7029880692028E2
:1016B0000FD0FFE70298806928280AD0FFE7029838
:1016C0008069302805D0FFE702988069382801D169
:1016D000FFE707E043F25570C0F60000C02101F0BB
:1016E000B3FDFFE70298C069802804D0FFE70298A5
:1016F000C06908B9FFE707E043F25570C0F6000083
:10170000C12101F0A1FDFFE70298006AB0F5005F7A
:1017100004D0FFE70298006A08B9FFE707E043F248
:101720005570C0F60000C22101F08EFDFFE703985E
:1017300000F052F8002845D1FFE7039800684FF603
:10174000BF718843029A00921168D2F804E0D2F87F
:1017500008C0D36841EA0E0141EA0C01194313693C
:1017600019435369194393691943D3691943126A99
:1017700011430843039908600398406820F004006F
:101780000299C98A0843039948600298006AB0F533
:10179000005F13D1FFE70298406A08B1FFE707E056
:1017A00043F25570C0F60000E52101F04DFDFFE762
:1017B00003980299496A00F017F8FFE700208DF8B6
:1017C0000700FFE70399C86920F40060C8619DF82D
:1017D000070004B080BD000081B000900098006850
:1017E000C0F3801001B0704782B001900091BDF845
:1017F00000000199086102B0704700004EF210002D
:10180000CEF200000068C0F30040704781B0009045
:10181000009840F20001C2F20001086001B0704778
:1018200081B000900099086820F08000086001B045
:101830007047000081B000900099886820F0800017
:10184000886001B07047000081B00090009948693D
:1018500040F00100486101B07047000080B584B0DD
:1018600003900291039842F60041C4F201018842BC
:1018700035D0FFE7039843F20041C4F201018842EA
:101880002DD0FFE70398B0F1804F28D0FFE70398F1
:1018900040F20041C4F20001884220D0FFE70398E3
:1018A00040F60001C4F20001884218D0FFE7039817
:1018B00040F60041C4F20001884210D0FFE70398CF
:1018C00041F20001C4F20001884208D0FFE703980A
:1018D00041F20041C4F20001884201D1FFE708E073
:1018E00043F28C70C0F600004FF4A57101F0ACFC1F
:1018F000FFE702984068A0B1FFE70298406810280F
:101900000FD0FFE70298406840280AD0FFE702980E
:101910004068202805D0FFE702984068602801D180
:10192000FFE708E043F28C70C0F6000040F24B1174
:1019300001F08AFCFFE70298C06860B1FFE70298F7
:10194000C068B0F5807F06D0FFE70298C068B0F5A8
:10195000007F01D1FFE708E043F28C70C0F6000081
:101960004FF4A67101F070FCFFE703980068019046
:10197000039842F60041C4F20101884225D0FFE7F6
:10198000039843F20041C4F2010188421DD0FFE7F1
:101990000398B0F1804F18D0FFE7039840F2004160
:1019A000C4F20001884210D0FFE7039840F600011E
:1019B000C4F20001884208D0FFE7039840F60041D6
:1019C000C4F20001884208D1FFE7019820F07000BE
:1019D0000299496808430190FFE7039842F60041E5
:1019E000C4F20101884225D0FFE7039843F2004189
:1019F000C4F2010188421DD0FFE70398B0F1804F87
:101A000018D0FFE7039840F20041C4F20001884279
:101A100010D0FFE7039840F60001C4F200018842AD
:101A200008D0FFE7039840F60041C4F20001884265
:101A300008D1FFE7019820F440700299C968084373
:101A40000190FFE70198039908600398029989685B
:101A500000F032F903980299098800F035F90398EB
:101A600042F60041C4F20101884208D0FFE7039822
:101A700043F20041C4F20101884206D1FFE7039816
:101A80000299096900F028F9FFE70398FFF7DCFEE7
:101A9000002004B080BD000089B00890079107982D
:101AA000012803D1FFE70020049030E007980428C4
:101AB00003D1FFE70120039026E00798102803D107
:101AC000FFE7022002901CE00798402803D1FFE7BF
:101AD0000320019012E00798B0F5807F03D1FFE763
:101AE0000420009007E007990620B1F5806F08BF39
:101AF00005200090FFE700980190FFE70198029011
:101B0000FFE702980390FFE703980490FFE704982B
:101B10008DF81B0008989DF81B2043F2A061C0F6C9
:101B20000001895C0844183005909DF81B1043F2B1
:101B3000A760C0F60000415C042000FA01F205999C
:101B400008689043086009B07047000089B00890A9
:101B500007910798012803D1FFE70020049030E0A7
:101B60000798042803D1FFE70120039026E0079897
:101B7000102803D1FFE7022002901CE007984028BC
:101B800003D1FFE70320019012E00798B0F5807FB2
:101B900003D1FFE70420009007E007990620B1F584
:101BA000806F08BF05200090FFE700980190FFE7D5
:101BB00001980290FFE702980390FFE703980490D2
:101BC000FFE704988DF81B0008989DF81B2043F24E
:101BD000A061C0F60001895C0844183005909DF8AA
:101BE0001B1043F2A760C0F60000415C082000FA19
:101BF00001F2059908681043086009B070470000B9
:101C000080B586B005900491039201208DF80B00F9
:101C10000498019001280ED0FFE70198102811D0F8
:101C2000FFE70198B0F5807F13D0FFE70198B0F58A
:101C3000805F15D01BE00598039900F09FFC8DF89C
:101C40000B0015E00598039900F0E0FD8DF80B00FE
:101C50000EE00598039900F025FF8DF80B0007E0D2
:101C60000598039901F06AF88DF80B0000E0FFE792
:101C70009DF80B0006B080BD82B0019000910098E5
:101C80000199486302B0704782B0019000910098BA
:101C90000199886302B0704782B00190009100986A
:101CA0000199C86302B0704782B00190009100981A
:101CB0000199086402B0704782B0019000910098C9
:101CC0000199C86202B0704782B0019000910098FB
:101CD0000199886202B0704782B00190009100982B
:101CE0000199086302B0704782B001900091019899
:101CF000406820F07000009908430199486002B0E4
:101D00007047000081B000900099086920F490406D
:101D100008610099486920F02A00486101B07047C5
:101D200081B000900099C86840F40050C86001B0CC
:101D30007047000080B588B00790069101208DF8AB
:101D4000170000200490079843F60001C4F2010137
:101D5000884220D0FFE7079844F20041C4F2000116
:101D6000884218D0FFE7079844F60001C4F200014A
:101D7000884210D0FFE7079844F60041C4F2000102
:101D8000884208D0FFE7079845F20001C4F200013D
:101D9000884201D1FFE707E043F2C370C0F60000BC
:101DA000CE2101F051FAFFE7069800684AF620219B
:101DB000C0F24401884201D8FFE707E043F2C37054
:101DC000C0F60000CF2101F03FFAFFE70698406817
:101DD00030B1FFE706984068B0F5805F01D1FFE7BA
:101DE00007E043F2C370C0F60000D02101F02CFAE6
:101DF000FFE706988068B0F5805F10D0FFE706988F
:101E0000806860B1FFE706988068B0F5405F06D053
:101E1000FFE706988068B0F5005F01D1FFE707E0B3
:101E200043F2C370C0F60000D12101F00DFAFFE7C4
:101E30000698C06860B1FFE70698C068B0F5806F8B
:101E400006D0FFE70698C068B0F5C06F01D1FFE784
:101E500007E043F2C370C0F60000D22101F0F4F9AC
:101E6000FFE70698006978B1FFE706980069042843
:101E70000AD0FFE706980069082805D0FFE7069812
:101E800000690C2801D1FFE707E043F2C370C0F6F8
:101E90000000D32101F0D8F9FFE70698406990B11E
:101EA000FFE706984069B0F5807F0CD0FFE7069801
:101EB0004069B0F5007F06D0FFE706984069B0F5AD
:101EC000407F01D1FFE707E043F2C370C0F6000096
:101ED000D42101F0B9F9FFE7079800F07FF8002856
:101EE00078D1FFE70798C06841F20C618843069AF1
:101EF0005168D36812691943114308430799C860B0
:101F000007980699896800F0A7F807980699496923
:101F100000F094F86846FEF74DFF079843F600017D
:101F2000C4F20101884203D1FFE70398049030E036
:101F3000079844F20041C4F20001884203D1FFE750
:101F40000298049024E0079844F60001C4F20001CE
:101F5000884203D1FFE70298049018E0079844F6FE
:101F60000041C4F20001884203D1FFE702980490C7
:101F70000CE0079845F20001C4F20001884203D149
:101F8000FFE70298049000E0FFE7FFE7FFE7FFE7C5
:101F9000FFE70498E8B1FFE706980068C8B1FFE7DB
:101FA00000208DF8170007980499069A126800F02F
:101FB0001DF807988068102801D3FFE708E043F276
:101FC000C370C0F600004FF49B7101F03DF9FFE7CC
:101FD000FFE7FFE79DF8170008B080BD81B00090D3
:101FE0000098C068C0F3403001B0704783B00290E1
:101FF0000191009201981921484300998900B0FB92
:10200000F1F348F21F51C5F2EB11A3FB0120420985
:10201000642002FB1033322000EB0310A0FB01010F
:10202000F02000EA511000EB0210C1F34311084404
:1020300080B20299886003B07047000082B00190BE
:1020400000910198406920F440700099084301997B
:10205000486102B07047000082B001900091019881
:10206000006920F44050009908430199086102B0CA
:102070007047000010B596B000200A90159014909B
:1020800013901290119010900F901020FEF7A4FA68
:102090002020FEF7A1FA04200E90FEF79DFA0820FA
:1020A0000990FEF799FA41F20000C4F20100049091
:1020B0004BF6BF71C0F20B410091FEF76BFD40F68D
:1020C0000000C4F201000D9041F21771C0F21141FD
:1020D0000191FEF75FFD40F60040C4F2010003905D
:1020E0004FF6FF71C0F21F410291FEF753FD41F21E
:1020F0000040C4F20100089040F204410791FEF74D
:1021000049FD009A04980A990F9201220B921092AD
:1021100002220592119212910FA90691FEF722FC5C
:10212000059B06990A9ADDF82CC0DDF804E00D98AD
:10213000CDF83CE0CDF840C011931292FEF712FCAE
:10214000059B06990A9ADDF82CC0DDF808E0039893
:10215000CDF83CE0CDF840C011931292FEF702FC9E
:1021600006990E9A0D980823C0F208430F93109217
:10217000FEF7F8FB06990E9A04981423C0F2144354
:102180000F931092FEF7EEFB059B06990A9ADDF875
:102190002CC0DDF81CE00898CDF83CE0CDF840C03C
:1021A00011931292FEF7DEFB0A984FF07041FEF792
:1021B000BDFB0A980321CFF20001FEF7B7FB099A95
:1021C0000A990B9814928DF854008DF855108DF8DB
:1021D000560014A80C90FEF7A7FA0A9A0B990C98CF
:1021E0004FF4004314938DF854108DF855208DF85A
:1021F0005610FEF799FA0E9A0D9840F60801FEF770
:10220000D3FC0D980E9A8021C0F28041FEF7CCFCE1
:1022100016B010BD80B586B00020019005900490E6
:102220008DF80E00ADF80C00FEF76CFD4FF000606D
:10223000FEF78AF9FEF77AFD4FF0FF300090049028
:1022400042F60000C4F20000029004A9FEF754FF19
:1022500000990298FEF7E0FF019902980C228DF890
:102260000C208DF80D108DF80E10012103AAFFF738
:1022700019F806B080BD000080B594B00AA803909C
:102280002821FEF71DF8002004900990089007907F
:10229000069005904FF48050FEF7B0F904200090AE
:1022A000FEF7ACF904984AF2A001059109210691C4
:1022B00003210791089040F60000C4F2010002904B
:1022C00005A90191FEF74EFB009A0199029844F28C
:1022D000400305930692FEF745FB039904980A9084
:1022E0004FF482720B920C900D900E904FF400728E
:1022F0000F9208221092119012900A20139043F22C
:102300000000C4F20100FFF713F914B080BD000013
:1023100080B594B00AA803902821FDF7D1FF0020D2
:102320000490099008900790069005904FF4804023
:10233000FEF71CF90820FEF761F90498A021C0F20D
:10234000A04105910921069103210791089040F6CB
:102350000040C4F20100029005A90191FEF702FBC2
:10236000019902984022C0F240420592042206924E
:10237000FEF7F8FA039904980A904FF482720B92D0
:102380000C900D900E904FF400720F9210901190DF
:1023900012900A20139043F60000C4F20000FFF7E9
:1023A000C7F814B080BD000080B596B0002003903F
:1023B0001590149013901290119010900F900E9011
:1023C0000D900C900B900A90099008900790069041
:1023D0000590049002200290FEF7DAF80398ADF819
:1023E000440012904FF6FF711391149040F2004098
:1023F000C4F20000019011A9FFF730FA0198FFF72D
:102400000FFA019801210091FFF7A0FB00990198B4
:10241000039A602309930A920B920C920D9209AAD7
:10242000FFF7EEFB00990198FFF736FB019803993F
:10243000FFF75AFC0198FFF7FDF91020FEF7F0F8BE
:102440000299039844F240020492092205920691EF
:10245000079041F20000C4F2010004A9FEF782FADD
:10246000FEF74CFA16B080BD80B592B00020049003
:10247000119010900F900E900D900C900B900A9070
:1024800009900890079006904FF48040FEF7DAF824
:1024900004200190FEF7D6F804980221C0F2024110
:1024A00006910921079103210891099040F6000047
:1024B000C4F20100039006A90291FEF753FA019AB3
:1024C000029903980423C0F2044306930792FEF78F
:1024D00049FA04984FF4E1310B910C900D900E9055
:1024E0000C210F911090119043F60000C4F20100EE
:1024F00005900BA9FFF71EFC0598FFF703FC059854
:10250000FFF70EFC12B080BDFFE7FEE7FFE7FEE736
:1025100088B0079006910592079800F00700049094
:102520000498C0F10700052803D3FFE704200190B9
:1025300004E00498C0F107000190FFE701980390C0
:1025400004980430062803D8FFE70020009003E039
:10255000049803380090FFE70098029006980399CA
:10256000012202FA01F101390840029B98400599C5
:102570009A40013A1140084308B0704780B586B0D0
:1025800005900491059842F60041C4F20101884289
:1025900025D0FFE7059843F20041C4F201018842CB
:1025A0001DD0FFE70598B0F1804F18D0FFE70598E0
:1025B00040F20041C4F20001884210D0FFE70598C4
:1025C00040F60001C4F20001884208D0FFE70598F8
:1025D00040F60041C4F20001884201D1FFE708E063
:1025E00043F28C70C0F6000040F2FF2100F02CFE98
:1025F000FFE70498006818B3FFE704980068102804
:102600001ED0FFE704980068202819D0FFE704983F
:102610000068302814D0FFE70498006840280FD0E5
:10262000FFE70498006850280AD0FFE70498006884
:10263000602805D0FFE704980068702801D1FFE703
:1026400008E043F28C70C0F600004FF4407100F0D7
:10265000FBFDFFE70498406828B1FFE70498406855
:10266000012801D1FFE708E043F28C70C0F60000BA
:1026700040F2013100F0E8FDFFE70498006928B15D
:10268000FFE704980069022801D1FFE708E043F260
:102690008C70C0F6000040F2023100F0D5FDFFE77B
:1026A0000498806828B1FFE704988068012801D168
:1026B000FFE708E043F28C70C0F6000040F20331FF
:1026C00000F0C2FDFFE70498406928B1FFE70498D5
:1026D0004069022801D1FFE708E043F28C70C0F6A0
:1026E00000004FF4417100F0AFFDFFE70599086A63
:1026F00020F0010008620598006A02900598406881
:102700000190059880690390039820F003000390DE
:10271000039820F070000499096808430390029818
:1027200020F002000499096908430290029820F001
:1027300001000499496808430290059842F6004157
:10274000C4F20101884208D0FFE7059843F2004136
:10275000C4F20101884248D1FFE70498C06930B152
:10276000FFE70498C069B0F5807F01D1FFE708E07A
:1027700043F28C70C0F600004FF4487100F064FD25
:10278000FFE70498806930B1FFE704988069B0F5ED
:10279000807F01D1FFE708E043F28C70C0F60000B3
:1027A00040F2213100F050FDFFE7029820F00800D0
:1027B0000499496940EA81000290029820F00400DF
:1027C0000499896840EA81000290019820F48070A1
:1027D0000499896908430190019820F400700499D4
:1027E000C96940EA41000190FFE7019805994860F6
:1027F00003980599886105980499C968FFF73CFA20
:10280000029805990862002006B080BD80B586B0A8
:1028100005900491059842F60041C4F201018842F6
:1028200025D0FFE7059843F20041C4F20101884238
:102830001DD0FFE70598B0F1804F18D0FFE705984D
:1028400040F20041C4F20001884210D0FFE7059831
:1028500040F60001C4F20001884208D0FFE7059865
:1028600040F60041C4F20001884201D1FFE708E0D0
:1028700043F28C70C0F6000040F24E3100F0E4FCF0
:10288000FFE70498006818B3FFE704980068102871
:102890001ED0FFE704980068202819D0FFE70498AD
:1028A0000068302814D0FFE70498006840280FD053
:1028B000FFE70498006850280AD0FFE704980068F2
:1028C000602805D0FFE704980068702801D1FFE771
:1028D00008E043F28C70C0F6000040F24F3100F087
:1028E000B3FCFFE70498406828B1FFE7049840680C
:1028F000012801D1FFE708E043F28C70C0F6000028
:102900004FF4547100F0A0FCFFE70498006928B16F
:10291000FFE704980069022801D1FFE708E043F2CD
:102920008C70C0F6000040F2513100F08DFCFFE7E2
:102930000498806828B1FFE704988068012801D1D5
:10294000FFE708E043F28C70C0F6000040F252311D
:1029500000F07AFCFFE70498406928B1FFE704988B
:102960004069022801D1FFE708E043F28C70C0F60D
:10297000000040F2533100F067FCFFE70599086A58
:1029800020F0100008620598006A029005984068DF
:102990000190059880690390039820F4407003909B
:1029A000039820F4E0400499096840EA012003906C
:1029B000029820F020000499096940EA0110029071
:1029C000029820F010000499496840EA0110029032
:1029D000059842F60041C4F20101884208D0FFE7A1
:1029E000059843F20041C4F20101884249D1FFE752
:1029F0000498C06930B1FFE70498C069B0F5807FE2
:102A000001D1FFE708E043F28C70C0F6000040F20D
:102A10006F3100F019FCFFE70498806930B1FFE7DF
:102A200004988069B0F5807F01D1FFE708E043F2A8
:102A30008C70C0F600004FF45C7100F005FCFFE7FD
:102A4000029820F080000499496940EA81100290C0
:102A5000029820F040000499896840EA81100290B1
:102A6000019820F480600499896940EA810001900E
:102A7000019820F400600499C96940EAC1000190FE
:102A8000FFE70198059948600398059988610598C2
:102A90000499C968FFF7F8F80298059908620020C0
:102AA00006B080BD80B586B005900491059842F6C9
:102AB0000041C4F20101884225D0FFE7059843F2A6
:102AC0000041C4F2010188421DD0FFE70598B0F132
:102AD000804F18D0FFE7059840F20041C4F2000192
:102AE000884210D0FFE7059840F60001C4F20001CB
:102AF000884208D0FFE7059840F60041C4F2000183
:102B0000884201D1FFE708E043F28C70C0F6000074
:102B100040F29D3100F098FBFFE70498006818B37D
:102B2000FFE70498006810281ED0FFE704980068AB
:102B3000202819D0FFE704980068302814D0FFE758
:102B40000498006840280FD0FFE7049800685028D8
:102B50000AD0FFE704980068602805D0FFE70498D2
:102B60000068702801D1FFE708E043F28C70C0F6DE
:102B7000000040F29E3100F067FBFFE704984068D8
:102B800028B1FFE704984068012801D1FFE708E079
:102B900043F28C70C0F6000040F29F3100F054FB0D
:102BA000FFE70498006928B1FFE70498006902284C
:102BB00001D1FFE708E043F28C70C0F600004FF44B
:102BC000687100F041FBFFE70498806828B1FFE7D7
:102BD00004988068012801D1FFE708E043F28C7077
:102BE000C0F6000040F2A13100F02EFBFFE7049890
:102BF000406928B1FFE704984069022801D1FFE746
:102C000008E043F28C70C0F6000040F2A23100F000
:102C10001BFBFFE70599086A20F48070086205989D
:102C2000006A02900598406801900598C069039079
:102C3000039820F003000390039820F0700004999B
:102C4000096808430390029820F400700499096908
:102C500040EA01200290029820F4807004994968AB
:102C600040EA01200290059842F60041C4F20101B9
:102C7000884208D0FFE7059843F20041C4F2010101
:102C8000884249D1FFE70498C06930B1FFE7049852
:102C9000C069B0F5807F01D1FFE708E043F28C7096
:102CA000C0F6000040F2BE3100F0CEFAFFE7049813
:102CB000806930B1FFE704988069B0F5807F01D169
:102CC000FFE708E043F28C70C0F6000040F2BF312D
:102CD00000F0BAFAFFE7029820F40060049949690D
:102CE00040EA81200290029820F48060049989686B
:102CF00040EA81200290019820F48050049989696B
:102D000040EA01100190019820F400500499C9692B
:102D100040EA41100190FFE7019805994860039847
:102D20000599C86105980499C968FEF7B5FF02982E
:102D300005990862002006B080BD000080B586B00D
:102D400005900491059842F60041C4F201018842C1
:102D500025D0FFE7059843F20041C4F20101884203
:102D60001DD0FFE70598B0F1804F18D0FFE7059818
:102D700040F20041C4F20001884210D0FFE70598FC
:102D800040F60001C4F20001884208D0FFE7059830
:102D900040F60041C4F20001884201D1FFE708E09B
:102DA00043F28C70C0F600004FF47B7100F04CFAD7
:102DB000FFE70498006818B3FFE70498006810283C
:102DC0001ED0FFE704980068202819D0FFE7049878
:102DD0000068302814D0FFE70498006840280FD01E
:102DE000FFE70498006850280AD0FFE704980068BD
:102DF000602805D0FFE704980068702801D1FFE73C
:102E000008E043F28C70C0F6000040F2ED3100F0B3
:102E10001BFAFFE70498406828B1FFE70498406870
:102E2000012801D1FFE708E043F28C70C0F60000F2
:102E300040F2EE3100F008FAFFE70498006928B18B
:102E4000FFE704980069022801D1FFE708E043F298
:102E50008C70C0F6000040F2EF3100F0F5F9FFE7AA
:102E60000498406928B1FFE704984069022801D11D
:102E7000FFE708E043F28C70C0F600004FF47C716D
:102E800000F0E2F9FFE70498806828B1FFE70498B2
:102E90008068012801D1FFE708E043F28C70C0F69A
:102EA000000040F2F13100F0CFF9FFE70599086A20
:102EB00020F4805008620598006A029005984068E6
:102EC00001900598C0690390039820F44070039026
:102ED000039820F4E0400499096840EA0120039037
:102EE000029820F400500499096940EA01300290E8
:102EF000029820F480500499496840EA0130029019
:102F0000059842F60041C4F20101884208D0FFE76B
:102F1000059843F20041C4F20101884231D1FFE734
:102F20000498C06930B1FFE70498C069B0F5807FAC
:102F300001D1FFE708E043F28C70C0F6000040F2D8
:102F40000D4100F081F9FFE70498806930B1FFE797
:102F500004988069B0F5807F01D1FFE708E043F273
:102F60008C70C0F6000040F20E4100F06DF9FFE7F2
:102F7000019820F480400499896940EA8110019009
:102F8000FFE701980599486003980599C86105987D
:102F90000499C968FEF788FE029805990862002026
:102FA00006B080BD7047000080B582B001900198E6
:102FB0000090FDF7CFFE01460098C9B20A0943F21E
:102FC0008861C0F60001895CC84002B080BD000085
:102FD00080B582B0019001980090FDF7C3FE0146D4
:102FE00000980A0A43F29861C0F60001895CC84063
:102FF00002B080BD80B582B0019001980090FDF7CD
:10300000B9FE01460098CA0A43F29861C0F6000171
:10301000895CC84002B080BD80B582B000200190BC
:10302000FDF7C0FE0146009140B1FFE7009804287B
:103030000AD0FFE7009808280CD00FE041F20020EA
:10304000C0F27A0001900FE041F20020C0F27A0055
:10305000019009E000F00CF8019005E041F2002039
:10306000C0F27A000190FFE7019802B080BD000035
:1030700080B584B0002003900290FDF7F9FE029025
:103080000298019028B1FFE70198B0F5803F06D083
:1030900010E040F60010C0F23D00039010E0FDF794
:1030A000F7FE411C41F20020C0F27A00B0FBF1F0C3
:1030B000039005E040F60010C0F23D000390FFE7EA
:1030C00003980090FDF7DCFE02460098022101EB18
:1030D0009241484304B080BD704700007047000033
:1030E00080B582B00220FDF7FBFBFFE7FDF7F0FBA8
:1030F000022801D0FFE7F9E7FDF778FEFFE7FDF7CB
:103100007FFE012801D0FFE7F9E7FDF7F1FDFDF7AC
:1031100039FEB0F5807F05D0FFE7FDF711FEFDF722
:10312000C7FEFFE7FDF774FEFFE7FDF77BFE012812
:1031300001D0FFE7F9E7FDF725FEB0F5807F05D068
:10314000FFE74FF48070FDF7E7FEFFE7FDF7E4FDD2
:103150004FF480304FF4E011FDF76CFEFDF77EFE7A
:10316000FFE7FDF79DFE012801D0FFE7F9E700200A
:103170000190FDF7A7FE4FF48060FDF7B1FE0198C6
:10318000FDF7BCFE0220FDF7D5FEFFE7FDF702FECE
:10319000082801D0FFE7F9E74AF20020C0F24A40D0
:1031A0000090FDF77FFD0098FEF730FB02B080BD78
:1031B00070470000FFE7FEE74EF60C50CEF200002D
:1031C0000068C0F30220704782B08DF807000091BC
:1031D0009DF9070000280AD4FFE7009800019DF937
:1031E00007104EF20042CEF2000288540BE0009825
:1031F00000019DF8071001F00F014EF61452CEF2B7
:1032000000028854FFE702B07047000083B00290CC
:10321000029800F0070000904EF60C51CEF200012B
:103220000868019001984FF6FF0210400190019844
:10323000009A40EA02200022C0F2FA5210430190A4
:103240000198086003B0704782B00190009102B00D
:103250007047000080B584B002902420FCF7DAFFAC
:103260000190019818B9FFE70020039011E002983F
:1032700001990860019900200090086100F062F84F
:1032800001460098019A9160019908710198039094
:10329000FFE7039804B080BD80B584B0029040F28F
:1032A0006800C2F20000006848B9FFE70298FFF723
:1032B000D1FF40F26801C2F20001086029E040F24B
:1032C0006800C2F20000006801900198006802994D
:1032D000884203D1FFE70198039021E0FFE70198BE
:1032E000006968B1FFE701980069019001980068E2
:1032F0000299884203D1FFE70198039010E0EEE7BE
:103300000298FFF7A7FF01990861019800690390EF
:1033100006E040F26800C2F2000000680390FFE798
:10332000039804B080BD000081B00090FFE70098D2
:10333000406820B1FFE7009808300090F7E7009858
:1033400001B0704780B582B00820FCF763FF0090A1
:10335000009818B9FFE70020019007E000990020CD
:1033600008600099486000980190FFE7019802B05A
:1033700080BD000080B582B000200090019000F078
:103380007FF800F07DF90120FDF714F94FF080502F
:10339000FDF7C8F80320FFF739FFFFF70DFF009A8C
:1033A0000F21FFF7B5F801464FF0FF30FFF70CFF94
:1033B000FDF7B0FAFFF794FEFEF75CFEFEF75CFF48
:1033C000FEF7A6FFFEF7F0FFFFF74EF8FEF722FF2D
:1033D000FFE7FEE780B584B002900298006818B954
:1033E000FFE70020039010E0029800680068019059
:1033F0000298006800900299086840680860009888
:10340000FCF737FF01980390FFE7039804B080BDF5
:1034100080B586B0049003910498006828B9FFE74E
:10342000FFF790FF04990860FFE70498006818B957
:10343000FFE70020059020E004980068006828B9A4
:10344000FFE7039804990968086012E00820FCF778
:10345000E1FE0290039802990860029900204860FA
:1034600004980068FFF760FF019002980199486096
:10347000FFE7049800680590FFE7059806B080BD57
:1034800080B590B0FFF75EFF0F900F9818B9FFE777
:10349000FDF73EF8FFE705208DF8380040F20120E7
:1034A000C0F203400D900020ADF830000B900A9060
:1034B00040F60A30ADF8240040F20670C0F608105D
:1034C00008900FA803900DA90491FFF7A1FF03989E
:1034D0000AA9FFF79DFF039808A9FFF799FF039832
:1034E000FFF778FF014603980791FFF773FF014646
:1034F00003980691FFF76EFF04990590079888429C
:1035000003D0FFE7FDF704F8FFE706980AA9884211
:1035100003D0FFE7FCF7FCFFFFE7059808A9884206
:1035200003D0FFE7FCF7F4FFFFE70FA801900AA91B
:103530000291FFF76DFF019808A9FFF769FF019855
:103540000DA9FFF765FF0198FFF744FF01460198B9
:103550000791FFF73FFF014601980691FFF73AFFF9
:10356000029905900798884203D0FFE7FCF7D0FF47
:10357000FFE7069808A9884203D0FFE7FCF7C8FFD9
:10358000FFE705980DA9884203D0FFE7FCF7C0FFCD
:10359000FFE70FA8FFF71EFF0790079818B1FFE796
:1035A000FCF7B6FFFFE710B080BD000080B58AB021
:1035B0000120C2F2000009900520C2F2000008902C
:1035C0000920C2F2000007900998FFF765FE0690F7
:1035D0000898FFF761FE05900798FFF75DFE0490DD
:1035E000069818B9FFE7FCF793FFFFE7059818B9AD
:1035F000FFE7FCF78DFFFFE7049818B9FFE7FCF73A
:1036000087FFFFE706980599884203D1FFE7FCF79B
:103610007FFFFFE705980499884203D1FFE7FCF795
:1036200077FFFFE704980699884203D1FFE7FCF78C
:103630006FFFFFE70998FFF72FFE03900898FFF749
:103640002BFE02900798FFF727FE0190069803993A
:10365000884203D0FFE7FCF75BFFFFE7059802997C
:10366000884203D0FFE7FCF753FFFFE70498019976
:10367000884203D0FFE7FCF74BFFFFE70AB080BDAD
:1036800080B5FFF793FF80BD000000000000000040
:1036900001020304060708090000000001020304F8
:1036A00000000000040404000008000000082E2EA2
:1036B0002F447269766572732F53544D33324631FD
:1036C00078785F48414C5F4472697665722F537217
:1036D000632F73746D3332663178785F6C6C5F671B
:1036E00070696F2E63002E2E2F4472697665727397
:1036F0002F53544D3332463178785F48414C5F4404
:1037000072697665722F5372632F73746D333266EC
:103710003178785F6C6C5F7274632E63002E2E2F8D
:10372000447269766572732F53544D333246317843
:10373000785F48414C5F4472697665722F537263BB
:103740002F73746D3332663178785F6C6C5F657897
:1037500074692E63002E2E2F447269766572732F62
:1037600053544D3332463178785F48414C5F447250
:10377000697665722F5372632F73746D33326631BD
:1037800078785F6C6C5F7370692E63002E2E2F4407
:103790007269766572732F53544D3332463178789F
:1037A0005F48414C5F4472697665722F5372632F94
:1037B00073746D3332663178785F6C6C5F74696DE9
:1037C0002E63002E2E2F447269766572732F535428
:1037D0004D3332463178785F48414C5F44726976A8
:1037E00065722F5372632F73746D3332663178783C
:1037F0005F6C6C5F75736172742E63002038000813
:1038000000000020080000006C01000828380008B3
:103810000800002068060000880100080000000081
:083820000024F4000000000088
:0400000508000131BD
:00000001FF
