:020000040800F2
:10000000D00B0020CD010008C53D000845100008B8
:10001000C13D0008310B0008054E0008000000003B
:100020000000000000000000000000007D4A000801
:100030009D0C00080000000035490008CD4A00086A
:10004000E7010008E7010008E7010008E7010008F0
:10005000E7010008E7010008E7010008E7010008E0
:10006000E701000805100008E7010008E7010008A3
:10007000E7010008E7010008350B0008050C00083F
:10008000E7010008E7010008E7010008E7010008B0
:10009000E7010008E7010008E7010008E7010008A0
:1000A000E7010008E7010008E7010008E701000890
:1000B000E7010008E7010008E7010008E701000880
:1000C000E7010008E7010008E7010008694A0008A5
:1000D0006D4A0008E7010008E7010008E701000891
:1000E000AD0F0008E7010008E7010008E70100087C
:1000F000E7010008E7010008E7010008E701000840
:10010000E7010008E7010008E7010008E70100082F
:10011000E7010008E7010008E7010008E70100081F
:10012000E7010008E7010008E7010008E70100080F
:1001300000F002F800F03AF80AA090E8000C8244BF
:100140008344AAF10107DA4501D100F02FF8AFF29C
:10015000090EBAE80F0013F0010F18BFFB1A43F0A5
:1001600001031847604C0100804C0100103A24BF85
:1001700078C878C1FAD8520724BF30C830C144BF0C
:1001800004680C607047000000230024002500264E
:10019000103A28BF78C1FBD8520728BF30C148BFEA
:1001A0000B6070471FB51FBD10B510BD00F05DF8A6
:1001B0001146FFF7F7FF05F023FD00F07BF803B4CD
:1001C000FFF7F2FF03BC00F07FF80000094880470A
:1001D00009480047FEE7FEE7FEE7FEE7FEE7FEE729
:1001E000FEE7FEE7FEE7FEE704480549054A064B41
:1001F00070470000014C000831010008D0050020C4
:10020000D00B0020D0070020D00700204FF00002C4
:1002100000B5134694469646203922BFA0E80C50FC
:10022000A0E80C50B1F12001BFF4F7AF090728BFD7
:10023000A0E80C5048BF0CC05DF804EB890028BF53
:1002400040F8042B08BF704748BF20F8022B11F07C
:10025000804F18BF00F8012B7047704770477047F8
:10026000004870479800002070477546FFF7F8FF78
:10027000AE4605006946534620F00700854618B093
:1002800020B5FFF7B1FFBDE820404FF000064FF06A
:1002900000074FF000084FF0000BAC46ACE8C00977
:1002A000ACE8C009ACE8C009ACE8C00921F007011E
:1002B0008D46704710B50446AFF300802046BDE878
:1002C0001040FFF77CBF000001491820ABBEFEE7DD
:1002D0002600020080B584B0ADF80E0040F2880020
:1002E000C2F200000068806B029000F0CDFA01902D
:1002F00000F0D4FA019ADDF808C00346BDF80E00FC
:100300006946086000210846E04704B080BD00004F
:1003100080B582B0ADF80600ADF804108DF803206A
:10032000BDF80600BDF8041040F2F802C2F2000267
:100330009368D3F800C09DF80320203AB3F806E094
:1003400002FB0EF29B880733DB0802FB03C200F0BE
:100350002FFD02B080BD000080B58AB0ADF8260048
:10036000ADF8241008928DF81F300120ADF81C0064
:100370000020ADF81A000590049008980390FFE75C
:100380000398411C0391007820B1FFE705980130E4
:100390000590F5E700F078FA40F2F801C2F20001AA
:1003A00089688988B0FBF1F004909DF81F00014630
:1003B0000291012808D0FFE70298022818D0FFE731
:1003C000029803280FD023E0BDF82600059940F2DB
:1003D000F802C2F20002926892885143A0EB5100E9
:1003E000ADF81C0019E0BDF82600ADF81C0014E0C3
:1003F000BDF826100498059A801A40F2F802C2F25D
:100400000002926892885043401AADF81C0004E044
:10041000BDF82600ADF81C00FFE7FFE7089800785C
:10042000002818BF0120019000F02EFA0246019822
:10043000BDF81A1040F2F803C2F200039B689B88D3
:1004400001FB13218AB200219A42A8BF0121084270
:100450001CD0FFE7BDF81C00BDF82410089A1278E4
:10046000FFF756FF40F2F800C2F200008068818872
:10047000BDF81C000844ADF81C0008980130089035
:10048000BDF81A000130ADF81A00C7E70AB080BD08
:1004900080B586B0ADF81600ADF8141004920020B7
:1004A000039002900498D0F8120002900498D0F8BB
:1004B00016000390BDF81600BDF81410BDF8082012
:1004C000BDF80C3004F0DCFA40F28800C2F2000003
:1004D0000068006B68B1FFE740F28800C2F20000DC
:1004E0000068036BBDF81600BDF81410049A984715
:1004F000FFE700F0C9F9019000F0D0F9019A034636
:100500000021084604F0BCFA06B080BD80B586B074
:10051000ADF81600ADF81410ADF81220BDF81210A9
:100520000320A0EB4100039000200290BDF81200D0
:100530000190FFE702980199884200F29180FFE75D
:10054000BDF8160002990844BDF81410019A891AE2
:1005500040F2F802C2F200020092128880B289B220
:1005600000F0C6F8009ABDF816000299401ABDF8CE
:100570001410019BC91A128880B289B200F0B8F831
:10058000009ABDF8160001990844BDF81410029BAA
:10059000C91A128880B289B200F0AAF8009ABDF890
:1005A00016000199401ABDF81410029BC91A12884E
:1005B00080B289B200F09CF8009ABDF8160002994A
:1005C0000844BDF81410019B1944128880B289B206
:1005D00000F08EF8009ABDF816000299401ABDF896
:1005E0001410019B1944128880B289B200F080F87F
:1005F000009ABDF8160001990844BDF81410029B3A
:100600001944128880B289B200F072F8009ABDF8DD
:1006100016000199401ABDF81410029B1944128863
:1006200080B289B200F064F80398B0F1FF3F07DCB4
:10063000FFE70299039800EB8100063003900BE07E
:1006400002980199411A039800EB81000A30039047
:10065000019801380190FFE702980130029069E7A4
:1006600006B080BD80B584B0ADF80E00ADF80C10BA
:10067000ADF80A200020019040F28800C2F200008C
:100680000068006AA0B1FFE740F28800C2F20000F3
:100690000068D0F820C040F2F800C2F200000088E4
:1006A000BDF80E10BDF80C20BDF80A30E0471CE084
:1006B00000200190FFE70198BDF80A10884213D28C
:1006C000FFE7BDF80E0001990844BDF80C1040F298
:1006D000F802C2F20002128880B200F009F8FFE7C7
:1006E000019801300190E6E7FFE704B080BD00000B
:1006F00080B582B0ADF80600ADF80410ADF8022068
:1007000040F28800C2F200000068406970B1FFE763
:1007100040F28800C2F2000000684369BDF806009C
:10072000BDF80410BDF802209847FFE702B080BD75
:1007300080B586B0ADF81600ADF81410ADF81220F3
:10074000BDF812100320A0EB41000390002002909E
:10075000BDF81200019040F2F800C2F200000088DB
:1007600000F0E0F8FFE70298019988425CD8FFE7C3
:100770000198E8B1FFE7BDF81600019A801ABDF8AC
:100780001410029B1944520080B289B292B2FFF752
:1007900069FFBDF81600019A801ABDF81410029B7B
:1007A000C91A520080B289B292B2FFF75BFFFFE72D
:1007B0000298E8B1FFE7BDF81600029A801ABDF86A
:1007C0001410019BC91A520080B289B292B2FFF78D
:1007D00049FFBDF81600029A801ABDF81410019B5B
:1007E0001944520080B289B292B2FFF73BFFFFE793
:1007F0000398B0F1FF3F07DCFFE70299039800EB95
:100800008100063003900BE002980199411A039889
:1008100000EB81000A300390019801380190FFE756
:100820000298013002909EE7BDF81600BDF8141042
:10083000BDF81220FFF76AFE06B080BD10B584B087
:10084000ADF80E00ADF80C10ADF80A20ADF8083088
:1008500040F28800C2F200000068D0F838C0BDF84D
:100860000E00BDF80C10BDF80A20BDF8083040F2AB
:10087000F80EC2F2000EBEF800E06C46C4F800E0CC
:10088000E04704B010BD000080B540F28800C2F21D
:1008900000000068806A804780BD000080B540F29B
:1008A0008800C2F200000068C06A804780BD000076
:1008B00080B582B001208DF8070040F28800C2F2B6
:1008C000000000680068804740F2F802C2F20002AF
:1008D0004FF6FF70506000210091116040F210014E
:1008E000C2F200019160FFF7F5FC00988DF8070057
:1008F0009DF8070002B080BD81B0ADF80200BDF8E0
:10090000020040F2F801C2F20001486001B07047F5
:1009100081B00090009840F2F801C2F200018860B6
:1009200001B0704781B0ADF80200BDF8020040F29E
:10093000F801C2F20001086001B0704780B58AB0CA
:10094000099040F29000C2F20000006801690020A6
:1009500088470999088009980088002800F083805A
:10096000FFE740F29000C2F20000006843690020F7
:100970000DF1220108AA9847BDF822000790BDF8A2
:100980002000069040F21420C2F20000008880028D
:100990004EF61B41C9F2CB51A0FB0110C00A0390D7
:1009A00040F21620C2F20000008880024BF66F0170
:1009B000C9F2D401A0FB0110C00A029003984FF4C1
:1009C000C8714843019002984FF48C7148430090DD
:1009D000079803994843800A0199A0EB912005905C
:1009E000069802994843800A0099A0EB9120049050
:1009F0000598B0F1FF3F03DCFFE70020059011E010
:100A0000059840F21421C2F200010988884208DBEF
:100A1000FFE740F21420C2F2000000880138059080
:100A2000FFE7FFE70498B0F1FF3F03DCFFE700209A
:100A3000049011E0049840F21621C2F200010988E6
:100A4000884208DBFFE740F21620C2F2000000886F
:100A500001380490FFE7FFE705980999488004985A
:100A600009998880FFE70AB080BD000080B582B098
:100A7000ADF80600ADF8041001208DF80300BDF8B4
:100A8000060040F21421C2F200010880BDF80420E3
:100A900040F21620C2F200000280098889024EF658
:100AA0001B42C9F2CB52A1FB0221CA0A40F2985163
:100AB000C2F200010A60008880024BF66F02C9F2A0
:100AC000D402A0FB0220C20A40F29C50C2F20000F5
:100AD000026009684FF4C872514340F21C22C2F20E
:100AE0000002116000684FF48C71484340F22021ED
:100AF000C2F20001086040F29000C2F200000068FB
:100B000020B1FFE700208DF80300FFE79DF8030008
:100B100048B9FFE740F29000C2F2000000680168A7
:100B200000208847FFE79DF8030002B080BD000069
:100B3000FFE7FEE780B582B00020C4F20200006843
:100B40008004002855D5FFE70421C4F202014FF4C8
:100B5000005008608021C4F2072100200860FFE7F0
:100B600040F20010C4F20720006840B1FFE743F6EE
:100B70000C00C4F2000000788DF80700F0E743F69F
:100B80000001C4F20001086840F4804020F0380001
:100B90000860022000F078FAFFE740F20010C4F28B
:100BA0000720006840B1FFE743F60C00C4F20000E4
:100BB00000688DF80700F0E743F60001C4F2000179
:100BC000086840F0400008604421C4F2020100209F
:100BD0000860FFE74420C4F202000068C00708B1C3
:100BE000FFE7F7E740F20811C2F2000100200860B9
:100BF00006E00421C4F202014FF480500860FFE7D0
:100C000002B080BD80B50020C4F2020000688003FD
:100C100000283BD5FFE70421C4F202014FF4003065
:100C200008605821C4F2020100200860FFE7582044
:100C3000C4F202000068C00708B1FFE7F7E78421AB
:100C4000C4F2072100200860FFE740F21C10C4F244
:100C50000720006808B1FFE7F7E7022000F014FA68
:100C600040F20810C2F200000068012807D1FFE737
:100C700040F28411C4F2212101200860FFE740F214
:100C80000811C2F200010020086006E00421C4F24D
:100C900002014FF480300860FFE780BD704700001C
:100CA00080B58CB084460F980E98ADF82EC0ADF884
:100CB0002C10ADF82A20ADF828308DF827009DF8CB
:100CC0002700012809D1FFE74FF2DE700490FFF7FB
:100CD00029FE0498FFF710FE08E04FF2BE70039063
:100CE000FFF720FE0398FFF707FEFFE7BDF82E0091
:100CF000BDF82C10BDF82A20BDF82830FFF79EFD66
:100D000000200290FFF70EFE40F20800C2F2000041
:100D1000FFF7FEFD0298089007900F980690FFE7F6
:100D20000698411C0691007820B1FFE70898013031
:100D30000890F5E7BDF82A10BDF82E0000EB510031
:100D4000ADF81600BDF82810BDF82C0000EB5100DE
:100D5000ADF81400BDF81600BDF814104FF4784239
:100D60000192FFF7C5FC019ABDF82A10BDF82E00CC
:100D700000EB5100BDF82830BDF82C1001EB5301F9
:100D800080B289B2FFF7B4FCBDF82A10BDF82E007E
:100D900000EB5100BDF82820BDF82C1001EB5201EA
:100DA0000F9A80B289B20123FFF7D6FA0CB080BD4A
:100DB00080B58AB0ADF82600ADF824100892002066
:100DC0000090079006900590ADF81200ADF8100065
:100DD0008DF80F000290019040F2F801C2F200017C
:100DE0008A68D288ADF8122089688988ADF8101019
:100DF000BDF81210BDF810205143362202EB41031A
:100E000040F22421C2F200014B80BDF81230BDF83F
:100E100010C003FB0CF302EB43031B0C8B804A81D5
:100E2000BDF810204A828882BDF81220CA82088349
:100E3000BDF81020D11D01F0F801891A8DF80F10AE
:100E40000790FFE70798BDF81210884280F0838072
:100E5000FFE7089ABDF810000730C008079900FBAB
:100E600001200290BDF81000C11D0320B0EBD10F8E
:100E70000AD1FFE7029908784A788978000440EAA5
:100E8000022008440190FFE7BDF81000C11D0220B8
:100E9000B0EBD10F06D1FFE702980088000400BA3A
:100EA0000190FFE7BDF81000C11D0120B0EBD10F8C
:100EB00004D1FFE7029800780190FFE70020069038
:100EC000FFE70698BDF8101088423FD2FFE7079869
:100ED0000138BDF81010069A00FB0121382000EB04
:100EE000410005900198BDF81010069A891A9DF8E6
:100EF0000F2011440139C840C00788B1FFE740F214
:100F0000F800C2F200000168059B40F22422C2F200
:100F10000002D1540068000A05991144487010E09D
:100F200040F2F800C2F200004168059B40F2242222
:100F3000C2F20002D1544068000A05991144487079
:100F4000FFE7FFE7069801300690BAE7FFE707984A
:100F50000130079076E7BDF82600BDF8241040F276
:100F60002422C2F20002FFF793FA0AB080BD00000B
:100F700080B540F28C00C2F200000078012805D153
:100F8000FFE74FF47840FFF7CDFC04E04FF4FC603E
:100F9000FFF7C8FCFFE74FF4CD705F210A22FFF78F
:100FA000C7FB0020FFF7BEFC80BD000080B54FF4FA
:100FB000006000F05DFEC8B1FFE74FF4006000F094
:100FC00019FD40F60000C4F201000821C0F20841FA
:100FD00000F0C0FF48B9FFE704F060FE40F2B051F6
:100FE000C2F2000101200870FFE7FFE74FF4004064
:100FF00000F03EFE28B1FFE74FF4004000F0FAFC9D
:10100000FFE780BD80B5082000F032FEC0B1FFE7E9
:10101000082000F0EFFC40F60000C4F2010040F6AA
:10102000080100F097FF38B9FFE740F2B051C2F273
:10103000000101200870FFE7082000F0DBFCFFE75B
:1010400080BD0000FFE7FEE780B582B00190019807
:1010500002F052FA02B080BD81B08DF803009DF815
:10106000030038B1FFE740F29811C4F222210120B9
:10107000086006E040F29811C4F2222100200860C6
:10108000FFE701B07047000081B00090FFE70098D3
:10109000411E009108B1FFE7F9E701B07047000079
:1010A00080B58AB041F21801C4F20201086840F02C
:1010B0001C00086041F21401C4F20201086840F00B
:1010C0000100086040F60441C4F201010291086881
:1010D000042262F31B60086041F20001C4F20101C6
:1010E000039108680222019262F31B6008600120EC
:1010F0000590FFF7B1FFDDF804C002990598DDF80F
:101100000CE040F60003C4F201031A686CF303021A
:101110001A6040F28012C4F221220492106040F260
:101120009412C4F22222106040F28412C4F22122EE
:101130001060DEF800204FF0030C6CF31752CEF86D
:1011400000201A686CF307121A6048F2B412C4F255
:101150002122106040F2B832C4F2422210600868C6
:101160000B2262F317500860086862F31F70086072
:1011700043F60001C4F2000140F2473008600868FD
:1011800040F0400008600A200690FFF75DFF049AD7
:10119000069800211160FFF757FF049A05990698F9
:1011A0001160FFF751FF0F2007900D21089103F008
:1011B000FBFE079803F062FE08990E20099003F0E9
:1011C000F3FE099803F05AFE0AB080BD80B584B0E2
:1011D0008DF80F0002910192009303F015FE2C216F
:1011E000C4F207210020086040F28411C4F22121DA
:1011F00008609DF80F0002F0A5F90098C00000906B
:10120000009802F0C5F90298019900F061F804B065
:1012100080BD000080B584B08DF80F00029101926E
:10122000009303F0F1FD2C21C4F207210020086097
:1012300040F28411C4F2212108609DF80F0002F0F1
:1012400081F90098C0000090009802F0A1F902987E
:10125000019900F015F904B080BD000083B0029040
:10126000019100920421C4F202014FF48050086001
:101270004421C4F2020100200860FFE74420C4F2C8
:1012800002000068C00708B1FFE7F7E702985021A5
:10129000C4F2020108604C21C4F2020143F60C00C2
:1012A000C4F20000086001984821C4F202010860FD
:1012B00000984421C4F202010860086840F001006F
:1012C00008608021C4F207210120086003B0704744
:1012D00080B588B007900691002004900390042206
:1012E000C4F202024FF4805111604421C4F20201A1
:1012F0000860FFE74420C4F202000068C00708B19C
:10130000FFE7F7E740F21010C2F200005021C4F2EC
:10131000020108604C21C4F2020143F60C00C4F241
:10132000000008604821C4F202014FF48070086098
:1013300002904421C4F2020143F2A0000860086850
:1013400040F0010008608021C4F2072101200860FC
:10135000FFE70698002849D0FFE702984821C4F229
:1013600002010968884240D0FFE7029801380290E4
:1013700020B9FFE74FF480700290FFE700BF00BF85
:1013800000BF0499481C049040F21010C2F2000003
:10139000405C039A511C03910DF105018854049897
:1013A000B0F5807F03D3FFE700200490FFE70398A8
:1013B000032819D1FFE70020039006980138069012
:1013C0009DF805009DF806209DF8071000F0F80034
:1013D000000202F0FC0240EAC20040EAD100079994
:1013E0008A1C07920880FFE7FFE7B2E78021C4F27A
:1013F000072100200860FFE740F20010C4F2072038
:10140000006840B1FFE743F60C00C4F2000000683A
:101410008DF81700F0E743F60001C4F200010868F8
:1014200040F4804020F0380008600220FFF72CFED6
:10143000FFE740F20010C4F20720006840B1FFE768
:1014400043F60C00C4F2000000688DF81700F0E7C6
:101450004421C4F2020100200860FFE74420C4F2E6
:1014600002000068C00708B1FFE7F7E740F2841107
:10147000C4F221210120086002F0C8F808B080BD44
:1014800080B584B00390029143F282000190FFE79F
:10149000029860B3FFE702984FF6FF71884215D3B8
:1014A000FFE740F20811C2F2000102200860039831
:1014B000019A4FF6FE710091FFF7D0FE0099029855
:1014C000401A02900398084403900DE040F208117E
:1014D000C2F200010120086003980299019AFFF707
:1014E000BDFE00200290FFE703F08EFCD0E740F243
:1014F0008411C4F221210120086002F087F804B0B1
:1015000080BD000080B582B08DF8070003F07CFC40
:101510002C21C4F207210020086040F28411C4F29B
:101520002121009108609DF8070002F00BF8009956
:101530000120086002B080BD80B584B08DF80F0036
:10154000ADF80C10029203F05FFC2C21C4F20721CD
:10155000009100200190086040F28411C4F2212122
:1015600008609DF80F0001F0EDFF0099019A01203D
:101570000860029903A800F0C1F804B080BD000023
:1015800080B584B08DF80F000291019203F03CFC0D
:101590002C21C4F2072100910020086040F2841140
:1015A000C4F2212108609DF80F0001F0CBFF0098E4
:1015B000012202600298019900F0A0F804B080BDF9
:1015C00080B584B08DF80F000291019203F01CFCED
:1015D0002C21C4F207210020086040F28411C4F2DB
:1015E000212108609DF80F0001F0ACFF02980199DD
:1015F000012200F007F904B080BD000080B584B07E
:10160000ADF80E0003F000FC2C21C4F207210120EC
:101610000290086040F28411C4F22121019100205F
:101620000860BDF80E0002F02FF8019902980860DA
:1016300004B080BD80B582B08DF8070003F0E4FBF4
:101640002C21C4F207210020086040F28411C4F26A
:101650002121009108609DF8070002F02FF8009901
:101660000120086002B080BD83B002900191009219
:101670000421C4F202014FF48030086043F60001F7
:10168000C4F20001086820F0400008605821C4F24C
:10169000020100200860FFE75820C4F20200006841
:1016A000C00708B1FFE7F7E702986421C4F202011E
:1016B00008606021C4F2020143F60C00C4F200008D
:1016C000086001985C21C4F202010860009858216A
:1016D000C4F2020108608422C4F2072201201060D3
:1016E00043F60002C4F20002106840F040001060AF
:1016F000086840F00100086003B0704780B584B00E
:10170000039002910192019860B9FFE70398018864
:1017100040F21020C2F200000180039043F2125008
:10172000009003E043F292500090FFE7FFE7029839
:10173000002864D0FFE702984FF6FE71884214D863
:10174000FFE740F20811C2F200010120086003988F
:101750000299009AFFF788FF00200290019818B1C3
:10176000FFE703F051FBFFE748E002984FF6FB71FB
:10177000C0F20101884221D8FFE740F20811C2F20D
:10178000000102200860039802994FF6FE72891A40
:10179000009AFFF769FF019850B1FFE7029903989B
:1017A00000EB41000421CFF6FE7108440390FFE7EF
:1017B0004FF6FE70029003F027FB1EE040F2081186
:1017C000C2F20001022008600398009A4FF6FE71F1
:1017D000FFF74AFF019840B1FFE703984FF6FC710D
:1017E000C0F2010108440390FFE702984FF6FE7132
:1017F000401A029003F008FBFFE7FFE797E704B009
:1018000080BD000080B584B00390029101920198E0
:1018100060B9FFE70398017840F21220C2F200009D
:101820000170039043F21200009003E043F2920033
:101830000090FFE7FFE70298C0B3FFE702984FF67A
:10184000FE71884214D8FFE740F20811C2F200018D
:101850000120086003980299009AFFF705FF002015
:101860000290019818B1FFE703F0CEFAFFE71CE001
:1018700040F20811C2F20001022008600398009AA9
:101880004FF6FE71FFF7F0FE019830B1FFE70398C5
:101890004FF6FE7108440390FFE702984FF6FE7181
:1018A000401A029003F0B0FAFFE7C4E704B080BD2D
:1018B00082B00190019A41F21C00C4F2020001685A
:1018C000114301600068019908400090009802B03F
:1018D0007047000082B00190019A41F21C00C4F2EE
:1018E00002000168114301600068019908400090FE
:1018F000009802B07047000082B00190019A41F256
:101900001C00C4F2020001681143016000680199E3
:1019100008400090009802B07047000082B001902B
:10192000019A41F21C00C4F20200016811430160F7
:101930000068019908400090009802B070470000CC
:1019400082B00190019A41F21800C4F202000168CD
:10195000114301600068019908400090009802B0AE
:101960007047000082B00190019A41F21800C4F261
:10197000020001681143016000680199084000906D
:10198000009802B07047000082B00190019A41F2C5
:101990001800C4F202000168114301600068019957
:1019A00008400090009802B07047000082B001909B
:1019B000019A41F21800C4F202000168114301606B
:1019C0000068019908400090009802B0704700003C
:1019D00082B00190019A41F21800C4F2020001683D
:1019E000114301600068019908400090009802B01E
:1019F0007047000081B00090009840F21441C4F29A
:101A00000101086001B0704781B00090009A40F277
:101A10000441C4F2010108689043086001B07047B6
:101A200081B00090009A40F20C41C4F201010868B4
:101A30009043086001B0704781B00090009A40F276
:101A40000041C4F2010108689043086001B070478A
:101A500081B00090009A40F20841C4F20101086888
:101A60009043086001B0704781B00090009A40F246
:101A70000441C4F2010108681043086001B07047D6
:101A800081B00090009A40F20C41C4F20101086854
:101A90001043086001B0704781B00090009A40F296
:101AA0000041C4F2010108681043086001B07047AA
:101AB00081B00090009A40F20841C4F20101086828
:101AC0001043086001B0704780B584B003900020D7
:101AD0008DF80B0003984088C00808B9FFE707E0BD
:101AE00044F6C540C0F601006E2103F09DFAFFE701
:101AF0000398007928B1FFE703980079012801D104
:101B0000FFE707E044F6C540C0F601006F2103F08F
:101B10008BFAFFE70398407950B1FFE703984079CB
:101B2000012805D0FFE703984079022801D1FFE79B
:101B300007E044F6C540C0F60100702103F074FAD6
:101B4000FFE703980079002800F08480FFE70398FE
:101B5000807978B1FFE70398807901280AD0FFE700
:101B600003988079022805D0FFE70398807903283D
:101B700001D1FFE707E044F6C540C0F6010075213A
:101B800003F052FAFFE703980068002861D0FFE7EE
:101B9000039840790146019140B1FFE7019801287F
:101BA0000DD0FFE70198022812D01AE003980068D0
:101BB000FFF72AFF03980068FFF76EFF15E0039810
:101BC0000068FFF739FF03980068FFF74DFF0CE04E
:101BD00003980068FFF760FF03980068FFF744FF71
:101BE00003E001208DF80B00FFE70398807978B3BC
:101BF000FFE70398807901460091012808D0FFE7AC
:101C0000009802280DD0FFE70098032812D01AE0B0
:101C100003980068FFF704FF03980068FFF748FF88
:101C200015E003980068FFF713FF03980068FFF7BB
:101C300027FF0CE003980068FFF73AFF039800685D
:101C4000FFF71EFF03E001208DF80B00FFE7FFE721
:101C5000FFE708E003980068FFF7EEFE03980068CE
:101C6000FFF7D2FEFFE79DF80B0004B080BD000037
:101C700081B0009040F21440C4F201000068009965
:101C80000840401AB0FA80F0400901B070470000E7
:101C900042F20000C4F20200006800F00700704742
:101CA00081B0009042F20001C4F20201086820F005
:101CB0000700009A1043086001B070470421C4F285
:101CC0000101086840F60042C0F20072104308604B
:101CD000704700000421C4F20101086820F0E060B0
:101CE0000860086840F000700860704782B001909A
:101CF00000919DF800000821C4F2010151F8200074
:101D0000009A4FEA124C20EA1240019B9CFAACFC6C
:101D1000BCFA8CFC03FA0CF31843D2B241F822004F
:101D200002B0704780B586B005900491059840F6E2
:101D30000001C4F20101884230D0FFE7059840F667
:101D40000041C4F20101884228D0FFE7059841F222
:101D50000001C4F20101884220D0FFE7059841F25A
:101D60000041C4F20101884218D0FFE7059841F60E
:101D70000001C4F20101884210D0FFE7059841F646
:101D80000041C4F20101884208D0FFE7059842F201
:101D90000001C4F20101884201D1FFE707E044F6E7
:101DA0005640C0F60100A32103F03EF9FFE7049876
:101DB00000686FF07B41084207D0FFE70498C078C5
:101DC00010F0FB0F01D1FFE707E044F65640C0F6E4
:101DD0000100A42103F028F9FFE704980068C0F38C
:101DE0000F200390039890FAA0F0B0FA80F00290D0
:101DF000FFE703980299C840002800F0A880FFE799
:101E000003980299C840C007002800F09C80FFE7B3
:101E10000298072806D8FFE7029940F2011088408F
:101E2000019009E00298A0F108014FF001108840EC
:101E300040F080600190FFE704984068082819D1BD
:101E4000FFE70498006928B1FFE7049800690128BA
:101E500001D1FFE707E044F65640C0F60100BF217C
:101E600003F0E2F8FFE705980199049A126900F07F
:101E700003F9FFE704984068A0B1FFE704984068C1
:101E800004280FD0FFE70498406808280AD0FFE72D
:101E900004984068012805D0FFE7049840680928A5
:101EA00001D1FFE707E044F65640C0F60100C62125
:101EB00003F0BAF8FFE705980199049A526800F018
:101EC000A7F804984068012805D0FFE70498406807
:101ED000092837D1FFE70498806802280AD0FFE775
:101EE00004988068012805D0FFE7049880680328DB
:101EF00001D1FFE707E044F65640C0F60100CE21CD
:101F000003F092F8FFE70498C06828B1FFE704984F
:101F1000C068042801D1FFE707E044F65640C0F648
:101F20000100CF2103F080F8FFE705980199049A9A
:101F3000926800F0B7F805980199049AD26800F009
:101F400081F8FFE7FFE702980130029051E7002097
:101F500006B080BD82B00190009101988068BDF804
:101F600001100840401AB0FA80F0400902B07047F2
:101F700082B00190009101988068BDF8011008407E
:101F8000401AB0FA80F0400902B0704782B0019068
:101F90000091BDF801000199486102B0704700004E
:101FA00082B001900091BDF801000199486102B032
:101FB0007047000082B001900091BDF801000199C6
:101FC000086102B07047000082B001900091BDF836
:101FD00001000199086102B07047000084B00390CD
:101FE0000291019203989DF80B100844009000990B
:101FF0000868029A92FAA2F2B2FA82F293000F22D1
:102000009A409043019A9A401043086004B0704788
:1020100084B003900291019203989DF80B1008443C
:10202000009000990868029A92FAA2F2B2FA82F23B
:1020300093000F229A409043019A9A4010430860FF
:1020400004B0704784B003900291019203989DF808
:102050000B100844009000990868029A92FAA2F2C4
:10206000B2FA82F2930004229A409043019A9A4075
:102070001043086004B0704783B002900191009251
:102080000298C06801990A0A20EA1120009992FA80
:10209000A2F2B2FA82F2914008430299C86003B0FA
:1020A0007047000084B003900291019203989DF85C
:1020B0000B100844009000990868029A92FAA2F264
:1020C000B2FA82F2930003229A409043019A9A4016
:1020D0001043086004B0704784B0039002910398E5
:1020E000C0680190BDF809000090019A009802EACA
:1020F0000001904340EA01400399086104B0704731
:1021000080B582B0019001984FF47A7100F002F826
:1021100002B080BD82B00190009101980099B0FB9F
:10212000F1F001384EF21401CEF2000108604EF2D7
:102130001801CEF20001002008604EF21001CEF22C
:1021400000010520086002B07047000047F200015E
:10215000C4F20001086840F4807008607047000015
:1021600047F20001C4F20001086840F48070086082
:102170007047000041F22001C4F20201086840F4F7
:10218000004008607047000041F22001C4F20201E3
:10219000086840F4004008607047000041F22001E8
:1021A000C4F20201086840F4803008607047000003
:1021B00041F20400C4F20200006800F0F000704731
:1021C00041F20400C4F20200006800F4E0607047CD
:1021D00041F20400C4F20200006800F4605070474D
:1021E00041F22000C4F20200006800F44070704721
:1021F00041F20400C4F20200006800F00C007047D5
:1022000041F20400C4F20200006800F00C007047C4
:1022100080B582B0019002F0C7FB01990860019877
:10222000006802F089FB019948600198406802F05B
:1022300097FB019988600198406802F0A3FB01991F
:10224000C86002B080BD000041F20001C4F202018A
:10225000086840F4803008607047000041F20000D8
:10226000C4F202000068C0F34040704741F2200110
:10227000C4F20201086840F00100086070470000E5
:1022800041F22000C4F202000068C0F34000704731
:1022900082B00190009141F20401C4F20201086889
:1022A00020F47C10019A02F44032009B1A43104340
:1022B000086002B07047000041F20001C4F2020160
:1022C000086840F0807008607047000041F2040028
:1022D000C4F20200006800F48030704741F204004C
:1022E000C4F20200006800F47010704741F204006C
:1022F000C4F202000068C0F34040704741F20000A1
:10230000C4F202000068C0F34060704741F220014F
:10231000C4F20201086820F48030086070470000B1
:1023200081B0009041F20401C4F20201086820F07B
:10233000F000009A1043086001B0704781B000902F
:1023400041F20401C4F20201086820F4E060009A3E
:102350001043086001B0704781B0009041F2040161
:10236000C4F20201086820F46050009A104308602B
:1023700001B0704781B0009041F22001C4F2020127
:10238000086820F44070009A1043086001B070475C
:1023900081B0009041F20401C4F20201086820F00B
:1023A0000300009A1043086001B0704781B00090AC
:1023B0000099486820F00200486001B070470000B2
:1023C00081B000900099486820F00400486001B096
:1023D0007047000081B000900099486820F0080024
:1023E000486001B07047000081B0009000994868D3
:1023F00020F00100486001B07047000081B00090FB
:102400000099486840F01000486001B07047000033
:1024100081B000900099486820F01000486001B039
:102420007047000080B586B005904FF47A70049034
:1024300000208DF80F000290059842F60001C4F2CA
:102440000001884201D1FFE708E044F68E40C0F663
:1024500001004FF4BA7102F0E7FDFFE7059800F0C4
:1024600001F90290FFE704990020019031B1FFE7E4
:102470000298013818BF01200190FFE70198C007BA
:10248000A8B1FFE700F0FCFB012804D1FFE70498A6
:1024900001380490FFE7059800F0E4F802900498F2
:1024A00020B9FFE701208DF80F00FFE7DBE7059873
:1024B000FFF7A4FF9DF80F0006B080BD80B586B081
:1024C00005904FF47A70049000208DF80F00029070
:1024D000059842F60001C4F20001884201D1FFE7ED
:1024E00008E044F68E40C0F6010040F29B1102F075
:1024F0009BFDFFE70598FFF78BFF059800F0B2F80A
:102500000290FFE704990020019031B1FFE70298A3
:10251000013818BF01200190FFE70198C007A8B15A
:10252000FFE700F0ADFB012804D1FFE70498013874
:102530000490FFE7059800F095F80290049820B900
:10254000FFE701208DF80F00FFE7DBE79DF80F00A4
:1025500006B080BD80B584B00390029101208DF853
:102560000700039842F60001C4F20001884201D13D
:10257000FFE707E044F68E40C0F60100A22102F01A
:1025800053FDFFE7029801680020B0EB115F01D115
:10259000FFE707E044F68E40C0F60100A32102F0F9
:1025A00043FDFFE70298406888B1FFE70298406862
:1025B00080280CD0FFE702984068B0F5807F06D0F5
:1025C000FFE702984068B0F5407F01D1FFE707E0E0
:1025D00044F68E40C0F60100A42102F025FDFFE77D
:1025E000039800F087F901282FD0FFE70398FFF741
:1025F00019FF012828D0FFE70398FFF7D7FE0398BB
:10260000FFF7DEFE0398FFF7EFFE0298406838B14F
:10261000FFE746F60040C4F2000000F065F8FFE76F
:102620000298416846F60040C4F2000000F04EF8FF
:1026300003980299096800F033F80398FFF73EFF0A
:1026400000208DF80700FFE7FFE79DF8070004B0C2
:1026500080BD000081B0009000984068C0F3C000C9
:1026600001B0704781B0009000984068C0F34010FE
:1026700001B0704782B0019000910198806820F00D
:102680000F00BDF802100843019988600198C068E6
:10269000009961F30F000199C86002B07047000013
:1026A00082B0019000910198806820F00F00BDF881
:1026B00002100843019988600198C068009961F38D
:1026C0000F000199C86002B07047000082B001900D
:1026D00000910198C06A20F4607000990843019944
:1026E000C86202B07047000081B0009046F63041E9
:1026F000C4F20001086820F00100086001B07047D2
:1027000080B586B005900491039201208DF80B00EE
:1027100000200190059842F60001C4F200018842B1
:1027200001D1FFE707E044F68E40C0F60100E42146
:1027300002F07AFCFFE7049820B1FFE70498012833
:1027400001D1FFE707E044F68E40C0F60100E52125
:1027500002F06AFCFFE7049858BBFFE70398007893
:10276000172801D8FFE707E044F68E40C0F60100C5
:10277000E92102F059FCFFE7039840783B2801D893
:10278000FFE707E044F68E40C0F60100EA2102F0C0
:102790004BFCFFE7039880783B2801D8FFE707E070
:1027A00044F68E40C0F60100EB2102F03DFCFFE74D
:1027B00042E003980078010901EB810100F00F006D
:1027C00000EB4100C0B2172801D8FFE707E044F64C
:1027D0008E40C0F60100EF2102F026FCFFE70398CF
:1027E0004078010901EB810100F00F0000EB41008E
:1027F000C0B23B2801D8FFE707E044F68E40C0F6A0
:102800000100F02102F010FCFFE703988078010935
:1028100001EB810100F00F0000EB4100C0B23B284A
:1028200001D8FFE707E044F68E40C0F60100F12131
:1028300002F0FAFBFFE7FFE70598FFF7F3FD012839
:1028400043D0FFE7049890B9FFE7039908784A78E6
:1028500089784FF461635843C2EB021200EB8200A7
:10286000084401900598019900F036F829E0039991
:1028700008784A788978030903EB830300F00F0096
:1028800000EB4300C0B24FF461635843130903EBFC
:10289000830302F00F0202EB4302D2B2C2EB021238
:1028A00000EB82000A0902EB820201F00F0101EB4A
:1028B0004201C9B2084401900598019900F00CF852
:1028C000FFE700208DF80B00FFE70598FFF7F6FD06
:1028D0009DF80B0006B080BD82B001900091BDF85C
:1028E000020001998861BDF800000199C86102B039
:1028F0007047000080B586B005904FF47A70049060
:1029000000208DF80F000290059842F60001C4F2F5
:102910000001884201D1FFE708E044F68E40C0F68E
:10292000010040F2F51102F07FFBFFE70598FFF789
:1029300051FD0598FFF78EFE0290FFE704990020F5
:10294000019031B1FFE70298002818BF01200190E3
:10295000FFE70198C007A8B1FFE700F091F901284F
:1029600004D1FFE7049801380490FFE70598FFF7CA
:1029700071FE0290049820B9FFE701208DF80F0046
:10298000FFE7DBE79DF80F0006B080BD81B0009047
:102990000099086840F04000086001B070470000EE
:1029A00080B584B00390029101208DF80700039850
:1029B00043F20001C4F20101884210D0FFE70398FE
:1029C00043F60001C4F20001884208D0FFE70398F3
:1029D00043F60041C4F20001884201D1FFE707E05D
:1029E00044F6FD40C0F60100B72102F01DFBFFE7F1
:1029F0000298006890B1FFE702980068B0F5806F18
:102A00000CD0FFE702980068B0F5004F06D0FFE752
:102A100002980068B0F5404F01D1FFE707E044F6A7
:102A2000FD40C0F60100BA2102F0FEFAFFE702986D
:102A30004068B0F5827F04D0FFE70298406808B98B
:102A4000FFE707E044F6FD40C0F60100BB2102F0BD
:102A5000EBFAFFE70298806830B1FFE702988068E0
:102A6000B0F5006F01D1FFE707E044F6FD40C0F686
:102A70000100BC2102F0D8FAFFE70298C06828B133
:102A8000FFE70298C068022801D1FFE707E044F69B
:102A9000FD40C0F60100BD2102F0C6FAFFE7029832
:102AA000006928B1FFE702980069012801D1FFE71A
:102AB00007E044F6FD40C0F60100BE2102F0B4FA82
:102AC000FFE702984069B0F5007F0AD0FFE702985F
:102AD000406930B1FFE702984069B0F5802F01D11D
:102AE000FFE707E044F6FD40C0F60100BF2102F019
:102AF0009BFAFFE70298806918B3FFE702988069A4
:102B000008281ED0FFE702988069102819D0FFE737
:102B100002988069182814D0FFE70298806920285D
:102B20000FD0FFE70298806928280AD0FFE70298B3
:102B30008069302805D0FFE702988069382801D1E4
:102B4000FFE707E044F6FD40C0F60100C02102F0B7
:102B50006BFAFFE70298C069802804D0FFE702986B
:102B6000C06908B9FFE707E044F6FD40C0F6010080
:102B7000C12102F059FAFFE70298006AB0F5005F40
:102B800004D0FFE70298006A08B9FFE707E044F6BF
:102B9000FD40C0F60100C22102F046FAFFE70398AB
:102BA00000F052F8002845D1FFE7039800684FF67F
:102BB000BF718843029A00921168D2F804E0D2F8FB
:102BC00008C0D36841EA0E0141EA0C0119431369B8
:102BD00019435369194393691943D3691943126A15
:102BE00011430843039908600398406820F00400EB
:102BF0000299C98A0843039948600298006AB0F5AF
:102C0000005F13D1FFE70298406A08B1FFE707E0D1
:102C100044F6FD40C0F60100E52102F005FAFFE7A9
:102C200003980299496A00F017F8FFE700208DF831
:102C30000700FFE70399C86920F40060C8619DF8A8
:102C4000070004B080BD000081B0009000980068CB
:102C5000C0F3801001B0704782B001900091BDF8C0
:102C600000000199086102B0704700004EF21001A7
:102C7000CEF20001086840F00200086070470000D2
:102C80004EF21000CEF200000068C0F30040704722
:102C900081B00090009840F21801C2F20001086073
:102CA00001B0704781B000900099086820F0800062
:102CB000086001B07047000081B0009000998868FA
:102CC00020F08000886001B07047000081B0009063
:102CD0000099486940F00100486101B07047000068
:102CE00080B584B003900291039842F60041C4F28B
:102CF0000101884235D0FFE7039843F20041C4F256
:102D0000010188422DD0FFE70398B0F1804F28D011
:102D1000FFE7039840F20041C4F20001884220D04E
:102D2000FFE7039840F60001C4F20001884218D082
:102D3000FFE7039840F60041C4F20001884210D03A
:102D4000FFE7039841F20001C4F20001884208D075
:102D5000FFE7039841F20041C4F20001884201D12B
:102D6000FFE708E044F63450C0F601004FF4A571C7
:102D700002F05AF9FFE702984068A0B1FFE7029815
:102D8000406810280FD0FFE70298406840280AD01A
:102D9000FFE702984068202805D0FFE702984068C6
:102DA000602801D1FFE708E044F63450C0F6010086
:102DB00040F24B1102F038F9FFE70298C06860B1A9
:102DC000FFE70298C068B0F5807F06D0FFE7029861
:102DD000C068B0F5007F01D1FFE708E044F6345049
:102DE000C0F601004FF4A67102F01EF9FFE7039848
:102DF00000680190039842F60041C4F20101884244
:102E000025D0FFE7039843F20041C4F20101884254
:102E10001DD0FFE70398B0F1804F18D0FFE703986B
:102E200040F20041C4F20001884210D0FFE703984D
:102E300040F60001C4F20001884208D0FFE7039881
:102E400040F60041C4F20001884208D1FFE7019832
:102E500020F070000299496808430190FFE7039849
:102E600042F60041C4F20101884225D0FFE70398F1
:102E700043F20041C4F2010188421DD0FFE70398EC
:102E8000B0F1804F18D0FFE7039840F20041C4F240
:102E90000001884210D0FFE7039840F60001C4F219
:102EA0000001884208D0FFE7039840F60041C4F2D1
:102EB0000001884208D1FFE7019820F44070029990
:102EC000C96808430190FFE70198039908600398D7
:102ED0000299896800F032F903980299098800F094
:102EE00035F9039842F60041C4F20101884208D046
:102EF000FFE7039843F20041C4F20101884206D182
:102F0000FFE703980299096900F028F9FFE70398A1
:102F1000FFF7DCFE002004B080BD000089B00890FF
:102F200007910798012803D1FFE70020049030E0C3
:102F30000798042803D1FFE70120039026E00798B3
:102F4000102803D1FFE7022002901CE007984028D8
:102F500003D1FFE70320019012E00798B0F5807FCE
:102F600003D1FFE70420009007E007990620B1F5A0
:102F7000806F08BF05200090FFE700980190FFE7F1
:102F800001980290FFE702980390FFE703980490EE
:102F9000FFE704988DF81B0008989DF81B2048F661
:102FA0006501C0F60001895C0844183005909DF861
:102FB0001B1048F66C00C0F60000415C042000FACB
:102FC00001F2059908689043086009B07047000055
:102FD00089B0089007910798012803D1FFE70020E6
:102FE000049030E00798042803D1FFE70120039004
:102FF00026E00798102803D1FFE7022002901CE08A
:103000000798402803D1FFE70320019012E00798BA
:10301000B0F5807F03D1FFE70420009007E0079917
:103020000620B1F5806F08BF05200090FFE70098EB
:103030000190FFE701980290FFE702980390FFE7F5
:1030400003980490FFE704988DF81B0008989DF8FA
:103050001B2048F66501C0F60001895C0844183061
:1030600005909DF81B1048F66C00C0F60000415C0E
:10307000082000FA01F2059908681043086009B0B9
:103080007047000080B586B005900491039201203E
:103090008DF80B000498019001280ED0FFE70198ED
:1030A000102811D0FFE70198B0F5807F13D0FFE71B
:1030B0000198B0F5805F15D01BE00598039900F0EA
:1030C00025FF8DF80B0015E00598039901F066F8CF
:1030D0008DF80B000EE00598039901F0ABF98DF81F
:1030E0000B0007E00598039901F0F0FA8DF80B004A
:1030F00000E0FFE79DF80B0006B080BD82B00190B4
:10310000009100980199486302B0704782B0019025
:10311000009100980199886302B0704782B00190D5
:10312000009100980199C86302B0704782B0019085
:10313000009100980199086402B0704782B0019034
:10314000009100980199C86202B0704782B0019066
:10315000009100980199886202B0704782B0019096
:10316000009100980199086302B0704782B0019005
:1031700000910198406820F070000099084301997F
:10318000486002B07047000081B000900099086963
:1031900020F4904008610099486920F02A004861B5
:1031A00001B0704781B000900099C86840F40050A9
:1031B000C86001B07047000080B588B007900691E4
:1031C00001208DF8170000200490079843F60001B5
:1031D000C4F20101884220D0FFE7079844F2004181
:1031E000C4F20001884218D0FFE7079844F60001B6
:1031F000C4F20001884210D0FFE7079844F600416E
:10320000C4F20001884208D0FFE7079845F20001A8
:10321000C4F20001884201D1FFE707E044F66B5099
:10322000C0F60100CE2101F0FFFEFFE7069800681E
:103230004AF62021C0F24401884201D8FFE707E0A6
:1032400044F66B50C0F60100CF2101F0EDFEFFE720
:103250000698406830B1FFE706984068B0F5805F97
:1032600001D1FFE707E044F66B50C0F60100D02122
:1032700001F0DAFEFFE706988068B0F5805F10D0B5
:10328000FFE70698806860B1FFE706988068B0F5B0
:10329000405F06D0FFE706988068B0F5005F01D177
:1032A000FFE707E044F66B50C0F60100D12101F0C2
:1032B000BBFEFFE70698C06860B1FFE70698C068EC
:1032C000B0F5806F06D0FFE70698C068B0F5C06F14
:1032D00001D1FFE707E044F66B50C0F60100D221B0
:1032E00001F0A2FEFFE70698006978B1FFE70698B3
:1032F000006904280AD0FFE706980069082805D06D
:10330000FFE7069800690C2801D1FFE707E044F6C3
:103310006B50C0F60100D32101F086FEFFE706984E
:10332000406990B1FFE706984069B0F5807F0CD006
:10333000FFE706984069B0F5007F06D0FFE70698E2
:103340004069B0F5407F01D1FFE707E044F66B50DC
:10335000C0F60100D42101F067FEFFE7079800F0F6
:103360007FF8002878D1FFE70798C06841F20C6128
:103370008843069A5168D368126919431143084378
:103380000799C86007980699896800F0A7F8079818
:103390000699496900F094F86846FEF739FF0798E6
:1033A00043F60001C4F20101884203D1FFE703980C
:1033B000049030E0079844F20041C4F200018842D2
:1033C00003D1FFE70298049024E0079844F6000137
:1033D000C4F20001884203D1FFE70298049018E08C
:1033E000079844F60041C4F20001884203D1FFE788
:1033F000029804900CE0079845F20001C4F2000125
:10340000884203D1FFE70298049000E0FFE7FFE75E
:10341000FFE7FFE7FFE70498E8B1FFE706980068D9
:10342000C8B1FFE700208DF8170007980499069AA5
:10343000126800F01DF807988068102801D3FFE794
:1034400008E044F66B50C0F601004FF49B7101F0A8
:10345000EBFDFFE7FFE7FFE79DF8170008B080BD31
:1034600081B000900098C068C0F3403001B0704750
:1034700083B002900191009201981921484300996C
:103480008900B0FBF1F348F21F51C5F2EB11A3FB29
:1034900001204209642002FB1033322000EB0310AC
:1034A000A0FB0101F02000EA511000EB0210C1F373
:1034B0004311084480B20299886003B0704700004D
:1034C00082B0019000910198406920F44070009909
:1034D00008430199486102B07047000082B0019032
:1034E00000910198006920F4405000990843019927
:1034F000086102B07047000082B001904EF21000E7
:10350000CEF200000068009000980198013020B1D0
:10351000FFE7019801300190FFE7FFE7019870B1E4
:10352000FFE74EF21000CEF200000068C003002852
:1035300004D5FFE7019801380190FFE7EEE702B0FC
:103540007047000080B582B08DF8070040F29411FA
:10355000C4F22221002008609DF8070043F60C0108
:10356000C4F2000108600220FDF78EFDFFE740F283
:103570001C10C4F20720006808B1FFE7F7E740F22B
:103580009411C4F222210120086002B080BD000025
:1035900081B0009040F60441C4F2010108680322A2
:1035A00062F317500860FFE70098411E009148B190
:1035B000FFE748F2B411C4F2212100200860012085
:1035C0000860F1E740F60441C4F2010108680B22EB
:1035D00062F317500860FFE740F20010C4F20720C2
:1035E000006838B1FFE743F60C00C4F20000006841
:1035F0000090F1E743F60001C4F20001086840F4CE
:10360000806020F03800086001B0704780B582B05B
:1036100043F60001C4F20001086820F04000086091
:10362000FFE740F20010C4F20720006838B1FFE75E
:1036300043F60C00C4F2000000680190F1E743F685
:103640000001C4F20001086820F4876008600220CD
:10365000FDF71AFDFFE740F20010C4F207200068F2
:1036600038B1FFE743F60C00C4F200000068019097
:10367000F1E743F60001C4F20001086840F04000A1
:10368000086002B080BD000080B582B0ADF80600D1
:10369000BDF8060043F60C01C4F2000108600120E9
:1036A000FDF7F2FCFFE740F21C10C4F207200068AF
:1036B00008B1FFE7F7E702B080BD000080B582B037
:1036C0008DF807009DF8070043F60C01C4F20001D5
:1036D00008600220FDF7D8FCFFE740F21C10C4F29E
:1036E0000720006808B1FFE7F7E702B080BD0000DF
:1036F00080B582B041F20000C4F201000121C0F2A5
:1037000001410191FEF74CFC019940F60000C4F222
:103710000100FEF745FC02B080BD000080B540F21C
:10372000B450C2F2000000784008C00748B9FFE773
:1037300040F2B451C2F20001087840F00200087073
:1037400008E040F2B451C2F20001087800F0FD0038
:103750000870FFE740F2B450C2F200000078C007E2
:1037600028B1FFE700F06AF800F046F8FFE780BDF7
:1037700080B582B041F20000C4F201000190012145
:10378000C0F201410091FEF71FFC009940F60000D5
:10379000C4F20100FEF718FC019848F28001FEF720
:1037A000FFFB01980221C0F20241FEF7F9FB02B0D3
:1037B00080BD000080B582B041F20000C4F201007B
:1037C00001900121C0F201410091FEF7FDFB00993B
:1037D00040F60000C4F20100FEF7F6FB019848F243
:1037E0008001FEF7F1FB01980221C0F20241FEF7D1
:1037F000EBFB02B080BD000080B540F2B450C2F2D5
:1038000000000078C007C0B9FFE740F2B450C2F230
:10381000000000784008C00718B9FFE7FFF7A8FFCD
:1038200002E0FFF7C7FFFFE740F2B451C2F2000128
:10383000087840F001000870FFE780BD80B540F2D5
:10384000B450C2F200000078C00758B1FFE7FFF79C
:103850004FFF40F2B451C2F20001087800F0FE00C0
:103860000870FFE780BD000010B598B000200F90F1
:10387000179016901590149013901290119010209C
:10388000FEF770F82020FEF76DF804200C90FEF78C
:1038900069F808200790FEF765F841F20000C4F2CD
:1038A0000100039048F28771C0F20341FEF76EFBFE
:1038B00040F60040C4F2010002904FF6FF71C0F2E2
:1038C0001F410191FEF762FB40F60000C4F20100C7
:1038D0000B901121C0F21141FEF758FB41F200405C
:1038E000C4F20100069040F204410591FEF74EFB40
:1038F000039843F63801C0F20841FEF75BFB0B98D2
:1039000041F21771FEF756FB03980F994BF6BF7201
:10391000C0F20B42119201220992129202220892E5
:103920001392149111A90491FEF7FCF90499089BD4
:10393000DDF824C00F9A0B9841F2177EC0F2114EA9
:10394000CDF844E0CDF848C013931492FEF7EAF99D
:103950000499089BDDF824C00F9ADDF804E0029872
:10396000CDF844E0CDF848C013931492FEF7DAF98D
:1039700004990C9A03981423C0F2144311931292E1
:10398000FEF7D0F90499089BDDF824C00F9ADDF802
:1039900014E00698CDF844E0CDF848C01393149293
:1039A000FEF7C0F90F984FF07041FEF79FF90F989E
:1039B0000221CFF20001FEF799F90F980321CFF20F
:1039C0000001FEF793F9079B0898099A0F9916933F
:1039D0008DF85C208DF85D108DF85E0016A80A90B9
:1039E000FEF772F8099A0F990A984FF4006316933C
:1039F0008DF85C208DF85D1003218DF85E10FEF7C8
:103A000063F809990F9A0A984FF4004316938DF8BA
:103A10005C108DF85D208DF85E10FEF755F80C9A5D
:103A20000B9840F60801FEF7D9FA0B980C9A08217A
:103A3000C0F20841FEF7D2FA0B980C9A8021C0F22E
:103A40008041FEF7CBFA01F039FA0F9A0E210E9160
:103A500000F0F0F9014609200D9001F061FA0D988F
:103A600001F0DCF901F02AFA0E990F9A00F0E2F960
:103A700001462820109001F053FA109801F0CEF979
:103A800018B010BD80B586B000200190059004905C
:103A90008DF80E00ADF80C00FEF762FB4FF00060F1
:103AA000FDF718FFFEF770FB4FF0FF300090049019
:103AB00042F60000C4F20000029004A9FEF74AFD9D
:103AC00000990298FEF7D6FD019902980C228DF814
:103AD0000C208DF80D108DF80E10012103AAFEF7B1
:103AE0000FFE06B080BD000080B596B00CA8059012
:103AF0002821FCF78BFB002004900B900A90099082
:103B0000089007904FF48050FDF73EFF042000908E
:103B1000FDF73AFF04984AF2A001079109210891A4
:103B2000032109910A9040F60000C4F201000290BE
:103B300007A90191FEF7F6F8009A0199029844F25C
:103B4000400307930892FEF7EDF801F0BFF9049ADD
:103B5000114600F0A5F901462320039001F002FA76
:103B6000039801F073F9049805990C904FF4827250
:103B70000D920E900F9010904FF400721192082247
:103B80001292139014900A20159043F20000C4F290
:103B900001000690FEF704FF0698FEF7F7FE16B048
:103BA00080BD000080B596B00CA805902821FCF7D8
:103BB0002DFB002004900B900A900990089007902C
:103BC0004FF48040FDF798FE0820FDF7DDFE0498D5
:103BD000A021C0F2A0410791092108910321099178
:103BE0000A9040F60040C4F20100029007A901913A
:103BF000FEF798F8019902984022C0F240420792DD
:103C000004220892FEF78EF801F060F9049A11463A
:103C100000F046F901462420039001F0A3F903982F
:103C200001F014F9049805990C904FF482720D92EA
:103C30000E900F9010904FF400721192129013900A
:103C400014900A20159043F60000C4F2000006907C
:103C5000FEF7A6FE0698FEF799FE16B080BD00009E
:103C600080B596B000200390159014901390129098
:103C7000119010900F900E900D900C900B900A9058
:103C800009900890079006900590049002200290F9
:103C9000FDF744FE0398ADF8440012904FF6FF7113
:103CA0001391149040F20040C4F20000019011A959
:103CB000FFF716F80198FEF7F5FF01980121009132
:103CC000FFF786F900990198039A602309930A92F5
:103CD0000B920C920D9209AAFFF7D4F90099019862
:103CE000FFF71CF901980399FFF740FA0198FEF7D6
:103CF000E3FF1020FDF75AFE0299039844F24002B8
:103D00000492092205920691079041F20000C4F244
:103D1000010004A9FEF706F8FDF7D0FF16B080BD3C
:103D200080B592B000200490119010900F900E90EA
:103D30000D900C900B900A900990089007900690B7
:103D40004FF48040FDF744FE04200190FDF740FE53
:103D500004980221C0F20241069109210791032132
:103D60000891099040F60000C4F20100039006A9F2
:103D70000291FDF7D7FF019A029903980423C0F23C
:103D8000044306930792FDF7CDFF04984FF4E13109
:103D90000B910C900D900E900C210F9110901190A2
:103DA00043F60000C4F2010005900BA9FFF704FAE6
:103DB0000598FFF7E9F90598FFF7F4F912B080BD0F
:103DC000FFE7FEE7FFE7FEE788B007900691059260
:103DD000079800F0070004900498C0F10700052838
:103DE00003D3FFE70420019004E00498C0F107002A
:103DF0000190FFE70198039004980430062803D847
:103E0000FFE70020009003E0049803380090FFE7EC
:103E10000098029006980399012202FA01F10139F3
:103E20000840029B984005999A40013A1140084386
:103E300008B0704788B0079006910592079800F087
:103E4000070004900498C0F10700052803D3FFE79A
:103E50000420019004E00498C0F107000190FFE7FE
:103E60000198039004980430062803D8FFE7002047
:103E7000009003E0049803380090FFE70098029058
:103E800006980399012202FA01F101390840029BC8
:103E9000984005999A40013A1140084308B070478C
:103EA00088B0079006910592079800F007000490EB
:103EB0000498C0F10700052803D3FFE70420019010
:103EC00004E00498C0F107000190FFE70198039017
:103ED00004980430062803D8FFE70020009003E090
:103EE000049803380090FFE7009802900698039921
:103EF000012202FA01F101390840029B984005991C
:103F00009A40013A1140084308B0704780B586B026
:103F100005900491059842F60041C4F201018842DF
:103F200025D0FFE7059843F20041C4F20101884221
:103F30001DD0FFE70598B0F1804F18D0FFE7059836
:103F400040F20041C4F20001884210D0FFE705981A
:103F500040F60001C4F20001884208D0FFE705984E
:103F600040F60041C4F20001884201D1FFE708E0B9
:103F700044F63450C0F6010040F2FF2101F054F83D
:103F8000FFE70498006818B3FFE70498006810285A
:103F90001ED0FFE704980068202819D0FFE7049896
:103FA0000068302814D0FFE70498006840280FD03C
:103FB000FFE70498006850280AD0FFE704980068DB
:103FC000602805D0FFE704980068702801D1FFE75A
:103FD00008E044F63450C0F601004FF4407101F09F
:103FE00023F8FFE70498406828B1FFE70498406889
:103FF000012801D1FFE708E044F63450C0F6010083
:1040000040F2013101F010F8FFE70498006928B18F
:10401000FFE704980069022801D1FFE708E044F6B1
:104020003450C0F6010040F2023100F0FDFFFFE71E
:104030000498806828B1FFE704988068012801D1BE
:10404000FFE708E044F63450C0F6010040F20331C7
:1040500000F0EAFFFFE70498406928B1FFE7049801
:104060004069022801D1FFE708E044F63450C0F669
:1040700001004FF4417100F0D7FFFFE70599086A8E
:1040800020F0010008620598006A029005984068D7
:104090000190059880690390039820F00300039035
:1040A000039820F07000049909680843039002986F
:1040B00020F002000499096908430290029820F058
:1040C00001000499496808430290059842F60041AE
:1040D000C4F20101884208D0FFE7059843F200418D
:1040E000C4F20101884248D1FFE70498C06930B1A9
:1040F000FFE70498C069B0F5807F01D1FFE708E0D1
:1041000044F63450C0F601004FF4487100F08CFFC3
:10411000FFE70498806930B1FFE704988069B0F543
:10412000807F01D1FFE708E044F63450C0F601007B
:1041300040F2213100F078FFFFE7029820F00800FC
:104140000499496940EA81000290029820F0040035
:104150000499896840EA81000290019820F48070F7
:104160000499896908430190019820F4007004992A
:10417000C96940EA41000190FFE70198059948604C
:1041800003980599886105980499C968FEF7B6FFF8
:10419000029805990862002006B080BD80B586B0FF
:1041A00005900491059842F60041C4F2010188424D
:1041B00025D0FFE7059843F20041C4F2010188428F
:1041C0001DD0FFE70598B0F1804F18D0FFE70598A4
:1041D00040F20041C4F20001884210D0FFE7059888
:1041E00040F60001C4F20001884208D0FFE70598BC
:1041F00040F60041C4F20001884201D1FFE708E027
:1042000044F63450C0F6010040F24E3100F00CFF8D
:10421000FFE70498006818B3FFE7049800681028C7
:104220001ED0FFE704980068202819D0FFE7049803
:104230000068302814D0FFE70498006840280FD0A9
:10424000FFE70498006850280AD0FFE70498006848
:10425000602805D0FFE704980068702801D1FFE7C7
:1042600008E044F63450C0F6010040F24F3100F04F
:10427000DBFEFFE70498406828B1FFE70498406838
:10428000012801D1FFE708E044F63450C0F60100F0
:104290004FF4547100F0C8FEFFE70498006928B19C
:1042A000FFE704980069022801D1FFE708E044F61F
:1042B0003450C0F6010040F2513100F0B5FEFFE786
:1042C0000498806828B1FFE704988068012801D12C
:1042D000FFE708E044F63450C0F6010040F25231E6
:1042E00000F0A2FEFFE70498406928B1FFE70498B8
:1042F0004069022801D1FFE708E044F63450C0F6D7
:10430000010040F2533100F08FFEFFE70599086A83
:1043100020F0100008620598006A02900598406835
:104320000190059880690390039820F440700390F1
:10433000039820F4E0400499096840EA01200390C2
:10434000029820F020000499096940EA01100290C7
:10435000029820F010000499496840EA0110029088
:10436000059842F60041C4F20101884208D0FFE7F7
:10437000059843F20041C4F20101884249D1FFE7A8
:104380000498C06930B1FFE70498C069B0F5807F38
:1043900001D1FFE708E044F63450C0F6010040F2D6
:1043A0006F3100F041FEFFE70498806930B1FFE70C
:1043B00004988069B0F5807F01D1FFE708E044F6FA
:1043C0003450C0F601004FF45C7100F02DFEFFE7A1
:1043D000029820F080000499496940EA8110029017
:1043E000029820F040000499896840EA8110029008
:1043F000019820F480600499896940EA8100019065
:10440000019820F400600499C96940EAC100019054
:10441000FFE7019805994860039805998861059818
:104420000499C968FEF772FE029805990862002097
:1044300006B080BD80B586B005900491059842F61F
:104440000041C4F20101884225D0FFE7059843F2FC
:104450000041C4F2010188421DD0FFE70598B0F188
:10446000804F18D0FFE7059840F20041C4F20001E8
:10447000884210D0FFE7059840F60001C4F2000121
:10448000884208D0FFE7059840F60041C4F20001D9
:10449000884201D1FFE708E044F63450C0F601003D
:1044A00040F29D3100F0C0FDFFE70498006818B3AA
:1044B000FFE70498006810281ED0FFE70498006802
:1044C000202819D0FFE704980068302814D0FFE7AF
:1044D0000498006840280FD0FFE70498006850282F
:1044E0000AD0FFE704980068602805D0FFE7049829
:1044F0000068702801D1FFE708E044F63450C0F6A8
:10450000010040F29E3100F08FFDFFE70498406803
:1045100028B1FFE704984068012801D1FFE708E0CF
:1045200044F63450C0F6010040F29F3100F07CFDAB
:10453000FFE70498006928B1FFE7049800690228A2
:1045400001D1FFE708E044F63450C0F601004FF413
:10455000687100F069FDFFE70498806828B1FFE703
:1045600004988068012801D1FFE708E044F6345040
:10457000C0F6010040F2A13100F056FDFFE70498BB
:10458000406928B1FFE704984069022801D1FFE79C
:1045900008E044F63450C0F6010040F2A23100F0C9
:1045A00043FDFFE70599086A20F4807008620598CA
:1045B000006A02900598406801900598C0690390D0
:1045C000039820F003000390039820F070000499F2
:1045D000096808430390029820F40070049909695F
:1045E00040EA01200290029820F480700499496802
:1045F00040EA01200290059842F60041C4F2010110
:10460000884208D0FFE7059843F20041C4F2010157
:10461000884249D1FFE70498C06930B1FFE70498A8
:10462000C069B0F5807F01D1FFE708E044F634505F
:10463000C0F6010040F2BE3100F0F6FCFFE704983E
:10464000806930B1FFE704988069B0F5807F01D1BF
:10465000FFE708E044F63450C0F6010040F2BF31F5
:1046600000F0E2FCFFE7029820F400600499496939
:1046700040EA81200290029820F4806004998968C1
:1046800040EA81200290019820F4805004998969C1
:1046900040EA01100190019820F400500499C96982
:1046A00040EA41100190FFE701980599486003989E
:1046B0000599C86105980499C968FEF72FFD02980D
:1046C00005990862002006B080BD000080B586B064
:1046D00005900491059842F60041C4F20101884218
:1046E00025D0FFE7059843F20041C4F2010188425A
:1046F0001DD0FFE70598B0F1804F18D0FFE705986F
:1047000040F20041C4F20001884210D0FFE7059852
:1047100040F60001C4F20001884208D0FFE7059886
:1047200040F60041C4F20001884201D1FFE708E0F1
:1047300044F63450C0F601004FF47B7100F074FC75
:10474000FFE70498006818B3FFE704980068102892
:104750001ED0FFE704980068202819D0FFE70498CE
:104760000068302814D0FFE70498006840280FD074
:10477000FFE70498006850280AD0FFE70498006813
:10478000602805D0FFE704980068702801D1FFE792
:1047900008E044F63450C0F6010040F2ED3100F07C
:1047A00043FCFFE70498406828B1FFE7049840689D
:1047B000012801D1FFE708E044F63450C0F60100BB
:1047C00040F2EE3100F030FCFFE70498006928B1B8
:1047D000FFE704980069022801D1FFE708E044F6EA
:1047E0003450C0F6010040F2EF3100F01DFCFFE74D
:1047F0000498406928B1FFE704984069022801D174
:10480000FFE708E044F63450C0F601004FF47C7135
:1048100000F00AFCFFE70498806828B1FFE70498DD
:104820008068012801D1FFE708E044F63450C0F663
:10483000010040F2F13100F0F7FBFFE70599086A4B
:1048400020F4805008620598006A0290059840683C
:1048500001900598C0690390039820F4407003907C
:10486000039820F4E0400499096840EA012003908D
:10487000029820F400500499096940EA013002903E
:10488000029820F480500499496840EA013002906F
:10489000059842F60041C4F20101884208D0FFE7C2
:1048A000059843F20041C4F20101884231D1FFE78B
:1048B0000498C06930B1FFE70498C069B0F5807F03
:1048C00001D1FFE708E044F63450C0F6010040F2A1
:1048D0000D4100F0A9FBFFE70498806930B1FFE7C4
:1048E00004988069B0F5807F01D1FFE708E044F6C5
:1048F0003450C0F6010040F20E4100F095FBFFE796
:10490000019820F480400499896940EA811001905F
:10491000FFE701980599486003980599C8610598D3
:104920000499C968FEF702FC029805990862002004
:1049300006B080BD7047000080B582B0019001983C
:104940000090FDF735FC01460098C9B20A0945F60A
:10495000BD61C0F60001895CC84002B080BD0000A6
:1049600080B582B0019001980090FDF729FC0146C6
:1049700000980A0A45F6CD61C0F60001895CC8407E
:1049800002B080BD80B582B0019001980090FDF723
:104990001FFC01460098CA0A45F6CD61C0F6000129
:1049A000895CC84002B080BD80B582B00020019013
:1049B000FDF726FC0146009140B1FFE7009804286E
:1049C0000AD0FFE7009808280CD00FE041F2002041
:1049D000C0F27A0001900FE041F20020C0F27A00AC
:1049E000019009E000F00CF8019005E041F2002090
:1049F000C0F27A000190FFE7019802B080BD00008C
:104A000080B584B0002003900290FDF75FFC029017
:104A10000298019028B1FFE70198B0F5803F06D0D9
:104A200010E040F60010C0F23D00039010E0FDF7EA
:104A30005DFC411C41F20020C0F27A00B0FBF1F0B5
:104A4000039005E040F60010C0F23D000390FFE740
:104A500003980090FDF742FC02460098022101EB0A
:104A60009241484304B080BD7047000040F2955128
:104A7000C2F20001087801300870704770470000EA
:104A800080B582B0ADF80600ADF80410ADF8022094
:104A9000ADF8003040F28800C2F200000068C06942
:104AA00088B1FFE740F28800C2F200000068D0F849
:104AB0001CC0BDF80600BDF80410BDF80220BDF80A
:104AC0000030E047FFE702B080BD000080B540F253
:104AD000B850C2F20000006840B1FFE740F2B851A0
:104AE000C2F20001086801380860FFE740F21820B0
:104AF000C2F20000016801310160006847F6D5018B
:104B0000C2F2E96148434FEAB00041F26E21C0F2BF
:104B1000830188420AD8FFE740F60000C4F2010092
:104B20001021C0F21041FDF7D7FAFFE780BD000069
:104B300080B582B00220FDF7B3F8FFE7FDF7A8F8D3
:104B4000022801D0FFE7F9E7FDF77EFBFFE7FDF75D
:104B500085FB012801D0FFE7F9E7FDF7F7FAFDF73C
:104B60003FFBB0F5807F05D0FFE7FDF717FBFDF7B2
:104B7000CDFBFFE7FDF77AFBFFE7FDF781FB01289F
:104B800001D0FFE7F9E7FDF72BFBB0F5807F05D0FB
:104B9000FFE74FF48070FDF7EDFBFFE7FDF7EAFA62
:104BA0004FF480304FF4E011FDF772FBFDF784FB0A
:104BB000FFE7FDF7A3FB012801D0FFE7F9E700209D
:104BC0000190FDF7ADFB4FF48060FDF7B7FB019856
:104BD000FDF7C2FB0220FDF7DBFBFFE7FDF708FB5B
:104BE000082801D0FFE7F9E74AF20020C0F24A4066
:104BF0000090FDF785FA0098FEF74AF802B080BDF4
:104C00007047000081B00090FFE70098411E0091BE
:104C100008B1FFE7F9E701B07047000080B582B046
:104C200040F21320C2F20000007848B9FFE700F01C
:104C30004BF840F21321C2F2000101200870FFE797
:104C400040F20C10C4F22120006820B1FFE70020E0
:104C50008DF8070003E001208DF80700FFE79DF8BD
:104C6000070002B080BD000080B582B040F2901114
:104C7000C4F22121009100200860902000F0A2F8E9
:104C800000F068F80099ADF8060001200860BDF852
:104C90000600C00802B080BD80B582B040F290111D
:104CA000C4F22121009100200860D02000F08AF891
:104CB00000F050F80099ADF8060001200860BDF83A
:104CC0000600C00802B080BD41F21801C4F2020122
:104CD000086840F00400086040F29011C4F22121FD
:104CE0000120086040F29411C4F22121086040F2D2
:104CF0009C11C4F22121086040F60002C4F20102B6
:104D00001168042363F30F31116011684FF0030C35
:104D10006CF31341116011684FF00B0C6CF31751D9
:104D2000116011686CF31F711160116863F31B61EE
:104D3000116040F23031C4F24221086043F20001B8
:104D4000C4F2010140F267300860086840F040009A
:104D50000860704780B582B043F20C01C4F20101D3
:104D6000002008700220FFF74DFFFFE740F21C1003
:104D7000C4F22620006808B1FFE7F7E743F20C0110
:104D8000C4F2010108788DF80700002008700220A5
:104D9000FFF738FFFFE740F21C10C4F2262000683E
:104DA00008B1FFE7F7E743F20C00C4F20100007816
:104DB0008DF806009DF807109DF8060040EA0120D6
:104DC00002B080BD80B582B08DF807009DF8070065
:104DD00043F20C01C4F2010108700220FFF712FF38
:104DE000FFE740F21C10C4F22620006808B1FFE77C
:104DF000F7E743F20C00C4F2010000788DF80700D9
:104E000002B080BDFFE7FEE7FFE740F20810C2F204
:104E10000000006808B1FFE7F7E7704781B08DF840
:104E200003009DF9030000280ED4FFE79DF903104D
:104E300001F01F02012090404A094EF20011CEF20B
:104E4000000141F82200FFE701B0704781B08DF802
:104E500003009DF9030000280ED4FFE79DF903101D
:104E600001F01F02012090404A094EF20011CEF2DB
:104E7000000141F82200FFE701B0704781B08DF8D2
:104E800003009DF9030000280ED4FFE79DF90310ED
:104E900001F01F02012090404A094EF20011CEF2AB
:104EA000000141F82200FFE701B070474EF60C50B8
:104EB000CEF200000068C0F3022070474EF60C509E
:104EC000CEF200000068C0F3022070474EF60C508E
:104ED000CEF200000068C0F30220704782B08DF867
:104EE000070000919DF9070000280AD4FFE7009809
:104EF00000019DF907104EF20042CEF200028854E4
:104F00000BE0009800019DF8071001F00F014EF62C
:104F10001452CEF200028854FFE702B0704700003E
:104F200082B08DF8070000919DF9070000280AD48F
:104F3000FFE7009800019DF907104EF20042CEF203
:104F4000000288540BE0009800019DF8071001F062
:104F50000F014EF61452CEF200028854FFE702B061
:104F60007047000082B08DF8070000919DF907009E
:104F700000280AD4FFE7009800019DF907104EF2BF
:104F80000042CEF2000288540BE0009800019DF828
:104F9000071001F00F014EF61452CEF200028854B1
:104FA000FFE702B07047000082B08DF80700009163
:104FB0009DF9070000280AD4FFE7009800019DF939
:104FC00007104EF20042CEF2000288540BE0009827
:104FD00000019DF8071001F00F014EF61452CEF2B9
:104FE00000028854FFE702B07047000083B00290CF
:104FF000029800F0070000904EF60C51CEF200012E
:105000000868019001984FF6FF0210400190019846
:10501000009A40EA02200022C0F2FA5210430190A6
:105020000198086003B0704782B00190009102B00F
:105030007047000080B50020FCF70EF81020FCF748
:1050400061FA80BD80B51120FCF75CFA0120FCF705
:1050500003F880BD80B584B0ADF80E00ADF80C103B
:1050600002920298D0F8020000900298D0F80A004C
:10507000019000980199401A400800900199029807
:10508000084402900299009A2C20FCF779FA04B0A7
:1050900080BD000080B582B0ADF80600ADF8041008
:1050A000ADF80220ADF800302A20FCF72BFA9DF86D
:1050B0000500FCF7BFFA9DF80400FCF7BBFABDF849
:1050C0000400BDF8001008440138C0F30720FCF7C5
:1050D000B1FABDF80400BDF8001008440138C0B2B0
:1050E000FCF7A8FA2B20FCF70DFA9DF80300FCF75B
:1050F000A1FA9DF80200FCF79DFA9DF80300FCF769
:1051000099FA9DF80200FCF795FABDF80610BDF873
:1051100000202C20FCF710FA02B080BD80B582B0D0
:10512000DDF810C0ADF80600ADF80410ADF80220AF
:10513000ADF80030BDF80600BDF80410BDF802203F
:10514000BDF8003000F094FA0499BDF80200BDF8F3
:10515000002042432C20FCF713FA02B080BD00006F
:1051600080B582B0ADF80600ADF80410ADF80220AD
:10517000ADF800302A20FCF7C5F99DF80500FCF7D2
:1051800059FA9DF80400FCF755FA9DF80500FCF764
:1051900051FA9DF80400FCF74DFA2B20FCF7B2F908
:1051A0009DF80300FCF746FA9DF80200FCF742FA6E
:1051B000BDF80200BDF8001008440138C0F3072014
:1051C000FCF738FABDF80200BDF8001008440138B9
:1051D000C0B2FCF72FFABDF80610BDF800202C2055
:1051E000FCF7AAF902B080BD80B584B08446069869
:1051F000ADF80EC0ADF80C10ADF80A20ADF80830CF
:10520000ADF806002A20FCF77DF99DF80F00FCF7A9
:1052100011FA9DF80E00FCF70DFABDF80E00BDF86E
:105220000A1008440138C0F30720FCF703FABDF860
:105230000E00BDF80A1008440138C0B2FCF7FAF9B4
:105240002B20FCF75FF99DF80D00FCF7F3F99DF8B2
:105250000C00FCF7EFF9BDF80C00BDF8081008448D
:105260000138C0F30720FCF7E5F9BDF80C00BDF8E4
:10527000081008440138C0B2FCF7DCF9BDF806108C
:10528000BDF80A00BDF8082042432C20FCF754F971
:1052900004B080BD4FF4A070704700004FF4F07070
:1052A0007047000080B586B040F20410C2F20000E2
:1052B0000078C007C8B9FFE740F20410C2F200004E
:1052C000017841F00101017000788007002803D4C3
:1052D000FFE7FBF7E5FEFFE740F20411C2F2000131
:1052E000087840F002000870FFE70A200090FBF702
:1052F000ABFE1120FCF706F90098FBF7A5FE45F67A
:10530000B661C0F600010291B42001220492FCF7BC
:1053100057F905200590FBF797FE049A44F6BE5115
:10532000C0F60101C120FCF74BF90598FBF78CFE94
:1053300045F6B861C0F60001C5200422FCF740F92B
:105340000598FBF781FE48F67301C0F60001E020E6
:105350000F220192FCF734F90598FBF775FE019ACC
:1053600048F68301C0F60001E120FCF729F9059811
:10537000FBF76AFE049A44F6C251C0F601013A20D6
:105380000390FCF71DF90598FBF75EFE0299049A5D
:10539000B020FCF715F90598FBF756FE0398049A20
:1053A00044F6C051C0F60101FCF70AF90598FBF775
:1053B0004BFE3620FCF7A6F8E820FCF73BF90598F1
:1053C000FBF742FE1320FCF79DF80598FBF73CFE27
:1053D0002020FCF797F87820FBF736FE2920FCF711
:1053E00091F806B080BD000080B582B0002000902A
:1053F000D320694603220123FBF70CFF009849F2F2
:105400000041C0F28601884205D1FFE749F286409B
:10541000ADF8060003E00020ADF80600FFE7BDF898
:10542000060002B080BD000080B584B0ADF80E006B
:10543000ADF80C1044F6C251C0F601013A200090BC
:1054400001220192FCF7BCF82A20FCF75BF89DF8DA
:105450000F00FCF7EFF89DF80E00FCF7EBF89DF855
:105460000F00FCF7E7F89DF80E00FCF7E3F82B209F
:10547000FCF748F89DF80D00FCF7DCF89DF80C00EF
:10548000FCF7D8F89DF80D00FCF7D4F89DF80C0057
:10549000FCF7D0F8019B2E200DF10A011A46FBF70C
:1054A00095FE0098019A44F6C051C0F60101FCF740
:1054B00087F8BDF80A0004B080BD000080B584B054
:1054C000DDF818C0ADF80E00ADF80C10ADF80A20EC
:1054D000ADF80830BDF80E00BDF80C10BDF80A207C
:1054E000BDF8083000F0C4F844F6C251C0F601011E
:1054F0003A20009001220192FCF762F8019B069984
:10550000BDF80A00BDF8082042432E20FBF75EFEDE
:105510000098019A44F6C051C0F60101FCF750F81A
:1055200004B080BD80B582B0ADF80600ADF80410BF
:10553000ADF80220BDF8040040F28C51C2F2000127
:10554000C98888420AD1FFE7BDF8020040F28C51B9
:10555000C2F200014988884218D0FFE7BDF8040074
:1055600040F28C51C2F20001C880BDF8020021F85F
:10557000020FBDF80400BDF802201044C0F5F07021
:10558000488033200322FBF7FBFFFFE740F28C50FB
:10559000C2F200008188BDF9062092FBF1F000FB09
:1055A0001120ADF80600BDF90600B0F1FF3F0DDC9B
:1055B000FFE740F28C51C2F200018888BDF8062056
:1055C000104449880844ADF806000AE0BDF806001A
:1055D00040F28C51C2F2000149880844ADF806003F
:1055E000FFE7BDF9060040F28C51C2F200010988C4
:1055F00088420DD0FFE7BDF8061040F28C50C2F291
:1056000000000180018837200122FBF795FFFFE7AA
:1056100002B080BD80B582B0ADF80600ADF80410D0
:105620002A20FBF76FFF9DF80700FCF703F89DF8B1
:105630000600FBF7FFFF9DF80700FBF7FBFF9DF857
:105640000600FBF7F7FF2B20FBF75CFF9DF805003A
:10565000FBF7F0FF9DF80400FBF7ECFF9DF8050059
:10566000FBF7E8FF9DF80400FBF7E4FF02B080BD04
:1056700080B582B0ADF80600ADF80410ADF8022098
:10568000ADF80030BDF8040040F2CA51C2F200018A
:105690000880BDF80400BDF800100844013840F24D
:1056A000C851C2F2000108802A20FBF72BFF9DF8A9
:1056B0000700FBF7BFFF9DF80600FBF7BBFFBDF837
:1056C0000600BDF8021008440138C0F30720FBF7BC
:1056D000B1FFBDF80600BDF8021008440138C0B2A1
:1056E000FBF7A8FF2B20FBF70DFF9DF80500FBF74C
:1056F000A1FF9DF80400FBF79DFFBDF80400BDF875
:10570000001008440138C0F30720FBF793FFBDF8F1
:105710000400BDF8001008440138C0B2FBF78AFF4E
:1057200002B080BD80B582B0ADF80600ADF80410BF
:10573000ADF802202A20FBF7E5FE9DF80700FBF7F5
:1057400079FF9DF80600FBF775FF9DF80700FBF752
:1057500071FF9DF80600FBF76DFF2B20FBF7D2FED3
:105760009DF80500FBF766FF9DF80400FBF762FF5C
:105770009DF80500FBF75EFF9DF80400FBF75AFF5C
:105780002C20FBF7BFFEBDF80200FBF737FF02B08D
:1057900080BD000080B588B0ADF81E0040F2945185
:1057A000C2F2000100200870FFF738FA00286AD022
:1057B000FFE7FFF759FA0690FFF76EFA049008200A
:1057C0000290FFE70298411E029100285AD0FFE79D
:1057D000FFF74AFA0590FFF75FFA039006980599DC
:1057E000401AB0F1FF3F05DCFFE706990598401A23
:1057F000019004E006980599401A0190FFE701988E
:10580000072839DCFFE704980399401AB0F1FF3FFD
:1058100005DCFFE704990398401A009004E004981F
:105820000399401A0090FFE70098072824DCFFE75F
:105830000698059908444010069004980399084476
:105840004010049000200290FFF7E8F998B1FFE7BC
:10585000069840F2C451C2F200010880049840F258
:10586000C651C2F20001088040F29451C2F2000118
:1058700001200870FFE704E0059806900398049063
:10588000FFE79FE7FFE740F29450C2F20000007884
:1058900008B080BD83B0ADF80A000191009240F2DB
:1058A000C450C2F2000000880199088040F2C6503E
:1058B000C2F2000000880099088003B07047000021
:1058C00080B582B0ADF8060040F20410C2F20000CC
:1058D00000788007002803D4FFE7FBF7E1FBFFE730
:1058E00040F20411C2F20001087840F00200087092
:1058F00002B080BD80B58CB040F2B051C2F2000160
:10590000002007900870FAF7D3FFFAF7BDFF029066
:10591000FAF7C4FF01460298FBF7A8F848F6980288
:10592000C0F60002A5205521FAF7B2FD4FF4FA6047
:10593000FDF7E2FD4FF6FF700890FAF7CBFC4FF24F
:10594000BE70FAF7EFFFFAF79FFF079902463C2374
:1059500004930846FAF772FFFAF7A0FF3C38039069
:10596000FAF792FF0399049B0246079889B2FAF767
:1059700065FF43F69802C0F6010240F2A910052126
:10598000FAF786FD44F6A950C0F601006946486062
:105990000120059008600A2046210991B42306934E
:1059A0001A46FBF77DF90598069B079A099940F27C
:1059B000B15CC2F2000C8CF8002044F6B05CC0F67A
:1059C000010C6A46C2F804C01060C8201A46FBF7F2
:1059D00067F9079840F28A51C2F20001087040F25C
:1059E0000000C2F20000FAF793FF0898FAF784FF6C
:1059F000099944F6B352C0F6010240F28B100B90A5
:105A000003230A93FAF7A8FCFBF7B2FA0B980A9B58
:105A100044F6BA52C0F601027821FAF79DFC40F232
:105A2000AC50C2F20000006800F028F80A9B0B9806
:105A300040F2A052C2F200029121FAF78DFC0CB0A4
:105A400080BD000040F2B451C2F20001087800F0BD
:105A5000FD000870087800F0FE0008707047000034
:105A600040F2AC51C2F200010020086040F28C010B
:105A7000C2F20001012008707047000088B0069053
:105A800000200590FFE705980A280CD8FFE7059A43
:105A900040F2A051C2F2000100208854FFE70598AF
:105AA00001300590EFE70698049000208DF80F0074
:105AB0004CF60020C3F69A300290069840B9FFE7F2
:105AC00040F2A050C2F2000030210170079058E06F
:105AD00000208DF80700FFE70498029988420AD257
