:020000040800F2
:10000000501400200D020008D1500008D52200082D
:10001000CD500008991D000855B4000800000000EC
:10002000000000000000000000000000F590000843
:100030009D1D000800000000895D00083D9E00082D
:10004000270200082702000827020008D55F0008E1
:1000500027020008270200082702000827020008DC
:10006000270200086D200008270200082702000868
:1000700027020008270200082702000827020008BC
:1000800027020008270200082702000827020008AC
:10009000270200082702000827020008270200089C
:1000A000270200082702000827020008270200088C
:1000B000270200082702000827020008270200087C
:1000C000270200082702000827020008E190000824
:1000D000E590000827020008270200082702000810
:1000E000192000082702000827020008270200083C
:1000F000270200082702000827020008270200083C
:10010000270200082702000827020008270200082B
:10011000270200082702000827020008270200081B
:10012000270200082702000827020008270200080B
:1001300000F002F800F05AF80AA090E8000C82449F
:100140008344AAF10107DA4501D100F04FF8AFF27C
:10015000090EBAE80F0013F0010F18BFFB1A43F0A5
:1001600001031847F49D0300149E03000A444FF056
:10017000000C10F8013B13F0070408BF10F8014B06
:100180001D1108BF10F8015B641E05D010F8016B4B
:10019000641E01F8016BF9D113F0080F1EBF10F8AF
:1001A000014BAD1C0C1B09D16D1E58BF01F801CBD2
:1001B000FAD505E014F8016B01F8016B6D1EF9D555
:1001C0009142D6D37047000000230024002500266A
:1001D000103A28BF78C1FBD8520728BF30C148BFAA
:1001E0000B6070471FB51FBD10B510BD00F05DF866
:1001F0001146FFF7F7FF0CF0E3FF00F07BF803B4C4
:10020000FFF7F2FF03BC00F07FF8000009488047C9
:1002100009480047FEE7FEE7FEE7FEE7FEE7FEE7E8
:10022000FEE7FEE7FEE7FEE704480549054A064B00
:1002300070470000719F000831010008500E002037
:100240005014002050100020501000204FF00002E9
:1002500000B5134694469646203922BFA0E80C50BC
:10026000A0E80C50B1F12001BFF4F7AF090728BF97
:10027000A0E80C5048BF0CC05DF804EB890028BF13
:1002800040F8042B08BF704748BF20F8022B11F03C
:10029000804F18BF00F8012B7047704770477047B8
:1002A00000487047F002002070477546FFF7F8FFDE
:1002B000AE4605006946534620F00700854618B053
:1002C00020B5FFF7B1FFBDE820404FF000064FF02A
:1002D00000074FF000084FF0000BAC46ACE8C00937
:1002E000ACE8C009ACE8C009ACE8C00921F00701DE
:1002F0008D46704710B50446AFF300802046BDE838
:100300001040FFF77CBF000001491820ABBEFEE79C
:100310002600020080B584B04FF2DE7001F0E8FBE9
:1003200040F2A5106E213A22682301F05BFB4DF6E6
:100330001B7001F0DDFB40F26C30C2F2000000786F
:1003400018B9FFE70020039008E040F26C30C2F2D9
:1003500000000078132148430390FFE703987230B0
:1003600081B240F2A9103222052301F03BFB40F29A
:100370006C30C2F20000007818B9FFE7002002904C
:1003800008E040F26C30C2F20000007813214843CC
:100390000290FFE70298793081B240F2A910322230
:1003A000052301F01FFB40F26C30C2F20000007820
:1003B00018B9FFE70020019008E040F26C30C2F26B
:1003C00000000078132148430190FFE70198803036
:1003D00081B240F2A9103222052301F003FB40F262
:1003E0006D31C2F200010020087004B080BD000031
:1003F00080B584B04FF2DE7001F07AFB40F2A510B8
:100400006E213A22672301F0EDFA4DF61B7001F0E0
:100410006FFB40F26E30C2F20000007818B9FFE7BF
:100420000020039009E040F26E30C2F20000007834
:1004300000EBC00080000390FFE70398723081B2A8
:1004400040F2A9103222052301F0CCFA40F26E30BE
:10045000C2F20000007818B9FFE70020029009E01E
:1004600040F26E30C2F20000007800EBC000800065
:100470000290FFE70298793081B240F2A91032224F
:10048000052301F0AFFA40F26E30C2F200000078AE
:1004900018B9FFE70020019009E040F26E30C2F287
:1004A0000000007800EBC00080000190FFE7019899
:1004B000803081B240F2A9103222052301F092FA75
:1004C00040F26F31C2F200010020087004B080BD1C
:1004D00080B584B04FF2DE7001F00AFB40F2A51047
:1004E0006E213A22672301F07DFA4DF61B7001F070
:1004F000FFFA40F62D50C2F20000007818B9FFE76D
:100500000020039009E040F62D50C2F20000007870
:1005100000EBC00080000390FFE70398723081B2C7
:1005200040F2A9103222052301F05CFA40F62D506A
:10053000C2F20000007818B9FFE70020029009E03D
:1005400040F62D50C2F20000007800EBC0008000A1
:100550000290FFE70298793081B240F2A91032226E
:10056000052301F03FFA40F62D50C2F2000000785A
:1005700018B9FFE70020019009E040F62D50C2F2C3
:100580000000007800EBC00080000190FFE70198B8
:10059000803081B240F2A9103222052301F022FA04
:1005A00040F62D51C2F200010020087004B080BD59
:1005B00080B584B04FF2DE7001F09AFA40F2A510D7
:1005C0006E213A22682301F00DFA4DF61B7001F0FE
:1005D0008FFA40F62E50C2F20000007818B9FFE7FB
:1005E0000020039009E040F62E50C2F2000000788F
:1005F00000EBC00080000390FFE70398723081B2E7
:1006000040F2A9103222052301F0ECF940F62E50F9
:10061000C2F20000007818B9FFE70020029009E05C
:1006200040F62E50C2F20000007800EBC0008000BF
:100630000290FFE70298793081B240F2A91032228D
:10064000052301F0CFF940F62E50C2F200000078E9
:1006500018B9FFE70020019009E040F62E50C2F2E1
:100660000000007800EBC00080000190FFE70198D7
:10067000803081B240F2A9103222052301F0B2F994
:1006800040F62F51C2F200010020087004B080BD76
:1006900080B584B04FF2DE7001F02AFA40F2A51066
:1006A0006E213A22682301F09DF94DF61B7001F08E
:1006B0001FFA40F6B050C2F20000007818B9FFE708
:1006C0000020039009E040F6B050C2F2000000782C
:1006D00000EBC00080000390FFE70398723081B206
:1006E00040F2A9103222052301F07CF940F6B05007
:1006F000C2F20000007818B9FFE70020029009E07C
:1007000040F6B050C2F20000007800EBC00080005C
:100710000290FFE70298793081B240F2A9103222AC
:10072000052301F05FF940F6B050C2F200000078F6
:1007300018B9FFE70020019009E040F6B050C2F27E
:100740000000007800EBC00080000190FFE70198F6
:10075000803081B240F2A9103222052301F042F923
:1007600040F6B151C2F200010020087004B080BD13
:1007700080B584B04FF2DE7001F0BAF940F2A510F6
:100780006E213A22672301F02DF94DF61B7001F01E
:10079000AFF940F60560C2F20000007818B9FFE733
:1007A0000020039008E040F60560C2F200000078E7
:1007B000192148430390FFE70398723081B240F259
:1007C000A9103222052301F00DF940F60560C2F2AE
:1007D0000000007818B9FFE70020029008E040F61A
:1007E0000560C2F200000078192148430290FFE73B
:1007F0000298793081B240F2A9103222052301F02B
:10080000F1F840F60560C2F20000007818B9FFE781
:100810000020019008E040F60560C2F20000007878
:10082000192148430190FFE70198803081B240F2DE
:10083000A9103222052301F0D5F840F60661C2F274
:1008400000010020087004B080BD000080B584B0B5
:100850004FF2DE7001F04CF940F2A5106E213A2201
:10086000682301F0BFF84DF61B7001F041F940F626
:100870000860C2F20000007818B9FFE7002003907A
:1008800009E040F60860C2F20000007800EBC0000A
:1008900080000390FFE70398723081B240F2A91004
:1008A0003222052301F09EF840F60860C2F20000F3
:1008B000007818B9FFE70020029009E040F60860D0
:1008C000C2F20000007800EBC00080000290FFE759
:1008D0000298793081B240F2A9103222052301F04A
:1008E00081F840F60860C2F20000007818B9FFE70E
:1008F0000020019009E040F60860C2F20000007894
:1009000000EBC00080000190FFE70198803081B2C9
:1009100040F2A9103222052301F064F840F6096183
:10092000C2F200010020087004B080BD80B586B01E
:100930004DF61B70029001F0C5F80020039001F005
:10094000D7F840F26810C2F2000000680BF020FDFA
:1009500002464FF4B97040F211110491032305933C
:1009600000F05EFD029801F0ADF8039801F0C0F8C8
:1009700040F2DC10C2F2000000680BF009FD04999F
:10098000059B02464FF4CD7000F04AFD0BF0EEFDE2
:100990008079C00798B9FFE74DF61B7001F092F817
:1009A000002001F0A5F849F60132C0F603024FF429
:1009B000C87040F20F11032300F032FD13E04DF632
:1009C0001B70019001F07EF8019801F091F849F652
:1009D0000132C0F603024FF4C87040F20F11032336
:1009E00000F01EFDFFE706B080BD000080B586B0B8
:1009F0004DF61B70029001F065F80020039001F0A5
:100A000077F840F26810C2F2000000680BF0C0FCFA
:100A100002464FF4B97040F211110491032305937B
:100A200000F0FEFC029801F04DF8039801F060F828
:100A300040F2DC10C2F2000000680BF0A9FC04993F
:100A4000059B02464FF4CD7000F0EAFC0BF08EFDE2
:100A50008079C00798B9FFE74DF61B7001F032F8B6
:100A6000002001F045F849F60132C0F603024FF4C8
:100A7000C87040F20F11032300F0D2FC13E04DF6D2
:100A80001B70019001F01EF8019801F031F849F651
:100A90000132C0F603024FF4C87040F20F11032375
:100AA00000F0BEFCFFE706B080BD000080B586B058
:100AB0004DF61B70029001F005F80020039001F044
:100AC00017F840F26810C2F2000000680BF060FCFA
:100AD00002464FF4B97040F21111049103230593BB
:100AE00000F09EFC029800F0EDFF039801F000F882
:100AF00040F2DC10C2F2000000680BF049FC0499DF
:100B0000059B02464FF4CD7000F08AFC0BF02EFDE1
:100B10008079C00798B9FFE74DF61B7000F0D2FF4F
:100B2000002000F0E5FF49F60132C0F603024FF461
:100B3000C87040F20F11032300F072FC13E04DF671
:100B40001B70019000F0BEFF019800F0D1FF49F644
:100B50000132C0F603024FF4C87040F20F110323B4
:100B600000F05EFCFFE706B080BD000080B586B0F7
:100B70004DF61B70029000F0A5FF0020039000F0DE
:100B8000B7FF40F26810C2F2000000680BF000FCF2
:100B900002464FF4B97040F21111049103230593FA
:100BA00000F03EFC029800F08DFF039800F0A0FFDB
:100BB00040F2DC10C2F2000000680BF0E9FB04997F
:100BC000059B02464FF4CD7000F02AFC0BF0CEFCE2
:100BD0008079C00798B9FFE74DF61B7000F072FFEF
:100BE000002000F085FF49F60132C0F603024FF401
:100BF000C87040F20F11032300F012FC13E04DF611
:100C00001B70019000F05EFF019800F071FF49F643
:100C10000132C0F603024FF4C87040F20F110323F3
:100C200000F0FEFBFFE706B080BD000080B586B097
:100C30004DF61B70029000F045FF0020039000F07D
:100C400057FF40F26810C2F2000000680BF0A0FBF2
:100C500002464FF4B97040F2111104910323059339
:100C600000F0DEFB029800F02DFF039800F040FF3B
:100C700040F2DC10C2F2000000680BF089FB04991E
:100C8000059B02464FF4CD7000F0CAFB0BF06EFCE2
:100C90008079C00798B9FFE74DF61B7000F012FF8E
:100CA000002000F025FF49F60132C0F603024FF4A0
:100CB000C87040F20F11032300F0B2FB13E04DF6B1
:100CC0001B70019000F0FEFE019800F011FF49F644
:100CD0000132C0F603024FF4C87040F20F11032333
:100CE00000F09EFBFFE706B080BD000080B586B037
:100CF0004DF61B70029000F0E5FE0020039000F01E
:100D0000F7FE40F26810C2F2000000680BF040FBF2
:100D100002464FF4B97040F2111104910323059378
:100D200000F07EFB029800F0CDFE039800F0E0FE9C
:100D300040F2DC10C2F2000000680BF029FB0499BD
:100D4000059B02464FF4CD7000F06AFB0BF00EFCE1
:100D50008079C00798B9FFE74DF61B7000F0B2FE2E
:100D6000002000F0C5FE49F60132C0F603024FF440
:100D7000C87040F20F11032300F052FB13E04DF650
:100D80001B70019000F09EFE019800F0B1FE49F644
:100D90000132C0F603024FF4C87040F20F11032372
:100DA00000F03EFBFFE706B080BD000080B586B0D6
:100DB0004FF6FF70029000F085FE0020039000F0D7
:100DC00097FE40F26810C2F2000000680BF0E0FAF3
:100DD0000246DC20CB2104910323059300F020FB85
:100DE000029800F06FFE039800F082FE40F2DC10E3
:100DF000C2F2000000680BF0CBFA0499059B024692
:100E00004FF4827000F00CFB0BF0B0FB8079C00750
:100E100088B9FFE74FF6FF7000F054FE002000F0A5
:100E200067FE49F60132C0F60302FA20C921032306
:100E300000F0F6FA11E04FF6FF70019000F042FE6C
:100E4000019800F055FE49F60132C0F60302FA207F
:100E5000C921032300F0E4FAFFE706B080BD0000DB
:100E600080B586B04DF61B70029000F02BFE00207E
:100E7000039000F03DFE40F26810C2F200000068EE
:100E80000BF086FA02464FF4B97040F2111104914A
:100E90000323059300F0C4FA029800F013FE0398B0
:100EA00000F026FE40F2DC10C2F2000000680BF0F9
:100EB0006FFA0499059B02464FF4CD7000F0B0FA2A
:100EC0000BF054FB8079C00798B9FFE74DF61B7013
:100ED00000F0F8FD002000F00BFE49F60132C0F6EC
:100EE00003024FF4C87040F20F11032300F098FA88
:100EF00013E04DF61B70019000F0E4FD019800F046
:100F0000F7FD49F60132C0F603024FF4C87040F213
:100F10000F11032300F084FAFFE706B080BD000044
:100F200080B586B04DF61B70029000F0CBFD00201E
:100F3000039000F0DDFD40F26810C2F2000000688E
:100F40000BF026FA02464FF4B97040F211110491E9
:100F50000323059300F064FA029800F0B3FD0398B0
:100F600000F0C6FD40F2DC10C2F2000000680BF099
:100F70000FFA0499059B02464FF4CD7000F050FA29
:100F80000BF0F4FA8079C00798B9FFE74DF61B70B3
:100F900000F098FD002000F0ABFD49F60132C0F6EC
:100FA00003024FF4C87040F20F11032300F038FA27
:100FB00013E04DF61B70019000F084FD019800F0E5
:100FC00097FD49F60132C0F603024FF4C87040F2B3
:100FD0000F11032300F024FAFFE706B080BD0000E4
:100FE00080B586B04DF61B70029000F06BFD0020BE
:100FF000039000F07DFD40F26810C2F2000000682E
:101000000BF0C6F902464FF4B97040F21111049189
:101010000323059300F004FA029800F053FD0398AF
:1010200000F066FD40F2DC10C2F2000000680BF038
:10103000AFF90499059B02464FF4CD7000F0F0F92A
:101040000BF094FA8079C00798B9FFE74DF61B7052
:1010500000F038FD002000F04BFD49F60132C0F6EB
:1010600003024FF4C87040F20F11032300F0D8F9C7
:1010700013E04DF61B70019000F024FD019800F084
:1010800037FD49F60132C0F603024FF4C87040F252
:101090000F11032300F0C4F9FFE706B080BD000084
:1010A00080B586B04DF61B70029000F00BFD00205D
:1010B000039000F01DFD40F26810C2F200000068CD
:1010C0000BF066F902464FF4B97040F21111049129
:1010D0000323059300F0A4F9029800F0F3FC0398B1
:1010E00000F006FD40F2DC10C2F2000000680BF0D8
:1010F0004FF90499059B02464FF4CD7000F090F92A
:101100000BF034FA8079C00798B9FFE74DF61B70F1
:1011100000F0D8FC002000F0EBFC49F60132C0F6EC
:1011200003024FF4C87040F20F11032300F078F966
:1011300013E04DF61B70019000F0C4FC019800F024
:10114000D7FC49F60132C0F603024FF4C87040F2F2
:101150000F11032300F064F9FFE706B080BD000023
:1011600080B586B04DF61B70029000F0ABFC0020FD
:10117000039000F0BDFC40F26810C2F2000000686D
:101180000BF006F902464FF4B97040F211110491C8
:101190000323059300F044F9029800F093FC0398B0
:1011A00000F0A6FC40F2DC10C2F2000000680BF078
:1011B000EFF80499059B02464FF4CD7000F030F92A
:1011C0000BF0D4F98079C00798B9FFE74DF61B7092
:1011D00000F078FC002000F08BFC49F60132C0F6EC
:1011E00003024FF4C87040F20F11032300F018F906
:1011F00013E04DF61B70019000F064FC019800F0C4
:1012000077FC49F60132C0F603024FF4C87040F291
:101210000F11032300F004F9FFE706B080BD0000C2
:1012200080B586B04DF61B70029000F04BFC00209C
:10123000039000F05DFC40F26810C2F2000000680C
:101240000BF0A6F802464FF4B97040F21111049168
:101250000323059300F0E4F8029800F033FC0398B0
:1012600000F046FC40F2DC10C2F2000000680BF017
:101270008FF80499059B02464FF4CD7000F0D0F82A
:101280000BF074F98079C00798B9FFE74DF61B7031
:1012900000F018FC002000F02BFC49F60132C0F6EB
:1012A00003024FF4C87040F20F11032300F0B8F8A6
:1012B00013E04DF61B70019000F004FC019800F063
:1012C00017FC49F60132C0F603024FF4C87040F231
:1012D0000F11032300F0A4F8FFE706B080BD000063
:1012E00080B586B04DF61B70029000F0EBFB00203D
:1012F000039000F0FDFB40F26810C2F200000068AD
:101300000BF046F802464FF4B97040F21111049107
:101310000323059300F084F8029800F0D3FB0398B0
:1013200000F0E6FB40F2DC10C2F2000000680BF0B7
:101330002FF80499059B02464FF4CD7000F070F829
:101340000BF014F98079C00798B9FFE74DF61B70D0
:1013500000F0B8FB002000F0CBFB49F60132C0F6EC
:1013600003024FF4C87040F20F11032300F058F845
:1013700013E04DF61B70019000F0A4FB019800F003
:10138000B7FB49F60132C0F603024FF4C87040F2D1
:101390000F11032300F044F8FFE706B080BD000002
:1013A00080B584B0ADF80E0040F2D810C2F2000053
:1013B0000068806B029000F04DFB019000F054FB40
:1013C000019ADDF808C00346BDF80E0069460860C2
:1013D00000210846E04704B080BD000080B586B01B
:1013E000ADF81600ADF814100492BDF81600039085
:1013F000BDF81400029040F25030C2F20000806844
:1014000001909DF810000AF003FF019A029903462B
:10141000039802EB8302526800F026FD06B080BDFF
:1014200080B58EB0ADF83600ADF834100C928DF862
:101430002F300120ADF82C000020ADF82A000990D3
:10144000089007900C98069006980BF06BF80790A0
:10145000FFE70698411C0691007820B1FFE7099844
:1014600001300990F5E700F0F5FA0799B0FBF1F0CB
:101470000999B0FBF1F008909DF82F000146049106
:10148000012808D0FFE70498022811D0FFE704984C
:10149000032808D013E0BDF836000799A0EB5100EF
:1014A000ADF82C0010E0BDF83600ADF82C000BE0D4
:1014B000BDF836100798401AADF82C0004E0BDF8CE
:1014C0003600ADF82C00FFE740F25030C2F20000C9
:1014D000806803900C9800780AF09AFE0146039801
:1014E00000EB810040680088ADF81600FFE70C981B
:1014F0000078002818BF0120029000F0ABFA0146E6
:101500000298BDF82C20891ABDF81630CA1A00219D
:101510009A42A8BF012108422AD0FFE7BDF82C005B
:10152000BDF834100C9A1278FFF758FFBDF816106A
:10153000BDF82C000844ADF82C000C9801300C903C
:10154000BDF82A000130ADF82A0040F25030C2F256
:101550000000806801900C9800780AF059FE01465E
:10156000019800EB810040680088ADF81600BEE7E6
:1015700007980EB080BD000080B586B0ADF81600AB
:10158000ADF8141004920020ADF80E00ADF80C0078
:101590000498029002980088ADF80C0002984088E8
:1015A000ADF80E00BDF81600BDF81410BDF80C2003
:1015B000BDF80E3007F0A0FD40F2D810C2F20000D6
:1015C0000068006B68B1FFE740F2D810C2F200007B
:1015D0000068036BBDF81600BDF81410049A984714
:1015E000FFE700F037FA019000F03EFA019A034657
:1015F0000021084607F080FD06B080BD80B584B0AC
:10160000ADF80E00ADF80C10ADF80A2000200190E6
:1016100040F2D810C2F200000068006AA0B1FFE7F3
:1016200040F2D810C2F200000068D0F820C040F2AA
:101630005030C2F200000088BDF80E10BDF80C203A
:10164000BDF80A30E0471CE000200190FFE7019858
:10165000BDF80A10884213D2FFE7BDF80E000199C9
:101660000844BDF80C1040F25032C2F20002128859
:1016700080B200F01BF9FFE7019801300190E6E726
:10168000FFE704B080BD000080B58CB0ADF82E003F
:10169000ADF82C10ADF82A20ADF8283000200290CB
:1016A000ADF82600ADF82400ADF82200ADF820001A
:1016B000ADF81E00ADF81C00ADF81A00ADF818002A
:1016C000ADF81600ADF81400ADF81200ADF810003A
:1016D000ADF80E00BDF82A00BDF82E10401A012802
:1016E00007DBFFE7BDF82A00BDF82E10401A019075
:1016F00006E0BDF82A10BDF82E00401A0190FFE761
:101700000198ADF82600BDF82800BDF82C10401A4D
:10171000012807DBFFE7BDF82800BDF82C10401AB0
:10172000009006E0BDF82810BDF82C00401A00908B
:10173000FFE70098ADF82400BDF82E00ADF82200B8
:10174000BDF82C00ADF82000BDF82A00BDF82E1021
:10175000884206DBFFE70120ADF81E00ADF81C0053
:1017600006E04FF6FF70ADF81E00ADF81C00FFE775
:10177000BDF82800BDF82C10884206DBFFE70120E9
:10178000ADF81A00ADF8180006E04FF6FF70ADF89E
:101790001A00ADF81800FFE7BDF92600BDF92410C6
:1017A000884219DBFFE70020ADF81E00ADF81800F5
:1017B000BDF82600ADF81600BDF9260000EBD0708C
:1017C0004008ADF81400BDF82400ADF81200BDF8D3
:1017D0002600ADF8100018E00020ADF81C00ADF8B0
:1017E0001A00BDF82400ADF81600BDF9240000EB86
:1017F000D0704008ADF81400BDF82600ADF8120016
:10180000BDF82400ADF81000FFE70020ADF80E0091
:10181000FFE7BDF90E00BDF91010884244DCFFE778
:10182000BDF82200BDF8201040F25032C2F2000292
:10183000128800F03BF8BDF81210BDF814000844FF
:10184000ADF81400BDF91400BDF91610884216DB7E
:10185000FFE7BDF81610BDF81400401AADF81400EB
:10186000BDF81E10BDF822000844ADF82200BDF8F6
:101870001A10BDF820000844ADF82000FFE7BDF8BD
:101880001C10BDF822000844ADF82200BDF8181065
:10189000BDF820000844ADF82000FFE7BDF80E00B9
:1018A0000130ADF80E00B4E70CB080BD80B582B059
:1018B000ADF80600ADF80410ADF8022040F2D810E3
:1018C000C2F200000068406970B1FFE740F2D81032
:1018D000C2F2000000684369BDF80600BDF80410BC
:1018E000BDF802209847FFE702B080BD80B582B006
:1018F000ADF80600ADF80410ADF80220ADF80030E8
:10190000BDF80600BDF80410BDF80220FFF776FE12
:10191000BDF80600BDF80410BDF8002011440139DF
:10192000BDF8022089B2FFF769FEBDF80600BDF8D8
:101930000410BDF8002000F00FF8BDF80600BDF857
:10194000021008440138BDF80410BDF8002080B230
:1019500000F002F802B080BD80B584B0ADF80E0092
:10196000ADF80C10ADF80A200020019040F2D8101C
:10197000C2F200000068406AA0B1FFE740F2D81050
:10198000C2F200000068D0F824C040F25030C2F229
:1019900000000088BDF80E10BDF80C20BDF80A301C
:1019A000E0471CE000200190FFE70198BDF80A1015
:1019B000884213D2FFE7BDF80E00BDF80C10019A63
:1019C000114440F25032C2F20002128889B2FFF78D
:1019D0006DFFFFE7019801300190E6E7FFE704B0F3
:1019E00080BD000010B584B0ADF80E00ADF80C104D
:1019F000ADF80A20ADF8083040F2D810C2F200006D
:101A00000068D0F838C0BDF80E00BDF80C10BDF865
:101A10000A20BDF8083040F2503EC2F2000EBEF877
:101A200000E06C46C4F800E0E04704B010BD0000E0
:101A300040F25030C2F200008088704740F25030CF
:101A4000C2F200008068704740F25030C2F20000DD
:101A50000088704780B540F2D810C2F200000068DC
:101A6000806A804780BD000080B540F2D810C2F285
:101A700000000068C06A804780BD000080B582B069
:101A800001208DF8070040F2D810C2F20000006873
:101A90000068804740F25032C2F200024FF6FF70F9
:101AA000506000210091116049F63041C0F60101FB
:101AB0009160FFF775FC00988DF807009DF807000E
:101AC00002B080BD81B0ADF80200BDF8020040F266
:101AD0005031C2F20001486001B0704781B00090FF
:101AE000009840F25031C2F20001886001B07047A6
:101AF00081B0ADF80200BDF8020040F25031C2F2F0
:101B00000001086001B0704780B588B007900020E0
:101B10008DF80700FFE79DF80700092814DCFFE7B0
:101B200040F2E820C2F20000006801690020884706
:101B3000079908800A2002F073FFFFE79DF807006D
:101B400001308DF80700E6E740F2E820C2F200001D
:101B50000068016900208847079908800798008875
:101B600000287AD0FFE740F2E820C2F200000068C7
:101B7000436900200DF11A0106AA9847BDF81A0022
:101B80000590BDF81800049005980799886004989E
:101B90000799C860059840F6AA51C2F20001B1F950
:101BA00000104843C11700EB915140F27030C2F26F
:101BB0000000B0F9000000EBA1200390049840F66B
:101BC000AC51C2F20001B1F900104843C11700EB5B
:101BD000915140F27230C2F20000B0F9000000EB07
:101BE000A12002900398B0F1FF3F03DCFFE7002043
:101BF000039011E0039840F26431C2F200010988B9
:101C0000884208DBFFE740F26430C2F2000000883F
:101C100001380390FFE7FFE70298B0F1FF3F03DCD4
:101C2000FFE70020029011E0029840F26631C2F214
:101C300000010988884208DBFFE740F26630C2F203
:101C40000000008801380290FFE7FFE7039807993A
:101C50004880029807998880FFE708B080BD00009F
:101C600080B582B0ADF80600ADF8041001208DF803
:101C70000300BDF8060040F26431C2F200010880A2
:101C8000BDF8040040F26631C2F20001088040F263
:101C90006410C2F2000000680078C00718B9FFE7BE
:101CA00006F05AFF34E040F61860C2F20000806887
:101CB000012808D1FFE740F61860C2F20000406832
:101CC000022803D0FFE706F047FF20E040F264104F
:101CD000C2F200000168496A40F6AA52C2F200024C
:101CE00011800168C96A40F27032C2F200021180AC
:101CF0000168896A40F6AC52C2F2000211800068A5
:101D0000006B40F27231C2F200010880FFE7FFE78A
:101D100040F2E820C2F20000006820B1FFE7002096
:101D20008DF80300FFE79DF8030048B9FFE740F294
:101D3000E820C2F200000068016800208847FFE741
:101D40009DF8030002B080BD82B0ADF80600ADF88A
:101D50000410ADF80220ADF80030BDF8060040F6E2
:101D6000AA51C2F200010880BDF8040040F6AC514F
:101D7000C2F200010880BDF8020040F27031C2F2E8
:101D800000010880BDF8000040F27231C2F200018B
:101D9000088002B070470000FFE7FEE770470000D0
:101DA00080B58AB084460E980D980C98ADF826C080
:101DB000ADF82410ADF82220ADF820308DF81F00CA
:101DC0009DF81F00012809D1FFE74DF61B70029016
:101DD000FFF78EFE0298FFF775FE08E04FF2DE7007
:101DE0000190FFF785FE0198FFF76CFEFFE7BDF855
:101DF0002600BDF82410BDF82220BDF82030FFF7E2
:101E0000F1FD00200090FFF773FE0E98FFF766FECD
:101E10000098069005900D980490FFE70498411CE7
:101E20000491007820B1FFE7069801300690F5E7AD
:101E3000BDF82210BDF8260000EB5100ADF80E00F1
:101E4000BDF82010BDF8240000EB51000C38ADF8AF
:101E50000C00BDF80E00BDF80C100D9A0123FFF721
:101E6000DFFA0AB080BD000080B58CB0ADF82E005E
:101E7000ADF82C100A920020ADF82600ADF8240031
:101E8000802105910490039040F25030C2F200008E
:101E900080680088ADF826000A98019001980088B3
:101EA000ADF8240040F27430C2F200000290BDF898
:101EB000260002994880BDF8240002990880BDF8E8
:101EC0002400BDF82610484302994860BDF824005C
:101ED000C0080690BDF82400400720B1FFE706982F
:101EE00001300690FFE70198039A069B049902FBD4
:101EF000031210440131049180788DF81F000020F6
:101F00000890FFE70898BDF82610BDF8242051433B
:101F1000B0EB410F73DAFFE79DF81F000599084207
:101F200012D0FFE740F25030C2F200000168090A07
:101F3000089B40F27432C2F20002134459720068E6
:101F400008991144087219E040F25030C2F20000C2
:101F50004168090A8DF8031040688DF802009DF869
:101F60000300089940F27432C2F200021144487230
:101F70009DF80200089911440872FFE70598401087
:101F80000590059870B1FFE7089800EBD07101202B
:101F900000EB6102BDF8241092FBF1F000FB112070
:101FA00040BBFFE70498069988420DD1FFE7002067
:101FB00004900398013003900398BDF826108842DE
:101FC00001D1FFE71BE0FFE7802005900398BDF8F3
:101FD0002610884201DBFFE711E00198039A069B77
:101FE000049902FB031210440131049180788DF8AA
:101FF0001F00FFE7FFE708980230089082E7BDF86E
:102000002E00BDF82C1040F27432C2F20002FFF72D
:10201000B3FA0CB080BD000080B54FF4006000F052
:10202000DBFFB8B1FFE74FF4006000F097FE40F629
:102030000000C4F201000821C0F2084101F03EF99D
:1020400038B9FFE740F6F851C2F2000101200870EC
:10205000FFE7FFE74FF4004000F0BEFF28B1FFE7C5
:102060004FF4004000F07AFEFFE780BD80B5082005
:1020700000F0B2FFC0B1FFE7082000F06FFE40F6AD
:102080000000C4F2010040F6080101F017F938B968
:10209000FFE740F6F851C2F2000101200870FFE7A7
:1020A000082000F05BFEFFE780BD000081B0EFF389
:1020B000108072B60090FFE7FEE7000080B582B0A6
:1020C000EFF3108072B60190FFE742F20C00C4F209
:1020D00002000068C00708B1FFE7F6E70CF088F8D7
:1020E00042F20C00C4F2020000688006002809D504
:1020F000FFE742F20C01C4F20201086840F0200040
:102100000860FFE742F21001C4F20201086840F0E3
:102110000200086042F21402C4F202020020C0F67B
:1021200004001060086840F040000860FFE742F2D9
:102130000C00C4F2020000688006002801D4FFE70A
:10214000F5E742F20C01C4F202012020086042F2DD
:102150001001C4F20201086820F0020008600BF0D0
:1021600027F862B6012002B080BD000080B540F6BD
:102170003050C2F200000078C00718B9FFE70AF03B
:10218000B7FFFFE740F63050C2F2000080BD00000C
:1021900080B586B0FFF792FF20B9FFE701208DF8E8
:1021A000130092E0EFF3108072B60590FFE742F261
:1021B0000C00C4F202000068C00708B1FFE7F6E7B0
:1021C0000CF016F842F20C00C4F20200006880061F
:1021D000002809D5FFE742F20C01C4F202010868A9
:1021E00040F020000860FFE742F21001C4F2020153
:1021F000086840F00100086040F63050C2F200006C
:10220000043003900D20029000208DF80700FFE7B6
:102210009DF807000299B0EB410F41D2FFE7039808
:1022200000889DF807200021C0F6040121F8120063
:10223000039802300390FFE742F20C00C4F2020060
:102240000068800600281ED4FFE742F20C00C4F2AA
:10225000020000684007002814D5FFE70AF0A8FF35
:1022600042F21001C4F20201086820F00100086087
:1022700042F20C01C4F202010420086001208DF832
:10228000130022E0D8E742F20C01C4F20201202040
:102290000860FFE79DF8070001308DF80700B7E7F9
:1022A00042F21001C4F20201086820F00100086047
:1022B0000AF07EFF40F63051C2F200010020487063
:1022C00062B601208DF81300FFE79DF8130006B0F9
:1022D00080BD0000FFE7FEE780B584B0902003904A
:1022E00040F63460C2F20000FFF70EFC40F63060AA
:1022F000C2F200000068002840F0FC80FFE740F6D2
:102300003460C2F200000088012840F0F380FFE74B
:1023100040F63061C2F200016420086040F6FC50D3
:10232000C2F2000000684EF2FE01C0F2F551884290
:1023300000F3CB80FFE740F63461C2F20001488829
:1023400089886B462E225A603C221A60002279232B
:102350000AF050FE18B1FFE700200390FFE740F6B7
:102360003461C2F20001488889886B462E225A6087
:102370003C221A6079230AF03DFE18B1FFE70120E4
:102380000390FFE740F63461C2F200014888898873
:102390006B462E225A603C221A60782279230AF07A
:1023A00029FE18B1FFE702200390FFE740F63461F1
:1023B000C2F20001488889886B462E225A603C226E
:1023C0001A60B42279230AF015FE18B1FFE7032042
:1023D0000390FFE740F63461C2F200014888898823
:1023E0006B462E225A603C221A60F02279230AF0B2
:1023F00001FE18B1FFE704200390FFE740F63461C7
:10240000C2F20001488889886B462E225A603C221D
:102410001A604FF4967279230AF0ECFD18B1FFE7C9
:1024200005200390FFE740F63461C2F200014888BE
:1024300089886B462E225A603C221A604FF4B4728F
:1024400079230AF0D7FD18B1FFE706200390FFE7D4
:1024500040F63461C2F20001488889886B462E221A
:102460005A603C221A604FF4D27279230AF0C2FDFE
:1024700018B1FFE707200390FFE740F63461C2F28E
:102480000001488889886B462E225A603C221A60D7
:102490000022A6230AF0AEFD18B1FFE70820039042
:1024A000FFE740F63461C2F20001488889886B4634
:1024B0002E225A603C221A60A6230AF09BFD18B116
:1024C000FFE709200390FFE7FFE740F63461C2F21F
:1024D0000001488889886B462E225A603C221A6087
:1024E0007822A6230AF086FD18B1FFE70A200390A0
:1024F000FFE7FFE79DF80C0004B080BD80B582B017
:102500000190019802F08CFA02B080BD81B08DF884
:1025100003009DF8030038B1FFE740F29811C4F2C0
:1025200022210120086006E040F29811C4F2222125
:1025300000200860FFE701B07047000081B0009004
:10254000FFE70098411E009108B1FFE7F9E701B0ED
:102550007047000080B582B041F21801C4F2020158
:10256000086840F01C00086040F28011C4F221218C
:10257000009101200190086040F6000CC4F2010CAB
:10258000DCF80010022363F30301CCF8001040F2E2
:102590009811C4F22221086041F20002C4F2010243
:1025A000116863F31B61116040F28411C4F22121B0
:1025B000086040F29011C4F22221086040F28811B4
:1025C000C4F22121086040F29411C4F22221086073
:1025D000DCF80010032363F30711CCF80010116836
:1025E00063F313411160DCF8001063F30B21CCF8A6
:1025F0000010116863F31751116040F60042C4F2F5
:1026000001024FF03331116040F60442C4F201027E
:102610001160FFF773FF009A019800211160FFF726
:102620006DFF009901980860FFF768FF02B080BD58
:1026300080B590B08DF83F000E910D920C9340F252
:102640008411C4F221210020086040F29011C4F2EC
:102650002221099108609DF83F2040F6AE51C2F258
:1026600000010A80098840F60C42C4F201021160A0
:1026700040F28811C4F22121089108600720FFF779
:102680005DFF089A099901201060086040F600413A
:10269000C4F201014FF04430086040F60441C4F236
:1026A00001010860FFE70C98411E0C9170B1FFE733
:1026B00040F29411C4F222210791002008601120F9
:1026C000FFF73CFF079901200860ECE7FFE70D9852
:1026D000411E0D91002874D0FFE740F29411C4F21E
:1026E0002221059100200190086011200290FFF73F
:1026F00025FF01990298059A40F60843C4F20103A8
:102700000393D3F800C040F6AE53C2F20003049323
:10271000A3F800C01B88ADF828300123069313608E
:102720001160FFF70BFF01990298DDF810C0059AC0
:10273000069BDDF80CE0DEF800E0ACF800E0BCF849
:1027400000C0ADF82AC013601160FFF7F7FE039BCD
:10275000049A059906981B6813801288ADF82C20FE
:1027600008609DF828209DF829009DF82B1000F0A6
:10277000F800000202F0FC0240EAC20040EAD10088
:102780000E9908800E9802300E900D98C0B1FFE7A8
:102790009DF82A009DF82C109DF82D2000F0F800DF
:1027A000000202F0FC0240EAC20040EAD1000E99A9
:1027B00008800E9802300E900D9801380D90FFE7BA
:1027C00085E740F28411C4F221210120086040F61F
:1027D0000041C4F201014FF03330086040F604417B
:1027E000C4F20101086010B080BD000080B58AB05D
:1027F0008DF8270008910792069340F28411C4F2E5
:1028000021210020086040F29011C4F2222104919D
:1028100008609DF8272040F6AE51C2F200010A8000
:10282000098840F60C42C4F20102116040F288119E
:10283000C4F22121039108600720FFF77FFE039A6D
:10284000049901201060086040F60041C4F20101C3
:102850004FF04430086040F60441C4F201010860C2
:10286000FFE70698411E069170B1FFE740F2941110
:10287000C4F222210291002008601120FFF75EFEC1
:10288000029901200860ECE7FFE70798411E0791D5
:1028900010B3FFE740F29411C4F22221019100200D
:1028A00008601120FFF74AFE019940F60840C4F283
:1028B0000100026840F6AE50C2F2000002800088BB
:1028C000ADF81600012008609DF816000899087000
:1028D000089801300890D8E740F28411C4F2212111
:1028E0000120086040F60041C4F201014FF033308E
:1028F000086040F60441C4F2010108600AB080BDDE
:1029000080B584B08DF80F0040F28411C4F221210B
:1029100002910020086040F29011C4F2222101913E
:1029200008609DF80F2040F6AE51C2F200010A8007
:10293000098840F60C42C4F20102116040F288118D
:10294000C4F22121009108600720FFF7F7FD009BEA
:10295000019A0299012018601060086004B080BDDF
:1029600080B586B08DF81700ADF81410049240F2CF
:102970008411C4F221210020086040F29011C4F2B9
:102980002221039108609DF8172040F6AE51C2F253
:1029900000010A80098840F60C42C4F2010211606D
:1029A00040F28811C4F22121029108600720FFF74C
:1029B000C5FD029A0399012010600860FFE70498A2
:1029C000411E0491D8B1FFE7BDF8141040F6AE5097
:1029D000C2F200000180008840F60C41C4F20101FF
:1029E000086040F28811C4F22121019100200860A2
:1029F0000720FFF7A3FD019901200860DFE740F2FF
:102A00008411C4F221210120086006B080BD0000BD
:102A100080B586B08DF817000491039240F28411BE
:102A2000C4F221210020086040F29011C4F222215A
:102A3000029108609DF8172040F6AE51C2F20001E5
:102A40000A80098840F60C42C4F20102116040F28B
:102A50008811C4F22121019108600720FFF76EFD63
:102A6000019A0299012010600860FFE70398411E57
:102A70000391F0B1FFE70498018840F6AE50C2F22E
:102A800000000180008840F60C41C4F2010108609A
:102A900040F28811C4F22121009100200860072033
:102AA000FFF74CFD00990120086004980230049063
:102AB000DCE740F28411C4F221210120086006B055
:102AC00080BD000080B586B08DF817000491039298
:102AD00040F28411C4F221210020086040F29011DC
:102AE000C4F22221029108609DF8172040F6AE51F1
:102AF000C2F200010A80098840F60C42C4F20102C9
:102B0000116040F28811C4F2212101910860072070
:102B1000FFF714FD019A0299012010600860FFE799
:102B20000398411E0391F0B1FFE70498017840F645
:102B3000AE50C2F200000180008840F60C41C4F2A1
:102B40000101086040F28811C4F2212100910020A7
:102B500008600720FFF7F2FC009901200860049844
:102B600001300490DCE740F28411C4F221210120FD
:102B7000086006B080BD000080B584B0ADF80E00DE
:102B800040F28411C4F22121029100200860BDF8B6
:102B90000E2040F6AE51C2F200010A80098840F6CC
:102BA0000C42C4F20102116040F28811C4F22121EA
:102BB000019108600720FFF7C1FC019A02990120EA
:102BC0001060086004B080BD80B584B08DF80F003F
:102BD00040F28411C4F221210291002008609DF886
:102BE0000F2040F6AE51C2F200010A80098840F67B
:102BF0000C42C4F20102116040F28811C4F221219A
:102C0000019108600720FFF799FC019A02990120C1
:102C10001060086004B080BD82B00190019A41F25A
:102C20001C00C4F2020001681143016000680199B0
:102C300008400090009802B07047000082B00190F8
:102C4000019A41F21C00C4F20200016811430160C4
:102C50000068019908400090009802B07047000099
:102C600082B00190019A41F21C00C4F20200016896
:102C7000114301600068019908400090009802B07B
:102C80007047000082B00190019A41F21C00C4F22A
:102C9000020001681143016000680199084000903A
:102CA000009802B07047000082B00190019A41F292
:102CB0001800C4F202000168114301600068019924
:102CC00008400090009802B07047000082B0019068
:102CD000019A41F21800C4F2020001681143016038
:102CE0000068019908400090009802B07047000009
:102CF00082B00190019A41F21800C4F2020001680A
:102D0000114301600068019908400090009802B0EA
:102D10007047000082B00190019A41F21800C4F29D
:102D200002000168114301600068019908400090A9
:102D3000009802B07047000082B00190019A41F201
:102D40001800C4F202000168114301600068019993
:102D500008400090009802B07047000081B00090D9
:102D6000009840F21441C4F20101086001B07047BC
:102D700081B00090009A40F20441C4F20101086859
:102D80009043086001B0704781B00090009A40F213
:102D90000C41C4F2010108689043086001B070471B
:102DA00081B00090009A40F20041C4F2010108682D
:102DB0009043086001B0704781B00090009A40F2E3
:102DC0000841C4F2010108689043086001B07047EF
:102DD00081B00090009A40F20441C4F201010868F9
:102DE0001043086001B0704781B00090009A40F233
:102DF0000C41C4F2010108681043086001B070473B
:102E000081B00090009A40F20041C4F201010868CC
:102E10001043086001B0704781B00090009A40F202
:102E20000841C4F2010108681043086001B070470E
:102E300080B584B0039000208DF80B000398408883
:102E4000C00808B9FFE707E049F61700C0F603001D
:102E50006E2108F00FFCFFE70398007928B1FFE727
:102E600003980079012801D1FFE707E049F6170030
:102E7000C0F603006F2108F0FDFBFFE703984079DF
:102E800050B1FFE703984079012805D0FFE7039888
:102E90004079022801D1FFE707E049F61700C0F6A4
:102EA0000300702108F0E6FBFFE703980079002893
:102EB00000F08480FFE70398807978B1FFE70398FA
:102EC000807901280AD0FFE703988079022805D08D
:102ED000FFE703988079032801D1FFE707E049F66F
:102EE0001700C0F60300752108F0C4FBFFE7039844
:102EF0000068002861D0FFE70398407901460191FE
:102F000040B1FFE7019801280DD0FFE701980228A2
:102F100012D01AE003980068FFF72AFF03980068B0
:102F2000FFF76EFF15E003980068FFF739FF03987D
:102F30000068FFF74DFF0CE003980068FFF760FFA3
:102F400003980068FFF744FF03E001208DF80B00B1
:102F5000FFE70398807978B3FFE70398807901460B
:102F60000091012808D0FFE7009802280DD0FFE764
:102F70000098032812D01AE003980068FFF704FFB6
:102F800003980068FFF748FF15E003980068FFF713
:102F900013FF03980068FFF727FF0CE00398006811
:102FA000FFF73AFF03980068FFF71EFF03E00120D8
:102FB0008DF80B00FFE7FFE7FFE708E003980068E4
:102FC000FFF7EEFE03980068FFF7D2FEFFE79DF8DB
:102FD0000B0004B080BD000081B0009040F21440AE
:102FE000C4F20100006800990840401AB0FA80F06D
:102FF000400901B07047000042F20000C4F2020034
:10300000006800F00700704781B0009042F20001B4
:10301000C4F20201086820F00700009A104308601B
:1030200001B070470421C4F20101086840F6004273
:10303000C0F2007210430860704700000421C4F21F
:103040000101086820F0E0600860086840F0007046
:103050000860704782B0019000919DF8000008213F
:10306000C4F2010151F82000009A4FEA124C20EA04
:103070001240019B9CFAACFCBCFA8CFC03FA0CF3EA
:103080001843D2B241F8220002B0704780B586B032
:1030900005900491059840F60001C4F201018842B0
:1030A00030D0FFE7059840F60041C4F201018842A4
:1030B00028D0FFE7059841F20001C4F201018842DF
:1030C00020D0FFE7059841F20041C4F20101884297
:1030D00018D0FFE7059841F60001C4F201018842CB
:1030E00010D0FFE7059841F60041C4F20101884283
:1030F00008D0FFE7059842F20001C4F201018842BE
:1031000001D1FFE707E049F2A870C0F60300A32150
:1031100008F0B0FAFFE7049800686FF07B410842BE
:1031200007D0FFE70498C07810F0FB0F01D1FFE74C
:1031300007E049F2A870C0F60300A42108F09AFA4B
:10314000FFE704980068C0F30F200390039890FAFB
:10315000A0F0B0FA80F00290FFE703980299C8400F
:10316000002800F0A880FFE703980299C840C00734
:10317000002800F09C80FFE70298072806D8FFE7A8
:10318000029940F201108840019009E00298A0F1F4
:1031900008014FF00110884040F080600190FFE787
:1031A00004984068082819D1FFE70498006928B1FD
:1031B000FFE704980069012801D1FFE707E049F221
:1031C000A870C0F60300BF2108F054FAFFE7059885
:1031D0000199049A126900F0E1F8FFE70498406849
:1031E000A0B1FFE70498406804280FD0FFE70498D7
:1031F000406808280AD0FFE704984068012805D0F5
:10320000FFE704984068092801D1FFE707E049F289
:10321000A870C0F60300C62108F02CFAFFE7059855
:103220000199049A526800F085F8049840680128D2
:1032300005D0FFE704984068092837D1FFE70498D4
:10324000806802280AD0FFE704988068012805D02A
:10325000FFE704988068032801D1FFE707E049F2FF
:10326000A870C0F60300CE2108F004FAFFE7049826
:10327000C06828B1FFE70498C068042801D1FFE7BF
:1032800007E049F2A870C0F60300CF2108F0F2F978
:10329000FFE705980199049A926800F095F805985F
:1032A0000199049AD26800F05FF8FFE7FFE70298FF
:1032B0000130029051E7002006B080BD82B001903D
:1032C000009101988068BDF801100840401AB0FADA
:1032D00080F0400902B0704782B001900091BDF8C3
:1032E00001000199486102B07047000082B001906E
:1032F0000091BDF801000199086102B0704700001B
:1033000084B003900291019203989DF80B10084439
:10331000009000990868029A92FAA2F2B2FA82F238
:1033200093000F229A409043019A9A4010430860FC
:1033300004B0704784B003900291019203989DF805
:103340000B100844009000990868029A92FAA2F2C1
:10335000B2FA82F293000F229A409043019A9A4067
:103360001043086004B0704784B00390029101924A
:1033700003989DF80B100844009000990868029A81
:1033800092FAA2F2B2FA82F2930004229A40904397
:10339000019A9A401043086004B0704783B00290CD
:1033A000019100920298C06801990A0A20EA11204E
:1033B000009992FAA2F2B2FA82F29140084302997D
:1033C000C86003B07047000084B00390029101927E
:1033D00003989DF80B100844009000990868029A21
:1033E00092FAA2F2B2FA82F2930003229A40904338
:1033F000019A9A401043086004B0704784B003906B
:1034000002910398C0680190BDF809000090019AEC
:10341000009802EA0001904340EA014003990861E4
:1034200004B0704780B582B0019001984FF47A7172
:1034300000F002F802B080BD82B0019000910198C6
:103440000099B0FBF1F001384EF21401CEF2000108
:1034500008604EF21801CEF20001002008604EF222
:103460001001CEF200010520086002B07047000094
:1034700047F20001C4F20001086840F4807008605F
:103480007047000047F20001C4F20001086840F4F0
:10349000807008607047000041F22001C4F2020110
:1034A000086840F4004008607047000041F22001C5
:1034B000C4F20201086840F4004008607047000050
:1034C00041F22001C4F20201086840F48030086033
:1034D0007047000041F20400C4F20200006800F0EE
:1034E000F000704741F20400C4F20200006800F4EA
:1034F000E060704741F20400C4F20200006800F48A
:103500006050704741F22000C4F20200006800F4ED
:103510004070704741F20400C4F20200006800F0FD
:103520000C00704741F20400C4F20200006800F091
:103530000C00704780B582B0019002F0EBFC01995D
:1035400008600198006802F0ADFC0199486001989C
:10355000406802F0BBFC019988600198406802F065
:10356000C7FC0199C86002B080BD000041F20001B3
:10357000C4F20201086840F480300860704700001F
:1035800041F20000C4F202000068C0F340407047FE
:1035900041F22001C4F20201086840F00100086015
:1035A0007047000041F22000C4F202000068C0F33E
:1035B0004000704782B00190009141F20401C4F2D2
:1035C0000201086820F47C10019A02F44032009B4A
:1035D0001A431043086002B07047000041F2000136
:1035E000C4F20201086840F0807008607047000073
:1035F00041F20400C4F20200006800F48030704719
:1036000041F20400C4F20200006800F47010704738
:1036100041F20400C4F202000068C0F34040704769
:1036200041F20000C4F202000068C0F3406070473D
:1036300041F22001C4F20201086820F480300860E1
:103640007047000081B0009041F20401C4F2020111
:10365000086820F0F000009A1043086001B070473D
:1036600081B0009041F20401C4F20201086820F424
:10367000E060009A1043086001B0704781B000908C
:1036800041F20401C4F20201086820F46050009A7B
:103690001043086001B0704781B0009041F22001F2
:1036A000C4F20201086820F44070009A10430860D8
:1036B00001B0704781B0009041F20401C4F20201F0
:1036C000086820F00300009A1043086001B07047BA
:1036D00081B000900099486820F00200486001B075
:1036E0007047000081B000900099486820F0040005
:1036F000486001B07047000081B0009000994868B0
:1037000020F00800486001B07047000081B00090D0
:103710000099486820F00100486001B0704700003F
:1037200081B000900099486820F00100486001B025
:103730007047000081B000900099486840F0100088
:10374000486001B07047000081B00090009908689F
:1037500040F00100086001B07047000081B00090A7
:103760000099486820F01000486001B070470000E0
:1037700080B586B005904FF47A70049000208DF8E3
:103780000F000290059842F60001C4F20001884241
:1037900001D1FFE708E049F2E070C0F603004FF402
:1037A000BA7107F067FFFFE7059800F001F9029092
:1037B000FFE704990020019031B1FFE7029801383A
:1037C00018BF01200190FFE70198C007A8B1FFE7EB
:1037D00000F0FCFB012804D1FFE7049801380490B5
:1037E000FFE7059800F0E4F80290049820B9FFE79D
:1037F00001208DF80F00FFE7DBE70598FFF79AFF40
:103800009DF80F0006B080BD80B586B005904FF4DE
:103810007A70049000208DF80F000290059842F60F
:103820000001C4F20001884201D1FFE708E049F23B
:10383000E070C0F6030040F29B1107F01BFFFFE7AA
:103840000598FFF78BFF059800F0B2F80290FFE7AC
:1038500004990020019031B1FFE70298013818BFA8
:1038600001200190FFE70198C007A8B1FFE700F031
:10387000ADFB012804D1FFE7049801380490FFE76D
:10388000059800F095F80290049820B9FFE7012010
:103890008DF80F00FFE7DBE79DF80F0006B080BD55
:1038A00080B584B00390029101208DF80700039841
:1038B00042F60001C4F20001884201D1FFE707E0AF
:1038C00049F2E070C0F60300A22107F0D3FEFFE743
:1038D000029801680020B0EB115F01D1FFE707E01B
:1038E00049F2E070C0F60300A32107F0C3FEFFE732
:1038F0000298406888B1FFE70298406880280CD0A1
:10390000FFE702984068B0F5807F06D0FFE7029895
:103910004068B0F5407F01D1FFE707E049F2E07071
:10392000C0F60300A42107F0A5FEFFE7039800F00E
:1039300087F901282FD0FFE70398FFF719FF012827
:1039400028D0FFE70398FFF7C3FE0398FFF7CAFEEE
:103950000398FFF7E5FE0298406838B1FFE746F6A6
:103960000040C4F2000000F065F8FFE702984168EB
:1039700046F60040C4F2000000F04EF803980299A9
:10398000096800F033F80398FFF73EFF00208DF838
:103990000700FFE7FFE79DF8070004B080BD0000C7
:1039A00081B0009000984068C0F3C00001B070473B
:1039B00081B0009000984068C0F3401001B070479B
:1039C00082B0019000910198806820F00F00BDF84E
:1039D00002100843019988600198C068009961F35A
:1039E0000F000199C86002B07047000082B00190DA
:1039F00000910198806820F00F00BDF80210084384
:103A0000019988600198C068009961F30F000199DD
:103A1000C86002B07047000082B001900091019828
:103A2000C06A20F46070009908430199C86202B02E
:103A30007047000081B0009046F63041C4F20001AA
:103A4000086820F00100086001B0704780B586B0BA
:103A500005900491039201208DF80B000020019045
:103A6000059842F60001C4F20001884201D1FFE747
:103A700007E049F2E070C0F60300E42107F0FAFD28
:103A8000FFE7049820B1FFE70498012801D1FFE780
:103A900007E049F2E070C0F60300E52107F0EAFD17
:103AA000FFE7049858BBFFE703980078172801D870
:103AB000FFE707E049F2E070C0F60300E92107F0F4
:103AC000D9FDFFE7039840783B2801D8FFE707E0DE
:103AD00049F2E070C0F60300EA2107F0CBFDFFE7F2
:103AE000039880783B2801D8FFE707E049F2E070AF
:103AF000C0F60300EB2107F0BDFDFFE742E00398AD
:103B00000078010901EB810100F00F0000EB41009A
:103B1000C0B2172801D8FFE707E049F2E070C0F60D
:103B20000300EF2107F0A6FDFFE7039840780109A5
:103B300001EB810100F00F0000EB4100C0B23B2817
:103B400001D8FFE707E049F2E070C0F60300F0217A
:103B500007F090FDFFE703988078010901EB8101F0
:103B600000F00F0000EB4100C0B23B2801D8FFE796
:103B700007E049F2E070C0F60300F12107F07AFD9A
:103B8000FFE7FFE70598FFF7F3FD012843D0FFE7C4
:103B9000049890B9FFE7039908784A7889784FF438
:103BA00061635843C2EB021200EB820008440190AB
:103BB0000598019900F036F829E0039908784A78C9
:103BC0008978030903EB830300F00F0000EB430047
:103BD000C0B24FF461635843130903EB830302F04F
:103BE0000F0202EB4302D2B2C2EB021200EB8200E0
:103BF0000A0902EB820201F00F0101EB4201C9B296
:103C0000084401900598019900F00CF8FFE70020A6
:103C10008DF80B00FFE70598FFF7F6FD9DF80B0008
:103C200006B080BD82B001900091BDF802000199FC
:103C30008861BDF800000199C86102B070470000BA
:103C400080B586B005904FF47A70049000208DF80E
:103C50000F000290059842F60001C4F2000188426C
:103C600001D1FFE708E049F2E070C0F6030040F23E
:103C7000F51107F0FFFCFFE70598FFF73DFD0598FC
:103C8000FFF78EFE0290FFE704990020019031B10A
:103C9000FFE70298002818BF01200190FFE7019874
:103CA000C007A8B1FFE700F091F9012804D1FFE7B0
:103CB000049801380490FFE70598FFF771FE029021
:103CC000049820B9FFE701208DF80F00FFE7DBE73C
:103CD0009DF80F0006B080BD81B000900099086883
:103CE00040F04000086001B07047000080B584B02B
:103CF0000390029101208DF80700039843F2000120
:103D0000C4F20101884210D0FFE7039843F6000196
:103D1000C4F20001884208D0FFE7039843F600414F
:103D2000C4F20001884201D1FFE707E049F64F00E5
:103D3000C0F60300B72107F09DFCFFE7029800687A
:103D400090B1FFE702980068B0F5806F0CD0FFE7F4
:103D500002980068B0F5004F06D0FFE702980068AF
:103D6000B0F5404F01D1FFE707E049F64F00C0F63C
:103D70000300BA2107F07EFCFFE702984068B0F527
:103D8000827F04D0FFE70298406808B9FFE707E0A8
:103D900049F64F00C0F60300BB2107F06BFCFFE7BC
:103DA0000298806830B1FFE702988068B0F5006F34
:103DB00001D1FFE707E049F64F00C0F60300BC2140
:103DC00007F058FCFFE70298C06828B1FFE70298A7
:103DD000C068022801D1FFE707E049F64F00C0F6AE
:103DE0000300BD2107F046FCFFE70298006928B1F7
:103DF000FFE702980069012801D1FFE707E049F6D3
:103E00004F00C0F60300BE2107F034FCFFE7029824
:103E10004069B0F5007F0AD0FFE70298406930B1F1
:103E2000FFE702984069B0F5802F01D1FFE707E076
:103E300049F64F00C0F60300BF2107F01BFCFFE767
:103E40000298806918B3FFE70298806908281ED09D
:103E5000FFE702988069102819D0FFE7029880696F
:103E6000182814D0FFE70298806920280FD0FFE7B8
:103E70000298806928280AD0FFE7029880693028D4
:103E800005D0FFE702988069382801D1FFE707E0F5
:103E900049F64F00C0F60300C02107F0EBFBFFE737
:103EA0000298C069802804D0FFE70298C06908B969
:103EB000FFE707E049F64F00C0F60300C12107F015
:103EC000D9FBFFE70298006AB0F5005F04D0FFE776
:103ED0000298006A08B9FFE707E049F64F00C0F60C
:103EE0000300C22107F0C6FBFFE7039800F052F879
:103EF000002845D1FFE7039800684FF6BF7188435B
:103F0000029A00921168D2F804E0D2F808C0D3688F
:103F100041EA0E0141EA0C0119431369194353693F
:103F2000194393691943D3691943126A114308432A
:103F3000039908600398406820F004000299C98A38
:103F40000843039948600298006AB0F5005F13D1F6
:103F5000FFE70298406A08B1FFE707E049F64F0023
:103F6000C0F60300E52107F085FBFFE703980299FF
:103F7000496A00F017F8FFE700208DF80700FFE717
:103F80000399C86920F40060C8619DF8070004B077
:103F900080BD000081B0009000980068C0F38010E0
:103FA00001B0704782B001900091BDF80000019906
:103FB000086102B0704700004EF21001CEF200011D
:103FC000086840F002000860704700004EF21000E0
:103FD000CEF200000068C0F30040704781B000904E
:103FE000009840F27801C2F20001086001B0704709
:103FF00080B584B00390029100200190039842F6AE
:104000000041C4F20101884208D0FFE7039843F25F
:104010000041C4F20101884201D1FFE708E049F6FE
:104020008600C0F6030040F2CA2107F023FBFFE739
:104030000298006830B1FFE702980068B0F5006FA1
:1040400001D1FFE708E049F68600C0F6030040F220
:10405000CB2107F00FFBFFE70298406830B1FFE784
:1040600002984068B0F5806F01D1FFE708E049F69B
:104070008600C0F603004FF4337107F0FBFAFFE748
:104080000298806890B1FFE702988068B0F5807F61
:104090000CD0FFE702988068B0F5007F06D0FFE7FC
:1040A00002988068B0F5407F01D1FFE708E049F64B
:1040B0008600C0F6030040F2CD2107F0DBFAFFE7EF
:1040C0000298C08930B1FFE70298C089B0F5805FDF
:1040D00001D1FFE708E049F68600C0F6030040F290
:1040E000CE2107F0C7FAFFE70298006930B1FFE779
:1040F00002980069B0F5005F01D1FFE708E049F6DA
:104100008600C0F6030040F2CF2107F0B3FAFFE7C4
:104110000298406930B1FFE702984069B0F5804FDE
:1041200001D1FFE708E049F68600C0F603004FF42E
:10413000347107F09FFAFFE70298007B8DF80400C6
:10414000019820F440700299896808430190019811
:1041500020F480600299496808430190019820F496
:1041600000600299096808430190019820F480508A
:104170000299C98908430190019820F400500299DE
:10418000096908430190019820F480400299496927
:1041900008430190019820F40040029949690843BE
:1041A0000190019803994864002004B080BD00008C
:1041B00081B000900099086820F08000086001B08C
:1041C0007047000081B000900099886820F080005E
:1041D000886001B07047000081B000900099486984
:1041E00040F00100486101B07047000080B584B024
:1041F00003900291039842F60041C4F20101884203
:1042000035D0FFE7039843F20041C4F20101884230
:104210002DD0FFE70398B0F1804F28D0FFE7039837
:1042200040F20041C4F20001884220D0FFE7039829
:1042300040F60001C4F20001884218D0FFE703985D
:1042400040F60041C4F20001884210D0FFE7039815
:1042500041F20001C4F20001884208D0FFE7039850
:1042600041F20041C4F20001884201D1FFE708E0B9
:1042700049F68600C0F603004FF4A57107F0FAF97D
:10428000FFE702984068A0B1FFE702984068102855
:104290000FD0FFE70298406840280AD0FFE7029855
:1042A0004068202805D0FFE702984068602801D1C7
:1042B000FFE708E049F68600C0F6030040F24B1124
:1042C00007F0D8F9FFE70298C06860B1FFE70298ED
:1042D000C068B0F5807F06D0FFE70298C068B0F5EF
:1042E000007F01D1FFE708E049F68600C0F6030031
:1042F0004FF4A67107F0BEF9FFE70398006801903C
:10430000039842F60041C4F20101884225D0FFE73C
:10431000039843F20041C4F2010188421DD0FFE737
:104320000398B0F1804F18D0FFE7039840F20041A6
:10433000C4F20001884210D0FFE7039840F6000164
:10434000C4F20001884208D0FFE7039840F600411C
:10435000C4F20001884208D1FFE7019820F0700004
:104360000299496808430190FFE7039842F600412B
:10437000C4F20101884225D0FFE7039843F20041CF
:10438000C4F2010188421DD0FFE70398B0F1804FCD
:1043900018D0FFE7039840F20041C4F200018842C0
:1043A00010D0FFE7039840F60001C4F200018842F4
:1043B00008D0FFE7039840F60041C4F200018842AC
:1043C00008D1FFE7019820F440700299C9680843BA
:1043D0000190FFE7019803990860039802998968A2
:1043E00000F032F903980299098800F043F9039824
:1043F00042F60041C4F20101884208D0FFE7039869
:1044000043F20041C4F20101884206D1FFE703985C
:104410000299096900F036F9FFE70398FFF7DCFE1F
:10442000002004B080BD000089B008900791079873
:10443000012803D1FFE70020049030E0079804280A
:1044400003D1FFE70120039026E00798102803D14D
:10445000FFE7022002901CE00798402803D1FFE705
:104460000320019012E00798B0F5807F03D1FFE7A9
:104470000420009007E007990620B1F5806F08BF7F
:1044800005200090FFE700980190FFE70198029057
:10449000FFE702980390FFE703980490FFE7049872
:1044A0008DF81B0008989DF81B2049F22821C0F6C2
:1044B0000101895C0844183005909DF81B1049F6ED
:1044C000B060C0F60100415C042000FA01F20599D9
:1044D00008689043086009B07047000089B00890F0
:1044E00007910798012803D1FFE70020049030E0EE
:1044F0000798042803D1FFE70120039026E00798DE
:10450000102803D1FFE7022002901CE00798402802
:1045100003D1FFE70320019012E00798B0F5807FF8
:1045200003D1FFE70420009007E007990620B1F5CA
:10453000806F08BF05200090FFE700980190FFE71B
:1045400001980290FFE702980390FFE70398049018
:10455000FFE704988DF81B0008989DF81B2049F28E
:104560002821C0F60101895C0844183005909DF8A7
:104570001B1049F6B060C0F60100415C082000FA4B
:1045800001F2059908681043086009B070470000FF
:1045900080B586B005900491039201208DF80B0040
:1045A0000498019001280ED0FFE70198102811D03F
:1045B000FFE70198B0F5807F13D0FFE70198B0F5D1
:1045C000805F15D01BE00598039900F05BFE8DF825
:1045D0000B0015E00598039900F09CFF8DF80B0087
:1045E0000EE00598039901F0E1F88DF80B0007E063
:1045F0000598039901F026FA8DF80B0000E0FFE71B
:104600009DF80B0006B080BD82B00190009100982B
:104610000199486302B0704782B001900091009800
:104620000199886302B0704782B0019000910098B0
:104630000199C86302B0704782B001900091009860
:104640000199086402B0704782B00190009100980F
:104650000199C86202B0704782B001900091019840
:10466000806844F2070188430099084301998860F3
:1046700002B0704782B00190009100980199886261
:1046800002B0704782B001900091009801990863D0
:1046900002B0704782B0019000910198406820F00C
:1046A0007000009908430199486002B0704700000B
:1046B00081B000900099086920F490400861009949
:1046C000486920F02A00486101B0704781B000902D
:1046D0000099C86840F40050C86001B070470000FD
:1046E00080B588B00790069101208DF81700002052
:1046F0000490079843F60001C4F20101884220D0DB
:10470000FFE7079844F20041C4F20001884218D044
:10471000FFE7079844F60001C4F20001884210D078
:10472000FFE7079844F60041C4F20001884208D030
:10473000FFE7079845F20001C4F20001884201D169
:10474000FFE707E049F6BD00C0F60300CE2106F002
:1047500091FFFFE7069800684AF62021C0F2440165
:10476000884201D8FFE707E049F6BD00C0F6030024
:10477000CF2106F07FFFFFE70698406830B1FFE7E2
:1047800006984068B0F5805F01D1FFE707E049F681
:10479000BD00C0F60300D02106F06CFFFFE70698CD
:1047A0008068B0F5805F10D0FFE70698806860B140
:1047B000FFE706988068B0F5405F06D0FFE70698EF
:1047C0008068B0F5005F01D1FFE707E049F6BD0062
:1047D000C0F60300D12106F04DFFFFE70698C06840
:1047E00060B1FFE70698C068B0F5806F06D0FFE7BC
:1047F0000698C068B0F5C06F01D1FFE707E049F641
:10480000BD00C0F60300D22106F034FFFFE7069892
:10481000006978B1FFE70698006904280AD0FFE72D
:1048200006980069082805D0FFE7069800690C285B
:1048300001D1FFE707E049F6BD00C0F60300D32130
:1048400006F018FFFFE70698406990B1FFE7069869
:104850004069B0F5807F0CD0FFE706984069B0F55D
:10486000007F06D0FFE706984069B0F5407F01D190
:10487000FFE707E049F6BD00C0F60300D42106F0CB
:10488000F9FEFFE7079800F07FF8002878D1FFE7EE
:104890000798C06841F20C618843069A5168D36852
:1048A00012691943114308430799C860079806998C
:1048B000896800F0A7F807980699496900F094F80C
:1048C0006846FEF737FE079843F60001C4F201017F
:1048D000884203D1FFE70398049030E0079844F240
:1048E0000041C4F20001884203D1FFE7029804901E
:1048F00024E0079844F60001C4F20001884203D185
:10490000FFE70298049018E0079844F60041C4F2CB
:104910000001884203D1FFE7029804900CE0079859
:1049200045F20001C4F20001884203D1FFE702987A
:10493000049000E0FFE7FFE7FFE7FFE7FFE70498E9
:10494000E8B1FFE706980068C8B1FFE700208DF8DE
:10495000170007980499069A126800F01DF8079846
:104960008068102801D3FFE708E049F6BD00C0F6D3
:1049700003004FF49B7106F07DFEFFE7FFE7FFE7C2
:104980009DF8170008B080BD81B000900098C06805
:10499000C0F3403001B0704783B0029001910092A3
:1049A00001981921484300998900B0FBF1F348F2BE
:1049B0001F51C5F2EB11A3FB01204209642002FB49
:1049C0001033322000EB0310A0FB0101F02000EABD
:1049D000511000EB0210C1F34311084480B2029958
:1049E000886003B07047000082B001900091019888
:1049F000406920F44070009908430199486102B071
:104A00007047000082B0019000910198006920F485
:104A10004050009908430199086102B070470000B6
:104A200082B001904EF21000CEF2000000680090BB
:104A300000980198013020B1FFE701980130019002
:104A4000FFE7FFE7019870B1FFE74EF21000CEF2EA
:104A500000000068C003002804D5FFE70198013872
:104A60000190FFE7EEE702B07047000010B598B084
:104A700000200F901790169015901490139012909C
:104A800011901020FEF722F92020FEF71FF90420D4
:104A90000C90FEF71BF908200790FEF717F941F27A
:104AA0000000C4F20100039040F20771C0F202411D
:104AB000FEF712FC40F60040C4F2010002904FF6EF
:104AC000FF71C0F21F410191FEF706FC40F60000A5
:104AD000C4F201000B901121C0F21141FEF7FCFB62
:104AE00041F20040C4F20100069040F204410591F9
:104AF000FEF7F2FB039843F63801C0F20841FEF7D7
:104B0000F5FB0B9841F21771FEF7F0FB03980F9934
:104B100043F63F72C0F20A421192012209921292A8
:104B2000022208921392149111A90491FEF7AEFA91
:104B30000499089BDDF824C00F9A0B9841F2177E68
:104B4000C0F2114ECDF844E0CDF848C01393149252
:104B5000FEF79CFA0499089BDDF824C00F9ADDF853
:104B600004E00298CDF844E0CDF848C013931492C5
:104B7000FEF78CFA04990C9A03981423C0F214439C
:104B800011931292FEF782FA0499089BDDF824C073
:104B90000F9ADDF814E00698CDF844E0CDF848C04F
:104BA00013931492FEF772FA0F984FF07041FEF7CC
:104BB00051FA0F980221CFF20001FEF74BFA0F983D
:104BC0000321CFF20001FEF745FA079B0898099AE6
:104BD0000F9916938DF85C208DF85D108DF85E00AE
:104BE00016A80A90FEF724F9099A0F990A984FF42B
:104BF000006316938DF85C208DF85D1003218DF80D
:104C00005E10FEF715F909990F9A0A984FF40043C0
:104C100016938DF85C108DF85D208DF85E10FEF710
:104C200007F90C9A0B9840F60801FEF769FB0B9800
:104C30000C9A0821C0F20841FEF762FB0B980C9A0F
:104C40008021C0F28041FEF75BFB06F055FC0F9A15
:104C50000E210E9100F074FA014609200D9006F025
:104C600085FC0D9806F0F8FB06F046FC0E990F9AAD
:104C700000F066FA01462820109006F077FC1098A4
:104C800006F0EAFB18B010BD80B586B00020009099
:104C900005900490FEF7F6FB4FF00060FDF7CEFFA5
:104CA000FEF704FC06F030FC009A0F2100F07EFABB
:104CB00001460320019006F07BFC019806F0E4FB1E
:104CC00047F6FF700290049042F60000C4F2000024
:104CD000039004A9FEF7E4FD02990398FEF770FE25
:104CE00006B080BD80B596B00CA805902821FBF7D2
:104CF000ADFA002004900B900A900990089007905C
:104D00004FF48050FDF7F4FF04200090FDF7F0FF12
:104D100004984AF2A0010791092108910321099101
:104D20000A9040F60000C4F20100029007A9019128
:104D3000FEF7ACF9009A0199029844F240030793F8
:104D40000892FEF7A3F906F0E7FB049A114600F07B
:104D500063FA01462320039006F04CFC039806F00A
:104D6000ABFB049805990C904FF482720D920E9053
:104D70000F9010904FF40072119220221292139013
:104D800014900A20159043F20000C4F2010006902E
:104D9000FEF7ACFF0698FEF79FFF16B080BD00003F
:104DA00080B596B00CA805902821FBF74FFA00209B
:104DB00004900B900A900990089007904FF480405F
:104DC000FDF74EFF0820FDF793FF0498A021C0F2E5
:104DD000A041079109210891032109910A9040F609
:104DE0000040C4F20100029007A90191FEF74EF9BC
:104DF000019902984022C0F2404207920422089290
:104E0000FEF744F906F088FB049A114600F004FA14
:104E100001462420039006F0EDFB039806F04CFBBE
:104E2000049805990C904FF482720D920E900F9099
:104E300010904FF4007211921290139014900A2067
:104E4000159043F60000C4F200000690FEF74EFFF6
:104E50000698FEF741FF16B080BD000080B596B001
:104E600000200390159014901390129011901090C0
:104E70000F900E900D900C900B900A900990089056
:104E8000079006900590049002200290FDF7FAFE2C
:104E90000398ADF8440012904FF6FF7113911490EF
:104EA00040F20040C4F20000019011A9FFF79EF902
:104EB0000198FFF77DF9019801210091FFF70EFBA2
:104EC00000990198039A602309930A920B920C921D
:104ED0000D9209AAFFF75CFB00990198FFF7A4FA6D
:104EE00001980399FFF7D6FB0198FFF76BF91020A3
:104EF000FDF710FF0299039844F240020492092240
:104F000005920691079041F20000C4F2010004A945
:104F1000FEF7BCF8FEF786F816B080BD80B59EB0EF
:104F2000002005901D901C901B901A9019901890CD
:104F30001790169015901490139012901190109055
:104F40000F900E900D900C900B900A900990089085
:104F5000079006904FF400500290FDF7DBFE059895
:104F6000ADF864001A9041F61F411B911C901D90F2
:104F700043F20040C4F20100039019A9FFF736F98B
:104F80000398FFF715F903980599FFF765FB039858
:104F900005991191129113911491159116911791F0
:104FA00018911021049111AA0092FFF7F1FA0499C7
:104FB0000398FFF739FA009A0398202111914FF4D2
:104FC00080710191FFF7E4FA01990398FFF72CFA39
:104FD00003980599FFF75EFB0398FFF7F3F8029A31
:104FE000039805990B910C910D918DF83810ADF83F
:104FF0003A100F9210910BA9FEF7FAFF0498FDF7F3
:1050000089FE059848F28101C0F20141069109210B
:10501000079102210891099041F20000C4F20100B9
:1050200006A9FEF733F81EB080BD000080B592B02F
:1050300000200490119010900F900E900D900C9005
:105040000B900A9009900890079006904FF48040CA
:10505000FDF772FE04200190FDF76EFE0498022118
:10506000C0F202410691092107910321089109909C
:1050700040F60000C4F20100039006A90291FEF779
:1050800005F8019A029903980423C0F20443069399
:105090000792FDF7FBFF04984FF4E1310B910C9060
:1050A0000D900E900C210F911090119043F600007E
:1050B000C4F2010005900BA9FFF712FB0598FFF75A
:1050C000F7FA0598FFF702FB12B080BDFFE7FEE795
:1050D000FFE7FEE788B0079006910592079800F079
:1050E000070004900498C0F10700052803D3FFE7E8
:1050F0000420019004E00498C0F107000190FFE74C
:105100000198039004980430062803D8FFE7002094
:10511000009003E0049803380090FFE700980290A5
:1051200006980399012202FA01F101390840029B15
:10513000984005999A40013A1140084308B07047D9
:1051400088B0079006910592079800F00700049038
:105150000498C0F10700052803D3FFE7042001905D
:1051600004E00498C0F107000190FFE70198039064
:1051700004980430062803D8FFE70020009003E0DD
:10518000049803380090FFE700980290069803996E
:10519000012202FA01F101390840029B9840059969
:1051A0009A40013A1140084308B0704788B0079010
:1051B00006910592079800F0070004900498C0F14A
:1051C0000700052803D3FFE70420019004E00498BA
:1051D000C0F107000190FFE70198039004980430A4
:1051E000062803D8FFE70020009003E00498033866
:1051F0000090FFE70098029006980399012202FAB6
:1052000001F101390840029B984005999A40013A02
:105210001140084308B0704788B007900691059286
:10522000079800F0070004900498C0F107000528D3
:1052300003D3FFE70420019004E00498C0F10700C5
:105240000190FFE70198039004980430062803D8E2
:10525000FFE70020009003E0049803380090FFE788
:105260000098029006980399012202FA01F101398F
:105270000840029B984005999A40013A1140084322
:1052800008B0704780B586B005900491059842F645
:105290000041C4F20101884225D0FFE7059843F29E
:1052A0000041C4F2010188421DD0FFE70598B0F12A
:1052B000804F18D0FFE7059840F20041C4F200018A
:1052C000884210D0FFE7059840F60001C4F20001C3
:1052D000884208D0FFE7059840F60041C4F200017B
:1052E000884201D1FFE708E049F68600C0F60300D6
:1052F00040F2FF2106F0BEF9FFE70498006818B3FA
:10530000FFE70498006810281ED0FFE704980068A3
:10531000202819D0FFE704980068302814D0FFE750
:105320000498006840280FD0FFE7049800685028D0
:105330000AD0FFE704980068602805D0FFE70498CA
:105340000068702801D1FFE708E049F68600C0F642
:1053500003004FF4407106F08DF9FFE704984068B0
:1053600028B1FFE704984068012801D1FFE708E071
:1053700049F68600C0F6030040F2013106F07AF9E2
:10538000FFE70498006928B1FFE704980069022844
:1053900001D1FFE708E049F68600C0F6030040F2BD
:1053A000023106F067F9FFE70498806828B1FFE74B
:1053B00004988068012801D1FFE708E049F68600DB
:1053C000C0F6030040F2033106F054F9FFE70498F9
:1053D000406928B1FFE704984069022801D1FFE73E
:1053E00008E049F68600C0F603004FF4417106F06C
:1053F00041F9FFE70599086A20F001000862059865
:10540000006A0290059840680190059880690390B1
:10541000039820F003000390039820F07000049993
:10542000096808430390029820F002000499096972
:1054300008430290029820F001000499496808434B
:105440000290059842F60041C4F20101884208D05A
:10545000FFE7059843F20041C4F20101884248D1B8
:10546000FFE70498C06930B1FFE70498C069B0F560
:10547000807F01D1FFE708E049F68600C0F603000F
:105480004FF4487106F0F6F8FFE70498806930B1F0
:10549000FFE704988069B0F5807F01D1FFE708E05D
:1054A00049F68600C0F6030040F2213106F0E2F82A
:1054B000FFE7029820F008000499496940EA81005A
:1054C0000290029820F004000499896840EA810063
:1054D0000290019820F48070049989690843019032
:1054E000019820F400700499C96940EA41000190D4
:1054F000FFE7019805994860039805998861059828
:105500000499C968FFF780F802980599086200209D
:1055100006B080BD80B586B005900491059842F62E
:105520000041C4F20101884225D0FFE7059843F20B
:105530000041C4F2010188421DD0FFE70598B0F197
:10554000804F18D0FFE7059840F20041C4F20001F7
:10555000884210D0FFE7059840F60001C4F2000130
:10556000884208D0FFE7059840F60041C4F20001E8
:10557000884201D1FFE708E049F68600C0F6030043
:1055800040F24E3106F076F8FFE70498006818B351
:10559000FFE70498006810281ED0FFE70498006811
:1055A000202819D0FFE704980068302814D0FFE7BE
:1055B0000498006840280FD0FFE70498006850283E
:1055C0000AD0FFE704980068602805D0FFE7049838
:1055D0000068702801D1FFE708E049F68600C0F6B0
:1055E000030040F24F3106F045F8FFE704984068A9
:1055F00028B1FFE704984068012801D1FFE708E0DF
:1056000049F68600C0F603004FF4547106F032F8F4
:10561000FFE70498006928B1FFE7049800690228B1
:1056200001D1FFE708E049F68600C0F6030040F22A
:10563000513106F01FF8FFE70498806828B1FFE7B2
:1056400004988068012801D1FFE708E049F6860048
:10565000C0F6030040F2523106F00CF8FFE7049860
:10566000406928B1FFE704984069022801D1FFE7AB
:1056700008E049F68600C0F6030040F2533105F019
:10568000F9FFFFE70599086A20F010000862059805
:10569000006A02900598406801900598806903901F
:1056A000039820F440700390039820F4E04004999C
:1056B000096840EA01200390029820F02000049934
:1056C000096940EA01100290029820F01000049944
:1056D000496840EA01100290059842F60041C4F280
:1056E0000101884208D0FFE7059843F20041C4F267
:1056F0000101884249D1FFE70498C06930B1FFE752
:105700000498C069B0F5807F01D1FFE708E049F651
:105710008600C0F6030040F26F3105F0ABFFFFE7F3
:105720000498806930B1FFE704988069B0F5807F04
:1057300001D1FFE708E049F68600C0F603004FF408
:105740005C7105F097FFFFE7029820F08000049954
:10575000496940EA81100290029820F040000499C3
:10576000896840EA81100290019820F480600499D1
:10577000896940EA81000190019820F40060049951
:10578000C96940EAC1000190FFE7019805994860A6
:1057900003980599886105980499C968FEF73CFF4C
:1057A000029805990862002006B080BD80B586B0D9
:1057B00005900491059842F60041C4F20101884227
:1057C00025D0FFE7059843F20041C4F20101884269
:1057D0001DD0FFE70598B0F1804F18D0FFE705987E
:1057E00040F20041C4F20001884210D0FFE7059862
:1057F00040F60001C4F20001884208D0FFE7059896
:1058000040F60041C4F20001884201D1FFE708E000
:1058100049F68600C0F6030040F29D3105F02AFFEC
:10582000FFE70498006818B3FFE7049800681028A1
:105830001ED0FFE704980068202819D0FFE70498DD
:105840000068302814D0FFE70498006840280FD083
:10585000FFE70498006850280AD0FFE70498006822
:10586000602805D0FFE704980068702801D1FFE7A1
:1058700008E049F68600C0F6030040F29E3105F0CC
:10588000F9FEFFE70498406828B1FFE704984068F4
:10589000012801D1FFE708E049F68600C0F60300C1
:1058A00040F29F3105F0E6FEFFE70498006928B159
:1058B000FFE704980069022801D1FFE708E049F6F4
:1058C0008600C0F603004FF4687105F0D3FEFFE7D1
:1058D0000498806828B1FFE704988068012801D106
:1058E000FFE708E049F68600C0F6030040F2A13168
:1058F00005F0C0FEFFE70498406928B1FFE704986F
:105900004069022801D1FFE708E049F68600C0F6A9
:10591000030040F2A23105F0ADFEFFE70599086AE9
:1059200020F4807008620598006A0290059840682B
:1059300001900598C0690390039820F0030003903C
:10594000039820F0700004990968084303900298B6
:1059500020F400700499096940EA0120029002983D
:1059600020F480700499496840EA0120029005986B
:1059700042F60041C4F20101884208D0FFE70598D1
:1059800043F20041C4F20101884249D1FFE7049883
:10599000C06930B1FFE70498C069B0F5807F01D1DC
:1059A000FFE708E049F68600C0F6030040F2BE318A
:1059B00005F060FEFFE70498806930B1FFE70498C6
:1059C0008069B0F5807F01D1FFE708E049F68600E5
:1059D000C0F6030040F2BF3105F04CFEFFE702982D
:1059E00020F400600499496940EA812002900298FD
:1059F00020F480600499896840EA8120029001982F
:105A000020F480500499896940EA011001900198BE
:105A100020F400500499C96940EA41100190FFE761
:105A200001980599486003980599C86105980499FB
:105A3000C968FEF7F9FD029805990862002006B0D2
:105A400080BD000080B586B005900491059842F6AF
:105A50000041C4F20101884225D0FFE7059843F2D6
:105A60000041C4F2010188421DD0FFE70598B0F162
:105A7000804F18D0FFE7059840F20041C4F20001C2
:105A8000884210D0FFE7059840F60001C4F20001FB
:105A9000884208D0FFE7059840F60041C4F20001B3
:105AA000884201D1FFE708E049F68600C0F603000E
:105AB0004FF47B7105F0DEFDFFE70498006818B332
:105AC000FFE70498006810281ED0FFE704980068DC
:105AD000202819D0FFE704980068302814D0FFE789
