:020000040800F2
:10000000F00B0020CD010008F13F0008190D000899
:10001000ED3F0008410800081152000800000000F0
:10002000000000000000000000000000894E0008F1
:10003000AD090008000000003D4D0008D94E000841
:10004000E7010008E7010008E7010008714E000819
:10005000E7010008E7010008E7010008E7010008E0
:10006000E7010008D90C0008E7010008E7010008D3
:10007000E7010008E7010008450800081509000825
:10008000E7010008E7010008E7010008E7010008B0
:10009000E7010008E7010008E7010008E7010008A0
:1000A000E7010008E7010008E7010008E701000890
:1000B000E7010008E7010008E7010008E701000880
:1000C000E7010008E7010008E7010008754E000895
:1000D000794E0008E7010008E7010008E701000881
:1000E000810C0008E7010008E7010008E7010008AB
:1000F000E7010008E7010008E7010008E701000840
:10010000E7010008E7010008E7010008E70100082F
:10011000E7010008E7010008E7010008E70100081F
:10012000E7010008E7010008E7010008E70100080F
:1001300000F002F800F03AF80AA090E8000C8244BF
:100140008344AAF10107DA4501D100F02FF8AFF29C
:10015000090EBAE80F0013F0010F18BFFB1A43F0A5
:10016000010318470452010024520100103A24BF31
:1001700078C878C1FAD8520724BF30C830C144BF0C
:1001800004680C607047000000230024002500264E
:10019000103A28BF78C1FBD8520728BF30C148BFEA
:1001A0000B6070471FB51FBD10B510BD00F05DF8A6
:1001B0001146FFF7F7FF06F03BF800F07BF803B4B9
:1001C000FFF7F2FF03BC00F07FF80000094880470A
:1001D00009480047FEE7FEE7FEE7FEE7FEE7FEE729
:1001E000FEE7FEE7FEE7FEE704480549054A064B41
:1001F000704700000D50000831010008F005002094
:10020000F00B0020F0070020F00700204FF0000264
:1002100000B5134694469646203922BFA0E80C50FC
:10022000A0E80C50B1F12001BFF4F7AF090728BFD7
:10023000A0E80C5048BF0CC05DF804EB890028BF53
:1002400040F8042B08BF704748BF20F8022B11F07C
:10025000804F18BF00F8012B7047704770477047F8
:10026000004870479000002070477546FFF7F8FF80
:10027000AE4605006946534620F00700854618B093
:1002800020B5FFF7B1FFBDE820404FF000064FF06A
:1002900000074FF000084FF0000BAC46ACE8C00977
:1002A000ACE8C009ACE8C009ACE8C00921F007011E
:1002B0008D46704710B50446AFF300802046BDE878
:1002C0001040FFF77CBF000001491820ABBEFEE7DD
:1002D0002600020080B584B0ADF80E0040F2880020
:1002E000C2F200000068806B029000F055F90190A6
:1002F00000F05CF9019ADDF808C00346BDF80E0075
:100300006946086000210846E04704B080BD00004F
:1003100080B582B0ADF80600ADF804108DF803206A
:10032000BDF80600BDF8041040F2F002C2F200026F
:100330009368D3F800C09DF80320203AB3F806E094
:1003400002FB0EF29B880733DB0802FB03C200F0BE
:10035000B7FB02B080BD000080B58AB0ADF82600C2
:10036000ADF8241008928DF81F300120ADF81C0064
:100370000020ADF81A000590049008980390FFE75C
:100380000398411C0391007820B1FFE705980130E4
:100390000590F5E700F000F940F2F001C2F200012B
:1003A00089688988B0FBF1F004909DF81F00014630
:1003B0000291012808D0FFE70298022818D0FFE731
:1003C000029803280FD023E0BDF82600059940F2DB
:1003D000F002C2F20002926892885143A0EB5100F1
:1003E000ADF81C0019E0BDF82600ADF81C0014E0C3
:1003F000BDF826100498059A801A40F2F002C2F265
:100400000002926892885043401AADF81C0004E044
:10041000BDF82600ADF81C00FFE7FFE7089800785C
:10042000002818BF0120019000F0B6F8024601989C
:10043000BDF81A1040F2F003C2F200039B689B88DB
:1004400001FB13218AB200219A42A8BF0121084270
:100450001CD0FFE7BDF81C00BDF82410089A1278E4
:10046000FFF756FF40F2F000C2F20000806881887A
:10047000BDF81C000844ADF81C0008980130089035
:10048000BDF81A000130ADF81A00C7E70AB080BD08
:1004900080B586B0ADF81600ADF8141004920020B7
:1004A000039002900498D0F8120002900498D0F8BB
:1004B00016000390BDF81600BDF81410BDF8082012
:1004C000BDF80C3004F0E2FC40F28800C2F20000FB
:1004D0000068006B68B1FFE740F28800C2F20000DC
:1004E0000068036BBDF81600BDF81410049A984715
:1004F000FFE700F051F8019000F058F8019A034628
:100500000021084604F0C2FC06B080BD80B582B070
:10051000ADF80600ADF80410ADF8022040F28800F6
:10052000C2F200000068406970B1FFE740F2880045
:10053000C2F2000000684369BDF80600BDF804106F
:10054000BDF802209847FFE702B080BD10B584B027
:10055000ADF80E00ADF80C10ADF80A20ADF808307B
:1005600040F28800C2F200000068D0F838C0BDF840
:100570000E00BDF80C10BDF80A20BDF8083040F29E
:10058000F00EC2F2000EBEF800E06C46C4F800E0C7
:10059000E04704B010BD000080B540F28800C2F210
:1005A00000000068806A804780BD000080B540F28E
:1005B0008800C2F200000068C06A804780BD000069
:1005C00080B582B001208DF8070040F28800C2F2A9
:1005D000000000680068804740F2F002C2F20002AA
:1005E0004FF6FF70506000210091116040F2100141
:1005F000C2F200019160FFF76DFE00988DF80700D0
:100600009DF8070002B080BD81B0ADF80200BDF8D2
:10061000020040F2F001C2F20001486001B07047F0
:1006200081B00090009840F2F001C2F200018860B1
:1006300001B0704781B0ADF80200BDF8020040F291
:10064000F001C2F20001086001B0704780B58AB0C5
:10065000099040F28C00C2F200000068016900209D
:1006600088470999088009980088002800F083804D
:10067000FFE740F28C00C2F20000006843690020EE
:100680000DF1220108AA9847BDF822000790BDF895
:100690002000069040F20C20C2F200000088800288
:1006A0004EF61B41C9F2CB51A0FB0110C00A0390CA
:1006B00040F20E20C2F20000008880024BF66F016B
:1006C000C9F2D401A0FB0110C00A029003984FF4B4
:1006D000C8714843019002984FF48C7148430090D0
:1006E000079803994843800A0199A0EB912005904F
:1006F000069802994843800A0099A0EB9120049043
:100700000598B0F1FF3F03DCFFE70020059011E002
:10071000059840F20C21C2F200010988884208DBEA
:10072000FFE740F20C20C2F200000088013805907B
:10073000FFE7FFE70498B0F1FF3F03DCFFE700208D
:10074000049011E0049840F20E21C2F200010988E1
:10075000884208DBFFE740F20E20C2F2000000886A
:1007600001380490FFE7FFE705980999488004984D
:1007700009998880FFE70AB080BD000080B582B08B
:10078000ADF80600ADF8041001208DF80300BDF8A7
:10079000060040F20C21C2F200010880BDF80420DE
:1007A00040F20E20C2F200000280098889024EF653
:1007B0001B42C9F2CB52A1FB0221CA0A40F2985156
:1007C000C2F200010A60008880024BF66F02C9F293
:1007D000D402A0FB0220C20A40F29C50C2F20000E8
:1007E000026009684FF4C872514340F21422C2F209
:1007F0000002116000684FF48C71484340F21821E8
:10080000C2F20001086040F28C00C2F200000068F1
:1008100020B1FFE700208DF80300FFE79DF80300FB
:1008200048B9FFE740F28C00C2F20000006801689E
:1008300000208847FFE79DF8030002B080BD00005C
:10084000FFE7FEE780B582B00020C4F20200006836
:100850008004002855D5FFE70421C4F202014FF4BB
:10086000005008608021C4F2072100200860FFE7E3
:1008700040F20010C4F20720006840B1FFE743F6E1
:100880000C00C4F2000000788DF80700F0E743F692
:100890000001C4F20001086840F4804020F03800F4
:1008A0000860022000F05AFAFFE740F20010C4F29C
:1008B0000720006840B1FFE743F60C00C4F20000D7
:1008C00000688DF80700F0E743F60001C4F200016C
:1008D000086840F0400008604421C4F20201002092
:1008E0000860FFE74420C4F202000068C00708B1B6
:1008F000FFE7F7E740F20011C2F2000100200860B4
:1009000006E00421C4F202014FF480500860FFE7C2
:1009100002B080BD80B50020C4F2020000688003F0
:1009200000283BD5FFE70421C4F202014FF4003058
:1009300008605821C4F2020100200860FFE7582037
:10094000C4F202000068C00708B1FFE7F7E784219E
:10095000C4F2072100200860FFE740F21C10C4F237
:100960000720006808B1FFE7F7E7022000F0F6F97A
:1009700040F20010C2F200000068012807D1FFE732
:1009800040F28411C4F2212101200860FFE740F207
:100990000011C2F200010020086006E00421C4F248
:1009A00002014FF480300860FFE780BD704700000F
:1009B00080B58CB084460F980E98ADF82EC0ADF877
:1009C0002C10ADF82A20ADF828308DF827009DF8BE
:1009D0002700012809D1FFE74FF2DE700490FFF7EE
:1009E00029FE0498FFF710FE08E04FF2BE70039056
:1009F000FFF720FE0398FFF707FEFFE7BDF82E0084
:100A0000BDF82C10BDF82A20BDF82830FFF79EFD58
:100A100000200290FFF70EFE40F20800C2F2000034
:100A2000FFF7FEFD0298089007900F980690FFE7E9
:100A30000698411C0691007820B1FFE70898013024
:100A40000890F5E7BDF82A10BDF82E0000EB510024
:100A5000ADF81600BDF82810BDF82C0000EB5100D1
:100A6000ADF81400BDF81600BDF814104FF478422C
:100A70000192FFF74BFD019ABDF82A10BDF82E0038
:100A800000EB5100BDF82830BDF82C1001EB5301EC
:100A900080B289B2FFF73AFDBDF82A10BDF82E00EA
:100AA00000EB5100BDF82820BDF82C1001EB5201DD
:100AB0000F9A80B289B20123FFF74EFC0CB080BDC3
:100AC00080B58AB0ADF82600ADF824100892002059
:100AD0000090079006900590ADF81200ADF8100058
:100AE0008DF80F000290019040F2F001C2F2000177
:100AF0008A68D288ADF8122089688988ADF810100C
:100B0000BDF81210BDF810205143362202EB41030C
:100B100040F21C21C2F200014B80BDF81230BDF83A
:100B200010C003FB0CF302EB43031B0C8B804A81C8
:100B3000BDF810204A828882BDF81220CA8208833C
:100B4000BDF81020D11D01F0F801891A8DF80F10A1
:100B50000790FFE70798BDF81210884280F0838065
:100B6000FFE7089ABDF810000730C008079900FB9E
:100B700001200290BDF81000C11D0320B0EBD10F81
:100B80000AD1FFE7029908784A788978000440EA98
:100B9000022008440190FFE7BDF81000C11D0220AB
:100BA000B0EBD10F06D1FFE702980088000400BA2D
:100BB0000190FFE7BDF81000C11D0120B0EBD10F7F
:100BC00004D1FFE7029800780190FFE7002006902B
:100BD000FFE70698BDF8101088423FD2FFE707985C
:100BE0000138BDF81010069A00FB0121382000EBF7
:100BF000410005900198BDF81010069A891A9DF8D9
:100C00000F2011440139C840C00788B1FFE740F206
:100C1000F000C2F200000168059B40F21C22C2F203
:100C20000002D1540068000A05991144487010E090
:100C300040F2F000C2F200004168059B40F21C2225
:100C4000C2F20002D1544068000A0599114448706C
:100C5000FFE7FFE7069801300690BAE7FFE707983D
:100C60000130079076E7BDF82600BDF8241040F269
:100C70001C22C2F20002FFF70BFC0AB080BD00008C
:100C800080B54FF4006000F06FFEC8B1FFE74FF48D
:100C9000006000F02BFD40F60000C4F201000821C6
:100CA000C0F2084100F0D2FF48B9FFE703F0DCFFD3
:100CB00040F2D351C2F2000101200870FFE7FFE7C4
:100CC0004FF4004000F050FE28B1FFE74FF4004021
:100CD00000F00CFDFFE780BD80B5082000F044FE69
:100CE000C0B1FFE7082000F001FD40F60000C4F2AB
:100CF000010040F6080100F0A9FF38B9FFE740F213
:100D0000D351C2F2000101200870FFE7082000F073
:100D1000EDFCFFE780BD0000FFE7FEE780B582B095
:100D20000190019802F016FC02B080BD81B08DF8F0
:100D300003009DF8030038B1FFE740F29811C4F2B8
:100D400022210120086006E040F29811C4F222211D
:100D500000200860FFE701B07047000081B00090FC
:100D6000FFE70098411E009108B1FFE7F9E701B0E5
:100D70007047000080B58AB041F21801C4F2020148
:100D8000086840F01C00086041F21401C4F202013E
:100D9000086840F00100086040F60441C4F2010117
:100DA00002910868042262F31B60086041F20001AE
:100DB000C4F20101039108680222019262F31B60F0
:100DC000086001200590FFF7B1FFDDF804C002992B
:100DD0000598DDF80CE040F60003C4F201031A6840
:100DE0006CF303021A6040F28012C4F221220492D2
:100DF000106040F29412C4F22222106040F2841279
:100E0000C4F221221060DEF800204FF0030C6CF3D6
:100E10001752CEF800201A686CF307121A6048F2D5
:100E2000B412C4F22122106040F2B832C4F242225D
:100E3000106008680B2262F317500860086862F3BC
:100E40001F70086043F60001C4F2000140F2473011
:100E50000860086840F0400008600A200690FFF72C
:100E60005DFF049A069800211160FFF757FF049A6E
:100E7000059906981160FFF751FF0F2007900D218B
:100E8000089104F0D9FA079804F016FA08990E2090
:100E9000099004F0D1FA099804F00EFA0AB080BD66
:100EA00080B584B08DF80F0002910192009304F098
:100EB000B1F92C21C4F207210020086040F284110E
:100EC000C4F2212108609DF80F0002F069FB009830
:100ED000C0000090009802F089FB0298019900F090
:100EE00061F804B080BD000080B584B08DF80F00BB
:100EF00002910192009304F08DF92C21C4F2072194
:100F00000020086040F28411C4F2212108609DF89D
:100F10000F0002F045FB0098C0000090009802F01E
:100F200065FB0298019900F015F904B080BD00003E
:100F300083B00290019100920421C4F202014FF4A7
:100F4000805008604421C4F2020100200860FFE7DD
:100F50004420C4F202000068C00708B1FFE7F7E7C9
:100F600002985021C4F2020108604C21C4F202012F
:100F700043F60C00C4F20000086001984821C4F256
:100F80000201086000984421C4F202010860086868
:100F900040F0010008608021C4F2072101200860B0
:100FA00003B0704780B588B0079006910020049088
:100FB00003900422C4F202024FF4805111604421D4
:100FC000C4F202010860FFE74420C4F20200006896
:100FD000C00708B1FFE7F7E740F20810C2F20000CF
:100FE0005021C4F2020108604C21C4F2020143F610
:100FF0000C00C4F2000008604821C4F202014FF462
:101000008070086002904421C4F2020143F2A00003
:101010000860086840F0010008608021C4F20721E0
:1010200001200860FFE70698002849D0FFE70298F2
:101030004821C4F202010968884240D0FFE70298C3
:101040000138029020B9FFE74FF480700290FFE76B
:1010500000BF00BF00BF0499481C049040F2081074
:10106000C2F20000405C039A511C03910DF105018E
:1010700088540498B0F5807F03D3FFE700200490E4
:10108000FFE70398032819D1FFE700200390069893
:10109000013806909DF805009DF806209DF8071080
:1010A00000F0F800000202F0FC0240EAC20040EA50
:1010B000D10007998A1C07920880FFE7FFE7B2E793
:1010C0008021C4F2072100200860FFE740F20010F1
:1010D000C4F20720006840B1FFE743F60C00C4F2F9
:1010E000000000688DF81700F0E743F60001C4F235
:1010F0000001086840F4804020F0380008600220B9
:10110000FFF72CFEFFE740F20010C4F20720006852
:1011100040B1FFE743F60C00C4F2000000688DF810
:101120001700F0E74421C4F2020100200860FFE745
:101130004420C4F202000068C00708B1FFE7F7E7E7
:1011400040F28411C4F221210120086002F08CFADF
:1011500008B080BD80B584B00390029143F2820054
:101160000190FFE7029860B3FFE702984FF6FF7126
:10117000884215D3FFE740F20011C2F200010220BD
:1011800008600398019A4FF6FE710091FFF7D0FEB8
:1011900000990298401A02900398084403900DE0C9
:1011A00040F20011C2F20001012008600398029988
:1011B000019AFFF7BDFE00200290FFE704F02AF835
:1011C000D0E740F28411C4F221210120086002F02E
:1011D0004BFA04B080BD000080B582B08DF80700E6
:1011E00004F018F82C21C4F207210020086040F216
:1011F0008411C4F22121009108609DF8070002F0DB
:10120000CFF900990120086002B080BD80B584B09C
:101210008DF80F00ADF80C10029203F0FBFF2C21AB
:10122000C4F20721009100200190086040F284116F
:10123000C4F2212108609DF80F0002F0B1F9009975
:10124000019A01200860029903A800F0C1F804B0D7
:1012500080BD000080B584B08DF80F00029101922E
:1012600003F0D8FF2C21C4F2072100910020086070
:1012700040F28411C4F2212108609DF80F0002F0B1
:101280008FF90098012202600298019900F0A0F8FD
:1012900004B080BD80B584B08DF80F00029101923A
:1012A00003F0B8FF2C21C4F207210020086040F2AF
:1012B0008411C4F2212108609DF80F0002F070F93A
:1012C00002980199012200F007F904B080BD0000E6
:1012D00080B584B0ADF80E0003F09CFF2C21C4F261
:1012E000072101200290086040F28411C4F22121FC
:1012F000019100200860BDF80E0002F0F3F9019999
:101300000298086004B080BD80B582B08DF80700F7
:1013100003F080FF2C21C4F207210020086040F276
:101320008411C4F22121009108609DF8070002F0A9
:10133000F3F900990120086002B080BD83B00290EB
:10134000019100920421C4F202014FF48030086040
:1013500043F60001C4F20001086820F04000086074
:101360005821C4F2020100200860FFE75820C4F2AF
:1013700002000068C00708B1FFE7F7E702986421A0
:10138000C4F2020108606021C4F2020143F60C00BD
:10139000C4F20000086001985C21C4F202010860F8
:1013A00000985821C4F2020108608422C4F2072286
:1013B0000120106043F60002C4F20002106840F001
:1013C00040001060086840F00100086003B07047FA
:1013D00080B584B0039002910192019860B9FFE753
:1013E0000398018840F20820C2F2000001800390B7
:1013F00043F21250009003E043F292500090FFE756
:10140000FFE70298002864D0FFE702984FF6FE71CC
:10141000884214D8FFE740F20011C2F20001012017
:10142000086003980299009AFFF788FF0020029055
:10143000019818B1FFE703F0EDFEFFE748E00298DE
:101440004FF6FB71C0F20101884221D8FFE740F25C
:101450000011C2F2000102200860039802994FF6C1
:10146000FE72891A009AFFF769FF019850B1FFE7F1
:101470000299039800EB41000421CFF6FE71084465
:101480000390FFE74FF6FE70029003F0C3FE1EE0EC
:1014900040F20011C2F20001022008600398009A95
:1014A0004FF6FE71FFF74AFF019840B1FFE703983E
:1014B0004FF6FC71C0F2010108440390FFE7029867
:1014C0004FF6FE71401A029003F0A4FEFFE7FFE71B
:1014D00097E704B080BD000080B584B0039002910E
:1014E0000192019860B9FFE70398017840F20A2061
:1014F000C2F200000170039043F21200009003E07A
:1015000043F292000090FFE7FFE70298C0B3FFE7C5
:1015100002984FF6FE71884214D8FFE740F200119E
:10152000C2F200010120086003980299009AFFF7B7
:1015300005FF00200290019818B1FFE703F06AFE52
:10154000FFE71CE040F20011C2F200010220086037
:101550000398009A4FF6FE71FFF7F0FE019830B144
:10156000FFE703984FF6FE7108440390FFE70298E7
:101570004FF6FE71401A029003F04CFEFFE7C4E7FD
:1015800004B080BD82B00190019A41F21C00C4F207
:101590000200016811430160006801990840009051
:1015A000009802B07047000082B00190019A41F2A9
:1015B0001C00C4F202000168114301600068019937
:1015C00008400090009802B07047000082B001907F
:1015D000019A41F21C00C4F202000168114301604B
:1015E0000068019908400090009802B07047000020
:1015F00082B00190019A41F21C00C4F2020001681D
:10160000114301600068019908400090009802B001
:101610007047000082B00190019A41F21800C4F2B4
:1016200002000168114301600068019908400090C0
:10163000009802B07047000082B00190019A41F218
:101640001800C4F2020001681143016000680199AA
:1016500008400090009802B07047000082B00190EE
:10166000019A41F21800C4F20200016811430160BE
:101670000068019908400090009802B0704700008F
:1016800082B00190019A41F21800C4F20200016890
:10169000114301600068019908400090009802B071
:1016A0007047000082B00190019A41F21800C4F224
:1016B0000200016811430160006801990840009030
:1016C000009802B07047000082B00190019A41F288
:1016D0001800C4F20200016811430160006801991A
:1016E00008400090009802B07047000081B0009060
:1016F000009840F21441C4F20101086001B0704743
:1017000081B00090009A40F20441C4F201010868DF
:101710009043086001B0704781B00090009A40F299
:101720000C41C4F2010108689043086001B07047A1
:1017300081B00090009A40F20041C4F201010868B3
:101740009043086001B0704781B00090009A40F269
:101750000841C4F2010108689043086001B0704775
:1017600081B00090009A40F20441C4F2010108687F
:101770001043086001B0704781B00090009A40F2B9
:101780000C41C4F2010108681043086001B07047C1
:1017900081B00090009A40F20041C4F20101086853
:1017A0001043086001B0704781B00090009A40F289
:1017B0000841C4F2010108681043086001B0704795
:1017C00080B584B0039000208DF80B00039840880A
:1017D000C00808B9FFE707E045F26D20C0F6010038
:1017E0006E2103F069FEFFE70398007928B1FFE757
:1017F00003980079012801D1FFE707E045F26D2049
:10180000C0F601006F2103F057FEFFE7039840790F
:1018100050B1FFE703984079012805D0FFE703980E
:101820004079022801D1FFE707E045F26D20C0F6BC
:101830000100702103F040FEFFE7039800790028C3
:1018400000F08480FFE70398807978B1FFE7039880
:10185000807901280AD0FFE703988079022805D013
:10186000FFE703988079032801D1FFE707E045F2FD
:101870006D20C0F60100752103F01EFEFFE70398FE
:101880000068002861D0FFE7039840790146019184
:1018900040B1FFE7019801280DD0FFE70198022829
:1018A00012D01AE003980068FFF72AFF0398006837
:1018B000FFF76EFF15E003980068FFF739FF039804
:1018C0000068FFF74DFF0CE003980068FFF760FF2A
:1018D00003980068FFF744FF03E001208DF80B0038
:1018E000FFE70398807978B3FFE703988079014692
:1018F0000091012808D0FFE7009802280DD0FFE7EB
:101900000098032812D01AE003980068FFF704FF3C
:1019100003980068FFF748FF15E003980068FFF799
:1019200013FF03980068FFF727FF0CE00398006897
:10193000FFF73AFF03980068FFF71EFF03E001205E
:101940008DF80B00FFE7FFE7FFE708E0039800686A
:10195000FFF7EEFE03980068FFF7D2FEFFE79DF861
:101960000B0004B080BD000081B0009040F2144034
:10197000C4F20100006800990840401AB0FA80F0F3
:10198000400901B07047000042F20000C4F20200BA
:10199000006800F00700704781B0009042F200013B
:1019A000C4F20201086820F00700009A10430860A2
:1019B00001B070470421C4F20101086840F60042FA
:1019C000C0F2007210430860704700000421C4F2A6
:1019D0000101086820F0E0600860086840F00070CD
:1019E0000860704782B0019000919DF800000821C6
:1019F000C4F2010151F82000009A4FEA124C20EA8B
:101A00001240019B9CFAACFCBCFA8CFC03FA0CF370
:101A10001843D2B241F8220002B0704780B586B0B8
:101A200005900491059840F60001C4F20101884236
:101A300030D0FFE7059840F60041C4F2010188422A
:101A400028D0FFE7059841F20001C4F20101884265
:101A500020D0FFE7059841F20041C4F2010188421D
:101A600018D0FFE7059841F60001C4F20101884251
:101A700010D0FFE7059841F60041C4F20101884209
:101A800008D0FFE7059842F20001C4F20101884244
:101A900001D1FFE707E045F2FE10C0F60100A321E7
:101AA00003F00AFDFFE7049800686FF07B410842ED
:101AB00007D0FFE70498C07810F0FB0F01D1FFE7D3
:101AC00007E045F2FE10C0F60100A42103F0F4FC8B
:101AD000FFE704980068C0F30F200390039890FA82
:101AE000A0F0B0FA80F00290FFE703980299C84096
:101AF000002800F0A880FFE703980299C840C007BB
:101B0000002800F09C80FFE70298072806D8FFE72E
:101B1000029940F201108840019009E00298A0F17A
:101B200008014FF00110884040F080600190FFE70D
:101B300004984068082819D1FFE70498006928B183
:101B4000FFE704980069012801D1FFE707E045F2AB
:101B5000FE10C0F60100BF2103F0AEFCFFE70598C0
:101B60000199049A126900F0F5F8FFE704984068BB
:101B7000A0B1FFE70498406804280FD0FFE704985D
:101B8000406808280AD0FFE704984068012805D07B
:101B9000FFE704984068092801D1FFE707E045F214
:101BA000FE10C0F60100C62103F086FCFFE7059891
:101BB0000199049A526800F099F804984068012845
:101BC00005D0FFE704984068092837D1FFE704985B
:101BD000806802280AD0FFE704988068012805D0B1
:101BE000FFE704988068032801D1FFE707E045F28A
:101BF000FE10C0F60100CE2103F05EFCFFE7049862
:101C0000C06828B1FFE70498C068042801D1FFE745
:101C100007E045F2FE10C0F60100CF2103F04CFCB6
:101C2000FFE705980199049A926800F0A9F80598D1
:101C30000199049AD26800F073F8FFE7FFE7029871
:101C40000130029051E7002006B080BD82B00190C3
:101C5000009101988068BDF801100840401AB0FA60
:101C600080F0400902B0704782B001900091BDF849
:101C700001000199486102B07047000082B00190F4
:101C80000091BDF801000199486102B07047000061
:101C900082B001900091BDF801000199086102B085
:101CA0007047000082B001900091BDF801000199D9
:101CB000086102B07047000084B003900291019265
:101CC00003989DF80B100844009000990868029A48
:101CD00092FAA2F2B2FA82F293000F229A40904353
:101CE000019A9A401043086004B0704784B0039092
:101CF0000291019203989DF80B10084400900099FE
:101D00000868029A92FAA2F2B2FA82F293000F22C3
:101D10009A409043019A9A401043086004B070477B
:101D200084B003900291019203989DF80B1008442F
:101D3000009000990868029A92FAA2F2B2FA82F22E
:101D4000930004229A409043019A9A4010430860FD
:101D500004B0704783B00290019100920298C0686D
:101D600001990A0A20EA1120009992FAA2F2B2FA25
:101D700082F2914008430299C86003B070470000A6
:101D800084B003900291019203989DF80B100844CF
:101D9000009000990868029A92FAA2F2B2FA82F2CE
:101DA000930003229A409043019A9A40104308609E
:101DB00004B0704784B0039002910398C06801900A
:101DC000BDF809000090019A009802EA00019043D2
:101DD00040EA01400399086104B0704780B582B0C1
:101DE000019001984FF47A7100F002F802B080BDC2
:101DF00082B00190009101980099B0FBF1F0013898
:101E00004EF21401CEF2000108604EF21801CEF23B
:101E10000001002008604EF21001CEF20001052002
:101E2000086002B07047000047F20001C4F20001F0
:101E3000086840F4807008607047000047F20001B5
:101E4000C4F20001086840F4807008607047000028
:101E500041F22001C4F20201086840F40040086029
:101E60007047000041F22001C4F20201086840F40A
:101E7000004008607047000041F22001C4F20201F6
:101E8000086840F4803008607047000041F20400A8
:101E9000C4F20200006800F0F000704741F2040054
:101EA000C4F20200006800F4E060704741F20400F0
:101EB000C4F20200006800F46050704741F2200054
:101EC000C4F20200006800F44070704741F2040060
:101ED000C4F20200006800F00C00704741F20400F8
:101EE000C4F20200006800F00C00704780B582B0B8
:101EF000019002F05DFF019908600198006802F00E
:101F00001FFF019948600198406802F02DFF019978
:101F100088600198406802F039FF0199C86002B0FA
:101F200080BD000041F20001C4F20201086840F4E3
:101F3000803008607047000041F20000C4F20200E7
:101F40000068C0F34040704741F22001C4F2020132
:101F5000086840F0010008607047000041F220006E
:101F6000C4F202000068C0F34000704782B00190E4
:101F7000009141F20401C4F20201086820F47C10CF
:101F8000019A02F44032009B1A431043086002B0E9
:101F90007047000041F20001C4F20201086840F0FD
:101FA000807008607047000041F20400C4F2020033
:101FB000006800F48030704741F20400C4F202006F
:101FC000006800F47010704741F20400C4F202008F
:101FD0000068C0F34040704741F20000C4F20200C4
:101FE0000068C0F34060704741F22001C4F2020172
:101FF000086820F4803008607047000081B00090CD
:1020000041F20401C4F20201086820F0F000009AD5
:102010001043086001B0704781B0009041F20401A4
:10202000C4F20201086820F4E060009A10430860DE
:1020300001B0704781B0009041F20401C4F2020186
:10204000086820F46050009A1043086001B070479F
:1020500081B0009041F22001C4F20201086820F42E
:102060004070009A1043086001B0704781B0009042
:1020700041F20401C4F20201086820F00300009A52
:102080001043086001B0704781B000900099486823
:1020900020F00200486001B07047000081B000905D
:1020A0000099486820F00400486001B070470000C3
:1020B00081B000900099486820F00800486001B0A5
:1020C0007047000081B000900099486820F001003E
:1020D000486001B07047000081B0009000994868E6
:1020E00040F01000486001B07047000081B00090DF
:1020F0000099486820F01000486001B07047000067
:1021000080B586B005904FF47A70049000208DF869
:102110000F000290059842F60001C4F200018842C7
:1021200001D1FFE708E045F23620C0F601004FF488
:10213000BA7103F0C1F9FFE7059800F001F90290C8
:10214000FFE704990020019031B1FFE702980138C0
:1021500018BF01200190FFE70198C007A8B1FFE771
:1021600000F0FCFB012804D1FFE70498013804903B
:10217000FFE7059800F0E4F80290049820B9FFE723
:1021800001208DF80F00FFE7DBE70598FFF7A4FFBC
:102190009DF80F0006B080BD80B586B005904FF465
:1021A0007A70049000208DF80F000290059842F696
:1021B0000001C4F20001884201D1FFE708E045F2C6
:1021C0003620C0F6010040F29B1103F075F9FFE7DD
:1021D0000598FFF78BFF059800F0B2F80290FFE733
:1021E00004990020019031B1FFE70298013818BF2F
:1021F00001200190FFE70198C007A8B1FFE700F0B8
:10220000ADFB012804D1FFE7049801380490FFE7F3
:10221000059800F095F80290049820B9FFE7012096
:102220008DF80F00FFE7DBE79DF80F0006B080BDDB
:1022300080B584B00390029101208DF807000398C7
:1022400042F60001C4F20001884201D1FFE707E035
:1022500045F23620C0F60100A22103F02DF9FFE778
:10226000029801680020B0EB115F01D1FFE707E0A1
:1022700045F23620C0F60100A32103F01DF9FFE767
:102280000298406888B1FFE70298406880280CD027
:10229000FFE702984068B0F5807F06D0FFE702981C
:1022A0004068B0F5407F01D1FFE707E045F23620F6
:1022B000C0F60100A42103F0FFF8FFE7039800F047
:1022C00087F901282FD0FFE70398FFF719FF0128AE
:1022D00028D0FFE70398FFF7D7FE0398FFF7DEFE4D
:1022E0000398FFF7EFFE0298406838B1FFE746F623
:1022F0000040C4F2000000F065F8FFE70298416872
:1023000046F60040C4F2000000F04EF8039802992F
:10231000096800F033F80398FFF73EFF00208DF8BE
:102320000700FFE7FFE79DF8070004B080BD00004D
:1023300081B0009000984068C0F3C00001B07047C1
:1023400081B0009000984068C0F3401001B0704721
:1023500082B0019000910198806820F00F00BDF8D4
:1023600002100843019988600198C068009961F3E0
:102370000F000199C86002B07047000082B0019060
:1023800000910198806820F00F00BDF8021008430A
:10239000019988600198C068009961F30F00019964
:1023A000C86002B07047000082B0019000910198AF
:1023B000C06A20F46070009908430199C86202B0B5
:1023C0007047000081B0009046F63041C4F2000131
:1023D000086820F00100086001B0704780B586B041
:1023E00005900491039201208DF80B0000200190CC
:1023F000059842F60001C4F20001884201D1FFE7CE
:1024000007E045F23620C0F60100E42103F054F85D
:10241000FFE7049820B1FFE70498012801D1FFE706
:1024200007E045F23620C0F60100E52103F044F84C
:10243000FFE7049858BBFFE703980078172801D8F6
:10244000FFE707E045F23620C0F60100E92103F07E
:1024500033F8FFE7039840783B2801D8FFE707E00F
:1024600045F23620C0F60100EA2103F025F8FFE727
:10247000039880783B2801D8FFE707E045F2362033
:10248000C0F60100EB2103F017F8FFE742E00398E4
:102490000078010901EB810100F00F0000EB410021
:1024A000C0B2172801D8FFE707E045F23620C0F692
:1024B0000100EF2103F000F8FFE7039840780109DD
:1024C00001EB810100F00F0000EB4100C0B23B289E
:1024D00001D8FFE707E045F23620C0F60100F02101
:1024E00002F0EAFFFFE703988078010901EB810120
:1024F00000F00F0000EB4100C0B23B2801D8FFE71D
:1025000007E045F23620C0F60100F12102F0D4FFC9
:10251000FFE7FFE70598FFF7F3FD012843D0FFE74A
:10252000049890B9FFE7039908784A7889784FF4BE
:1025300061635843C2EB021200EB82000844019031
:102540000598019900F036F829E0039908784A784F
:102550008978030903EB830300F00F0000EB4300CD
:10256000C0B24FF461635843130903EB830302F0D5
:102570000F0202EB4302D2B2C2EB021200EB820066
:102580000A0902EB820201F00F0101EB4201C9B21C
:10259000084401900598019900F00CF8FFE700202D
:1025A0008DF80B00FFE70598FFF7F6FD9DF80B008F
:1025B00006B080BD82B001900091BDF80200019983
:1025C0008861BDF800000199C86102B07047000041
:1025D00080B586B005904FF47A70049000208DF895
:1025E0000F000290059842F60001C4F200018842F3
:1025F00001D1FFE708E045F23620C0F6010040F2C5
:10260000F51102F059FFFFE70598FFF751FD059816
:10261000FFF78EFE0290FFE704990020019031B190
:10262000FFE70298002818BF01200190FFE70198FA
:10263000C007A8B1FFE700F091F9012804D1FFE736
:10264000049801380490FFE70598FFF771FE0290A7
:10265000049820B9FFE701208DF80F00FFE7DBE7C2
:102660009DF80F0006B080BD81B000900099086809
:1026700040F04000086001B07047000080B584B0B1
:102680000390029101208DF80700039843F20001A6
:10269000C4F20101884210D0FFE7039843F600011D
:1026A000C4F20001884208D0FFE7039843F60041D6
:1026B000C4F20001884201D1FFE707E045F2A520FE
:1026C000C0F60100B72102F0F7FEFFE702980068AC
:1026D00090B1FFE702980068B0F5806F0CD0FFE77B
:1026E00002980068B0F5004F06D0FFE70298006836
:1026F000B0F5404F01D1FFE707E045F2A520C0F655
:102700000100BA2102F0D8FEFFE702984068B0F558
:10271000827F04D0FFE70298406808B9FFE707E02E
:1027200045F2A520C0F60100BB2102F0C5FEFFE77F
:102730000298806830B1FFE702988068B0F5006FBA
:1027400001D1FFE707E045F2A520C0F60100BC215A
:1027500002F0B2FEFFE70298C06828B1FFE70298D6
:10276000C068022801D1FFE707E045F2A520C0F6C6
:102770000100BD2102F0A0FEFFE70298006928B128
:10278000FFE702980069012801D1FFE707E045F261
:10279000A520C0F60100BE2102F08EFEFFE70298E0
:1027A0004069B0F5007F0AD0FFE70298406930B178
:1027B000FFE702984069B0F5802F01D1FFE707E0FD
:1027C00045F2A520C0F60100BF2102F075FEFFE72B
:1027D0000298806918B3FFE70298806908281ED024
:1027E000FFE702988069102819D0FFE702988069F6
:1027F000182814D0FFE70298806920280FD0FFE73F
:102800000298806928280AD0FFE70298806930285A
:1028100005D0FFE702988069382801D1FFE707E07B
:1028200045F2A520C0F60100C02102F045FEFFE7F9
:102830000298C069802804D0FFE70298C06908B9EF
:10284000FFE707E045F2A520C0F60100C12102F034
:1028500033FEFFE70298006AB0F5005F04D0FFE79F
:102860000298006A08B9FFE707E045F2A520C0F624
:102870000100C22102F020FEFFE7039800F052F8A9
:10288000002845D1FFE7039800684FF6BF718843E1
:10289000029A00921168D2F804E0D2F808C0D36816
:1028A00041EA0E0141EA0C011943136919435369C6
:1028B000194393691943D3691943126A11430843B1
:1028C000039908600398406820F004000299C98ABF
:1028D0000843039948600298006AB0F5005F13D17D
:1028E000FFE70298406A08B1FFE707E045F2A5203C
:1028F000C0F60100E52102F0DFFDFFE70398029931
:10290000496A00F017F8FFE700208DF80700FFE79D
:102910000399C86920F40060C8619DF8070004B0FD
:1029200080BD000081B0009000980068C0F3801066
:1029300001B0704782B001900091BDF8000001998C
:10294000086102B0704700004EF21001CEF20001A3
:10295000086840F002000860704700004EF2100066
:10296000CEF200000068C0F30040704781B00090D4
:10297000009840F21801C2F20001086001B07047EF
:1029800080B584B00390029100200190039842F634
:102990000041C4F20101884208D0FFE7039843F2E6
:1029A0000041C4F20101884201D1FFE708E045F28D
:1029B000DC20C0F6010040F2CA2102F07DFDFFE7F5
:1029C0000298006830B1FFE702980068B0F5006F28
:1029D00001D1FFE708E045F2DC20C0F6010040F23B
:1029E000CB2102F069FDFFE70298406830B1FFE7B4
:1029F00002984068B0F5806F01D1FFE708E045F22A
:102A0000DC20C0F601004FF4337102F055FDFFE702
:102A10000298806890B1FFE702988068B0F5807FE7
:102A20000CD0FFE702988068B0F5007F06D0FFE782
:102A300002988068B0F5407F01D1FFE708E045F2D9
:102A4000DC20C0F6010040F2CD2102F035FDFFE7A9
:102A50000298C08930B1FFE70298C089B0F5805F65
:102A600001D1FFE708E045F2DC20C0F6010040F2AA
:102A7000CE2102F021FDFFE70298006930B1FFE7A7
:102A800002980069B0F5005F01D1FFE708E045F268
:102A9000DC20C0F6010040F2CF2102F00DFDFFE77F
:102AA0000298406930B1FFE702984069B0F5804F65
:102AB00001D1FFE708E045F2DC20C0F601004FF449
:102AC000347102F0F9FCFFE70298007B8DF80400F6
:102AD000019820F440700299896808430190019898
:102AE00020F480600299496808430190019820F41D
:102AF00000600299096808430190019820F4805011
:102B00000299C98908430190019820F40050029964
:102B1000096908430190019820F4804002994969AD
:102B200008430190019820F4004002994969084344
:102B30000190019803994864002004B080BD000012
:102B400082B001900091009A0199086A10430862CE
:102B500002B0704781B000900099086820F08000B2
:102B6000086001B07047000081B0009000990868CB
:102B700020F08000086001B07047000081B0009034
:102B80000099886820F08000886001B070470000DC
:102B900081B000900099886820F08000886001B0C2
:102BA0007047000081B000900099486C40F40040EC
:102BB000486401B07047000081B000900099086837
:102BC00040F00100086001B07047000081B0009043
:102BD0000099486940F00100486101B07047000069
:102BE00080B584B003900291039842F60041C4F28C
:102BF0000101884235D0FFE7039843F20041C4F257
:102C0000010188422DD0FFE70398B0F1804F28D012
:102C1000FFE7039840F20041C4F20001884220D04F
:102C2000FFE7039840F60001C4F20001884218D083
:102C3000FFE7039840F60041C4F20001884210D03B
:102C4000FFE7039841F20001C4F20001884208D076
:102C5000FFE7039841F20041C4F20001884201D12C
:102C6000FFE708E045F2DC20C0F601004FF4A57153
:102C700002F022FCFFE702984068A0B1FFE702984B
:102C8000406810280FD0FFE70298406840280AD01B
:102C9000FFE702984068202805D0FFE702984068C7
:102CA000602801D1FFE708E045F2DC20C0F6010012
:102CB00040F24B1102F000FCFFE70298C06860B1DF
:102CC000FFE70298C068B0F5807F06D0FFE7029862
:102CD000C068B0F5007F01D1FFE708E045F2DC20D5
:102CE000C0F601004FF4A67102F0E6FBFFE703987F
:102CF00000680190039842F60041C4F20101884245
:102D000025D0FFE7039843F20041C4F20101884255
:102D10001DD0FFE70398B0F1804F18D0FFE703986C
:102D200040F20041C4F20001884210D0FFE703984E
:102D300040F60001C4F20001884208D0FFE7039882
:102D400040F60041C4F20001884208D1FFE7019833
:102D500020F070000299496808430190FFE703984A
:102D600042F60041C4F20101884225D0FFE70398F2
:102D700043F20041C4F2010188421DD0FFE70398ED
:102D8000B0F1804F18D0FFE7039840F20041C4F241
:102D90000001884210D0FFE7039840F60001C4F21A
:102DA0000001884208D0FFE7039840F60041C4F2D2
:102DB0000001884208D1FFE7019820F44070029991
:102DC000C96808430190FFE70198039908600398D8
:102DD0000299896800F0B2F903980299098800F015
:102DE000C3F9039842F60041C4F20101884208D0B9
:102DF000FFE7039843F20041C4F20101884206D183
:102E0000FFE703980299096900F0B6F9FFE7039814
:102E1000FFF7DCFE002004B080BD000089B0089000
:102E200007910798012803D1FFE70020049030E0C4
:102E30000798042803D1FFE70120039026E00798B4
:102E4000102803D1FFE7022002901CE007984028D9
:102E500003D1FFE70320019012E00798B0F5807FCF
:102E600003D1FFE70420009007E007990620B1F5A1
:102E7000806F08BF05200090FFE700980190FFE7F2
:102E800001980290FFE702980390FFE703980490EF
:102E9000FFE704988DF81B0008989DF81B2048F662
:102EA0000361C0F60001895C0844183005909DF864
:102EB0001B1048F61160C0F60000415C042000FAC7
:102EC00001F2059908689043086009B07047000056
:102ED00089B0089007910798012803D1FFE70020E7
:102EE000049030E00798042803D1FFE70120039005
:102EF00026E00798102803D1FFE7022002901CE08B
:102F00000798402803D1FFE70320019012E00798BB
:102F1000B0F5807F03D1FFE70420009007E0079918
:102F20000620B1F5806F08BF05200090FFE70098EC
:102F30000190FFE701980290FFE702980390FFE7F6
:102F400003980490FFE704988DF81B0008989DF8FB
:102F50001B2048F60A61C0F60001895C084418305D
:102F600005909DF81B1048F61860C0F60000415C03
:102F7000042000FA01F2059908689043086009B03E
:102F80007047000089B0089007910798012803D185
:102F9000FFE70020049030E00798042803D1FFE702
:102FA0000120039026E00798102803D1FFE70220B4
:102FB00002901CE00798402803D1FFE7032001900E
:102FC00012E00798B0F5807F03D1FFE7042000905E
:102FD00007E007990620B1F5806F08BF0520009033
:102FE000FFE700980190FFE701980290FFE7029841
:102FF0000390FFE703980490FFE704988DF81B0007
:1030000008989DF81B2048F60361C0F60001895C12
:103010000844183005909DF81B1048F61160C0F662
:103020000000415C082000FA01F20599086810438D
:10303000086009B07047000080B586B00590049123
:10304000039201208DF80B000498019001280ED006
:10305000FFE70198102811D0FFE70198B0F5807FB5
:1030600013D0FFE70198B0F5805F15D01BE00598FD
:10307000039901F097F88DF80B0015E00598039976
:1030800001F0D8F98DF80B000EE00598039901F0D6
:103090001DFB8DF80B0007E00598039901F062FC19
:1030A0008DF80B0000E0FFE79DF80B0006B080BD37
:1030B00082B00190009100980199486302B0704776
:1030C00082B00190009100980199886302B0704726
:1030D00082B00190009100980199886302B0704716
:1030E00082B00190009100980199C86302B07047C6
:1030F00082B00190009100980199C86302B07047B6
:1031000082B00190009100980199086402B0704764
:1031100081B00090009900200860009948600099F3
:1031200088600099C8600099086100994861009919
:1031300088610099C86101B07047000082B00190B9
:10314000009100980199C86202B0704782B0019066
:1031500000910198806844F2070188430099084370
:103160000199886002B0704782B001900091009888
:103170000199886202B0704782B001900091009876
:103180000199086302B0704782B0019000910198E4
:10319000406820F07000009908430199486002B02F
:1031A0007047000082B0019000910198406820F0C3
:1031B0007000009908430199486002B07047000010
:1031C00081B0009000990020088000994860009A22
:1031D0004FF0FF3191600099C8600099086101B01B
:1031E0007047000081B000900099086920F4904079
:1031F00008610099486920F02A00486101B07047D1
:1032000081B000900099C86840F40050C86001B0D7
:103210007047000080B588B00790069101208DF8B6
:10322000170000200490079843F60001C4F2010142
:10323000884220D0FFE7079844F20041C4F2000121
:10324000884218D0FFE7079844F60001C4F2000155
:10325000884210D0FFE7079844F60041C4F200010D
:10326000884208D0FFE7079845F20001C4F2000148
:10327000884201D1FFE707E045F21330C0F60100B4
:10328000CE2102F019F9FFE7069800684AF62021DE
:10329000C0F24401884201D8FFE707E045F213304D
:1032A000C0F60100CF2102F007F9FFE70698406859
:1032B00030B1FFE706984068B0F5805F01D1FFE7C5
:1032C00007E045F21330C0F60100D02102F0F4F817
:1032D000FFE706988068B0F5805F10D0FFE706989A
:1032E000806860B1FFE706988068B0F5405F06D05F
:1032F000FFE706988068B0F5005F01D1FFE707E0BF
:1033000045F21330C0F60100D12102F0D5F8FFE7F5
:103310000698C06860B1FFE70698C068B0F5806F96
:1033200006D0FFE70698C068B0F5C06F01D1FFE78F
:1033300007E045F21330C0F60100D22102F0BCF8DC
:10334000FFE70698006978B1FFE70698006904284E
:103350000AD0FFE706980069082805D0FFE706981D
:1033600000690C2801D1FFE707E045F21330C0F6F1
:103370000100D32102F0A0F8FFE70698406990B160
:10338000FFE706984069B0F5807F0CD0FFE706980C
:103390004069B0F5007F06D0FFE706984069B0F5B8
:1033A000407F01D1FFE707E045F21330C0F601008E
:1033B000D42102F081F8FFE7079800F07FF8002899
:1033C00078D1FFE70798C06841F20C618843069AFC
:1033D0005168D36812691943114308430799C860BB
:1033E00007980699896800F0A7F80798069949692F
:1033F00000F094F86846FEF779FD079843F600015F
:10340000C4F20101884203D1FFE70398049030E041
:10341000079844F20041C4F20001884203D1FFE75B
:103420000298049024E0079844F60001C4F20001D9
:10343000884203D1FFE70298049018E0079844F609
:103440000041C4F20001884203D1FFE702980490D2
:103450000CE0079845F20001C4F20001884203D154
:10346000FFE70298049000E0FFE7FFE7FFE7FFE7D0
:10347000FFE70498E8B1FFE706980068C8B1FFE7E6
:1034800000208DF8170007980499069A126800F03A
:103490001DF807988068102801D3FFE708E045F27F
:1034A0001330C0F601004FF49B7102F005F8FFE7FE
:1034B000FFE7FFE79DF8170008B080BD81B00090DE
:1034C0000098C068C0F3403001B0704783B00290EC
:1034D0000191009201981921484300998900B0FB9D
:1034E000F1F348F21F51C5F2EB11A3FB0120420991
:1034F000642002FB1033322000EB0310A0FB01011B
:10350000F02000EA511000EB0210C1F3431108440F
:1035100080B20299886003B07047000082B00190C9
:1035200000910198406920F4407000990843019986
:10353000486102B07047000082B00190009101988C
:10354000006920F44050009908430199086102B0D5
:103550007047000082B001904EF21000CEF20000E1
:103560000068009000980198013020B1FFE70198B1
:1035700001300190FFE7FFE7019870B1FFE74EF2DD
:103580001000CEF200000068C003002804D5FFE759
:10359000019801380190FFE7EEE702B070470000A4
:1035A00080B582B08DF8070040F29411C4F2222158
:1035B000002008609DF8070043F60C01C4F20001EA
:1035C00008600220FDF7CAFBFFE740F21C10C4F2BE
:1035D0000720006808B1FFE7F7E740F29411C4F252
:1035E00022210120086002B080BD000081B000905F
:1035F00040F60441C4F201010868032262F3175047
:103600000860FFE70098411E009148B1FFE748F2CB
:10361000B411C4F221210020086001200860F1E704
:1036200040F60441C4F2010108680B2262F317500E
:103630000860FFE740F20010C4F20720006838B1CC
:10364000FFE743F60C00C4F2000000680090F1E7C9
:1036500043F60001C4F20001086840F4806020F0E5
:103660003800086001B0704780B582B043F60001B1
:10367000C4F20001086820F040000860FFE740F253
:103680000010C4F20720006838B1FFE743F60C00D1
:10369000C4F2000000680190F1E743F60001C4F2B3
:1036A0000001086820F4876008600220FDF756FBDF
:1036B000FFE740F20010C4F20720006838B1FFE7CE
:1036C00043F60C00C4F2000000680190F1E743F6F5
:1036D0000001C4F20001086840F04000086002B038
:1036E00080BD000080B582B0ADF80600BDF80600D0
:1036F00043F60C01C4F2000108600120FDF72EFB27
:10370000FFE740F21C10C4F20720006808B1FFE791
:10371000F7E702B080BD000080B582B08DF80700E9
:103720009DF8070043F60C01C4F200010860022076
:10373000FDF714FBFFE740F21C10C4F207200068FD
:1037400008B1FFE7F7E702B080BD000080B582B0A6
:1037500040F2A050C2F2000090F82000C008C0075C
:1037600050B9FFE741F20000C4F201000121C0F2AC
:103770000141FEF783FA10E040F2A051C2F20001CD
:103780000191086889680131FFF7A2FC0199086876
:1037900089680131FFF7ACFCFFE702B080BD000093
:1037A00080B582B040F2A050C2F2000090F8200034
:1037B000C008C00780B9FFE741F20000C4F2010071
:1037C00001900121C0F20141FEF76CFA019848F224
:1037D0008001FEF753FA0EE040F2A051C2F2000160
:1037E00000910868C968FFF783FC00990868C969F7
:1037F000FFF76EFCFFE702B080BD000081B040F231
:10380000A050C2F20000006A0090009801B070471A
:1038100080B584B08DF80F00029140F2A051C2F241
:10382000000191F8200000F0FB0081F8200091F8E1
:10383000200000F0FD0081F820009DF80F2091F895
:10384000200002F0010200F0F70040EAC20081F817
:103850002000029808609DF80F00012803D1FFE7BF
:1038600002F09AFBFFE702F033FB5A2000F086F8E3
:1038700040F2A051C2F20001019191F8200040F005
:10388000010081F820009DF80F0002F0C5FD0198AD
:1038900000681021FFF754F9019800684FF4807117
:1038A000FFF74EF901980068FFF77CF9019800686E
:1038B000FFF782F904B080BD80B582B040F2A0501D
:1038C000C2F2000090F82000C008C00780B9FFE7EE
:1038D00041F20000C4F2010001900121C0F2014157
:1038E000FEF7E0F9019848F28001FEF7DBF90EE0FF
:1038F00040F2A051C2F2000100910868C969FFF7C7
:10390000F7FB00990868C968FFF7E2FBFFE702B020
:1039100080BD000080B582B08DF807009DF80700DB
:1039200040F2A051C2F2000191F82010C1F38001D1
:10393000884201D1FFE71FE09DF8072040F2A05127
:10394000C2F2000191F8200002F0010200F0FB0039
:1039500040EA820081F82000FFE740F2A050C2F266
:10396000000090F820004008C00728B1FFE700F0F1
:1039700069F800F04BF8FFE702B080BD80B582B077
:103980008DF807009DF807005B2804DBFFE75A204D
:103990008DF80700FFE79DF807003B2804DCFFE7F0
:1039A0003C208DF80700FFE79DF8071040F2A0507B
:1039B000C2F20000416090F82000C008C007B0B11A
:1039C000FFE740F2A051C2F200018868400846F2C9
:1039D000B702CBF20B62A0FB0220400900900098D6
:1039E0009DF80720504300900098C861FFE740F21F
:1039F000A050C2F2000090F820004008C00718B1A3
:103A0000FFE700F003F8FFE702B080BD80B540F2A9
:103A1000A050C2F2000090F820008008C00718B93A
:103A2000FFE7FFF7BDFE02E0FFF746FFFFE740F2CA
:103A3000A051C2F2000191F8200040F0020081F88C
:103A4000200080BD80B540F2A050C2F2000090F886
:103A500020004008C00768B1FFE7FFF777FE40F29B
:103A6000A051C2F2000191F8200000F0FD0081F8A1
:103A70002000FFE780BD000010B598B000200F9037
:103A8000179016901590149013901290119010208A
:103A9000FDF7D2FD2020FDF7CFFD04200C90FDF7AF
:103AA000CBFD08200790FDF7C7FD41F20000C4F2EE
:103AB0000100039040F20771C0F20241FEF7D4F812
:103AC00040F60040C4F2010002904FF6FF71C0F2D0
:103AD0001F410191FEF7C8F840F60000C4F2010052
:103AE0000B901121C0F21141FEF7BEF841F20040E7
:103AF000C4F20100069040F204410591FEF7B4F8CB
:103B0000039843F63801C0F20841FEF7C1F80B985C
:103B100041F21771FEF7BCF803980F9943F63F7214
:103B2000C0F20A42119201220992129202220892D4
:103B30001392149111A90491FDF770FF0499089B49
:103B4000DDF824C00F9A0B9841F2177EC0F2114E97
:103B5000CDF844E0CDF848C013931492FDF75EFF12
:103B60000499089BDDF824C00F9ADDF804E0029860
:103B7000CDF844E0CDF848C013931492FDF74EFF02
:103B800004990C9A03981423C0F2144311931292CF
:103B9000FDF744FF0499089BDDF824C00F9ADDF877
:103BA00014E00698CDF844E0CDF848C01393149281
:103BB000FDF734FF0F984FF07041FDF713FF0F989A
:103BC0000221CFF20001FDF70DFF0F980321CFF284
:103BD0000001FDF707FF079B0898099A0F991693B4
:103BE0008DF85C208DF85D108DF85E0016A80A90A7
:103BF000FDF7E6FD099A0F990A984FF400631693B2
:103C00008DF85C208DF85D1003218DF85E10FDF7B6
:103C1000D7FD09990F9A0A984FF4004316938DF82F
:103C20005C108DF85D208DF85E10FDF7C9FD0C9AD3
:103C30000B9840F60801FEF73FF80B980C9A082104
:103C4000C0F20841FEF738F80B980C9A8021C0F2B8
:103C50008041FEF731F801F04FFB0F9A0E210E91D3
:103C600000F0FEF9014609200D9001F07FFB0D9850
:103C700001F0DAFA01F040FB0E990F9A00F0F0F92A
:103C800001462820109001F071FB109801F0CCFA49
:103C900018B010BD80B588B0002003900790069042
:103CA0008DF81600ADF81400FEF7C8F84FF000606C
:103CB000FDF77AFCFEF7D6F801F026FB039A0F21F8
:103CC00000F004FA01460320019001F071FB019815
:103CD00001F0C2FA4FF0FF300290069042F6000069
:103CE000C4F20000049006A9FEF7A2FA0299049813
:103CF000FEF72EFB039904980C228DF814208DF802
:103D000015108DF81610012105AAFEF767FB08B003
:103D100080BD000080B596B00CA805902821FCF766
:103D200075FA002004900B900A9009900890079073
:103D30004FF48050FDF792FC04200090FDF78EFCBC
:103D400004984AF2A00107910921089103210991E1
:103D50000A9040F60000C4F20100029007A9019108
:103D6000FDF75CFE009A0199029844F24003079324
:103D70000892FDF753FE01F0CFFA049A114600F0C5
:103D8000DBF901462320039001F034FB039801F096
:103D90007BFA049805990C904FF482720D920E9064
:103DA0000F9010904FF400721192202212921390F3
:103DB00014900A20159043F20000C4F2010006900E
:103DC000FEF75CFC0698FEF74FFC16B080BD0000C5
:103DD00080B596B00CA805902821FCF717FA0020B2
:103DE00004900B900A900990089007904FF480403F
:103DF000FDF7ECFB0820FDF731FC0498A021C0F290
:103E0000A041079109210891032109910A9040F6E8
:103E10000040C4F20100029007A90191FDF7FEFDE8
:103E2000019902984022C0F240420792042208926F
:103E3000FDF7F4FD01F070FA049A114600F07CF9E8
:103E400001462420039001F0D5FA039801F01CFAF2
:103E5000049805990C904FF482720D920E900F9079
:103E600010904FF4007211921290139014900A2047
:103E7000159043F60000C4F200000690FEF7FEFB2A
:103E80000698FEF7F1FB16B080BD000080B596B035
:103E900000200390159014901390129011901090A0
:103EA0000F900E900D900C900B900A900990089036
:103EB000079006900590049002200290FDF798FB71
:103EC0000398ADF8440012904FF6FF7113911490CF
:103ED00040F20040C4F20000019011A9FEF780FEFC
:103EE0000198FEF737FE019801210091FFF74AF88B
:103EF00000990198039A602309930A920B920C92FD
:103F00000D9209AAFFF798F800990198FEF786FF2D
:103F100001980399FFF738F90198FEF72FFE10205A
:103F2000FDF7AEFB0299039844F240020492092285
:103F300005920691079041F20000C4F2010004A925
:103F4000FDF76CFDFDF736FD16B080BD80B592B073
:103F500000200490119010900F900E900D900C90F6
:103F60000B900A9009900890079006904FF48040BB
:103F7000FDF798FB04200190FDF794FB04980221C3
:103F8000C0F202410691092107910321089109908D
:103F900040F60000C4F20100039006A90291FDF76B
:103FA0003DFD019A029903980423C0F2044306934D
:103FB0000792FDF733FD04984FF4E1310B910C901B
:103FC0000D900E900C210F911090119043F600006F
:103FD000C4F2010005900BA9FFF71CF90598FFF743
:103FE00001F90598FFF70CF912B080BDFFE7FEE775
:103FF000FFE7FEE788B0079006910592079800F06A
:10400000070004900498C0F10700052803D3FFE7D8
:104010000420019004E00498C0F107000190FFE73C
:104020000198039004980430062803D8FFE7002085
:10403000009003E0049803380090FFE70098029096
:1040400006980399012202FA01F101390840029B06
:10405000984005999A40013A1140084308B07047CA
:1040600088B0079006910592079800F00700049029
:104070000498C0F10700052803D3FFE7042001904E
:1040800004E00498C0F107000190FFE70198039055
:1040900004980430062803D8FFE70020009003E0CE
:1040A000049803380090FFE700980290069803995F
:1040B000012202FA01F101390840029B984005995A
:1040C0009A40013A1140084308B0704788B0079001
:1040D00006910592079800F0070004900498C0F13B
:1040E0000700052803D3FFE70420019004E00498AB
:1040F000C0F107000190FFE7019803900498043095
:10410000062803D8FFE70020009003E00498033856
:104110000090FFE70098029006980399012202FAA6
:1041200001F101390840029B984005999A40013AF3
:104130001140084308B0704788B007900691059277
:10414000079800F0070004900498C0F107000528C4
:1041500003D3FFE70420019004E00498C0F10700B6
:104160000190FFE70198039004980430062803D8D3
:10417000FFE70020009003E0049803380090FFE779
:104180000098029006980399012202FA01F1013980
:104190000840029B984005999A40013A1140084313
:1041A00008B0704780B586B005900491059842F636
:1041B0000041C4F20101884225D0FFE7059843F28F
:1041C0000041C4F2010188421DD0FFE70598B0F11B
:1041D000804F18D0FFE7059840F20041C4F200017B
:1041E000884210D0FFE7059840F60001C4F20001B4
:1041F000884208D0FFE7059840F60041C4F200016C
:10420000884201D1FFE708E045F2DC20C0F601005A
:1042100040F2FF2101F050F9FFE70498006818B35D
:10422000FFE70498006810281ED0FFE70498006894
:10423000202819D0FFE704980068302814D0FFE741
:104240000498006840280FD0FFE7049800685028C1
:104250000AD0FFE704980068602805D0FFE70498BB
:104260000068702801D1FFE708E045F2DC20C0F6C5
:1042700001004FF4407101F01FF9FFE70498406816
:1042800028B1FFE704984068012801D1FFE708E062
:1042900045F2DC20C0F6010040F2013101F00CF9DA
:1042A000FFE70498006928B1FFE704980069022835
:1042B00001D1FFE708E045F2DC20C0F6010040F242
:1042C000023101F0F9F8FFE70498806828B1FFE7B0
:1042D00004988068012801D1FFE708E045F2DC205E
:1042E000C0F6010040F2033101F0E6F8FFE7049860
:1042F000406928B1FFE704984069022801D1FFE72F
:1043000008E045F2DC20C0F601004FF4417101F0F5
:10431000D3F8FFE70599086A20F0010008620598C4
:10432000006A0290059840680190059880690390A2
:10433000039820F003000390039820F07000049984
:10434000096808430390029820F002000499096963
:1043500008430290029820F001000499496808433C
:104360000290059842F60041C4F20101884208D04B
:10437000FFE7059843F20041C4F20101884248D1A9
:10438000FFE70498C06930B1FFE70498C069B0F551
:10439000807F01D1FFE708E045F2DC20C0F6010094
:1043A0004FF4487101F088F8FFE70498806930B154
:1043B000FFE704988069B0F5807F01D1FFE708E04E
:1043C00045F2DC20C0F6010040F2213101F074F822
:1043D000FFE7029820F008000499496940EA81004B
:1043E0000290029820F004000499896840EA810054
:1043F0000290019820F48070049989690843019023
:10440000019820F400700499C96940EA41000190C4
:10441000FFE7019805994860039805998861059818
:104420000499C968FEF744FE0298059908620020C5
:1044300006B080BD80B586B005900491059842F61F
:104440000041C4F20101884225D0FFE7059843F2FC
:104450000041C4F2010188421DD0FFE70598B0F188
:10446000804F18D0FFE7059840F20041C4F20001E8
:10447000884210D0FFE7059840F60001C4F2000121
:10448000884208D0FFE7059840F60041C4F20001D9
:10449000884201D1FFE708E045F2DC20C0F60100C8
:1044A00040F24E3101F008F8FFE70498006818B3B5
:1044B000FFE70498006810281ED0FFE70498006802
:1044C000202819D0FFE704980068302814D0FFE7AF
:1044D0000498006840280FD0FFE70498006850282F
:1044E0000AD0FFE704980068602805D0FFE7049829
:1044F0000068702801D1FFE708E045F2DC20C0F633
:10450000010040F24F3100F0D7FFFFE70498406808
:1045100028B1FFE704984068012801D1FFE708E0CF
:1045200045F2DC20C0F601004FF4547100F0C4FFE6
:10453000FFE70498006928B1FFE7049800690228A2
:1045400001D1FFE708E045F2DC20C0F6010040F2AF
:10455000513100F0B1FFFFE70498806828B1FFE710
:1045600004988068012801D1FFE708E045F2DC20CB
:10457000C0F6010040F2523100F09EFFFFE70498C0
:10458000406928B1FFE704984069022801D1FFE79C
:1045900008E045F2DC20C0F6010040F2533100F0A3
:1045A0008BFFFFE70599086A20F010000862059864
:1045B000006A029005984068019005988069039010
:1045C000039820F440700390039820F4E04004998D
:1045D000096840EA01200390029820F02000049925
:1045E000096940EA01100290029820F01000049935
:1045F000496840EA01100290059842F60041C4F271
:104600000101884208D0FFE7059843F20041C4F257
:104610000101884249D1FFE70498C06930B1FFE742
:104620000498C069B0F5807F01D1FFE708E045F24A
:10463000DC20C0F6010040F26F3100F03DFFFFE7E3
:104640000498806930B1FFE704988069B0F5807FF5
:1046500001D1FFE708E045F2DC20C0F601004FF48D
:104660005C7100F029FFFFE7029820F080000499B8
:10467000496940EA81100290029820F040000499B4
:10468000896840EA81100290019820F480600499C2
:10469000896940EA81000190019820F40060049942
:1046A000C96940EAC1000190FFE701980599486097
:1046B00003980599886105980499C968FEF700FD7B
:1046C000029805990862002006B080BD80B586B0CA
:1046D00005900491059842F60041C4F20101884218
:1046E00025D0FFE7059843F20041C4F2010188425A
:1046F0001DD0FFE70598B0F1804F18D0FFE705986F
:1047000040F20041C4F20001884210D0FFE7059852
:1047100040F60001C4F20001884208D0FFE7059886
:1047200040F60041C4F20001884201D1FFE708E0F1
:1047300045F2DC20C0F6010040F29D3100F0BCFEE5
:10474000FFE70498006818B3FFE704980068102892
:104750001ED0FFE704980068202819D0FFE70498CE
:104760000068302814D0FFE70498006840280FD074
:10477000FFE70498006850280AD0FFE70498006813
:10478000602805D0FFE704980068702801D1FFE792
:1047900008E045F2DC20C0F6010040F29E3100F056
:1047A0008BFEFFE70498406828B1FFE70498406853
:1047B000012801D1FFE708E045F2DC20C0F6010046
:1047C00040F29F3100F078FEFFE70498006928B1BD
:1047D000FFE704980069022801D1FFE708E045F2ED
:1047E000DC20C0F601004FF4687100F065FEFFE7C1
:1047F0000498806828B1FFE704988068012801D1F7
:10480000FFE708E045F2DC20C0F6010040F2A131EC
:1048100000F052FEFFE70498406928B1FFE70498D2
:104820004069022801D1FFE708E045F2DC20C0F62C
:10483000010040F2A23100F03FFEFFE70599086A4F
:1048400020F4807008620598006A0290059840681C
:1048500001900598C0690390039820F0030003902D
:10486000039820F0700004990968084303900298A7
:1048700020F400700499096940EA0120029002982E
:1048800020F480700499496840EA0120029005985C
:1048900042F60041C4F20101884208D0FFE70598C2
:1048A00043F20041C4F20101884249D1FFE7049874
:1048B000C06930B1FFE70498C069B0F5807F01D1CD
:1048C000FFE708E045F2DC20C0F6010040F2BE310F
:1048D00000F0F2FDFFE70498806930B1FFE704982B
:1048E0008069B0F5807F01D1FFE708E045F2DC2068
:1048F000C0F6010040F2BF3100F0DEFDFFE7029894
:1049000020F400600499496940EA812002900298ED
:1049100020F480600499896840EA8120029001981F
:1049200020F480500499896940EA011001900198AF
:1049300020F400500499C96940EA41100190FFE752
:1049400001980599486003980599C86105980499EC
:10495000C968FEF7C5FB029805990862002006B0F9
:1049600080BD000080B586B005900491059842F6A0
:104970000041C4F20101884225D0FFE7059843F2C7
:104980000041C4F2010188421DD0FFE70598B0F153
:10499000804F18D0FFE7059840F20041C4F20001B3
:1049A000884210D0FFE7059840F60001C4F20001EC
:1049B000884208D0FFE7059840F60041C4F20001A4
:1049C000884201D1FFE708E045F2DC20C0F6010093
:1049D0004FF47B7100F070FDFFE70498006818B396
:1049E000FFE70498006810281ED0FFE704980068CD
:1049F000202819D0FFE704980068302814D0FFE77A
:104A00000498006840280FD0FFE7049800685028F9
:104A10000AD0FFE704980068602805D0FFE70498F3
:104A20000068702801D1FFE708E045F2DC20C0F6FD
:104A3000010040F2ED3100F03FFDFFE704984068CF
:104A400028B1FFE704984068012801D1FFE708E09A
:104A500045F2DC20C0F6010040F2EE3100F02CFD02
:104A6000FFE70498006928B1FFE70498006902286D
:104A700001D1FFE708E045F2DC20C0F6010040F27A
:104A8000EF3100F019FDFFE70498406928B1FFE716
:104A900004984069022801D1FFE708E045F2DC20D4
:104AA000C0F601004FF47C7100F006FDFFE70498AA
:104AB000806828B1FFE704988068012801D1FFE7EA
:104AC00008E045F2DC20C0F6010040F2F13100F0D0
:104AD000F3FCFFE70599086A20F480500862059806
:104AE000006A02900598406801900598C06903909B
:104AF000039820F440700390039820F4E040049958
:104B0000096840EA01200390029820F400500499BB
:104B1000096940EA01300290029820F4805004991B
:104B2000496840EA01300290059842F60041C4F21B
:104B30000101884208D0FFE7059843F20041C4F222
:104B40000101884231D1FFE70498C06930B1FFE725
:104B50000498C069B0F5807F01D1FFE708E045F215
:104B6000DC20C0F6010040F20D4100F0A5FCFFE79B
:104B70000498806930B1FFE704988069B0F5807FC0
:104B800001D1FFE708E045F2DC20C0F6010040F269
:104B90000E4100F091FCFFE7019820F48040049959
:104BA000896940EA81100190FFE701980599486002
:104BB00003980599C86105980499C968FEF7A0FA99
:104BC000029805990862002006B080BD40F284502A
:104BD000C2F200000068704780B582B0019040F2D8
:104BE0008450C2F2000000680199884207D1FFE7B3
:104BF00040F2D551C2F200010220087022E0019873
:104C000040F28851C2F20001086040F28450C2F2C2
:104C1000000000680199884204D2FFE70120FEF7F6
:104C200079FE03E00020FEF775FEFFE75A20FEF74D
:104C3000A5FE40F2D551C2F2000101200870FEF736
:104C4000E5FEFFE702B080BD80B540F28451C2F2BC
:104C5000000100200860012043F20041C4F201017C
:104C6000FEF7D6FD80BD000080B582B040F2D35182
:104C7000C2F200010120087000200190FEF7BEFD85
:104C800000909DF800008008C00780B1FFE740F267
:104C90008451C2F2000108680130086040F2885077
:104CA000C2F2000000680968401A01900FE040F26B
:104CB0008450C2F20000016801390160006840F2CE
:104CC0008851C2F200010968401A0190FFE701987B
:104CD000132806D8FFE75020FEF750FEFEF796FE99
:104CE000FFE7019848B9FFE7FEF7ACFE40F2D55167
:104CF000C2F20001022008701EE040F28450C2F2AD
:104D00000000006840B1FFE740F28450C2F20000AA
:104D10000068013048B9FFE7FEF794FE40F2D55134
:104D2000C2F2000100200870FFE740F2D351C2F246
:104D3000000101200870FFE702B080BD704700004D
:104D400080B582B0019001980090FDF79FF8014670
:104D50000098C9B20A0946F25B41C0F60001895CBD
:104D6000C84002B080BD000080B582B001900198BB
:104D70000090FDF793F8014600980A0A46F26B414D
:104D8000C0F60001895CC84002B080BD80B582B029
:104D9000019001980090FDF789F801460098CA0A31
:104DA00046F26B41C0F60001895CC84002B080BD8C
:104DB00080B582B000200190FDF790F80146009187
:104DC00040B1FFE7009804280AD0FFE700980828C0
:104DD0000CD00FE041F20020C0F27A0001900FE009
:104DE00041F20020C0F27A00019009E000F00CF8D6
:104DF000019005E041F20020C0F27A000190FFE747
:104E0000019802B080BD000080B584B000200390FE
:104E10000290FDF7C9F802900298019028B1FFE7CF
:104E20000198B0F5803F06D010E040F60010C0F2C7
:104E30003D00039010E0FDF7C7F8411C41F200204F
:104E4000C0F27A00B0FBF1F0039005E040F60010EC
:104E5000C0F23D000390FFE703980090FDF7ACF827
:104E600002460098022101EB9241484304B080BD04
:104E7000704700007047000040F29751C2F20001F5
:104E800008780130087070477047000080B582B024
:104E9000ADF80600ADF80410ADF80220ADF8003012
:104EA00040F28800C2F200000068C06988B1FFE7E4
:104EB00040F28800C2F200000068D0F81CC0BDF8C3
:104EC0000600BDF80410BDF80220BDF80030E04730
:104ED000FFE702B080BD000080B540F2D850C2F2BA
:104EE0000000006840B1FFE740F2D851C2F2000173
:104EF000086801380860FFE740F21020C2F20000A5
:104F0000016801310160006847F6D501C2F2E9612C
:104F100048434FEAB00041F26E21C0F2830188425B
:104F20000AD8FFE740F60000C4F201001021C0F2E9
:104F30001041FCF73FFFFFE780BD000080B582B065
:104F40000220FCF729FDFFE7FCF71EFD022801D037
:104F5000FFE7F9E7FCF7E6FFFFE7FCF7EDFF0128C5
:104F600001D0FFE7F9E7FCF75FFFFCF7A7FFB0F51B
:104F7000807F05D0FFE7FCF77FFFFDF735F8FFE7FF
:104F8000FCF7E2FFFFE7FCF7E9FF012801D0FFE7AC
:104F9000F9E7FCF793FFB0F5807F05D0FFE74FF40A
:104FA0008070FDF755F8FFE7FCF752FF4FF48030B3
:104FB0004FF4E011FCF7DAFFFCF7ECFFFFE7FDF739
:104FC0000BF8012801D0FFE7F9E700200190FDF779
:104FD00015F84FF48060FDF71FF80198FDF72AF8E7
:104FE0000220FDF743F8FFE7FCF770FF082801D027
:104FF000FFE7F9E74AF20020C0F24A400090FCF7D0
:10500000EDFE0098FDF7B2FC02B080BD70470000D5
:1050100081B00090FFE70098411E009108B1FFE7C2
:10502000F9E701B07047000080B582B040F20B2074
:10503000C2F20000007848B9FFE700F04BF840F2F8
:105040000B21C2F2000101200870FFE740F20C10B2
:10505000C4F22120006820B1FFE700208DF807008E
:1050600003E001208DF80700FFE79DF8070002B07C
:1050700080BD000080B582B040F29011C4F22121C1
:10508000009100200860902000F0A2F800F068F87D
:105090000099ADF8060001200860BDF80600C008C0
:1050A00002B080BD80B582B040F29011C4F22121DF
:1050B000009100200860D02000F08AF800F050F83D
:1050C0000099ADF8060001200860BDF80600C00890
:1050D00002B080BD41F21801C4F20201086840F03C
:1050E0000400086040F29011C4F221210120086000
:1050F00040F29411C4F22121086040F29C11C4F2E4
:105100002121086040F60002C4F201021168042364
:1051100063F30F31116011684FF0030C6CF313410E
:10512000116011684FF00B0C6CF31751116011688E
:105130006CF31F711160116863F31B61116040F221
:105140003031C4F24221086043F20001C4F201018F
:1051500040F267300860086840F04000086070471F
:1051600080B582B043F20C01C4F201010020087046
:105170000220FFF74DFFFFE740F21C10C4F226208B
:10518000006808B1FFE7F7E743F20C01C4F2010140
:1051900008788DF80700002008700220FFF738FF1C
:1051A000FFE740F21C10C4F22620006808B1FFE7B8
:1051B000F7E743F20C00C4F2010000788DF8060016
:1051C0009DF807109DF8060040EA012002B080BD5E
:1051D00080B582B08DF807009DF8070043F20C01FE
:1051E000C4F2010108700220FFF712FFFFE740F24E
:1051F0001C10C4F22620006808B1FFE7F7E743F26D
:105200000C00C4F2010000788DF8070002B080BDE8
:10521000FFE7FEE7FFE740F20010C2F2000000687F
:1052200008B1FFE7F7E7704781B08DF803009DF9FB
:10523000030000280ED4FFE79DF9031001F01F02C0
:10524000012090404A094EF20011CEF2000141F8CF
:105250002200FFE701B0704781B08DF803009DF98F
:10526000030000280ED4FFE79DF9031001F01F0290
:10527000012090404A094EF20011CEF2000141F89F
:105280002200FFE701B0704781B08DF803009DF95F
:10529000030000280ED4FFE79DF9031001F01F0260
:1052A000012090404A094EF20011CEF2000141F86F
:1052B0002200FFE701B0704781B08DF803009DF92F
:1052C000030000280ED4FFE79DF9031001F01F0230
:1052D000012090404A094EF20011CEF2000141F83F
:1052E0002200FFE701B070474EF60C50CEF20000EE
:1052F0000068C0F3022070474EF60C50CEF200005A
:105300000068C0F3022070474EF60C50CEF2000049
:105310000068C0F3022070474EF60C50CEF2000039
:105320000068C0F30220704782B08DF8070000913A
:105330009DF9070000280AD4FFE7009800019DF9B5
:1053400007104EF20042CEF2000288540BE00098A3
:1053500000019DF8071001F00F014EF61452CEF235
:1053600000028854FFE702B07047000082B08DF859
:10537000070000919DF9070000280AD4FFE7009874
:1053800000019DF907104EF20042CEF2000288544F
:105390000BE0009800019DF8071001F00F014EF698
:1053A0001452CEF200028854FFE702B070470000AA
:1053B00082B08DF8070000919DF9070000280AD4FB
:1053C000FFE7009800019DF907104EF20042CEF26F
:1053D000000288540BE0009800019DF8071001F0CE
:1053E0000F014EF61452CEF200028854FFE702B0CD
:1053F0007047000082B08DF8070000919DF907000A
:1054000000280AD4FFE7009800019DF907104EF22A
:105410000042CEF2000288540BE0009800019DF893
:10542000071001F00F014EF61452CEF2000288541C
:10543000FFE702B07047000082B08DF807000091CE
:105440009DF9070000280AD4FFE7009800019DF9A4
:1054500007104EF20042CEF2000288540BE0009892
:1054600000019DF8071001F00F014EF61452CEF224
:1054700000028854FFE702B07047000083B002903A
:10548000029800F0070000904EF60C51CEF2000199
:105490000868019001984FF6FF02104001900198B2
:1054A000009A40EA02200022C0F2FA521043019012
:1054B0000198086003B0704782B00190009102B07B
:1054C0007047000080B50020FBF730FC1020FBF790
:1054D00083FE80BD80B51120FBF77EFE0120FBF727
:1054E00025FC80BD80B584B0ADF80E00ADF80C1081
:1054F00002920298D0F8020000900298D0F80A00B8
:10550000019000980199401A400800900199029872
:10551000084402900299009A2C20FBF79BFE04B0ED
:1055200080BD000080B582B0ADF80600ADF8041073
:10553000ADF80220ADF800302A20FBF74DFE9DF8B3
:105540000500FBF7E1FE9DF80400FBF7DDFEBDF86A
:105550000400BDF8001008440138C0F30720FBF731
:10556000D3FEBDF80400BDF8001008440138C0B2F5
:10557000FBF7CAFE2B20FBF72FFE9DF80300FBF77D
:10558000C3FE9DF80200FBF7BFFE9DF80300FBF78A
:10559000BBFE9DF80200FBF7B7FEBDF80610BDF894
:1055A00000202C20FBF732FE02B080BD80B582B017
:1055B000DDF810C0ADF80600ADF80410ADF802201B
:1055C000ADF80030BDF80600BDF80410BDF80220AB
:1055D000BDF8003000F094FA0499BDF80200BDF85F
:1055E000002042432C20FBF735FE02B080BD0000B6
:1055F00080B582B0ADF80600ADF80410ADF8022019
:10560000ADF800302A20FBF7E7FD9DF80500FBF719
:105610007BFE9DF80400FBF777FE9DF80500FBF785
:1056200073FE9DF80400FBF76FFE2B20FBF7D4FD03
:105630009DF80300FBF768FE9DF80200FBF764FE8F
:10564000BDF80200BDF8001008440138C0F307207F
:10565000FBF75AFEBDF80200BDF8001008440138FF
:10566000C0B2FBF751FEBDF80610BDF800202C209B
:10567000FBF7CCFD02B080BD80B584B084460698AF
:10568000ADF80EC0ADF80C10ADF80A20ADF808303A
:10569000ADF806002A20FBF79FFD9DF80F00FBF7F1
:1056A00033FE9DF80E00FBF72FFEBDF80E00BDF88F
:1056B0000A1008440138C0F30720FBF725FEBDF8A7
:1056C0000E00BDF80A1008440138C0B2FBF71CFEFA
:1056D0002B20FBF781FD9DF80D00FBF715FE9DF8D3
:1056E0000C00FBF711FEBDF80C00BDF808100844D3
:1056F0000138C0F30720FBF707FEBDF80C00BDF82A
:10570000081008440138C0B2FBF7FEFDBDF80610D2
:10571000BDF80A00BDF8082042432C20FBF776FDB7
:1057200004B080BD4FF4A070704700004FF4F070DB
:105730007047000080B586B040F2FC00C2F2000065
:105740000078C007C8B9FFE740F2FC00C2F20000D1
:10575000017841F00101017000788007002803D42E
:10576000FFE7FBF707FBFFE740F2FC01C2F2000195
:10577000087840F002000870FFE70A200090FBF76D
:10578000CDFA1120FBF728FD0098FBF7C7FA46F287
:105790005441C0F600010291B42001220492FBF7AB
:1057A00079FD05200590FBF7B9FA049A45F26131BD
:1057B000C0F60101C120FBF76DFD0598FBF7AEFABD
:1057C00046F25641C0F60001C5200422FBF762FDF7
:1057D0000598FBF7A3FA48F61F61C0F60001E02028
:1057E0000F220192FBF756FD0598FBF797FA019AF5
:1057F00048F62F61C0F60001E120FBF74BFD05984C
:10580000FBF78CFA049A45F26531C0F601013A20A3
:105810000390FBF73FFD0598FBF780FA0299049A85
:10582000B020FBF737FD0598FBF778FA0398049A48
:1058300045F26331C0F60101FBF72CFD0598FBF73B
:105840006DFA3620FBF7C8FCE820FBF75DFD0598F4
:10585000FBF764FA1320FBF7BFFC0598FBF75EFA31
:105860002020FBF7B9FC7820FBF758FA2920FBF73A
:10587000B3FC06B080BD000080B582B0002000906F
:10588000D320694603220123FBF72EFB009849F23F
:105890000041C0F28601884205D1FFE749F2864007
:1058A000ADF8060003E00020ADF80600FFE7BDF804
:1058B000060002B080BD000080B584B0ADF80E00D7
:1058C000ADF80C1045F26531C0F601013A200090A8
:1058D00001220192FBF7DEFC2A20FBF77DFC9DF8FC
:1058E0000F00FBF711FD9DF80E00FBF70DFD9DF875
:1058F0000F00FBF709FD9DF80E00FBF705FD2B20BF
:10590000FBF76AFC9DF80D00FBF7FEFC9DF80C0010
:10591000FBF7FAFC9DF80D00FBF7F6FC9DF80C0078
:10592000FBF7F2FC019B2E200DF10A011A46FBF752
:10593000B7FA0098019A45F26331C0F60101FBF70E
:10594000A9FCBDF80A0004B080BD000080B584B099
:10595000DDF818C0ADF80E00ADF80C10ADF80A2057
:10596000ADF80830BDF80E00BDF80C10BDF80A20E7
:10597000BDF8083000F0C4F845F26531C0F6010109
:105980003A20009001220192FBF784FC019B0699CA
:10599000BDF80A00BDF8082042432E20FBF780FA2C
:1059A0000098019A45F26331C0F60101FBF772FCE1
:1059B00004B080BD80B582B0ADF80600ADF804102B
:1059C000ADF80220BDF8040040F28E51C2F2000191
:1059D000C98888420AD1FFE7BDF8020040F28E5123
:1059E000C2F200014988884218D0FFE7BDF80400E0
:1059F00040F28E51C2F20001C880BDF8020021F8C9
:105A0000020FBDF80400BDF802201044C0F5F0708C
:105A1000488033200322FBF71DFCFFE740F28E5045
:105A2000C2F200008188BDF9062092FBF1F000FB74
:105A30001120ADF80600BDF90600B0F1FF3F0DDC06
:105A4000FFE740F28E51C2F200018888BDF80620BF
:105A5000104449880844ADF806000AE0BDF8060085
:105A600040F28E51C2F2000149880844ADF80600A8
:105A7000FFE7BDF9060040F28E51C2F2000109882D
:105A800088420DD0FFE7BDF8061040F28E50C2F2FA
:105A900000000180018837200122FBF7B7FBFFE7F8
:105AA00002B080BD80B582B0ADF80600ADF804103C
:105AB0002A20FBF791FB9DF80700FBF725FC9DF8DA
:105AC0000600FBF721FC9DF80700FBF71DFC9DF885
:105AD0000600FBF719FC2B20FBF77EFB9DF8050069
