:020000040800F2
:1000000090060020D5010008212200087105000893
:100010001D22000809050008AD25000800000000A9
:10002000000000000000000000000000CD240008D7
:100030006D0500080000000069230008D1240008B5
:10004000EF010008EF010008EF010008EF010008D0
:10005000EF010008EF010008EF010008EF010008C0
:10006000EF010008EF010008EF010008EF010008B0
:100070000D050008110500081505000841050008D8
:10008000EF010008EF010008EF010008EF01000890
:10009000EF010008EF010008EF010008EF01000880
:1000A000EF010008EF010008EF010008EF01000870
:1000B000EF010008EF010008EF010008EF01000860
:1000C000EF010008EF010008EF0100089D2400087F
:1000D000AD240008EF010008EF010008EF0100085F
:1000E000EF010008EF010008EF010008EF01000830
:1000F000EF010008EF010008EF010008EF01000820
:10010000EF010008EF010008EF010008EF0100080F
:10011000EF010008EF010008EF010008EF010008FF
:10012000EF010008EF010008EF010008EF010008EF
:1001300000F002F800F03EF80AA090E8000C8244BB
:100140008344AAF10107DA4501D100F033F8AFF298
:10015000090EBAE80F0013F0010F18BFFB1A43F0A5
:1001600001031847B4380000D4380000103A24BF07
:1001700078C878C1FAD8520724BF30C830C144BF0C
:1001800004680C607047000000230024002500264E
:10019000103A28BF78C1FBD8520728BF30C148BFEA
:1001A0000B6070471FB59DE8030000F0CFF81FBD3E
:1001B00010B510BD00F026F91146FFF7F3FF02F06D
:1001C000FDFE00F044F903B4FFF7F2FF03BC00F0BA
:1001D00075F900000948804709480047FEE7FEE737
:1001E000FEE7FEE7FEE7FEE7FEE7FEE7FEE7FEE7E7
:1001F00004480549054A064B70470000A925000838
:10020000310100089000002090060020900200209C
:100210009002002070B5064600F07CF8056806F1F3
:100220000B0020F00704B4429CBF002070BD2B4699
:100230006A68BAB11068A04210D304F1080188427C
:100240003CBF5068586007D351681019416011686D
:10025000091B016058601460101D70BD1346526880
:10026000002AE7D12146284600F05CF80028DED1BC
:1002700070BD70B50446051F00F04CF80068002CF6
:1002800014BF446870BD002C18BFAC423CBF204670
:100290006468F8D301680A18AA4218BF456003D100
:1002A0002A6805461144016028684119A1421CBF13
:1002B0006C6070BD6168696021680844286070BD29
:1002C0004FF0000200B5134694469646203922BFEF
:1002D000A0E80C50A0E80C50B1F12001BFF4F7AF3A
:1002E000090728BFA0E80C5048BF0CC05DF804EB1C
:1002F000890028BF40F8042B08BF704748BF20F88A
:10030000022B11F0804F18BF00F8012B7047704787
:1003100070477047004870471000002070477047D2
:100320007047704738B504460A4600206946AFF367
:100330000080002808BF38BD02460099204600F022
:100340003FF8012038BD012000F054B8F8B5AFF3F4
:100350000080054600200C46102000BF0646A81964
:10036000A0420DD9324669460020AFF30080070055
:1003700008BF00F03FF80098A04218BF0546C41916
:10038000FFF7C8FF05600746F01D20F0070046197B
:10039000284600F00AF8B44208BFF8BDA21B314657
:1003A0003868BDE8F84000F00BB800210160C0E9F2
:1003B0000110704710207047004870470800002067
:1003C000034640688C46002818BF88423CBF03465D
:1003D0004068F8D318681844884207D00CF103002D
:1003E00020F00700001D411A521A0146081D0A603C
:1003F000FFF73FBF10B500F039F8BDE8104000F03E
:100400002FB870477546FFF7D7FFAE46050069461F
:10041000534620F00700854618B020B5FFF7E8FEE8
:10042000BDE820404FF000064FF000074FF00008F5
:100430004FF0000BAC46ACE8C009ACE8C009ACE832
:10044000C009ACE8C00921F007018D46704710B51E
:100450000446AFF300802046BDE81040FFF7B3BE6E
:10046000002801D000F02AB87047000010B501281C
:1004700005D0002103A000F027F8012010BD09A13C
:10048000F8E7000053494752544D454D3A204F7507
:1004900074206F662068656170206D656D6F72797C
:1004A000000000003A2048656170206D656D6F7234
:1004B0007920636F72727570746564000149182049
:1004C000ABBEFEE72600020070B505460C460A20CA
:1004D00000E06D1C00F011F835B128780028F8D143
:1004E00002E0641C00F009F814B120780028F8D16B
:1004F000BDE870400A20AFF3008008B569468DF86A
:1005000000000320ABBE08BDFFE7FEE77047000018
:100510007047000080B582B002F0C2FF0190002059
:10052000C4F20200009000F013F9009800F020F9E6
:10053000009800F02DF9009800F03AF902B080BD63
:1005400080B582B002F0ACFF01900020C4F202003E
:10055000009000F005F9009800F012F9009800F002
:100560001FF9009800F02CF902B080BD7047000020
:10057000FFE7FEE780B584B08DF80F008DF80E1010
:100580000DF10F00029000208DF804009DF80E0080
:100590006946086001A8012319461A4602F0A4FD25
:1005A000FFE79DF80400022801D0FFE7F9E704B057
:1005B00080BD000080B584B08DF80F008DF80E105E
:1005C0000DF10F00029000208DF804009DF80E0040
:1005D0006946086001A802220123194602F084FD41
:1005E000FFE79DF80400022801D0FFE7F9E704B017
:1005F00080BD000082B00190019A41F21400C4F263
:1006000002000168114301600068019908400090F0
:10061000009802B07047000082B00190019A41F248
:100620001C00C4F2020001681143016000680199D6
:1006300008400090009802B07047000082B001901E
:10064000019A41F21C00C4F20200016811430160EA
:100650000068019908400090009802B070470000BF
:1006600081B00090009A41F21001C4F202010868C2
:100670001043086001B0704781B00090009A41F2C9
:100680001001C4F2020108689043086001B070478D
:1006900082B00190019A41F21800C4F20200016890
:1006A000114301600068019908400090009802B071
:1006B0007047000082B00190019A41F21800C4F224
:1006C0000200016811430160006801990840009030
:1006D000009802B07047000082B00190019A41F288
:1006E0001800C4F20200016811430160006801991A
:1006F00008400090009802B07047000082B001905E
:10070000019A41F21800C4F202000168114301602D
:100710000068019908400090009802B070470000FE
:1007200081B00090009A41F20C01C4F20201086805
:100730001043086001B0704781B00090009A41F208
:100740000C01C4F2020108689043086001B07047D0
:1007500081B0009000994FF48050486001B070471C
:1007600081B0009000994FF48030486001B070472C
:1007700081B0009000994FF48040486001B070470C
:1007800081B0009000994FF48020486001B070471C
:1007900081B0009000994FF40050486001B070475C
:1007A00081B0009000994FF40030486001B070476C
:1007B00081B0009000994FF40040486001B070474C
:1007C00081B0009000994FF40020486001B070475C
:1007D00083B00290019100920298019943F62F1381
:1007E000C0F60003194411F8011C405847F6F07197
:1007F0008843009908430299019A1A4412F8012C7F
:10080000885003B07047000082B0019000910199B8
:10081000009843F62F12C0F60002104410F8012C85
:10082000885820F00100885002B0704782B00190D3
:1008300000910199009843F62F12C0F6000210446F
:1008400010F8012C885820F00400885002B070473E
:1008500082B0019000910199009843F62F12C0F6E2
:100860000002104410F8012C885820F00200885033
:1008700002B0704782B0019000910199009843F650
:100880002F12C0F60002104410F8012C885820F0F6
:100890000800885002B0704782B001900091019921
:1008A000009843F62F12C0F60002104410F8012CF5
:1008B000885840F00100885002B0704782B0019023
:1008C00000910199009843F62F12C0F600021044DF
:1008D00010F8012C885840F00200885002B0704790
:1008E00082B0019000910199009843F62F12C0F652
:1008F0000002104410F8012C885840F0080088507D
:1009000002B0704783B00290019100920298019961
:1009100043F62813C0F60003194411F8011C40588F
:1009200020F44050009908430299019A1A4412F8A1
:10093000012C885003B0704783B00290019100925F
:100940000298019943F62F13C0F60003194411F8D9
:10095000011C084440684FF6FF7188430099084322
:100960000299019A1A4412F8012C1144486003B00C
:100970007047000083B002900191009202980199A3
:1009800043F62813C0F60003194411F8011C40581F
:1009900044F210018843009908430299019A1A44CD
:1009A00012F8012C885003B07047000083B0029009
:1009B0000191009200980299019A43F62F13C0F614
:1009C00000031A4412F8012C1144C86003B07047A8
:1009D00083B00290019100920298019943F6281386
:1009E000C0F60003194411F8011C405820F08000A3
:1009F000009908430299019A1A4412F8012C885070
:100A000003B0704783B0029001910092029801995F
:100A100043F62813C0F60003194411F8011C40588E
:100A200020F44060009908430299019A1A4412F890
:100A3000012C885003B0704783B00290019100925E
:100A40000298019943F62813C0F60003194411F8DF
:100A5000011C405820F02000009908430299019A97
:100A60001A4412F8012C885003B0704783B00290EA
:100A70000191009200980299019A43F62F13C0F653
:100A800000031A4412F8012C1144886003B0704727
:100A900083B00290019100920298019943F62813C5
:100AA000C0F60003194411F8011C405820F0400022
:100AB000009908430299019A1A4412F8012C8850AF
:100AC00003B0704783B0029001910092029801999F
:100AD00043F62813C0F60003194411F8011C4058CE
:100AE00020F44070009908430299019A1A4412F8C0
:100AF000012C885003B0704781B00090009A40F2FA
:100B00000441C4F2010108689043086001B07047D5
:100B100081B00090009A40F20C41C4F201010868D3
:100B20009043086001B0704781B00090009A40F295
:100B30000041C4F2010108689043086001B07047A9
:100B400081B00090009A40F20841C4F201010868A7
:100B50009043086001B0704781B00090009A40F265
:100B60000441C4F2010108681043086001B07047F5
:100B700081B00090009A40F20C41C4F20101086873
:100B80001043086001B0704781B00090009A40F2B5
:100B90000041C4F2010108681043086001B07047C9
:100BA00081B00090009A40F20841C4F20101086847
:100BB0001043086001B0704780B584B003900020F6
:100BC0008DF80B0003984088C00808B9FFE707E0DC
:100BD00043F66E10C0F600006E2101F0B5FDFFE790
:100BE0000398007928B1FFE703980079012801D123
:100BF000FFE707E043F66E10C0F600006F2101F03A
:100C0000A3FDFFE70398407950B1FFE703984079CF
:100C1000012805D0FFE703984079022801D1FFE7BA
:100C200007E043F66E10C0F60000702101F08CFD65
:100C3000FFE703980079002800F08480FFE703981D
:100C4000807978B1FFE70398807901280AD0FFE71F
:100C500003988079022805D0FFE70398807903285C
:100C600001D1FFE707E043F66E10C0F600007521E2
:100C700001F06AFDFFE703980068002861D0FFE7F4
:100C8000039840790146019140B1FFE7019801289E
:100C90000DD0FFE70198022812D01AE003980068EF
:100CA000FFF72AFF03980068FFF76EFF15E003982F
:100CB0000068FFF739FF03980068FFF74DFF0CE06D
:100CC00003980068FFF760FF03980068FFF744FF90
:100CD00003E001208DF80B00FFE70398807978B3DB
:100CE000FFE70398807901460091012808D0FFE7CB
:100CF000009802280DD0FFE70098032812D01AE0D0
:100D000003980068FFF704FF03980068FFF748FFA7
:100D100015E003980068FFF713FF03980068FFF7DA
:100D200027FF0CE003980068FFF73AFF039800687C
:100D3000FFF71EFF03E001208DF80B00FFE7FFE740
:100D4000FFE708E003980068FFF7EEFE03980068ED
:100D5000FFF7D2FEFFE79DF80B0004B080BD000056
:100D600042F20000C4F20200006800F00700704781
:100D700081B0009042F20001C4F20201086820F044
:100D80000700009A1043086001B070470421C4F2C4
:100D90000101086820F0E0600860086840F0007019
:100DA0000860704782B0019000919DF80000082112
:100DB000C4F2010151F82000009A4FEA124C20EAD7
:100DC0001240019B9CFAACFCBCFA8CFC03FA0CF3BD
:100DD0001843D2B241F8220002B0704780B586B005
:100DE00005900491059840F60001C4F20101884283
:100DF00030D0FFE7059840F60041C4F20101884277
:100E000028D0FFE7059841F20001C4F201018842B1
:100E100020D0FFE7059841F20041C4F20101884269
:100E200018D0FFE7059841F60001C4F2010188429D
:100E300010D0FFE7059841F60041C4F20101884255
:100E400008D0FFE7059842F20001C4F20101884290
:100E500001D1FFE707E043F63610C0F60000A321FA
:100E600001F072FCFFE7049800686FF07B410842D4
:100E700007D0FFE70498C07810F0FB0F01D1FFE71F
:100E800007E043F63610C0F60000A42101F05CFC38
:100E9000FFE704980068C0F30F200390039890FACE
:100EA000A0F0B0FA80F00290FFE703980299C840E2
:100EB000002800F0A880FFE703980299C840C00707
:100EC000002800F09C80FFE70298072806D8FFE77B
:100ED000029940F201108840019009E00298A0F1C7
:100EE00008014FF00110884040F080600190FFE75A
:100EF00004984068082819D1FFE70498006928B1D0
:100F0000FFE704980069012801D1FFE707E043F6F5
:100F10003610C0F60000BF2101F016FCFFE705986F
:100F20000199049A126900F0F1F8FFE7049840680B
:100F3000A0B1FFE70498406804280FD0FFE70498A9
:100F4000406808280AD0FFE704984068012805D0C7
:100F5000FFE704984068092801D1FFE707E043F65E
:100F60003610C0F60000C62101F0EEFBFFE7059841
:100F70000199049A526800F095F804984068012895
:100F800005D0FFE704984068092837D1FFE70498A7
:100F9000806802280AD0FFE704988068012805D0FD
:100FA000FFE704988068032801D1FFE707E043F6D4
:100FB0003610C0F60000CE2101F0C6FBFFE7049812
:100FC000C06828B1FFE70498C068042801D1FFE792
:100FD00007E043F63610C0F60000CF2101F0B4FB65
:100FE000FFE705980199049A926800F0A5F8059822
:100FF0000199049AD26800F06FF8FFE7FFE70298C2
:101000000130029051E7002006B080BD82B001900F
:101010000091BDF801000199486102B070470000DD
:1010200082B001900091BDF801000199486102B0C1
:101030007047000082B001900091BDF80100019955
:10104000086102B07047000082B001900091BDF8C5
:1010500001000199086102B07047000082B0019060
:101060000091BDF801000199086102B070470000CD
:1010700084B003900291019203989DF80B100844EC
:10108000009000990868029A92FAA2F2B2FA82F2EB
:1010900093000F229A409043019A9A4010430860AF
:1010A00004B0704784B003900291019203989DF8B8
:1010B0000B100844009000990868029A92FAA2F274
:1010C000B2FA82F293000F229A409043019A9A401A
:1010D0001043086004B0704784B0039002910192FD
:1010E00003989DF80B100844009000990868029A34
:1010F00092FAA2F2B2FA82F2930004229A4090434A
:10110000019A9A401043086004B0704783B002907F
:10111000019100920298C06801990A0A20EA112000
:10112000009992FAA2F2B2FA82F29140084302992F
:10113000C86003B07047000084B003900291019230
:1011400003989DF80B100844009000990868029AD3
:1011500092FAA2F2B2FA82F2930003229A409043EA
:10116000019A9A401043086004B0704781B0009023
:1011700000996FF07B400860009904204860009A55
:10118000022191600099C86000990020086101B0B7
:101190007047000084B0039002910398C0680190EA
:1011A000BDF809000090019A009802EA00019043FE
:1011B00040EA01400399086104B0704780B582B0ED
:1011C000019001984FF47A7100F002F802B080BDEE
:1011D00082B00190009101980099B0FBF1F00138C4
:1011E0004EF21401CEF2000108604EF21801CEF268
:1011F0000001002008604EF21001CEF2000105202F
:10120000086002B07047000047F20001C4F200011C
:10121000086840F4807008607047000041F22001C7
:10122000C4F20201086840F4004008607047000002
:1012300041F20400C4F20200006800F0F0007047C0
:1012400041F20400C4F20200006800F4E06070475C
:1012500041F20400C4F20200006800F460507047DC
:1012600041F20400C4F20200006800F00C00704774
:1012700041F20400C4F20200006800F00C00704764
:1012800080B582B0019001F0A9F801990860019839
:10129000006801F06BF8019948600198406801F01E
:1012A00079F8019988600198406801F085F8019902
:1012B000C86002B080BD000041F20001C4F202012A
:1012C000086840F4803008607047000041F2000078
:1012D000C4F202000068C0F34040704782B0019041
:1012E000009141F20401C4F20201086820F47C106C
:1012F000019A02F44032009B1A431043086002B086
:101300007047000041F20001C4F20201086840F099
:10131000807008607047000041F20400C4F20200CF
:10132000006800F48030704741F20400C4F202000B
:10133000006800F47010704741F20400C4F202002B
:101340000068C0F34040704741F20000C4F2020060
:101350000068C0F34060704781B0009041F2040122
:10136000C4F20201086820F0F000009A10430860FF
:1013700001B0704781B0009041F20401C4F2020153
:10138000086820F4E060009A1043086001B07047DC
:1013900081B0009041F20401C4F20201086820F417
:1013A0006050009A1043086001B0704781B000900F
:1013B00041F20401C4F20201086820F00300009A1F
:1013C0001043086001B0704781B0009000980C3065
:1013D00001B0704780B586B0059001208DF81300EC
:1013E000059843F20001C4F20101884210D0FFE7E2
:1013F000059843F60001C4F20001884208D0FFE7D7
:10140000059843F60041C4F20001884201D1FFE78C
:1014100007E043F6A610C0F60000802101F094F921
:10142000FFE7059843F20001C4F2010188420CD1A4
:10143000FFE74FF480500390FFF772F90398FFF72E
:101440007BF900208DF81300FFE7059843F60001B3
:10145000C4F2000188420CD1FFE74FF480400290B3
:10146000FFF7FEF80298FFF707F900208DF8130048
:10147000FFE7059843F60041C4F2000188420CD111
:10148000FFE74FF400400190FFF7EAF80198FFF7FB
:10149000F3F800208DF81300FFE79DF8130006B065
:1014A00080BD000081B000900099486820F00100E4
:1014B000486001B07047000081B000900099486812
:1014C00020F00200486001B07047000081B0009039
:1014D0000099486820F02000486001B07047000083
:1014E00081B000900099486820F04000486001B049
:1014F0007047000081B000900099486820F04000DB
:10150000486001B07047000081B0009000994868C1
:1015100020F08000486001B07047000081B000906A
:101520000099486820F08000486001B070470000D2
:1015300081B000900099086840F04000086001B058
:101540007047000081B000900099486840F00100A9
:10155000486001B07047000081B000900099486871
:1015600040F00200486001B07047000081B0009078
:101570000099486840F04000486001B070470000A2
:1015800081B000900099486840F08000486001B048
:101590007047000080B584B00390029101208DF85F
:1015A0000700039843F20001C4F20101884210D001
:1015B000FFE7039843F60001C4F20001884208D017
:1015C000FFE7039843F60041C4F20001884201D1CD
:1015D000FFE707E043F6A610C0F60000B72101F0D0
:1015E000B3F8FFE70298006890B1FFE7029800683F
:1015F000B0F5806F0CD0FFE702980068B0F5004F9F
:1016000006D0FFE702980068B0F5404F01D1FFE730
:1016100007E043F6A610C0F60000BA2101F094F8E6
:10162000FFE702984068B0F5827F04D0FFE7029898
:10163000406808B9FFE707E043F6A610C0F60000CF
:10164000BB2101F081F8FFE70298806830B1FFE725
:1016500002988068B0F5006F01D1FFE707E043F61C
:10166000A610C0F60000BC2101F06EF8FFE702985A
:10167000C06828B1FFE70298C068022801D1FFE7DF
:1016800007E043F6A610C0F60000BD2101F05CF8AB
:10169000FFE70298006928B1FFE702980069012876
:1016A00001D1FFE707E043F6A610C0F60000BE2117
:1016B00001F04AF8FFE702984069B0F5007F0AD0D0
:1016C000FFE70298406930B1FFE702984069B0F542
:1016D000802F01D1FFE707E043F6A610C0F6000017
:1016E000BF2101F031F8FFE70298806918B3FFE7E6
:1016F0000298806908281ED0FFE7029880691028A8
:1017000019D0FFE702988069182814D0FFE70298E3
:10171000806920280FD0FFE70298806928280AD026
:10172000FFE702988069302805D0FFE702988069BA
:10173000382801D1FFE707E043F6A610C0F6000005
:10174000C02101F001F8FFE70298C069802804D0A9
:10175000FFE70298C06908B9FFE707E043F6A61063
:10176000C0F60000C12100F0EFFFFFE70298006A19
:10177000B0F5005F04D0FFE70298006A08B9FFE700
:1017800007E043F6A610C0F60000C22100F0DCFF1F
:10179000FFE7039800F062F8002845D1FFE70398BF
:1017A00000684FF6BF718843029A00921168D2F820
:1017B00004E0D2F808C0D36841EA0E0141EA0C0106
:1017C0001943136919435369194393691943D36939
:1017D0001943126A1143084303990860039840684B
:1017E00020F004000299C98A0843039948600298CE
:1017F000006AB0F5005F13D1FFE70298406A08B1B4
:10180000FFE707E043F6A610C0F60000E52100F070
:101810009BFFFFE703980299496A00F03DF8FFE754
:1018200000208DF80700FFE70399C86920F40060E5
:10183000C8619DF8070004B080BD000081B0009031
:101840000098806800F0010001B0704781B00090FE
:1018500000988068C0F3400001B0704781B00090EC
:1018600000980068C0F3801001B0704781B000900C
:1018700000984068C0F3801001B0704781B00090BC
:1018800000984068C0B2C00901B0704781B00090B4
:101890000098007B01B0704782B001900091BDF8C4
:1018A00000000199086102B07047000083B0029007
:1018B0008DF8071002980C3000909DF807000099F1
:1018C000087003B0704700004EF21001CEF2000124
:1018D000086840F0020008607047000081B0009086
:1018E000009840F20001C2F20001086001B07047A8
:1018F00081B000900099086920F490400861009937
:10190000486920F02A00486101B0704781B000901A
:101910000099C86840F40050C86001B070470000EA
:1019200080B588B00790069101208DF8170000203F
:101930000490079843F60001C4F20101884220D0C8
:10194000FFE7079844F20041C4F20001884218D032
:10195000FFE7079844F60001C4F20001884210D066
:10196000FFE7079844F60041C4F20001884208D01E
:10197000FFE7079845F20001C4F20001884201D157
:10198000FFE707E043F6DD10C0F60000CE2100F0CF
:10199000DBFEFFE7069800684AF62021C0F244010A
:1019A000884201D8FFE707E043F6DD10C0F60000EB
:1019B000CF2100F0C9FEFFE70698406830B1FFE78D
:1019C00006984068B0F5805F01D1FFE707E043F675
:1019D000DD10C0F60000D02100F0B6FEFFE706984B
:1019E0008068B0F5805F10D0FFE70698806860B12E
:1019F000FFE706988068B0F5405F06D0FFE70698DD
:101A00008068B0F5005F01D1FFE707E043F6DD1025
:101A1000C0F60000D12100F097FEFFE70698C068ED
:101A200060B1FFE70698C068B0F5806F06D0FFE7A9
:101A30000698C068B0F5C06F01D1FFE707E043F634
:101A4000DD10C0F60000D22100F07EFEFFE7069810
:101A5000006978B1FFE70698006904280AD0FFE71B
:101A600006980069082805D0FFE7069800690C2849
:101A700001D1FFE707E043F6DD10C0F60000D321F7
:101A800000F062FEFFE70698406990B1FFE7069814
:101A90004069B0F5807F0CD0FFE706984069B0F54B
:101AA000007F06D0FFE706984069B0F5407F01D17E
:101AB000FFE707E043F6DD10C0F60000D42100F098
:101AC00043FEFFE7079800F07FF8002878D1FFE792
:101AD0000798C06841F20C618843069A5168D36840
:101AE00012691943114308430799C860079806997A
:101AF000896800F0A7F807980699496900F094F8FA
:101B00006846FFF7BDFB079843F60001C4F20101E8
:101B1000884203D1FFE70398049030E0079844F22D
:101B20000041C4F20001884203D1FFE7029804900B
:101B300024E0079844F60001C4F20001884203D172
:101B4000FFE70298049018E0079844F60041C4F2B9
:101B50000001884203D1FFE7029804900CE0079847
:101B600045F20001C4F20001884203D1FFE7029868
:101B7000049000E0FFE7FFE7FFE7FFE7FFE70498D7
:101B8000E8B1FFE706980068C8B1FFE700208DF8CC
:101B9000170007980499069A126800F01DF8079834
:101BA0008068102801D3FFE708E043F6DD10C0F697
:101BB00000004FF49B7100F0C7FDFFE7FFE7FFE770
:101BC0009DF8170008B080BD81B000900098C068F3
:101BD000C0F3403001B0704783B002900191009291
:101BE00001981921484300998900B0FBF1F348F2AC
:101BF0001F51C5F2EB11A3FB01204209642002FB37
:101C00001033322000EB0310A0FB0101F02000EAAA
:101C1000511000EB0210C1F34311084480B2029945
:101C2000886003B07047000082B001900091019875
:101C3000406920F44070009908430199486102B05E
:101C40007047000082B0019000910198006920F473
:101C50004050009908430199086102B070470000A4
:101C600082B001904EF21000CEF2000000680090A9
:101C700000980198013020B1FFE7019801300190F0
:101C8000FFE7FFE7019870B1FFE74EF21000CEF2D8
:101C900000000068C003002804D5FFE70198013860
:101CA0000190FFE7EEE702B07047000080B586B014
:101CB0000120FEF79FFC00F0B3FC002204921146C5
:101CC00000F0E6FA01460C20019000F0DBFC0198E0
:101CD00000F06EFC00F0A4FC049A114600F0D8FA63
:101CE00001460D20029000F0CDFC029800F060FC4F
:101CF00000F096FC049A114600F0CAFA01460E2044
:101D0000039000F0BFFC039800F052FC00F088FC48
:101D1000049A114600F0BCFA01460F20059000F02D
:101D2000B1FC059800F044FC06B080BD10B596B03B
:101D300000200A901590149013901290119010901A
:101D40000F901020FEF7B6FC2020FEF7B3FC042015
:101D50000E90FEF7AFFC08200990FEF7ABFC41F2B5
:101D60000000C4F2010004904BF6BF71C0F20B41B9
:101D70000091FFF74BF940F60000C4F201000D900E
:101D800041F21771C0F211410191FFF73FF940F69E
:101D90000040C4F2010003904FF6FF71C0F21F41F2
:101DA0000291FFF733F941F20040C4F201000890BC
:101DB00040F204410791FFF729F9009A04980A9923
:101DC0000F9201220B92109202220592119212910F
:101DD0000FA90691FFF702F8059B06990A9ADDF80C
:101DE0002CC0DDF804E00D98CDF83CE0CDF840C003
:101DF00011931292FEF7F2FF059B06990A9ADDF8FD
:101E00002CC0DDF808E00398CDF83CE0CDF840C0E8
:101E100011931292FEF7E2FF06990E9A0D9808238D
:101E2000C0F208430F931092FEF7D8FF06990E9A5E
:101E300004981423C0F214430F931092FEF7CEFFC0
:101E4000059B06990A9ADDF82CC0DDF81CE008987D
:101E5000CDF83CE0CDF840C011931292FEF7BEFFE2
:101E60000A984FF07041FEF79DFF0A980321CFF2C8
:101E70000001FEF797FF099A0A990B9814928DF8C2
:101E800054008DF855108DF8560014A80C90FEF7EC
:101E900093FE0A9A0B990C984FF4004314938DF813
:101EA00054108DF855208DF85610FEF785FE0E9AC9
:101EB0000D9840F60801FFF7DBF80D980E9A802187
:101EC000C0F28041FFF7D4F816B010BD80B59CB0C9
:101ED00012A80B902821FEF7F3F900200A90119028
:101EE00010900F900E900D904FF48050FEF7F4FB81
:101EF00004200190FEF7F0FB0A984AF2A0010D9130
:101F000009210E91032104910F91109040F60000D9
:101F1000C4F2010003900DA90291FEF75FFF019A40
:101F20000299039844F240030D930E92FEF756FF78
:101F300004990020C4F2020007901022FEF71AFD57
:101F4000049907984FF400520592FEF7DBFC0499C0
:101F500007980A9AFEF770FD049907980A9AFEF707
:101F600097FD0499079880220692FEF731FD0499A7
:101F700007980A9AFEF7A6FD049907980A9AFEF7B1
:101F800041FD07980A9A02210891FEF7F3FC059A91
:101F900007980899FEF7B6FC079808990A9AFEF781
:101FA0004BFD079808990A9AFEF772FD069A079862
:101FB0000899FEF70DFD079808990A9AFEF782FD29
:101FC000079808990A9AFEF71DFD00F031FB0A9A5E
:101FD000114600F093F901462320099000F074FBAC
:101FE000099800F0FDFA0A980B9912904FF482724A
:101FF00013921490159016904FF4007217920822C5
:10200000189219901A900A201B9043F20000C4F213
:1020100001000C90FFF7BEFA0C98FFF789FA1CB08C
:1020200080BD000080B59AB010A809902821FEF765
:1020300047F9002008900F900E900D900C900B9097
:102040004FF48040FEF7FAFA0820FEF745FB0898A7
:10205000A021C0F2A0410B9109210C9103210D9107
:102060000E9040F60040C4F2010001900BA90091CF
:10207000FEF7B4FE009901984022C0F240420B9254
:10208000042202920C92FEF7A9FE0299089A0020FF
:10209000C4F202000590FEF76DFC029905984FF41A
:1020A00000520392FEF72EFC02990598089AFEF75B
:1020B000C3FC02990598089AFEF7EAFC0299059874
:1020C00080220492FEF784FC02990598089AFEF794
:1020D000F9FC02990598089AFEF794FC05980521E9
:1020E00006911022FEF746FC039A05980699FEF722
:1020F00009FC05980699089AFEF79EFC0598069932
:10210000089AFEF7C5FC049A05980699FEF760FC4C
:1021100005980699089AFEF7D5FC05980699089A3D
:10212000FEF770FC00F084FA089A114600F0E6F819
:1021300001462420079000F0C7FA079800F050FAF3
:102140000898099910904FF482721192129013908E
:1021500014904FF4007215921690179018900A2060
:10216000199043F60000C4F200000A90FFF712FA3B
:102170000A98FFF7DDF91AB080BD000080B592B073
:1021800000200490119010900F900E900D900C90E4
:102190000B900A9009900890079006904FF48040A9
:1021A000FEF7ACFA04200190FEF7A8FA0498022189
:1021B000C0F202410691092107910321089109907B
:1021C00040F60000C4F20100039006A90291FEF758
:1021D00005FE019A029903980423C0F20443069372
:1021E0000792FEF7FBFD04984FF4E1310B910C9040
:1021F0000D900E900C210F911090119043F600005D
:10220000C4F2010005900BA9FFF78AFB0598FFF7C0
:102210006FFB0598FFF77AFB12B080BDFFE7FEE782
:10222000FFE7FEE788B0079006910592079800F057
:10223000070004900498C0F10700052803D3FFE7C6
:102240000420019004E00498C0F107000190FFE72A
:102250000198039004980430062803D8FFE7002073
:10226000009003E0049803380090FFE70098029084
:1022700006980399012202FA01F101390840029BF4
:10228000984005999A40013A1140084308B07047B8
:1022900088B0079006910592079800F00700049017
:1022A0000498C0F10700052803D3FFE7042001903C
:1022B00004E00498C0F107000190FFE70198039043
:1022C00004980430062803D8FFE70020009003E0BC
:1022D000049803380090FFE700980290069803994D
:1022E000012202FA01F101390840029B9840059948
:1022F0009A40013A1140084308B0704788B00790EF
:1023000006910592079800F0070004900498C0F128
:102310000700052803D3FFE70420019004E0049898
:10232000C0F107000190FFE7019803900498043082
:10233000062803D8FFE70020009003E00498033844
:102340000090FFE70098029006980399012202FA94
:1023500001F101390840029B984005999A40013AE1
:102360001140084308B070477047000080B582B044
:10237000019001980090FEF75BFF01460098C9B2FA
:102380000A0943F61011C0F60001895CC84002B08A
:1023900080BD000080B582B0019001980090FEF7EA
:1023A0004FFF014600980A0A43F62011C0F60001CB
:1023B000895CC84002B080BD80B582B001900198B0
:1023C0000090FEF745FF01460098CA0A43F6201127
:1023D000C0F60001895CC84002B080BD80B582B003
:1023E00000200190FEF744FF0146009140B1FFE755
:1023F000009804280AD0FFE7009808280CD00FE0C6
:1024000041F20020C0F27A0001900FE041F200207A
:10241000C0F27A00019009E000F00CF8019005E0AC
:1024200041F20020C0F27A000190FFE7019802B06B
:1024300080BD000080B584B0002003900290FEF7BC
:102440006BFF02900298019028B1FFE70198B0F568
:10245000803F06D010E040F60010C0F23D0003902F
:1024600010E0FEF769FF411C41F20020C0F27A0043
:10247000B0FBF1F0039005E040F60010C0F23D0023
:102480000390FFE703980090FEF74EFF0246009886
:10249000022101EB9241484304B080BD80B543F274
:1024A0000000C4F2010000F053FF80BD80B540F28F
:1024B0008001C2F2000108780130087043F6000084
:1024C000C4F2000000F044FF80BD0000704700002F
:1024D00080B540F26800C2F200000168013101607D
:1024E000006847F6D501C2F2E96148434FEAB000FF
:1024F00041F26E21C0F2830188420AD8FFE740F61C
:102500000000C4F201001021C0F21041FEF742FEAB
:10251000FFE780BD80B582B00220FEF729FCFFE70F
:10252000FEF71EFC022801D0FFE7F9E7FEF7C4FE24
:10253000FFE7FEF7CBFE012801D0FFE7F9E7FEF742
:1025400063FEFEF76BFE4FF480304FF4E011FEF7B0
:10255000C5FEFEF7D7FEFFE7FEF7F6FE012801D025
:10256000FFE7F9E700200190FEF7F6FE4FF48060E8
:10257000FEF700FF0198FEF70BFF0220FEF716FFA3
:10258000FFE7FEF76DFE082801D0FFE7F9E74AF202
:102590000020C0F24A400090FEF710FE0098FFF7BE
:1025A0009DF902B080BD000070470000FFE7FEE724
:1025B00081B08DF803009DF9030000280ED4FFE7D9
:1025C0009DF9031001F01F02012090404A094EF2CC
:1025D0000011CEF2000141F82200FFE701B0704780
:1025E00081B08DF803009DF9030000280ED4FFE7A9
:1025F0009DF9031001F01F02012090404A094EF29C
:102600000011CEF2000141F82200FFE701B070474F
:102610004EF60C50CEF200000068C0F30220704766
:102620004EF60C50CEF200000068C0F30220704756
:102630004EF60C50CEF200000068C0F30220704746
:1026400082B08DF8070000919DF9070000280AD498
:10265000FFE7009800019DF907104EF20042CEF20C
:10266000000288540BE0009800019DF8071001F06B
:102670000F014EF61452CEF200028854FFE702B06A
:102680007047000082B08DF8070000919DF90700A7
:1026900000280AD4FFE7009800019DF907104EF2C8
:1026A0000042CEF2000288540BE0009800019DF831
:1026B000071001F00F014EF61452CEF200028854BA
:1026C000FFE702B07047000082B08DF8070000916C
:1026D0009DF9070000280AD4FFE7009800019DF942
:1026E00007104EF20042CEF2000288540BE0009830
:1026F00000019DF8071001F00F014EF61452CEF2C2
:1027000000028854FFE702B07047000083B00290D7
:10271000029800F0070000904EF60C51CEF2000136
:102720000868019001984FF6FF021040019001984F
:10273000009A40EA02200022C0F2FA5210430190AF
:102740000198086003B0704782B00190009102B018
:102750007047000080B584B002901820FDF75AFD44
:102760000190019818B9FFE7002003900CE002984F
:102770000199086001990020C86000F001FA0199F0
:10278000486001980390FFE7039804B080BD000003
:1027900080B58CB000200B900A90099008900790AB
:1027A00007A80590FEF7E2FC41F20000C4F2010028
:1027B000019043F230010091FEF728FC40F6000042
:1027C000C4F20100039040F207710291FEF71EFC73
:1027D00040F60040C4F2010006906FF07B41049186
:1027E000FEF714FC009A019805990792FEF7F6FA95
:1027F000029A059903980792FEF7F0FA049A059950
:1028000006980792FEF7EAFA0CB080BD80B586B054
:1028100000200590049003900290019001A8009080
:10282000FEF7A4FC009940F2E220C0F2E0400190E3
:1028300040F60040C4F20100FEF7D0FA06B080BDB9
:1028400080B540F60000C4F2010040F20221FEF71C
:10285000E7FB80BD83B0019040F27800C2F2000037
:1028600000680090009800680199884203D1FFE752
:102870000098029014E0FFE70098C06868B1FFE795
:102880000098C0680090009800680199884203D1C0
:10289000FFE70098029003E0EEE700200290FFE7D8
:1028A000029803B07047000080B584B0029040F2F7
:1028B0007800C2F20000006848B9FFE70298FFF70D
:1028C00049FF40F27801C2F20001086029E040F2BD
:1028D0007800C2F200000068019001980068029937
:1028E000884203D1FFE70198039021E0FFE70198B8
:1028F000C06868B1FFE70198C0680190019800685E
:102900000299884203D1FFE70198039010E0EEE7B7
:102910000298FFF71FFF0199C8600198C0680390F3
:1029200006E040F27800C2F2000000680390FFE782
:10293000039804B080BD000081B00090FFE70098CC
:10294000406820B1FFE7009808300090F7E7009852
:1029500001B0704780B586B040F27C00C2F2000042
:102960004078C008C00770B1FFE743F60000C4F22A
:1029700000000590FEF7AAFD0598FEF7BBFD05983F
:10298000FEF7CCFDFFE740F27C00C2F20000407889
:102990008008C00780B3FFE743F60000C4F20000E0
:1029A0000190FEF77FFD0198FEF786FD0020C4F23E
:1029B0000200039005210291FDF726FF03980421F0
:1029C0000491FDF721FF02990398FDF72FFF02996B
:1029D0000398FDF73DFF02990398FDF74BFF03981D
:1029E0000499FDF723FF03980499FDF731FF03983D
:1029F0000499FDF73FFFFFE740F28C01C2F20001AE
:102A0000087800F0F700087040F27C01C2F2000183
:102A1000487840F002004870487800F0FB004870A9
:102A2000487800F0F700487040F27000C2F20000F1
:102A3000006841680220087006B080BD80B58AB089
:102A400040F27000C2F200000068807A012835D19F
:102A5000FFE70020C4F2020007900521089141F22F
:102A60009002FDF7B5FE0798089940F27002C2F295
:102A70000002069212681289FDF75EFF069A079817
:102A80000899126852685268FDF790FF43F60000FB
:102A9000C4F20000FEF798FC089902460798FDF77B
:102AA000E5FF07980899FDF709FF07980899FDF7D2
:102AB00017FF07980899FDF7EFFE5FE00020C4F2CA
:102AC00002000490042101914FF48452FDF780FE2E
:102AD0000199049840F27002C2F200020292126858
:102AE0001289FDF729FF0199029A04981268526829
:102AF0005268FDF75BFF43F60000C4F2000003904C
:102B0000FEF762FC019902460498FDF7AFFF0199B8
:102B10000498FDF7D3FE01990498FDF7E1FE0199B1
:102B20000498FDF7B9FE04980521059141F21002C1
:102B3000FDF74EFE029A0498059912681289FDF776
:102B4000FBFE0498059940F20402C2F20002FDF770
:102B50002DFF0398FEF738FC059902460498FDF70F
:102B600085FF04980599FDF7A9FE04980599FDF7DE
:102B7000B7FE04980599FDF78FFEFFE70AB080BD08
:102B800080B582B00820FDF745FB0090009818B989
:102B9000FFE70020019007E00099002008600099FD
:102BA000486000980190FFE7019802B080BD0000E6
:102BB00010B590B0002005900F900E900D900C90E5
:102BC0000B9041F20000C4F20100029043F2300188
:102BD0000191FEF71BFA40F60000C4F201000A90D2
:102BE00040F207710691FEF711FA40F60040C4F278
:102BF000010009906FF07B410791FEF707FA019AF7
:102C0000029805990B92012203920C9202220492DF
:102C10000D920E910BA90891FEF7E0F8DDF80CC0BB
:102C2000049B059A0899DDF818E00A98CDF82CE085
:102C3000CDF830C00D930E92FEF7D0F8079A0899A0
:102C400009980B9208220C9203220D92FEF7C6F807
:102C50000A9840F20331FEF7F7F910B010BD0000FA
:102C600080B582B08DF807009DF80700012805D1D6
:102C7000FFE7FFF78DFDFFF7D5F90AE043F6000007
:102C8000C4F20000FEF7A6FBFFF7C0FDFFF790FFC0
:102C9000FFE702B080BD000080B58EB001200A9031
:102CA00000F034F90C9000F0CBFA0A99F120FDF70E
:102CB00081FC0A9936200990FDF75CFC0A990420F2
:102CC0000290FDF757FC0A9900200B90FDF752FC8B
:102CD0000A993C20FDF74EFC0A990F200390FDF75E
:102CE00049FC0A998F20FDF745FC0A99F220FDF76F
:102CF00061FC0A991820FDF73DFC0A99A320FDF715
:102D000039FC0A9912200090FDF734FC0A99022040
:102D1000FDF730FC0A99B220FDF72CFC00980A99C7
:102D2000FDF728FC0A99FF20FDF724FC0A991020E2
:102D30000790FDF71FFC0A990B98FDF71BFC0A99F9
:102D4000F820FDF737FC0A992120FDF713FC0298C3
:102D50000A99FDF70FFC0A99F920FDF72BFC0A9957
:102D60000B98FDF707FC0A9908200190FDF702FC7B
:102D700009980A99FDF71EFC01980A99FDF7FAFBDC
:102D80000A99B420FDF716FC0A990B98FDF7F2FB9F
:102D90000A99C120FDF70EFC0A9947200590FDF71E
:102DA000E9FB0A99C520FDF705FC0A990B98FDF788
:102DB000E1FB0A99AF20FDF7DDFB0A998020FDF7C2
:102DC000D9FB0A990B98FDF7D5FB0A99E020FDF78E
:102DD000F1FB03980A99FDF7CDFB0A991F20FDF737
:102DE000C9FB0A991C20FDF7C5FB0A990C20FDF7C9
:102DF000C1FB03980A99FDF7BDFB01980A99FDF7FD
:102E0000B9FB0A994820FDF7B5FB0A999820FDF710
:102E1000B1FB0A9937200690FDF7ACFB0A990A200E
:102E2000FDF7A8FB0A991320FDF7A4FB02980A9965
:102E3000FDF7A0FB0A9911200890FDF79BFB0A996A
:102E40000D200490FDF796FB0A990B98FDF792FB75
:102E50000A99E120FDF7AEFB03980A99FDF78AFB7A
:102E60000A993220FDF786FB0A992E20FDF782FB96
:102E70000A990B20FDF77EFB04980A99FDF77AFB6F
:102E80000A990520FDF776FB05980A99FDF772FB74
:102E90000A997520FDF76EFB06980A99FDF76AFB03
:102EA0000A990620FDF766FB07980A99FDF762FB71
:102EB0000A990320FDF75EFB0A992420FDF75AFBCF
:102EC0000A992020FDF756FB0A990B98FDF752FB53
:102ED0000A993A20FDF76EFB0A996620FDF74AFB36
:102EE00008980A99FDF766FB09980A99FDF762FBB5
:102EF0000A992820FDF73EFB7820FEF7B1FE0A99DB
:102F00002920FDF757FB0B980EB080BD80B584B02B
:102F10008DF80B00FFF734FE40F28401C2F200018D
:102F2000086040F27001C2F200010020086040F227
:102F30006C01C2F20001088040F27401C2F200018B
:102F4000087040F27C01C2F20001487800F0FB00FA
:102F50004870487800F0FE004870487800F0F700AC
:102F60004870487840F00200487040F28C01C2F28C
:102F700000010191087800F0F7000870087800F06F
:102F8000F9000870087800F0EF000870087840F049
:102F9000010008709DF80B20087802F0030200F091
:102FA000F90040EA420008709DF80B00FFF758FE58
:102FB000019800680390039804B080BD80B590B07C
:102FC00000200F9040F26801C2F200010860FFF794
:102FD000D7FD0E900A208DF837000F208DF83600AF
:102FE0000EA805900DF1370100F0F2F805980DF1EB
:102FF000360100F0EDF8059800F058F80146059804
:103000000C9100F053F80B900E9820B9FFE7FFF7F2
:10301000B7FD0E90FFE7FFF7B3FD0E900120019082
:10302000FDF736FB4FF08050FDF7F6FA0320FFF76F
:103030006DFBFFF7EDFA0F2100220292FFF7F2F885
:1030400001464FF0FF30FFF7FBFAFDF79FFEFFF759
:1030500061FAFEF76BFEFEF729FEFEF737FFFEF77B
:10306000E1FFFFF78BF8019902980A900990089008
:103070000790069044F240020392069207910221C3
:103080000891099041F20000C4F20100049006A9E1
:10309000FDF7A4FE03990498FDF7CCFFFEF714FC9E
:1030A00062B6FFF7F9FDFFE7FEE7000080B584B0E8
:1030B00002900298006818B9FFE70020039010E022
:1030C00002980068006801900298006800900299D8
:1030D0000868406808600098FDF7CBF801980390F5
:1030E000FFE7039804B080BD80B586B08446089899
:1030F000CDF810C08DF80F108DF80E208DF80D3022
:103100008DF80C0000208DF80B0040F28901C2F20E
:103110000001012008709DF80F0098B3FFE70C2014
:10312000FDF778F80190FFE7019820B9FFE700204C
:103130008DF8170048E0FFE79DF80E000199087030
:103140009DF80F00019908810498019948609DF845
:103150000D00019988729DF80C000199C872FFE773
:10316000019940F28400C2F2000000F031F820B969
:10317000FFE700208DF8170026E0FFE701208DF81B
:103180000B00FFE70498D0B1FFE740F27C00C2F2E9
:10319000000040784008C00788B1FFE740F289018D
:1031A000C2F200010220087043F2A141C0F6000102
:1031B00043F60000C4F2000000F05CF8FFE79DF861
:1031C0000B008DF81700FFE79DF8170006B080BDD3
:1031D00080B586B0049003910498006828B9FFE791
:1031E000FFF7CEFC04990860FFE70498006818B95F
:1031F000FFE70020059020E004980068006828B9E7
:10320000FFE7039804990968086012E00820FDF7B9
:1032100001F8029003980299086002990020486022
:1032200004980068FFF788FB0190029801994860B4
:10323000FFE7049800680590FFE7059806B080BD99
:1032400080B584B040F60000C4F20100019040F265
:1032500001110291FDF7E4FE0A200390FEF700FD44
:1032600001980299FDF7FAFE0398FEF7F9FC04B005
:1032700080BD000080B588B00690059140F28801BD
:10328000C2F200010291012008700698FFF70CFBC2
:103290000299049002200870FFE7049820B9FFE724
:1032A00000208DF81F003AE0FFE70498806830BBEB
:1032B000FFE70498007CC00708BBFFE70499087C7F
:1032C00040F00100087405980499886040F2880174
:1032D000C2F20001032008700499487D00F0FD004F
:1032E00048750499487D00F0FE00487504980190E7
:1032F0008068804701990390039848610BE040F291
:103300008801C2F200010420087004980430059975
:10331000FFF75EFFFFE701208DF81F00FFE79DF834
:103320001F0008B080BD000080B541F20000C4F26B
:10333000010042F22001FDF773FE80BD80B541F22D
:103340000000C4F2010042F22001FDF787FE80BDBB
:1033500080B588B0069040F27501C2F2000108788D
:103360000130087040F28801C2F2000105200870A7
:103370000698FFF76FFA0590FFE7059820B9FFE779
:1033800000208DF81F0086E0FFE70598407DC0070C
:1033900020B1FFE700208DF81F007CE00598407DFC
:1033A0004008C007002849D0FFE740F28801C2F278
:1033B00000010620087005980430FFF777FE059994
:1033C00088600598806828BBFFE70698FEF73EFAFC
:1033D00048B1FFE70698FEF751FA20B1FFE70698DB
:1033E000FEF792F8FFE70698FEF728FA48B1FFE7E4
:1033F0000698FEF73BFA20B1FFE70698FEF770F853
:10340000FFE70599087C00F0FE00087401208DF8A4
:103410001F0040E00599487D00F0FD00487540F22E
:103420008801C2F2000107200870059802908068A8
:103430008047029904900498486113E00599487DFB
:1034400000F0FD00487540F28801C2F2000108203A
:10345000087005980190806880470199039003984F
:103460004861FFE70598407D4008C00778B1FFE755
:1034700040F28801C2F20001082008700599087C1A
:1034800000F0FE0008740698FFF762FFFFE70120D6
:103490008DF81F00FFE79DF81F0008B080BD0000F9
:1034A00080B582B040F28A01C2F200010878013092
:1034B000087040F28901C2F200010320087040F256
:1034C0008C00C2F200000078C008C007A0BBFFE774
:1034D00000F01AF9E8B9FFE740F27000C2F200000C
:1034E000006848B1FFE740F27000C2F200000068D7
:1034F000416800200870FFE740F27C01C2F2000141
:10350000487840F001004870487840F00200487068
:10351000FFE740F28901C2F200010420087040F286
:103520008A00C2F20000017840F27C00C2F2000082
:1035300001700068019015E000F018F8FFE740F214
:103540008901C2F200010520087040F28A00C2F22F
:103550000000017840F27C00C2F2000001700068B7
:103560000190FFE7019802B080BD000080B584B0F3
:1035700040F28901C2F2000108200870EFF31080C8
:1035800072B6039040F27C00C2F200004078C0089E
:10359000C007002800F09280FFE740F27000C2F2FE
:1035A00000000068807A012843D1FFE740F26C00F8
:1035B000C2F20000008840F27001C2F20001096806
:1035C0000989884221DAFFE740F27000C2F2000068
:1035D00000684068406840F26C01C2F200010A884D
:1035E000805C8DF80B0008880130088040F289016A
:1035F000C2F20001092008709DF80B1043F600008C
:10360000C4F20000FEF752F912E040F28901C2F262
:1036100000010A200870FFF79DF940F28C01C2F208
:103620000001087800F0F700087000F06DF8FFE77F
:1036300043E043F60000C4F20000FEF727F98DF8DE
:103640000A009DF80A2040F27001C2F200010868E9
:103650004068436840F26C00C2F20000B0F800C05D
:1036600003F80C2002880132028000880968098969
:10367000884208DAFFE743F60000C4F20000FF21A9
:10368000FEF714F918E040F27000C2F20000006882
:10369000C07A01280CD1FFE740F28C01C2F2000190
:1036A000087800F0F7000870FFF7FAFE019002E0DA
:1036B000FFF750F9FFE7FFE7FFE7FFE740F27C0085
:1036C000C2F2000040788008C007C8B1FFE740F2AE
:1036D0007000C2F200000068C07A01280CD1FFE738
:1036E00040F28C01C2F20001087800F0F700087087
:1036F000FFF7D6FE009002E0FFF72CF9FFE7FFE7A7
:1037000062B6012004B080BD80B584B040F289016A
:10371000C2F200010620087040F28400C2F20000EC
:10372000FFF7C4FC40F27001C2F200010860FFE73D
:1037300040F27000C2F20000006820B9FFE70020EC
:103740008DF80F00E0E0FFE740F27C01C2F20001DB
:10375000487800F0FD00487040F28C01C2F2000190
:10376000087840F00800087040F27400C2F20000CF
:103770000121017040F26C02C2F2000200201080B0
:1037800040F27000C2F200000268526811700068D6
:10379000807A012869D1FFE7FFF752F840F2700004
:1037A000C2F2000000680078012803D1FFE7FFF7AC
:1037B000C5FDFFE740F27000C2F20000006800782B
:1037C000022803D1FFE7FFF7AFFDFFE740F28C00CF
:1037D000C2F200000078C0F34100012843D1FFE7A6
:1037E00040F27000C2F2000000680089042811DB7A
:1037F000FFE740F27C01C2F20001487840F004008B
:103800004870FFF71BF943F60000C4F20000FDF713
:10381000A3FE27E040F27C01C2F20001487840F0AC
:103820000800487040F26C01C2F2000108880130C3
:10383000088040F28901C2F200010720087040F2BE
:103840007000C2F20000006840684068017843F6EA
:103850000000C4F200000290FEF728F80298FDF77D
:103860008FFEFFE700E0FFE74AE040F27000C2F29F
:1038700000000068807A02283DD1FFE740F26C0129
:10388000C2F200010020088040F27000C2F2000085
:1038900000680089042815DBFFE7FFF7CFF843F63F
:1038A0000000C4F200000190FDF756FE0198FDF7FC
:1038B00049FE40F27C01C2F20001487840F0040069
:1038C000487017E043F60000C4F200000090FDF7D6
:1038D0004DFE009840F20401C2F200010978FDF7A4
:1038E000E5FF40F27C01C2F20001487840F0080098
:1038F0004870FFE703E000208DF80F0004E0FFE7C9
:1039000001208DF80F00FFE79DF80F0004B080BD87
:10391000000000000000000001020304060708097F
:103920000000000001020304081C3044586C8008A9
:103930001C3044586C802E2E2F4472697665727349
:103940002F53544D3332463178785F48414C5F44B1
:1039500072697665722F5372632F73746D3332669A
:103960003178785F6C6C5F6770696F2E63002E2E04
:103970002F447269766572732F53544D333246313A
:1039800078785F48414C5F4472697665722F537254
:10399000632F73746D3332663178785F6C6C5F655A
:1039A0007874692E63002E2E2F44726976657273C7
:1039B0002F53544D3332463178785F48414C5F4441
:1039C00072697665722F5372632F73746D3332662A
:1039D0003178785F6C6C5F7370692E63002E2E2FC8
:1039E000447269766572732F53544D333246317881
:1039F000785F48414C5F4472697665722F537263F9
:103A00002F73746D3332663178785F6C6C5F7573C9
:103A10006172742E63000000383A00080000002034
:103A2000080000006C010008403A0008080000206F
:103A300088060000880100080024F400AA000000A5
:0400000508000131BD
:00000001FF
