:020000040800F2
:10000000C81200200D020008FD3B00082510000862
:10001000F93B0008E50A0008095C00080000000040
:10002000000000000000000000000000555500081E
:10003000E90A000800000000D947000875560008CA
:100040002702000827020008270200080D490008BF
:1000500027020008270200082702000827020008DC
:1000600027020008BD0D000827020008270200082B
:1000700027020008270200082702000827020008BC
:1000800027020008270200082702000827020008AC
:10009000270200082702000827020008270200089C
:1000A000270200082702000827020008270200088C
:1000B000270200082702000827020008270200087C
:1000C00027020008270200082702000841550008FF
:1000D00045550008270200082702000827020008EB
:1000E000690D0008270200082702000827020008FF
:1000F000270200082702000827020008270200083C
:10010000270200082702000827020008270200082B
:10011000270200082702000827020008270200081B
:10012000270200082702000827020008270200080B
:1001300000F002F800F05AF80AA090E8000C82449F
:100140008344AAF10107DA4501D100F04FF8AFF27C
:10015000090EBAE80F0013F0010F18BFFB1A43F0A5
:1001600001031847089E0100289E01000A444FF031
:10017000000C10F8013B13F0070408BF10F8014B06
:100180001D1108BF10F8015B641E05D010F8016B4B
:10019000641E01F8016BF9D113F0080F1EBF10F8AF
:1001A000014BAD1C0C1B09D16D1E58BF01F801CBD2
:1001B000FAD505E014F8016B01F8016B6D1EF9D555
:1001C0009142D6D37047000000230024002500266A
:1001D000103A28BF78C1FBD8520728BF30C148BFAA
:1001E0000B6070471FB51FBD10B510BD00F05DF866
:1001F0001146FFF7F7FF06F0DBFD00F07BF803B4D4
:10020000FFF7F2FF03BC00F07FF8000009488047C9
:1002100009480047FEE7FEE7FEE7FEE7FEE7FEE7E8
:10022000FEE7FEE7FEE7FEE704480549054A064B00
:1002300070470000A957000831010008C80C0020D1
:10024000C8120020C80E0020C80E00204FF0000287
:1002500000B5134694469646203922BFA0E80C50BC
:10026000A0E80C50B1F12001BFF4F7AF090728BF97
:10027000A0E80C5048BF0CC05DF804EB890028BF13
:1002800040F8042B08BF704748BF20F8022B11F03C
:10029000804F18BF00F8012B7047704770477047B8
:1002A000004870470002002070477546FFF7F8FFCE
:1002B000AE4605006946534620F00700854618B053
:1002C00020B5FFF7B1FFBDE820404FF000064FF02A
:1002D00000074FF000084FF0000BAC46ACE8C00937
:1002E000ACE8C009ACE8C009ACE8C00921F00701DE
:1002F0008D46704710B50446AFF300802046BDE838
:100300001040FFF77CBF000001491820ABBEFEE79C
:100310002600020080B584B0ADF80E0040F23C101B
:10032000C2F200000068806B029000F039FA019080
:1003300000F040FA019ADDF808C00346BDF80E004F
:100340006946086000210846E04704B080BD00000F
:1003500080B586B0ADF81600ADF814100492BDF863
:1003600016000390BDF81400029040F26020C2F223
:100370000000806801909DF8100005F07DFD019A55
:1003800002990346039802EB8302526800F014FCC2
:1003900006B080BD80B58EB0ADF83600ADF8341033
:1003A0000C928DF82F300120ADF82C000020ADF814
:1003B0002A000990089007900C980690069805F07E
:1003C000C1FE0790FFE70698411C0691007820B116
:1003D000FFE7099801300990F5E700F0E1F9079986
:1003E000B0FBF1F00999B0FBF1F008909DF82F00F7
:1003F00001460491012808D0FFE70498022811D093
:10040000FFE70498032808D013E0BDF836000799E9
:10041000A0EB5100ADF82C0010E0BDF83600ADF8AF
:100420002C000BE0BDF836100798401AADF82C00F0
:1004300004E0BDF83600ADF82C00FFE740F2602084
:10044000C2F20000806803900C98007805F014FD5B
:100450000146039800EB810040680088ADF8160063
:10046000FFE70C980078002818BF0120029000F0E8
:1004700097F901460298BDF82C20891ABDF816306C
:10048000CA1A00219A42A8BF012108422AD0FFE7D8
:10049000BDF82C00BDF834100C9A1278FFF758FF05
:1004A000BDF81610BDF82C000844ADF82C000C98CF
:1004B00001300C90BDF82A000130ADF82A0040F25E
:1004C0006020C2F20000806801900C98007805F06E
:1004D000D3FC0146019800EB810040680088ADF82C
:1004E0001600BEE70EB080BD80B586B0ADF8160030
:1004F000ADF8141004920020ADF80E00ADF80C0019
:100500000498029002980088ADF80C000298408888
:10051000ADF80E00BDF81600BDF81410BDF80C20A3
:10052000BDF80E3005F018F840F23C10C2F20000A1
:100530000068006B68B1FFE740F23C10C2F20000B7
:100540000068036BBDF81600BDF81410049A9847B4
:10055000FFE700F025F9019000F02CF9019A03461D
:100560000021084604F0F8FF06B080BD80B584B0D5
:10057000ADF80E00ADF80C10ADF80A200020019087
:1005800040F23C10C2F200000068006AA0B1FFE730
:1005900040F23C10C2F200000068D0F820C040F2E7
:1005A0006020C2F200000088BDF80E10BDF80C20DB
:1005B000BDF80A30E0471CE000200190FFE70198F9
:1005C000BDF80A10884213D2FFE7BDF80E0001996A
:1005D0000844BDF80C1040F26022C2F200021288FA
:1005E00080B200F009F8FFE7019801300190E6E7DA
:1005F000FFE704B080BD000080B582B0ADF8060012
:10060000ADF80410ADF8022040F23C10C2F2000038
:100610000068406970B1FFE740F23C10C2F2000090
:1006200000684369BDF80600BDF80410BDF802205B
:100630009847FFE702B080BD80B582B0ADF80600F4
:10064000ADF80410ADF80220ADF80030BDF806009A
:10065000BDF80410BDF80220FFF788FFBDF80600C2
:10066000BDF80410BDF8002011440139BDF8022086
:1006700089B2FFF77BFFBDF80600BDF80410BDF896
:10068000002000F00FF8BDF80600BDF80210084485
:100690000138BDF80410BDF8002080B200F002F867
:1006A00002B080BD80B584B0ADF80E00ADF80C107E
:1006B000ADF80A200020019040F23C10C2F2000088
:1006C0000068406AA0B1FFE740F23C10C2F20000AF
:1006D0000068D0F824C040F26020C2F20000008818
:1006E000BDF80E10BDF80C20BDF80A30E0471CE044
:1006F00000200190FFE70198BDF80A10884213D24C
:10070000FFE7BDF80E00BDF80C10019A114440F24D
:100710006022C2F20002128889B2FFF76DFFFFE784
:10072000019801300190E6E7FFE704B080BD0000CA
:1007300010B584B0ADF80E00ADF80C10ADF80A207D
:10074000ADF8083040F23C10C2F200000068D0F86A
:1007500038C0BDF80E00BDF80C10BDF80A20BDF879
:10076000083040F2602EC2F2000EBEF800E06C4687
:10077000C4F800E0E04704B010BD000040F2602083
:10078000C2F200008088704740F26020C2F2000090
:100790008068704740F26020C2F200000088704715
:1007A00080B540F23C10C2F200000068806A8047C9
:1007B00080BD000080B540F23C10C2F2000000682D
:1007C000C06A804780BD000080B582B001208DF8EE
:1007D000070040F23C10C2F2000000680068804749
:1007E00040F26022C2F200024FF6FF70506000211A
:1007F0000091116047F68821C0F600019160FFF773
:1008000089FD00988DF807009DF8070002B080BDB3
:1008100081B0ADF80200BDF8020040F26021C2F2E2
:100820000001486001B0704781B00090009840F22C
:100830006021C2F20001886001B0704781B0ADF85C
:100840000200BDF8020040F26021C2F2000108601F
:1008500001B0704780B588B0079000208DF8070080
:10086000FFE79DF80700092814DCFFE740F2F810C5
:10087000C2F20000006801690020884707990880DB
:100880000A2002F063FEFFE79DF8070001308DF8B3
:100890000700E6E740F2F810C2F2000000680169C4
:1008A00000208847079908800798008800287AD098
:1008B000FFE740F2F810C2F2000000684369002030
:1008C0000DF11A0106AA9847BDF81A000590BDF867
:1008D0001800049005980799886004980799C860E3
:1008E000059840F67C41C2F20001B1F9001048437E
:1008F000C11700EB915140F27C20C2F20000B0F928
:10090000000000EBA1200390049840F67E41C2F263
:100910000001B1F900104843C11700EB915140F2BA
:100920007E20C2F20000B0F9000000EBA12002908E
:100930000398B0F1FF3F03DCFFE70020039011E0D4
:10094000039840F27421C2F200010988884208DB52
:10095000FFE740F27420C2F20000008801380390E3
:10096000FFE7FFE70298B0F1FF3F03DCFFE700205D
:10097000029011E0029840F27621C2F2000109884B
:10098000884208DBFFE740F27620C2F200000088D0
:1009900001380290FFE7FFE7039807994880029823
:1009A00007998880FFE708B080BD000080B582B05D
:1009B000ADF80600ADF8041001208DF80300BDF875
:1009C000060040F27421C2F200010880BDF8040064
:1009D00040F27621C2F20001088040F2CC00C2F25F
:1009E000000000680078C00718B9FFE704F0F2FAC9
:1009F00034E040F69440C2F200008068012808D13B
:100A0000FFE740F69440C2F200004068022803D09D
:100A1000FFE704F0DFFA20E040F2CC00C2F2000071
:100A20000168096A40F67C42C2F200021180016846
:100A3000896A40F27C22C2F2000211800168496A90
:100A400040F67E42C2F2000211800068C06A40F2A5
:100A50007E21C2F200010880FFE7FFE740F2F810B4
:100A6000C2F20000006820B1FFE700208DF803000B
:100A7000FFE79DF8030048B9FFE740F2F810C2F223
:100A800000000068016800208847FFE79DF8030028
:100A900002B080BD82B0ADF80600ADF80410ADF82C
:100AA0000220ADF80030BDF8060040F67C41C2F2ED
:100AB00000010880BDF8040040F67E41C2F200014A
:100AC0000880BDF8020040F27C21C2F200010880DB
:100AD000BDF8000040F27E21C2F20001088002B0A1
:100AE00070470000FFE7FEE77047000080B58AB05E
:100AF00084460D980C98ADF826C0ADF82410ADF8DA
:100B00002220ADF820308DF81F009DF81F0001282D
:100B100009D1FFE74DF61B700290FFF78FFE029898
:100B2000FFF776FE08E04FF2DE700190FFF786FED9
:100B30000198FFF76DFEFFE7BDF82600BDF8241011
:100B4000BDF82220BDF82030FFF7F2FD0020009014
:100B5000FFF774FE47F68820C0F60000FFF764FE3A
:100B60000098069005900D980490FFE70498411CAA
:100B70000491007820B1FFE7069801300690F5E770
:100B8000BDF82210BDF8260000EB5100ADF80E00B4
:100B9000BDF82010BDF8240000EB51000C38ADF872
:100BA0000C00BDF80E00BDF80C100D9A0123FFF7E4
:100BB000F1FB0AB080BD000080B58CB0ADF82E000E
:100BC000ADF82C100A920020ADF82600ADF82400F4
:100BD00040F26021C2F2000189680988ADF8261050
:100BE0000A99089108990988ADF8241040F28021EB
:100BF000C2F200010791BDF82610079A5180BDF896
:100C00002410079A1180BDF82410BDF82620514306
:100C1000079A51608021069105900490BDF8240048
:100C2000C0080390BDF82400400720B1FFE70398F7
:100C300001300390FFE70898049A039B059902FB93
:100C4000031210440131059180788DF80B000020CB
:100C50000190FFE70198BDF82610BDF8242051430C
:100C6000B0EB410F73DAFFE79DF80B0006990842DD
:100C700012D0FFE740F26020C2F200000168090ACA
:100C8000019B40F28022C2F20002134459720068B4
:100C900001991144087219E040F26020C2F200008C
:100CA0004168090A8DF8031040688DF802009DF82C
:100CB0000300019940F28022C2F2000211444872FE
:100CC0009DF80200019911440872FFE70698401050
:100CD0000690069870B1FFE7019800EBD0710120F3
:100CE00000EB6102BDF8241092FBF1F000FB112033
:100CF00040BBFFE70598039988420DD1FFE700202C
:100D000005900498013004900498BDF8261088429C
:100D100001D1FFE71BE0FFE7802006900498BDF8B3
:100D20002610884201DBFFE711E00898049A039B34
:100D3000059902FB031210440131059180788DF86A
:100D40000B00FFE7FFE701980230019082E7BDF852
:100D50002E00BDF82C1040F28022C2F20002FFF7F4
:100D6000C3FB0CB080BD000080B54FF4006000F004
:100D7000C9FEB8B1FFE74FF4006000F085FD40F612
:100D80000000C4F201000821C0F2084101F02CF873
:100D900038B9FFE740F69041C2F200010120087027
:100DA000FFE7FFE74FF4004000F0ACFE28B1FFE79B
:100DB0004FF4004000F068FDFFE780BD80B50820DB
:100DC00000F0A0FEC0B1FFE7082000F05DFD40F696
:100DD0000000C4F2010040F6080101F005F838B93E
:100DE000FFE740F69041C2F2000101200870FFE7E2
:100DF000082000F049FDFFE780BD000081B0EFF35F
:100E0000108072B60090FFE7FEE7000080B582B068
:100E1000EFF3108072B60190FFE742F20C00C4F2CB
:100E200002000068C00708B1FFE7F6E706F076FBAE
:100E300042F20C00C4F2020000688006002809D5C6
:100E4000FFE742F20C01C4F20201086840F0200002
:100E50000860FFE742F21001C4F20201086840F0A6
:100E60000200086042F21402C4F202020020C0F63E
:100E700004001060086840F040000860FFE742F29C
:100E80000C00C4F2020000688006002801D4FFE7CD
:100E9000F5E742F20C01C4F202012020086042F2A0
:100EA0001001C4F20201086820F00200086005F099
:100EB00077FF62B6012002B080BD000080B540F629
:100EC0002040C2F200000078C00718B9FFE705F023
:100ED00019FFFFE740F62040C2F2000080BD00008D
:100EE00080B586B0FFF792FF20B9FFE701208DF8AB
:100EF000130092E0EFF3108072B60590FFE742F224
:100F00000C00C4F202000068C00708B1FFE7F6E772
:100F100006F004FB42F20C00C4F2020000688006F6
:100F2000002809D5FFE742F20C01C4F2020108686B
:100F300040F020000860FFE742F21001C4F2020115
:100F4000086840F00100086040F62040C2F200004E
:100F5000043003900B20029000208DF80700FFE77B
:100F60009DF807000299B0EB410F41D2FFE70398CB
:100F700000889DF807200021C0F6040121F8120026
:100F8000039802300390FFE742F20C00C4F2020023
:100F90000068800600281ED4FFE742F20C00C4F26D
:100FA000020000684007002814D5FFE705F0F8FEAE
:100FB00042F21001C4F20201086820F0010008604A
:100FC00042F20C01C4F202010420086001208DF8F5
:100FD000130022E0D8E742F20C01C4F20201202003
:100FE0000860FFE79DF8070001308DF80700B7E7BC
:100FF00042F21001C4F20201086820F0010008600A
:1010000005F0CEFE40F62041C2F2000100204870FB
:1010100062B601208DF81300FFE79DF8130006B0BB
:1010200080BD0000FFE7FEE780B582B00190019827
:1010300002F08CFA02B080BD81B08DF803009DF8FB
:10104000030038B1FFE740F29811C4F222210120D9
:10105000086006E040F29811C4F2222100200860E6
:10106000FFE701B07047000081B00090FFE70098F3
:10107000411E009108B1FFE7F9E701B07047000099
:1010800080B582B041F21801C4F20201086840F054
:101090001C00086040F28011C4F22121009101205F
:1010A0000190086040F6000CC4F2010CDCF800105E
:1010B000022363F30301CCF8001040F29811C4F24C
:1010C0002221086041F20002C4F20102116863F3B8
:1010D0001B61116040F28411C4F22121086040F2CA
:1010E0009011C4F22221086040F28811C4F221213B
:1010F000086040F29411C4F222210860DCF800106C
:10110000032363F30711CCF80010116863F3134154
:101110001160DCF8001063F30B21CCF800101168AB
:1011200063F31751116040F60042C4F201024FF020
:101130003331116040F60442C4F201021160FFF73E
:1011400073FF009A019800211160FFF76DFF00996D
:1011500001980860FFF768FF02B080BD80B590B0CD
:101160008DF83F000E910D920C9340F28411C4F261
:1011700021210020086040F29011C4F2222109913F
:1011800008609DF83F2040F68041C2F200010A80CD
:10119000098840F60C42C4F20102116040F2881145
:1011A000C4F22121089108600720FFF75DFF089A2B
:1011B000099901201060086040F60041C4F2010165
:1011C0004FF04430086040F60441C4F20101086069
:1011D000FFE70C98411E0C9170B1FFE740F29411AB
:1011E000C4F222210791002008601120FFF73CFF84
:1011F000079901200860ECE7FFE70D98411E0D916B
:10120000002874D0FFE740F29411C4F22221059126
:1012100000200190086011200290FFF725FF01993E
:101220000298059A40F60843C4F201030393D3F8E9
:1012300000C040F68043C2F200030493A3F800C04C
:101240001B88ADF828300123069313601160FFF767
:101250000BFF01990298DDF810C0059A069BDDF896
:101260000CE0DEF800E0ACF800E0BCF800C0ADF83F
:101270002AC013601160FFF7F7FE039B049A0599DB
:1012800006981B6813801288ADF82C2008609DF822
:1012900028209DF829009DF82B1000F0F80000028E
:1012A00002F0FC0240EAC20040EAD1000E99088038
:1012B0000E9802300E900D98C0B1FFE79DF82A00FD
:1012C0009DF82C109DF82D2000F0F800000202F08F
:1012D000FC0240EAC20040EAD1000E9908800E9854
:1012E00002300E900D9801380D90FFE785E740F22F
:1012F0008411C4F221210120086040F60041C4F2AB
:1013000001014FF03330086040F60441C4F201019E
:10131000086010B080BD000080B58AB08DF827004D
:1013200008910792069340F28411C4F22121002013
:10133000086040F29011C4F22221049108609DF8E7
:10134000272040F68041C2F200010A80098840F659
:101350000C42C4F20102116040F28811C4F2212152
:10136000039108600720FFF77FFE039A049901208C
:101370001060086040F60041C4F201014FF04430B3
:10138000086040F60441C4F201010860FFE70698D6
:10139000411E069170B1FFE740F29411C4F2222180
:1013A0000291002008601120FFF75EFE02990120E3
:1013B0000860ECE7FFE70798411E079110B3FFE7CD
:1013C00040F29411C4F22221019100200860112002
:1013D000FFF74AFE019940F60840C4F20100026896
:1013E00040F68040C2F2000002800088ADF816008E
:1013F000012008609DF816000899087008980130CF
:101400000890D8E740F28411C4F22121012008603D
:1014100040F60041C4F201014FF03330086040F65D
:101420000441C4F2010108600AB080BD80B584B0F7
:101430008DF80F0040F28411C4F2212102910020A6
:10144000086040F29011C4F22221019108609DF8D9
:101450000F2040F68041C2F200010A80098840F660
:101460000C42C4F20102116040F28811C4F2212141
:10147000009108600720FFF7F7FD009B019A029991
:10148000012018601060086004B080BD80B586B08F
:101490008DF81700ADF81410049240F28411C4F2D4
:1014A00021210020086040F29011C4F22221039112
:1014B00008609DF8172040F68041C2F200010A80C2
:1014C000098840F60C42C4F20102116040F2881112
:1014D000C4F22121029108600720FFF7C5FD029A9E
:1014E0000399012010600860FFE70498411E0491F1
:1014F000D8B1FFE7BDF8141040F68040C2F20000FA
:101500000180008840F60C41C4F20101086040F2FD
:101510008811C4F221210191002008600720FFF703
:10152000A3FD019901200860DFE740F28411C4F2B5
:1015300021210120086006B080BD000080B586B082
:101540008DF817000491039240F28411C4F2212116
:101550000020086040F29011C4F22221029108603C
:101560009DF8172040F68041C2F200010A800988E8
:1015700040F60C42C4F20102116040F28811C4F23C
:101580002121019108600720FFF76EFD019A029961
:10159000012010600860FFE70398411E0391F0B13D
:1015A000FFE70498018840F68040C2F20000018005
:1015B000008840F60C41C4F20101086040F2881135
:1015C000C4F221210091002008600720FFF74CFDA4
:1015D000009901200860049802300490DCE740F292
:1015E0008411C4F221210120086006B080BD0000F2
:1015F00080B586B08DF817000491039240F28411F3
:10160000C4F221210020086040F29011C4F222218E
:10161000029108609DF8172040F68041C2F2000157
:101620000A80098840F60C42C4F20102116040F2BF
:101630008811C4F22121019108600720FFF714FDF1
:10164000019A0299012010600860FFE70398411E8B
:101650000391F0B1FFE70498017840F68040C2F2B0
:1016600000000180008840F60C41C4F201010860CE
:1016700040F28811C4F22121009100200860072067
:10168000FFF7F2FC009901200860049801300490F3
:10169000DCE740F28411C4F221210120086006B089
:1016A00080BD000080B584B0ADF80E0040F284111A
:1016B000C4F22121029100200860BDF80E2040F6FE
:1016C0008041C2F200010A80098840F60C42C4F24F
:1016D0000102116040F28811C4F2212101910860D9
:1016E0000720FFF7C1FC019A0299012010600860F1
:1016F00004B080BD80B584B08DF80F0040F2841135
:10170000C4F221210291002008609DF80F2040F6CC
:101710008041C2F200010A80098840F60C42C4F2FE
:101720000102116040F28811C4F221210191086088
:101730000720FFF799FC019A0299012010600860C8
:1017400004B080BD82B00190019A41F21C00C4F245
:10175000020001681143016000680199084000908F
:10176000009802B07047000082B00190019A41F2E7
:101770001C00C4F202000168114301600068019975
:1017800008400090009802B07047000082B00190BD
:10179000019A41F21C00C4F2020001681143016089
:1017A0000068019908400090009802B0704700005E
:1017B00082B00190019A41F21C00C4F2020001685B
:1017C000114301600068019908400090009802B040
:1017D0007047000082B00190019A41F21800C4F2F3
:1017E00002000168114301600068019908400090FF
:1017F000009802B07047000082B00190019A41F257
:101800001800C4F2020001681143016000680199E8
:1018100008400090009802B07047000082B001902C
:10182000019A41F21800C4F20200016811430160FC
:101830000068019908400090009802B070470000CD
:1018400082B00190019A41F21800C4F202000168CE
:10185000114301600068019908400090009802B0AF
:101860007047000082B00190019A41F21800C4F262
:10187000020001681143016000680199084000906E
:10188000009802B07047000081B00090009840F2CC
:101890001441C4F20101086001B0704781B00090AA
:1018A000009A40F20441C4F20101086890430860C4
:1018B00001B0704781B00090009A40F20C41C4F230
:1018C000010108689043086001B0704781B0009042
:1018D000009A40F20041C4F2010108689043086098
:1018E00001B0704781B00090009A40F20841C4F204
:1018F000010108689043086001B0704781B0009012
:10190000009A40F20441C4F20101086810430860E3
:1019100001B0704781B00090009A40F20C41C4F2CF
:10192000010108681043086001B0704781B0009061
:10193000009A40F20041C4F20101086810430860B7
:1019400001B0704781B00090009A40F20841C4F2A3
:10195000010108681043086001B0704780B584B089
:10196000039000208DF80B0003984088C00808B948
:10197000FFE707E049F6E730C0F601006E2104F00A
:1019800053FAFFE70398007928B1FFE7039800793D
:10199000012801D1FFE707E049F6E730C0F6010072
:1019A0006F2104F041FAFFE70398407950B1FFE757
:1019B00003984079012805D0FFE703984079022871
:1019C00001D1FFE707E049F6E730C0F601007021DA
:1019D00004F02AFAFFE703980079002800F08480D9
:1019E000FFE70398807978B1FFE7039880790128B1
:1019F0000AD0FFE703988079022805D0FFE7039813
:101A00008079032801D1FFE707E049F6E730C0F607
:101A10000100752104F008FAFFE703980068002828
:101A200061D0FFE7039840790146019140B1FFE79B
:101A3000019801280DD0FFE70198022812D01AE082
:101A400003980068FFF72AFF03980068FFF76EFF0E
:101A500015E003980068FFF739FF03980068FFF767
:101A60004DFF0CE003980068FFF760FF03980068E3
:101A7000FFF744FF03E001208DF80B00FFE7039818
:101A8000807978B3FFE703988079014600910128B7
:101A900008D0FFE7009802280DD0FFE70098032840
:101AA00012D01AE003980068FFF704FF039800685B
:101AB000FFF748FF15E003980068FFF713FF03984E
:101AC0000068FFF727FF0CE003980068FFF73AFF74
:101AD00003980068FFF71EFF03E001208DF80B005C
:101AE000FFE7FFE7FFE708E003980068FFF7EEFE77
:101AF00003980068FFF7D2FEFFE79DF80B0004B0E3
:101B000080BD000081B0009040F21440C4F201009A
:101B1000006800990840401AB0FA80F0400901B00E
:101B20007047000042F20000C4F20200006800F0BA
:101B30000700704781B0009042F20001C4F2020138
:101B4000086820F00700009A1043086001B0704751
:101B50000421C4F20101086840F60042C0F200729C
:101B600010430860704700000421C4F201010868B6
:101B700020F0E0600860086840F00070086070477E
:101B800082B0019000919DF800000821C4F201018B
:101B900051F82000009A4FEA124C20EA1240019BB3
:101BA0009CFAACFCBCFA8CFC03FA0CF31843D2B2DE
:101BB00041F8220002B0704780B586B005900491CC
:101BC000059840F60001C4F20101884230D0FFE7D9
:101BD000059840F60041C4F20101884228D0FFE791
:101BE000059841F20001C4F20101884220D0FFE7CC
:101BF000059841F20041C4F20101884218D0FFE784
:101C0000059841F60001C4F20101884210D0FFE7B7
:101C1000059841F60041C4F20101884208D0FFE76F
:101C2000059842F20001C4F20101884201D1FFE7A8
:101C300007E049F67830C0F60100A32104F0F4F87B
:101C4000FFE7049800686FF07B41084207D0FFE788
:101C50000498C07810F0FB0F01D1FFE707E049F6C8
:101C60007830C0F60100A42104F0DEF8FFE7049804
:101C70000068C0F30F200390039890FAA0F0B0FA28
:101C800080F00290FFE703980299C840002800F016
:101C9000A880FFE703980299C840C007002800F019
:101CA0009C80FFE70298072806D8FFE7029940F2D8
:101CB00001108840019009E00298A0F108014FF05E
:101CC0000110884040F080600190FFE70498406870
:101CD000082819D1FFE70498006928B1FFE70498A4
:101CE0000069012801D1FFE707E049F67830C0F626
:101CF0000100BF2104F098F8FFE705980199049AC4
:101D0000126900F0E1F8FFE704984068A0B1FFE72E
:101D10000498406804280FD0FFE70498406808281A
:101D20000AD0FFE704984068012805D0FFE704982F
:101D30004068092801D1FFE707E049F67830C0F68E
:101D40000100C62104F070F8FFE705980199049A94
:101D5000526800F085F804984068012805D0FFE734
:101D600004984068092837D1FFE704988068022862
:101D70000AD0FFE704988068012805D0FFE704989F
:101D80008068032801D1FFE707E049F67830C0F604
:101D90000100CE2104F048F8FFE70498C06828B19C
:101DA000FFE70498C068042801D1FFE707E049F67F
:101DB0007830C0F60100CF2104F036F8FFE705982F
:101DC0000199049A926800F095F805980199049A8F
:101DD000D26800F05FF8FFE7FFE702980130029059
:101DE00051E7002006B080BD82B0019000910198BB
:101DF0008068BDF801100840401AB0FA80F0400930
:101E000002B0704782B001900091BDF801000199C5
:101E1000486102B07047000082B001900091BDF8A7
:101E200001000199086102B07047000084B003907E
:101E30000291019203989DF80B10084400900099BC
:101E40000868029A92FAA2F2B2FA82F293000F2282
:101E50009A409043019A9A401043086004B070473A
:101E600084B003900291019203989DF80B100844EE
:101E7000009000990868029A92FAA2F2B2FA82F2ED
:101E800093000F229A409043019A9A4010430860B1
:101E900004B0704784B003900291019203989DF8BA
:101EA0000B100844009000990868029A92FAA2F276
:101EB000B2FA82F2930004229A409043019A9A4027
:101EC0001043086004B0704783B002900191009203
:101ED0000298C06801990A0A20EA1120009992FA32
:101EE000A2F2B2FA82F2914008430299C86003B0AC
:101EF0007047000084B003900291019203989DF80E
:101F00000B100844009000990868029A92FAA2F215
:101F1000B2FA82F2930003229A409043019A9A40C7
:101F20001043086004B0704784B003900291039896
:101F3000C0680190BDF809000090019A009802EA7B
:101F40000001904340EA01400399086104B07047E2
:101F500080B582B0019001984FF47A7100F002F8D8
:101F600002B080BD82B00190009101980099B0FB51
:101F7000F1F001384EF21401CEF2000108604EF289
:101F80001801CEF20001002008604EF21001CEF2DE
:101F900000010520086002B07047000047F2000110
:101FA000C4F20001086840F48070086070470000C7
:101FB00047F20001C4F20001086840F48070086034
:101FC0007047000041F22001C4F20201086840F4A9
:101FD000004008607047000041F22001C4F2020195
:101FE000086840F4004008607047000041F220019A
:101FF000C4F20201086840F48030086070470000B5
:1020000041F20400C4F20200006800F0F0007047E2
:1020100041F20400C4F20200006800F4E06070477E
:1020200041F20400C4F20200006800F460507047FE
:1020300041F22000C4F20200006800F440707047D2
:1020400041F20400C4F20200006800F00C00704786
:1020500041F20400C4F20200006800F00C00704776
:1020600080B582B0019002F0F1FB019908600198FF
:10207000006802F0B3FB019948600198406802F0E3
:10208000C1FB019988600198406802F0CDFB01997D
:10209000C86002B080BD000041F20001C4F202013C
:1020A000086840F4803008607047000041F200008A
:1020B000C4F202000068C0F34040704741F22001C2
:1020C000C4F20201086840F0010008607047000097
:1020D00041F22000C4F202000068C0F340007047E3
:1020E00082B00190009141F20401C4F2020108683B
:1020F00020F47C10019A02F44032009B1A431043F2
:10210000086002B07047000041F20001C4F2020111
:10211000086840F0807008607047000041F20400D9
:10212000C4F20200006800F48030704741F20400FD
:10213000C4F20200006800F47010704741F204001D
:10214000C4F202000068C0F34040704741F2000052
:10215000C4F202000068C0F34060704741F2200101
:10216000C4F20201086820F4803008607047000063
:1021700081B0009041F20401C4F20201086820F02D
:10218000F000009A1043086001B0704781B00090E1
:1021900041F20401C4F20201086820F4E060009AF0
:1021A0001043086001B0704781B0009041F2040113
:1021B000C4F20201086820F46050009A10430860DD
:1021C00001B0704781B0009041F22001C4F20201D9
:1021D000086820F44070009A1043086001B070470E
:1021E00081B0009041F20401C4F20201086820F0BD
:1021F0000300009A1043086001B0704781B000905E
:102200000099486820F00200486001B07047000063
:1022100081B000900099486820F00400486001B047
:102220007047000081B000900099486820F00800D5
:10223000486001B07047000081B000900099486884
:1022400020F00100486001B07047000081B00090AC
:102250000099486820F00100486001B07047000014
:1022600081B000900099486840F01000486001B0CB
:102270007047000081B000900099086840F00100AC
:10228000086001B07047000081B000900099486874
:1022900020F01000486001B07047000080B586B0A3
:1022A00005904FF47A70049000208DF80F00029092
:1022B000059842F60001C4F20001884201D1FFE70F
:1022C00008E049F6B030C0F601004FF4BA7103F0EF
:1022D000ABFDFFE7059800F001F90290FFE70499D4
:1022E0000020019031B1FFE70298013818BF0120AA
:1022F0000190FFE70198C007A8B1FFE700F0FCFBE1
:10230000012804D1FFE7049801380490FFE70598FD
:1023100000F0E4F80290049820B9FFE701208DF85E
:102320000F00FFE7DBE70598FFF79AFF9DF80F0026
:1023300006B080BD80B586B005904FF47A700490E9
:1023400000208DF80F000290059842F60001C4F2BB
:102350000001884201D1FFE708E049F6B030C0F63D
:10236000010040F29B1103F05FFDFFE70598FFF7C6
:102370008BFF059800F0B2F80290FFE70499002067
:10238000019031B1FFE70298013818BF0120019098
:10239000FFE70198C007A8B1FFE700F0ADFB0128F7
:1023A00004D1FFE7049801380490FFE7059800F096
:1023B00095F80290049820B9FFE701208DF80F00EE
:1023C000FFE7DBE79DF80F0006B080BD80B584B065
:1023D0000390029101208DF80700039842F6000156
:1023E000C4F20001884201D1FFE707E049F6B030AE
:1023F000C0F60100A22103F017FDFFE70298016873
:102400000020B0EB115F01D1FFE707E049F6B030E3
:10241000C0F60100A32103F007FDFFE70298406822
:1024200088B1FFE70298406880280CD0FFE7029847
:102430004068B0F5807F06D0FFE702984068B0F5AD
:10244000407F01D1FFE707E049F6B030C0F6010058
:10245000A42103F0E9FCFFE7039800F087F90128C5
:102460002FD0FFE70398FFF719FF012828D0FFE7D7
:102470000398FFF7C3FE0398FFF7CAFE0398FFF720
:10248000E5FE0298406838B1FFE746F60040C4F226
:10249000000000F065F8FFE70298416846F600404A
:1024A000C4F2000000F04EF803980299096800F0A9
:1024B00033F80398FFF73EFF00208DF80700FFE791
:1024C000FFE79DF8070004B080BD000081B00090D8
:1024D00000984068C0F3C00001B0704781B0009020
:1024E00000984068C0F3401001B0704782B001907E
:1024F00000910198806820F00F00BDF80210084399
:10250000019988600198C068009961F30F000199F2
:10251000C86002B07047000082B00190009101983D
:10252000806820F00F00BDF8021008430199886010
:102530000198C068009961F30F000199C86002B06A
:102540007047000082B0019000910198C06A20F4A9
:102550006070009908430199C86202B0704700009A
:1025600081B0009046F63041C4F20001086820F0C6
:102570000100086001B0704780B586B005900491F5
:10258000039201208DF80B0000200190059842F67F
:102590000001C4F20001884201D1FFE707E049F6DB
:1025A000B030C0F60100E42103F03EFCFFE70498E0
:1025B00020B1FFE70498012801D1FFE707E049F6C1
:1025C000B030C0F60100E52103F02EFCFFE70498CF
:1025D00058BBFFE703980078172801D8FFE707E00A
:1025E00049F6B030C0F60100E92103F01DFCFFE719
:1025F000039840783B2801D8FFE707E049F6B03060
:10260000C0F60100EA2103F00FFCFFE70398807891
:102610003B2801D8FFE707E049F6B030C0F60100DB
:10262000EB2103F001FCFFE742E003980078010989
:1026300001EB810100F00F0000EB4100C0B2172850
:1026400001D8FFE707E049F6B030C0F60100EF21FE
:1026500003F0EAFBFFE703984078010901EB8101F1
:1026600000F00F0000EB4100C0B23B2801D8FFE7AB
:1026700007E049F6B030C0F60100F02103F0D4FBCA
:10268000FFE703988078010901EB810100F00F005A
:1026900000EB4100C0B23B2801D8FFE707E049F654
:1026A000B030C0F60100F12103F0BEFBFFE7FFE709
:1026B0000598FFF7F3FD012843D0FFE7049890B990
:1026C000FFE7039908784A7889784FF461635843A3
:1026D000C2EB021200EB82000844019005980199B8
:1026E00000F036F829E0039908784A7889780309D8
:1026F00003EB830300F00F0000EB4300C0B24FF484
:1027000061635843130903EB830302F00F0202EBEA
:102710004302D2B2C2EB021200EB82000A0902EBC2
:10272000820201F00F0101EB4201C9B2084401909D
:102730000598019900F00CF8FFE700208DF80B00D8
:10274000FFE70598FFF7F6FD9DF80B0006B080BD8A
:1027500082B001900091BDF8020001998861BDF836
:1027600000000199C86102B07047000080B586B0D2
:1027700005904FF47A70049000208DF80F000290BD
:10278000059842F60001C4F20001884201D1FFE73A
:1027900008E049F6B030C0F6010040F2F51103F050
:1027A00043FBFFE70598FFF73DFD0598FFF78EFE19
:1027B0000290FFE704990020019031B1FFE70298F1
:1027C000002818BF01200190FFE70198C007A8B1B9
:1027D000FFE700F091F9012804D1FFE704980138E0
:1027E0000490FFE70598FFF771FE0290049820B966
:1027F000FFE701208DF80F00FFE7DBE79DF80F00F2
:1028000006B080BD81B000900099086840F040009B
:10281000086001B07047000080B584B00390029159
:1028200001208DF80700039843F20001C4F2010172
:10283000884210D0FFE7039843F60001C4F200017C
:10284000884208D0FFE7039843F60041C4F2000134
:10285000884201D1FFE707E049F61F40C0F60100BA
:10286000B72103F0E1FAFFE70298006890B1FFE7B3
:1028700002980068B0F5806F0CD0FFE702980068FE
:10288000B0F5004F06D0FFE702980068B0F5404F62
:1028900001D1FFE707E049F61F40C0F60100BA2169
:1028A00003F0C2FAFFE702984068B0F5827F04D0D7
:1028B000FFE70298406808B9FFE707E049F61F40C4
:1028C000C0F60100BB2103F0AFFAFFE70298806871
:1028D00030B1FFE702988068B0F5006F01D1FFE7E3
:1028E00007E049F61F40C0F60100BC2103F09CFA46
:1028F000FFE70298C06828B1FFE70298C068022885
:1029000001D1FFE707E049F61F40C0F60100BD21F5
:1029100003F08AFAFFE70298006928B1FFE70298FE
:102920000069012801D1FFE707E049F61F40C0F622
:102930000100BE2103F078FAFFE702984069B0F584
:10294000007F0AD0FFE70298406930B1FFE70298A4
:102950004069B0F5802F01D1FFE707E049F61F403D
:10296000C0F60100BF2103F05FFAFFE7029880691B
:1029700018B3FFE70298806908281ED0FFE7029885
:102980008069102819D0FFE702988069182814D0B0
:10299000FFE70298806920280FD0FFE7029880693E
:1029A00028280AD0FFE702988069302805D0FFE781
:1029B00002988069382801D1FFE707E049F61F40F7
:1029C000C0F60100C02103F02FFAFFE70298C069AA
:1029D000802804D0FFE70298C06908B9FFE707E044
:1029E00049F61F40C0F60100C12103F01DFAFFE7C0
:1029F0000298006AB0F5005F04D0FFE70298006A11
:102A000008B9FFE707E049F61F40C0F60100C22100
:102A100003F00AFAFFE7039800F052F8002845D1C6
:102A2000FFE7039800684FF6BF718843029A00924F
:102A30001168D2F804E0D2F808C0D36841EA0E0168
:102A400041EA0C0119431369194353691943936906
:102A50001943D3691943126A114308430399086063
:102A60000398406820F004000299C98A084303993A
:102A700048600298006AB0F5005F13D1FFE7029842
:102A8000406A08B1FFE707E049F61F40C0F60100C1
:102A9000E52103F0C9F9FFE703980299496A00F0BC
:102AA00017F8FFE700208DF80700FFE70399C869D2
:102AB00020F40060C8619DF8070004B080BD0000EC
:102AC00081B0009000980068C0F3801001B070479A
:102AD00082B001900091BDF800000199086102B038
:102AE000704700004EF21001CEF20001086840F07D
:102AF00002000860704700004EF21000CEF20000A5
:102B00000068C0F30040704781B00090009840F228
:102B10001C01C2F20001086001B0704780B584B0AA
:102B20000390029100200190039842F60041C4F204
:102B30000101884208D0FFE7039843F20041C4F244
:102B40000101884201D1FFE708E049F65640C0F68E
:102B5000010040F2CA2103F067F9FFE7029800681C
:102B600030B1FFE702980068B0F5006F01D1FFE7D0
:102B700008E049F65640C0F6010040F2CB2103F0D0
:102B800053F9FFE70298406830B1FFE702984068C8
:102B9000B0F5806F01D1FFE708E049F65640C0F676
:102BA00001004FF4337103F03FF9FFE702988068AA
:102BB00090B1FFE702988068B0F5807F0CD0FFE706
:102BC00002988068B0F5007F06D0FFE70298806821
:102BD000B0F5407F01D1FFE708E049F65640C0F666
:102BE000010040F2CD2103F01FF9FFE70298C089F0
:102BF00030B1FFE70298C089B0F5805F01D1FFE7EF
:102C000008E049F65640C0F6010040F2CE2103F03C
:102C10000BF9FFE70298006930B1FFE702980069FD
:102C2000B0F5005F01D1FFE708E049F65640C0F675
:102C3000010040F2CF2103F0F7F8FFE70298406966
:102C400030B1FFE702984069B0F5804F01D1FFE74E
:102C500008E049F65640C0F601004FF4347103F025
:102C6000E3F8FFE70298007B8DF80400019820F458
:102C700040700299896808430190019820F48060AF
:102C80000299496808430190019820F40060029974
:102C9000096808430190019820F480500299C9897D
:102CA00008430190019820F40050029909690843F3
:102CB0000190019820F480400299496908430190ED
:102CC000019820F400400299496908430190019855
:102CD00003994864002004B080BD000081B00090DA
:102CE0000099086820F08000086001B0704700007B
:102CF00081B000900099886820F08000886001B061
:102D00007047000081B000900099486940F00100D0
:102D1000486101B07047000080B584B00390029113
:102D2000039842F60041C4F20101884235D0FFE722
:102D3000039843F20041C4F2010188422DD0FFE71D
:102D40000398B0F1804F28D0FFE7039840F200418C
:102D5000C4F20001884220D0FFE7039840F600014A
:102D6000C4F20001884218D0FFE7039840F6004102
:102D7000C4F20001884210D0FFE7039841F200013D
:102D8000C4F20001884208D0FFE7039841F20041F5
:102D9000C4F20001884201D1FFE708E049F656403D
:102DA000C0F601004FF4A57103F03EF8FFE702986A
:102DB0004068A0B1FFE70298406810280FD0FFE7F5
:102DC0000298406840280AD0FFE70298406820280F
:102DD00005D0FFE702984068602801D1FFE708E0CE
:102DE00049F65640C0F6010040F24B1103F01CF8C2
:102DF000FFE70298C06860B1FFE70298C068B0F5CD
:102E0000807F06D0FFE70298C068B0F5007F01D14F
:102E1000FFE708E049F65640C0F601004FF4A671FE
:102E200003F002F8FFE7039800680190039842F668
:102E30000041C4F20101884225D0FFE7039843F224
:102E40000041C4F2010188421DD0FFE70398B0F1B0
:102E5000804F18D0FFE7039840F20041C4F2000110
:102E6000884210D0FFE7039840F60001C4F2000149
:102E7000884208D0FFE7039840F60041C4F2000101
:102E8000884208D1FFE7019820F070000299496854
:102E900008430190FFE7039842F60041C4F20101A4
:102EA000884225D0FFE7039843F20041C4F20101B4
:102EB00088421DD0FFE70398B0F1804F18D0FFE79C
:102EC000039840F20041C4F20001884210D0FFE7AD
:102ED000039840F60001C4F20001884208D0FFE7E1
:102EE000039840F60041C4F20001884208D1FFE790
:102EF000019820F440700299C96808430190FFE7E7
:102F000001980399086003980299896800F032F9E2
:102F100003980299098800F043F9039842F60041AA
:102F2000C4F20101884208D0FFE7039843F2004150
:102F3000C4F20101884206D1FFE7039802990969AA
:102F400000F036F9FFE70398FFF7DCFE002004B03D
:102F500080BD000089B0089007910798012803D12F
:102F6000FFE70020049030E00798042803D1FFE732
:102F70000120039026E00798102803D1FFE70220E4
:102F800002901CE00798402803D1FFE7032001903E
:102F900012E00798B0F5807F03D1FFE7042000908E
:102FA00007E007990620B1F5806F08BF0520009063
:102FB000FFE700980190FFE701980290FFE7029871
:102FC0000390FFE703980490FFE704988DF81B0037
:102FD00008989DF81B2047F28151C0F60001895CDA
:102FE0000844183005909DF81B1047F60850C0F6AD
:102FF0000000415C042000FA01F205990868904342
:10300000086009B07047000089B0089007910798E0
:10301000012803D1FFE70020049030E0079804283E
:1030200003D1FFE70120039026E00798102803D181
:10303000FFE7022002901CE00798402803D1FFE739
:103040000320019012E00798B0F5807F03D1FFE7DD
:103050000420009007E007990620B1F5806F08BFB3
:1030600005200090FFE700980190FFE7019802908B
:10307000FFE702980390FFE703980490FFE70498A6
:103080008DF81B0008989DF81B2047F28151C0F66F
:103090000001895C0844183005909DF81B1047F624
:1030A0000850C0F60000415C082000FA01F20599C2
:1030B00008681043086009B07047000080B586B00A
:1030C00005900491039201208DF80B000498019063
:1030D00001280ED0FFE70198102811D0FFE70198D2
:1030E000B0F5807F13D0FFE70198B0F5805F15D071
:1030F0001BE00598039900F05BFE8DF80B0015E0CE
:103100000598039900F09CFF8DF80B000EE00598E0
:10311000039901F0E1F88DF80B0007E00598039999
:1031200001F026FA8DF80B0000E0FFE79DF80B0098
:1031300006B080BD82B0019000910098019948636B
:1031400002B0704782B001900091009801998863A5
:1031500002B0704782B00190009100980199C86355
:1031600002B0704782B00190009100980199086404
:1031700002B0704782B00190009100980199C86236
:1031800002B0704782B0019000910198806844F2CB
:1031900007018843009908430199886002B070478D
:1031A00082B00190009100980199886202B0704746
:1031B00082B00190009100980199086302B07047B5
:1031C00082B0019000910198406820F07000009951
:1031D00008430199486002B07047000081B0009038
:1031E0000099086920F4904008610099486920F02E
:1031F0002A00486101B0704781B000900099C8680A
:1032000040F40050C86001B07047000080B588B03D
:103210000790069101208DF8170000200490079870
:1032200043F60001C4F20101884220D0FFE707986D
:1032300044F20041C4F20001884218D0FFE7079829
:1032400044F60001C4F20001884210D0FFE707985D
:1032500044F60041C4F20001884208D0FFE7079815
:1032600045F20001C4F20001884201D1FFE707E006
:1032700049F68D40C0F60100CE2102F0D5FDFFE7F2
:10328000069800684AF62021C0F24401884201D81D
:10329000FFE707E049F68D40C0F60100CF2102F0BC
:1032A000C3FDFFE70698406830B1FFE70698406825
:1032B000B0F5805F01D1FFE707E049F68D40C0F629
:1032C0000100D02102F0B0FDFFE706988068B0F55C
:1032D000805F10D0FFE70698806860B1FFE706982E
:1032E0008068B0F5405F06D0FFE706988068B0F5CB
:1032F000005F01D1FFE707E049F68D40C0F601000D
:10330000D12102F091FDFFE70698C06860B1FFE7A8
:103310000698C068B0F5806F06D0FFE70698C068D1
:10332000B0F5C06F01D1FFE707E049F68D40C0F668
:103330000100D22102F078FDFFE70698006978B11C
:10334000FFE70698006904280AD0FFE7069800699D
:10335000082805D0FFE7069800690C2801D1FFE78F
:1033600007E049F68D40C0F60100D32102F05CFD74
:10337000FFE70698406990B1FFE706984069B0F50D
:10338000807F0CD0FFE706984069B0F5007F06D03B
:10339000FFE706984069B0F5407F01D1FFE707E0FD
:1033A00049F68D40C0F60100D42102F03DFDFFE753
:1033B000079800F07FF8002878D1FFE70798C068E9
:1033C00041F20C618843069A5168D3681269194327
:1033D000114308430799C86007980699896800F067
:1033E000A7F807980699496900F094F86846FEF72F
:1033F00037FE079843F60001C4F20101884203D169
:10340000FFE70398049030E0079844F20041C4F2CB
:103410000001884203D1FFE70298049024E0079856
:1034200044F60001C4F20001884203D1FFE702988C
:10343000049018E0079844F60041C4F20001884265
:1034400003D1FFE7029804900CE0079845F20001D1
:10345000C4F20001884203D1FFE70298049000E023
:10346000FFE7FFE7FFE7FFE7FFE70498E8B1FFE7C3
:1034700006980068C8B1FFE700208DF8170007988C
:103480000499069A126800F01DF8079880681028C1
:1034900001D3FFE708E049F68D40C0F601004FF484
:1034A0009B7102F0C1FCFFE7FFE7FFE79DF8170003
:1034B00008B080BD81B000900098C068C0F3403073
:1034C00001B0704783B002900191009201981921D8
:1034D000484300998900B0FBF1F348F21F51C5F24F
:1034E000EB11A3FB01204209642002FB10333220C0
:1034F00000EB0310A0FB0101F02000EA511000EBEB
:103500000210C1F34311084480B20299886003B0ED
:103510007047000082B0019000910198406920F44A
:103520004070009908430199486102B0704700005B
:1035300082B0019000910198006920F440500099F8
:1035400008430199086102B07047000082B0019001
:103550004EF21000CEF20000006800900098019832
:10356000013020B1FFE7019801300190FFE7FFE74C
:10357000019870B1FFE74EF21000CEF20000006833
:10358000C003002804D5FFE7019801380190FFE748
:10359000EEE702B07047000010B598B000200F9021
:1035A000179016901590149013901290119010206F
:1035B000FEF722F92020FEF71FF904200C90FEF7F9
:1035C0001BF908200790FEF717F941F20000C4F23A
:1035D0000100039040F20771C0F20241FEF712FCB5
:1035E00040F60040C4F2010002904FF6FF71C0F2B5
:1035F0001F410191FEF706FC40F60000C4F20100F5
:103600000B901121C0F21141FEF7FCFB41F200408A
:10361000C4F20100069040F204410591FEF7F2FB6E
:10362000039843F63801C0F20841FEF7F5FB0B980A
:1036300041F21771FEF7F0FB03980F9943F63F72C2
:10364000C0F20A42119201220992129202220892B9
:103650001392149111A90491FEF7AEFA0499089BF4
:10366000DDF824C00F9A0B9841F2177EC0F2114E7C
:10367000CDF844E0CDF848C013931492FEF79CFABD
:103680000499089BDDF824C00F9ADDF804E0029845
:10369000CDF844E0CDF848C013931492FEF78CFAAD
:1036A00004990C9A03981423C0F2144311931292B4
:1036B000FEF782FA0499089BDDF824C00F9ADDF822
:1036C00014E00698CDF844E0CDF848C01393149266
:1036D000FEF772FA0F984FF07041FEF751FA0F980B
:1036E0000221CFF20001FEF74BFA0F980321CFF22F
:1036F0000001FEF745FA079B0898099A0F9916935F
:103700008DF85C208DF85D108DF85E0016A80A908B
:10371000FEF724F9099A0F990A984FF4006316935B
:103720008DF85C208DF85D1003218DF85E10FEF79A
:1037300015F909990F9A0A984FF4004316938DF8DA
:103740005C108DF85D208DF85E10FEF707F90C9A7D
:103750000B9840F60801FEF769FB0B980C9A0821BC
:10376000C0F20841FEF762FB0B980C9A8021C0F270
:103770008041FEF75BFB02F099FA0F9A0E210E9141
:1037800000F074FA014609200D9002F0C9FA0D9874
:1037900002F03CFA02F08AFA0E990F9A00F066FAEB
:1037A00001462820109002F0BBFA109802F02EFA81
:1037B00018B010BD80B586B0002000900590049030
:1037C000FEF7F6FB4FF00060FDF7CEFFFEF704FCBE
:1037D00002F074FA009A0F2100F07EFA01460320ED
:1037E000019002F0BFFA019802F028FA47F6FF7044
:1037F0000290049042F60000C4F20000039004A975
:10380000FEF7E4FD02990398FEF770FE06B080BD56
:1038100080B596B00CA805902821FCF717FD002074
:1038200004900B900A900990089007904FF48050F4
:10383000FDF7F4FF04200090FDF7F0FF04984AF232
:10384000A001079109210891032109910A9040F6EE
:103850000000C4F20100029007A90191FEF7ACF943
:10386000009A0199029844F2400307930892FEF7E8
:10387000A3F902F02BFA049A114600F063FA01460C
:103880002320039002F090FA039802F0EFF90498D5
:1038900005990C904FF482720D920E900F9010903B
:1038A0004FF40072119220221292139014900A2069
:1038B000159043F20000C4F201000690FEF7ACFF41
:1038C0000698FEF79FFF16B080BD000080B596B049
:1038D0000CA805902821FCF7B9FC002004900B905F
:1038E0000A900990089007904FF48040FDF74EFF32
:1038F0000820FDF793FF0498A021C0F2A041079192
:1039000009210891032109910A9040F60040C4F270
:103910000100029007A90191FEF74EF90199029862
:103920004022C0F24042079204220892FEF744F976
:1039300002F0CCF9049A114600F004FA0146242062
:10394000039002F031FA039802F090F90498059977
:103950000C904FF482720D920E900F9010904FF4D5
:10396000007211921290139014900A20159043F651
:103970000000C4F200000690FEF74EFF0698FEF726
:1039800041FF16B080BD000080B596B000200390C6
:103990001590149013901290119010900F900E901B
:1039A0000D900C900B900A9009900890079006904B
:1039B0000590049002200290FDF7FAFE0398ADF8FE
:1039C000440012904FF6FF711391149040F20040A2
:1039D000C4F20000019011A9FFF79EF90198FFF7CA
:1039E0007DF9019801210091FFF70EFB00990198E4
:1039F000039A602309930A920B920C920D9209AAE2
:103A0000FFF75CFB00990198FFF7A4FA019803996E
:103A1000FFF7D6FB0198FFF76BF91020FDF710FFB9
:103A20000299039844F240020492092205920691F9
:103A3000079041F20000C4F2010004A9FEF7BCF8AF
:103A4000FEF786F816B080BD80B59EB000200590C8
:103A50001D901C901B901A9019901890179016901A
:103A60001590149013901290119010900F900E904A
:103A70000D900C900B900A9009900890079006907A
:103A80004FF400500290FDF7DBFE0598ADF864009E
:103A90001A9041F61F411B911C901D9043F200406B
:103AA000C4F20100039019A9FFF736F90398FFF754
:103AB00015F903980599FFF765FB0398059911918E
:103AC000129113911491159116911791189110213B
:103AD000049111AA0092FFF7F1FA04990398FFF7F5
:103AE00039FA009A0398202111914FF480710191C5
:103AF000FFF7E4FA01990398FFF72CFA0398059968
:103B0000FFF75EFB0398FFF7F3F8029A0398059915
:103B10000B910C910D918DF83810ADF83A100F9271
:103B200010910BA9FEF7FAFF0498FDF789FE05989E
:103B300048F28101C0F20141069109210791022159
:103B40000891099041F20000C4F2010006A9FEF7B5
:103B500033F81EB080BD000080B592B00020049004
:103B6000119010900F900E900D900C900B900A9069
:103B700009900890079006904FF48040FDF772FE80
:103B800004200190FDF76EFE04980221C0F202416C
:103B900006910921079103210891099040F6000040
:103BA000C4F20100039006A90291FEF705F8019AFC
:103BB000029903980423C0F2044306930792FDF789
:103BC000FBFF04984FF4E1310B910C900D900E9097
:103BD0000C210F911090119043F60000C4F20100E7
:103BE00005900BA9FFF712FB0598FFF7F7FA059868
:103BF000FFF702FB12B080BDFFE7FEE7FFE7FEE73D
:103C000088B0079006910592079800F0070004908D
:103C10000498C0F10700052803D3FFE704200190B2
:103C200004E00498C0F107000190FFE701980390B9
:103C300004980430062803D8FFE70020009003E032
:103C4000049803380090FFE70098029006980399C3
:103C5000012202FA01F101390840029B98400599BE
:103C60009A40013A1140084308B0704788B0079065
:103C700006910592079800F0070004900498C0F19F
:103C80000700052803D3FFE70420019004E004980F
:103C9000C0F107000190FFE70198039004980430F9
:103CA000062803D8FFE70020009003E004980338BB
:103CB0000090FFE70098029006980399012202FA0B
:103CC00001F101390840029B984005999A40013A58
:103CD0001140084308B0704788B0079006910592DC
:103CE000079800F0070004900498C0F10700052829
:103CF00003D3FFE70420019004E00498C0F107001B
:103D00000190FFE70198039004980430062803D837
:103D1000FFE70020009003E0049803380090FFE7DD
:103D20000098029006980399012202FA01F10139E4
:103D30000840029B984005999A40013A1140084377
:103D400008B0704788B0079006910592079800F078
:103D5000070004900498C0F10700052803D3FFE78B
:103D60000420019004E00498C0F107000190FFE7EF
:103D70000198039004980430062803D8FFE7002038
:103D8000009003E0049803380090FFE70098029049
:103D900006980399012202FA01F101390840029BB9
:103DA000984005999A40013A1140084308B070477D
:103DB00080B586B005900491059842F60041C4F2A2
:103DC0000101884225D0FFE7059843F20041C4F283
:103DD000010188421DD0FFE70598B0F1804F18D04F
:103DE000FFE7059840F20041C4F20001884210D07C
:103DF000FFE7059840F60001C4F20001884208D0B0
:103E0000FFE7059840F60041C4F20001884201D165
:103E1000FFE708E049F65640C0F6010040F2FF21F6
:103E200002F002F8FFE70498006818B3FFE704986F
:103E3000006810281ED0FFE704980068202819D0D9
:103E4000FFE704980068302814D0FFE70498006862
:103E500040280FD0FFE70498006850280AD0FFE7F9
:103E600004980068602805D0FFE70498006870286F
:103E700001D1FFE708E049F65640C0F601004FF4D3
:103E8000407101F0D1FFFFE70498406828B1FFE7D7
:103E900004984068012801D1FFE708E049F6564040
:103EA000C0F6010040F2013101F0BEFFFFE70498C7
:103EB000006928B1FFE704980069022801D1FFE7F3
:103EC00008E049F65640C0F6010040F2023101F028
:103ED000ABFFFFE70498806828B1FFE7049880688B
:103EE000012801D1FFE708E049F65640C0F601007D
:103EF00040F2033101F098FFFFE70498406928B1D0
:103F0000FFE704984069022801D1FFE708E049F67D
:103F10005640C0F601004FF4417101F085FFFFE704
:103F20000599086A20F0010008620598006A02906D
:103F3000059840680190059880690390039820F0E7
:103F400003000390039820F0700004990968084367
:103F50000390029820F00200049909690843029036
:103F6000029820F0010004994968084302900598DE
:103F700042F60041C4F20101884208D0FFE70598EB
:103F800043F20041C4F20101884248D1FFE704989E
:103F9000C06930B1FFE70498C069B0F5807F01D1F6
:103FA000FFE708E049F65640C0F601004FF44871BB
:103FB00001F03AFFFFE70498806930B1FFE7049809
:103FC0008069B0F5807F01D1FFE708E049F65640EF
:103FD000C0F6010040F2213101F026FFFFE7029810
:103FE00020F008000499496940EA81000290029893
:103FF00020F004000499896840EA81000290019849
:1040000020F480700499896908430190019820F494
:1040100000700499C96940EA41000190FFE70198E6
:104020000599486003980599886105980499C968BD
:10403000FFF780F8029805990862002006B080BD5D
:1040400080B586B005900491059842F60041C4F20F
:104050000101884225D0FFE7059843F20041C4F2F0
:10406000010188421DD0FFE70598B0F1804F18D0BC
:10407000FFE7059840F20041C4F20001884210D0E9
:10408000FFE7059840F60001C4F20001884208D01D
:10409000FFE7059840F60041C4F20001884201D1D3
:1040A000FFE708E049F65640C0F6010040F24E3105
:1040B00001F0BAFEFFE70498006818B3FFE7049820
:1040C000006810281ED0FFE704980068202819D047
:1040D000FFE704980068302814D0FFE704980068D0
:1040E00040280FD0FFE70498006850280AD0FFE767
:1040F00004980068602805D0FFE7049800687028DD
:1041000001D1FFE708E049F65640C0F6010040F251
:104110004F3101F089FEFFE70498406828B1FFE7BE
:1041200004984068012801D1FFE708E049F65640AD
:10413000C0F601004FF4547101F076FEFFE70498D9
:10414000006928B1FFE704980069022801D1FFE760
:1041500008E049F65640C0F6010040F2513101F046
:1041600063FEFFE70498806828B1FFE70498806841
:10417000012801D1FFE708E049F65640C0F60100EA
:1041800040F2523101F050FEFFE70498406928B137
:10419000FFE704984069022801D1FFE708E049F6EB
:1041A0005640C0F6010040F2533101F03DFEFFE7FA
:1041B0000599086A20F0100008620598006A0290CC
:1041C000059840680190059880690390039820F451
:1041D00040700390039820F4E0400499096840EA95
:1041E00001200390029820F020000499096940EA18
:1041F00001100290029820F010000499496840EAEA
:1042000001100290059842F60041C4F20101884273
:1042100008D0FFE7059843F20041C4F2010188424B
:1042200049D1FFE70498C06930B1FFE70498C0693D
:10423000B0F5807F01D1FFE708E049F65640C0F6AF
:10424000010040F26F3101F0EFFDFFE70498806953
:1042500030B1FFE704988069B0F5807F01D1FFE7B6
:1042600008E049F65640C0F601004FF45C7101F0D9
:10427000DBFDFFE7029820F080000499496940EADD
:1042800081100290029820F040000499896840EA69
:1042900081100290019820F480600499896940EAB5
:1042A00081000190019820F400600499C96940EAF6
:1042B000C1000190FFE701980599486003980599AE
:1042C000886105980499C968FEF73CFF0298059932
:1042D0000862002006B080BD80B586B005900491CC
:1042E000059842F60041C4F20101884225D0FFE75B
:1042F000059843F20041C4F2010188421DD0FFE756
:104300000598B0F1804F18D0FFE7059840F20041C2
:10431000C4F20001884210D0FFE7059840F6000182
:10432000C4F20001884208D0FFE7059840F600413A
:10433000C4F20001884201D1FFE708E049F6564087
:10434000C0F6010040F29D3101F06EFDFFE70498D8
:10435000006818B3FFE70498006810281ED0FFE734
:1043600004980068202819D0FFE7049800683028D6
:1043700014D0FFE70498006840280FD0FFE70498A6
:10438000006850280AD0FFE704980068602805D02C
:10439000FFE704980068702801D1FFE708E049F6BC
:1043A0005640C0F6010040F29E3101F03DFDFFE7AE
:1043B0000498406828B1FFE704984068012801D1BB
:1043C000FFE708E049F65640C0F6010040F29F3191
:1043D00001F02AFDFFE70498006928B1FFE704987F
:1043E0000069022801D1FFE708E049F65640C0F60F
:1043F00001004FF4687101F017FDFFE70498806831
:1044000028B1FFE704988068012801D1FFE708E0A0
:1044100049F65640C0F6010040F2A13101F004FD1A
:10442000FFE70498406928B1FFE704984069022833
:1044300001D1FFE708E049F65640C0F6010040F21E
:10444000A23101F0F1FCFFE70599086A20F48070C1
:1044500008620598006A02900598406801900598E6
:10446000C0690390039820F003000390039820F0A4
:1044700070000499096808430390029820F40070C2
:104480000499096940EA01200290029820F48070A2
:104490000499496840EA01200290059842F60041DB
:1044A000C4F20101884208D0FFE7059843F20041B9
:1044B000C4F20101884249D1FFE70498C06930B1D4
:1044C000FFE70498C069B0F5807F01D1FFE708E0FD
:1044D00049F65640C0F6010040F2BE3101F0A4FC9E
:1044E000FFE70498806930B1FFE704988069B0F570
:1044F000807F01D1FFE708E049F65640C0F6010091
:1045000040F2BF3101F090FCFFE7029820F4006018
:104510000499496940EA81200290029820F4806061
:104520000499896840EA81200290019820F4805023
:104530000499896940EA01100190019820F4005023
:104540000499C96940EA41100190FFE70198059973
:10455000486003980599C86105980499C968FEF7F1
:10456000F9FD029805990862002006B080BD0000A0
:1045700080B586B005900491059842F60041C4F2DA
:104580000101884225D0FFE7059843F20041C4F2BB
:10459000010188421DD0FFE70598B0F1804F18D087
:1045A000FFE7059840F20041C4F20001884210D0B4
:1045B000FFE7059840F60001C4F20001884208D0E8
:1045C000FFE7059840F60041C4F20001884201D19E
:1045D000FFE708E049F65640C0F601004FF47B7152
:1045E00001F022FCFFE70498006818B3FFE7049885
:1045F000006810281ED0FFE704980068202819D012
:10460000FFE704980068302814D0FFE7049800689A
:1046100040280FD0FFE70498006850280AD0FFE731
:1046200004980068602805D0FFE7049800687028A7
:1046300001D1FFE708E049F65640C0F6010040F21C
:10464000ED3101F0F1FBFFE70498406828B1FFE786
:1046500004984068012801D1FFE708E049F6564078
:10466000C0F6010040F2EE3101F0DEFBFFE70498F6
:10467000006928B1FFE704980069022801D1FFE72B
:1046800008E049F65640C0F6010040F2EF3101F073
:10469000CBFBFFE70498406928B1FFE70498406925
:1046A000022801D1FFE708E049F65640C0F60100B4
:1046B0004FF47C7101F0B8FBFFE70498806828B1E3
:1046C000FFE704988068012801D1FFE708E049F678
:1046D0005640C0F6010040F2F13101F0A5FBFFE7C2
:1046E0000599086A20F4805008620598006A0290D3
:1046F0000598406801900598C0690390039820F4DC
:1047000040700390039820F4E0400499096840EA5F
:1047100001200390029820F400500499096940EAAE
:1047200001300290029820F480500499496840EAD0
:1047300001300290059842F60041C4F2010188421E
:1047400008D0FFE7059843F20041C4F20101884216
:1047500031D1FFE70498C06930B1FFE70498C06920
:10476000B0F5807F01D1FFE708E049F65640C0F67A
:10477000010040F20D4101F057FBFFE7049880690A
:1047800030B1FFE704988069B0F5807F01D1FFE781
:1047900008E049F65640C0F6010040F20E4101F033
:1047A00043FBFFE7019820F480400499896940EABF
:1047B00081100190FFE701980599486003980599D9
:1047C000C86105980499C968FEF7CCFC0298059960
:1047D0000862002006B080BD7047000080B582B03E
:1047E000019001980090FDF70BFC01460098C9B2BA
:1047F0000A0947F26951C0F60001895CC84002B05D
:1048000080BD000080B582B0019001980090FDF756
:10481000FFFB014600980A0A47F27951C0F60001F1
:10482000895CC84002B080BD80B582B0019001981B
:104830000090FDF7F5FB01460098CA0A47F279514E
:10484000C0F60001895CC84002B080BD80B582B06E
:1048500000200190FDF7FCFB0146009140B1FFE70D
:10486000009804280AD0FFE7009808280CD00FE031
:1048700041F20020C0F27A0001900FE041F20020E6
:10488000C0F27A00019009E000F00CF8019005E018
:1048900041F20020C0F27A000190FFE7019802B0D7
:1048A00080BD000080B584B0002003900290FDF729
:1048B00035FC02900298019028B1FFE70198B0F50D
:1048C000803F06D010E040F60010C0F23D0003909B
:1048D00010E0FDF733FC411C41F20020C0F27A00E9
:1048E000B0FBF1F0039005E040F60010C0F23D008F
:1048F0000390FFE703980090FDF718FC024600982C
:10490000022101EB9241484304B080BD80B500F024
:1049100007F842F60000C4F20000FDF78DFC80BDF0
:1049200080B582B040F6A040C2F20000817901312A
:10493000817180793C2848DBFFE740F6A040C2F255
:1049400000000021817141790131417140793C2899
:104950003ADBFFE740F6A040C2F2000000214171BF
:10496000017901310171007918282CDBFFE740F64D
:10497000A041C2F2000100200871C8780130C8705F
:104980008878C978019102F06BFA01460198884253
:1049900018DDFFE740F6A040C2F200000121C1701F
:1049A00081780131817080780D280ADBFFE740F6BD
:1049B000A041C2F2000108880130088001208870FF
:1049C000FFE7FFE7FFE7FFE7FFE702B080BD00007A
:1049D00080B588B04DF61B700590FBF72FFFFBF7F5
:1049E000DFFE0246002104913C2302930846FBF7B8
:1049F0009FFEFBF7DFFE3C380190FBF7D1FE0199EB
:104A0000029B0246049889B2FBF792FE4FF2DE70D9
:104A1000FBF714FFFBF7CEFEA0F582700390FBF7C7
:104A2000BFFE03990246049889B2C823FBF780FEB3
:104A300048F2E872C0F6010240F2A9100521FBF726
:104A400053FD48F2A012C0F6010214200B21FBF71F
:104A50004BFD0598FBF7DCFE4FF47840FBF7EEFECC
:104A600049F66072C0F60102102040F21111069161
:104A700003230793FBF78EFC4FF4FC60FBF7DEFE8D
:104A80000699079B49F65D72C0F601024FF4D77094
:104A9000FBF780FC08B080BD80B594B04DF61B706C
:104AA0000790FBF7CBFEFBF77BFE02460021089147
:104AB0003C2306930846FBF73BFEFBF77BFE3C38A6
:104AC0000190FBF76DFE0199069B0246089889B29A
:104AD000FBF72EFE4FF2DE700A90FBF7AFFEFBF7FE
:104AE00069FEA0F582700290FBF75AFE0299024619
:104AF000089889B2C823FBF71BFE48F2E872C0F69B
:104B0000010240F2A9100521FBF7EEFC4FF6FF7001
:104B10000D90FBF793FED220049046210391822250
:104B20000592B423FBF704FE0798FBF787FE039971
:104B30000498059A069BFBF77FFD0498059A069B4F
:104B40001146FBF779FD0498059A069BBE21FBF7F9
:104B500073FDD12045218422B623FBF76DFD079814
:104B6000FBF756FE0898FBF769FE49F6E362C0F6CC
:104B70000102102009900D2103231393FBF70AFC77
:104B80000998139B49F6DE62C0F6010240F211114A
:104B9000FBF700FC0A98FBF73BFE139B49F6F96212
:104BA000C0F601021A200B9053210E91FBF7F2FB85
:104BB0000B98139B49F6D862C0F601028F210F9122
:104BC000FBF7E8FB0B98139B49F62672C0F601022F
:104BD000CB211291FBF7DEFB0E99139B49F60B726A
:104BE000C0F601024FF4B9700C90FBF7D3FB0C98A0
:104BF0000F99139B49F60572C0F60102FBF7CAFB39
:104C00000C981299139B49F6F362C0F60102FBF768
:104C1000C1FB40F20000C2F20000006801F0D6F9CA
:104C200001460D9840F27022C2F20002109211600B
:104C3000FBF7EEFD0E99139B49F6D462C0F6010214
:104C4000DC201190FBF7A6FB0F991198139B49F6F6
:104C5000D662C0F60102FBF79DFB109A11981299DB
:104C6000139B1268FBF796FB14B080BD80B592B021
:104C70004DF61B701090FBF7E1FDFBF791FD02462E
:104C8000002107913C230C930846FBF751FDFBF7ED
:104C900091FD3C380490FBF783FD04990C9B024680
:104CA000079889B2FBF744FD4FF2DE700E90FBF7D8
:104CB000C5FDFBF77FFDA0F582700590FBF770FD49
:104CC00005990246079889B2C8230D93FBF730FD7A
:104CD00048F2E872C0F6010240F2A9100521FBF784
:104CE00003FC48F2A012C0F6010214200B21FBF7CE
:104CF000FBFB1098FBF78CFD0798FBF79FFD49F62F
:104D00005472C0F6010241200D2103230A93FBF7E0
:104D100041FB0E98FBF77CFD1098FBF78FFD079881
:104D20000C994FF4D2720B9232230693FBF784FC5A
:104D30000798FBF783FD0A9B40F6C040C2F20000D3
:104D40001190017840F20400C2F20000089050F87F
:104D50002120102009904521FBF71CFB0E98FBF742
:104D600057FD1098FBF76AFD069B07980B9A6E217A
:104D7000FBF762FC0798FBF761FD089909980A9B0D
:104D8000119A127801EB82014A687721FBF702FB46
:104D90000E98FBF73DFD1098FBF750FD069B07981A
:104DA0000B9AA021FBF748FC0798FBF747FD0899F1
:104DB00009980A9B119A127801EB82018A68A9214D
:104DC000FBF7E8FA0E98FBF723FD1098FBF736FD8A
:104DD000069B07980B9AD221FBF72EFC0798FBF74E
:104DE0002DFD089909980A9B119A127801EB82010E
:104DF000CA68DB21FBF7CEFA0E98FBF709FD109885
:104E0000FBF71CFD0B980C9A0D9B1146FBF714FC4D
:104E10000E98FBF713FD4CF6B032C0F600024FF4CB
:104E2000D8700F904C21FBF75FFB0E98FBF706FD47
:104E30000F984CF29052C0F60002E121FBF754FBB0
:104E40001098FBF7FBFC1198007818B9FFE70020D9
:104E5000039009E040F6C040C2F20000007800EB89
:104E6000C00080000390FFE70398723081B240F2E7
:104E7000A91032220523FBF75BFC40F6C040C2F2CA
:104E80000000007818B9FFE70020029009E040F622
:104E9000C040C2F20000007800EBC0008000029029
:104EA000FFE70298793081B240F2A910322205233F
:104EB000FBF73EFC40F6C040C2F20000007818B993
:104EC000FFE70020019009E040F6C040C2F2000078
:104ED000007800EBC00080000190FFE7019880306F
:104EE00081B240F2A91032220523FBF721FC12B057
:104EF00080BD000080B588B0FBF74CFCADF81E000B
:104F00004FF6FF70FBF79AFC3221029140230846CE
:104F10001A46FBF70DFC0020FBF790FC029949F6BE
:104F2000B862C0F60102032305930846FBF732FA84
:104F300040F6AC40C2F200000390806801F0DEFD54
:104F40000299059B02464B200690FBF723FA029834
:104F5000059B49F6BE62C0F6010242210091FBF7B3
:104F600019FA0398C06801F0C9FD0099059B024633
:104F70000698FBF70FFA0298059B49F6AC62C0F65B
:104F8000010252210191FBF705FA0398408801F0D4
:104F9000B5FD0199059B02460698FBF7FBF90298BF
:104FA000059B49F6B262C0F6010262210491FBF74B
:104FB000F1F90398808801F0A1FD0499059B024650
:104FC0000698FBF7E7F9BDF81E00FBF737FC08B0C1
:104FD00080BD000080B59CB000208DF86F00169059
:104FE0001590149013904CF2565CC0F6000CDCF84F
:104FF0000010DCF80420DCF80830DCF80CC0CDF838
:1050000048C0119310920F918DF83B008DF83A0033
:105010001A98ADF838001998ADF836001898ADF820
:1050200034001798ADF832004FF6FF70FBF772F9B5
:10503000FBF7AAFB0B9047F68820C0F60000FBF7B1
:10504000F3FBFFF757FF9DF83A200FA8059000EB00
:10505000820130F822000A38498880B2152206926F
:10506000FBF784FA0598069A9DF83A3000EB830125
:1050700030F8230049880A3989B2FBF713FBFFE7B0
:105080009DF86F00C007002840F03681FFE70A2036
:10509000FEF75CFA40F6AC40C2F20000FBF7DAFB28
:1050A00040F6A840C2F200000068002840F0C58029
:1050B000FFE740F6AC40C2F200000088012840F053
:1050C000BC80FFE740F6A841C2F200014FF49670A1
:1050D0000860FFF70FFF9DF83B0038B9FFE740F687
:1050E000AC40C2F20000806804900DE09DF83A10D8
:1050F00013A830F8210040F6AC41C2F200018968E3
:10510000084440080490FFE704989DF83A2013A94A
:1051100021F822009DF83B0038B9FFE740F6AC408B
:10512000C2F20000C06803900EE09DF83A1013A888
:1051300000EB8100408840F6AC41C2F20001C96832
:10514000084440080390FFE703989DF83A2013A90C
:1051500001EB820148809DF83B00411CC8B28DF8EC
:105160003B10012868D1FFE79DF83A0001308DF827
:105170003A009DF83A00042837DBFFE7BDF8480005
:10518000BDF83C10401A80021A901A98BDF85810C9
:10519000BDF84C20891A90FBF1F01A90BDF84A0036
:1051A000BDF83E10401A8002BDF85A10BDF84E20DE
:1051B000891A90FBF1F01990BDF83C001A99BDF8DE
:1051C0004C205143CA1701EB9251A0EBA12018903B
:1051D000BDF83E001999BDF84E205143CA1701EBA6
:1051E0009251A0EBA120179025E04FF6FF70FBF73E
:1051F00091F8FFF77FFE9DF83A200FA8019000EB91
:10520000820130F822000A38498880B215220292C1
:10521000FBF7ACF90198029A9DF83A3000EB830154
:1052200030F8230049880A3989B2FBF73BFA00209D
:105230008DF83B00FFE7FFE7FFE79DF83A00042801
:1052400059DBFFE7BDF96800BDF96410BDF96020C6
:10525000BDF95C3000F052F80146009140B1FFE723
:10526000009801280AD0FFE70098022834D041E0D6
:1052700000208DF83B008DF83A003BE0BDF9680056
:10528000BDF96410BDF96020BDF95C30FBF702FC8C
:1052900000200A90099008900790189809901A9891
:1052A000079017980A901998089040F2CC00C2F223
:1052B000000002680799089BDDF824C0DDF828E0AB
:1052C000C2F82CE0C2F828C05362116201680120C4
:1052D00048708DF86F000DE0BDF93800BDF936104B
:1052E000BDF93420BDF93230FBF7D4FB01208DF835
:1052F0006F00FFE7FFE7C3E61CB080BD80B596B046
:10530000ADF85400ADF85210ADF85020ADF84E3065
:10531000FBF73AFA1290FBF731FAADF84600FBF7CB
:1053200039FAADF8440047F28850C0F60000FBF7A8
:105330007BFA4FF6FF70FAF7EDFFFBF731FA014603
:105340006FF04F0000EB51000C90FBF733FA014671
:105350000C98283949F6CE62C0F601026B465A60B5
:1053600000220E921A6080B289B228230F931A4647
:10537000FBF7BCFBFBF714FA01466FF0130000EBE0
:1053800051000D90FBF716FA0E9A0F9B01460D98EF
:10539000283949F6C46EC0F6010EEC46CCF804E09C
:1053A000CCF8002080B289B21A46FBF79FFBFBF7CE
:1053B000F7F90146142000EB51001090FBF7FAF9C1
:1053C0000E9A0F9B01461098283949F6C96EC0F60F
:1053D000010EEC46CCF804E0CCF8002089B21A4665
:1053E000FBF784FBFFF786FDBDF95400BDF95210B1
:1053F000BDF95020BDF94E30FBF74CFBFFE70A200A
:10540000FEF7A4F840F6AC40C2F20000FBF722FA27
:1054100040F6A840C2F200000068002840F08A80F0
:10542000FFE740F6AC40C2F200000088012840F0DF
:105430008180FFE740F6A841C2F200014FF4967068
:105440000860FFF757FD40F6AC40C2F2000041880B
:105450000B9180880A90FBF7A3F901466FF04F008B
:1054600000EB51000990FBF7A5F9099A0A99034648
:105470000B98283BEE464FF0280CCEF804C0CEF82F
:1054800000C092B29BB201F0BFFB20B1FFE7002049
:105490008DF857004FE040F6AC40C2F20000418862
:1054A000089180880790FBF77BF901466FF01300A5
:1054B00000EB51000690FBF77DF9069A0799034629
:1054C0000898283BEE464FF0280CCEF804C0CEF8E2
:1054D00000C092B29BB201F097FB20B1FFE7012020
:1054E0008DF8570027E040F6AC40C2F2000041883A
:1054F000059180880390FBF753F90146142000EBD7
:1055000051000490FBF756F90399049A0346059855
:10551000283BEE464FF0280CCEF804C0CEF800C071
:105520009BB201F071FB20B1FFE702208DF857001C
:1055300001E0FFE763E79DF8570016B080BD00006B
:105540007047000040F67A41C2F20001087801304D
:10555000087070477047000080B582B0ADF8060053
:10556000ADF80410ADF80220ADF8003040F23C1068
:10557000C2F200000068C06988B1FFE740F23C1049
:10558000C2F200000068D0F81CC0BDF80600BDF8EB
:105590000410BDF80220BDF80030E047FFE702B07C
:1055A00080BD000080B540F68F41C2F200010020AE
:1055B0000870FFE740F69040C2F20000007848B162
:1055C000FFE7FFF705FA40F69041C2F20001002024
:1055D0000870FFE700F0DEF940F68F40C2F20000ED
:1055E000007830B1FFE740F68F40C2F2000000784B
:1055F00080BDDFE780B5FFE740F69040C2F20000D3
:10560000007848B1FFE7FFF747FA40F69041C2F251
:10561000000100200870FFE700F0BEF9ECE7000091
:1056200080B540F69141C2F200010020087040F6BA
:10563000C041C2F200010870FFE740F69040C2F29C
:105640000000007848B1FFE7FFF710FB40F69041FB
:10565000C2F2000100200870FFE700F0DDF940F61B
:105660009140C2F200000078012801D1FFE780BD1F
:10567000E3E7000080B540F6A840C2F200000068F1
:1056800040B1FFE740F6A841C2F2000108680138C6
:105690000860FFE740F27820C2F2000001680131A3
:1056A0000160006847F6D501C2F2E96148434FEA5C
:1056B000B00041F26E21C0F2830188420AD8FFE7B0
:1056C00040F60000C4F201001021C0F21041FCF7C6
:1056D0002BFCFFE780BD000080B582B00220FCF704
:1056E00029FAFFE7FCF71EFA022801D0FFE7F9E7E5
:1056F000FCF7D2FCFFE7FCF7D9FC012801D0FFE75B
:10570000F9E7FCF74BFCFCF793FCB0F5807F05D084
:10571000FFE7FCF76BFCFCF721FDFFE7FCF7CEFC95
:10572000FFE7FCF7D5FC012801D0FFE7F9E7FCF71C
:105730007FFCB0F5807F05D0FFE74FF48070FCF769
:1057400041FDFFE7FCF73EFC4FF480304FF4E011E1
:10575000FCF7C6FCFCF7D8FCFFE7FCF7F7FC0128D8
:1057600001D0FFE7F9E700200190FCF701FD4FF4BD
:105770008060FCF70BFD0198FCF716FD0220FCF79A
:105780002FFDFFE7FCF75CFC082801D0FFE7F9E7F5
:105790004AF20020C0F24A400090FCF7D9FB009882
:1057A000FDF7B2F902B080BD7047000040F2CC00B6
:1057B000C2F2000000680078C007C0B9FFE740F6F9
:1057C0009443C2F2000300201860022058600121B7
:1057D000996040F2CC00C2F200000268517001688A
:1057E00018685A689B68CB618A6148610FE040F293
:1057F000CC00C2F20000016848698A69CB6940F6B2
:105800009441C2F200018B604A600860FFE7704774
:1058100081B00090FFE70098411E009108B1FFE7BA
:10582000F9E701B07047000080B582B040F26D200A
:10583000C2F20000007848B9FFE700F04BF840F2F0
:105840006D21C2F2000101200870FFE740F20C1048
:10585000C4F22120006820B1FFE700208DF8070086
:1058600003E001208DF80700FFE79DF8070002B074
:1058700080BD000080B582B040F29011C4F22121B9
:10588000009100200860902000F09EF900F064F97B
:105890000099ADF8060001200860BDF80600C008B8
:1058A00002B080BD80B582B040F29011C4F22121D7
:1058B000009100200860D02000F086F900F04CF93B
:1058C0000099ADF8060001200860BDF80600C00888
:1058D00002B080BD41F21801C4F20201086840F034
:1058E0000400086040F29011C4F2212101200860F8
:1058F00040F29411C4F22121086040F29C11C4F2DC
:105900002121086040F60002C4F20102116804235C
:1059100063F30F31116011684FF0030C6CF3134106
:10592000116011684FF00B0C6CF317511160116886
:105930006CF31F711160116863F31B61116040F219
:105940003031C4F24221086043F20001C4F2010187
:1059500040F267300860086840F040000860704717
:1059600080B582B040F67940C2F200000078C007EE
:1059700068B9FFE74CF28651C0F600010868496833
:10598000019100900098019901F058FDFFE702B0E5
:1059900080BD00007047000080B586B040F6AC4086
:1059A000C2F20000FAF756FF40F6A840C2F200002B
:1059B000006878BBFFE740F6AC40C2F20000008808
:1059C000012827D1FFE740F6A841C2F20001642078
:1059D0000390086040F6AC40C2F200004188059197
:1059E00080880490FAF7E6FE039B04990246059826
:1059F0003C3AEC464FF03C0ECCF804E0CCF80030DA
:105A000093B2002201F000F918B1FFE7FFF708FE9A
:105A1000FFE7FFE706B080BD80B586B040F6AC403A
:105A2000C2F20000FAF716FF40F6A840C2F20000EA
:105A30000068002840F08E80FFE740F6AC40C2F2DC
:105A400000000088012840F08580FFE740F6A8406C
:105A5000C2F200006422026040F6AC41C2F20001D2
:105A6000488889886B465A603C221A6000231A468F
:105A700001F0CAF838B1FFE740F69141C2F20001E7
:105A800001200870FFE740F6AC40C2F200004188F8
:105A9000049180880390FAF78DFE039902460498DA
:105AA0003C3AEC463C23CCF804306423CCF800307C
:105AB00093B2002201F0A8F828B1FFE7FFF772FDCA
:105AC0008DF81700FFE740F6AC41C2F200014888AC
:105AD00089886B4633225A603C221A604FF4D27296
