:020000040800F2
:10000000681300200D020008F94F0008FD210008C8
:10001000F54F0008BD1C000815A5000800000000F1
:10002000000000000000000000000000E187000860
:10003000C11C000800000000D55B000861920008A8
:10004000270200082702000827020008215E000896
:1000500027020008270200082702000827020008DC
:1000600027020008951F0008270200082702000841
:1000700027020008270200082702000827020008BC
:1000800027020008270200082702000827020008AC
:10009000270200082702000827020008270200089C
:1000A000270200082702000827020008270200088C
:1000B000270200082702000827020008270200087C
:1000C000270200082702000827020008CD87000841
:1000D000D18700082702000827020008270200082D
:1000E000411F000827020008270200082702000815
:1000F000270200082702000827020008270200083C
:10010000270200082702000827020008270200082B
:10011000270200082702000827020008270200081B
:10012000270200082702000827020008270200080B
:1001300000F002F800F05AF80AA090E8000C82449F
:100140008344AAF10107DA4501D100F04FF8AFF27C
:10015000090EBAE80F0013F0010F18BFFB1A43F0A5
:10016000010318477C5703009C5703000A444FF0D3
:10017000000C10F8013B13F0070408BF10F8014B06
:100180001D1108BF10F8015B641E05D010F8016B4B
:10019000641E01F8016BF9D113F0080F1EBF10F8AF
:1001A000014BAD1C0C1B09D16D1E58BF01F801CBD2
:1001B000FAD505E014F8016B01F8016B6D1EF9D555
:1001C0009142D6D37047000000230024002500266A
:1001D000103A28BF78C1FBD8520728BF30C148BFAA
:1001E0000B6070471FB51FBD10B510BD00F05DF866
:1001F0001146FFF7F7FF0BF089FA00F07BF803B424
:10020000FFF7F2FF03BC00F07FF8000009488047C9
:1002100009480047FEE7FEE7FEE7FEE7FEE7FEE7E8
:10022000FEE7FEE7FEE7FEE704480549054A064B00
:10023000704700009593000831010008680D002008
:1002400068130020680F0020680F00204FF00002A4
:1002500000B5134694469646203922BFA0E80C50BC
:10026000A0E80C50B1F12001BFF4F7AF090728BF97
:10027000A0E80C5048BF0CC05DF804EB890028BF13
:1002800040F8042B08BF704748BF20F8022B11F03C
:10029000804F18BF00F8012B7047704770477047B8
:1002A000004870474802002070477546FFF7F8FF86
:1002B000AE4605006946534620F00700854618B053
:1002C00020B5FFF7B1FFBDE820404FF000064FF02A
:1002D00000074FF000084FF0000BAC46ACE8C00937
:1002E000ACE8C009ACE8C009ACE8C00921F00701DE
:1002F0008D46704710B50446AFF300802046BDE838
:100300001040FFF77CBF000001491820ABBEFEE79C
:100310002600020080B584B04FF2DE7001F07AFB57
:1003200040F2A5106E213A22672301F0EDFA4DF656
:100330001B7001F06FFB40F2C420C2F20000007895
:1003400018B9FFE70020039009E040F2C420C2F290
:100350000000007800EBC00080000390FFE70398E6
:10036000723081B240F2A9103222052301F0CCFA9A
:1003700040F2C420C2F20000007818B9FFE7002064
:10038000029009E040F2C420C2F20000007800EBC5
:10039000C00080000290FFE70298793081B240F2FD
:1003A000A9103222052301F0AFFA40F2C420C2F2B4
:1003B0000000007818B9FFE70020019009E040F242
:1003C000C420C2F20000007800EBC0008000019061
:1003D000FFE70198803081B240F2A9103222052354
:1003E00001F092FA40F2C521C2F20001002008702B
:1003F00004B080BD80B584B04FF2DE7001F00AFB1E
:1004000040F2A5106E213A22672301F07DFA4DF6E5
:100410001B7001F0FFFA40F66D40C2F20000007858
:1004200018B9FFE70020039009E040F66D40C2F2E2
:100430000000007800EBC00080000390FFE7039805
:10044000723081B240F2A9103222052301F05CFA29
:1004500040F66D40C2F20000007818B9FFE70020B6
:10046000029009E040F66D40C2F20000007800EB17
:10047000C00080000290FFE70298793081B240F21C
:10048000A9103222052301F03FFA40F66D40C2F276
:100490000000007818B9FFE70020019009E040F65D
:1004A0006D40C2F20000007800EBC00080000190B7
:1004B000FFE70198803081B240F2A9103222052373
:1004C00001F022FA40F66D41C2F2000100200870EE
:1004D00004B080BD80B584B04FF2DE7001F09AFAAE
:1004E00040F2A5106E213A22682301F00DFA4DF674
:1004F0001B7001F08FFA40F66E40C2F200000078E7
:1005000018B9FFE70020039009E040F66E40C2F200
:100510000000007800EBC00080000390FFE7039824
:10052000723081B240F2A9103222052301F0ECF9B9
:1005300040F66E40C2F20000007818B9FFE70020D4
:10054000029009E040F66E40C2F20000007800EB35
:10055000C00080000290FFE70298793081B240F23B
:10056000A9103222052301F0CFF940F66E40C2F205
:100570000000007818B9FFE70020019009E040F67C
:100580006E40C2F20000007800EBC00080000190D5
:10059000FFE70198803081B240F2A9103222052392
:1005A00001F0B2F940F66F41C2F20001002008707C
:1005B00004B080BD80B584B04FF2DE7001F02AFA3D
:1005C00040F2A5106E213A22682301F09DF94DF604
:1005D0001B7001F01FFA40F6E640C2F200000078FE
:1005E00018B9FFE70020039009E040F6E640C2F2A8
:1005F0000000007800EBC00080000390FFE7039844
:10060000723081B240F2A9103222052301F07CF948
:1006100040F6E640C2F20000007818B9FFE700207B
:10062000029009E040F6E640C2F20000007800EBDC
:10063000C00080000290FFE70298793081B240F25A
:10064000A9103222052301F05FF940F6E640C2F21C
:100650000000007818B9FFE70020019009E040F69B
:10066000E640C2F20000007800EBC000800001907C
:10067000FFE70198803081B240F2A91032220523B1
:1006800001F042F940F6E741C2F200010020087093
:1006900004B080BD80B584B04FF2DE7001F0BAF9CD
:1006A00040F2A5106E213A22672301F02DF94DF694
:1006B0001B7001F0AFF940F62150C2F20000007843
:1006C00018B9FFE70020039009E040F62150C2F27C
:1006D0000000007800EBC00080000390FFE7039863
:1006E000723081B240F2A9103222052301F00CF9D8
:1006F00040F62150C2F20000007818B9FFE7002050
:10070000029009E040F62150C2F20000007800EBB0
:10071000C00080000290FFE70298793081B240F279
:10072000A9103222052301F0EFF840F62150C2F261
:100730000000007818B9FFE70020019009E040F6BA
:100740002150C2F20000007800EBC0008000019050
:10075000FFE70198803081B240F2A91032220523D0
:1007600001F0D2F840F62251C2F2000100200870D8
:1007700004B080BD80B584B04FF2DE7001F04AF95C
:1007800040F2A5106E213A22682301F0BDF84DF623
:100790001B7001F03FF940F62350C2F200000078D0
:1007A00018B9FFE70020039009E040F62350C2F299
:1007B0000000007800EBC00080000390FFE7039882
:1007C000723081B240F2A9103222052301F09CF868
:1007D00040F62350C2F20000007818B9FFE700206D
:1007E000029009E040F62350C2F20000007800EBCE
:1007F000C00080000290FFE70298793081B240F299
:10080000A9103222052301F07FF840F62350C2F2EE
:100810000000007818B9FFE70020019009E040F6D9
:100820002350C2F20000007800EBC000800001906D
:10083000FFE70198803081B240F2A91032220523EF
:1008400001F062F840F62451C2F200010020087065
:1008500004B080BD80B586B04DF61B70029001F0EB
:10086000C3F80020039001F0D5F840F20C10C2F25A
:10087000000000680AF040F802464FF4B97040F2F8
:10088000111104910323059300F05EFD029801F01D
:10089000ABF8039801F0BEF840F28010C2F20000FD
:1008A00000680AF029F80499059B02464FF4CD70C0
:1008B00000F04AFD0AF000F98079C00798B9FFE717
:1008C0004DF61B7001F090F8002001F0A3F845F2FE
:1008D000DF62C0F603024FF4C87040F20F11032329
:1008E00000F032FD13E04DF61B70019001F07CF832
:1008F000019801F08FF845F2DF62C0F603024FF471
:10090000C87040F20F11032300F01EFDFFE706B090
:1009100080BD000080B586B04DF61B70029001F0DE
:1009200063F80020039001F075F840F20C10C2F259
:100930000000006809F0E0FF02464FF4B97040F291
:10094000111104910323059300F0FEFC029801F0BD
:100950004BF8039801F05EF840F28010C2F20000FC
:10096000006809F0C9FF0499059B02464FF4CD7059
:1009700000F0EAFC0AF0A0F88079C00798B9FFE718
:100980004DF61B7001F030F8002001F043F845F2FD
:10099000DF62C0F603024FF4C87040F20F11032368
:1009A00000F0D2FC13E04DF61B70019001F01CF832
:1009B000019801F02FF845F2DF62C0F603024FF410
:1009C000C87040F20F11032300F0BEFCFFE706B031
:1009D00080BD000080B586B04DF61B70029001F01E
:1009E00003F80020039001F015F840F20C10C2F259
:1009F0000000006809F080FF02464FF4B97040F231
:100A0000111104910323059300F09EFC029800F05D
:100A1000EBFF039800F0FEFF40F28010C2F20000EE
:100A2000006809F069FF0499059B02464FF4CD70F8
:100A300000F08AFC0AF040F88079C00798B9FFE717
:100A40004DF61B7000F0D0FF002000F0E3FF45F2F0
:100A5000DF62C0F603024FF4C87040F20F110323A7
:100A600000F072FC13E04DF61B70019000F0BCFF2B
:100A7000019800F0CFFF45F2DF62C0F603024FF4A9
:100A8000C87040F20F11032300F05EFCFFE706B0D0
:100A900080BD000080B586B04DF61B70029000F05E
:100AA000A3FF0020039000F0B5FF40F20C10C2F24B
:100AB0000000006809F020FF02464FF4B97040F2D0
:100AC000111104910323059300F03EFC029800F0FD
:100AD0008BFF039800F09EFF40F28010C2F20000EE
:100AE000006809F009FF0499059B02464FF4CD7098
:100AF00000F02AFC09F0E0FF8079C00798B9FFE711
:100B00004DF61B7000F070FF002000F083FF45F2EF
:100B1000DF62C0F603024FF4C87040F20F110323E6
:100B200000F012FC13E04DF61B70019000F05CFF2A
:100B3000019800F06FFF45F2DF62C0F603024FF448
:100B4000C87040F20F11032300F0FEFBFFE706B070
:100B500080BD000080B586B04DF61B70029000F09D
:100B600043FF0020039000F055FF40F20C10C2F24A
:100B70000000006809F0C0FE02464FF4B97040F270
:100B8000111104910323059300F0DEFB029800F09D
:100B90002BFF039800F03EFF40F28010C2F20000ED
:100BA000006809F0A9FE0499059B02464FF4CD7038
:100BB00000F0CAFB09F080FF8079C00798B9FFE711
:100BC0004DF61B7000F010FF002000F023FF45F2EF
:100BD000DF62C0F603024FF4C87040F20F11032326
:100BE00000F0B2FB13E04DF61B70019000F0FCFE2C
:100BF000019800F00FFF45F2DF62C0F603024FF4E8
:100C0000C87040F20F11032300F09EFBFFE706B00F
:100C100080BD000080B586B04DF61B70029000F0DC
:100C2000E3FE0020039000F0F5FE40F20C10C2F24B
:100C30000000006809F060FE02464FF4B97040F20F
:100C4000111104910323059300F07EFB029800F03C
:100C5000CBFE039800F0DEFE40F28010C2F20000EE
:100C6000006809F049FE0499059B02464FF4CD70D7
:100C700000F06AFB09F020FF8079C00798B9FFE710
:100C80004DF61B7000F0B0FE002000F0C3FE45F2F0
:100C9000DF62C0F603024FF4C87040F20F11032365
:100CA00000F052FB13E04DF61B70019000F09CFE2B
:100CB000019800F0AFFE45F2DF62C0F603024FF488
:100CC000C87040F20F11032300F03EFBFFE706B0AF
:100CD00080BD000080B586B04FF6FF70029000F036
:100CE00083FE0020039000F095FE40F20C10C2F24B
:100CF0000000006809F000FE0246DC20CB210491D0
:100D00000323059300F020FB029800F06DFE03988A
:100D100000F080FE40F28010C2F20000006809F08E
:100D2000EBFD0499059B02464FF4827000F00CFB2A
:100D300009F0C2FE8079C00788B9FFE74FF6FF705F
:100D400000F052FE002000F065FE45F2DF62C0F6C2
:100D50000302FA20C921032300F0F6FA11E04FF64E
:100D6000FF70019000F040FE019800F053FE45F244
:100D7000DF62C0F60302FA20C921032300F0E4FA7F
:100D8000FFE706B080BD000080B586B04DF61B7051
:100D9000029000F029FE0020039000F03BFE40F29C
:100DA0000C10C2F20000006809F0A6FD02464FF4E4
:100DB000B97040F2111104910323059300F0C4FAB5
:100DC000029800F011FE039800F024FE40F280101B
:100DD000C2F20000006809F08FFD0499059B0246ED
:100DE0004FF4CD7000F0B0FA09F066FE8079C007CC
:100DF00098B9FFE74DF61B7000F0F6FD002000F0FB
:100E000009FE45F2DF62C0F603024FF4C87040F2FB
:100E10000F11032300F098FA13E04DF61B700190B8
:100E200000F0E2FD019800F0F5FD45F2DF62C0F64A
:100E300003024FF4C87040F20F11032300F084FA4C
:100E4000FFE706B080BD000080B586B04DF61B7090
:100E5000029000F0C9FD0020039000F0DBFD40F29D
:100E60000C10C2F20000006809F046FD02464FF483
:100E7000B97040F2111104910323059300F064FA54
:100E8000029800F0B1FD039800F0C4FD40F280101C
:100E9000C2F20000006809F02FFD0499059B02468C
:100EA0004FF4CD7000F050FA09F006FE8079C007CB
:100EB00098B9FFE74DF61B7000F096FD002000F09A
:100EC000A9FD45F2DF62C0F603024FF4C87040F29C
:100ED0000F11032300F038FA13E04DF61B70019058
:100EE00000F082FD019800F095FD45F2DF62C0F64A
:100EF00003024FF4C87040F20F11032300F024FAEC
:100F0000FFE706B080BD000080B586B04DF61B70CF
:100F1000029000F069FD0020039000F07BFD40F29C
:100F20000C10C2F20000006809F0E6FC02464FF423
:100F3000B97040F2111104910323059300F004FAF3
:100F4000029800F051FD039800F064FD40F280101B
:100F5000C2F20000006809F0CFFC0499059B02462C
:100F60004FF4CD7000F0F0F909F0A6FD8079C007CC
:100F700098B9FFE74DF61B7000F036FD002000F039
:100F800049FD45F2DF62C0F603024FF4C87040F23B
:100F90000F11032300F0D8F913E04DF61B700190F8
:100FA00000F022FD019800F035FD45F2DF62C0F649
:100FB00003024FF4C87040F20F11032300F0C4F98C
:100FC000FFE706B080BD000080B586B04DF61B700F
:100FD000029000F009FD0020039000F01BFD40F29C
:100FE0000C10C2F20000006809F086FC02464FF4C3
:100FF000B97040F2111104910323059300F0A4F994
:10100000029800F0F1FC039800F004FD40F280101B
:10101000C2F20000006809F06FFC0499059B0246CB
:101020004FF4CD7000F090F909F046FD8079C007CB
:1010300098B9FFE74DF61B7000F0D6FC002000F0D9
:10104000E9FC45F2DF62C0F603024FF4C87040F2DB
:101050000F11032300F078F913E04DF61B70019097
:1010600000F0C2FC019800F0D5FC45F2DF62C0F64A
:1010700003024FF4C87040F20F11032300F064F92B
:10108000FFE706B080BD000080B586B04DF61B704E
:10109000029000F0A9FC0020039000F0BBFC40F29D
:1010A0000C10C2F20000006809F026FC02464FF462
:1010B000B97040F2111104910323059300F044F933
:1010C000029800F091FC039800F0A4FC40F280101C
:1010D000C2F20000006809F00FFC0499059B02466B
:1010E0004FF4CD7000F030F909F0E6FC8079C007CC
:1010F00098B9FFE74DF61B7000F076FC002000F079
:1011000089FC45F2DF62C0F603024FF4C87040F27A
:101110000F11032300F018F913E04DF61B70019036
:1011200000F062FC019800F075FC45F2DF62C0F649
:1011300003024FF4C87040F20F11032300F004F9CA
:10114000FFE706B080BD000080B586B04DF61B708D
:10115000029000F049FC0020039000F05BFC40F29C
:101160000C10C2F20000006809F0C6FB02464FF402
:10117000B97040F2111104910323059300F0E4F8D3
:10118000029800F031FC039800F044FC40F280101B
:10119000C2F20000006809F0AFFB0499059B02460B
:1011A0004FF4CD7000F0D0F809F086FC8079C007CC
:1011B00098B9FFE74DF61B7000F016FC002000F018
:1011C00029FC45F2DF62C0F603024FF4C87040F21A
:1011D0000F11032300F0B8F813E04DF61B700190D7
:1011E00000F002FC019800F015FC45F2DF62C0F649
:1011F00003024FF4C87040F20F11032300F0A4F86B
:10120000FFE706B080BD000080B586B04DF61B70CC
:10121000029000F0E9FB0020039000F0FBFB40F29D
:101220000C10C2F20000006809F066FB02464FF4A1
:10123000B97040F2111104910323059300F084F872
:10124000029800F0D1FB039800F0E4FB40F280101C
:10125000C2F20000006809F04FFB0499059B0246AA
:101260004FF4CD7000F070F809F026FC8079C007CB
:1012700098B9FFE74DF61B7000F0B6FB002000F0B8
:10128000C9FB45F2DF62C0F603024FF4C87040F2BA
:101290000F11032300F058F813E04DF61B70019076
:1012A00000F0A2FB019800F0B5FB45F2DF62C0F64A
:1012B00003024FF4C87040F20F11032300F044F80A
:1012C000FFE706B080BD000080B584B0ADF80E0029
:1012D00040F27C10C2F200000068806B029000F0C7
:1012E0004BFB019000F052FB019ADDF808C0034669
:1012F000BDF80E006946086000210846E04704B0CA
:1013000080BD000080B586B0ADF81600ADF81410B1
:101310000492BDF816000390BDF81400029040F24C
:10132000A820C2F20000806801909DF8100009F02A
:1013300029FA019A02990346039802EB8302526844
:1013400000F026FD06B080BD80B58EB0ADF8360049
:10135000ADF834100C928DF82F300120ADF82C0030
:101360000020ADF82A000990089007900C9806908C
:10137000069809F07DFB0790FFE70698411C06914F
:10138000007820B1FFE7099801300990F5E700F0F7
:10139000F3FA0799B0FBF1F00999B0FBF1F008906E
:1013A0009DF82F0001460491012808D0FFE704981A
:1013B000022811D0FFE70498032808D013E0BDF8F5
:1013C00036000799A0EB5100ADF82C0010E0BDF8F5
:1013D0003600ADF82C000BE0BDF836100798401A27
:1013E000ADF82C0004E0BDF83600ADF82C00FFE7A6
:1013F00040F2A820C2F20000806803900C980078A8
:1014000009F0C0F90146039800EB810040680088AC
:10141000ADF81600FFE70C980078002818BF0120EF
:10142000029000F0A9FA01460298BDF82C20891A12
:10143000BDF81630CA1A00219A42A8BF01210842FD
:101440002AD0FFE7BDF82C00BDF834100C9A1278B2
:10145000FFF758FFBDF81610BDF82C000844ADF892
:101460002C000C9801300C90BDF82A000130ADF82A
:101470002A0040F2A820C2F20000806801900C9877
:10148000007809F07FF90146019800EB810040687F
:101490000088ADF81600BEE70EB080BD80B586B0FE
:1014A000ADF81600ADF8141004920020ADF80E004F
:1014B000ADF80C000498029002980088ADF80C007A
:1014C00002984088ADF80E00BDF81600BDF8141063
:1014D000BDF80C20BDF80E3007F084F940F27C1006
:1014E000C2F200000068006B68B1FFE740F27C10B8
:1014F000C2F200000068036BBDF81600BDF81410BE
:10150000049A9847FFE700F037FA019000F03EFA9E
:10151000019A03460021084607F064F906B080BD31
:1015200080B584B0ADF80E00ADF80C10ADF80A200F
:101530000020019040F27C10C2F200000068006AB6
:10154000A0B1FFE740F27C10C2F200000068D0F8C2
:1015500020C040F2A820C2F200000088BDF80E10A2
:10156000BDF80C20BDF80A30E0471CE000200190D7
:10157000FFE70198BDF80A10884213D2FFE7BDF8D3
:101580000E0001990844BDF80C1040F2A822C2F2E6
:101590000002128880B200F01BF9FFE701980130C9
:1015A0000190E6E7FFE704B080BD000080B58CB095
:1015B000ADF82E00ADF82C10ADF82A20ADF828308B
:1015C00000200290ADF82600ADF82400ADF822000E
:1015D000ADF82000ADF81E00ADF81C00ADF81A0003
:1015E000ADF81800ADF81600ADF81400ADF8120013
:1015F000ADF81000ADF80E00BDF82A00BDF82E10B1
:10160000401A012807DBFFE7BDF82A00BDF82E10BD
:10161000401A019006E0BDF82A10BDF82E00401ACD
:101620000190FFE70198ADF82600BDF82800BDF84D
:101630002C10401A012807DBFFE7BDF82800BDF891
:101640002C10401A009006E0BDF82810BDF82C00C0
:10165000401A0090FFE70098ADF82400BDF82E0076
:10166000ADF82200BDF82C00ADF82000BDF82A002E
:10167000BDF82E10884206DBFFE70120ADF81E0002
:10168000ADF81C0006E04FF6FF70ADF81E00ADF897
:101690001C00FFE7BDF82800BDF82C10884206DBCF
:1016A000FFE70120ADF81A00ADF8180006E04FF68C
:1016B000FF70ADF81A00ADF81800FFE7BDF926007D
:1016C000BDF92410884219DBFFE70020ADF81E00A9
:1016D000ADF81800BDF82600ADF81600BDF92600DB
:1016E00000EBD0704008ADF81400BDF82400ADF850
:1016F0001200BDF82600ADF8100018E00020ADF88B
:101700001C00ADF81A00BDF82400ADF81600BDF9B4
:10171000240000EBD0704008ADF81400BDF826009E
:10172000ADF81200BDF82400ADF81000FFE700206E
:10173000ADF80E00FFE7BDF90E00BDF910108842AC
:1017400044DCFFE7BDF82200BDF8201040F2A822DB
:10175000C2F20002128800F03BF8BDF81210BDF88A
:1017600014000844ADF81400BDF91400BDF91610BA
:10177000884216DBFFE7BDF81610BDF81400401ACA
:10178000ADF81400BDF81E10BDF822000844ADF8F5
:101790002200BDF81A10BDF820000844ADF8200062
:1017A000FFE7BDF81C10BDF822000844ADF8220088
:1017B000BDF81810BDF820000844ADF82000FFE780
:1017C000BDF80E000130ADF80E00B4E70CB080BDDE
:1017D00080B582B0ADF80600ADF80410ADF8022077
:1017E00040F27C10C2F200000068406970B1FFE76F
:1017F00040F27C10C2F2000000684369BDF80600A8
:10180000BDF80410BDF802209847FFE702B080BD84
:1018100080B582B0ADF80600ADF80410ADF8022036
:10182000ADF80030BDF80600BDF80410BDF8022088
:10183000FFF776FEBDF80600BDF80410BDF80020E5
:1018400011440139BDF8022089B2FFF769FEBDF8E5
:101850000600BDF80410BDF8002000F00FF8BDF838
:101860000600BDF8021008440138BDF80410BDF8A8
:10187000002080B200F002F802B080BD80B584B0D4
:10188000ADF80E00ADF80C10ADF80A200020019064
:1018900040F27C10C2F200000068406AA0B1FFE78D
:1018A00040F27C10C2F200000068D0F824C040F280
:1018B000A820C2F200000088BDF80E10BDF80C2070
:1018C000BDF80A30E0471CE000200190FFE70198D6
:1018D000BDF80A10884213D2FFE7BDF80E00BDF82C
:1018E0000C10019A114440F2A822C2F200021288A0
:1018F00089B2FFF76DFFFFE7019801300190E6E73D
:10190000FFE704B080BD000010B584B0ADF80E0054
:10191000ADF80C10ADF80A20ADF8083040F27C109C
:10192000C2F200000068D0F838C0BDF80E00BDF863
:101930000C10BDF80A20BDF8083040F2A82EC2F203
:10194000000EBEF800E06C46C4F800E0E04704B0CA
:1019500010BD000040F2A820C2F20000808870474D
:1019600040F2A820C2F200008068704740F2A82030
:10197000C2F200000088704780B540F27C10C2F2CD
:1019800000000068806A804780BD000080B540F29A
:101990007C10C2F200000068C06A804780BD000071
:1019A00080B582B001208DF8070040F27C10C2F2B1
:1019B000000000680068804740F2A822C2F20002DE
:1019C0004FF6FF7050600021009111604CF2686189
:1019D000C0F600019160FFF777FC00988DF80700D2
:1019E0009DF8070002B080BD81B0ADF80200BDF8DF
:1019F000020040F2A821C2F20001486001B0704725
:101A000081B00090009840F2A821C2F200018860E5
:101A100001B0704781B0ADF80200BDF8020040F29D
:101A2000A821C2F20001086001B0704780B588B0FB
:101A3000079000208DF80700FFE79DF807000928B0
:101A400014DCFFE740F24020C2F2000000680169A8
:101A500000208847079908800A2002F075FFFFE7F9
:101A60009DF8070001308DF80700E6E740F24020BE
:101A7000C2F20000006801690020884707990880C9
:101A80000798008800287AD0FFE740F24020C2F291
:101A900000000068436900200DF11A0106AA98476A
:101AA000BDF81A000590BDF8180004900598079934
:101AB000886004980799C860059840F6E041C2F232
:101AC0000001B1F900104843C11700EB915140F2F9
:101AD000C620C2F20000B0F9000000EBA120039084
:101AE000049840F6E241C2F20001B1F90010484307
:101AF000C11700EB915140F2C820C2F20000B0F9CA
:101B0000000000EBA12002900398B0F1FF3F03DC3E
:101B1000FFE70020039011E0039840F2BC21C2F2DD
:101B200000010988884208DBFFE740F2BC20C2F2CE
:101B30000000008801380390FFE7FFE70298B0F14A
:101B4000FF3F03DCFFE70020029011E0029840F223
:101B5000BE21C2F200010988884208DBFFE740F29B
:101B6000BE20C2F20000008801380290FFE7FFE7C4
:101B7000039807994880029807998880FFE708B082
:101B800080BD000080B582B0ADF80600ADF804104D
:101B900001208DF80300BDF8060040F2BC21C2F21E
:101BA00000010880BDF8040040F2BE21C2F200012D
:101BB000088040F20810C2F2000000680078C007F8
:101BC00018B9FFE706F04CFB34E040F63050C2F2A3
:101BD00000008068012808D1FFE740F63050C2F2CB
:101BE00000004068022803D0FFE706F039FB20E040
:101BF00040F20810C2F200000168096A40F6E042B3
:101C0000C2F2000211800168896A40F2C622C2F263
:101C1000000211800168496A40F6E242C2F2000205
:101C200011800068C06A40F2C821C2F20001088039
:101C3000FFE7FFE740F24020C2F20000006820B159
:101C4000FFE700208DF80300FFE79DF8030048B987
:101C5000FFE740F24020C2F2000000680168002067
:101C60008847FFE79DF8030002B080BD82B0ADF861
:101C70000600ADF80410ADF80220ADF80030BDF854
:101C8000060040F6E041C2F200010880BDF8040001
:101C900040F6E241C2F200010880BDF8020040F2C5
:101CA000C621C2F200010880BDF8000040F2C82140
:101CB000C2F20001088002B070470000FFE7FEE7B3
:101CC0007047000080B58AB084460D980C98ADF836
:101CD00026C0ADF82410ADF82220ADF820308DF8E4
:101CE0001F009DF81F00012809D1FFE74DF61B706A
:101CF0000290FFF78FFE0298FFF776FE08E04FF2A2
:101D0000DE700190FFF786FE0198FFF76DFEFFE79A
:101D1000BDF82600BDF82410BDF82220BDF8203003
:101D2000FFF7F2FD00200090FFF774FE4CF26860B0
:101D3000C0F60000FFF764FE0098069005900D982D
:101D40000490FFE70498411C0491007820B1FFE75C
:101D5000069801300690F5E7BDF82210BDF8260080
:101D600000EB5100ADF80E00BDF82010BDF82400C6
:101D700000EB51000C38ADF80C00BDF80E00BDF8BA
:101D80000C100D9A0123FFF7DFFA0AB080BD0000A6
:101D900080B58CB0ADF82E00ADF82C100A92002062
:101DA000ADF82600ADF8240040F2A821C2F20001EF
:101DB00089680988ADF826100A9908910899098858
:101DC000ADF8241040F2CA21C2F200010791BDF81B
:101DD0002610079A5180BDF82410079A1180BDF88B
:101DE0002410BDF826205143079A516080210691A6
:101DF00005900490BDF82400C0080390BDF82400AD
:101E0000400720B1FFE7039801300390FFE70898EF
:101E1000049A039B059902FB0312104401310591BA
:101E200080788DF80B0000200190FFE70198BDF845
:101E30002610BDF824205143B0EB410F73DAFFE7C1
:101E40009DF80B000699084212D0FFE740F2A82047
:101E5000C2F200000168090A019B40F2CA22C2F2E4
:101E6000000213445972006801991144087219E084
:101E700040F2A820C2F200004168090A8DF8031060
:101E800040688DF802009DF80300019940F2CA22D3
:101E9000C2F20002114448729DF8020001991144F7
:101EA0000872FFE7069840100690069870B1FFE7A9
:101EB000019800EBD071012000EB6102BDF8241005
:101EC00092FBF1F000FB112040BBFFE7059803995E
:101ED00088420DD1FFE7002005900498013004905E
:101EE0000498BDF82610884201D1FFE71BE0FFE708
:101EF000802006900498BDF82610884201DBFFE799
:101F000011E00898049A039B059902FB0312104400
:101F10000131059180788DF80B00FFE7FFE701980C
:101F20000230019082E7BDF82E00BDF82C1040F27F
:101F3000CA22C2F20002FFF7B1FA0CB080BD000065
:101F400080B54FF4006000F0DBFFB8B1FFE74FF45D
:101F5000006000F097FE40F60000C4F20100082186
:101F6000C0F2084101F03EF938B9FFE740F61851D8
:101F7000C2F2000101200870FFE7FFE74FF40040C4
:101F800000F0BEFF28B1FFE74FF4004000F07AFEFA
:101F9000FFE780BD80B5082000F0B2FFC0B1FFE7C9
:101FA000082000F06FFE40F60000C4F2010040F689
:101FB000080101F017F938B9FFE740F61851C2F2ED
:101FC000000101200870FFE7082000F05BFEFFE73A
:101FD00080BD000081B0EFF3108072B60090FFE783
:101FE000FEE7000080B582B0EFF3108072B601907A
:101FF000FFE742F20C00C4F202000068C00708B11B
:10200000FFE7F6E709F038FF42F20C00C4F20200E5
:1020100000688006002809D5FFE742F20C01C4F2EF
:102020000201086840F020000860FFE742F210015A
:10203000C4F20201086840F00200086042F2140293
:10204000C4F202020020C0F604001060086840F0EC
:1020500040000860FFE742F20C00C4F20200006892
:102060008006002801D4FFE7F5E742F20C01C4F234
:1020700002012020086042F21001C4F20201086847
:1020800020F00200086009F039FB62B6012002B0BE
:1020900080BD000080B540F67040C2F200000078BC
:1020A000C00718B9FFE709F0C9FAFFE740F670402A
:1020B000C2F2000080BD000080B586B0FFF792FF3D
:1020C00020B9FFE701208DF8130092E0EFF31080B4
:1020D00072B60590FFE742F20C00C4F202000068FD
:1020E000C00708B1FFE7F6E709F0C6FE42F20C00B0
:1020F000C4F2020000688006002809D5FFE742F21A
:102100000C01C4F20201086840F020000860FFE7FB
:1021100042F21001C4F20201086840F001000860B8
:1021200040F67040C2F20000043003900C20029090
:1021300000208DF80700FFE79DF807000299B0EB3B
:10214000410F41D2FFE7039800889DF80720002146
:10215000C0F6040121F81200039802300390FFE753
:1021600042F20C00C4F202000068800600281ED46F
:10217000FFE742F20C00C4F20200006840070028AA
:1021800014D5FFE709F0BAFA42F21001C4F20201D5
:10219000086820F00100086042F20C01C4F202015C
:1021A0000420086001208DF8130022E0D8E742F2F5
:1021B0000C01C4F2020120200860FFE79DF807002F
:1021C00001308DF80700B7E742F21001C4F20201B6
:1021D000086820F00100086009F090FA40F67041AC
:1021E000C2F200010020487062B601208DF8130091
:1021F000FFE79DF8130006B080BD0000FFE7FEE793
:1022000080B584B09020039040F64850C2F20000A0
:10221000FFF70CFC40F64450C2F2000000680028B2
:1022200040F0FC80FFE740F64850C2F20000008812
:10223000012840F0F380FFE740F64451C2F200016C
:102240006420086040F61C50C2F2000000684EF2A4
:10225000FE01C0F2F551884200F3CB80FFE740F663
:102260004851C2F20001488889886B462E225A6084
:102270003C221A600022792309F062F918B1FFE7C5
:1022800000200390FFE740F64851C2F20001488861
:1022900089886B462E225A603C221A60792309F005
:1022A0004FF918B1FFE701200390FFE740F64851CE
:1022B000C2F20001488889886B462E225A603C226F
:1022C0001A607822792309F03BF918B1FFE7022060
:1022D0000390FFE740F64851C2F200014888898820
:1022E0006B462E225A603C221A60B422792309F0F0
:1022F00027F918B1FFE703200390FFE740F64851A4
:10230000C2F20001488889886B462E225A603C221E
:102310001A60F022792309F013F918B1FFE70420BD
:102320000390FFE740F64851C2F2000148888988CF
:102330006B462E225A603C221A604FF49672792323
:1023400009F0FEF818B1FFE705200390FFE740F61B
:102350004851C2F20001488889886B462E225A6093
:102360003C221A604FF4B472792309F0E9F818B1ED
:10237000FFE706200390FFE740F64851C2F2000154
:10238000488889886B462E225A603C221A604FF496
:10239000D272792309F0D4F818B1FFE7072003902F
:1023A000FFE740F64851C2F20001488889886B4631
:1023B0002E225A603C221A600022A62309F0C0F89F
:1023C00018B1FFE708200390FFE740F64851C2F23A
:1023D0000001488889886B462E225A603C221A6088
:1023E000A62309F0ADF818B1FFE709200390FFE735
:1023F000FFE740F64851C2F20001488889886B46E1
:102400002E225A603C221A607822A62309F098F8FE
:1024100018B1FFE70A200390FFE7FFE79DF80C00E3
:1024200004B080BD80B582B00190019802F08CFAB2
:1024300002B080BD81B08DF803009DF8030038B173
:10244000FFE740F29811C4F222210120086006E063
:1024500040F29811C4F2222100200860FFE701B089
:102460007047000081B00090FFE70098411E009186
:1024700008B1FFE7F9E701B07047000080B582B00E
:1024800041F21801C4F20201086840F01C00086023
:1024900040F28011C4F221210091012001900860D6
:1024A00040F6000CC4F2010CDCF80010022363F3C8
:1024B0000301CCF8001040F29811C4F22221086008
:1024C00041F20002C4F20102116863F31B61116062
:1024D00040F28411C4F22121086040F29011C4F24C
:1024E0002221086040F28811C4F22121086040F2E4
:1024F0009411C4F222210860DCF80010032363F376
:102500000711CCF80010116863F313411160DCF877
:10251000001063F30B21CCF80010116863F317511E
:10252000116040F60042C4F201024FF033311160F5
:1025300040F60442C4F201021160FFF773FF009AF3
:10254000019800211160FFF76DFF00990198086064
:10255000FFF768FF02B080BD80B590B08DF83F00F6
:102560000E910D920C9340F28411C4F221210020AF
:10257000086040F29011C4F22221099108609DF890
:102580003F2040F6E441C2F200010A80098840F68B
:102590000C42C4F20102116040F28811C4F2212100
:1025A000089108600720FFF75DFF089A099901204C
:1025B0001060086040F60041C4F201014FF0443061
:1025C000086040F60441C4F201010860FFE70C987E
:1025D000411E0C9170B1FFE740F29411C4F2222128
:1025E0000791002008601120FFF73CFF07990120A8
:1025F0000860ECE7FFE70D98411E0D91002874D0AC
:10260000FFE740F29411C4F22221059100200190CD
:10261000086011200290FFF725FF01990298059AA2
:1026200040F60843C4F201030393D3F800C040F618
:10263000E443C2F200030493A3F800C01B88ADF882
:1026400028300123069313601160FFF70BFF0199F7
:102650000298DDF810C0059A069BDDF80CE0DEF864
:1026600000E0ACF800E0BCF800C0ADF82AC0136090
:102670001160FFF7F7FE039B049A059906981B6803
:1026800013801288ADF82C2008609DF828209DF852
:1026900029009DF82B1000F0F800000202F0FC0267
:1026A00040EAC20040EAD1000E9908800E9802303C
:1026B0000E900D98C0B1FFE79DF82A009DF82C10F0
:1026C0009DF82D2000F0F800000202F0FC0240EA24
:1026D000C20040EAD1000E9908800E9802300E9098
:1026E0000D9801380D90FFE785E740F28411C4F2A0
:1026F00021210120086040F60041C4F201014FF0A1
:102700003330086040F60441C4F20101086010B0A3
:1027100080BD000080B58AB08DF82700089107922F
:10272000069340F28411C4F221210020086040F297
:102730009011C4F22221049108609DF8272040F6F0
:10274000E441C2F200010A80098840F60C42C4F25A
:102750000102116040F28811C4F221210391086046
:102760000720FFF77FFE039A04990120106008609C
:1027700040F60041C4F201014FF04430086040F6D9
:102780000441C4F201010860FFE70698411E06916A
:1027900070B1FFE740F29411C4F2222102910020AF
:1027A00008601120FFF75EFE029901200860ECE747
:1027B000FFE70798411E079110B3FFE740F294111D
:1027C000C4F222210191002008601120FFF74AFE87
:1027D000019940F60840C4F20100026840F6E44066
:1027E000C2F2000002800088ADF8160001200860E7
:1027F0009DF8160008990870089801300890D8E7ED
:1028000040F28411C4F221210120086040F6004109
:10281000C4F201014FF03330086040F60441C4F2C5
:10282000010108600AB080BD80B584B08DF80F004A
:1028300040F28411C4F2212102910020086040F28C
:102840009011C4F22221019108609DF80F2040F6FA
:10285000E441C2F200010A80098840F60C42C4F249
:102860000102116040F28811C4F221210091086038
:102870000720FFF7F7FD009B019A029901201860DD
:102880001060086004B080BD80B586B08DF8170078
:10289000ADF81410049240F28411C4F221210020FA
:1028A000086040F29011C4F22221039108609DF863
:1028B000172040F6E441C2F200010A80098840F680
:1028C0000C42C4F20102116040F28811C4F22121CD
:1028D000029108600720FFF7C5FD029A03990120C5
:1028E00010600860FFE70498411E0491D8B1FFE72B
:1028F000BDF8141040F6E440C2F2000001800088E8
:1029000040F60C41C4F20101086040F28811C4F2A3
:1029100021210191002008600720FFF7A3FD019904
:1029200001200860DFE740F28411C4F22121012078
:10293000086006B080BD000080B586B08DF8170035
:102940000491039240F28411C4F221210020086016
:1029500040F29011C4F22221029108609DF81720E4
:1029600040F6E441C2F200010A80098840F60C42B8
:10297000C4F20102116040F28811C4F221210191D8
:1029800008600720FFF76EFD019A02990120106090
:102990000860FFE70398411E0391F0B1FFE7049838
:1029A000018840F6E440C2F200000180008840F651
:1029B0000C41C4F20101086040F28811C4F22121E7
:1029C0000091002008600720FFF74CFD00990120CE
:1029D0000860049802300490DCE740F28411C4F2ED
:1029E00021210120086006B080BD000080B586B0BE
:1029F0008DF817000491039240F28411C4F2212152
:102A00000020086040F29011C4F222210291086077
:102A10009DF8172040F6E441C2F200010A800988BF
:102A200040F60C42C4F20102116040F28811C4F277
:102A30002121019108600720FFF714FD019A0299F6
:102A4000012010600860FFE70398411E0391F0B178
:102A5000FFE70498017840F6E440C2F200000180EC
:102A6000008840F60C41C4F20101086040F2881170
:102A7000C4F221210091002008600720FFF7F2FC3A
:102A8000009901200860049801300490DCE740F2CE
:102A90008411C4F221210120086006B080BD00002D
:102AA00080B584B0ADF80E0040F28411C4F221214B
:102AB000029100200860BDF80E2040F6E441C2F209
:102AC00000010A80098840F60C42C4F2010211603C
:102AD00040F28811C4F22121019108600720FFF71C
:102AE000C1FC019A029901201060086004B080BD09
:102AF00080B584B08DF80F0040F28411C4F221211A
:102B00000291002008609DF80F2040F6E441C2F2D7
:102B100000010A80098840F60C42C4F201021160EB
:102B200040F28811C4F22121019108600720FFF7CB
:102B300099FC019A029901201060086004B080BDE0
:102B400082B00190019A41F21C00C4F202000168B7
:102B5000114301600068019908400090009802B09C
:102B60007047000082B00190019A41F21C00C4F24B
:102B7000020001681143016000680199084000905B
:102B8000009802B07047000082B00190019A41F2B3
:102B90001C00C4F202000168114301600068019941
:102BA00008400090009802B07047000082B0019089
:102BB000019A41F21C00C4F2020001681143016055
:102BC0000068019908400090009802B0704700002A
:102BD00082B00190019A41F21800C4F2020001682B
:102BE000114301600068019908400090009802B00C
:102BF0007047000082B00190019A41F21800C4F2BF
:102C000002000168114301600068019908400090CA
:102C1000009802B07047000082B00190019A41F222
:102C20001800C4F2020001681143016000680199B4
:102C300008400090009802B07047000082B00190F8
:102C4000019A41F21800C4F20200016811430160C8
:102C50000068019908400090009802B07047000099
:102C600082B00190019A41F21800C4F2020001689A
:102C7000114301600068019908400090009802B07B
:102C80007047000081B00090009840F21441C4F2F7
:102C90000101086001B0704781B00090009A40F2D5
:102CA0000441C4F2010108689043086001B0704714
:102CB00081B00090009A40F20C41C4F20101086812
:102CC0009043086001B0704781B00090009A40F2D4
:102CD0000041C4F2010108689043086001B07047E8
:102CE00081B00090009A40F20841C4F201010868E6
:102CF0009043086001B0704781B00090009A40F2A4
:102D00000441C4F2010108681043086001B0704733
:102D100081B00090009A40F20C41C4F201010868B1
:102D20001043086001B0704781B00090009A40F2F3
:102D30000041C4F2010108681043086001B0704707
:102D400081B00090009A40F20841C4F20101086885
:102D50001043086001B0704780B584B00390002034
:102D60008DF80B0003984088C00808B9FFE707E01A
:102D700045F2EB30C0F603006E2107F0DBFCFFE705
:102D80000398007928B1FFE703980079012801D161
:102D9000FFE707E045F2EB30C0F603006F2107F0D4
:102DA000C9FCFFE70398407950B1FFE703984079E9
:102DB000012805D0FFE703984079022801D1FFE7F9
:102DC00007E045F2EB30C0F60300702107F0B2FCDB
:102DD000FFE703980079002800F08480FFE703985C
:102DE000807978B1FFE70398807901280AD0FFE75E
:102DF00003988079022805D0FFE70398807903289B
:102E000001D1FFE707E045F2EB30C0F60300752182
:102E100007F090FCFFE703980068002861D0FFE707
:102E2000039840790146019140B1FFE701980128DC
:102E30000DD0FFE70198022812D01AE0039800682D
:102E4000FFF72AFF03980068FFF76EFF15E003986D
:102E50000068FFF739FF03980068FFF74DFF0CE0AB
:102E600003980068FFF760FF03980068FFF744FFCE
:102E700003E001208DF80B00FFE70398807978B319
:102E8000FFE70398807901460091012808D0FFE709
:102E9000009802280DD0FFE70098032812D01AE00E
:102EA00003980068FFF704FF03980068FFF748FFE6
:102EB00015E003980068FFF713FF03980068FFF719
:102EC00027FF0CE003980068FFF73AFF03980068BB
:102ED000FFF71EFF03E001208DF80B00FFE7FFE77F
:102EE000FFE708E003980068FFF7EEFE039800682C
:102EF000FFF7D2FEFFE79DF80B0004B080BD000095
:102F000081B0009040F21440C4F2010000680099C2
:102F10000840401AB0FA80F0400901B07047000044
:102F200042F20000C4F20200006800F0070070479F
:102F300081B0009042F20001C4F20201086820F062
:102F40000700009A1043086001B070470421C4F2E2
:102F50000101086840F60042C0F2007210430860A8
:102F6000704700000421C4F20101086820F0E0600D
:102F70000860086840F000700860704782B00190F7
:102F800000919DF800000821C4F2010151F82000D1
:102F9000009A4FEA124C20EA1240019B9CFAACFCCA
:102FA000BCFA8CFC03FA0CF31843D2B241F82200AD
:102FB00002B0704780B586B005900491059840F640
:102FC0000001C4F20101884230D0FFE7059840F6C5
:102FD0000041C4F20101884228D0FFE7059841F280
:102FE0000001C4F20101884220D0FFE7059841F2B8
:102FF0000041C4F20101884218D0FFE7059841F66C
:103000000001C4F20101884210D0FFE7059841F6A3
:103010000041C4F20101884208D0FFE7059842F25E
:103020000001C4F20101884201D1FFE707E045F247
:103030007C30C0F60300A32107F07CFBFFE7049877
:1030400000686FF07B41084207D0FFE70498C07822
:1030500010F0FB0F01D1FFE707E045F27C30C0F62E
:103060000300A42107F066FBFFE704980068C0F3A3
:103070000F200390039890FAA0F0B0FA80F002902D
:10308000FFE703980299C840002800F0A880FFE7F6
:1030900003980299C840C007002800F09C80FFE711
:1030A0000298072806D8FFE7029940F201108840ED
:1030B000019009E00298A0F108014FF0011088404A
:1030C00040F080600190FFE704984068082819D11B
:1030D000FFE70498006928B1FFE704980069012818
:1030E00001D1FFE707E045F27C30C0F60300BF21C5
:1030F00007F020FBFFE705980199049A126900F098
:10310000E1F8FFE704984068A0B1FFE70498406841
:1031100004280FD0FFE70498406808280AD0FFE78A
:1031200004984068012805D0FFE704984068092802
:1031300001D1FFE707E045F27C30C0F60300C6216D
:1031400007F0F8FAFFE705980199049A526800F031
:1031500085F804984068012805D0FFE70498406886
:10316000092837D1FFE70498806802280AD0FFE7D2
:1031700004988068012805D0FFE704988068032838
:1031800001D1FFE707E045F27C30C0F60300CE2115
:1031900007F0D0FAFFE70498C06828B1FFE7049869
:1031A000C068042801D1FFE707E045F27C30C0F693
:1031B0000300CF2107F0BEFAFFE705980199049AB2
:1031C000926800F095F805980199049AD26800F089
:1031D0005FF8FFE7FFE702980130029051E7002017
:1031E00006B080BD82B00190009101988068BDF862
:1031F00001100840401AB0FA80F0400902B0704750
:1032000082B001900091BDF801000199486102B0BF
:103210007047000082B001900091BDF80100019953
:10322000086102B07047000084B0039002910192DF
:1032300003989DF80B100844009000990868029AC2
:1032400092FAA2F2B2FA82F293000F229A409043CD
:10325000019A9A401043086004B0704784B003900C
:103260000291019203989DF80B1008440090009978
:103270000868029A92FAA2F2B2FA82F293000F223E
:103280009A409043019A9A401043086004B07047F6
:1032900084B003900291019203989DF80B100844AA
:1032A000009000990868029A92FAA2F2B2FA82F2A9
:1032B000930004229A409043019A9A401043086078
:1032C00004B0704783B00290019100920298C068E8
:1032D00001990A0A20EA1120009992FAA2F2B2FAA0
:1032E00082F2914008430299C86003B07047000021
:1032F00084B003900291019203989DF80B1008444A
:10330000009000990868029A92FAA2F2B2FA82F248
:10331000930003229A409043019A9A401043086018
:1033200004B0704784B0039002910398C068019084
:10333000BDF809000090019A009802EA000190434C
:1033400040EA01400399086104B0704780B582B03B
:10335000019001984FF47A7100F002F802B080BD3C
:1033600082B00190009101980099B0FBF1F0013812
:103370004EF21401CEF2000108604EF21801CEF2B6
:103380000001002008604EF21001CEF2000105207D
:10339000086002B07047000047F20001C4F200016B
:1033A000086840F4807008607047000047F2000130
:1033B000C4F20001086840F48070086070470000A3
:1033C00041F22001C4F20201086840F400400860A4
:1033D0007047000041F22001C4F20201086840F485
:1033E000004008607047000041F22001C4F2020171
:1033F000086840F4803008607047000041F2040023
:10340000C4F20200006800F0F000704741F20400CE
:10341000C4F20200006800F4E060704741F204006A
:10342000C4F20200006800F46050704741F22000CE
:10343000C4F20200006800F44070704741F20400DA
:10344000C4F20200006800F00C00704741F2040072
:10345000C4F20200006800F00C00704780B582B032
:10346000019002F07DFC019908600198006802F06B
:103470003FFC019948600198406802F04DFC0199B9
:1034800088600198406802F059FC0199C86002B058
:1034900080BD000041F20001C4F20201086840F45E
:1034A000803008607047000041F20000C4F2020062
:1034B0000068C0F34040704741F22001C4F20201AD
:1034C000086840F0010008607047000041F22000E9
:1034D000C4F202000068C0F34000704782B001905F
:1034E000009141F20401C4F20201086820F47C104A
:1034F000019A02F44032009B1A431043086002B064
:103500007047000041F20001C4F20201086840F077
:10351000807008607047000041F20400C4F20200AD
:10352000006800F48030704741F20400C4F20200E9
:10353000006800F47010704741F20400C4F2020009
:103540000068C0F34040704741F20000C4F202003E
:103550000068C0F34060704741F22001C4F20201EC
:10356000086820F4803008607047000081B0009047
:1035700041F20401C4F20201086820F0F000009A50
:103580001043086001B0704781B0009041F204011F
:10359000C4F20201086820F4E060009A1043086059
:1035A00001B0704781B0009041F20401C4F2020101
:1035B000086820F46050009A1043086001B070471A
:1035C00081B0009041F22001C4F20201086820F4A9
:1035D0004070009A1043086001B0704781B00090BD
:1035E00041F20401C4F20201086820F00300009ACD
:1035F0001043086001B0704781B00090009948689E
:1036000020F00200486001B07047000081B00090D7
:103610000099486820F00400486001B0704700003D
:1036200081B000900099486820F00800486001B01F
:103630007047000081B000900099486820F00100B8
:10364000486001B07047000081B000900099486860
:1036500020F00100486001B07047000081B0009088
:103660000099486840F01000486001B070470000C1
:1036700081B000900099086840F00100086001B036
:103680007047000081B000900099486820F0100059
:10369000486001B07047000080B586B005904FF4D7
:1036A0007A70049000208DF80F000290059842F681
:1036B0000001C4F20001884201D1FFE708E045F2B1
:1036C000B430C0F603004FF4BA7107F033F8FFE7E7
:1036D000059800F001F90290FFE70499002001909D
:1036E00031B1FFE70298013818BF01200190FFE7D0
:1036F0000198C007A8B1FFE700F0FCFB012804D146
:10370000FFE7049801380490FFE7059800F0E4F81B
:103710000290049820B9FFE701208DF80F00FFE721
:10372000DBE70598FFF79AFF9DF80F0006B080BD14
:1037300080B586B005904FF47A70049000208DF823
:103740000F000290059842F60001C4F20001884281
:1037500001D1FFE708E045F2B430C0F6030040F2C3
:103760009B1106F0E7FFFFE70598FFF78BFF059831
:1037700000F0B2F80290FFE704990020019031B107
:10378000FFE70298013818BF01200190FFE7019878
:10379000C007A8B1FFE700F0ADFB012804D1FFE7A7
:1037A000049801380490FFE7059800F095F802901E
:1037B000049820B9FFE701208DF80F00FFE7DBE751
:1037C0009DF80F0006B080BD80B584B003900291D3
:1037D00001208DF80700039842F60001C4F20001B1
:1037E000884201D1FFE707E045F2B430C0F603009C
:1037F000A22106F09FFFFFE7029801680020B0EBCE
:10380000115F01D1FFE707E045F2B430C0F60300D5
:10381000A32106F08FFFFFE70298406888B1FFE719
:103820000298406880280CD0FFE702984068B0F505
:10383000807F06D0FFE702984068B0F5407F01D155
:10384000FFE707E045F2B430C0F60300A42106F01C
:1038500071FFFFE7039800F087F901282FD0FFE7F9
:103860000398FFF719FF012828D0FFE70398FFF717
:10387000C3FE0398FFF7CAFE0398FFF7E5FE029820
:10388000406838B1FFE746F60040C4F2000000F09F
:1038900065F8FFE70298416846F60040C4F2000070
:1038A00000F04EF803980299096800F033F8039885
:1038B000FFF73EFF00208DF80700FFE7FFE79DF8C8
:1038C000070004B080BD000081B0009000984068FF
:1038D000C0F3C00001B0704781B00090009840680C
:1038E000C0F3401001B0704782B001900091019880
:1038F000806820F00F00BDF802100843019988602D
:103900000198C068009961F30F000199C86002B086
:103910007047000082B0019000910198806820F00B
:103920000F00BDF802100843019988600198C06833
:10393000009961F30F000199C86002B07047000060
:1039400082B0019000910198C06A20F460700099E3
:1039500008430199C86202B07047000081B000902E
:1039600046F63041C4F20001086820F0010008600A
:1039700001B0704780B586B0059004910392012094
:103980008DF80B0000200190059842F60001C4F26A
:103990000001884201D1FFE707E045F2B430C0F6EC
:1039A0000300E42106F0C6FEFFE7049820B1FFE71C
:1039B0000498012801D1FFE707E045F2B430C0F6D2
:1039C0000300E52106F0B6FEFFE7049858BBFFE7C9
:1039D00003980078172801D8FFE707E045F2B430D4
:1039E000C0F60300E92106F0A5FEFFE70398407842
:1039F0003B2801D8FFE707E045F2B430C0F60300EA
:103A0000EA2106F097FEFFE7039880783B2801D86B
:103A1000FFE707E045F2B430C0F60300EB2106F003
:103A200089FEFFE742E003980078010901EB81017C
:103A300000F00F0000EB4100C0B2172801D8FFE7EB
:103A400007E045F2B430C0F60300EF2106F072FE45
:103A5000FFE703984078010901EB810100F00F00B6
:103A600000EB4100C0B23B2801D8FFE707E045F278
:103A7000B430C0F60300F02106F05CFEFFE70398C7
:103A80008078010901EB810100F00F0000EB41009B
:103A9000C0B23B2801D8FFE707E045F2B430C0F6DA
:103AA0000300F12106F046FEFFE7FFE70598FFF768
:103AB000F3FD012843D0FFE7049890B9FFE703998D
:103AC00008784A7889784FF461635843C2EB021250
:103AD00000EB8200084401900598019900F036F847
:103AE00029E0039908784A788978030903EB83036E
:103AF00000F00F0000EB4300C0B24FF46163584385
:103B0000130903EB830302F00F0202EB4302D2B26C
:103B1000C2EB021200EB82000A0902EB820201F002
:103B20000F0101EB4201C9B20844019005980199C7
:103B300000F00CF8FFE700208DF80B00FFE7059878
:103B4000FFF7F6FD9DF80B0006B080BD82B0019036
:103B50000091BDF8020001998861BDF8000001994B
:103B6000C86102B07047000080B586B005904FF480
:103B70007A70049000208DF80F000290059842F6AC
:103B80000001C4F20001884201D1FFE708E045F2DC
:103B9000B430C0F6030040F2F51106F0CBFDFFE7AC
:103BA0000598FFF73DFD0598FFF78EFE0290FFE7B1
:103BB00004990020019031B1FFE70298002818BF56
:103BC00001200190FFE70198C007A8B1FFE700F0CE
:103BD00091F9012804D1FFE7049801380490FFE728
:103BE0000598FFF771FE0290049820B9FFE70120C5
:103BF0008DF80F00FFE7DBE79DF80F0006B080BDF2
:103C000081B000900099086840F04000086001B061
:103C10007047000080B584B00390029101208DF8B8
:103C20000700039843F20001C4F20101884210D05A
:103C3000FFE7039843F60001C4F20001884208D070
:103C4000FFE7039843F60041C4F20001884201D126
:103C5000FFE707E045F22340C0F60300B72106F076
:103C600069FDFFE70298006890B1FFE702980068DD
:103C7000B0F5806F0CD0FFE702980068B0F5004FF8
:103C800006D0FFE702980068B0F5404F01D1FFE78A
:103C900007E045F22340C0F60300BA2106F04AFDD2
:103CA000FFE702984068B0F5827F04D0FFE70298F2
:103CB000406808B9FFE707E045F22340C0F603007B
:103CC000BB2106F037FDFFE70298806830B1FFE7BF
:103CD00002988068B0F5006F01D1FFE707E045F278
:103CE0002340C0F60300BC2106F024FDFFE7029844
:103CF000C06828B1FFE70298C068022801D1FFE739
:103D000007E045F22340C0F60300BD2106F012FD96
:103D1000FFE70298006928B1FFE7029800690128CF
:103D200001D1FFE707E045F22340C0F60300BE21C2
:103D300006F000FDFFE702984069B0F5007F0AD069
:103D4000FFE70298406930B1FFE702984069B0F59B
:103D5000802F01D1FFE707E045F22340C0F60300C2
:103D6000BF2106F0E7FCFFE70298806918B3FFE780
:103D70000298806908281ED0FFE702988069102801
:103D800019D0FFE702988069182814D0FFE702983D
:103D9000806920280FD0FFE70298806928280AD080
:103DA000FFE702988069302805D0FFE70298806914
:103DB000382801D1FFE707E045F22340C0F60300B1
:103DC000C02106F0B7FCFFE70298C069802804D044
:103DD000FFE70298C06908B9FFE707E045F2234012
:103DE000C0F60300C12106F0A5FCFFE70298006AB7
:103DF000B0F5005F04D0FFE70298006A08B9FFE75A
:103E000007E045F22340C0F60300C22106F092FC11
:103E1000FFE7039800F052F8002845D1FFE7039828
:103E200000684FF6BF718843029A00921168D2F879
:103E300004E0D2F808C0D36841EA0E0141EA0C015F
:103E40001943136919435369194393691943D36992
:103E50001943126A114308430399086003984068A4
:103E600020F004000299C98A084303994860029827
:103E7000006AB0F5005F13D1FFE70298406A08B10D
:103E8000FFE707E045F22340C0F60300E52106F016
:103E900051FCFFE703980299496A00F017F8FFE721
:103EA00000208DF80700FFE70399C86920F400603F
:103EB000C8619DF8070004B080BD000081B000908B
:103EC00000980068C0F3801001B0704782B0019084
:103ED0000091BDF800000199086102B07047000030
:103EE0004EF21001CEF20001086840F002000860B6
:103EF000704700004EF21000CEF200000068C0F3E0
:103F00000040704781B00090009840F25801C2F222
:103F10000001086001B0704780B584B00390029141
:103F200000200190039842F60041C4F2010188424A
:103F300008D0FFE7039843F20041C4F20101884230
:103F400001D1FFE708E045F25A40C0F6030040F215
:103F5000CA2106F0EFFBFFE70298006830B1FFE7E7
:103F600002980068B0F5006F01D1FFE708E045F264
:103F70005A40C0F6030040F2CB2106F0DBFBFFE71E
:103F80000298406830B1FFE702984068B0F5806F52
:103F900001D1FFE708E045F25A40C0F603004FF4B4
:103FA000337106F0C7FBFFE70298806890B1FFE726
:103FB00002988068B0F5807F0CD0FFE70298806897
:103FC000B0F5007F06D0FFE702988068B0F5407F2B
:103FD00001D1FFE708E045F25A40C0F6030040F285
:103FE000CD2106F0A7FBFFE70298C08930B1FFE7BB
:103FF0000298C089B0F5805F01D1FFE708E045F283
:104000005A40C0F6030040F2CE2106F093FBFFE7D2
:104010000298006930B1FFE702980069B0F5005FCF
:1040200001D1FFE708E045F25A40C0F6030040F234
:10403000CF2106F07FFBFFE70298406930B1FFE730
:1040400002984069B0F5804F01D1FFE708E045F2E2
:104050005A40C0F603004FF4347106F06BFBFFE7E3
:104060000298007B8DF80400019820F440700299BA
:10407000896808430190019820F48060029949689A
:1040800008430190019820F40060029909680843F0
:104090000190019820F480500299C9890843019049
:1040A000019820F400500299096908430190019891
:1040B00020F480400299496908430190019820F456
:1040C00000400299496908430190019803994864A6
:1040D000002004B080BD000081B000900099086805
:1040E00020F08000086001B07047000081B00090AF
:1040F0000099886820F08000886001B07047000057
:1041000081B000900099486940F00100486101B019
:104110007047000080B584B003900291039842F686
:104120000041C4F20101884235D0FFE7039843F211
:104130000041C4F2010188422DD0FFE70398B0F19D
:10414000804F28D0FFE7039840F20041C4F20001FD
:10415000884220D0FFE7039840F60001C4F2000136
:10416000884218D0FFE7039840F60041C4F20001EE
:10417000884210D0FFE7039841F20001C4F2000129
:10418000884208D0FFE7039841F20041C4F20001E1
:10419000884201D1FFE708E045F25A40C0F603002B
:1041A0004FF4A57106F0C6FAFFE702984068A0B187
:1041B000FFE70298406810280FD0FFE70298406898
:1041C00040280AD0FFE702984068202805D0FFE782
:1041D00002984068602801D1FFE708E045F25A40A4
:1041E000C0F6030040F24B1106F0A4FAFFE7029874
:1041F000C06860B1FFE70298C068B0F5807F06D064
:10420000FFE70298C068B0F5007F01D1FFE708E042
:1042100045F25A40C0F603004FF4A67106F08AFA40
:10422000FFE7039800680190039842F60041C4F24A
:104230000101884225D0FFE7039843F20041C4F210
:10424000010188421DD0FFE70398B0F1804F18D0DC
:10425000FFE7039840F20041C4F20001884210D009
:10426000FFE7039840F60001C4F20001884208D03D
:10427000FFE7039840F60041C4F20001884208D1EC
:10428000FFE7019820F07000029949680843019007
:10429000FFE7039842F60041C4F20101884225D0AD
:1042A000FFE7039843F20041C4F2010188421DD0A8
:1042B000FFE70398B0F1804F18D0FFE7039840F272
:1042C0000041C4F20001884210D0FFE7039840F695
:1042D0000001C4F20001884208D0FFE7039840F6CD
:1042E0000041C4F20001884208D1FFE7019820F4A0
:1042F00040700299C96808430190FFE7019803994B
:10430000086003980299896800F032F903980299CD
:10431000098800F043F9039842F60041C4F2010114
:10432000884208D0FFE7039843F20041C4F201013C
:10433000884206D1FFE703980299096900F036F92F
:10434000FFE70398FFF7DCFE002004B080BD00000B
:1043500089B0089007910798012803D1FFE7002052
:10436000049030E00798042803D1FFE70120039070
:1043700026E00798102803D1FFE7022002901CE0F6
:104380000798402803D1FFE70320019012E0079827
:10439000B0F5807F03D1FFE70420009007E0079984
:1043A0000620B1F5806F08BF05200090FFE7009858
:1043B0000190FFE701980290FFE702980390FFE762
:1043C00003980490FFE704988DF81B0008989DF867
:1043D0001B204BF6DD61C0F60001895C08441830F3
:1043E00005909DF81B104CF6E800C0F60000415CFB
:1043F000042000FA01F2059908689043086009B0AA
:104400007047000089B0089007910798012803D1F0
:10441000FFE70020049030E00798042803D1FFE76D
:104420000120039026E00798102803D1FFE702201F
:1044300002901CE00798402803D1FFE70320019079
:1044400012E00798B0F5807F03D1FFE704200090C9
:1044500007E007990620B1F5806F08BF052000909E
:10446000FFE700980190FFE701980290FFE70298AC
:104470000390FFE703980490FFE704988DF81B0072
:1044800008989DF81B204BF6DD61C0F60001895CA1
:104490000844183005909DF81B104CF6E800C0F653
:1044A0000000415C082000FA01F2059908681043F9
:1044B000086009B07047000080B586B0059004918F
:1044C000039201208DF80B000498019001280ED072
:1044D000FFE70198102811D0FFE70198B0F5807F21
:1044E00013D0FFE70198B0F5805F15D01BE0059869
:1044F000039900F05BFE8DF80B0015E00598039919
:1045000000F09CFF8DF80B000EE00598039901F078
:10451000E1F88DF80B0007E00598039901F026FA01
:104520008DF80B0000E0FFE79DF80B0006B080BDA2
:1045300082B00190009100980199486302B07047E1
:1045400082B00190009100980199886302B0704791
:1045500082B00190009100980199C86302B0704741
:1045600082B00190009100980199086402B07047F0
:1045700082B00190009100980199C86202B0704722
:1045800082B0019000910198806844F2070188434D
:10459000009908430199886002B0704782B0019089
:1045A000009100980199886202B0704782B0019032
:1045B000009100980199086302B0704782B00190A1
:1045C00000910198406820F070000099084301991B
:1045D000486002B07047000081B0009000990869FF
:1045E00020F4904008610099486920F02A00486151
:1045F00001B0704781B000900099C86840F4005045
:10460000C86001B07047000080B588B0079006917F
:1046100001208DF8170000200490079843F6000150
:10462000C4F20101884220D0FFE7079844F200411C
:10463000C4F20001884218D0FFE7079844F6000151
:10464000C4F20001884210D0FFE7079844F6004109
:10465000C4F20001884208D0FFE7079845F2000144
:10466000C4F20001884201D1FFE707E045F2914022
:10467000C0F60300CE2106F05DF8FFE7069800685B
:104680004AF62021C0F24401884201D8FFE707E042
:1046900045F29140C0F60300CF2106F04BF8FFE74A
:1046A0000698406830B1FFE706984068B0F5805F33
:1046B00001D1FFE707E045F29140C0F60300D021A9
:1046C00006F038F8FFE706988068B0F5805F10D0F4
:1046D000FFE70698806860B1FFE706988068B0F54C
:1046E000405F06D0FFE706988068B0F5005F01D113
:1046F000FFE707E045F29140C0F60300D12106F044
:1047000019F8FFE70698C06860B1FFE70698C0682F
:10471000B0F5806F06D0FFE70698C068B0F5C06FAF
:1047200001D1FFE707E045F29140C0F60300D22136
:1047300006F000F8FFE70698006978B1FFE70698F1
:10474000006904280AD0FFE706980069082805D008
:10475000FFE7069800690C2801D1FFE707E045F262
:104760009140C0F60300D32105F0E4FFFFE706986F
:10477000406990B1FFE706984069B0F5807F0CD0A2
:10478000FFE706984069B0F5007F06D0FFE706987E
:104790004069B0F5407F01D1FFE707E045F2914065
:1047A000C0F60300D42105F0C5FFFFE7079800F02D
:1047B0007FF8002878D1FFE70798C06841F20C61C4
:1047C0008843069A5168D368126919431143084314
:1047D0000799C86007980699896800F0A7F80798B4
:1047E0000699496900F094F86846FEF737FE079885
:1047F00043F60001C4F20101884203D1FFE70398A8
:10480000049030E0079844F20041C4F2000188426D
:1048100003D1FFE70298049024E0079844F60001D2
:10482000C4F20001884203D1FFE70298049018E027
:10483000079844F60041C4F20001884203D1FFE723
:10484000029804900CE0079845F20001C4F20001C0
:10485000884203D1FFE70298049000E0FFE7FFE7FA
:10486000FFE7FFE7FFE70498E8B1FFE70698006875
:10487000C8B1FFE700208DF8170007980499069A41
:10488000126800F01DF807988068102801D3FFE730
:1048900008E045F29140C0F603004FF49B7105F02B
:1048A00049FFFFE7FFE7FFE79DF8170008B080BD6D
:1048B00081B000900098C068C0F3403001B07047EC
:1048C00083B0029001910092019819214843009908
:1048D0008900B0FBF1F348F21F51C5F2EB11A3FBC5
:1048E00001204209642002FB1033322000EB031048
:1048F000A0FB0101F02000EA511000EB0210C1F30F
:104900004311084480B20299886003B070470000E8
:1049100082B0019000910198406920F440700099A4
:1049200008430199486102B07047000082B00190CD
:1049300000910198006920F44050009908430199C2
:10494000086102B07047000082B001904EF2100082
:10495000CEF200000068009000980198013020B16C
:10496000FFE7019801300190FFE7FFE7019870B180
:10497000FFE74EF21000CEF200000068C0030028EE
:1049800004D5FFE7019801380190FFE7EEE702B098
:104990007047000010B598B000200F901790169047
:1049A000159014901390129011901020FEF722F998
:1049B0002020FEF71FF904200C90FEF71BF90820B9
:1049C0000790FEF717F941F20000C4F201000390CE
:1049D00040F20771C0F20241FEF712FC40F60040BF
:1049E000C4F2010002904FF6FF71C0F21F41019125
:1049F000FEF706FC40F60000C4F201000B90112106
:104A0000C0F21141FEF7FCFB41F20040C4F201008C
:104A1000069040F204410591FEF7F2FB039843F63D
:104A20003801C0F20841FEF7F5FB0B9841F217710F
:104A3000FEF7F0FB03980F9943F63F72C0F20A426B
:104A40001192012209921292022208921392149159
:104A500011A90491FEF7AEFA0499089BDDF824C071
:104A60000F9A0B9841F2177EC0F2114ECDF844E038
:104A7000CDF848C013931492FEF79CFA0499089B52
:104A8000DDF824C00F9ADDF804E00298CDF844E088
:104A9000CDF848C013931492FEF78CFA04990C9A3F
:104AA00003981423C0F2144311931292FEF782FA72
:104AB0000499089BDDF824C00F9ADDF814E00698ED
:104AC000CDF844E0CDF848C013931492FEF772FA83
:104AD0000F984FF07041FEF751FA0F980221CFF274
:104AE0000001FEF74BFA0F980321CFF20001FEF709
:104AF00045FA079B0898099A0F9916938DF85C2040
:104B00008DF85D108DF85E0016A80A90FEF724F966
:104B1000099A0F990A984FF4006316938DF85C2058
:104B20008DF85D1003218DF85E10FEF715F90999D7
:104B30000F9A0A984FF4004316938DF85C108DF885
:104B40005D208DF85E10FEF707F90C9A0B9840F681
:104B50000801FEF769FB0B980C9A0821C0F2084186
:104B6000FEF762FB0B980C9A8021C0F28041FEF7A1
:104B70005BFB05F021FD0F9A0E210E9100F074FAF7
:104B8000014609200D9005F051FD0D9805F0C4FC7B
:104B900005F012FD0E990F9A00F066FA01462820E2
:104BA000109005F043FD109805F0B6FC18B010BD4C
:104BB00080B586B00020009005900490FEF7F6FBCB
:104BC0004FF00060FDF7CEFFFEF704FC05F0FCFCA3
:104BD000009A0F2100F07EFA01460320019005F0B3
:104BE00047FD019805F0B0FC47F6FF700290049075
:104BF00042F60000C4F20000039004A9FEF7E4FDB1
:104C000002990398FEF770FE06B080BD80B596B09D
:104C10000CA805902821FBF719FB002004900B90AD
:104C20000A900990089007904FF48050FDF7F4FF28
:104C300004200090FDF7F0FF04984AF2A0010791CC
:104C400009210891032109910A9040F60000C4F25D
:104C50000100029007A90191FEF7ACF9009A0199B1
:104C6000029844F2400307930892FEF7A3F905F077
:104C7000B3FC049A114600F063FA01462320039026
:104C800005F018FD039805F077FC049805990C9041
:104C90004FF482720D920E900F9010904FF40072AC
:104CA000119220221292139014900A20159043F230
:104CB0000000C4F201000690FEF7ACFF0698FEF774
:104CC0009FFF16B080BD000080B596B00CA805907F
:104CD0002821FBF7BBFA002004900B900A90099062
:104CE000089007904FF48040FDF74EFF0820FDF735
:104CF00093FF0498A021C0F2A041079109210891D7
:104D0000032109910A9040F60040C4F2010002908C
:104D100007A90191FEF74EF9019902984022C0F2CD
:104D20004042079204220892FEF744F905F054FC31
:104D3000049A114600F004FA01462420039005F07D
:104D4000B9FC039805F018FC049805990C904FF4F1
:104D500082720D920E900F9010904FF4007211928B
:104D60001290139014900A20159043F60000C4F29C
:104D700000000690FEF74EFF0698FEF741FF16B0C2
:104D800080BD000080B596B000200390159014906F
:104D900013901290119010900F900E900D900C9017
:104DA0000B900A9009900890079006900590049047
:104DB00002200290FDF7FAFE0398ADF8440012902D
:104DC0004FF6FF711391149040F20040C4F20000BE
:104DD000019011A9FFF79EF90198FFF77DF901985D
:104DE00001210091FFF70EFB00990198039A6023BF
:104DF00009930A920B920C920D9209AAFFF75CFBA1
:104E000000990198FFF7A4FA01980399FFF7D6FBE0
:104E10000198FFF76BF91020FDF710FF0299039836
:104E200044F240020492092205920691079041F251
:104E30000000C4F2010004A9FEF7BCF8FEF786F8F2
:104E400016B080BD80B59EB0002005901D901C90CE
:104E50001B901A9019901890179016901590149016
:104E600013901290119010900F900E900D900C9046
:104E70000B900A9009900890079006904FF400500C
:104E80000290FDF7DBFE0598ADF864001A9041F63C
:104E90001F411B911C901D9043F20040C4F2010081
:104EA000039019A9FFF736F90398FFF715F903984E
:104EB0000599FFF765FB03980599119112911391DC
:104EC000149115911691179118911021049111AA1E
:104ED0000092FFF7F1FA04990398FFF739FA009A64
:104EE0000398202111914FF480710191FFF7E4FAAA
:104EF00001990398FFF72CFA03980599FFF75EFBD9
:104F00000398FFF7F3F8029A039805990B910C9117
:104F10000D918DF83810ADF83A100F9210910BA941
:104F2000FEF7FAFF0498FDF789FE059848F2810123
:104F3000C0F20141069109210791022108910990CF
:104F400041F20000C4F2010006A9FEF733F81EB0DA
:104F500080BD000080B592B00020049011901090A8
:104F60000F900E900D900C900B900A900990089065
:104F7000079006904FF48040FDF772FE04200190E8
:104F8000FDF76EFE04980221C0F20241069109214C
:104F9000079103210891099040F60000C4F2010036
:104FA000039006A90291FEF705F8019A0299039869
:104FB0000423C0F2044306930792FDF7FBFF049815
:104FC0004FF4E1310B910C900D900E900C210F914C
:104FD0001090119043F60000C4F2010005900BA957
:104FE000FFF712FB0598FFF7F7FA0598FFF702FBAA
:104FF00012B080BDFFE7FEE7FFE7FEE788B007904D
:1050000006910592079800F0070004900498C0F1FB
:105010000700052803D3FFE70420019004E004986B
:10502000C0F107000190FFE7019803900498043055
:10503000062803D8FFE70020009003E00498033817
:105040000090FFE70098029006980399012202FA67
:1050500001F101390840029B984005999A40013AB4
:105060001140084308B0704788B007900691059238
:10507000079800F0070004900498C0F10700052885
:1050800003D3FFE70420019004E00498C0F1070077
:105090000190FFE70198039004980430062803D894
:1050A000FFE70020009003E0049803380090FFE73A
:1050B0000098029006980399012202FA01F1013941
:1050C0000840029B984005999A40013A11400843D4
:1050D00008B0704788B0079006910592079800F0D5
:1050E000070004900498C0F10700052803D3FFE7E8
:1050F0000420019004E00498C0F107000190FFE74C
:105100000198039004980430062803D8FFE7002094
:10511000009003E0049803380090FFE700980290A5
:1051200006980399012202FA01F101390840029B15
:10513000984005999A40013A1140084308B07047D9
:1051400088B0079006910592079800F00700049038
:105150000498C0F10700052803D3FFE7042001905D
:1051600004E00498C0F107000190FFE70198039064
:1051700004980430062803D8FFE70020009003E0DD
:10518000049803380090FFE700980290069803996E
:10519000012202FA01F101390840029B9840059969
:1051A0009A40013A1140084308B0704780B586B074
:1051B00005900491059842F60041C4F2010188422D
:1051C00025D0FFE7059843F20041C4F2010188426F
:1051D0001DD0FFE70598B0F1804F18D0FFE7059884
:1051E00040F20041C4F20001884210D0FFE7059868
:1051F00040F60001C4F20001884208D0FFE705989C
:1052000040F60041C4F20001884201D1FFE708E006
:1052100045F25A40C0F6030040F2FF2105F08AFA39
:10522000FFE70498006818B3FFE7049800681028A7
:105230001ED0FFE704980068202819D0FFE70498E3
:105240000068302814D0FFE70498006840280FD089
:10525000FFE70498006850280AD0FFE70498006828
:10526000602805D0FFE704980068702801D1FFE7A7
:1052700008E045F25A40C0F603004FF4407105F0D3
:1052800059FAFFE70498406828B1FFE7049840689E
:10529000012801D1FFE708E045F25A40C0F60300BB
:1052A00040F2013105F046FAFFE70498006928B1A1
:1052B000FFE704980069022801D1FFE708E045F202
:1052C0005A40C0F6030040F2023105F033FAFFE71E
:1052D0000498806828B1FFE704988068012801D10C
:1052E000FFE708E045F25A40C0F6030040F2033100
:1052F00005F020FAFFE70498406928B1FFE7049819
:105300004069022801D1FFE708E045F25A40C0F6A3
:1053100003004FF4417105F00DFAFFE70599086AA3
:1053200020F0010008620598006A02900598406824
:105330000190059880690390039820F00300039082
:10534000039820F0700004990968084303900298BC
:1053500020F002000499096908430290029820F0A5
:1053600001000499496808430290059842F60041FB
:10537000C4F20101884208D0FFE7059843F20041DA
:10538000C4F20101884248D1FFE70498C06930B1F6
:10539000FFE70498C069B0F5807F01D1FFE708E01E
:1053A00045F25A40C0F603004FF4487105F0C2F9C7
:1053B000FFE70498806930B1FFE704988069B0F591
:1053C000807F01D1FFE708E045F25A40C0F60300B4
:1053D00040F2213105F0AEF9FFE7029820F0080015
:1053E0000499496940EA81000290029820F0040083
:1053F0000499896840EA81000290019820F4807045
:105400000499896908430190019820F40070049977
:10541000C96940EA41000190FFE701980599486099
:1054200003980599886105980499C968FFF780F881
:10543000029805990862002006B080BD80B586B04C
:1054400005900491059842F60041C4F2010188429A
:1054500025D0FFE7059843F20041C4F201018842DC
:105460001DD0FFE70598B0F1804F18D0FFE70598F1
:1054700040F20041C4F20001884210D0FFE70598D5
:1054800040F60001C4F20001884208D0FFE7059809
:1054900040F60041C4F20001884201D1FFE708E074
:1054A00045F25A40C0F6030040F24E3105F042F991
:1054B000FFE70498006818B3FFE704980068102815
:1054C0001ED0FFE704980068202819D0FFE7049851
:1054D0000068302814D0FFE70498006840280FD0F7
:1054E000FFE70498006850280AD0FFE70498006896
:1054F000602805D0FFE704980068702801D1FFE715
:1055000008E045F25A40C0F6030040F24F3105F082
:1055100011F9FFE70498406828B1FFE70498406854
:10552000012801D1FFE708E045F25A40C0F6030028
:105530004FF4547105F0FEF8FFE70498006928B1B4
:10554000FFE704980069022801D1FFE708E045F26F
:105550005A40C0F6030040F2513105F0EBF8FFE786
:105560000498806828B1FFE704988068012801D179
:10557000FFE708E045F25A40C0F6030040F252311E
:1055800005F0D8F8FFE70498406928B1FFE70498D0
:105590004069022801D1FFE708E045F25A40C0F611
:1055A000030040F2533105F0C5F8FFE70599086A9A
:1055B00020F0100008620598006A02900598406883
:1055C0000190059880690390039820F4407003903F
:1055D000039820F4E0400499096840EA0120039010
:1055E000029820F020000499096940EA0110029015
:1055F000029820F010000499496840EA01100290D6
:10560000059842F60041C4F20101884208D0FFE744
:10561000059843F20041C4F20101884249D1FFE7F5
:105620000498C06930B1FFE70498C069B0F5807F85
:1056300001D1FFE708E045F25A40C0F6030040F20E
:105640006F3105F077F8FFE70498806930B1FFE724
:1056500004988069B0F5807F01D1FFE708E045F24A
:105660005A40C0F603004FF45C7105F063F8FFE7A1
:10567000029820F080000499496940EA8110029064
:10568000029820F040000499896840EA8110029055
:10569000019820F480600499896940EA81000190B2
:1056A000019820F400600499C96940EAC1000190A2
:1056B000FFE7019805994860039805998861059866
:1056C0000499C968FEF73CFF02980599086200201A
:1056D00006B080BD80B586B005900491059842F66D
:1056E0000041C4F20101884225D0FFE7059843F24A
:1056F0000041C4F2010188421DD0FFE70598B0F1D6
:10570000804F18D0FFE7059840F20041C4F2000135
:10571000884210D0FFE7059840F60001C4F200016E
:10572000884208D0FFE7059840F60041C4F2000126
:10573000884201D1FFE708E045F25A40C0F6030075
:1057400040F29D3104F0F6FFFFE70498006818B3BB
:10575000FFE70498006810281ED0FFE7049800684F
:10576000202819D0FFE704980068302814D0FFE7FC
:105770000498006840280FD0FFE70498006850287C
:105780000AD0FFE704980068602805D0FFE7049876
:105790000068702801D1FFE708E045F25A40C0F6E2
:1057A000030040F29E3104F0C5FFFFE70498406813
:1057B00028B1FFE704984068012801D1FFE708E01D
:1057C00045F25A40C0F6030040F29F3104F0B2FFA8
:1057D000FFE70498006928B1FFE7049800690228F0
:1057E00001D1FFE708E045F25A40C0F603004FF44C
:1057F000687104F09FFFFFE70498806828B1FFE715
:1058000004988068012801D1FFE708E045F25A407A
:10581000C0F6030040F2A13104F08CFFFFE70498CA
:10582000406928B1FFE704984069022801D1FFE7E9
:1058300008E045F25A40C0F6030040F2A23104F0FD
:1058400079FFFFE70599086A20F4807008620598DF
:10585000006A02900598406801900598C06903901D
:10586000039820F003000390039820F0700004993F
:10587000096808430390029820F4007004990969AC
:1058800040EA01200290029820F48070049949684F
:1058900040EA01200290059842F60041C4F201015D
:1058A000884208D0FFE7059843F20041C4F20101A5
:1058B000884249D1FFE70498C06930B1FFE70498F6
:1058C000C069B0F5807F01D1FFE708E045F25A409A
:1058D000C0F6030040F2BE3104F02CFFFFE704984D
:1058E000806930B1FFE704988069B0F5807F01D10D
:1058F000FFE708E045F25A40C0F6030040F2BF312E
:1059000004F018FFFFE7029820F400600499496949
:1059100040EA81200290029820F48060049989680E
:1059200040EA81200290019820F48050049989690E
:1059300040EA01100190019820F400500499C969CF
:1059400040EA41100190FFE70198059948600398EB
:105950000599C86105980499C968FEF7F9FD029890
:1059600005990862002006B080BD000080B586B0B1
:1059700005900491059842F60041C4F20101884265
:1059800025D0FFE7059843F20041C4F201018842A7
:105990001DD0FFE70598B0F1804F18D0FFE70598BC
:1059A00040F20041C4F20001884210D0FFE70598A0
:1059B00040F60001C4F20001884208D0FFE70598D4
:1059C00040F60041C4F20001884201D1FFE708E03F
:1059D00045F25A40C0F603004FF47B7104F0AAFE72
:1059E000FFE70498006818B3FFE7049800681028E0
:1059F0001ED0FFE704980068202819D0FFE704981C
:105A00000068302814D0FFE70498006840280FD0C1
:105A1000FFE70498006850280AD0FFE70498006860
:105A2000602805D0FFE704980068702801D1FFE7DF
:105A300008E045F25A40C0F6030040F2ED3104F0B0
:105A400079FEFFE70498406828B1FFE704984068B2
:105A5000012801D1FFE708E045F25A40C0F60300F3
:105A600040F2EE3104F066FEFFE70498006928B1C9
:105A7000FFE704980069022801D1FFE708E045F23A
:105A80005A40C0F6030040F2EF3104F053FEFFE746
:105A90000498406928B1FFE704984069022801D1C1
:105AA000FFE708E045F25A40C0F603004FF47C716E
:105AB00004F040FEFFE70498806828B1FFE70498EF
:105AC0008068012801D1FFE708E045F25A40C0F69E
:105AD000030040F2F13104F02DFEFFE70599086A5A
