:020000040800F2
:1000000028110020CD01000881370008490C0008A4
:100010007D370008ED090008AD4800080000000029
:10002000000000000000000000000000694500081A
:10003000F1090008000000005D430008B945000810
:10004000E7010008E7010008E70100089144000803
:10005000E7010008E7010008E7010008E7010008E0
:10006000E7010008F90B0008E7010008E7010008B4
:10007000E7010008E7010008E7010008E7010008C0
:10008000E7010008E7010008E7010008E7010008B0
:10009000E7010008E7010008E7010008E7010008A0
:1000A000E7010008E7010008E7010008E701000890
:1000B000E7010008E7010008E7010008E701000880
:1000C000E7010008E7010008E701000855450008BE
:1000D00059450008E7010008E7010008E7010008AA
:1000E000A50B0008E7010008E7010008E701000888
:1000F000E7010008E7010008E7010008E701000840
:10010000E7010008E7010008E7010008E70100082F
:10011000E7010008E7010008E7010008E70100081F
:10012000E7010008E7010008E7010008E70100080F
:1001300000F002F800F03AF80AA090E8000C8244BF
:100140008344AAF10107DA4501D100F02FF8AFF29C
:10015000090EBAE80F0013F0010F18BFFB1A43F0A5
:1001600001031847F820030018210300103A24BFA8
:1001700078C878C1FAD8520724BF30C830C144BF0C
:1001800004680C607047000000230024002500264E
:10019000103A28BF78C1FBD8520728BF30C148BFEA
:1001A0000B6070471FB51FBD10B510BD00F05DF8A6
:1001B0001146FFF7F7FF05F04FFA00F07BF803B4A4
:1001C000FFF7F2FF03BC00F07FF80000094880470A
:1001D00009480047FEE7FEE7FEE7FEE7FEE7FEE729
:1001E000FEE7FEE7FEE7FEE704480549054A064B41
:1001F00070470000A946000831010008280B0020C4
:1002000028110020280D0020280D00204FF00002AA
:1002100000B5134694469646203922BFA0E80C50FC
:10022000A0E80C50B1F12001BFF4F7AF090728BFD7
:10023000A0E80C5048BF0CC05DF804EB890028BF53
:1002400040F8042B08BF704748BF20F8022B11F07C
:10025000804F18BF00F8012B7047704770477047F8
:1002600000487047C000002070477546FFF7F8FF50
:10027000AE4605006946534620F00700854618B093
:1002800020B5FFF7B1FFBDE820404FF000064FF06A
:1002900000074FF000084FF0000BAC46ACE8C00977
:1002A000ACE8C009ACE8C009ACE8C00921F007011E
:1002B0008D46704710B50446AFF300802046BDE878
:1002C0001040FFF77CBF000001491820ABBEFEE7DD
:1002D0002600020080B584B0ADF80E0040F2B800F0
:1002E000C2F200000068806B029000F027FA0190D3
:1002F00000F02EFA019ADDF808C00346BDF80E00A2
:100300006946086000210846E04704B080BD00004F
:1003100080B586B0ADF81600ADF814100492BDF8A3
:1003200016000390BDF81400029040F22010C2F2B3
:100330000000806801909DF8100004F0CDFB019A48
:1003400002990346039802EB8302526800F052FBC5
:1003500006B080BD80B58EB0ADF83600ADF8341073
:100360000C928DF82F300120ADF82C000020ADF854
:100370002A000990089007900C980690069804F0BF
:10038000CFFB0790FFE70698411C0691007820B14B
:10039000FFE7099801300990F5E700F0CFF90799D8
:1003A000B0FBF1F00999B0FBF1F008909DF82F0037
:1003B00001460491012808D0FFE70498022811D0D3
:1003C000FFE70498032808D013E0BDF8360007992A
:1003D000A0EB5100ADF82C0010E0BDF83600ADF8F0
:1003E0002C000BE0BDF836100798401AADF82C0031
:1003F00004E0BDF83600ADF82C00FFE740F2201015
:10040000C2F20000806803900C98007804F064FB4E
:100410000146039800EB810040680088ADF81600A3
:10042000FFE70C980078002818BF0120029000F028
:1004300085F901460298BDF82C20891ABDF81630BE
:10044000CA1A00219A42A8BF012108422AD0FFE718
:10045000BDF82C00BDF834100C9A1278FFF758FF45
:10046000BDF81610BDF82C000844ADF82C000C980F
:1004700001300C90BDF82A000130ADF82A0040F29E
:100480002010C2F20000806801900C98007804F0FF
:1004900023FB0146019800EB810040680088ADF81D
:1004A0001600BEE70EB080BD80B586B0ADF8160070
:1004B000ADF8141004920020ADF80E00ADF80C0059
:1004C0000498029002980088ADF80C0002984088C9
:1004D000ADF80E00BDF81600BDF81410BDF80C20E4
:1004E000BDF80E3004F042F840F2B800C2F200004D
:1004F0000068006B68B1FFE740F2B800C2F200008C
:100500000068036BBDF81600BDF81410049A9847F4
:10051000FFE700F013F9019000F01AF9019A034681
:100520000021084604F022F806B080BD80B584B0F2
:10053000ADF80E00ADF80C10ADF80A2000200190C7
:1005400040F2B800C2F200000068006AA0B1FFE704
:1005500040F2B800C2F200000068D0F820C040F2BB
:100560002010C2F200000088BDF80E10BDF80C206B
:10057000BDF80A30E0471CE000200190FFE7019839
:10058000BDF80A10884213D2FFE7BDF80E000199AA
:100590000844BDF80C1040F22012C2F2000212888A
:1005A00080B200F009F8FFE7019801300190E6E71A
:1005B000FFE704B080BD000080B582B0ADF8060052
:1005C000ADF80410ADF8022040F2B800C2F200000D
:1005D0000068406970B1FFE740F2B800C2F2000065
:1005E00000684369BDF80600BDF80410BDF802209C
:1005F0009847FFE702B080BD80B582B0ADF8060035
:10060000ADF80410ADF80220ADF80030BDF80600DA
:10061000BDF80410BDF80220FFF788FFBDF8060002
:10062000BDF80410BDF8002011440139BDF80220C6
:1006300089B2FFF77BFFBDF80600BDF80410BDF8D6
:10064000002000F00FF8BDF80600BDF802100844C5
:100650000138BDF80410BDF8002080B200F002F8A7
:1006600002B080BD80B584B0ADF80E00ADF80C10BE
:10067000ADF80A200020019040F2B800C2F200005C
:100680000068406AA0B1FFE740F2B800C2F2000083
:100690000068D0F824C040F22010C2F200000088A8
:1006A000BDF80E10BDF80C20BDF80A30E0471CE084
:1006B00000200190FFE70198BDF80A10884213D28C
:1006C000FFE7BDF80E00BDF80C10019A114440F28E
:1006D0002012C2F20002128889B2FFF76DFFFFE715
:1006E000019801300190E6E7FFE704B080BD00000B
:1006F00010B584B0ADF80E00ADF80C10ADF80A20BE
:10070000ADF8083040F2B800C2F200000068D0F83E
:1007100038C0BDF80E00BDF80C10BDF80A20BDF8B9
:10072000083040F2201EC2F2000EBEF800E06C4617
:10073000C4F800E0E04704B010BD000080B540F20E
:10074000B800C2F200000068806A804780BD0000E7
:1007500080B540F2B800C2F200000068C06A80476D
:1007600080BD000080B582B001208DF8070040F206
:10077000B800C2F2000000680068804740F2201212
:10078000C2F200024FF6FF7050600021009111602C
:1007900046F66011C0F600019160FFF79BFD0098DE
:1007A0008DF807009DF8070002B080BD81B0ADF85C
:1007B0000200BDF8020040F22011C2F200014860C0
:1007C00001B0704781B00090009840F22011C2F251
:1007D0000001886001B0704781B0ADF80200BDF83B
:1007E000020040F22011C2F20001086001B070471F
:1007F00080B58AB0099040F2BC00C2F200000068E7
:100800000169002088470999088009980088002814
:1008100000F08780FFE740F2BC00C2F200000068F1
:10082000436900200DF1220108AA9847BDF8220073
:100830000790BDF82000069040F22E10C2F2000092
:10084000008880024EF61B41C9F2CB51A0FB01107B
:10085000C00A039040F23010C2F20000008880020B
:100860004BF66F01C9F2D401A0FB0110C00A02903F
:1008700003984FF4C8714843019002984FF48C716B
:1008800048430090079803994843800A019900EB78
:100890009120C0F5F0700590069802994843800AAF
:1008A000009900EB9120C0F5A07004900598B0F17C
:1008B000FF3F03DCFFE70020059011E0059840F2C0
:1008C0002E11C2F200010988884208DBFFE740F2DE
:1008D0002E10C2F20000008801380590FFE7FFE704
:1008E0000498B0F1FF3F03DCFFE70020049011E023
:1008F000049840F23011C2F200010988884208DBF6
:10090000FFE740F23010C2F2000000880138049086
:10091000FFE7FFE7059809994880049809998880BE
:10092000FFE70AB080BD000080B582B0ADF80600D8
:10093000ADF8041001208DF80300BDF8060040F268
:100940002E11C2F200010880BDF8042040F23010E0
:10095000C2F200000280098889024EF61B42C9F2E9
:10096000CB52A1FB0221CA0A40F6F021C2F20001DB
:100970000A60008880024BF66F02C9F2D402A0FB25
:100980000220C20A40F6F420C2F2000002600968A8
:100990004FF4C872514340F23812C2F200021160A3
:1009A00000684FF48C71484340F23C11C2F20001E0
:1009B000086040F2BC00C2F20000006820B1FFE70E
:1009C00000208DF80300FFE79DF8030048B9FFE71A
:1009D00040F2BC00C2F200000068016800208847B5
:1009E000FFE79DF8030002B080BD0000FFE7FEE7CF
:1009F0007047000080B58CB0ADF82E00ADF82C101B
:100A00000A920020ADF82600ADF8240040F2201133
:100A1000C2F2000189680988ADF826100A99089188
:100A200008990988ADF8241040F24011C2F2000183
:100A30000791BDF82610079A5180BDF82410079A37
:100A40001180BDF82410BDF826205143079A51604B
:100A50008021069105900490BDF82400C008039001
:100A6000BDF82400400720B1FFE703980130039050
:100A7000FFE70898049A039B059902FB03121044B0
:100A80000131059180788DF80B0000200190FFE77F
:100A90000198BDF82610BDF824205143B0EB410F5A
:100AA00073DAFFE79DF80B000699084212D0FFE7C2
:100AB00040F22010C2F200000168090A019B40F2D6
:100AC0004012C2F2000213445972006801991144A5
:100AD000087219E040F22010C2F200004168090AD1
:100AE0008DF8031040688DF802009DF8030001990D
:100AF00040F24012C2F20002114448729DF8020016
:100B0000019911440872FFE7069840100690069874
:100B100070B1FFE7019800EBD071012000EB61029A
:100B2000BDF8241092FBF1F000FB112040BBFFE761
:100B30000598039988420DD1FFE70020059004989D
:100B4000013004900498BDF82610884201D1FFE7D7
:100B50001BE0FFE7802006900498BDF8261088422D
:100B600001DBFFE711E00898049A039B059902FB5B
:100B7000031210440131059180788DF80B00FFE7D6
:100B8000FFE701980230019082E7BDF82E00BDF822
:100B90002C1040F24012C2F20002FFF785FC0CB0AC
:100BA00080BD000080B54FF4006000F0BDFDB8B11D
:100BB000FFE74FF4006000F079FC40F60000C4F25B
:100BC00001000821C0F2084100F020FF38B9FFE71A
:100BD00040F60631C2F2000101200870FFE7FFE78E
:100BE0004FF4004000F0A0FD28B1FFE74FF40040B3
:100BF00000F05CFCFFE780BD80B5082000F094FDAC
:100C0000C0B1FFE7082000F051FC40F60000C4F23C
:100C1000010040F6080100F0F9FE38B9FFE740F6A0
:100C20000631C2F2000101200870FFE7082000F041
:100C30003DFCFFE780BD000081B0EFF3108072B68D
:100C40000090FFE7FEE70000FFE7FEE780B582B017
:100C50000190019802F03CFA02B080BD81B08DF89D
:100C600003009DF8030038B1FFE740F29811C4F289
:100C700022210120086006E040F29811C4F22221EE
:100C800000200860FFE701B07047000081B00090CD
:100C9000FFE70098411E009108B1FFE7F9E701B0B6
:100CA0007047000080B582B041F21801C4F2020121
:100CB000086840F01C00086040F28011C4F2212155
:100CC000009101200190086040F6000CC4F2010C74
:100CD000DCF80010022363F30301CCF8001040F2AB
:100CE0009811C4F22221086041F20002C4F201020C
:100CF000116863F31B61116040F28411C4F2212179
:100D0000086040F29011C4F22221086040F288117C
:100D1000C4F22121086040F29411C4F2222108603B
:100D2000DCF80010032363F30711CCF800101168FE
:100D300063F313411160DCF8001063F30B21CCF86E
:100D40000010116863F31751116040F60042C4F2BD
:100D500001024FF03331116040F60442C4F2010247
:100D60001160FFF773FF009A019800211160FFF7EF
:100D70006DFF009901980860FFF768FF02B080BD21
:100D800080B590B08DF83F000E910D920C9340F21B
:100D90008411C4F221210020086040F29011C4F2B5
:100DA0002221099108609DF83F2040F6F821C2F207
:100DB00000010A80098840F60C42C4F20102116069
:100DC00040F28811C4F22121089108600720FFF742
:100DD0005DFF089A099901201060086040F6004103
:100DE000C4F201014FF04430086040F60441C4F2FF
:100DF00001010860FFE70C98411E0C9170B1FFE7FC
:100E000040F29411C4F222210791002008601120C1
:100E1000FFF73CFF079901200860ECE7FFE70D981A
:100E2000411E0D91002874D0FFE740F29411C4F2E6
:100E30002221059100200190086011200290FFF707
:100E400025FF01990298059A40F60843C4F2010370
:100E50000393D3F800C040F6F823C2F200030493D2
:100E6000A3F800C01B88ADF8283001230693136057
:100E70001160FFF70BFF01990298DDF810C0059A89
:100E8000069BDDF80CE0DEF800E0ACF800E0BCF812
:100E900000C0ADF82AC013601160FFF7F7FE039B96
:100EA000049A059906981B6813801288ADF82C20C7
:100EB00008609DF828209DF829009DF82B1000F06F
:100EC000F800000202F0FC0240EAC20040EAD10051
:100ED0000E9908800E9802300E900D98C0B1FFE771
:100EE0009DF82A009DF82C109DF82D2000F0F800A8
:100EF000000202F0FC0240EAC20040EAD1000E9972
:100F000008800E9802300E900D9801380D90FFE782
:100F100085E740F28411C4F221210120086040F6E7
:100F20000041C4F201014FF03330086040F6044143
:100F3000C4F20101086010B080BD000080B58AB025
:100F40008DF8270008910792069340F28411C4F2AD
:100F500021210020086040F29011C4F22221049166
:100F600008609DF8272040F6F821C2F200010A80AF
:100F7000098840F60C42C4F20102116040F2881167
:100F8000C4F22121039108600720FFF77FFE039A36
:100F9000049901201060086040F60041C4F201018C
:100FA0004FF04430086040F60441C4F2010108608B
:100FB000FFE70698411E069170B1FFE740F29411D9
:100FC000C4F222210291002008601120FFF75EFE8A
:100FD000029901200860ECE7FFE70798411E07919E
:100FE00010B3FFE740F29411C4F2222101910020D6
:100FF00008601120FFF74AFE019940F60840C4F24C
:101000000100026840F6F820C2F200000280008869
:10101000ADF81600012008609DF8160008990870C8
:10102000089801300890D8E740F28411C4F22121D9
:101030000120086040F60041C4F201014FF0333056
:10104000086040F60441C4F2010108600AB080BDA6
:1010500080B584B08DF80F0040F28411C4F22121D4
:1010600002910020086040F29011C4F22221019107
:1010700008609DF80F2040F6F821C2F200010A80B6
:10108000098840F60C42C4F20102116040F2881156
:10109000C4F22121009108600720FFF7F7FD009BB3
:1010A000019A0299012018601060086004B080BDA8
:1010B00080B586B08DF81700ADF81410049240F298
:1010C0008411C4F221210020086040F29011C4F282
:1010D0002221039108609DF8172040F6F821C2F202
:1010E00000010A80098840F60C42C4F20102116036
:1010F00040F28811C4F22121029108600720FFF715
:10110000C5FD029A0399012010600860FFE704986A
:10111000411E0491D8B1FFE7BDF8141040F6F82045
:10112000C2F200000180008840F60C41C4F20101C7
:10113000086040F28811C4F221210191002008606A
:101140000720FFF7A3FD019901200860DFE740F2C7
:101150008411C4F221210120086006B080BD000086
:1011600080B586B08DF817000491039240F2841187
:10117000C4F221210020086040F29011C4F2222123
:10118000029108609DF8172040F6F821C2F2000194
:101190000A80098840F60C42C4F20102116040F254
:1011A0008811C4F22121019108600720FFF76EFD2C
:1011B000019A0299012010600860FFE70398411E20
:1011C0000391F0B1FFE70498018840F6F820C2F2DD
:1011D00000000180008840F60C41C4F20101086063
:1011E00040F28811C4F221210091002008600720FC
:1011F000FFF74CFD0099012008600498023004902C
:10120000DCE740F28411C4F221210120086006B01D
:1012100080BD000080B586B08DF817000491039260
:1012200040F28411C4F221210020086040F29011A4
:10123000C4F22221029108609DF8172040F6F8219F
:10124000C2F200010A80098840F60C42C4F2010291
:10125000116040F28811C4F2212101910860072039
:10126000FFF714FD019A0299012010600860FFE762
:101270000398411E0391F0B1FFE70498017840F60E
:10128000F820C2F200000180008840F60C41C4F250
:101290000101086040F28811C4F221210091002070
:1012A00008600720FFF7F2FC00990120086004980D
:1012B00001300490DCE740F28411C4F221210120C6
:1012C000086006B080BD000080B584B0ADF80E00A7
:1012D00040F28411C4F22121029100200860BDF87F
:1012E0000E2040F6F821C2F200010A80098840F67B
:1012F0000C42C4F20102116040F28811C4F22121B3
:10130000019108600720FFF7C1FC019A02990120B2
:101310001060086004B080BD80B584B08DF80F0007
:1013200040F28411C4F221210291002008609DF84E
:101330000F2040F6F821C2F200010A80098840F629
:101340000C42C4F20102116040F28811C4F2212162
:10135000019108600720FFF799FC019A029901208A
:101360001060086004B080BD82B00190019A41F223
:101370001C00C4F202000168114301600068019979
:1013800008400090009802B07047000082B00190C1
:10139000019A41F21C00C4F202000168114301608D
:1013A0000068019908400090009802B07047000062
:1013B00082B00190019A41F21C00C4F2020001685F
:1013C000114301600068019908400090009802B044
:1013D0007047000082B00190019A41F21C00C4F2F3
:1013E0000200016811430160006801990840009003
:1013F000009802B07047000082B00190019A41F25B
:101400001800C4F2020001681143016000680199EC
:1014100008400090009802B07047000082B0019030
:10142000019A41F21800C4F2020001681143016000
:101430000068019908400090009802B070470000D1
:1014400082B00190019A41F21800C4F202000168D2
:10145000114301600068019908400090009802B0B3
:101460007047000082B00190019A41F21800C4F266
:101470000200016811430160006801990840009072
:10148000009802B07047000082B00190019A41F2CA
:101490001800C4F20200016811430160006801995C
:1014A00008400090009802B07047000081B00090A2
:1014B000009840F21441C4F20101086001B0704785
:1014C00081B00090009A40F20441C4F20101086822
:1014D0009043086001B0704781B00090009A40F2DC
:1014E0000C41C4F2010108689043086001B07047E4
:1014F00081B00090009A40F20041C4F201010868F6
:101500009043086001B0704781B00090009A40F2AB
:101510000841C4F2010108689043086001B07047B7
:1015200081B00090009A40F20441C4F201010868C1
:101530001043086001B0704781B00090009A40F2FB
:101540000C41C4F2010108681043086001B0704703
:1015500081B00090009A40F20041C4F20101086895
:101560001043086001B0704781B00090009A40F2CB
:101570000841C4F2010108681043086001B07047D7
:1015800080B584B0039000208DF80B00039840884C
:10159000C00808B9FFE707E042F25F00C0F60300A9
:1015A0006E2103F093FAFFE70398007928B1FFE773
:1015B00003980079012801D1FFE707E042F25F00BC
:1015C000C0F603006F2103F081FAFFE7039840792A
:1015D00050B1FFE703984079012805D0FFE7039851
:1015E0004079022801D1FFE707E042F25F00C0F630
:1015F0000300702103F06AFAFFE7039800790028DE
:1016000000F08480FFE70398807978B1FFE70398C2
:10161000807901280AD0FFE703988079022805D055
:10162000FFE703988079032801D1FFE707E042F242
:101630005F00C0F60300752103F048FAFFE7039846
:101640000068002861D0FFE70398407901460191C6
:1016500040B1FFE7019801280DD0FFE7019802286B
:1016600012D01AE003980068FFF72AFF0398006879
:10167000FFF76EFF15E003980068FFF739FF039846
:101680000068FFF74DFF0CE003980068FFF760FF6C
:1016900003980068FFF744FF03E001208DF80B007A
:1016A000FFE70398807978B3FFE7039880790146D4
:1016B0000091012808D0FFE7009802280DD0FFE72D
:1016C0000098032812D01AE003980068FFF704FF7F
:1016D00003980068FFF748FF15E003980068FFF7DC
:1016E00013FF03980068FFF727FF0CE003980068DA
:1016F000FFF73AFF03980068FFF71EFF03E00120A1
:101700008DF80B00FFE7FFE7FFE708E003980068AC
:10171000FFF7EEFE03980068FFF7D2FEFFE79DF8A3
:101720000B0004B080BD000081B0009040F2144076
:10173000C4F20100006800990840401AB0FA80F035
:10174000400901B07047000042F20000C4F20200FC
:10175000006800F00700704781B0009042F200017D
:10176000C4F20201086820F00700009A10430860E4
:1017700001B070470421C4F20101086840F600423C
:10178000C0F2007210430860704700000421C4F2E8
:101790000101086820F0E0600860086840F000700F
:1017A0000860704782B0019000919DF80000082108
:1017B000C4F2010151F82000009A4FEA124C20EACD
:1017C0001240019B9CFAACFCBCFA8CFC03FA0CF3B3
:1017D0001843D2B241F8220002B0704780B586B0FB
:1017E00005900491059840F60001C4F20101884279
:1017F00030D0FFE7059840F60041C4F2010188426D
:1018000028D0FFE7059841F20001C4F201018842A7
:1018100020D0FFE7059841F20041C4F2010188425F
:1018200018D0FFE7059841F60001C4F20101884293
:1018300010D0FFE7059841F60041C4F2010188424B
:1018400008D0FFE7059842F20001C4F20101884286
:1018500001D1FFE707E041F6F070C0F60300A321D5
:1018600003F034F9FFE7049800686FF07B41084209
:1018700007D0FFE70498C07810F0FB0F01D1FFE715
:1018800007E041F6F070C0F60300A42103F01EF952
:10189000FFE704980068C0F30F200390039890FAC4
:1018A000A0F0B0FA80F00290FFE703980299C840D8
:1018B000002800F0A880FFE703980299C840C007FD
:1018C000002800F09C80FFE70298072806D8FFE771
:1018D000029940F201108840019009E00298A0F1BD
:1018E00008014FF00110884040F080600190FFE750
:1018F00004984068082819D1FFE70498006928B1C6
:10190000FFE704980069012801D1FFE707E041F6ED
:10191000F070C0F60300BF2103F0D8F8FFE7059888
:101920000199049A126900F0E1F8FFE70498406811
:10193000A0B1FFE70498406804280FD0FFE704989F
:10194000406808280AD0FFE704984068012805D0BD
:10195000FFE704984068092801D1FFE707E041F656
:10196000F070C0F60300C62103F0B0F8FFE7059859
:101970000199049A526800F085F80498406801289B
:1019800005D0FFE704984068092837D1FFE704989D
:10199000806802280AD0FFE704988068012805D0F3
:1019A000FFE704988068032801D1FFE707E041F6CC
:1019B000F070C0F60300CE2103F088F8FFE704982A
:1019C000C06828B1FFE70498C068042801D1FFE788
:1019D00007E041F6F070C0F60300CF2103F076F87F
:1019E000FFE705980199049A926800F095F8059828
:1019F0000199049AD26800F05FF8FFE7FFE70298C8
:101A00000130029051E7002006B080BD82B0019005
:101A1000009101988068BDF801100840401AB0FAA2
:101A200080F0400902B0704782B001900091BDF88B
:101A300001000199486102B07047000082B0019036
:101A40000091BDF801000199086102B070470000E3
:101A500084B003900291019203989DF80B10084402
:101A6000009000990868029A92FAA2F2B2FA82F201
:101A700093000F229A409043019A9A4010430860C5
:101A800004B0704784B003900291019203989DF8CE
:101A90000B100844009000990868029A92FAA2F28A
:101AA000B2FA82F293000F229A409043019A9A4030
:101AB0001043086004B0704784B003900291019213
:101AC00003989DF80B100844009000990868029A4A
:101AD00092FAA2F2B2FA82F2930004229A40904360
:101AE000019A9A401043086004B0704783B0029096
:101AF000019100920298C06801990A0A20EA112017
:101B0000009992FAA2F2B2FA82F291400843029945
:101B1000C86003B07047000084B003900291019246
:101B200003989DF80B100844009000990868029AE9
:101B300092FAA2F2B2FA82F2930003229A40904300
:101B4000019A9A401043086004B0704784B0039033
:101B500002910398C0680190BDF809000090019AB5
:101B6000009802EA0001904340EA014003990861AD
:101B700004B0704780B582B0019001984FF47A713B
:101B800000F002F802B080BD82B00190009101988F
:101B90000099B0FBF1F001384EF21401CEF20001D1
:101BA00008604EF21801CEF20001002008604EF2EB
:101BB0001001CEF200010520086002B0704700005D
:101BC00047F20001C4F20001086840F48070086028
:101BD0007047000041F22001C4F20201086840F49D
:101BE000004008607047000041F20400C4F20200A7
:101BF000006800F0F000704741F20400C4F20200F7
:101C0000006800F4E060704741F20400C4F2020092
:101C1000006800F46050704741F20400C4F2020012
:101C2000006800F00C00704741F20400C4F20200AA
:101C3000006800F00C00704780B582B0019002F09F
:101C4000C7FB019908600198006802F089FB0199BF
:101C500048600198406802F097FB019988600198FC
:101C6000406802F0A3FB0199C86002B080BD00008B
:101C700041F20001C4F20201086840F480300860BB
:101C80007047000041F20000C4F202000068C0F397
:101C90004040704782B00190009141F20401C4F2CB
:101CA0000201086820F47C10019A02F44032009B83
:101CB0001A431043086002B07047000041F200016F
:101CC000C4F20201086840F08070086070470000AC
:101CD00041F20400C4F20200006800F48030704752
:101CE00041F20400C4F20200006800F47010704772
:101CF00041F20400C4F202000068C0F340407047A3
:101D000041F20000C4F202000068C0F34060704776
:101D100081B0009041F20401C4F20201086820F091
:101D2000F000009A1043086001B0704781B0009045
:101D300041F20401C4F20201086820F4E060009A54
:101D40001043086001B0704781B0009041F2040177
:101D5000C4F20201086820F46050009A1043086041
:101D600001B0704781B0009041F20401C4F2020159
:101D7000086820F00300009A1043086001B0704723
:101D800081B000900099486820F00200486001B0DE
:101D90007047000081B000900099486820F004006E
:101DA000486001B07047000081B000900099486819
:101DB00020F00800486001B07047000081B000903A
:101DC0000099486820F00100486001B070470000A9
:101DD00081B000900099486820F00100486001B08F
:101DE0007047000081B000900099486840F01000F2
:101DF000486001B07047000081B000900099086809
:101E000040F00100086001B07047000081B0009010
:101E10000099486820F01000486001B07047000049
:101E200080B586B005904FF47A70049000208DF84C
:101E30000F000290059842F60001C4F200018842AA
:101E400001D1FFE708E042F22800C0F603004FF49A
:101E5000BA7102F03BFEFFE7059800F001F902902D
:101E6000FFE704990020019031B1FFE702980138A3
:101E700018BF01200190FFE70198C007A8B1FFE754
:101E800000F0FCFB012804D1FFE70498013804901E
:101E9000FFE7059800F0E4F80290049820B9FFE706
:101EA00001208DF80F00FFE7DBE70598FFF79AFFA9
:101EB0009DF80F0006B080BD80B586B005904FF448
:101EC0007A70049000208DF80F000290059842F679
:101ED0000001C4F20001884201D1FFE708E042F2AC
:101EE0002800C0F6030040F29B1102F0EFFDFFE76F
:101EF0000598FFF78BFF059800F0B2F80290FFE716
:101F000004990020019031B1FFE70298013818BF11
:101F100001200190FFE70198C007A8B1FFE700F09A
:101F2000ADFB012804D1FFE7049801380490FFE7D6
:101F3000059800F095F80290049820B9FFE7012079
:101F40008DF80F00FFE7DBE79DF80F0006B080BDBE
:101F500080B584B00390029101208DF807000398AA
:101F600042F60001C4F20001884201D1FFE707E018
:101F700042F22800C0F60300A22102F0A7FDFFE70D
:101F8000029801680020B0EB115F01D1FFE707E084
:101F900042F22800C0F60300A32102F097FDFFE7FC
:101FA0000298406888B1FFE70298406880280CD00A
:101FB000FFE702984068B0F5807F06D0FFE70298FF
:101FC0004068B0F5407F01D1FFE707E042F228000A
:101FD000C0F60300A42102F079FDFFE7039800F0AA
:101FE00087F901282FD0FFE70398FFF719FF012891
:101FF00028D0FFE70398FFF7C3FE0398FFF7CAFE58
:102000000398FFF7E5FE0298406838B1FFE746F60F
:102010000040C4F2000000F065F8FFE70298416854
:1020200046F60040C4F2000000F04EF80398029912
:10203000096800F033F80398FFF73EFF00208DF8A1
:102040000700FFE7FFE79DF8070004B080BD000030
:1020500081B0009000984068C0F3C00001B07047A4
:1020600081B0009000984068C0F3401001B0704704
:1020700082B0019000910198806820F00F00BDF8B7
:1020800002100843019988600198C068009961F3C3
:102090000F000199C86002B07047000082B0019043
:1020A00000910198806820F00F00BDF802100843ED
:1020B000019988600198C068009961F30F00019947
:1020C000C86002B07047000082B001900091019892
:1020D000C06A20F46070009908430199C86202B098
:1020E0007047000081B0009046F63041C4F2000114
:1020F000086820F00100086001B0704780B586B024
:1021000005900491039201208DF80B0000200190AE
:10211000059842F60001C4F20001884201D1FFE7B0
:1021200007E042F22800C0F60300E42102F0CEFCF2
:10213000FFE7049820B1FFE70498012801D1FFE7E9
:1021400007E042F22800C0F60300E52102F0BEFCE1
:10215000FFE7049858BBFFE703980078172801D8D9
:10216000FFE707E042F22800C0F60300E92102F091
:10217000ADFCFFE7039840783B2801D8FFE707E074
:1021800042F22800C0F60300EA2102F09FFCFFE7BC
:10219000039880783B2801D8FFE707E042F2280047
:1021A000C0F60300EB2102F091FCFFE742E0039848
:1021B0000078010901EB810100F00F0000EB410004
:1021C000C0B2172801D8FFE707E042F22800C0F6A6
:1021D0000300EF2102F07AFCFFE703984078010941
:1021E00001EB810100F00F0000EB4100C0B23B2881
:1021F00001D8FFE707E042F22800C0F60300F02113
:1022000002F064FCFFE703988078010901EB81018B
:1022100000F00F0000EB4100C0B23B2801D8FFE7FF
:1022200007E042F22800C0F60300F12102F04EFC64
:10223000FFE7FFE70598FFF7F3FD012843D0FFE72D
:10224000049890B9FFE7039908784A7889784FF4A1
:1022500061635843C2EB021200EB82000844019014
:102260000598019900F036F829E0039908784A7832
:102270008978030903EB830300F00F0000EB4300B0
:10228000C0B24FF461635843130903EB830302F0B8
:102290000F0202EB4302D2B2C2EB021200EB820049
:1022A0000A0902EB820201F00F0101EB4201C9B2FF
:1022B000084401900598019900F00CF8FFE7002010
:1022C0008DF80B00FFE70598FFF7F6FD9DF80B0072
:1022D00006B080BD82B001900091BDF80200019966
:1022E0008861BDF800000199C86102B07047000024
:1022F00080B586B005904FF47A70049000208DF878
:102300000F000290059842F60001C4F200018842D5
:1023100001D1FFE708E042F22800C0F6030040F2D6
:10232000F51102F0D3FBFFE70598FFF73DFD059897
:10233000FFF78EFE0290FFE704990020019031B173
:10234000FFE70298002818BF01200190FFE70198DD
:10235000C007A8B1FFE700F091F9012804D1FFE719
:10236000049801380490FFE70598FFF771FE02908A
:10237000049820B9FFE701208DF80F00FFE7DBE7A5
:102380009DF80F0006B080BD81B0009000990868EC
:1023900040F04000086001B07047000080B584B094
:1023A0000390029101208DF80700039843F2000189
:1023B000C4F20101884210D0FFE7039843F6000100
:1023C000C4F20001884208D0FFE7039843F60041B9
:1023D000C4F20001884201D1FFE707E042F2970012
:1023E000C0F60300B72102F071FBFFE70298006816
:1023F00090B1FFE702980068B0F5806F0CD0FFE75E
:1024000002980068B0F5004F06D0FFE70298006818
:10241000B0F5404F01D1FFE707E042F29700C0F668
:102420000300BA2102F052FBFFE702984068B0F5C2
:10243000827F04D0FFE70298406808B9FFE707E011
:1024400042F29700C0F60300BB2102F03FFBFFE71A
:102450000298806830B1FFE702988068B0F5006F9D
:1024600001D1FFE707E042F29700C0F60300BC216C
:1024700002F02CFBFFE70298C06828B1FFE7029842
:10248000C068022801D1FFE707E042F29700C0F6DA
:102490000300BD2102F01AFBFFE70298006928B192
:1024A000FFE702980069012801D1FFE707E042F247
:1024B0009700C0F60300BE2102F008FBFFE7029878
:1024C0004069B0F5007F0AD0FFE70298406930B15B
:1024D000FFE702984069B0F5802F01D1FFE707E0E0
:1024E00042F29700C0F60300BF2102F0EFFAFFE7C7
:1024F0000298806918B3FFE70298806908281ED007
:10250000FFE702988069102819D0FFE702988069D8
:10251000182814D0FFE70298806920280FD0FFE721
:102520000298806928280AD0FFE70298806930283D
:1025300005D0FFE702988069382801D1FFE707E05E
:1025400042F29700C0F60300C02102F0BFFAFFE795
:102550000298C069802804D0FFE70298C06908B9D2
:10256000FFE707E042F29700C0F60300C12102F046
:10257000ADFAFFE70298006AB0F5005F04D0FFE70C
:102580000298006A08B9FFE707E042F29700C0F638
:102590000300C22102F09AFAFFE7039800F052F814
:1025A000002845D1FFE7039800684FF6BF718843C4
:1025B000029A00921168D2F804E0D2F808C0D368F9
:1025C00041EA0E0141EA0C011943136919435369A9
:1025D000194393691943D3691943126A1143084394
:1025E000039908600398406820F004000299C98AA2
:1025F0000843039948600298006AB0F5005F13D160
:10260000FFE70298406A08B1FFE707E042F297004F
:10261000C0F60300E52102F059FAFFE7039802999A
:10262000496A00F017F8FFE700208DF80700FFE780
:102630000399C86920F40060C8619DF8070004B0E0
:1026400080BD000081B0009000980068C0F3801049
:1026500001B0704782B001900091BDF8000001996F
:10266000086102B0704700004EF21001CEF2000186
:10267000086840F002000860704700004EF2100049
:10268000CEF200000068C0F30040704781B00090B7
:10269000009840F24801C2F20001086001B07047A2
:1026A00080B584B00390029100200190039842F617
:1026B0000041C4F20101884208D0FFE7039843F2C9
:1026C0000041C4F20101884201D1FFE708E042F273
:1026D000CE00C0F6030040F2CA2102F0F7F9FFE78E
:1026E0000298006830B1FFE702980068B0F5006F0B
:1026F00001D1FFE708E042F2CE00C0F6030040F24D
:10270000CB2102F0E3F9FFE70298406830B1FFE720
:1027100002984068B0F5806F01D1FFE708E042F20F
:10272000CE00C0F603004FF4337102F0CFF9FFE79B
:102730000298806890B1FFE702988068B0F5807FCA
:102740000CD0FFE702988068B0F5007F06D0FFE765
:1027500002988068B0F5407F01D1FFE708E042F2BF
:10276000CE00C0F6030040F2CD2102F0AFF9FFE742
:102770000298C08930B1FFE70298C089B0F5805F48
:1027800001D1FFE708E042F2CE00C0F6030040F2BC
:10279000CE2102F09BF9FFE70298006930B1FFE714
:1027A00002980069B0F5005F01D1FFE708E042F24E
:1027B000CE00C0F6030040F2CF2102F087F9FFE718
:1027C0000298406930B1FFE702984069B0F5804F48
:1027D00001D1FFE708E042F2CE00C0F603004FF45B
:1027E000347102F073F9FFE70298007B8DF8040062
:1027F000019820F44070029989680843019001987B
:1028000020F480600299496808430190019820F4FF
:1028100000600299096808430190019820F48050F3
:102820000299C98908430190019820F40050029947
:10283000096908430190019820F480400299496990
:1028400008430190019820F4004002994969084327
:102850000190019803994864002004B080BD0000F5
:1028600081B000900099086820F08000086001B0F5
:102870007047000081B000900099886820F08000C7
:10288000886001B07047000081B0009000994869ED
:1028900040F00100486101B07047000080B584B08D
:1028A00003900291039842F60041C4F2010188426C
:1028B00035D0FFE7039843F20041C4F2010188429A
:1028C0002DD0FFE70398B0F1804F28D0FFE70398A1
:1028D00040F20041C4F20001884220D0FFE7039893
:1028E00040F60001C4F20001884218D0FFE70398C7
:1028F00040F60041C4F20001884210D0FFE703987F
:1029000041F20001C4F20001884208D0FFE70398B9
:1029100041F20041C4F20001884201D1FFE708E022
:1029200042F2CE00C0F603004FF4A57102F0CEF8DB
:10293000FFE702984068A0B1FFE7029840681028BE
:102940000FD0FFE70298406840280AD0FFE70298BE
:102950004068202805D0FFE702984068602801D130
:10296000FFE708E042F2CE00C0F6030040F24B1150
:1029700002F0ACF8FFE70298C06860B1FFE7029888
:10298000C068B0F5807F06D0FFE70298C068B0F558
:10299000007F01D1FFE708E042F2CE00C0F603005D
:1029A0004FF4A67102F092F8FFE7039800680190D7
:1029B000039842F60041C4F20101884225D0FFE7A6
:1029C000039843F20041C4F2010188421DD0FFE7A1
:1029D0000398B0F1804F18D0FFE7039840F2004110
:1029E000C4F20001884210D0FFE7039840F60001CE
:1029F000C4F20001884208D0FFE7039840F6004186
:102A0000C4F20001884208D1FFE7019820F070006D
:102A10000299496808430190FFE7039842F6004194
:102A2000C4F20101884225D0FFE7039843F2004138
:102A3000C4F2010188421DD0FFE70398B0F1804F36
:102A400018D0FFE7039840F20041C4F20001884229
:102A500010D0FFE7039840F60001C4F2000188425D
:102A600008D0FFE7039840F60041C4F20001884215
:102A700008D1FFE7019820F440700299C968084323
:102A80000190FFE70198039908600398029989680B
:102A900000F032F903980299098800F043F903988D
:102AA00042F60041C4F20101884208D0FFE70398D2
:102AB00043F20041C4F20101884206D1FFE70398C6
:102AC0000299096900F036F9FFE70398FFF7DCFE89
:102AD000002004B080BD000089B0089007910798DD
:102AE000012803D1FFE70020049030E00798042874
:102AF00003D1FFE70120039026E00798102803D1B7
:102B0000FFE7022002901CE00798402803D1FFE76E
:102B10000320019012E00798B0F5807F03D1FFE712
:102B20000420009007E007990620B1F5806F08BFE8
:102B300005200090FFE700980190FFE701980290C0
:102B4000FFE702980390FFE703980490FFE70498DB
:102B50008DF81B0008989DF81B2046F2D961C0F63D
:102B60000001895C0844183005909DF81B1046F65A
:102B7000E030C0F60000415C042000FA01F2059943
:102B800008689043086009B07047000089B0089059
:102B900007910798012803D1FFE70020049030E057
:102BA0000798042803D1FFE70120039026E0079847
:102BB000102803D1FFE7022002901CE0079840286C
:102BC00003D1FFE70320019012E00798B0F5807F62
:102BD00003D1FFE70420009007E007990620B1F534
:102BE000806F08BF05200090FFE700980190FFE785
:102BF00001980290FFE702980390FFE70398049082
:102C0000FFE704988DF81B0008989DF81B2046F2FA
:102C1000D961C0F60001895C0844183005909DF820
:102C20001B1046F6E030C0F60000415C082000FAB8
:102C300001F2059908681043086009B07047000068
:102C400080B586B005900491039201208DF80B00A9
:102C50000498019001280ED0FFE70198102811D0A8
:102C6000FFE70198B0F5807F13D0FFE70198B0F53A
:102C7000805F15D01BE00598039900F05BFE8DF88E
:102C80000B0015E00598039900F09CFF8DF80B00F0
:102C90000EE00598039901F0E1F88DF80B0007E0CC
:102CA0000598039901F026FA8DF80B0000E0FFE784
:102CB0009DF80B0006B080BD82B001900091009895
:102CC0000199486302B0704782B00190009100986A
:102CD0000199886302B0704782B00190009100981A
:102CE0000199C86302B0704782B0019000910098CA
:102CF0000199086402B0704782B001900091009879
:102D00000199C86202B0704782B0019000910198A9
:102D1000806844F20701884300990843019988605C
:102D200002B0704782B001900091009801998862CA
:102D300002B0704782B00190009100980199086339
:102D400002B0704782B0019000910198406820F075
:102D50007000009908430199486002B07047000074
:102D600081B000900099086920F4904008610099B2
:102D7000486920F02A00486101B0704781B0009096
:102D80000099C86840F40050C86001B07047000066
:102D900080B588B00790069101208DF817000020BB
:102DA0000490079843F60001C4F20101884220D044
:102DB000FFE7079844F20041C4F20001884218D0AE
:102DC000FFE7079844F60001C4F20001884210D0E2
:102DD000FFE7079844F60041C4F20001884208D09A
:102DE000FFE7079845F20001C4F20001884201D1D3
:102DF000FFE707E042F20510C0F60300CE2101F024
:102E000065FEFFE7069800684AF62021C0F24401FB
:102E1000884201D8FFE707E042F20510C0F6030040
:102E2000CF2101F053FEFFE70698406830B1FFE77D
:102E300006984068B0F5805F01D1FFE707E042F2F5
:102E40000510C0F60300D02101F040FEFFE7069810
:102E50008068B0F5805F10D0FFE70698806860B1A9
:102E6000FFE706988068B0F5405F06D0FFE7069858
:102E70008068B0F5005F01D1FFE707E042F205107E
:102E8000C0F60300D12101F021FEFFE70698C068DB
:102E900060B1FFE70698C068B0F5806F06D0FFE725
:102EA0000698C068B0F5C06F01D1FFE707E042F2B5
:102EB0000510C0F60300D22101F008FEFFE70698D6
:102EC000006978B1FFE70698006904280AD0FFE797
:102ED00006980069082805D0FFE7069800690C28C5
:102EE00001D1FFE707E042F20510C0F60300D3214D
:102EF00001F0ECFDFFE70698406990B1FFE7069806
:102F00004069B0F5807F0CD0FFE706984069B0F5C6
:102F1000007F06D0FFE706984069B0F5407F01D1F9
:102F2000FFE707E042F20510C0F60300D42101F0EC
:102F3000CDFDFFE7079800F07FF8002878D1FFE784
:102F40000798C06841F20C618843069A5168D368BB
:102F500012691943114308430799C86007980699F5
:102F6000896800F0A7F807980699496900F094F875
:102F70006846FEF761FE079843F60001C4F20101BE
:102F8000884203D1FFE70398049030E0079844F2A9
:102F90000041C4F20001884203D1FFE70298049087
:102FA00024E0079844F60001C4F20001884203D1EE
:102FB000FFE70298049018E0079844F60041C4F235
:102FC0000001884203D1FFE7029804900CE00798C3
:102FD00045F20001C4F20001884203D1FFE70298E4
:102FE000049000E0FFE7FFE7FFE7FFE7FFE7049853
:102FF000E8B1FFE706980068C8B1FFE700208DF848
:10300000170007980499069A126800F01DF80798AF
:103010008068102801D3FFE708E042F20510C0F6EF
:1030200003004FF49B7101F051FDFFE7FFE7FFE75D
:103030009DF8170008B080BD81B000900098C0686E
:10304000C0F3403001B0704783B00290019100920C
:1030500001981921484300998900B0FBF1F348F227
:103060001F51C5F2EB11A3FB01204209642002FBB2
:103070001033322000EB0310A0FB0101F02000EA26
:10308000511000EB0210C1F34311084480B20299C1
:10309000886003B07047000082B0019000910198F1
:1030A000406920F44070009908430199486102B0DA
:1030B0007047000082B0019000910198006920F4EF
:1030C0004050009908430199086102B07047000020
:1030D00082B001904EF21000CEF200000068009025
:1030E00000980198013020B1FFE70198013001906C
:1030F000FFE7FFE7019870B1FFE74EF21000CEF254
:1031000000000068C003002804D5FFE701980138DB
:103110000190FFE7EEE702B07047000010B598B0ED
:1031200000200F9017901690159014901390129005
:1031300011901020FEF772F92020FEF76FF904209D
:103140000C90FEF76BF908200790FEF767F941F243
:103150000000C4F20100039040F20771C0F2024186
:10316000FEF762FC40F60040C4F2010002904FF608
:10317000FF71C0F21F410191FEF756FC40F60000BE
:10318000C4F201000B901121C0F21141FEF74CFC7A
:1031900041F20040C4F20100069040F20441059162
:1031A000FEF742FC039843F63801C0F20841FEF7EF
:1031B00045FC0B9841F21771FEF740FC03980F99FC
:1031C00043F63F72C0F20A42119201220992129212
:1031D000022208921392149111A90491FEF7FEFAAB
:1031E0000499089BDDF824C00F9A0B9841F2177ED2
:1031F000C0F2114ECDF844E0CDF848C013931492BC
:10320000FEF7ECFA0499089BDDF824C00F9ADDF86C
:1032100004E00298CDF844E0CDF848C0139314922E
:10322000FEF7DCFA04990C9A03981423C0F21443B5
:1032300011931292FEF7D2FA0499089BDDF824C08C
:103240000F9ADDF814E00698CDF844E0CDF848C0B8
:1032500013931492FEF7C2FA0F984FF07041FEF7E5
:10326000A1FA0F980221CFF20001FEF79BFA0F9806
:103270000321CFF20001FEF795FA079B0898099AFF
:103280000F9916938DF85C208DF85D108DF85E0017
:1032900016A80A90FEF774F9099A0F990A984FF444
:1032A000006316938DF85C208DF85D1003218DF876
:1032B0005E10FEF765F909990F9A0A984FF40043DA
:1032C00016938DF85C108DF85D208DF85E10FEF77A
:1032D00057F90C9A0B9840F60801FEF7B9FB0B98CA
:1032E0000C9A0821C0F20841FEF7B2FB0B980C9A29
:1032F0008021C0F28041FEF7ABFB01F029FB0F9A61
:103300000E210E9100F074FA014609200D9001F093
:1033100059FB0D9801F0CCFA01F01AFB0E990F9AA7
:1033200000F066FA01462820109001F04BFB10983F
:1033300001F0BEFA18B010BD80B586B00020009034
:1033400005900490FEF73CFC4FF00060FEF71EF87D
:10335000FEF740FC01F004FB009A0F2100F07EFA1A
:1033600001460320019001F04FFB019801F0B8FAEB
:1033700047F6FF700290049042F60000C4F200008D
:10338000039004A9FEF7E4FD02990398FEF770FE8E
:1033900006B080BD80B596B00CA805902821FCF73A
:1033A00035FF002004900B900A9009900890079038
:1033B0004FF48050FEF744F804200090FEF740F8E8
:1033C00004984AF2A001079109210891032109916B
:1033D0000A9040F60000C4F20100029007A9019192
:1033E000FEF7FCF9009A0199029844F24003079312
:1033F0000892FEF7F3F901F0BBFA049A114600F0C7
:1034000063FA01462320039001F020FB039801F0AA
:103410007FFA049805990C904FF482720D920E90E9
:103420000F9010904FF4007211922022129213907C
:1034300014900A20159043F20000C4F20100069097
:10344000FEF7ACFF0698FEF79FFF16B080BD0000A8
:1034500080B596B00CA805902821FCF7D7FE002077
:1034600004900B900A900990089007904FF48040C8
:10347000FDF79EFF0820FDF7E3FF0498A021C0F2AE
:10348000A041079109210891032109910A9040F672
:103490000040C4F20100029007A90191FEF79EF9D5
:1034A000019902984022C0F24042079204220892F9
:1034B000FEF794F901F05CFA049A114600F004FA60
:1034C00001462420039001F0C1FA039801F020FA8C
:1034D000049805990C904FF482720D920E900F9003
:1034E00010904FF4007211921290139014900A20D1
:1034F000159043F60000C4F200000690FEF74EFF60
:103500000698FEF741FF16B080BD000080B596B06A
:103510000020039015901490139012901190109029
:103520000F900E900D900C900B900A9009900890BF
:10353000079006900590049002200290FDF74AFF44
:103540000398ADF8440012904FF6FF711391149058
:1035500040F20040C4F20000019011A9FFF79EF96B
:103560000198FFF77DF9019801210091FFF70EFB0B
:1035700000990198039A602309930A920B920C9286
:103580000D9209AAFFF75CFB00990198FFF7A4FAD6
:1035900001980399FFF7D6FB0198FFF76BF910200C
:1035A000FDF760FF0299039844F240020492092259
:1035B00005920691079041F20000C4F2010004A9AF
:1035C000FEF70CF9FEF7D6F816B080BD80B59EB0B8
:1035D000002005901D901C901B901A901990189037
:1035E00017901690159014901390129011901090BF
:1035F0000F900E900D900C900B900A9009900890EF
:10360000079006904FF400500290FDF72BFF0598AD
:10361000ADF864001A9041F61F411B911C901D905B
:1036200043F20040C4F20100039019A9FFF736F9F4
:103630000398FFF715F903980599FFF765FB0398C1
:103640000599119112911391149115911691179159
:1036500018911021049111AA0092FFF7F1FA049930
:103660000398FFF739FA009A0398202111914FF43B
:1036700080710191FFF7E4FA01990398FFF72CFAA2
:1036800003980599FFF75EFB0398FFF7F3F8029A9A
:10369000039805990B910C910D918DF83810ADF8A8
:1036A0003A100F9210910BA9FEF7FAFF0498FDF75C
:1036B000D9FE059848F28101C0F201410691092125
:1036C000079102210891099041F20000C4F2010023
:1036D00006A9FEF783F81EB080BD000080B592B049
:1036E00000200490119010900F900E900D900C906F
:1036F0000B900A9009900890079006904FF4804034
:10370000FDF7C2FE04200190FDF7BEFE04980221E1
:10371000C0F2024106910921079103210891099005
:1037200040F60000C4F20100039006A90291FEF7E2
:1037300055F8019A029903980423C0F204430693B2
:103740000792FEF74BF804984FF4E1310B910C907F
:103750000D900E900C210F911090119043F60000E7
:10376000C4F2010005900BA9FFF712FB0598FFF7C3
:10377000F7FA0598FFF702FB12B080BDFFE7FEE7FE
:10378000FFE7FEE788B0079006910592079800F0E2
:10379000070004900498C0F10700052803D3FFE751
:1037A0000420019004E00498C0F107000190FFE7B5
:1037B0000198039004980430062803D8FFE70020FE
:1037C000009003E0049803380090FFE7009802900F
:1037D00006980399012202FA01F101390840029B7F
:1037E000984005999A40013A1140084308B0704743
:1037F00088B0079006910592079800F007000490A2
:103800000498C0F10700052803D3FFE704200190C6
:1038100004E00498C0F107000190FFE701980390CD
:1038200004980430062803D8FFE70020009003E046
:10383000049803380090FFE70098029006980399D7
:10384000012202FA01F101390840029B98400599D2
:103850009A40013A1140084308B0704788B0079079
:1038600006910592079800F0070004900498C0F1B3
:103870000700052803D3FFE70420019004E0049823
:10388000C0F107000190FFE701980390049804300D
:10389000062803D8FFE70020009003E004980338CF
:1038A0000090FFE70098029006980399012202FA1F
:1038B00001F101390840029B984005999A40013A6C
:1038C0001140084308B0704788B0079006910592F0
:1038D000079800F0070004900498C0F1070005283D
:1038E00003D3FFE70420019004E00498C0F107002F
:1038F0000190FFE70198039004980430062803D84C
:10390000FFE70020009003E0049803380090FFE7F1
:103910000098029006980399012202FA01F10139F8
:103920000840029B984005999A40013A114008438B
:1039300008B0704780B586B005900491059842F6AE
:103940000041C4F20101884225D0FFE7059843F207
:103950000041C4F2010188421DD0FFE70598B0F193
:10396000804F18D0FFE7059840F20041C4F20001F3
:10397000884210D0FFE7059840F60001C4F200012C
:10398000884208D0FFE7059840F60041C4F20001E4
:10399000884201D1FFE708E042F2CE00C0F6030002
:1039A00040F2FF2101F092F8FFE70498006818B395
:1039B000FFE70498006810281ED0FFE7049800680D
:1039C000202819D0FFE704980068302814D0FFE7BA
:1039D0000498006840280FD0FFE70498006850283A
:1039E0000AD0FFE704980068602805D0FFE7049834
:1039F0000068702801D1FFE708E042F2CE00C0F66F
:103A000003004FF4407101F061F8FFE7049840684B
:103A100028B1FFE704984068012801D1FFE708E0DA
:103A200042F2CE00C0F6030040F2013101F04EF840
:103A3000FFE70498006928B1FFE7049800690228AD
:103A400001D1FFE708E042F2CE00C0F6030040F2E9
:103A5000023101F03BF8FFE70498806828B1FFE7E6
:103A600004988068012801D1FFE708E042F2CE0007
:103A7000C0F6030040F2033101F028F8FFE7049894
:103A8000406928B1FFE704984069022801D1FFE7A7
:103A900008E042F2CE00C0F603004FF4417101F09D
:103AA00015F8FFE70599086A20F0010008620598FB
:103AB000006A02900598406801900598806903901B
:103AC000039820F003000390039820F070000499FD
:103AD000096808430390029820F0020004990969DC
:103AE00008430290029820F00100049949680843B5
:103AF0000290059842F60041C4F20101884208D0C4
:103B0000FFE7059843F20041C4F20101884248D121
:103B1000FFE70498C06930B1FFE70498C069B0F5C9
:103B2000807F01D1FFE708E042F2CE00C0F603003B
:103B30004FF4487100F0CAFFFFE70498806930B184
:103B4000FFE704988069B0F5807F01D1FFE708E0C6
:103B500042F2CE00C0F6030040F2213100F0B6FF81
:103B6000FFE7029820F008000499496940EA8100C3
:103B70000290029820F004000499896840EA8100CC
:103B80000290019820F4807004998969084301909B
:103B9000019820F400700499C96940EA410001903D
:103BA000FFE7019805994860039805998861059891
:103BB0000499C968FFF780F8029805990862002007
:103BC00006B080BD80B586B005900491059842F698
:103BD0000041C4F20101884225D0FFE7059843F275
:103BE0000041C4F2010188421DD0FFE70598B0F101
:103BF000804F18D0FFE7059840F20041C4F2000161
:103C0000884210D0FFE7059840F60001C4F2000199
:103C1000884208D0FFE7059840F60041C4F2000151
:103C2000884201D1FFE708E042F2CE00C0F603006F
:103C300040F24E3100F04AFFFFE70498006818B3E5
:103C4000FFE70498006810281ED0FFE7049800687A
:103C5000202819D0FFE704980068302814D0FFE727
:103C60000498006840280FD0FFE7049800685028A7
:103C70000AD0FFE704980068602805D0FFE70498A1
:103C80000068702801D1FFE708E042F2CE00C0F6DC
:103C9000030040F24F3100F019FFFFE7049840683D
:103CA00028B1FFE704984068012801D1FFE708E048
:103CB00042F2CE00C0F603004FF4547100F006FF4C
:103CC000FFE70498006928B1FFE70498006902281B
:103CD00001D1FFE708E042F2CE00C0F6030040F257
:103CE000513100F0F3FEFFE70498806828B1FFE748
:103CF00004988068012801D1FFE708E042F2CE0075
:103D0000C0F6030040F2523100F0E0FEFFE70498F5
:103D1000406928B1FFE704984069022801D1FFE714
:103D200008E042F2CE00C0F6030040F2533100F04A
:103D3000CDFEFFE70599086A20F01000086205989B
:103D4000006A029005984068019005988069039088
:103D5000039820F440700390039820F4E040049905
:103D6000096840EA01200390029820F0200004999D
:103D7000096940EA01100290029820F010000499AD
:103D8000496840EA01100290059842F60041C4F2E9
:103D90000101884208D0FFE7059843F20041C4F2D0
:103DA0000101884249D1FFE70498C06930B1FFE7BB
:103DB0000498C069B0F5807F01D1FFE708E042F2C6
:103DC000CE00C0F6030040F26F3100F07FFEFFE747
:103DD0000498806930B1FFE704988069B0F5807F6E
:103DE00001D1FFE708E042F2CE00C0F603004FF435
:103DF0005C7100F06BFEFFE7029820F080000499F0
:103E0000496940EA81100290029820F0400004992C
:103E1000896840EA81100290019820F4806004993A
:103E2000896940EA81000190019820F400600499BA
:103E3000C96940EAC1000190FFE70198059948600F
:103E400003980599886105980499C968FEF73CFFB5
:103E5000029805990862002006B080BD80B586B042
:103E600005900491059842F60041C4F20101884290
:103E700025D0FFE7059843F20041C4F201018842D2
:103E80001DD0FFE70598B0F1804F18D0FFE70598E7
:103E900040F20041C4F20001884210D0FFE70598CB
:103EA00040F60001C4F20001884208D0FFE70598FF
:103EB00040F60041C4F20001884201D1FFE708E06A
:103EC00042F2CE00C0F6030040F29D3100F0FEFD4C
:103ED000FFE70498006818B3FFE70498006810280B
:103EE0001ED0FFE704980068202819D0FFE7049847
:103EF0000068302814D0FFE70498006840280FD0ED
:103F0000FFE70498006850280AD0FFE7049800688B
:103F1000602805D0FFE704980068702801D1FFE70A
:103F200008E042F2CE00C0F6030040F29E3100F0FD
:103F3000CDFDFFE70498406828B1FFE7049840688A
:103F4000012801D1FFE708E042F2CE00C0F60300ED
:103F500040F29F3100F0BAFDFFE70498006928B1F4
:103F6000FFE704980069022801D1FFE708E042F268
:103F7000CE00C0F603004FF4687100F0A7FDFFE724
:103F80000498806828B1FFE704988068012801D16F
:103F9000FFE708E042F2CE00C0F6030040F2A13194
:103FA00000F094FDFFE70498406928B1FFE704980A
:103FB0004069022801D1FFE708E042F2CE00C0F6D6
:103FC000030040F2A23100F081FDFFE70599086A85
:103FD00020F4807008620598006A02900598406895
:103FE00001900598C0690390039820F003000390A6
:103FF000039820F070000499096808430390029820
:1040000020F400700499096940EA012002900298A6
:1040100020F480700499496840EA012002900598D4
:1040200042F60041C4F20101884208D0FFE705983A
:1040300043F20041C4F20101884249D1FFE70498EC
:10404000C06930B1FFE70498C069B0F5807F01D145
:10405000FFE708E042F2CE00C0F6030040F2BE31B6
:1040600000F034FDFFE70498806930B1FFE7049861
:104070008069B0F5807F01D1FFE708E042F2CE0011
:10408000C0F6030040F2BF3100F020FDFFE70298C8
:1040900020F400600499496940EA81200290029866
:1040A00020F480600499896840EA81200290019898
:1040B00020F480500499896940EA01100190019828
:1040C00020F400500499C96940EA41100190FFE7CB
:1040D00001980599486003980599C8610598049965
:1040E000C968FEF7F9FD029805990862002006B03C
:1040F00080BD000080B586B005900491059842F619
:104100000041C4F20101884225D0FFE7059843F23F
:104110000041C4F2010188421DD0FFE70598B0F1CB
:10412000804F18D0FFE7059840F20041C4F200012B
:10413000884210D0FFE7059840F60001C4F2000164
:10414000884208D0FFE7059840F60041C4F200011C
:10415000884201D1FFE708E042F2CE00C0F603003A
:104160004FF47B7100F0B2FCFFE70498006818B3CD
:10417000FFE70498006810281ED0FFE70498006845
:10418000202819D0FFE704980068302814D0FFE7F2
:104190000498006840280FD0FFE704980068502872
:1041A0000AD0FFE704980068602805D0FFE704986C
:1041B0000068702801D1FFE708E042F2CE00C0F6A7
:1041C000030040F2ED3100F081FCFFE70498406805
:1041D00028B1FFE704984068012801D1FFE708E013
:1041E00042F2CE00C0F6030040F2EE3100F06EFC69
:1041F000FFE70498006928B1FFE7049800690228E6
:1042000001D1FFE708E042F2CE00C0F6030040F221
:10421000EF3100F05BFCFFE70498406928B1FFE74D
:1042200004984069022801D1FFE708E042F2CE007D
:10423000C0F603004FF47C7100F048FCFFE70498DF
:10424000806828B1FFE704988068012801D1FFE762
:1042500008E042F2CE00C0F6030040F2F13100F077
:1042600035FCFFE70599086A20F48050086205983C
:10427000006A02900598406801900598C069039013
:10428000039820F440700390039820F4E0400499D0
:10429000096840EA01200390029820F40050049934
:1042A000096940EA01300290029820F48050049994
:1042B000496840EA01300290059842F60041C4F294
:1042C0000101884208D0FFE7059843F20041C4F29B
:1042D0000101884231D1FFE70498C06930B1FFE79E
:1042E0000498C069B0F5807F01D1FFE708E042F291
:1042F000CE00C0F6030040F20D4100F0E7FBFFE7FF
:104300000498806930B1FFE704988069B0F5807F38
:1043100001D1FFE708E042F2CE00C0F6030040F210
:104320000E4100F0D3FBFFE7019820F48040049990
:10433000896940EA81100190FFE70198059948607A
:1043400003980599C86105980499C968FEF7CCFCE3
:10435000029805990862002006B080BD70470000F1
:1043600080B582B0019001980090FDF73DFC0146B8
:104370000098C9B20A0946F2C161C0F60001895C21
:10438000C84002B080BD000080B582B001900198A5
:104390000090FDF731FC014600980A0A46F2D1610F
:1043A000C0F60001895CC84002B080BD80B582B013
:1043B000019001980090FDF727FC01460098CA0A79
:1043C00046F2D161C0F60001895CC84002B080BDF0
:1043D00080B582B000200190FDF726FC01460091D7
:1043E00040B1FFE7009804280AD0FFE700980828AA
:1043F0000CD00FE041F20020C0F27A0001900FE0F3
:1044000041F20020C0F27A00019009E000F00CF8BF
:10441000019005E041F20020C0F27A000190FFE730
:10442000019802B080BD000080B584B000200390E8
:104430000290FDF74DFC02900298019028B1FFE731
:104440000198B0F5803F06D010E040F60010C0F2B1
:104450003D00039010E0FDF74BFC411C41F20020B1
:10446000C0F27A00B0FBF1F0039005E040F60010D6
:10447000C0F23D000390FFE703980090FDF730FC89
:1044800002460098022101EB9241484304B080BDEE
:1044900080B500F007F842F60000C4F20000FDF716
:1044A0008DFC80BD80B582B040F60830C2F20000BD
:1044B00081790131817180793C2848DBFFE740F642
:1044C0000830C2F20000002181714179013141714F
:1044D00040793C283ADBFFE740F60830C2F20000A2
:1044E00000214171017901310171007918282CDB1B
:1044F000FFE740F60831C2F2000100200871C878D9
:104500000130C8708878C978019101F0FDF8014642
:104510000198884218DDFFE740F60830C2F200003B
:104520000121C17081780131817080780D280ADB0A
:10453000FFE740F60831C2F2000108880130088028
:1045400001208870FFE7FFE7FFE7FFE7FFE702B022
:1045500080BD00007047000040F6EC21C2F200016F
:1045600008780130087070477047000080B582B04D
:10457000ADF80600ADF80410ADF80220ADF800303B
:1045800040F2B800C2F200000068C06988B1FFE7DD
:1045900040F2B800C2F200000068D0F81CC0BDF8BC
:1045A0000600BDF80410BDF80220BDF80030E04759
:1045B000FFE702B080BD000080B540F61030C2F2C7
:1045C0000000006840B1FFE740F61031C2F2000180
:1045D000086801380860FFE740F23410C2F20000BA
:1045E000016801310160006847F6D501C2F2E96156
:1045F00048434FEAB00041F26E21C0F28301884285
:104600000AD8FFE740F60000C4F201001021C0F212
:104610001041FDF79BFAFFE780BD000080B582B036
:104620000220FDF799F8FFE7FDF78EF8022801D088
:10463000FFE7F9E7FDF71CFBFFE7FDF723FB012888
:1046400001D0FFE7F9E74FF480304FF4E011FDF7B8
:1046500021FBFDF733FBFFE7FDF752FB012801D0FB
:10466000FFE7F9E700200190FDF752FB4FF480606F
:10467000FDF75CFB0198FDF767FB0220FDF772FB7D
:10468000FFE7FDF7C9FA082801D0FFE7F9E74AF28A
:104690000020C0F24A400090FDF76CFA0098FDF748
:1046A000F5FF02B080BD00007047000081B00090AF
:1046B000FFE70098411E009108B1FFE7F9E701B05C
:1046C0007047000080B582B040F22D10C2F20000A9
:1046D000007848B9FFE700F04BF840F22D11C2F224
:1046E000000101200870FFE740F20C10C4F2212005
:1046F000006820B1FFE700208DF8070003E00120EB
:104700008DF80700FFE79DF8070002B080BD0000AC
:1047100080B582B040F29011C4F2212100910020B6
:104720000860902000F0A2F800F068F80099ADF859
:10473000060001200860BDF80600C00802B080BD78
:1047400080B582B040F29011C4F221210091002086
:104750000860D02000F08AF800F050F80099ADF819
:10476000060001200860BDF80600C00802B080BD48
:1047700041F21801C4F20201086840F00400086028
:1047800040F29011C4F221210120086040F29411FE
:10479000C4F22121086040F29C11C4F2212108607A
:1047A00040F60002C4F201021168042363F30F31E2
:1047B000116011684FF0030C6CF313411160116824
:1047C0004FF00B0C6CF31751116011686CF31F71F3
:1047D0001160116863F31B61116040F23031C4F263
:1047E0004221086043F20001C4F2010140F2673047
:1047F0000860086840F040000860704780B582B0EB
:1048000043F20C01C4F20101002008700220FFF7FE
:104810004DFFFFE740F21C10C4F22620006808B1EB
:10482000FFE7F7E743F20C01C4F2010108788DF8C5
:104830000700002008700220FFF738FFFFE740F272
:104840001C10C4F22620006808B1FFE7F7E743F226
:104850000C00C4F2010000788DF806009DF80710E6
:104860009DF8060040EA012002B080BD80B582B00C
:104870008DF807009DF8070043F20C01C4F2010116
:1048800008700220FFF712FFFFE740F21C10C4F28D
:104890002620006808B1FFE7F7E743F20C00C4F2F6
:1048A000010000788DF8070002B080BDFFE7FEE749
:1048B00081B08DF803009DF9030000280ED4FFE7B6
:1048C0009DF9031001F01F02012090404A094EF2A9
:1048D0000011CEF2000141F82200FFE701B070475D
:1048E00081B08DF803009DF9030000280ED4FFE786
:1048F0009DF9031001F01F02012090404A094EF279
:104900000011CEF2000141F82200FFE701B070472C
:1049100081B08DF803009DF9030000280ED4FFE755
:104920009DF9031001F01F02012090404A094EF248
:104930000011CEF2000141F82200FFE701B07047FC
:104940004EF60C50CEF200000068C0F30220704713
:104950004EF60C50CEF200000068C0F30220704703
:104960004EF60C50CEF200000068C0F302207047F3
:104970004EF60C50CEF200000068C0F302207047E3
:1049800082B08DF8070000919DF9070000280AD435
:10499000FFE7009800019DF907104EF20042CEF2A9
:1049A000000288540BE0009800019DF8071001F008
:1049B0000F014EF61452CEF200028854FFE702B007
:1049C0007047000082B08DF8070000919DF9070044
:1049D00000280AD4FFE7009800019DF907104EF265
:1049E0000042CEF2000288540BE0009800019DF8CE
:1049F000071001F00F014EF61452CEF20002885457
:104A0000FFE702B07047000082B08DF80700009108
:104A10009DF9070000280AD4FFE7009800019DF9DE
:104A200007104EF20042CEF2000288540BE00098CC
:104A300000019DF8071001F00F014EF61452CEF25E
:104A400000028854FFE702B07047000082B08DF882
:104A5000070000919DF9070000280AD4FFE700989D
:104A600000019DF907104EF20042CEF20002885478
:104A70000BE0009800019DF8071001F00F014EF6C1
:104A80001452CEF200028854FFE702B070470000D3
:104A900083B00290029800F0070000904EF60C518F
:104AA000CEF200010868019001984FF6FF02104015
:104AB00001900198009A40EA02200022C0F2FA52C6
:104AC000104301900198086003B0704782B00190D4
:104AD000009102B07047000081B08DF802009DF88F
:104AE00002001F2804DCFFE700208DF8030013E01C
:104AF0009DF8020020280BDBFFE79DF802007E28CE
:104B000006DCFFE79DF8020020388DF8030003E083
:104B100000208DF80300FFE79DF8030001B0704707
:104B200080B584B0039000200290FFE703980078DE
:104B3000B8B1FFE740F22010C2F200008068019097
:104B400003980078FFF7C8FF0146019800EB810049
:104B5000406801880298084402900398013003904D
:104B6000E4E7029804B080BD80B50020FCF776F839
:104B70001020FCF76DFA80BD80B51120FCF768FAB3
:104B80000120FCF76BF880BD80B586B0ADF816004B
:104B9000ADF81410049204980190019840680290B6
:104BA0000498083004900499029A2C20FCF7D8FA53
:104BB00006B080BD80B582B0ADF80600ADF8041037
:104BC000ADF80220ADF800302A20FCF741FA9DF83C
:104BD0000500FCF7A1FB9DF80400FCF79DFBBDF868
:104BE0000400BDF8001008440138C0F30720FCF7AA
:104BF00093FBBDF80400BDF8001008440138C0B2B2
:104C0000FCF78AFB2B20FCF723FA9DF80300FCF746
:104C100083FB9DF80200FCF77FFB9DF80300FCF787
:104C20007BFB9DF80200FCF777FBBDF80610BDF892
:104C300000202C20FCF73CFA02B080BD80B582B089
:104C4000DDF810C0ADF80600ADF80410ADF8022094
:104C5000ADF80030BDF80600BDF80410BDF8022024
:104C6000BDF8003000F096FA0499BDF80200BDF8D6
:104C7000002042432C20FCF773FA02B080BD0000F4
:104C800080B582B0ADF80600ADF80410ADF8022092
:104C9000ADF800302A20FCF7DBF99DF80500FCF7A1
:104CA0003BFB9DF80400FCF737FB9DF80500FCF783
:104CB00033FB9DF80400FCF72FFB2B20FCF7C8F911
:104CC0009DF80300FCF728FB9DF80200FCF724FB8D
:104CD000BDF80200BDF8001008440138C0F30720F9
:104CE000FCF71AFBBDF80200BDF8001008440138BB
:104CF000C0B2FCF711FBBDF80610BDF800202C2057
:104D0000FCF7D6F902B080BD80B584B08446069821
:104D1000ADF80EC0ADF80C10ADF80A20ADF80830B3
:104D2000ADF806002A20FCF793F99DF80F00FCF778
:104D3000F3FA9DF80E00FCF7EFFABDF80E00BDF88F
:104D40000A1008440138C0F30720FCF7E5FABDF863
:104D50000E00BDF80A1008440138C0B2FCF7DCFAB6
:104D60002B20FCF775F99DF80D00FCF7D5FA9DF89E
:104D70000C00FCF7D1FABDF80C00BDF8081008448F
:104D80000138C0F30720FCF7C7FABDF80C00BDF8E6
:104D9000081008440138C0B2FCF7BEFABDF806108E
:104DA000BDF80A00BDF8082042432C20FCF780F92A
:104DB00004B080BD4FF4A070704700004FF4F07055
:104DC0007047000080B586B040F22C10C2F200009F
:104DD0000078C007C8B9FFE740F22C10C2F200000B
:104DE000017841F00101017000788007002803D4A8
:104DF000FFE7FBF757FFFFE740F22C11C2F200017B
:104E0000087840F002000870FFE70A200090FBF7E6
:104E10001DFF1120FCF71CF90098FBF717FF46F265
:104E2000BA61C0F600010291B42001220492FCF79D
:104E3000F1F905200590FBF709FF049A42F2E3110E
:104E4000C0F60301C120FCF7E5F90598FBF7FEFE6B
:104E500046F2BC61C0F60001C5200422FCF7DAF975
:104E60000598FBF7F3FE4AF21251C0F60001E0206C
:104E70000F220192FCF7CEF90598FBF7E7FE019AA5
:104E80004AF22251C0F60001E120FCF7C3F905986F
:104E9000FBF7DCFE049A42F25721C0F603013A20E8
:104EA0000390FCF7B7F90598FBF7D0FE0299049A36
:104EB000B020FCF7AFF90598FBF7C8FE0398049AF9
:104EC00042F25521C0F60301FCF7A4F90598FBF75F
:104ED000BDFE3620FCF7BCF82820FCF71DFA05982B
:104EE000FBF7B4FE1320FCF7B3F80598FBF7AEFE12
:104EF0002020FCF7ADF87820FBF7A8FE2920FCF76E
:104F0000A7F806B080BD000080B582B000200090F8
:104F1000D320694603220123FCF710F8009849F2D8
:104F20000041C0F28601884205D1FFE749F2864080
:104F3000ADF8060003E00020ADF80600FFE7BDF87D
:104F4000060002B080BD000080B584B0ADF80E0050
:104F5000ADF80C1042F25721C0F603013A20009040
:104F600001220192FCF756F92A20FCF771F89DF80E
:104F70000F00FCF7D1F99DF80E00FCF7CDF99DF874
:104F80000F00FCF7C9F99DF80E00FCF7C5F92B20BE
:104F9000FCF75EF89DF80D00FCF7BEF99DF80C00DB
:104FA000FCF7BAF99DF80D00FCF7B6F99DF80C0076
:104FB000FCF7B2F9019B2E200DF10A011A46FBF70E
:104FC000DFFE0098019A42F25521C0F60301FCF77A
:104FD00021F9BDF80A0004B080BD000080B584B09E
:104FE000DDF818C0ADF80E00ADF80C10ADF80A20D1
:104FF000ADF80830BDF80E00BDF80C10BDF80A2061
:10500000BDF8083000F0C6F842F25721C0F603019F
:105010003A20009001220192FCF7FCF8019B0699CE
:10502000BDF80A00BDF8082042432E20FBF7A8FE79
:105030000098019A42F25521C0F60301FCF7EAF804
:1050400004B080BD80B582B0ADF80600ADF80410A4
:10505000ADF80220BDF8040040F6E221C2F20001E2
:10506000498888420AD1FFE7BDF8020040F6E221F4
:10507000C2F20001C988884218D0FFE7BDF80400D9
:1050800040F6E221C2F2000121F8020FBDF8020051
:105090008880BDF80400BDF802201044C0F5F0700F
:1050A000488033200322FCF75BF8FFE7BDF90600D8
:1050B000424240F6E220C2F20000818892FBF1F009
:1050C00000FB1120ADF80600BDF90600B0F1FF3F6E
:1050D0000DDCFFE740F6E221C2F200018888BDF84E
:1050E0000620104449880844ADF806000AE0BDF8DF
:1050F000060040F6E221C2F2000149880844ADF8FA
:105100000600FFE7BDF9060040F6E221C2F2000109
:10511000098888420DD0FFE7BDF8061040F6E2206E
:10512000C2F200000180018837200122FBF7C0FF96
:10513000FFE702B080BD000080B582B0ADF8060088
:10514000ADF804102A20FBF783FF9DF80700FCF759
:10515000E3F89DF80600FCF7DFF89DF80700FCF780
:10516000DBF89DF80600FCF7D7F82B20FBF770FF63
:105170009DF80500FCF7D0F89DF80400FCF7CCF88A
:105180009DF80500FCF7C8F89DF80400FCF7C4F88A
:1051900002B080BD80B582B0ADF80600ADF8041055
:1051A000ADF80220ADF80030BDF8040040F624311F
:1051B000C2F200010880BDF80400BDF800100844E8
:1051C000013840F62231C2F2000108802A20FBF7A4
:1051D0003FFF9DF80700FCF79FF89DF80600FCF7DD
:1051E0009BF8BDF80600BDF8021008440138C0F372
:1051F0000720FCF791F8BDF80600BDF8021008443E
:105200000138C0B2FCF788F82B20FBF721FF9DF88E
:105210000500FCF781F89DF80400FCF77DF8BDF867
:105220000400BDF8001008440138C0F30720FCF763
:1052300073F8BDF80400BDF8001008440138C0B28E
:10524000FCF76AF802B080BD80B582B0ADF8060008
:10525000ADF80410ADF802202A20FBF7F9FE9DF806
:105260000700FCF759F89DF80600FCF755F89DF883
:105270000700FCF751F89DF80600FCF74DF82B20CD
:10528000FBF7E6FE9DF80500FCF746F89DF80400E4
:10529000FCF742F89DF80500FCF73EF89DF8040085
:1052A000FCF73AF82C20FBF7D3FEBDF80200FCF720
:1052B0000BF802B080BD000080B588B0ADF81E00CC
:1052C00040F6EA21C2F2000100200870FFF7FAF967
:1052D00000286AD0FFE7FFF71BFA0690FFF730FAC5
:1052E000049008200290FFE70298411E02910028D6
:1052F0005AD0FFE7FFF70CFA0590FFF721FA039069
:1053000006980599401AB0F1FF3F05DCFFE70699C2
:105310000598401A019004E006980599401A0190FA
:10532000FFE70198072839DCFFE704980399401A42
:10533000B0F1FF3F05DCFFE704990398401A0090A5
:1053400004E004980399401A0090FFE700980728AA
:1053500024DCFFE70698059908444010069004985D
:10536000039908444010049000200290FFF7AAF926
:1053700098B1FFE7069840F61C31C2F200010880A0
:10538000049840F61E31C2F20001088040F6EA217E
:10539000C2F2000101200870FFE704E005980690C2
:1053A00003980490FFE79FE7FFE740F6EA20C2F288
:1053B0000000007808B080BD83B0ADF80A0001910C
:1053C000009240F61C30C2F200000088019908806B
:1053D00040F61E30C2F2000000880099088003B039
:1053E0007047000080B582B0ADF8060040F22C1086
:1053F000C2F2000000788007002803D4FFE7FBF723
:1054000051FCFFE740F22C11C2F20001087840F095
:105410000200087002B080BD80B584B040F606314D
:10542000C2F200010391002002900870FBF79AF984
:10543000FBF784F90190FBF78BF901460198FBF724
:1054400073FA43F6D052C0F60102A5205521FBF7AE
:105450002BF846F2E060C0F60000FBF7B3F90298C3
:10546000039940F6E022C2F20002107040F62032AA
:10547000C2F20002107040F6ED22C2F2000210707B
:105480000120087004B080BD80B582B040F6EB20EA
:10549000C2F200000078C00768B9FFE74AF2325153
:1054A000C0F60001086849680191009000980199D0
:1054B00000F0CEFEFFE702B080BD000088B006908D
:1054C00000200590FFE705980A280CD8FFE7059A09
:1054D00040F6FA21C2F2000100208854FFE7059847
:1054E00001300590EFE70698049000208DF80F003A
:1054F0004CF60020C3F69A300290069840B9FFE7B8
:1055000040F6FA20C2F2000030210170079058E006
:1055100000208DF80700FFE70498029988420AD21C
:10552000FFE702984CF6CD41CCF6CC41A0FB011030
:10553000C0080290F0E7029818B9FFE70120029036
:10554000FFE7FFE704990120009031B9FFE70298D7
:10555000002818BF01200090FFE70098C00750B353
:10556000FFE7FFE70498029988420AD3FFE79DF816
:105570000F0001308DF80F0002990498401A049032
:10558000F0E79DF80F0030309DF80720511C8DF892
:10559000071040F6FA21C2F20001885400208DF86D
:1055A0000F0002984CF6CD41CCF6CC41A0FB011087
:1055B000C0080290C6E740F6FA20C2F20000079049
:1055C000FFE7079808B0704710B584B08C46864650
:1055D00007980699ADF80EE0ADF80CC0ADF80A20BA
:1055E000ADF80830ADF80610ADF80400BDF80E10A7
:1055F000BDF806200020914200901CDAFFE7BDF8BC
:105600000E10BDF80A2000209142009013DDFFE744
:10561000BDF80C10BDF804200020914200900ADA79
:10562000FFE7BDF80C10BDF8082000209142C8BF6C
:1056300001200090FFE7009800F0010004B010BDC9
:1056400081B0ADF80200BDF8020000F00300B0FA2E
:1056500080F0400901B0704780B582B00020009012
:10566000019040F23411C2F2000108600120FBF702
:10567000C3FE4FF08050FBF777FE0320FFF708FAD8
:10568000FFF75EF9009A0F21FEF77CF801464FF014
:10569000FF30FFF775F9FCF779F8FEF7BFFF4FF41D
:1056A0000050FBF7A9FEFDF739FDFDF773FEFDF78E
:1056B000CFFEFDF72BFFFEF711F8FDF73DFEFDF7DE
:1056C00085FFFFF7E1FE42F60000C4F20000FCF7A0
:1056D00093FBFCF7C9FF62B64FF4FA70FDF7F8FCD4
:1056E000FFF79AFEFFE740F60630C2F200000078AE
:1056F00048B1FFE700F01CFE40F60631C2F200019F
:1057000000200870FFE7EEE780B582B08DF8060054
:105710009DF8060001460091012829D0FFE7009876
:10572000022829D0FFE70098032821D0FFE700983E
:10573000042832D0FFE70098052819D0FFE7009829
:1057400006282AD0FFE700980738022810D3FFE781
:105750000098092821D0FFE700980A2808D0FFE721
:1057600000980B2819D0FFE700980C2819D1FFE703
:105770001F208DF8070020E040F60830C2F200003C
:105780000088FFF75DFF20B1FFE71D208DF80700BF
:1057900013E01C208DF807000FE01E208DF8070095
:1057A0000BE040F6DC21C2F2000142F25810C0F6D4
:1057B00003000860FBF740FAFFE79DF8070002B01E
:1057C00080BD000080B5CEB040F6E020C2F20000FF
:1057D0000078012840F0CC80FFE74FF6FF70499039
:1057E000FAF7FAFFFAF7AAFF4190FAF7B1FF419AE8
:1057F000783883B2002046903C214C91FAF778FF2C
:105800004998FAF7D3FF4FF2BE704790FAF7E4FFDA
:1058100046984C994FF4D272459232234493FAF74A
:10582000EBFE4698FAF7D8FF40F20000C2F2000003
:105830004290026810204390492103234893FAF7CD
:1058400089FD4998FAF7B2FF4798FAF7C5FF449BDC
:10585000459A46986E21FAF7CFFE4698FAF7BCFFB4
:1058600042994398489B4A687B21FAF773FD49980F
:10587000FAF79CFF4798FAF7AFFF449B459A469882
:10588000A021FAF7B9FE4698FAF7A6FF4299439885
:10589000489B8A68AD21FAF75DFD4998FAF786FFC3
:1058A0004798FAF799FF449B459A4698D2214B9125
:1058B000FAF7A2FE4998FAF779FF4798FAF78CFFB2
:1058C00045984C9AC8231146FAF796FE4798FAF77E
:1058D00083FFFAF733FF46994C9B02460846FAF7D6
:1058E00007FF48F21002C0F6020240F2A91005219B
:1058F000FAF7DAFD4698FAF76FFF4798FAF756FF7E
:10590000489B4C9842F27E12C0F603021221FAF72D
:1059100021FD47F6F012C0F6020214200B21FAF71F
:10592000C3FD4998FAF758FF4C9A40F2A5104A90E7
:105930003D213323FAF7DCFE4AF66032C0F600025E
:1059400040F2B1104D904C21FAF7AEFD4998FAF7AC
:1059500043FF4A984B994C9A3123FAF7C9FE4D9868
:105960004AF24052C0F60002E121FAF79DFDFFE73E
:1059700040F6E020C2F200000078022840F0CC801F
:10598000FFE74FF6FF703C90FAF726FFFAF7D6FED6
:105990003490FAF7DDFE349A783883B200203990DB
:1059A0003C213F91FAF7A4FE3C98FAF7FFFE4FF234
:1059B000BE703A90FAF710FF39983F994FF4D272BF
:1059C000389232233793FAF717FE3998FAF704FF23
:1059D00040F23C00C2F20000359002681020369080
:1059E000492103233B93FAF7B5FC3C98FAF7DEFE16
:1059F0003A98FAF7F1FE379B389A39986E21FAF700
:105A0000FBFD3998FAF7E8FE359936983B9B4A68D2
:105A10007B21FAF79FFC3C98FAF7C8FE3A98FAF710
:105A2000DBFE379B389A3998A021FAF7E5FD3998C3
:105A3000FAF7D2FE359936983B9B8A68AD21FAF782
:105A400089FC3C98FAF7B2FE3A98FAF7C5FE379B04
:105A5000389A3998D2213E91FAF7CEFD3C98FAF760
:105A6000A5FE3A98FAF7B8FE38983F9AC82311462F
:105A7000FAF7C2FD3A98FAF7AFFEFAF75FFE3999E6
:105A80003F9B02460846FAF733FE48F21002C0F682
:105A9000020240F2A9100521FAF706FD3998FAF73B
:105AA0009BFE3A98FAF782FE3B9B3F9842F22222F5
:105AB000C0F603021221FAF74DFC47F6F012C0F6C9
:105AC000020214200B21FAF7EFFC3C98FAF784FE4F
:105AD0003F9A40F2A5103D903D213323FAF708FE8E
