:020000040800F2
:10000000C80B0020CD010008F9320008590E000885
:10001000F5320008C5090008F5420008000000009C
:10002000000000000000000000000000B13F0008D8
:10003000310B000800000000693E00080140000884
:10004000E7010008E7010008E7010008E7010008F0
:10005000E7010008E7010008E7010008E7010008E0
:10006000E7010008190E0008E7010008E701000891
:10007000E7010008E7010008C9090008990A00081B
:10008000E7010008E7010008E7010008E7010008B0
:10009000E7010008E7010008E7010008E7010008A0
:1000A000E7010008E7010008E7010008E701000890
:1000B000E7010008E7010008E7010008E701000880
:1000C000E7010008E7010008E70100089D3F00087C
:1000D000A13F0008E7010008E7010008E701000868
:1000E000C10D0008E7010008E7010008E70100086A
:1000F000E7010008E7010008E7010008E701000840
:10010000E7010008E7010008E7010008E70100082F
:10011000E7010008E7010008E7010008E70100081F
:10012000E7010008E7010008E7010008E70100080F
:1001300000F002F800F03AF80AA090E8000C8244BF
:100140008344AAF10107DA4501D100F02FF8AFF29C
:10015000090EBAE80F0013F0010F18BFFB1A43F0A5
:10016000010318476438010084380100103A24BFA5
:1001700078C878C1FAD8520724BF30C830C144BF0C
:1001800004680C607047000000230024002500264E
:10019000103A28BF78C1FBD8520728BF30C148BFEA
:1001A0000B6070471FB51FBD10B510BD00F05DF8A6
:1001B0001146FFF7F7FF04F097FF00F07BF803B458
:1001C000FFF7F2FF03BC00F07FF80000094880470A
:1001D00009480047FEE7FEE7FEE7FEE7FEE7FEE729
:1001E000FEE7FEE7FEE7FEE704480549054A064B41
:1001F00070470000F140000831010008C8050020E8
:10020000C80B0020C8070020C80700204FF00002DC
:1002100000B5134694469646203922BFA0E80C50FC
:10022000A0E80C50B1F12001BFF4F7AF090728BFD7
:10023000A0E80C5048BF0CC05DF804EB890028BF53
:1002400040F8042B08BF704748BF20F8022B11F07C
:10025000804F18BF00F8012B7047704770477047F8
:10026000004870479000002070477546FFF7F8FF80
:10027000AE4605006946534620F00700854618B093
:1002800020B5FFF7B1FFBDE820404FF000064FF06A
:1002900000074FF000084FF0000BAC46ACE8C00977
:1002A000ACE8C009ACE8C009ACE8C00921F007011E
:1002B0008D46704710B50446AFF300802046BDE878
:1002C0001040FFF77CBF000001491820ABBEFEE7DD
:1002D0002600020080B584B0ADF80E0040F2800028
:1002E000C2F200000068806B029000F017FA0190E3
:1002F00000F01EFA019ADDF808C00346BDF80E00B2
:100300006946086000210846E04704B080BD00004F
:1003100080B582B0ADF80600ADF804108DF803206A
:10032000BDF80600BDF8041040F2F002C2F200026F
:100330009368D3F800C09DF80320203AB3F806E094
:1003400002FB0EF29B880733DB0802FB03C200F0BE
:1003500057FC02B080BD000080B58AB0ADF8260021
:10036000ADF8241008928DF81F300120ADF81C0064
:100370000020ADF81A000590049008980390FFE75C
:100380000398411C0391007820B1FFE705980130E4
:100390000590F5E700F0C2F940F2F001C2F2000169
:1003A00089688988B0FBF1F004909DF81F00014630
:1003B0000291012808D0FFE70298022818D0FFE731
:1003C000029803280FD023E0BDF82600059940F2DB
:1003D000F002C2F20002926892885143A0EB5100F1
:1003E000ADF81C0019E0BDF82600ADF81C0014E0C3
:1003F000BDF826100498059A801A40F2F002C2F265
:100400000002926892885043401AADF81C0004E044
:10041000BDF82600ADF81C00FFE7FFE7089800785C
:10042000002818BF0120019000F078F902460198D9
:10043000BDF81A1040F2F003C2F200039B689B88DB
:1004400001FB13218AB200219A42A8BF0121084270
:100450001CD0FFE7BDF81C00BDF82410089A1278E4
:10046000FFF756FF40F2F000C2F20000806881887A
:10047000BDF81C000844ADF81C0008980130089035
:10048000BDF81A000130ADF81A00C7E70AB080BD08
:1004900080B586B0ADF81600ADF8141004920020B7
:1004A000039002900498D0F8120002900498D0F8BB
:1004B00016000390BDF81600BDF81410BDF8082012
:1004C000BDF80C3003F076FD40F28000C2F200006F
:1004D0000068006B68B1FFE740F28000C2F20000E4
:1004E0000068036BBDF81600BDF81410049A984715
:1004F000FFE700F013F9019000F01AF9019A0346A2
:100500000021084603F056FD06B080BD80B584B0DA
:10051000ADF80E00ADF80C10ADF80A2000200190E7
:1005200040F28000C2F200000068006AA0B1FFE75C
:1005300040F28000C2F200000068D0F820C040F213
:10054000F000C2F200000088BDF80E10BDF80C20CB
:10055000BDF80A30E0471CE000200190FFE7019859
:10056000BDF80A10884213D2FFE7BDF80E000199CA
:100570000844BDF80C1040F2F002C2F200021288EA
:1005800080B200F009F8FFE7019801300190E6E73A
:10059000FFE704B080BD000080B582B0ADF8060072
:1005A000ADF80410ADF8022040F28000C2F2000065
:1005B0000068406970B1FFE740F28000C2F20000BD
:1005C00000684369BDF80600BDF80410BDF80220BC
:1005D0009847FFE702B080BD80B582B0ADF8060055
:1005E000ADF80410ADF80220ADF80030BDF80600FB
:1005F000BDF80410BDF80220FFF788FFBDF8060023
:10060000BDF80410BDF8002011440139BDF80220E6
:1006100089B2FFF77BFFBDF80600BDF80410BDF8F6
:10062000002000F00FF8BDF80600BDF802100844E5
:100630000138BDF80410BDF8002080B200F002F8C7
:1006400002B080BD80B584B0ADF80E00ADF80C10DE
:10065000ADF80A200020019040F28000C2F20000B4
:100660000068406AA0B1FFE740F28000C2F20000DB
:100670000068D0F824C040F2F000C2F20000008808
:10068000BDF80E10BDF80C20BDF80A30E0471CE0A4
:1006900000200190FFE70198BDF80A10884213D2AC
:1006A000FFE7BDF80E00BDF80C10019A114440F2AE
:1006B000F002C2F20002128889B2FFF76DFFFFE775
:1006C000019801300190E6E7FFE704B080BD00002B
:1006D00010B584B0ADF80E00ADF80C10ADF80A20DE
:1006E000ADF8083040F28000C2F200000068D0F897
:1006F00038C0BDF80E00BDF80C10BDF80A20BDF8DA
:10070000083040F2F00EC2F2000EBEF800E06C4677
:10071000C4F800E0E04704B010BD000080B540F22E
:100720008000C2F200000068806A804780BD00003F
:1007300080B540F28000C2F200000068C06A8047C5
:1007400080BD000080B582B001208DF8070040F226
:100750008000C2F2000000680068804740F2F002AA
:10076000C2F200024FF6FF7050600021009111604C
:1007700040F20801C2F200019160FFF7ABFD009862
:100780008DF807009DF8070002B080BD81B0ADF87C
:100790000200BDF8020040F2F001C2F20001486020
:1007A00001B0704781B00090009840F2F001C2F2B1
:1007B0000001886001B0704781B0ADF80200BDF85B
:1007C000020040F2F001C2F20001086001B070477F
:1007D00080B58AB0099040F28800C2F2000000683B
:1007E0000169002088470999088009980088002835
:1007F00000F08380FFE740F28800C2F2000000684A
:10080000436900200DF1220108AA9847BDF8220093
:100810000790BDF82000069040F20C20C2F20000C4
:10082000008880024EF61B41C9F2CB51A0FB01109B
:10083000C00A039040F20E20C2F20000008880023D
:100840004BF66F01C9F2D401A0FB0110C00A02905F
:1008500003984FF4C8714843019002984FF48C718B
:1008600048430090079803994843800A0199A0EBF8
:1008700091200590069802994843800A0099A0EBC0
:10088000912004900598B0F1FF3F03DCFFE70020C2
:10089000059011E0059840F20C21C2F20001098890
:1008A000884208DBFFE740F20C20C2F2000000881B
:1008B00001380590FFE7FFE70498B0F1FF3F03DC44
:1008C000FFE70020049011E0049840F20E21C2F2EC
:1008D00000010988884208DBFFE740F20E20C2F2DF
:1008E0000000008801380490FFE7FFE705980999A8
:1008F0004880049809998880FFE70AB080BD00000D
:1009000080B582B0ADF80600ADF8041001208DF876
:100910000300BDF8060040F20C21C2F2000108807D
:10092000BDF8042040F20E20C2F2000002800988C7
:1009300089024EF61B42C9F2CB52A1FB0221CA0A20
:1009400040F29051C2F200010A60008880024BF62A
:100950006F02C9F2D402A0FB0220C20A40F29450F6
:10096000C2F20000026009684FF4C872514340F2BD
:100970001422C2F20002116000684FF48C714843E7
:1009800040F21821C2F20001086040F28800C2F271
:100990000000006820B1FFE700208DF80300FFE7AA
:1009A0009DF8030048B9FFE740F28800C2F200005A
:1009B0000068016800208847FFE79DF8030002B047
:1009C00080BD0000FFE7FEE780B582B00020C4F2E2
:1009D000020000688004002855D5FFE70421C4F216
:1009E00002014FF4005008608021C4F2072100206A
:1009F0000860FFE740F20010C4F20720006840B131
:100A0000FFE743F60C00C4F2000000788DF8070001
:100A1000F0E743F60001C4F20001086840F48040AA
:100A200020F038000860022000F038FAFFE740F2BA
:100A30000010C4F20720006840B1FFE743F60C0045
:100A4000C4F2000000688DF80700F0E743F60001EB
:100A5000C4F20001086840F0400008604421C4F27C
:100A6000020100200860FFE74420C4F20200006891
:100A7000C00708B1FFE7F7E740F20011C2F200013A
:100A80000020086006E00421C4F202014FF4805007
:100A90000860FFE702B080BD80B50020C4F202000C
:100AA0000068800300283BD5FFE70421C4F202015F
:100AB0004FF4003008605821C4F2020100200860A1
:100AC000FFE75820C4F202000068C00708B1FFE742
:100AD000F7E78421C4F2072100200860FFE740F215
:100AE0001C10C4F20720006808B1FFE7F7E70220F6
:100AF00000F0D4F940F20010C2F2000000680128B2
:100B000007D1FFE740F28411C4F2212101200860DF
:100B1000FFE740F20011C2F200010020086006E089
:100B20000421C4F202014FF480300860FFE780BD69
:100B30007047000080B58AB084460D980C98ADF8D7
:100B400026C0ADF82410ADF82220ADF820308DF885
:100B50001F009DF81F00012809D1FFE74FF2DE704A
:100B60000290FFF729FE0298FFF710FE08E04FF20F
:100B7000BE700190FFF720FE0198FFF707FEFFE728
:100B8000BDF82600BDF82410BDF82220BDF82030A5
:100B9000FFF79EFD00200090FFF70EFE40F20000E0
:100BA000C2F20000FFF7FEFD0098069005900D9838
:100BB0000490FFE70498411C0491007820B1FFE7FE
:100BC000069801300690F5E7BDF82210BDF8260022
:100BD00000EB5100ADF80E00BDF82010BDF8240068
:100BE00000EB51000C38ADF80C00BDF80E00BDF85C
:100BF0000C100D9A0123FFF7AFFB0AB080BD000077
:100C000080B58AB0ADF82600ADF824100892002017
:100C10000090079006900590ADF81200ADF8100016
:100C20008DF80F000290019040F2F001C2F2000135
:100C30008A68D288ADF8122089688988ADF81010CA
:100C4000BDF81210BDF810205143362202EB4103CB
:100C500040F21C21C2F200014B80BDF81230BDF8F9
:100C600010C003FB0CF302EB43031B0C8B804A8187
:100C7000BDF810204A828882BDF81220CA820883FB
:100C8000BDF81020D11D01F0F801891A8DF80F1060
:100C90000790FFE70798BDF81210884280F0838024
:100CA000FFE7089ABDF810000730C008079900FB5D
:100CB00001200290BDF81000C11D0320B0EBD10F40
:100CC0000AD1FFE7029908784A788978000440EA57
:100CD000022008440190FFE7BDF81000C11D02206A
:100CE000B0EBD10F06D1FFE702980088000400BAEC
:100CF0000190FFE7BDF81000C11D0120B0EBD10F3E
:100D000004D1FFE7029800780190FFE700200690E9
:100D1000FFE70698BDF8101088423FD2FFE707981A
:100D20000138BDF81010069A00FB0121382000EBB5
:100D3000410005900198BDF81010069A891A9DF897
:100D40000F2011440139C840C00788B1FFE740F2C5
:100D5000F000C2F200000168059B40F21C22C2F2C2
:100D60000002D1540068000A05991144487010E04F
:100D700040F2F000C2F200004168059B40F21C22E4
:100D8000C2F20002D1544068000A0599114448702B
:100D9000FFE7FFE7069801300690BAE7FFE70798FC
:100DA0000130079076E7BDF82600BDF8241040F228
:100DB0001C22C2F20002FFF76BFB0AB080BD0000EC
:100DC00080B54FF4006000F04BFEC8B1FFE74FF470
:100DD000006000F007FD40F60000C4F201000821A9
:100DE000C0F2084100F0AEFF48B9FFE704F0C8F9CF
:100DF00040F2A951C2F2000101200870FFE7FFE7AD
:100E00004FF4004000F02CFE28B1FFE74FF4004003
:100E100000F0E8FCFFE780BD80B5082000F020FE70
:100E2000C0B1FFE7082000F0DDFC40F60000C4F28E
:100E3000010040F6080100F085FF38B9FFE740F2F5
:100E4000A951C2F2000101200870FFE7082000F05C
:100E5000C9FCFFE780BD0000FFE7FEE780B582B078
:100E60000190019801F0D0FE02B080BD81B08DF8F4
:100E700003009DF8030038B1FFE740F29811C4F277
:100E800022210120086006E040F29811C4F22221DC
:100E900000200860FFE701B07047000081B00090BB
:100EA000FFE70098411E009108B1FFE7F9E701B0A4
:100EB0007047000080B58AB041F21801C4F2020107
:100EC000086840F01C00086041F21401C4F20201FD
:100ED000086840F00100086040F60441C4F20101D6
:100EE00002910868042262F31B60086041F200016D
:100EF000C4F20101039108680222019262F31B60AF
:100F0000086001200590FFF7B1FFDDF804C00299E9
:100F10000598DDF80CE040F60003C4F201031A68FE
:100F20006CF303021A6040F28012C4F22122049290
:100F3000106040F29412C4F22222106040F2841237
:100F4000C4F221221060DEF800204FF0030C6CF395
:100F50001752CEF800201A686CF307121A6048F294
:100F6000B412C4F22122106040F2B832C4F242221C
:100F7000106008680B2262F317500860086862F37B
:100F80001F70086043F60001C4F2000140F24730D0
:100F90000860086840F0400008600A200690FFF7EB
:100FA0005DFF049A069800211160FFF757FF049A2D
:100FB000059906981160FFF751FF0F2007900D214A
:100FC000089103F069FA079803F0D0F908990E2008
:100FD000099003F061FA099803F0C8F90AB080BDDE
:100FE00080B584B08DF80F0002910192009303F058
:100FF00083F92C21C4F207210020086040F28411FB
:10100000C4F2212108609DF80F0001F023FE009832
:10101000C0000090009801F043FE0298019900F092
:1010200061F804B080BD000080B584B08DF80F0079
:1010300002910192009303F05FF92C21C4F2072181
:101040000020086040F28411C4F2212108609DF85C
:101050000F0001F0FFFD0098C0000090009801F023
:101060001FFE0298019900F015F904B080BD000040
:1010700083B00290019100920421C4F202014FF466
:10108000805008604421C4F2020100200860FFE79C
:101090004420C4F202000068C00708B1FFE7F7E788
:1010A00002985021C4F2020108604C21C4F20201EE
:1010B00043F60C00C4F20000086001984821C4F215
:1010C0000201086000984421C4F202010860086827
:1010D00040F0010008608021C4F20721012008606F
:1010E00003B0704780B588B0079006910020049047
:1010F00003900422C4F202024FF480511160442193
:10110000C4F202010860FFE74420C4F20200006854
:10111000C00708B1FFE7F7E740F20810C2F200008D
:101120005021C4F2020108604C21C4F2020143F6CE
:101130000C00C4F2000008604821C4F202014FF420
:101140008070086002904421C4F2020143F2A000C2
:101150000860086840F0010008608021C4F207219F
:1011600001200860FFE70698002849D0FFE70298B1
:101170004821C4F202010968884240D0FFE7029882
:101180000138029020B9FFE74FF480700290FFE72A
:1011900000BF00BF00BF0499481C049040F2081033
:1011A000C2F20000405C039A511C03910DF105014D
:1011B00088540498B0F5807F03D3FFE700200490A3
:1011C000FFE70398032819D1FFE700200390069852
:1011D000013806909DF805009DF806209DF807103F
:1011E00000F0F800000202F0FC0240EAC20040EA0F
:1011F000D10007998A1C07920880FFE7FFE7B2E752
:101200008021C4F2072100200860FFE740F20010AF
:10121000C4F20720006840B1FFE743F60C00C4F2B7
:10122000000000688DF81700F0E743F60001C4F2F3
:101230000001086840F4804020F038000860022077
:10124000FFF72CFEFFE740F20010C4F20720006811
:1012500040B1FFE743F60C00C4F2000000688DF8CF
:101260001700F0E74421C4F2020100200860FFE704
:101270004420C4F202000068C00708B1FFE7F7E7A6
:1012800040F28411C4F221210120086001F046FDE2
:1012900008B080BD80B584B00390029143F2820013
:1012A0000190FFE7029860B3FFE702984FF6FF71E5
:1012B000884215D3FFE740F20011C2F2000102207C
:1012C00008600398019A4FF6FE710091FFF7D0FE77
:1012D00000990298401A02900398084403900DE088
:1012E00040F20011C2F20001012008600398029947
:1012F000019AFFF7BDFE00200290FFE702F0FCFF1D
:10130000D0E740F28411C4F221210120086001F0ED
:1013100005FD04B080BD000080B582B08DF80700E7
:1013200002F0EAFF2C21C4F207210020086040F2FD
:101330008411C4F22121009108609DF8070001F09A
:1013400089FC00990120086002B080BD80B584B09E
:101350008DF80F00ADF80C10029202F0CDFF2C2199
:10136000C4F20721009100200190086040F284112E
:10137000C4F2212108609DF80F0001F06BFC009978
:10138000019A01200860029903A800F0C1F804B096
:1013900080BD000080B584B08DF80F0002910192ED
:1013A00002F0AAFF2C21C4F207210091002008605E
:1013B00040F28411C4F2212108609DF80F0001F071
:1013C00049FC0098012202600298019900F0A0F8FF
:1013D00004B080BD80B584B08DF80F0002910192F9
:1013E00002F08AFF2C21C4F207210020086040F29D
:1013F0008411C4F2212108609DF80F0001F02AFC3D
:1014000002980199012200F007F904B080BD0000A4
:1014100080B584B0ADF80E0002F06EFF2C21C4F24E
:10142000072101200290086040F28411C4F22121BA
:10143000019100200860BDF80E0001F0ADFC01999B
:101440000298086004B080BD80B582B08DF80700B6
:1014500002F052FF2C21C4F207210020086040F264
:101460008411C4F22121009108609DF8070001F069
:10147000ADFC00990120086002B080BD83B00290ED
:10148000019100920421C4F202014FF480300860FF
:1014900043F60001C4F20001086820F04000086033
:1014A0005821C4F2020100200860FFE75820C4F26E
:1014B00002000068C00708B1FFE7F7E7029864215F
:1014C000C4F2020108606021C4F2020143F60C007C
:1014D000C4F20000086001985C21C4F202010860B7
:1014E00000985821C4F2020108608422C4F2072245
:1014F0000120106043F60002C4F20002106840F0C0
:1015000040001060086840F00100086003B07047B8
:1015100080B584B0039002910192019860B9FFE711
:101520000398018840F20820C2F200000180039075
:1015300043F21250009003E043F292500090FFE714
:10154000FFE70298002864D0FFE702984FF6FE718B
:10155000884214D8FFE740F20011C2F200010120D6
:10156000086003980299009AFFF788FF0020029014
:10157000019818B1FFE702F0BFFEFFE748E00298CC
:101580004FF6FB71C0F20101884221D8FFE740F21B
:101590000011C2F2000102200860039802994FF680
:1015A000FE72891A009AFFF769FF019850B1FFE7B0
:1015B0000299039800EB41000421CFF6FE71084424
:1015C0000390FFE74FF6FE70029002F095FE1EE0DA
:1015D00040F20011C2F20001022008600398009A54
:1015E0004FF6FE71FFF74AFF019840B1FFE70398FD
:1015F0004FF6FC71C0F2010108440390FFE7029826
:101600004FF6FE71401A029002F076FEFFE7FFE708
:1016100097E704B080BD000080B584B003900291CC
:101620000192019860B9FFE70398017840F20A201F
:10163000C2F200000170039043F21200009003E038
:1016400043F292000090FFE7FFE70298C0B3FFE784
:1016500002984FF6FE71884214D8FFE740F200115D
:10166000C2F200010120086003980299009AFFF776
:1016700005FF00200290019818B1FFE702F03CFE40
:10168000FFE71CE040F20011C2F2000102200860F6
:101690000398009A4FF6FE71FFF7F0FE019830B103
:1016A000FFE703984FF6FE7108440390FFE70298A6
:1016B0004FF6FE71401A029002F01EFEFFE7C4E7EB
:1016C00004B080BD82B00190019A41F21C00C4F2C6
:1016D0000200016811430160006801990840009010
:1016E000009802B07047000082B00190019A41F268
:1016F0001C00C4F2020001681143016000680199F6
:1017000008400090009802B07047000082B001903D
:10171000019A41F21C00C4F2020001681143016009
:101720000068019908400090009802B070470000DE
:1017300082B00190019A41F21800C4F202000168DF
:10174000114301600068019908400090009802B0C0
:101750007047000082B00190019A41F21800C4F273
:10176000020001681143016000680199084000907F
:10177000009802B07047000082B00190019A41F2D7
:101780001800C4F202000168114301600068019969
:1017900008400090009802B07047000082B00190AD
:1017A000019A41F21800C4F202000168114301607D
:1017B0000068019908400090009802B0704700004E
:1017C00082B00190019A41F21800C4F2020001684F
:1017D000114301600068019908400090009802B030
:1017E0007047000081B00090009840F21441C4F2AC
:1017F0000101086001B0704781B00090009A40F28A
:101800000441C4F2010108689043086001B07047C8
:1018100081B00090009A40F20C41C4F201010868C6
:101820009043086001B0704781B00090009A40F288
:101830000041C4F2010108689043086001B070479C
:1018400081B00090009A40F20841C4F2010108689A
:101850009043086001B0704781B00090009A40F258
:101860000441C4F2010108681043086001B07047E8
:1018700081B00090009A40F20C41C4F20101086866
:101880001043086001B0704781B00090009A40F2A8
:101890000041C4F2010108681043086001B07047BC
:1018A00081B00090009A40F20841C4F2010108683A
:1018B0001043086001B0704780B584B003900020E9
:1018C0008DF80B0003984088C00808B9FFE707E0CF
:1018D00043F68E00C0F601006E2102F01DFEFFE708
:1018E0000398007928B1FFE703980079012801D116
:1018F000FFE707E043F68E00C0F601006F2102F01B
:101900000BFEFFE70398407950B1FFE70398407959
:10191000012805D0FFE703984079022801D1FFE7AD
:1019200007E043F68E00C0F60100702102F0F4FDDE
:10193000FFE703980079002800F08480FFE7039810
:10194000807978B1FFE70398807901280AD0FFE712
:1019500003988079022805D0FFE70398807903284F
:1019600001D1FFE707E043F68E00C0F601007521C4
:1019700002F0D2FDFFE703980068002861D0FFE77E
:10198000039840790146019140B1FFE70198012891
:101990000DD0FFE70198022812D01AE003980068E2
:1019A000FFF72AFF03980068FFF76EFF15E0039822
:1019B0000068FFF739FF03980068FFF74DFF0CE060
:1019C00003980068FFF760FF03980068FFF744FF83
:1019D00003E001208DF80B00FFE70398807978B3CE
:1019E000FFE70398807901460091012808D0FFE7BE
:1019F000009802280DD0FFE70098032812D01AE0C3
:101A000003980068FFF704FF03980068FFF748FF9A
:101A100015E003980068FFF713FF03980068FFF7CD
:101A200027FF0CE003980068FFF73AFF039800686F
:101A3000FFF71EFF03E001208DF80B00FFE7FFE733
:101A4000FFE708E003980068FFF7EEFE03980068E0
:101A5000FFF7D2FEFFE79DF80B0004B080BD000049
:101A600081B0009040F21440C4F201000068009977
:101A70000840401AB0FA80F0400901B070470000F9
:101A800042F20000C4F20200006800F00700704754
:101A900081B0009042F20001C4F20201086820F017
:101AA0000700009A1043086001B070470421C4F297
:101AB0000101086840F60042C0F20072104308605D
:101AC000704700000421C4F20101086820F0E060C2
:101AD0000860086840F000700860704782B00190AC
:101AE00000919DF800000821C4F2010151F8200086
:101AF000009A4FEA124C20EA1240019B9CFAACFC7F
:101B0000BCFA8CFC03FA0CF31843D2B241F8220061
:101B100002B0704780B586B005900491059840F6F4
:101B20000001C4F20101884230D0FFE7059840F679
:101B30000041C4F20101884228D0FFE7059841F234
:101B40000001C4F20101884220D0FFE7059841F26C
:101B50000041C4F20101884218D0FFE7059841F620
:101B60000001C4F20101884210D0FFE7059841F658
:101B70000041C4F20101884208D0FFE7059842F213
:101B80000001C4F20101884201D1FFE707E043F6FA
:101B90005600C0F60100A32102F0BEFCFFE7049846
:101BA00000686FF07B41084207D0FFE70498C078D7
:101BB00010F0FB0F01D1FFE707E043F65600C0F637
:101BC0000100A42102F0A8FCFFE704980068C0F31C
:101BD0000F200390039890FAA0F0B0FA80F00290E2
:101BE000FFE703980299C840002800F0A880FFE7AB
:101BF00003980299C840C007002800F09C80FFE7C6
:101C00000298072806D8FFE7029940F201108840A1
:101C1000019009E00298A0F108014FF001108840FE
:101C200040F080600190FFE704984068082819D1CF
:101C3000FFE70498006928B1FFE7049800690128CC
:101C400001D1FFE707E043F65600C0F60100BF21CF
:101C500002F062FCFFE705980199049A126900F00E
:101C6000EFF8FFE704984068A0B1FFE704984068E8
:101C700004280FD0FFE70498406808280AD0FFE73F
:101C800004984068012805D0FFE7049840680928B7
:101C900001D1FFE707E043F65600C0F60100C62178
:101CA00002F03AFCFFE705980199049A526800F0A7
:101CB00093F804984068012805D0FFE7049840682D
:101CC000092837D1FFE70498806802280AD0FFE787
:101CD00004988068012805D0FFE7049880680328ED
:101CE00001D1FFE707E043F65600C0F60100CE2120
:101CF00002F012FCFFE70498C06828B1FFE70498DF
:101D0000C068042801D1FFE707E043F65600C0F69B
:101D10000100CF2102F000FCFFE705980199049A29
:101D2000926800F0A3F805980199049AD26800F02F
:101D30006DF8FFE7FFE702980130029051E70020BD
:101D400006B080BD82B00190009101988068BDF816
:101D500001100840401AB0FA80F0400902B0704704
:101D600082B00190009101988068BDF80110084090
:101D7000401AB0FA80F0400902B0704782B001907A
:101D80000091BDF801000199486102B07047000060
:101D900082B001900091BDF801000199086102B084
:101DA0007047000084B003900291019203989DF85F
:101DB0000B100844009000990868029A92FAA2F267
:101DC000B2FA82F293000F229A409043019A9A400D
:101DD0001043086004B0704784B0039002910192F0
:101DE00003989DF80B100844009000990868029A27
:101DF00092FAA2F2B2FA82F293000F229A40904332
:101E0000019A9A401043086004B0704784B0039070
:101E10000291019203989DF80B10084400900099DC
:101E20000868029A92FAA2F2B2FA82F293000422AD
:101E30009A409043019A9A401043086004B070475A
:101E400083B00290019100920298C06801990A0A39
:101E500020EA1120009992FAA2F2B2FA82F291409D
:101E600008430299C86003B07047000084B0039033
:101E70000291019203989DF80B100844009000997C
:101E80000868029A92FAA2F2B2FA82F2930003224E
:101E90009A409043019A9A401043086004B07047FA
:101EA00084B0039002910398C0680190BDF80900C6
:101EB0000090019A009802EA0001904340EA014034
:101EC0000399086104B0704780B582B00190019811
:101ED0004FF47A7100F002F802B080BD82B0019038
:101EE000009101980099B0FBF1F001384EF2140115
:101EF000CEF2000108604EF21801CEF2000100207F
:101F000008604EF21001CEF200010520086002B018
:101F10007047000041F20400C4F20200006800F0C3
:101F2000F000704741F20400C4F20200006800F4BF
:101F3000E060704741F20400C4F20200006800F45F
:101F40006050704741F20400C4F20200006800F0E3
:101F50000C00704741F20400C4F20200006800F077
:101F60000C00704780B582B0019001F0B7FF019975
:101F700008600198006801F079FF019948600198B4
:101F8000406801F087FF019988600198406801F07E
:101F900093FF0199C86002B080BD000041F20001CA
:101FA000C4F20201086840F4803008607047000005
:101FB00041F20000C4F202000068C0F340407047E4
:101FC00082B00190009141F20401C4F2020108685C
:101FD00020F47C10019A02F44032009B1A43104313
:101FE000086002B07047000041F20001C4F2020133
:101FF000086840F0807008607047000041F20400FB
:10200000C4F20200006800F48030704741F204001E
:10201000C4F20200006800F47010704741F204003E
:10202000C4F202000068C0F34040704741F2000073
:10203000C4F202000068C0F34060704781B00090B5
:1020400041F20401C4F20201086820F0F000009A95
:102050001043086001B0704781B0009041F2040164
:10206000C4F20201086820F4E060009A104308609E
:1020700001B0704781B0009041F20401C4F2020146
:10208000086820F46050009A1043086001B070475F
:1020900081B0009041F20401C4F20201086820F00E
:1020A0000300009A1043086001B0704781B00090AF
:1020B0000099086840F04000086001B070470000D7
:1020C00080B584B00390029101208DF80700039839
:1020D00043F20001C4F20101884210D0FFE70398E7
:1020E00043F60001C4F20001884208D0FFE70398DC
:1020F00043F60041C4F20001884201D1FFE707E046
:1021000043F6C600C0F60100B72102F005FAFFE76A
:102110000298006890B1FFE702980068B0F5806F00
:102120000CD0FFE702980068B0F5004F06D0FFE73B
:1021300002980068B0F5404F01D1FFE707E043F691
:10214000C600C0F60100BA2102F0E6F9FFE70298E6
:102150004068B0F5827F04D0FFE70298406808B974
:10216000FFE707E043F6C600C0F60100BB2102F01E
:10217000D3F9FFE70298806830B1FFE702988068E2
:10218000B0F5006F01D1FFE707E043F6C600C0F6E7
:102190000100BC2102F0C0F9FFE70298C06828B135
:1021A000FFE70298C068022801D1FFE707E043F685
:1021B000C600C0F60100BD2102F0AEF9FFE70298AB
:1021C000006928B1FFE702980069012801D1FFE703
:1021D00007E043F6C600C0F60100BE2102F09CF9FC
:1021E000FFE702984069B0F5007F0AD0FFE7029848
:1021F000406930B1FFE702984069B0F5802F01D106
:10220000FFE707E043F6C600C0F60100BF2102F079
:1022100083F9FFE70298806918B3FFE702988069A5
:1022200008281ED0FFE702988069102819D0FFE720
:1022300002988069182814D0FFE702988069202846
:102240000FD0FFE70298806928280AD0FFE702989C
:102250008069302805D0FFE702988069382801D1CD
:10226000FFE707E043F6C600C0F60100C02102F018
:1022700053F9FFE70298C069802804D0FFE702986D
:10228000C06908B9FFE707E043F6C600C0F60100E1
:10229000C12102F041F9FFE70298006AB0F5005F42
:1022A00004D0FFE70298006A08B9FFE707E043F6A9
:1022B000C600C0F60100C22102F02EF9FFE7039824
:1022C00000F052F8002845D1FFE7039800684FF668
:1022D000BF718843029A00921168D2F804E0D2F8E4
:1022E00008C0D36841EA0E0141EA0C0119431369A1
:1022F00019435369194393691943D3691943126AFE
:1023000011430843039908600398406820F00400D3
:102310000299C98A0843039948600298006AB0F597
:10232000005F13D1FFE70298406A08B1FFE707E0BA
:1023300043F6C600C0F60100E52102F0EDF8FFE724
:1023400003980299496A00F017F8FFE700208DF81A
:102350000700FFE70399C86920F40060C8619DF891
:10236000070004B080BD000081B0009000980068B4
:10237000C0F3801001B0704782B001900091BDF8A9
:1023800000000199086102B0704700004EF2100190
:10239000CEF20001086840F00200086070470000BB
:1023A00081B00090009840F21001C2F20001086074
:1023B00001B0704781B000900099086820F080005B
:1023C000086001B07047000081B0009000998868F3
:1023D00020F08000886001B07047000081B000905C
:1023E0000099486940F00100486101B07047000061
:1023F00080B584B003900291039842F60041C4F284
:102400000101884235D0FFE7039843F20041C4F24E
:10241000010188422DD0FFE70398B0F1804F28D00A
:10242000FFE7039840F20041C4F20001884220D047
:10243000FFE7039840F60001C4F20001884218D07B
:10244000FFE7039840F60041C4F20001884210D033
:10245000FFE7039841F20001C4F20001884208D06E
:10246000FFE7039841F20041C4F20001884201D124
:10247000FFE708E043F6FD00C0F601004FF4A57148
:1024800002F04AF8FFE702984068A0B1FFE702981F
:10249000406810280FD0FFE70298406840280AD013
:1024A000FFE702984068202805D0FFE702984068BF
:1024B000602801D1FFE708E043F6FD00C0F6010007
:1024C00040F24B1102F028F8FFE70298C06860B1B3
:1024D000FFE70298C068B0F5807F06D0FFE702985A
:1024E000C068B0F5007F01D1FFE708E043F6FD00CA
:1024F000C0F601004FF4A67102F00EF8FFE7039852
:1025000000680190039842F60041C4F2010188423C
:1025100025D0FFE7039843F20041C4F2010188424D
:102520001DD0FFE70398B0F1804F18D0FFE7039864
:1025300040F20041C4F20001884210D0FFE7039846
:1025400040F60001C4F20001884208D0FFE703987A
:1025500040F60041C4F20001884208D1FFE701982B
:1025600020F070000299496808430190FFE7039842
:1025700042F60041C4F20101884225D0FFE70398EA
:1025800043F20041C4F2010188421DD0FFE70398E5
:10259000B0F1804F18D0FFE7039840F20041C4F239
:1025A0000001884210D0FFE7039840F60001C4F212
:1025B0000001884208D0FFE7039840F60041C4F2CA
:1025C0000001884208D1FFE7019820F44070029989
:1025D000C96808430190FFE70198039908600398D0
:1025E0000299896800F032F903980299098800F08D
:1025F00035F9039842F60041C4F20101884208D03F
:10260000FFE7039843F20041C4F20101884206D17A
:10261000FFE703980299096900F028F9FFE703989A
:10262000FFF7DCFE002004B080BD000089B00890F8
:1026300007910798012803D1FFE70020049030E0BC
:102640000798042803D1FFE70120039026E00798AC
:10265000102803D1FFE7022002901CE007984028D1
:1026600003D1FFE70320019012E00798B0F5807FC7
:1026700003D1FFE70420009007E007990620B1F599
:10268000806F08BF05200090FFE700980190FFE7EA
:1026900001980290FFE702980390FFE703980490E7
:1026A000FFE704988DF81B0008989DF81B2047F25F
:1026B0006741C0F60001895C0844183005909DF818
:1026C0001B1047F26E40C0F60000415C042000FA87
:1026D00001F2059908689043086009B0704700004E
:1026E00089B0089007910798012803D1FFE70020DF
:1026F000049030E00798042803D1FFE701200390FD
:1027000026E00798102803D1FFE7022002901CE082
:102710000798402803D1FFE70320019012E00798B3
:10272000B0F5807F03D1FFE70420009007E0079910
:102730000620B1F5806F08BF05200090FFE70098E4
:102740000190FFE701980290FFE702980390FFE7EE
:1027500003980490FFE704988DF81B0008989DF8F3
:102760001B2047F26741C0F60001895C084418301D
:1027700005909DF81B1047F26E40C0F60000415CCA
:10278000082000FA01F2059908681043086009B0B2
:102790007047000080B586B0059004910392012037
:1027A0008DF80B000498019001280ED0FFE70198E6
:1027B000102811D0FFE70198B0F5807F13D0FFE714
:1027C0000198B0F5805F15D01BE00598039900F0E3
:1027D00037FE8DF80B0015E00598039900F078FF9F
:1027E0008DF80B000EE00598039901F0BDF88DF807
:1027F0000B0007E00598039901F002FA8DF80B0031
:1028000000E0FFE79DF80B0006B080BD82B00190AC
:10281000009100980199486302B0704782B001901E
:10282000009100980199886302B0704782B00190CE
:10283000009100980199C86302B0704782B001907E
:10284000009100980199086402B0704782B001902D
:10285000009100980199C86202B0704782B001905F
:10286000009100980199886202B0704782B001908F
:10287000009100980199086302B0704782B00190FE
:1028800000910198406820F0700000990843019978
:10289000486002B07047000081B00090009908695C
:1028A00020F4904008610099486920F02A004861AE
:1028B00001B0704781B000900099C86840F40050A2
:1028C000C86001B07047000080B588B007900691DD
:1028D00001208DF8170000200490079843F60001AE
:1028E000C4F20101884220D0FFE7079844F200417A
:1028F000C4F20001884218D0FFE7079844F60001AF
:10290000C4F20001884210D0FFE7079844F6004166
:10291000C4F20001884208D0FFE7079845F20001A1
:10292000C4F20001884201D1FFE707E043F634100A
:10293000C0F60100CE2101F0EFFDFFE70698006828
:102940004AF62021C0F24401884201D8FFE707E09F
:1029500043F63410C0F60100CF2101F0DDFDFFE7A2
:102960000698406830B1FFE706984068B0F5805F90
:1029700001D1FFE707E043F63410C0F60100D02193
:1029800001F0CAFDFFE706988068B0F5805F10D0BF
:10299000FFE70698806860B1FFE706988068B0F5A9
:1029A000405F06D0FFE706988068B0F5005F01D170
:1029B000FFE707E043F63410C0F60100D12101F033
:1029C000ABFDFFE70698C06860B1FFE70698C068F6
:1029D000B0F5806F06D0FFE70698C068B0F5C06F0D
:1029E00001D1FFE707E043F63410C0F60100D22121
:1029F00001F092FDFFE70698006978B1FFE70698BD
:102A0000006904280AD0FFE706980069082805D065
:102A1000FFE7069800690C2801D1FFE707E043F6BD
:102A20003410C0F60100D32101F076FDFFE70698CF
:102A3000406990B1FFE706984069B0F5807F0CD0FF
:102A4000FFE706984069B0F5007F06D0FFE70698DB
:102A50004069B0F5407F01D1FFE707E043F634104D
:102A6000C0F60100D42101F057FDFFE7079800F000
:102A70007FF8002878D1FFE70798C06841F20C6121
:102A80008843069A5168D368126919431143084371
:102A90000799C86007980699896800F0A7F8079811
:102AA0000699496900F094F86846FFF75BFA0798C1
:102AB00043F60001C4F20101884203D1FFE7039805
:102AC000049030E0079844F20041C4F200018842CB
:102AD00003D1FFE70298049024E0079844F6000130
:102AE000C4F20001884203D1FFE70298049018E085
:102AF000079844F60041C4F20001884203D1FFE781
:102B0000029804900CE0079845F20001C4F200011D
:102B1000884203D1FFE70298049000E0FFE7FFE757
:102B2000FFE7FFE7FFE70498E8B1FFE706980068D2
:102B3000C8B1FFE700208DF8170007980499069A9E
:102B4000126800F01DF807988068102801D3FFE78D
:102B500008E043F63410C0F601004FF49B7101F019
:102B6000DBFCFFE7FFE7FFE79DF8170008B080BD3B
:102B700081B000900098C068C0F3403001B0704749
:102B800083B0029001910092019819214843009965
:102B90008900B0FBF1F348F21F51C5F2EB11A3FB22
:102BA00001204209642002FB1033322000EB0310A5
:102BB000A0FB0101F02000EA511000EB0210C1F36C
:102BC0004311084480B20299886003B07047000046
:102BD00082B0019000910198406920F44070009902
:102BE00008430199486102B07047000082B001902B
:102BF00000910198006920F4405000990843019920
:102C0000086102B07047000082B001904EF21000DF
:102C1000CEF200000068009000980198013020B1C9
:102C2000FFE7019801300190FFE7FFE7019870B1DD
:102C3000FFE74EF21000CEF200000068C00300284B
:102C400004D5FFE7019801380190FFE7EEE702B0F5
:102C50007047000080B582B08DF8070040F29411F3
:102C6000C4F22221002008609DF8070043F60C0101
:102C7000C4F2000108600220FEF710F9FFE740F2FD
:102C80001C10C4F20720006808B1FFE7F7E740F224
:102C90009411C4F222210120086002B080BD00001E
:102CA00081B0009040F60441C4F20101086803229B
:102CB00062F317500860FFE70098411E009148B189
:102CC000FFE748F2B411C4F221210020086001207E
:102CD0000860F1E740F60441C4F2010108680B22E4
:102CE00062F317500860FFE740F20010C4F20720BB
:102CF000006838B1FFE743F60C00C4F2000000683A
:102D00000090F1E743F60001C4F20001086840F4C6
:102D1000806020F03800086001B0704780B582B054
:102D200043F60001C4F20001086820F0400008608A
:102D3000FFE740F20010C4F20720006838B1FFE757
:102D400043F60C00C4F2000000680190F1E743F67E
:102D50000001C4F20001086820F4876008600220C6
:102D6000FEF79CF8FFE740F20010C4F2072000686D
:102D700038B1FFE743F60C00C4F200000068019090
:102D8000F1E743F60001C4F20001086840F040009A
:102D9000086002B080BD000080B582B0ADF80600CA
:102DA000BDF8060043F60C01C4F2000108600120E2
:102DB000FEF774F8FFE740F21C10C4F20720006829
:102DC00008B1FFE7F7E702B080BD000080B582B030
:102DD0008DF807009DF8070043F60C01C4F20001CE
:102DE00008600220FEF75AF8FFE740F21C10C4F218
:102DF0000720006808B1FFE7F7E702B080BD0000D8
:102E000010B598B000200F90179016901590149060
:102E10001390129011901020FEF79CFC2020FEF7DA
:102E200099FC04200C90FEF795FC08200790FEF713
:102E300091FC41F20000C4F20100039048F2877156
:102E4000C0F20341FEF79AFF40F60040C4F20100D1
:102E500002904FF6FF71C0F21F410191FEF78EFF05
:102E600040F60000C4F201000B901121C0F21141A4
:102E7000FEF784FF41F20040C4F20100069040F2E8
:102E800004410591FEF77AFF039843F63801C0F23A
:102E90000841FEF77DFF0B9841F21771FEF778FFAE
:102EA00003980F994BF6BF72C0F20B4211920122A8
:102EB00009921292022208921392149111A904917C
:102EC000FEF728FE0499089BDDF824C00F9A0B98A2
:102ED00041F2177EC0F2114ECDF844E0CDF848C063
:102EE00013931492FEF716FE0499089BDDF824C094
:102EF0000F9ADDF804E00298CDF844E0CDF848C020
:102F000013931492FEF706FE04990C9A0398142367
:102F1000C0F2144311931292FEF7FCFD0499089B32
:102F2000DDF824C00F9ADDF814E00698CDF844E0EF
:102F3000CDF848C013931492FEF7ECFD0F984FF0B4
:102F40007041FEF7CBFD0F980221CFF20001FEF792
:102F5000C5FD0F980321CFF20001FEF7BFFD079BCF
:102F60000898099A0F9916938DF85C208DF85D10DA
:102F70008DF85E0016A80A90FEF79EFC099A0F993C
:102F80000A984FF4006316938DF85C208DF85D105D
:102F900003218DF85E10FEF78FFC09990F9A0A98AD
:102FA0004FF4004316938DF85C108DF85D208DF87A
:102FB0005E10FEF781FC0C9A0B9840F60801FEF7B4
:102FC000F1FE0B980C9A0821C0F20841FEF7EAFEC8
:102FD0000B980C9A8021C0F28041FEF7E3FE01F0CD
:102FE000E5F90F9A0E210E9100F0BEF90146092075
:102FF0000D9001F00DFA0D9801F088F901F0D6F965
:103000000E990F9A00F0B0F901462820109001F0B7
:10301000FFF9109801F07AF918B010BD80B596B09C
:103020000CA805902821FDF7F1F8002004900B90E2
:103030000A900990089007904FF48050FEF79CFB8F
:1030400004200090FEF798FB04984AF2A001079133
:1030500009210891032109910A9040F60000C4F269
:103060000100029007A90191FEF754FD009A019911
:10307000029844F2400307930892FEF74BFD01F0DB
:103080009DF9049A114600F0A5F90146232003900A
:1030900001F0E0F9039801F051F9049805990C90BA
:1030A0004FF482720D920E900F9010904FF40072B8
:1030B000119208221292139014900A20159043F254
:1030C0000000C4F201000690FEF7FAFF0698FEF732
:1030D000EDFF16B080BD000080B596B00CA805903D
:1030E0002821FDF793F8002004900B900A90099096
:1030F000089007904FF48040FEF7F6FA0820FEF79C
:103100003BFB0498A021C0F2A0410791092108913E
:10311000032109910A9040F60040C4F20100029098
:1031200007A90191FEF7F6FC019902984022C0F22E
:103130004042079204220892FEF7ECFC01F03EF9AF
:10314000049A114600F046F901462420039001F04C
:1031500081F9039801F0F2F8049805990C904FF466
:1031600082720D920E900F9010904FF40072119297
:103170001290139014900A20159043F60000C4F2A8
:1031800000000690FEF79CFF0698FEF78FFF16B032
:1031900080BD000080B596B000200390159014907B
:1031A00013901290119010900F900E900D900C9023
:1031B0000B900A9009900890079006900590049053
:1031C00002200290FEF7A2FA0398ADF84400129094
:1031D0004FF6FF711391149040F20040C4F20000CA
:1031E000019011A9FFF704F90198FFF7E3F801989E
:1031F00001210091FFF774FA00990198039A602366
:1032000009930A920B920C920D9209AAFFF7C2FA47
:1032100000990198FFF70AFA01980399FFF72EFB2E
:103220000198FFF7D1F81020FEF7B8FA0299039839
:1032300044F240020492092205920691079041F25D
:103240000000C4F2010004A9FEF764FCFEF72EFCA6
:1032500016B080BD80B592B00020049011901090FF
:103260000F900E900D900C900B900A900990089082
:10327000079006904FF48040FEF7A2FA04200190D8
:10328000FEF79EFA04980221C0F20241069109213C
:10329000079103210891099040F60000C4F2010053
:1032A000039006A90291FEF735FC019A0299039852
:1032B0000423C0F2044306930792FEF72BFC049804
:1032C0004FF4E1310B910C900D900E900C210F9169
:1032D0001090119043F60000C4F2010005900BA974
:1032E000FFF7F2FA0598FFF7D7FA0598FFF7E2FA29
:1032F00012B080BDFFE7FEE7FFE7FEE788B007906A
:1033000006910592079800F0070004900498C0F118
:103310000700052803D3FFE70420019004E0049888
:10332000C0F107000190FFE7019803900498043072
:10333000062803D8FFE70020009003E00498033834
:103340000090FFE70098029006980399012202FA84
:1033500001F101390840029B984005999A40013AD1
:103360001140084308B0704788B007900691059255
:10337000079800F0070004900498C0F107000528A2
:1033800003D3FFE70420019004E00498C0F1070094
:103390000190FFE70198039004980430062803D8B1
:1033A000FFE70020009003E0049803380090FFE757
:1033B0000098029006980399012202FA01F101395E
:1033C0000840029B984005999A40013A11400843F1
:1033D00008B0704788B0079006910592079800F0F2
:1033E000070004900498C0F10700052803D3FFE705
:1033F0000420019004E00498C0F107000190FFE769
:103400000198039004980430062803D8FFE70020B1
:10341000009003E0049803380090FFE700980290C2
:1034200006980399012202FA01F101390840029B32
:10343000984005999A40013A1140084308B07047F6
:1034400080B586B005900491059842F60041C4F21B
:103450000101884225D0FFE7059843F20041C4F2FC
:10346000010188421DD0FFE70598B0F1804F18D0C8
:10347000FFE7059840F20041C4F20001884210D0F5
:10348000FFE7059840F60001C4F20001884208D029
:10349000FFE7059840F60041C4F20001884201D1DF
:1034A000FFE708E043F6FD00C0F6010040F2FF210F
:1034B00001F032F8FFE70498006818B3FFE70498BA
:1034C000006810281ED0FFE704980068202819D053
:1034D000FFE704980068302814D0FFE704980068DC
:1034E00040280FD0FFE70498006850280AD0FFE773
:1034F00004980068602805D0FFE7049800687028E9
:1035000001D1FFE708E043F6FD00C0F601004FF4EB
:10351000407101F001F8FFE70498406828B1FFE727
:1035200004984068012801D1FFE708E043F6FD0058
:10353000C0F6010040F2013100F0EEFFFFE7049811
:10354000006928B1FFE704980069022801D1FFE76C
:1035500008E043F6FD00C0F6010040F2023100F041
:10356000DBFFFFE70498806828B1FFE704988068D4
:10357000012801D1FFE708E043F6FD00C0F6010095
:1035800040F2033100F0C8FFFFE70498406928B11A
:10359000FFE704984069022801D1FFE708E043F6FD
:1035A000FD00C0F601004FF4417100F0B5FFFFE7E8
:1035B0000599086A20F0010008620598006A0290E7
:1035C000059840680190059880690390039820F061
:1035D00003000390039820F07000049909680843E1
:1035E0000390029820F002000499096908430290B0
:1035F000029820F001000499496808430290059858
:1036000042F60041C4F20101884208D0FFE7059864
:1036100043F20041C4F20101884248D1FFE7049817
:10362000C06930B1FFE70498C069B0F5807F01D16F
:10363000FFE708E043F6FD00C0F601004FF44871D3
:1036400000F06AFFFFE70498806930B1FFE7049853
:103650008069B0F5807F01D1FFE708E043F6FD0007
:10366000C0F6010040F2213100F056FFFFE702985A
:1036700020F008000499496940EA8100029002980C
:1036800020F004000499896840EA810002900198C2
:1036900020F480700499896908430190019820F40E
:1036A00000700499C96940EA41000190FFE7019860
:1036B0000599486003980599886105980499C96837
:1036C000FFF7A4F8029805990862002006B080BDB3
:1036D00080B586B005900491059842F60041C4F289
:1036E0000101884225D0FFE7059843F20041C4F26A
:1036F000010188421DD0FFE70598B0F1804F18D036
:10370000FFE7059840F20041C4F20001884210D062
:10371000FFE7059840F60001C4F20001884208D096
:10372000FFE7059840F60041C4F20001884201D14C
:10373000FFE708E043F6FD00C0F6010040F24E311D
:1037400000F0EAFEFFE70498006818B3FFE704986A
:10375000006810281ED0FFE704980068202819D0C0
:10376000FFE704980068302814D0FFE70498006849
:1037700040280FD0FFE70498006850280AD0FFE7E0
:1037800004980068602805D0FFE704980068702856
:1037900001D1FFE708E043F6FD00C0F6010040F26A
:1037A0004F3100F0B9FEFFE70498406828B1FFE709
:1037B00004984068012801D1FFE708E043F6FD00C6
:1037C000C0F601004FF4547100F0A6FEFFE7049824
:1037D000006928B1FFE704980069022801D1FFE7DA
:1037E00008E043F6FD00C0F6010040F2513100F060
:1037F00093FEFFE70498806828B1FFE7049880688B
:10380000012801D1FFE708E043F6FD00C0F6010002
:1038100040F2523100F080FEFFE70498406928B181
:10382000FFE704984069022801D1FFE708E043F66A
:10383000FD00C0F6010040F2533100F06DFEFFE7DD
:103840000599086A20F0100008620598006A029045
:10385000059840680190059880690390039820F4CA
:1038600040700390039820F4E0400499096840EA0E
:1038700001200390029820F020000499096940EA91
:1038800001100290029820F010000499496840EA63
:1038900001100290059842F60041C4F201018842ED
:1038A00008D0FFE7059843F20041C4F201018842C5
:1038B00049D1FFE70498C06930B1FFE70498C069B7
:1038C000B0F5807F01D1FFE708E043F6FD00C0F6C8
:1038D000010040F26F3100F01FFEFFE7049880699D
:1038E00030B1FFE704988069B0F5807F01D1FFE730
:1038F00008E043F6FD00C0F601004FF45C7100F0F3
:103900000BFEFFE7029820F080000499496940EA25
:1039100081100290029820F040000499896840EAE2
:1039200081100290019820F480600499896940EA2E
:1039300081000190019820F400600499C96940EA6F
:10394000C1000190FFE70198059948600398059927
:10395000886105980499C968FEF760FF0298059987
:103960000862002006B080BD80B586B00590049145
:10397000059842F60041C4F20101884225D0FFE7D4
:10398000059843F20041C4F2010188421DD0FFE7CF
:103990000598B0F1804F18D0FFE7059840F200413C
:1039A000C4F20001884210D0FFE7059840F60001FC
:1039B000C4F20001884208D0FFE7059840F60041B4
:1039C000C4F20001884201D1FFE708E043F6FD00A0
:1039D000C0F6010040F29D3100F09EFDFFE7049823
:1039E000006818B3FFE70498006810281ED0FFE7AE
:1039F00004980068202819D0FFE704980068302850
:103A000014D0FFE70498006840280FD0FFE704981F
:103A1000006850280AD0FFE704980068602805D0A5
:103A2000FFE704980068702801D1FFE708E043F63B
:103A3000FD00C0F6010040F29E3100F06DFDFFE791
:103A40000498406828B1FFE704984068012801D134
:103A5000FFE708E043F6FD00C0F6010040F29F31A9
:103A600000F05AFDFFE70498006928B1FFE70498C9
:103A70000069022801D1FFE708E043F6FD00C0F627
:103A800001004FF4687100F047FDFFE7049880687B
:103A900028B1FFE704988068012801D1FFE708E01A
:103AA00043F6FD00C0F6010040F2A13100F034FD04
:103AB000FFE70498406928B1FFE7049840690228AD
:103AC00001D1FFE708E043F6FD00C0F6010040F237
:103AD000A23100F021FDFFE70599086A20F480700B
:103AE00008620598006A0290059840680190059860
:103AF000C0690390039820F003000390039820F01E
:103B000070000499096808430390029820F400703B
:103B10000499096940EA01200290029820F480701B
:103B20000499496840EA01200290059842F6004154
:103B3000C4F20101884208D0FFE7059843F2004132
:103B4000C4F20101884249D1FFE70498C06930B14D
:103B5000FFE70498C069B0F5807F01D1FFE708E076
:103B600043F6FD00C0F6010040F2BE3100F0D4FC87
:103B7000FFE70498806930B1FFE704988069B0F5E9
:103B8000807F01D1FFE708E043F6FD00C0F60100A9
:103B900040F2BF3100F0C0FCFFE7029820F4006063
:103BA0000499496940EA81200290029820F48060DB
:103BB0000499896840EA81200290019820F480509D
:103BC0000499896940EA01100190019820F400509D
:103BD0000499C96940EA41100190FFE701980599ED
:103BE000486003980599C86105980499C968FEF76B
:103BF0001DFE029805990862002006B080BD0000F5
:103C000080B586B005900491059842F60041C4F253
:103C10000101884225D0FFE7059843F20041C4F234
:103C2000010188421DD0FFE70598B0F1804F18D000
:103C3000FFE7059840F20041C4F20001884210D02D
:103C4000FFE7059840F60001C4F20001884208D061
:103C5000FFE7059840F60041C4F20001884201D117
:103C6000FFE708E043F6FD00C0F601004FF47B716A
:103C700000F052FCFFE70498006818B3FFE70498CF
:103C8000006810281ED0FFE704980068202819D08B
:103C9000FFE704980068302814D0FFE70498006814
:103CA00040280FD0FFE70498006850280AD0FFE7AB
:103CB00004980068602805D0FFE704980068702821
:103CC00001D1FFE708E043F6FD00C0F6010040F235
:103CD000ED3100F021FCFFE70498406828B1FFE7D0
:103CE00004984068012801D1FFE708E043F6FD0091
:103CF000C0F6010040F2EE3100F00EFCFFE7049840
:103D0000006928B1FFE704980069022801D1FFE7A4
:103D100008E043F6FD00C0F6010040F2EF3100F08C
:103D2000FBFBFFE70498406928B1FFE7049840696E
:103D3000022801D1FFE708E043F6FD00C0F60100CC
:103D40004FF47C7100F0E8FBFFE70498806828B12D
:103D5000FFE704988068012801D1FFE708E043F6F7
:103D6000FD00C0F6010040F2F13100F0D5FBFFE7A5
:103D70000599086A20F4805008620598006A02904C
:103D80000598406801900598C0690390039820F455
:103D900040700390039820F4E0400499096840EAD9
:103DA00001200390029820F400500499096940EA28
:103DB00001300290029820F480500499496840EA4A
:103DC00001300290059842F60041C4F20101884298
:103DD00008D0FFE7059843F20041C4F20101884290
:103DE00031D1FFE70498C06930B1FFE70498C0699A
:103DF000B0F5807F01D1FFE708E043F6FD00C0F693
:103E0000010040F20D4100F087FBFFE70498806954
:103E100030B1FFE704988069B0F5807F01D1FFE7FA
:103E200008E043F6FD00C0F6010040F20E4100F04C
:103E300073FBFFE7019820F480400499896940EA08
:103E400081100190FFE70198059948600398059952
:103E5000C86105980499C968FEF7F0FC02980599B5
:103E60000862002006B080BD7047000080B582B0B7
:103E7000019001980090FEF74DF801460098C9B2F4
:103E80000A0945F29F61C0F60001895CC84002B092
:103E900080BD000080B582B0019001980090FEF7CF
:103EA00041F8014600980A0A45F2AF61C0F60001E8
:103EB000895CC84002B080BD80B582B00190019895
:103EC0000090FEF737F801460098CA0A45F2AF6144
:103ED000C0F60001895CC84002B080BD80B582B0E8
:103EE00000200190FEF736F80146009140B1FFE74F
:103EF000009804280AD0FFE7009808280CD00FE0AB
:103F000041F20020C0F27A0001900FE041F200205F
:103F1000C0F27A00019009E000F00CF8019005E091
:103F200041F20020C0F27A000190FFE7019802B050
:103F300080BD000080B584B0002003900290FEF7A1
:103F40005DF802900298019028B1FFE70198B0F562
:103F5000803F06D010E040F60010C0F23D00039014
:103F600010E0FEF75BF8411C41F20020C0F27A003D
:103F7000B0FBF1F0039005E040F60010C0F23D0008
:103F80000390FFE703980090FEF740F80246009880
:103F9000022101EB9241484304B080BD704700000C
:103FA00040F28D51C2F2000108780130087070476C
:103FB0007047000080B582B0ADF80600ADF804107F
:103FC000ADF80220ADF8003040F28000C2F20000EF
:103FD0000068C06988B1FFE740F28000C2F20000CB
:103FE0000068D0F81CC0BDF80600BDF80410BDF88C
:103FF0000220BDF80030E047FFE702B080BD0000BE
:1040000080B540F2B050C2F20000006840B1FFE756
:1040100040F2B051C2F20001086801380860FFE7C1
:1040200040F21020C2F20000016801310160006816
:1040300047F6D501C2F2E96148434FEAB00041F2C8
:104040006E21C0F2830188420AD8FFE740F60000E3
:10405000C4F201001021C0F21041FDF721FFFFE77B
:1040600080BD000080B582B00220FDF711FDFFE7A2
:10407000FDF706FD022801D0FFE7F9E7FDF78EFF07
:10408000FFE7FDF795FF012801D0FFE7F9E74FF4BF
:1040900080304FF4E011FDF793FFFDF7A5FFFFE738
:1040A000FDF7C4FF012801D0FFE7F9E700200190E8
:1040B000FDF7C4FF4FF48060FDF7CEFF0198FDF7D8
:1040C000D9FF0220FDF7E4FFFFE7FDF73BFF0828DB
:1040D00001D0FFE7F9E74AF20020C0F24A40009021
:1040E000FDF7F2FE0098FEF75BF902B080BD00001C
:1040F0007047000081B00090FFE70098411E0091DA
:1041000008B1FFE7F9E701B07047000080B582B061
:1041100040F20B20C2F20000007848B9FFE700F03F
:104120004BF840F20B21C2F2000101200870FFE7BA
:1041300040F20C10C4F22120006820B1FFE70020FB
:104140008DF8070003E001208DF80700FFE79DF8D8
:10415000070002B080BD000080B582B040F290112F
:10416000C4F22121009100200860902000F0A2F804
:1041700000F068F80099ADF8060001200860BDF86D
:104180000600C00802B080BD80B582B040F2901138
:10419000C4F22121009100200860D02000F08AF8AC
:1041A00000F050F80099ADF8060001200860BDF855
:1041B0000600C00802B080BD41F21801C4F202013D
:1041C000086840F00400086040F29011C4F2212118
:1041D0000120086040F29411C4F22121086040F2ED
:1041E0009C11C4F22121086040F60002C4F20102D1
:1041F0001168042363F30F31116011684FF0030C51
:104200006CF31341116011684FF00B0C6CF31751F4
:10421000116011686CF31F711160116863F31B6109
:10422000116040F23031C4F24221086043F20001D3
:10423000C4F2010140F267300860086840F04000B5
:104240000860704780B582B043F20C01C4F20101EE
:10425000002008700220FFF74DFFFFE740F21C101E
:10426000C4F22620006808B1FFE7F7E743F20C012B
:10427000C4F2010108788DF80700002008700220C0
:10428000FFF738FFFFE740F21C10C4F22620006859
:1042900008B1FFE7F7E743F20C00C4F20100007831
:1042A0008DF806009DF807109DF8060040EA0120F1
:1042B00002B080BD80B582B08DF807009DF8070080
:1042C00043F20C01C4F2010108700220FFF712FF53
:1042D000FFE740F21C10C4F22620006808B1FFE797
:1042E000F7E743F20C00C4F2010000788DF80700F4
:1042F00002B080BDFFE7FEE7FFE740F20010C2F228
:104300000000006808B1FFE7F7E7704781B08DF85B
:1043100003009DF9030000280ED4FFE79DF9031068
:1043200001F01F02012090404A094EF20011CEF226
:10433000000141F82200FFE701B0704781B08DF81D
:1043400003009DF9030000280ED4FFE79DF9031038
:1043500001F01F02012090404A094EF20011CEF2F6
:10436000000141F82200FFE701B0704781B08DF8ED
:1043700003009DF9030000280ED4FFE79DF9031008
:1043800001F01F02012090404A094EF20011CEF2C6
:10439000000141F82200FFE701B070474EF60C50D3
:1043A000CEF200000068C0F3022070474EF60C50B9
:1043B000CEF200000068C0F3022070474EF60C50A9
:1043C000CEF200000068C0F30220704782B08DF882
:1043D000070000919DF9070000280AD4FFE7009824
:1043E00000019DF907104EF20042CEF200028854FF
:1043F0000BE0009800019DF8071001F00F014EF648
:104400001452CEF200028854FFE702B07047000059
:1044100082B08DF8070000919DF9070000280AD4AA
:10442000FFE7009800019DF907104EF20042CEF21E
:10443000000288540BE0009800019DF8071001F07D
:104440000F014EF61452CEF200028854FFE702B07C
:104450007047000082B08DF8070000919DF90700B9
:1044600000280AD4FFE7009800019DF907104EF2DA
:104470000042CEF2000288540BE0009800019DF843
:10448000071001F00F014EF61452CEF200028854CC
:10449000FFE702B07047000082B08DF8070000917E
:1044A0009DF9070000280AD4FFE7009800019DF954
:1044B00007104EF20042CEF2000288540BE0009842
:1044C00000019DF8071001F00F014EF61452CEF2D4
:1044D00000028854FFE702B07047000083B00290EA
:1044E000029800F0070000904EF60C51CEF2000149
:1044F0000868019001984FF6FF0210400190019862
:10450000009A40EA02200022C0F2FA5210430190C1
:104510000198086003B0704782B00190009102B02A
:104520007047000080B50020FCF7A0FC1020FCF7CD
:10453000F3FE80BD80B51120FCF7EEFE0120FCF7F4
:1045400095FC80BD80B584B0ADF80E00ADF80C10C0
:1045500002920298D0F8020000900298D0F80A0067
:10456000019000980199401A400800900199029822
:10457000084402900299009A2C20FCF70BFF04B02B
:1045800080BD000080B582B0ADF80600ADF8041023
:10459000ADF80220ADF800302A20FCF7BDFE9DF8F2
:1045A0000500FCF751FF9DF80400FCF74DFFBDF836
:1045B0000400BDF8001008440138C0F30720FCF7E0
:1045C00043FFBDF80400BDF8001008440138C0B234
:1045D000FCF73AFF2B20FCF79FFE9DF80300FCF749
:1045E00033FF9DF80200FCF72FFF9DF80300FCF756
:1045F0002BFF9DF80200FCF727FFBDF80610BDF861
:1046000000202C20FCF7A2FE02B080BD80B582B055
:10461000DDF810C0ADF80600ADF80410ADF80220CA
:10462000ADF80030BDF80600BDF80410BDF802205A
:10463000BDF8003000F094FA0499BDF80200BDF80E
:10464000002042432C20FCF7A5FE02B080BD0000F4
:1046500080B582B0ADF80600ADF80410ADF80220C8
:10466000ADF800302A20FCF757FE9DF80500FCF756
:10467000EBFE9DF80400FCF7E7FE9DF80500FCF753
:10468000E3FE9DF80400FCF7DFFE2B20FCF744FE60
:104690009DF80300FCF7D8FE9DF80200FCF7D4FE5D
:1046A000BDF80200BDF8001008440138C0F307202F
:1046B000FCF7CAFEBDF80200BDF80010084401383E
:1046C000C0B2FCF7C1FEBDF80610BDF800202C20DA
:1046D000FCF73CFE02B080BD80B584B084460698ED
:1046E000ADF80EC0ADF80C10ADF80A20ADF80830EA
:1046F000ADF806002A20FCF70FFE9DF80F00FCF72E
:10470000A3FE9DF80E00FCF79FFEBDF80E00BDF85D
:104710000A1008440138C0F30720FCF795FEBDF8E5
:104720000E00BDF80A1008440138C0B2FCF78CFE38
:104730002B20FCF7F1FD9DF80D00FCF785FE9DF8A0
:104740000C00FCF781FEBDF80C00BDF80810084411
:104750000138C0F30720FCF777FEBDF80C00BDF868
:10476000081008440138C0B2FCF76EFEBDF8061010
:10477000BDF80A00BDF8082042432C20FCF7E6FDF6
:1047800004B080BD4FF4A070704700004FF4F0708B
:104790007047000080B586B040F2FC00C2F2000015
:1047A0000078C007C8B9FFE740F2FC00C2F2000081
:1047B000017841F00101017000788007002803D4DE
:1047C000FFE7FCF777FBFFE740F2FC01C2F20001D4
:1047D000087840F002000870FFE70A200090FCF71C
:1047E0003DFB1120FCF798FD0098FCF737FB45F2E4
:1047F0009861C0F600010291B42001220492FCF7F6
:10480000E9FD05200590FCF729FB049A43F6971172
:10481000C0F60101C120FCF7DDFD0598FCF71EFB89
:1048200045F29A61C0F60001C5200422FCF7D2FDD2
:104830000598FCF713FB47F27541C0F60001E02034
:104840000F220192FCF7C6FD0598FCF707FB019AC1
:1048500047F28541C0F60001E120FCF7BBFD059859
:10486000FCF7FCFA049A43F6C511C0F601013A20A0
:104870000390FCF7AFFD0598FCF7F0FA0299049A53
:10488000B020FCF7A7FD0598FCF7E8FA0398049A16
:1048900043F6C311C0F60101FCF79CFD0598FCF737
:1048A000DDFA3620FCF738FDE820FCF7CDFD059851
:1048B000FCF7D4FA1320FCF72FFD0598FCF7CEFA8D
:1048C0002020FCF729FD7820FCF7C8FA2920FCF706
:1048D00023FD06B080BD000080B582B000200090AE
:1048E000D320694603220123FCF79EFB009849F27E
:1048F0000041C0F28601884205D1FFE749F28640B7
:10490000ADF8060003E00020ADF80600FFE7BDF8B3
:10491000060002B080BD000080B584B0ADF80E0086
:10492000ADF80C1043F6C511C0F601013A20009015
:1049300001220192FCF74EFD2A20FCF7EDFC9DF8C8
:104940000F00FCF781FD9DF80E00FCF77DFD9DF842
:104950000F00FCF779FD9DF80E00FCF775FD2B208C
:10496000FCF7DAFC9DF80D00FCF76EFD9DF80C00DD
:10497000FCF76AFD9DF80D00FCF766FD9DF80C0044
:10498000FCF762FD019B2E200DF10A011A46FCF78F
:1049900027FB0098019A43F6C311C0F60101FCF70A
:1049A00019FDBDF80A0004B080BD000080B584B0D8
:1049B000DDF818C0ADF80E00ADF80C10ADF80A2007
:1049C000ADF80830BDF80E00BDF80C10BDF80A2097
:1049D000BDF8083000F0C4F843F6C511C0F6010177
:1049E0003A20009001220192FCF7F4FC019B069909
:1049F000BDF80A00BDF8082042432E20FCF7F0FA6B
:104A00000098019A43F6C311C0F60101FCF7E2FCDD
:104A100004B080BD80B582B0ADF80600ADF80410DA
:104A2000ADF80220BDF8040040F28451C2F200014A
:104A3000C98888420AD1FFE7BDF8020040F28451DC
:104A4000C2F200014988884218D0FFE7BDF804008F
:104A500040F28451C2F20001C880BDF8020021F882
:104A6000020FBDF80400BDF802201044C0F5F0703C
:104A7000488033200322FCF78DFCFFE740F284508E
:104A8000C2F200008188BDF9062092FBF1F000FB24
:104A90001120ADF80600BDF90600B0F1FF3F0DDCB6
:104AA000FFE740F28451C2F200018888BDF8062079
:104AB000104449880844ADF806000AE0BDF8060035
:104AC00040F28451C2F2000149880844ADF8060062
:104AD000FFE7BDF9060040F28451C2F200010988E7
:104AE00088420DD0FFE7BDF8061040F28450C2F2B4
:104AF00000000180018837200122FCF727FCFFE736
:104B000002B080BD80B582B0ADF80600ADF80410EB
:104B10002A20FCF701FC9DF80700FCF795FC9DF8A6
:104B20000600FCF791FC9DF80700FCF78DFC9DF852
:104B30000600FCF789FC2B20FCF7EEFB9DF8050036
:104B4000FCF782FC9DF80400FCF77EFC9DF8050054
:104B5000FCF77AFC9DF80400FCF776FC02B080BDFF
:104B600080B582B0ADF80600ADF80410ADF80220B3
:104B7000ADF80030BDF8040040F2C451C2F20001AB
:104B80000880BDF80400BDF800100844013840F268
:104B9000C251C2F2000108802A20FCF7BDFB9DF83B
:104BA0000700FCF751FC9DF80600FCF74DFCBDF832
:104BB0000600BDF8021008440138C0F30720FCF7D6
:104BC00043FCBDF80600BDF8021008440138C0B22D
:104BD000FCF73AFC2B20FCF79FFB9DF80500FCF747
:104BE00033FC9DF80400FCF72FFCBDF80400BDF871
:104BF000001008440138C0F30720FCF725FCBDF87D
:104C00000400BDF8001008440138C0B2FCF71CFCD9
:104C100002B080BD80B582B0ADF80600ADF80410DA
:104C2000ADF802202A20FCF777FB9DF80700FCF77F
:104C30000BFC9DF80600FCF707FC9DF80700FCF74D
:104C400003FC9DF80600FCF7FFFB2B20FCF764FB40
:104C50009DF80500FCF7F8FB9DF80400FCF7F4FB59
:104C60009DF80500FCF7F0FB9DF80400FCF7ECFB59
:104C70002C20FCF751FBBDF80200FCF7C9FB02B089
:104C800080BD000080B588B0ADF81E0040F28C51A8
:104C9000C2F2000100200870FFF738FA00286AD03D
:104CA000FFE7FFF759FA0690FFF76EFA0490082025
:104CB0000290FFE70298411E029100285AD0FFE7B8
:104CC000FFF74AFA0590FFF75FFA039006980599F7
:104CD000401AB0F1FF3F05DCFFE706990598401A3E
:104CE000019004E006980599401A0190FFE70198A9
:104CF000072839DCFFE704980399401AB0F1FF3F19
:104D000005DCFFE704990398401A009004E004983A
:104D10000399401A0090FFE70098072824DCFFE77A
:104D20000698059908444010069004980399084491
:104D30004010049000200290FFF7E8F998B1FFE7D7
:104D4000069840F2BC51C2F200010880049840F27B
:104D5000BE51C2F20001088040F28C51C2F2000143
:104D600001200870FFE704E005980690039804907E
:104D7000FFE79FE7FFE740F28C50C2F200000078A7
:104D800008B080BD83B0ADF80A000191009240F2F6
:104D9000BC50C2F2000000880199088040F2BE5069
:104DA000C2F2000000880099088003B0704700003C
:104DB00080B582B0ADF8060040F2FC00C2F20000FF
:104DC00000788007002803D4FFE7FCF773F8FFE7BB
:104DD00040F2FC01C2F20001087840F002000870C5
:104DE00002B080BD80B58AB040F2A951C2F2000184
:104DF000002009900870FBF7A5FCFBF78FFC0290E0
:104E0000FBF796FC01460298FBF77AFD47F29842C1
:104E1000C0F60002A5205521FBF73AFB40F2000046
:104E2000C2F20000FBF7BEFC4FF6FF70FBF752FA30
:104E30004FF2BE700590FBF7BFFCFBF76FFC0999C2
:104E400002463C2304930846FBF742FCFBF770FC48
:104E50003C380390FBF762FC0399049B02460998D7
:104E600089B2FBF735FC42F29842C0F6010240F2EB
:104E7000A9100521FBF70CFB0598FBF787FC0998A7
:104E8000FBF79AFC43F67F12C0F6010210201221B4
:104E90000323FBF761FA43F6B310C0F6010069463D
:104EA00048600120069008600F205A2107918C234A
:104EB00008931A46FBF73EFE06980799089B099A45
:104EC00040F2825CC2F2000C8CF8002043F6991C80
:104ED000C0F6010C6A46C2F804C01060AA201A4647
:104EE000FBF728FE06980799089B099A40F2C05CD8
:104EF000C2F2000C8CF8002043F67A1CC0F6010CBC
:104F00006A46C2F804C0106040F245101A46FBF72A
:104F100011FE099840F2A851C2F20001087040F257
:104F20008351C2F2000108700AB080BD40F2AC515A
:104F3000C2F20001087800F0FD000870087800F067
:104F4000FE0008707047000040F2A451C2F2000158
:104F50000020086040F28401C2F2000101200870C4
:104F60007047000088B0069000200590FFE7059884
:104F70000A280CD8FFE7059A40F29851C2F20001C6
:104F800000208854FFE7059801300590EFE7069868
:104F9000049000208DF80F004CF60020C3F69A30E4
:104FA0000290069840B9FFE740F29850C2F2000024
:104FB00030210170079058E000208DF80700FFE7CE
:104FC0000498029988420AD2FFE702984CF6CD4134
:104FD000CCF6CC41A0FB0110C0080290F0E702988B
:104FE00018B9FFE701200290FFE7FFE704990120CD
:104FF000009031B9FFE70298002818BF0120009007
:10500000FFE70098C00750B3FFE7FFE70498029955
:1050100088420AD3FFE79DF80F0001308DF80F009A
:1050200002990498401A0490F0E79DF80F00303080
:105030009DF80720511C8DF8071040F29851C2F2DC
:105040000001885400208DF80F0002984CF6CD41E5
:10505000CCF6CC41A0FB0110C0080290C6E740F29C
:105060009850C2F200000790FFE7079808B0704719
:1050700010B584B08C46864607980699ADF80EE0C8
:10508000ADF80CC0ADF80A20ADF80830ADF8061048
:10509000ADF80400BDF80E10BDF8062000209142C6
:1050A00000901CDAFFE7BDF80E10BDF80A200020C2
:1050B0009142009013DDFFE7BDF80C10BDF804200D
:1050C0000020914200900ADAFFE7BDF80C10BDF80D
:1050D000082000209142C8BF01200090FFE70098FF
:1050E00000F0010004B010BD80B582B00020009037
:1050F000019040F21021C2F2000108600120FCF78B
:1051000017FB4FF08050FCF7DDFA0320FFF7E6F9BC
:10511000FFF744F9009A0F21FEF7F0F801464FF02F
:10512000FF30FFF753F9FCF7CDFCFEF79BFFFDF7CF
:1051300067FEFDF773FFFDF7CFFFFEF72BF8FEF7D5
:1051400089F8FDF723F962B64FF4FA70FDF75CFDBC
:10515000FFF7FAFEFFF7EAFEFFF744FEFFE740F233
:10516000A950C2F20000007848B1FFE700F040F813
:1051700040F2A951C2F2000100200870FFE7EEE7FB
:1051800080B540F28400C2F200000078012826D1E8
:10519000FFE740F60000C4F201000821C0F2084118
:1051A000FCF7DEFDD8B9FFE740F2A450C2F20000E0
:1051B000016801310160006842F21171884207D331
:1051C000FFE740F2A451C2F2000100200860FFE7AF
:1051D00040F28401C2F200010020087006E040F2B3
:1051E0008401C2F2000101200870FFE780BD0000C9
:1051F00080B598B040F2B450C2F20000FBF7E8FA74
:1052000040F2B050C2F200000068002840F0B880C0
:10521000FFE740F2B450C2F200000088012840F0DD
:10522000AF80FFE740F28350C2F200000078002810
:1052300040F0A680FFE740F2B051C2F200014FF407
:105240009670086040F2B451C2F200014888898823
:105250006B46E6225A609B221A600F225A23FFF700
:1052600007FF50B3FFE740F28250C2F2000000781F
:1052700018BBFFE740F28250C2F200000078D8B9B4
:10528000FFE743F6B810C0F6010069464860012008
:10529000179008600F205A218C231A46FBF74AFC0E
:1052A000179840F28251C2F20001087040F2835117
:1052B000C2F200010870FFE7FFE740F2B451C2F20A
:1052C0000001488889886B46E6225A604FF49B7239
:1052D0001A60AA225A23FFF7CBFEF0B1FFE740F293
:1052E000C050C2F200000078B0B9FFE743F6BF102B
:1052F000C0F6010069464860012016900860AA20A7
:105300005A218C231A46FBF715FC169840F2C0511F
:10531000C2F200010870FFE7FFE740F2B451C2F2A9
:105320000001488889886B46E6225A6040F2D11213
:105330001A6040F245125A23FFF79AFEF8B1FFE7D0
:1053400040F2A850C2F200000078B8B9FFE743F677
:10535000A010C0F601006946486001201590086061
:1053600040F245105A218C231A46FBF7E3FB1598AF
:1053700040F2A851C2F200010870FFE7FFE7FFE723
:1053800040F2B050C2F200000068A0BBFFE740F25C
:10539000B450C2F20000008801282CD1FFE740F28F
:1053A0008350C2F200000078012824D1FFE740F2C8
:1053B000B051C2F200014FF49670086040F2B4514F
:1053C000C2F20001488889886B463C225A601A6004
:1053D00000231A46FFF74CFE60B1FFE740F283510D
:1053E000C2F200010020087040F28251C2F20001B6
:1053F0000870FFE7FFE740F28350C2F20000007838
:10540000012840F0BA80FFE74FF6FF700D90FBF7E0
:10541000D3F9FBF783F90990FBF78AF9099A7838F1
:1054200083B2002011903C211091FBF751F90D98A7
:10543000FBF7ACF94FF2BE701290FBF7BDF9109973
:1054400011984FF4D2720E9232230C93FBF7C4F8EA
:105450001198FBF7B1F943F66D12C0F60102102066
:105460000A90492103230B93FAF776FF0D98FBF777
:105470008DF91298FBF7A0F90C9B0E9A11986E21EA
:10548000FBF7AAF81198FBF797F90A980B9B43F6DC
:10549000A612C0F601027B21FAF75EFF0D98FBF71A
:1054A00075F91298FBF788F90C9B0E9A1198A021B8
:1054B000FBF792F81198FBF77FF90A980B9B43F6DC
:1054C0008F12C0F60102AD21FAF746FF0D98FBF7E7
:1054D0005DF91298FBF770F90C9B0E9A1198D22186
:1054E000FBF77AF81198FBF767F90D98FBF74EF97F
:1054F0001298FBF761F90E98109AC8230F93114682
:10550000FBF76AF80D98FBF741F91298FBF754F98D
:105510000E980F9B109A1146FBF75EF81298FBF756
:105520004BF9FBF7FBF8109B119902460846FBF775
:10553000CFF842F29842C0F6010240F2A9100521CC
:10554000FAF7A6FF1198FBF737F91298FBF71EF947
:1055500043F6BD12C0F601021A2012211391012355
:105560001493FAF7F9FE1399149B43F67512C0F6DB
:1055700001027820FAF7F0FEFFE740F28350C2F212
:105580000000007800287ED1FFE740F28250C2F28E
:1055900000000078002876D1FFE74FF6FF70FAF799
:1055A00099FE4FF2BE700490FBF706F9FBF7B6F8D0
:1055B0000246002108913C2303930846FBF788F834
:1055C000FBF7B6F83C380290FBF7A8F80299039B6A
:1055D0000246089889B2FBF77BF842F29842C0F67F
:1055E000010240F2A9100521FAF752FF0498FBF7D7
:1055F000CDF80898FBF7E0F843F67F12C0F60102F9
:10560000102012210323FAF7A7FE43F6B310C0F6C9
:105610000100694648600120059008600F205A216A
:1056200006918C2307931A46FBF784FA059806998E
:10563000079B43F6991CC0F6010C6A46C2F804C0E9
:105640001060AA201A46FBF775FA05980699079B81
:10565000089A40F2C05CC2F2000C8CF8002043F6BD
:105660007A1CC0F6010C6A46C2F804C0106040F211
:1056700045101A46FBF75EFA089840F2A851C2F2AC
:1056800000010870FFE740F2A450C2F20000006879
:10569000FFF768FC18B080BD000000AF800000007C
:1056A00000000000000000010203040607080900D2
:1056B00000000001020304000000000000000000E0
:1056C00000000000000000000000000000000000DA
:1056D00000000000000000000000000000000000CA
:1056E00000000000000000000000000000000000BA
:1056F00000000000000000000000000000000000AA
:10570000000000000003800003800003800003808D
:1057100000038000038000038000038000038000FA
:1057200001000001000000000000000003800003F1
:1057300080000000000000000000000000000000E9
:105740000000000000000000000000000000000059
:105750000E70000E70000E70000420000420000483
:1057600020000420000000000000000000000000F5
:105770000000000000000000000000000000000029
:105780000000000000000000000000000000000019
:105790000000000000066000066000066000066071
:1057A000000660003FF8003FF8000660000CC000F3
:1057B0003FF8003FF8000CC0000CC0000CC0000C0B
:1057C000C0000CC00000000000000000000000004D
:1057D00000000000000000000000018000018000C7
:1057E00007B0000FF0001870001870001C00000FC8
:1057F000800007E00000F0001830001C30001C7032
:10580000001FE0001BC0000180000180000180003B
:105810000180000000000000000000000000000007
:1058200000000000000780000FC0001CE0001860AE
:10583000001860001CE0000FF80007E0001FF000F7
:1058400007380006180006180007380003F00001AA
:10585000E000000000000000000000000000000068
:105860000000000000000000000000000000000038
:1058700000000003F00007F0000C60000C00000CBA
:1058800000000600000700000F9C001DFC0018F03F
:10589000001870000FFC0007DC0000000000000092
:1058A00000000000000000000000000000000000F8
:1058B000000000000000000003800003800003805F
:1058C00000010000010000010000010000000000D4
:1058D00000000000000000000000000000000000C8
:1058E00000000000000000000000000000000000B8
:1058F0000000000000000000000000000000180090
:1059000000380000700000F00000E00000E000013E
:10591000C00001C00001C00001C00001C00001C002
:105920000000E00000E0000070000070000038009F
:10593000001800000000000000000000000000004F
:1059400000000000001800001C00000E00000E0007
:1059500000070000070000038000038000038000B0
:105960000380000380000380000700000700000F91
:1059700000000E00001C00001800000000000000E5
:105980000000000000000000000000000001800096
:105990000180000180001DB8001FF80007E000032F
:1059A000C00003C0000660000660000000000000A8
:1059B00000000000000000000000000000000000E7
:1059C00000000000000000000000000000000000D7
:1059D00000000000000000000000000180000180C5
:1059E000000180000180000180003FFC003FFC00BE
:1059F0000180000180000180000180000180000022
:105A00000000000000000000000000000000000096
:105A10000000000000000000000000000000000086
:105A20000000000000000000000000000000000076
:105A30000000000000000000000000000000000066
:105A40000000E00000C00001C000018000018000F3
:105A50000300000300000000000000000000000040
:105A60000000000000000000000000000000000036
:105A7000000000000000000000001FF8001FF800F8
:105A80000000000000000000000000000000000016
:105A90000000000000000000000000000000000006
:105AA00000000000000000000000000000000000F6
:105AB00000000000000000000000000000000000E6
:105AC00000000000000000000000000000000000D6
:105AD0000003C00003C00003C0000000000000007D
