:020000040800F2
:1000000060060020B10100087D02000875020008AA
:10001000790200086D02000891020008000000004B
:100020000000000000000000000000008502000841
:100030007102000800000000810200088902000827
:10004000CB010008CB010008CB010008CB01000860
:10005000CB010008CB010008CB010008CB01000850
:10006000CB010008CB010008CB010008CB01000840
:10007000CB010008CB010008CB010008CB01000830
:10008000CB010008CB010008CB010008CB01000820
:10009000CB010008CB010008CB010008CB01000810
:1000A000CB010008CB010008CB010008CB01000800
:1000B000CB010008CB010008CB010008CB010008F0
:1000C000CB010008CB010008CB010008CB010008E0
:1000D000CB010008CB010008CB010008CB010008D0
:1000E000CB010008CB010008CB010008CB010008C0
:1000F000CB010008CB010008CB010008CB010008B0
:10010000CB010008CB010008CB010008CB0100089F
:10011000CB010008CB010008CB010008CB0100088F
:10012000CB010008CB010008CB010008CB0100087F
:1001300000F002F800F02CF80AA090E8000C8244CD
:100140008344AAF10107DA4501D100F021F8AFF2AA
:10015000090EBAE80F0013F0010F18BFFB1A43F0A5
:100160000103184730070000400700000023002467
:1001700000250026103A28BF78C1FBD8520728BFB7
:1001800030C148BF0B6070471FB51FBD10B510BD13
:1001900000F031F81146FFF7F7FF00F07BF800F0B0
:1001A0004FF803B4FFF7F2FF03BC00F057F800006C
:1001B0000948804709480047FEE7FEE7FEE7FEE7FB
:1001C000FEE7FEE7FEE7FEE7FEE7FEE70448054937
:1001D000054A064B704700008D02000831010008F7
:1001E0006000002060060020600200206002002005
:1001F000704770477047754600F02CF8AE46050012
:100200006946534620F00700854618B020B5FFF731
:10021000DDFFBDE820404FF000064FF000074FF033
:1002200000084FF0000BAC46ACE8C009ACE8C009D0
:10023000ACE8C009ACE8C00921F007018D46704761
:1002400010B50446AFF300802046BDE81040FFF72C
:10025000A8BF000000487047000000200149182096
:10026000ABBEFEE72600020070470000FFE7FEE796
:1002700070470000FFE7FEE7FFE7FEE7FFE7FEE766
:100280007047000070470000704700007047000092
:10029000FFE7FEE780B58CB000200B904FF40771AC
:1002A0000A9140F61C42099208914FF4C3610791EC
:1002B00047F6FF7106910699079A891AC903089AA9
:1002C000099BD21A91FBF2F105910799059A099BB6
:1002D0005A43D31702EB5342A1EBE231049103904E
:1002E0000290FFE70A9805994843C11700EB514176
:1002F000049800EBE13003900398B0F5C36F03DA84
:10030000FFE707980390FFE70398B0F5004F03DB82
:10031000FFE706980390FFE7039800F09FF900229B
:10032000019244F20003C4F25A0300F0AFF9019ABB
:100330004FF6C073C4F2DF0300F036F800F002F8A5
:100340000290CFE721F0004201F00043A2F1605299
:10035000B2F5801F28BFD2F17F6C0BD95FEA001C79
:1003600043EAC20242EB507018BF704728BF20F02A
:1003700001007047B2F5801FBCBF184670474FEAB6
:10038000410C1CF5001F02D2084600F07DBA70B582
:1003900000F026FA00000089FFF7F6BF4FF000409A
:1003A000A0F58000704700002DE9C04130B4DFF8AF
:1003B000A4C23CEA111418BF3CEA131400F0ED800B
:1003C0001CEA111481EA030544EAD57418BF1CEA3B
:1003D000131500F0C880A4EB050404F17F7404F544
:1003E00000344FF0004545EAC12145EAC32341EA04
:1003F000505143EA52534FEAC0204FEAC222994279
:1004000008BF904200F09D804FEA13650FF244163A
:10041000765D4FEA134506FB05F7C7F1807706FBCB
:1004200007F74FEAD737A7FB03687642A7FB06CE4C
:10043000C8F5803838BFA8F1010807FB08E6A6FB1D
:10044000028C4FF0000EE6FB03CEDCF1000CCEF187
:10045000004E38BFAEF1010EA6FB0C584FF000075E
:10046000E6FB0E87A1FB08C6A0FB07CE16EB0E0627
:100470004FF0000545F10005E1FB076515F1E04E81
:100480007EBFA4F580345FEA46066D4116F1800711
:1004900045F100054FEA172747EA05674FEA15259A
:1004A0004FEA0666A6F1DE46B6F1805F20D93846EF
:1004B00005EBC47124F0010C01EB0C11BCF1FE6FD3
:1004C00002D8F0BCBDE8008124425CBF01F5801E6B
:1004D0009EEAC47F02D4F0BCBDE80081244200F152
:1004E0003980A1F1C041F0BCBDE8004100F0C6B9BF
:1004F0004FEAD02040EA41504FEAD1214FEAD222C0
:1005000042EA43524FEAD323A7FB028607FB036666
:1005100005FB02661EEA0E0F58BFA6EB0056B6EBAF
:1005200000564FEA520E4EEAC37E18EB0E0E56EB03
:10053000530EBCD518EB02085E417F1C55F1000537
:10054000B5E74FF480154FF000074FF000064FF06D
:100550000008ACE701F1C04101F000414FF000009C
:10056000F0BCBDE800810CEA131511EA0C1F00D0A5
:100570000CE013EA0C1F00F026804FF0000081EA27
:10058000030101F00041F0BCBDE80081F0BCBDE812
:10059000004181EA030100F071B9F0BCBDE80041FF
:1005A00070B500F01DF900BF097EFC3E00F007B8F1
:1005B0004FF0000081EA030101F00041704781EA39
:1005C000030100F05BB9F0BCBDE8004122494FF0E7
:1005D00000007047FFFDFBF9F7F5F4F2F0EEEDEBEC
:1005E000E9E8E6E4E3E1E0DEDDDBDAD8D7D5D4D331
:1005F000D1D0CFCDCCCBCAC8C7C6C5C4C2C1C0BF7D
:10060000BEBDBCBBBAB9B8B7B6B5B4B3B2B1B0AF82
:10061000AEADACABAAA9A8A8A7A6A5A4A3A3A2A166
:10062000A09F9F9E9D9C9C9B9A9999989797969521
:1006300095949393929191908F8F8E8E8D8C8C8BBD
:100640008B8A898988888787868585848483838245
:10065000828181800000FF070000F87F10F00042D7
:1006600048BF4042B0FA80F310FA03F10AD0C3F158
:100670001D0303F5806302EB03524FEA415002EB86
:10068000D12170474FF000007047000070B5DFF8CF
:1006900048C11CEA111E1EBF1CEA13159EEA0C0F6E
:1006A00095EA0C0F00F06F8081EA03044EEAD47ED5
:1006B000AE4421EA4C1123EA4C1341F4801143F477
:1006C0008013AEF17F7EA1FB024CA0FB03653619BF
:1006D00055EB0C05A1FB034C4CF10003A0FB021CE5
:1006E00016EB0C06654153F10003094218BF46F0B2
:1006F000010613F4007F0BD14FEA03314FEA0530B6
:1007000041EA155140EA165034036FF003020AE043
:100710004FEAC3214FEAC52041EA555140EA5650FD
:10072000F4026FF0020202EB2E4201EB025585EA61
:10073000CE710AD05FEA440C18BF24F0004450F197
:10074000000041F1000120EAD47040F2FE7C6245D5
:1007500000D270BDA84214BF4FF080444FF0404417
:10076000002E08BF0024BEF1806FA8BFA1F1C041D8
:10077000BDE8704080F2828001F1C04101F000418B
:100780004FF0000070470CEA13159EEA0C0F18BFDB
:1007900095EA0C0F06D081EA030E4FF000000EF030
:1007A000004170BD00F01CF88900013E00F007B860
:1007B00000F009B84FEA430C5FEA5C5C08D081EABC
:1007C000030100F05BB84FEA410C5FEA5C5CF6D1D4
:1007D00002494FF0000070470000FF070000F87F5B
:1007E0000EF1020E2EF0030E5EF8046B364205D4B5
:1007F000012A43EB030515F5001F12D8012841EB30
:10080000010C1CF5001F0CD80ED14FEAD17C0CEB6B
:100810004C0C0CF1020C15F5001F08BF4CEBD37CFF
:1008200004E04FF0080C01E04FEAD37C0CEB4C05E0
:1008300026FA05F606F00706B6F1040C06D20EEB12
:10084000860CBDE870404CF0010C6047DFE80CF00E
:10085000090B02024FF00041A1F500214FF000000A
:1008600070BD19461046012851EB010418BFD4F59C
:10087000001484BF002001F0004170BD0808A0F5FD
:1008800000114FEA31017047FF2141EAD050C00505
:1008900070470000A4080008000000206006000067
:0408A0006C010008DF
:0400000508000131BD
:00000001FF
