:020000040800F2
:10000000B0060020D5010008FD3500081D120008CB
:10001000F9350008490500084142000800000000C9
:10002000000000000000000000000000093A000885
:100030006D0600080000000045370008493C000834
:10004000EF010008EF010008EF010008EF010008D0
:10005000EF010008EF010008EF010008EF010008C0
:10006000EF010008EF010008EF010008EF010008B0
:100070000D060008110600081506000841060008D4
:10008000EF010008EF010008EF010008EF01000890
:10009000EF010008EF010008EF010008EF01000880
:1000A000EF010008EF010008EF010008EF01000870
:1000B000EF010008EF010008EF010008EF01000860
:1000C000EF010008EF010008EF010008D93900082E
:1000D000E9390008EF010008EF010008EF0100080E
:1000E000EF010008EF010008EF010008EF01000830
:1000F000EF010008EF010008EF010008EF01000820
:10010000EF010008EF010008EF010008EF0100080F
:10011000EF010008EF010008EF010008EF010008FF
:10012000EF010008EF010008EF010008EF010008EF
:1001300000F002F800F03EF80AA090E8000C8244BB
:100140008344AAF10107DA4501D100F033F8AFF298
:10015000090EBAE80F0013F0010F18BFFB1A43F0A5
:100160000103184788800000A8800000103A24BFCF
:1001700078C878C1FAD8520724BF30C830C144BF0C
:1001800004680C607047000000230024002500264E
:10019000103A28BF78C1FBD8520728BF30C148BFEA
:1001A0000B6070471FB59DE8030000F0EFF81FBD1E
:1001B00010B510BD00F046F91146FFF7F3FF04F04B
:1001C00093FF00F064F903B4FFF7F2FF03BC00F003
:1001D00095F900000948804709480047FEE7FEE717
:1001E000FEE7FEE7FEE7FEE7FEE7FEE7FEE7FEE7E7
:1001F00004480549054A064B70470000213D0008A8
:1002000031010008B0000020B0060020B00200203C
:10021000B002002070B5064600F09CF8056806F1B3
:100220000B0020F00704B4429CBF002070BD2B4699
:100230006A68BAB11068A04210D304F1080188427C
:100240003CBF5068586007D351681019416011686D
:10025000091B016058601460101D70BD1346526880
:10026000002AE7D12146284600F07CF80028DED19C
:1002700070BD70B50446051F00F06CF80068002CD6
:1002800014BF446870BD002C18BFAC423CBF204670
:100290006468F8D301680A18AA4218BF456003D100
:1002A0002A6805461144016028684119A1421CBF13
:1002B0006C6070BD6168696021680844286070BD29
:1002C00010B5431C02E010F8011B71B18107FAD18F
:1002D0004FF0013202C88C1A8C4314EAC211F9D0D3
:1002E000C01A0A0603D0C01E10BDC01A10BD0A04F1
:1002F00001D0801E10BD0902FCD0401E10BD4FF081
:10030000000200B5134694469646203922BFA0E865
:100310000C50A0E80C50B1F12001BFF4F7AF090771
:1003200028BFA0E80C5048BF0CC05DF804EB890062
:1003300028BF40F8042B08BF704748BF20F8022BA5
:1003400011F0804F18BF00F8012B704770477047BD
:100350007047000000487047200000207047704739
:100360007047704738B504460A4600206946AFF327
:100370000080002808BF38BD02460099204600F0E2
:100380003FF8012038BD012000F054B8F8B5AFF3B4
:100390000080054600200C46102000BF0646A81924
:1003A000A0420DD9324669460020AFF30080070015
:1003B00008BF00F03FF80098A04218BF0546C419D6
:1003C000FFF7C8FF05600746F01D20F0070046193B
:1003D000284600F00AF8B44208BFF8BDA21B314617
:1003E0003868BDE8F84000F00BB800210160C0E9B2
:1003F0000110704710207047004870471800002017
:10040000034640688C46002818BF88423CBF03461C
:100410004068F8D318681844884207D00CF10300EC
:1004200020F00700001D411A521A0146081D0A60FB
:10043000FFF71FBF10B500F039F8BDE8104000F01D
:100440002FB870477546FFF7D7FFAE4605006946DF
:10045000534620F00700854618B020B5FFF7C8FEC8
:10046000BDE820404FF000064FF000074FF00008B5
:100470004FF0000BAC46ACE8C009ACE8C009ACE8F2
:10048000C009ACE8C00921F007018D46704710B5DE
:100490000446AFF300802046BDE81040FFF793BE4E
:1004A000002801D000F02AB87047000010B50128DC
:1004B00005D0002103A000F027F8012010BD09A1FC
:1004C000F8E7000053494752544D454D3A204F75C7
:1004D00074206F662068656170206D656D6F72793C
:1004E000000000003A2048656170206D656D6F72F4
:1004F0007920636F72727570746564000149182009
:10050000ABBEFEE72600020070B505460C460A2089
:1005100000E06D1C00F011F835B128780028F8D102
:1005200002E0641C00F009F814B120780028F8D12A
:10053000BDE870400A20AFF3008008B569468DF829
:1005400000000320ABBE08BDFFE7FEE780B58AB020
:1005500047F2EE40C0F6000000F08AF8694600203D
:100560000590886010200490486047F28150C0F6E2
:10057000000008600A2007901E211F2208924FF6F3
:10058000E073099303F042FA04990798089A099BCB
:10059000DDF814E0EC46CCF808E0CCF8041047F2A3
:1005A0009F41C0F60001CCF80010322103F02EFA72
:1005B0000798089A099BEC4601210691CCF808108F
:1005C0001821CCF8041047F20151C0F60001CCF814
:1005D0000010462103F01AFA06990798089A099B19
:1005E000EC46CCF808102021CCF8041047F25D51FD
:1005F000C0F60001CCF80010642103F007FA4FF4B4
:10060000966002F0FDFC0AB080BD0000704700005B
:100610007047000080B582B005F050F801900020CE
:10062000C4F20200009001F063FA009801F070FA41
:10063000009801F07DFA009801F08AFA02B080BDBE
:1006400080B582B005F03AF801900020C4F20200B3
:10065000009001F055FA009801F062FA009801F05C
:100660006FFA009801F07CFA02B080BD704700007C
:1006700010B58AB009904FF6FF70079000F0D0FDDA
:1006800040F29600C2F200000490028869461F20E2
:1006900008900860002106911423084600F0F8FE37
:1006A000049A0698DDF820C05388A3F1140112883B
:1006B000EE46CEF800C089B200F0EAFE0698079A2E
:1006C000089B40F27801C2F200010A800999EC46C9
:1006D0000124CCF808404FF0100ECDF814E0CCF80F
:1006E00004E0CCF80010022100F058FD0499DDF878
:1006F00014C00698079A089B49881239EE46CEF82E
:100700000840CEF804C047F2804CC0F6000CCEF88A
:1007100000C089B200F042FD0AB010BD10B584B02F
:100720008C46864607980699ADF80EE0ADF80CC0E9
:10073000ADF80A20ADF80830ADF80610ADF80400A9
:10074000BDF80E00BDF80C10BDF80A20BDF8083049
:1007500000F0C6FDBDF80A00BDF80810BDF806207F
:10076000BDF8043000F0BCFDBDF80600BDF8041073
:10077000BDF80E20BDF80C3000F0B2FD04B010BD85
:1007800080B58AB047F2DB40C0F60000FFF770FF8B
:1007900069460020099088600C200390486047F269
:1007A0002940C0F6000008600A2006901E211F2282
:1007B00007924FF6E073089303F028F9039906981F
:1007C000079A089BEC464FF0010ECDF810E0CCF8EC
:1007D00008E0CCF8041047F2D531C0F60001CCF89F
:1007E00000102D2103F012F903990698079A089B2F
:1007F000DDF824E0EC46CCF808E0CCF8041047F231
:100800003831C0F60001CCF800103C2103F0FEF8AE
:1008100009990698079A089BEC46CCF80810102115
:100820000591CCF8041047F25341C0F60001CCF812
:100830000010502103F0EAF805990698079A089BE2
:10084000DDF810E0EC46CCF808E0CCF8041047F2F4
:10085000FF31C0F60001CCF80010642103F0D6F897
:1008600005990698079A089BDDF824E0EC46CCF839
:1008700008E0CCF8041047F25631C0F60001CCF87D
:100880000010782103F0C2F84FF4966002F0B8FB34
:100890000AB080BD10B58EB08C468646119810996E
:1008A000ADF836E0ADF834C0ADF83220ADF83030F8
:1008B000ADF82E10ADF82C00002002900190BDF88C
:1008C0003400BDF8301088420BDDFFE70DA80CA9FD
:1008D00003F0F2FD0DF136000DF1320103F0ECFDF5
:1008E000FFE7BDF83000BDF82C1088420BDDFFE7B4
:1008F0000BA80CA903F0E0FD0DF12E000DF1320163
:1009000003F0DAFDFFE7BDF83400BDF8301088428F
:100910000BDDFFE70DA80CA903F0CEFD0DF13600AD
:100920000DF1320103F0C8FDFFE7BDF83400BDF85A
:100930002C1088424AD1FFE7BDF83600ADF82800F8
:10094000ADF82A00BDF83200BDF82A10884205DA59
:10095000FFE7BDF83200ADF82A000CE0BDF8320028
:10096000BDF82810884205DDFFE7BDF83200ADF87C
:100970002800FFE7FFE7BDF82E00BDF82A108842E7
:1009800005DAFFE7BDF82E00ADF82A000CE0BDF84F
:100990002E00BDF82810884205DDFFE7BDF82E00C7
:1009A000ADF82800FFE7FFE7BDF82A00BDF83430B6
:1009B000BDF8282040F27801C2F200010988EC4617
:1009C000CCF80010194600F063FDD7E0BDF8320006
:1009D000BDF83610401A0890BDF83000BDF834104C
:1009E000401A0790BDF82E00BDF83610401A069048
:1009F000BDF82C00BDF83410401A0590BDF82E004B
:100A0000BDF83210401A0490BDF82C00BDF830102B
:100A1000401A0390BDF83000BDF82C10884205D173
:100A2000FFE7BDF83000ADF8240005E0BDF8300068
:100A30000138ADF82400FFE7BDF83400ADF826001A
:100A4000FFE7BDF82600BDF8241088423FDCFFE731
:100A5000BDF836000299079A91FBF2F10844ADF80F
:100A60002A00BDF836000199059A91FBF2F108447D
:100A7000ADF8280008990298084402900699019858
:100A800008440190BDF82A00BDF82810884206DD10
:100A9000FFE70DF12A000AA903F00EFDFFE7BDF8FC
:100AA0002A00BDF82630BDF8282040F27801C2F2B5
:100AB00000010988EC46CCF80010194600F0E8FC6B
:100AC000FFE7BDF826000130ADF82600B9E704982D
:100AD000BDF82610BDF83020891A484302900698C8
:100AE000BDF82610BDF83420891A48430190FFE76D
:100AF000BDF82600BDF82C1088423FDCFFE7BDF8AA
:100B000032000299039A91FBF2F10844ADF82A00F1
:100B1000BDF836000199059A91FBF2F10844ADF851
:100B20002800049902980844029006990198084404
:100B30000190BDF82A00BDF82810884206DDFFE7C5
:100B40000DF12A000AA903F0B7FCFFE7BDF82A005F
:100B5000BDF82630BDF8282040F27801C2F200012D
:100B60000988EC46CCF80010194600F091FCFFE72C
:100B7000BDF826000130ADF82600B9E70EB010BD73
:100B800080B586B084460998DDF820E0ADF816C03F
:100B9000ADF81410ADF81220ADF810308DF80F003C
:100BA000BDF81600ADF806003E20ADF808000020A4
:100BB000ADF80A00FFE7BDF80A00BDF8081088424A
:100BC00080F2B580FFE7BDF80A0000EB001147F2A4
:100BD000A250C0F6000010F8110008990978884268
:100BE00040F09E80FFE7BDF80A0000EB001147F2DD
:100BF000A250C0F6000000EB410040780899497807
:100C0000884240F08D80FFE7BDF81600BDF8141053
:100C100000F10F0201F10F0392B29BB200F0A8FCA9
:100C200000208DF80E00FFE79DF80E001F2876DCEF
:100C3000FFE700208DF80D00FFE79DF80D00072865
:100C400066DCFFE79DF80F0000BBFFE7BDF80A0078
:100C500000EB001147F2A250C0F6000000EB41008B
:100C60009DF80E10084480789DF80D208021D14019
:100C7000084205D0FFE7BDF8120002F0E7F904E0F2
:100C8000BDF8100002F0E2F9FFE73AE0BDF812000B
:100C900040F27801C2F200010880BDF80A0000EBC2
:100CA000001147F2A250C0F6000000EB41009DF891
:100CB0000E10084480789DF80D108840000600282A
:100CC00007D5FFE7BDF81600BDF8141000F09AFB39
:100CD000FFE7BDF816000130ADF81600BDF81600AC
:100CE000BDF80610401A10280AD1FFE7BDF806002B
:100CF000ADF81600BDF814000130ADF8140007E09F
:100D0000FFE7FFE79DF80D0001308DF80D0094E737
:100D1000FFE79DF80E0001308DF80E0084E7FFE735
:100D2000FFE7BDF80A000130ADF80A0043E740F2E2
:100D30009600C2F2000001880139408801388AB269
:100D400083B20021084600F013FC06B080BD00000D
:100D500080B586B084460998DDF820E0ADF816C06D
:100D6000ADF81410ADF81220ADF810308DF80F006A
:100D7000BDF81600ADF806000720ADF80800002009
:100D8000ADF80A00FFE7BDF80A00BDF80810884278
:100D900080F2B180FFE7BDF80A004A21414347F6DF
:100DA000DE50C0F60000405C08990978884240F0A7
:100DB0009B80FFE7BDF80A0047F6DE52C0F600024E
:100DC0004A2100FB0120407808994978884240F088
:100DD0008B80FFE7BDF81600BDF8141000F1170274
:100DE00001F1170392B29BB200F0C2FB00208DF814
:100DF0000E00FFE79DF80E00472874DCFFE7002097
:100E00008DF80D00FFE79DF80D00072864DCFFE773
:100E10009DF80F00F8B9FFE7BDF80A0047F6DE526B
:100E2000C0F600024A2100FB01209DF80E10084484
:100E300080789DF80D208021D140084205D0FFE741
:100E4000BDF8120002F002F904E0BDF8100002F053
:100E5000FDF8FFE739E0BDF8120040F27801C2F278
:100E600000010880BDF80A0047F6DE52C0F6000215
:100E70004A2100FB01209DF80E10084480789DF85F
:100E80000D1088400006002807D5FFE7BDF81600C2
:100E9000BDF8141000F0B6FAFFE7BDF816000130F7
:100EA000ADF81600BDF81600BDF80610401A182857
:100EB0000AD1FFE7BDF80600ADF81600BDF8140032
:100EC0000130ADF8140007E0FFE7FFE79DF80D00E3
:100ED00001308DF80D0096E7FFE79DF80E00013018
:100EE0008DF80E0086E7FFE7FFE7BDF80A00013046
:100EF000ADF80A0047E740F29600C2F20000018810
:100F00000139408801388AB283B20021084600F0D6
:100F10002FFB06B080BD000080B586B084460998DE
:100F2000DDF820E0ADF816C0ADF81410ADF81220D1
:100F3000ADF810308DF80F00BDF81600ADF80600C2
:100F40000420ADF808000020ADF80A00FFE7BDF866
:100F50000A00BDF80810884280F2B580FFE7BDF8AE
:100F60000A0000EB801147F6E470C0F6000010F8AC
:100F7000110008990978884240F09E80FFE7BDF88B
:100F80000A0000EB801147F6E470C0F6000000EBA9
:100F90004100407808994978884240F08D80FFE709
:100FA000BDF81600BDF8141000F11F0201F11F0377
:100FB00092B29BB200F0DCFA00208DF80E00FFE741
:100FC0009DF80E007F2876DCFFE700208DF80D00ED
:100FD000FFE79DF80D00072866DCFFE79DF80F008E
:100FE00000BBFFE7BDF80A0000EB801147F6E47094
:100FF000C0F6000000EB41009DF80E100844807818
:101000009DF80D208021D140084205D0FFE7BDF8B2
:10101000120002F01BF804E0BDF8100002F016F810
:10102000FFE73AE0BDF8120040F27801C2F2000199
:101030000880BDF80A0000EB801147F6E470C0F6A6
:10104000000000EB41009DF80E10084480789DF8E8
:101050000D1088400006002807D5FFE7BDF81600F0
:10106000BDF8141000F0CEF9FFE7BDF8160001300E
:10107000ADF81600BDF81600BDF80610401A20287D
:101080000AD1FFE7BDF80600ADF81600BDF8140060
:101090000130ADF8140007E0FFE7FFE79DF80D0011
:1010A00001308DF80D0094E7FFE79DF80E00013048
:1010B0008DF80E0084E7FFE7FFE7BDF80A00013076
:1010C000ADF80A0043E740F29600C2F20000018842
:1010D0000139408801388AB283B20021084600F005
:1010E00047FA06B080BD000080B582B0ADF80600BA
:1010F000ADF80410ADF80220BDF80600BDF80410EC
:1011000000F026FABDF8020001F0A0FF02B080BD99
:1011100080B584B0ADF80E00ADF80C100292BDF8A9
:101120000E00BDF80C1000F1270201F1270392B266
:101130009BB200F01DFA00200190FFE70198B0F586
:10114000C86F1ADAFFE70298019910F811008DF8BC
:1011500002000298019900EB410040788DF80300ED
:101160009DF803109DF8020040EA012001F06EFF97
:10117000FFE7019801300190E0E740F29600C2F2EB
:10118000000001880139408801388AB283B2002109
:10119000084600F0EDF904B080BD0000B0B588B09D
:1011A0008C4686460E980D990C9CADF81EE0ADF865
:1011B0001CC0ADF81A20ADF818308DF817108DF856
:1011C00016000C98FFF77CF8ADF8140040F296007A
:1011D000C2F200000088BDF81410A0EBC10000EBC3
:1011E000D0704008ADF81200BDF81200BDF81C1018
:1011F000BDF81A20BDF81830DDF830C09DF8174052
:101200009DF81650EE46CEF80850CEF80440CEF8C1
:1012100000C002F0FBFB08B0B0BD0000FFE7FEE736
:1012200080B584B0ADF80E0040F29600C2F2000026
:1012300001880139408801388AB283B200210091C7
:10124000084600F095F900980290FFE7029840F2F6
:101250009601C2F20001498888421AD2FFE70020B5
:101260000190FFE7019840F29601C2F2000109885F
:10127000884209D2FFE7BDF80E0001F0E7FEFFE764
:10128000019801300190EDE7FFE7029801300290EC
:10129000DCE70021084600F0E9FA04B080BD000058
:1012A00080B584B0ADF80E00ADF80C10ADF80A2092
:1012B000ADF80830BDF80E00BDF80C10BDF80A20DE
:1012C000BDF8083040F2780CC2F2000CBCF800C047
:1012D000EE46CEF800C000F0DBF804B080BD0000A0
:1012E00080B58CB0ADF82E00ADF82C10ADF82A20EA
:1012F000ADF82830002008900790BDF82A00BDF80E
:101300002E10401A0690BDF82800BDF82C10401A87
:101310000590BDF82E000190BDF82C0000900698B5
:10132000012803DBFFE7012003900DE0069818B9C0
:10133000FFE70020039006E04FF0FF30039006988F
:1013400040420690FFE7FFE70598012803DBFFE72F
:10135000012002900DE0059818B9FFE700200290E7
:1013600006E04FF0FF300290059840420590FFE7FD
:10137000FFE706980599884203DDFFE70698049089
:1013800002E005980490FFE70020ADF82600FFE793
:10139000BDF8260004990131884231DCFFE7BDF831
:1013A0000400BDF8001000F02DF8069908980844D4
:1013B000089005990798084407900898049988426E
:1013C00009DDFFE704990898401A089003990198ED
:1013D00008440190FFE707980499884209DDFFE778
:1013E00004990798401A07900299009808440090C1
:1013F000FFE7FFE7BDF826000130ADF82600C7E79C
:101400000CB080BD80B582B0ADF80600ADF8041018
:10141000BDF80600BDF8041000F09AF840F278001C
:10142000C2F20000008801F011FE02B080BD000091
:1014300080B582B0ADF80600ADF80410ADF802201A
:10144000ADF80030BDF80600BDF80430BDF802204C
:101450001946FFF745FFBDF80620BDF80410BDF89A
:1014600000301046FFF73CFFBDF80600BDF8003025
:10147000BDF802201946FFF733FFBDF80220BDF882
:101480000410BDF800301046FFF72AFF02B080BDFF
:1014900080B586B084460898ADF816C0ADF8141033
:1014A000ADF81220ADF81030ADF80E00BDF8120006
:1014B000BDF81610401A0130ADF80800BDF8100054
:1014C000BDF81410401A0130ADF80600BDF8160042
:1014D000BDF81410BDF81220BDF8103000F048F827
:1014E0000020ADF80C00FFE7BDF80C00BDF80610B9
:1014F00088421DDAFFE70020ADF80A00FFE7BDF8DB
:101500000A00BDF8081088420BDAFFE7BDF80E00AC
:1015100001F09CFDFFE7BDF80A000130ADF80A00BC
:10152000EDE7FFE7BDF80C000130ADF80C00DBE79C
:1015300040F29600C2F2000001880139408801386B
:101540008AB283B20021084600F012F806B080BDCE
:1015500080B582B0ADF80600ADF80410BDF80620E5
:10156000BDF804301046194600F002F802B080BD04
:1015700080B584B0ADF80E00ADF80C10ADF80A20BF
:10158000ADF8083040F29600C2F200000090807A78
:101590000121019100F06AF901999DF80F0000F016
:1015A00045F901999DF80E0000F040F901999DF868
:1015B0000B0000F03BF901999DF80A0000F036F9A4
:1015C00000980199007B00F051F901999DF80D00F8
:1015D00000F02CF901999DF80C0000F027F9019911
:1015E0009DF8090000F022F901999DF8080000F02B
:1015F0001DF900F05BF90021084600F037F904B04E
:1016000080BD0000B0B584B094468E4604460A986A
:101610000999089AADF80E40ADF80CE0ADF80AC093
:10162000ADF808308DF807208DF806108DF805000C
:1016300040F27800C2F200000088ADF800009DF88A
:10164000070020388DF80700BDF80E00BDF80C101B
:101650009DF8063000EB5302013A0B44013B92B275
:101660009BB2FFF785FF9DF8050000285DD1FFE7DD
:1016700000208DF80300FFE79DF803009DF8061099
:10168000884251DAFFE79DF806000C2810D1FFE7E9
:101690009DF8070000EB400145F66230C0F60000FF
:1016A00000EB81009DF80310405C8DF804000DE014
:1016B0009DF8071045F6D670C0F6000000EB01104B
:1016C0009DF80310405C8DF80400FFE700208DF8C2
:1016D0000200FFE79DF802009DF80610B0EB510FE5
:1016E0001BDAFFE79DF80400C00728B1FFE7BDF84B
:1016F0000A0001F0ABFC04E0BDF8080001F0A6FC14
:10170000FFE79DF8040040088DF80400FFE79DF80E
:10171000020001308DF80200DCE7FFE79DF80300CE
:1017200001308DF80300A7E768E000208DF8030082
:10173000FFE79DF803009DF8061088425DDAFFE799
:101740009DF806000C2810D1FFE79DF8070000EB7C
:10175000400145F66230C0F6000000EB81009DF8C4
:101760000310405C8DF804000DE09DF8071045F66D
:10177000D670C0F6000000EB01109DF80310405C2D
:101780008DF80400FFE700208DF80200FFE79DF8C8
:1017900002009DF80610B0EB510F27DAFFE7BDF805
:1017A0000A0040F27801C2F2000108809DF80400AE
:1017B000C00778B1FFE7BDF80E009DF8021008449D
:1017C000BDF80C109DF80320114480B289B2FFF7D8
:1017D00019FEFFE79DF8040040088DF80400FFE7BC
:1017E0009DF8020001308DF80200D0E7FFE79DF878
:1017F000030001308DF803009BE7FFE7BDF8000010
:1018000040F27801C2F20001088040F29600C2F274
:10181000000001880139408801388AB283B2002172
:101820000846FFF7A5FE04B0B0BD000080B584B047
:101830008DF80F008DF80E100DF10F0002900020B2
:101840008DF804009DF80E006946086001A8012388
:1018500019461A4603F04EFDFFE79DF804000228E2
:1018600001D0FFE7F9E704B080BD000080B584B087
:101870008DF80F008DF80E100DF10F000290002072
:101880008DF804009DF80E006946086001A8022248
:101890000123194603F02EFDFFE79DF804000228FE
:1018A00001D0FFE7F9E704B080BD000080B540F249
:1018B0009600C2F20000007A0021FFF7D7FF80BD3A
:1018C00080B582B08DF80700ADF804109DF80700D0
:1018D0000121FFF7CBFF9DF804000021FFF7A6FFD1
:1018E00002B080BD80B582B08DF8070040F296014D
:1018F000C2F200012A2048812B2088812C200881F7
:101900009DF8070001460091032840D80099DFE8C0
:1019100001F00211202F40F29601C2F200014FF4B3
:10192000A07008804FF4F070488036204821FFF7FF
:10193000C7FF2DE040F29601C2F200014FF4F070B3
:1019400008804FF4A070488036202821FFF7B8FFA8
:101950001EE040F29601C2F200014FF4A070088030
:101960004FF4F070488036208821FFF7A9FF0FE080
:1019700040F29601C2F200014FF4F07008804FF47B
:10198000A07048803620E821FFF79AFF00E0FFE7CB
:1019900002B080BD82B00190019A41F21400C4F2FD
:1019A000020001681143016000680199084000903D
:1019B000009802B07047000082B00190019A41F295
:1019C0001C00C4F202000168114301600068019923
:1019D00008400090009802B07047000082B001906B
:1019E000019A41F21C00C4F2020001681143016037
:1019F0000068019908400090009802B0704700000C
:101A000081B00090009A41F21001C4F2020108680E
:101A10001043086001B0704781B00090009A41F215
:101A20001001C4F2020108689043086001B07047D9
:101A300082B00190019A41F21800C4F202000168DC
:101A4000114301600068019908400090009802B0BD
:101A50007047000082B00190019A41F21800C4F270
:101A6000020001681143016000680199084000907C
:101A7000009802B07047000082B00190019A41F2D4
:101A80001800C4F202000168114301600068019966
:101A900008400090009802B07047000082B00190AA
:101AA000019A41F21800C4F202000168114301607A
:101AB0000068019908400090009802B0704700004B
:101AC00081B00090009A41F20C01C4F20201086852
:101AD0001043086001B0704781B00090009A41F255
:101AE0000C01C4F2020108689043086001B070471D
:101AF00081B0009000994FF48050486001B0704769
:101B000081B0009000994FF48030486001B0704778
:101B100081B0009000994FF48040486001B0704758
:101B200081B0009000994FF48020486001B0704768
:101B300081B0009000994FF40050486001B07047A8
:101B400081B0009000994FF40030486001B07047B8
:101B500081B0009000994FF40040486001B0704798
:101B600081B0009000994FF40020486001B07047A8
:101B700083B00290019100920298019945F65B337F
:101B8000C0F60003194411F8011C405847F6F071E3
:101B90008843009908430299019A1A4412F8012CCB
:101BA000885003B07047000082B001900091019905
:101BB000009845F65B32C0F60002104410F8012C84
:101BC000885820F00100885002B0704782B0019020
:101BD00000910199009845F65B32C0F6000210446E
:101BE00010F8012C885820F00400885002B070478B
:101BF00082B0019000910199009845F65B32C0F6E1
:101C00000002104410F8012C885820F0020088507F
:101C100002B0704782B0019000910199009845F69A
:101C20005B32C0F60002104410F8012C885820F0F6
:101C30000800885002B0704782B00190009101996D
:101C4000009845F65B32C0F60002104410F8012CF3
:101C5000885840F00100885002B0704782B001906F
:101C600000910199009845F65B32C0F600021044DD
:101C700010F8012C885840F00200885002B07047DC
:101C800082B0019000910199009845F65B32C0F650
:101C90000002104410F8012C885840F008008850C9
:101CA00002B0704783B002900191009202980199AE
:101CB00045F65433C0F60003194411F8011C40588E
:101CC00020F44050009908430299019A1A4412F8EE
:101CD000012C885003B0704783B0029001910092AC
:101CE0000298019945F65B33C0F60003194411F8D8
:101CF000011C084440684FF6FF718843009908436F
:101D00000299019A1A4412F8012C1144486003B058
:101D10007047000083B002900191009202980199EF
:101D200045F65433C0F60003194411F8011C40581D
:101D300044F210018843009908430299019A1A4419
:101D400012F8012C885003B07047000083B0029055
:101D50000191009200980299019A45F65B33C0F612
:101D600000031A4412F8012C1144C86003B07047F4
:101D700083B00290019100920298019945F6543384
:101D8000C0F60003194411F8011C405820F08000EF
:101D9000009908430299019A1A4412F8012C8850BC
:101DA00003B0704783B002900191009202980199AC
:101DB00045F65433C0F60003194411F8011C40588D
:101DC00020F44060009908430299019A1A4412F8DD
:101DD000012C885003B0704783B0029001910092AB
:101DE0000298019945F65433C0F60003194411F8DE
:101DF000011C405820F02000009908430299019AE4
:101E00001A4412F8012C885003B0704783B0029036
:101E10000191009200980299019A45F65B33C0F651
:101E200000031A4412F8012C1144886003B0704773
:101E300083B00290019100920298019945F65433C3
:101E4000C0F60003194411F8011C405820F040006E
:101E5000009908430299019A1A4412F8012C8850FB
:101E600003B0704783B002900191009202980199EB
:101E700045F65433C0F60003194411F8011C4058CC
:101E800020F44070009908430299019A1A4412F80C
:101E9000012C885003B0704781B00090009A40F246
:101EA0000441C4F2010108689043086001B0704722
:101EB00081B00090009A40F20C41C4F20101086820
:101EC0009043086001B0704781B00090009A40F2E2
:101ED0000041C4F2010108689043086001B07047F6
:101EE00081B00090009A40F20841C4F201010868F4
:101EF0009043086001B0704781B00090009A40F2B2
:101F00000441C4F2010108681043086001B0704741
:101F100081B00090009A40F20C41C4F201010868BF
:101F20001043086001B0704781B00090009A40F201
:101F30000041C4F2010108681043086001B0704715
:101F400081B00090009A40F20841C4F20101086893
:101F50001043086001B0704780B584B00390002042
:101F60008DF80B0003984088C00808B9FFE707E028
:101F700047F27E20C0F600006E2102F0AFFAFFE7C4
:101F80000398007928B1FFE703980079012801D16F
:101F9000FFE707E047F27E20C0F600006F2102F065
:101FA0009DFAFFE70398407950B1FFE70398407925
:101FB000012805D0FFE703984079022801D1FFE707
:101FC00007E047F27E20C0F60000702102F086FA9A
:101FD000FFE703980079002800F08480FFE703986A
:101FE000807978B1FFE70398807901280AD0FFE76C
:101FF00003988079022805D0FFE7039880790328A9
:1020000001D1FFE707E047F27E20C0F6000075210E
:1020100002F064FAFFE703980068002861D0FFE748
:10202000039840790146019140B1FFE701980128EA
:102030000DD0FFE70198022812D01AE0039800683B
:10204000FFF72AFF03980068FFF76EFF15E003987B
:102050000068FFF739FF03980068FFF74DFF0CE0B9
:1020600003980068FFF760FF03980068FFF744FFDC
:1020700003E001208DF80B00FFE70398807978B327
:10208000FFE70398807901460091012808D0FFE717
:10209000009802280DD0FFE70098032812D01AE01C
:1020A00003980068FFF704FF03980068FFF748FFF4
:1020B00015E003980068FFF713FF03980068FFF727
:1020C00027FF0CE003980068FFF73AFF03980068C9
:1020D000FFF71EFF03E001208DF80B00FFE7FFE78D
:1020E000FFE708E003980068FFF7EEFE039800683A
:1020F000FFF7D2FEFFE79DF80B0004B080BD0000A3
:1021000042F20000C4F20200006800F007007047CD
:1021100081B0009042F20001C4F20201086820F090
:102120000700009A1043086001B070470421C4F210
:102130000101086820F0E0600860086840F0007065
:102140000860704782B0019000919DF8000008215E
:10215000C4F2010151F82000009A4FEA124C20EA23
:102160001240019B9CFAACFCBCFA8CFC03FA0CF309
:102170001843D2B241F8220002B0704780B586B051
:1021800005900491059840F60001C4F201018842CF
:1021900030D0FFE7059840F60041C4F201018842C3
:1021A00028D0FFE7059841F20001C4F201018842FE
:1021B00020D0FFE7059841F20041C4F201018842B6
:1021C00018D0FFE7059841F60001C4F201018842EA
:1021D00010D0FFE7059841F60041C4F201018842A2
:1021E00008D0FFE7059842F20001C4F201018842DD
:1021F00001D1FFE707E047F24620C0F60000A32127
:1022000002F06CF9FFE7049800686FF07B41084228
:1022100007D0FFE70498C07810F0FB0F01D1FFE76B
:1022200007E047F24620C0F60000A42102F056F96C
:10223000FFE704980068C0F30F200390039890FA1A
:10224000A0F0B0FA80F00290FFE703980299C8402E
:10225000002800F0A880FFE703980299C840C00753
:10226000002800F09C80FFE70298072806D8FFE7C7
:10227000029940F201108840019009E00298A0F113
:1022800008014FF00110884040F080600190FFE7A6
:1022900004984068082819D1FFE70498006928B11C
:1022A000FFE704980069012801D1FFE707E047F242
:1022B0004620C0F60000BF2102F010F9FFE70598A4
:1022C0000199049A126900F0F1F8FFE70498406858
:1022D000A0B1FFE70498406804280FD0FFE70498F6
:1022E000406808280AD0FFE704984068012805D014
:1022F000FFE704984068092801D1FFE707E047F2AB
:102300004620C0F60000C62102F0E8F8FFE7059875
:102310000199049A526800F095F8049840680128E1
:1023200005D0FFE704984068092837D1FFE70498F3
:10233000806802280AD0FFE704988068012805D049
:10234000FFE704988068032801D1FFE707E047F220
:102350004620C0F60000CE2102F0C0F8FFE7049846
:10236000C06828B1FFE70498C068042801D1FFE7DE
:1023700007E047F24620C0F60000CF2102F0AEF899
:10238000FFE705980199049A926800F0A5F805986E
:102390000199049AD26800F06FF8FFE7FFE702980E
:1023A0000130029051E7002006B080BD82B001905C
:1023B0000091BDF801000199486102B0704700002A
:1023C00082B001900091BDF801000199486102B00E
:1023D0007047000082B001900091BDF801000199A2
:1023E000086102B07047000082B001900091BDF812
:1023F00001000199086102B07047000082B00190AD
:102400000091BDF801000199086102B07047000019
:1024100084B003900291019203989DF80B10084438
:10242000009000990868029A92FAA2F2B2FA82F237
:1024300093000F229A409043019A9A4010430860FB
:1024400004B0704784B003900291019203989DF804
:102450000B100844009000990868029A92FAA2F2C0
:10246000B2FA82F293000F229A409043019A9A4066
:102470001043086004B0704784B003900291019249
:1024800003989DF80B100844009000990868029A80
:1024900092FAA2F2B2FA82F2930004229A40904396
:1024A000019A9A401043086004B0704783B00290CC
:1024B000019100920298C06801990A0A20EA11204D
:1024C000009992FAA2F2B2FA82F29140084302997C
:1024D000C86003B07047000084B00390029101927D
:1024E00003989DF80B100844009000990868029A20
:1024F00092FAA2F2B2FA82F2930003229A40904337
:10250000019A9A401043086004B0704781B000906F
:1025100000996FF07B400860009904204860009AA1
:10252000022191600099C86000990020086101B003
:102530007047000084B0039002910398C068019036
:10254000BDF809000090019A009802EA000190434A
:1025500040EA01400399086104B0704780B582B039
:10256000019001984FF47A7100F002F802B080BD3A
:1025700082B00190009101980099B0FBF1F0013810
:102580004EF21401CEF2000108604EF21801CEF2B4
:102590000001002008604EF21001CEF2000105207B
:1025A000086002B07047000047F20001C4F2000169
:1025B000086840F4807008607047000041F2200114
:1025C000C4F20201086840F400400860704700004F
:1025D00041F20400C4F20200006800F0F00070470D
:1025E00041F20400C4F20200006800F4E0607047A9
:1025F00041F20400C4F20200006800F46050704729
:1026000041F20400C4F20200006800F00C007047C0
:1026100041F20400C4F20200006800F00C007047B0
:1026200080B582B0019001F01FF90199086001980E
:10263000006801F0E1F8019948600198406801F0F4
:10264000EFF8019988600198406801F0FBF8019962
:10265000C86002B080BD000041F20001C4F2020176
:10266000086840F4803008607047000041F20000C4
:10267000C4F202000068C0F34040704782B001908D
:10268000009141F20401C4F20201086820F47C10B8
:10269000019A02F44032009B1A431043086002B0D2
:1026A0007047000041F20001C4F20201086840F0E6
:1026B000807008607047000041F20400C4F202001C
:1026C000006800F48030704741F20400C4F2020058
:1026D000006800F47010704741F20400C4F2020078
:1026E0000068C0F34040704741F20000C4F20200AD
:1026F0000068C0F34060704781B0009041F204016F
:10270000C4F20201086820F0F000009A104308604B
:1027100001B0704781B0009041F20401C4F202019F
:10272000086820F4E060009A1043086001B0704728
:1027300081B0009041F20401C4F20201086820F463
:102740006050009A1043086001B0704781B000905B
:1027500041F20401C4F20201086820F00300009A6B
:102760001043086001B0704781B0009000980C30B1
:1027700001B0704780B586B0059001208DF8130038
:10278000059843F20001C4F20101884210D0FFE72E
:10279000059843F60001C4F20001884208D0FFE723
:1027A000059843F60041C4F20001884201D1FFE7D9
:1027B00007E047F2B620C0F60000802101F08EFE4F
:1027C000FFE7059843F20001C4F2010188420CD1F1
:1027D000FFE74FF480500390FFF772F90398FFF77B
:1027E0007BF900208DF81300FFE7059843F6000100
:1027F000C4F2000188420CD1FFE74FF48040029000
:10280000FFF7FEF80298FFF707F900208DF8130094
:10281000FFE7059843F60041C4F2000188420CD15D
:10282000FFE74FF400400190FFF7EAF80198FFF747
:10283000F3F800208DF81300FFE79DF8130006B0B1
:1028400080BD000081B000900099486820F0010030
:10285000486001B07047000081B00090009948685E
:1028600020F00200486001B07047000081B0009085
:102870000099486820F02000486001B070470000CF
:1028800081B000900099486820F04000486001B095
:102890007047000081B000900099486820F0400027
:1028A000486001B07047000081B00090009948680E
:1028B00020F08000486001B07047000081B00090B7
:1028C0000099486820F08000486001B0704700001F
:1028D00081B000900099086840F04000086001B0A5
:1028E0007047000081B000900099486840F00100F6
:1028F000486001B07047000081B0009000994868BE
:1029000040F00200486001B07047000081B00090C4
:102910000099486840F04000486001B070470000EE
:1029200081B000900099486840F08000486001B094
:102930007047000080B584B00390029101208DF8AB
:102940000700039843F20001C4F20101884210D04D
:10295000FFE7039843F60001C4F20001884208D063
:10296000FFE7039843F60041C4F20001884201D119
:10297000FFE707E047F2B620C0F60000B72101F0FC
:10298000ADFDFFE70298006890B1FFE7029800688C
:10299000B0F5806F0CD0FFE702980068B0F5004FEB
:1029A00006D0FFE702980068B0F5404F01D1FFE77D
:1029B00007E047F2B620C0F60000BA2101F08EFD14
:1029C000FFE702984068B0F5827F04D0FFE70298E5
:1029D000406808B9FFE707E047F2B620C0F60000FC
:1029E000BB2101F07BFDFFE70298806830B1FFE773
:1029F00002988068B0F5006F01D1FFE707E047F269
:102A0000B620C0F60000BC2101F068FDFFE7029887
:102A1000C06828B1FFE70298C068022801D1FFE72B
:102A200007E047F2B620C0F60000BD2101F056FDD8
:102A3000FFE70298006928B1FFE7029800690128C2
:102A400001D1FFE707E047F2B620C0F60000BE2143
:102A500001F044FDFFE702984069B0F5007F0AD01D
:102A6000FFE70298406930B1FFE702984069B0F58E
:102A7000802F01D1FFE707E047F2B620C0F6000043
:102A8000BF2101F02BFDFFE70298806918B3FFE733
:102A90000298806908281ED0FFE7029880691028F4
:102AA00019D0FFE702988069182814D0FFE7029830
:102AB000806920280FD0FFE70298806928280AD073
:102AC000FFE702988069302805D0FFE70298806907
:102AD000382801D1FFE707E047F2B620C0F6000032
:102AE000C02101F0FBFCFFE70298C069802804D0F8
:102AF000FFE70298C06908B9FFE707E047F2B62090
:102B0000C0F60000C12101F0E9FCFFE70298006A6D
:102B1000B0F5005F04D0FFE70298006A08B9FFE74C
:102B200007E047F2B620C0F60000C22101F0D6FC53
:102B3000FFE7039800F062F8002845D1FFE703980B
:102B400000684FF6BF718843029A00921168D2F86C
:102B500004E0D2F808C0D36841EA0E0141EA0C0152
:102B60001943136919435369194393691943D36985
:102B70001943126A11430843039908600398406897
:102B800020F004000299C98A08430399486002981A
:102B9000006AB0F5005F13D1FFE70298406A08B100
:102BA000FFE707E047F2B620C0F60000E52101F09C
:102BB00095FCFFE703980299496A00F03DF8FFE7AA
:102BC00000208DF80700FFE70399C86920F4006032
:102BD000C8619DF8070004B080BD000081B000907E
:102BE0000098806800F0010001B0704781B000904B
:102BF00000988068C0F3400001B0704781B0009039
:102C000000980068C0F3801001B0704781B0009058
:102C100000984068C0F3801001B0704781B0009008
:102C200000984068C0B2C00901B0704781B0009000
:102C30000098007B01B0704782B001900091BDF810
:102C400000000199086102B07047000083B0029053
:102C50008DF8071002980C3000909DF8070000993D
:102C6000087003B0704700004EF21001CEF2000170
:102C7000086840F0020008607047000081B00090D2
:102C8000009840F20C01C2F20001086001B07047E8
:102C900081B000900099086920F490400861009983
:102CA000486920F02A00486101B0704781B0009067
:102CB0000099C86840F40050C86001B07047000037
:102CC00080B588B00790069101208DF8170000208C
:102CD0000490079843F60001C4F20101884220D015
:102CE000FFE7079844F20041C4F20001884218D07F
:102CF000FFE7079844F60001C4F20001884210D0B3
:102D0000FFE7079844F60041C4F20001884208D06A
:102D1000FFE7079845F20001C4F20001884201D1A3
:102D2000FFE707E047F2ED20C0F60000CE2101F0FA
:102D3000D5FBFFE7069800684AF62021C0F244015F
:102D4000884201D8FFE707E047F2ED20C0F6000017
:102D5000CF2101F0C3FBFFE70698406830B1FFE7E1
:102D600006984068B0F5805F01D1FFE707E047F2C1
:102D7000ED20C0F60000D02101F0B0FBFFE706987F
:102D80008068B0F5805F10D0FFE70698806860B17A
:102D9000FFE706988068B0F5405F06D0FFE7069829
:102DA0008068B0F5005F01D1FFE707E047F2ED2052
:102DB000C0F60000D12101F091FBFFE70698C06842
:102DC00060B1FFE70698C068B0F5806F06D0FFE7F6
:102DD0000698C068B0F5C06F01D1FFE707E047F281
:102DE000ED20C0F60000D22101F078FBFFE7069845
:102DF000006978B1FFE70698006904280AD0FFE768
:102E000006980069082805D0FFE7069800690C2895
:102E100001D1FFE707E047F2ED20C0F60000D32123
:102E200001F05CFBFFE70698406990B1FFE7069868
:102E30004069B0F5807F0CD0FFE706984069B0F597
:102E4000007F06D0FFE706984069B0F5407F01D1CA
:102E5000FFE707E047F2ED20C0F60000D42101F0C3
:102E60003DFBFFE7079800F07FF8002878D1FFE7E7
:102E70000798C06841F20C618843069A5168D3688C
:102E800012691943114308430799C86007980699C6
:102E9000896800F0A7F807980699496900F094F846
:102EA0006846FFF7BDFB079843F60001C4F2010135
:102EB000884203D1FFE70398049030E0079844F27A
:102EC0000041C4F20001884203D1FFE70298049058
:102ED00024E0079844F60001C4F20001884203D1BF
:102EE000FFE70298049018E0079844F60041C4F206
:102EF0000001884203D1FFE7029804900CE0079894
:102F000045F20001C4F20001884203D1FFE70298B4
:102F1000049000E0FFE7FFE7FFE7FFE7FFE7049823
:102F2000E8B1FFE706980068C8B1FFE700208DF818
:102F3000170007980499069A126800F01DF8079880
:102F40008068102801D3FFE708E047F2ED20C0F6C3
:102F500000004FF49B7101F0C1FAFFE7FFE7FFE7C4
:102F60009DF8170008B080BD81B000900098C0683F
:102F7000C0F3403001B0704783B0029001910092DD
:102F800001981921484300998900B0FBF1F348F2F8
:102F90001F51C5F2EB11A3FB01204209642002FB83
:102FA0001033322000EB0310A0FB0101F02000EAF7
:102FB000511000EB0210C1F34311084480B2029992
:102FC000886003B07047000082B0019000910198C2
:102FD000406920F44070009908430199486102B0AB
:102FE0007047000082B0019000910198006920F4C0
:102FF0004050009908430199086102B070470000F1
:1030000082B001904EF21000CEF2000000680090F5
:1030100000980198013020B1FFE70198013001903C
:10302000FFE7FFE7019870B1FFE74EF21000CEF224
:1030300000000068C003002804D5FFE701980138AC
:103040000190FFE7EEE702B07047000080B582B064
:10305000ADF806009DF8070000F0F800012100918E
:10306000FEF7E4FB0099BDF80620FC2000EAD20040
:10307000FEF7DCFBBDF80600C000C0B20021FEF781
:10308000D5FB02B080BD000080B586B00120FEF700
:1030900081FC01F00FF900220492114600F0E6FADB
:1030A00001460C20019001F037F9019801F0CAF8AF
:1030B00001F000F9049A114600F0D8FA01460D20FB
:1030C000029001F029F9029801F0BCF801F0F2F841
:1030D000049A114600F0CAFA01460E20039001F04E
:1030E0001BF9039801F0AEF801F0E4F8049A1146D8
:1030F00000F0BCFA01460F20059001F00DF905988B
:1031000001F0A0F806B080BD10B596B000200A907E
:103110001590149013901290119010900F90102011
:10312000FEF798FC2020FEF795FC04200E90FEF799
:1031300091FC08200990FEF78DFC41F20000C4F2DA
:10314000010004904BF6BF71C0F20B410091FFF7F4
:103150002DF940F60000C4F201000D9041F2177104
:10316000C0F211410191FFF721F940F60040C4F28D
:10317000010003904FF6FF71C0F21F410291FFF76B
:1031800015F941F20040C4F20100089040F20441F8
:103190000791FFF70BF9009A04980A990F92012200
:1031A0000B92109202220592119212910FA9069190
:1031B000FEF7E4FF059B06990A9ADDF82CC0DDF8BE
:1031C00004E00D98CDF83CE0CDF840C01193129288
:1031D000FEF7D4FF059B06990A9ADDF82CC0DDF8AE
:1031E00008E00398CDF83CE0CDF840C0119312926E
:1031F000FEF7C4FF06990E9A0D980823C0F2084303
:103200000F931092FEF7BAFF06990E9A04981423B2
:10321000C0F214430F931092FEF7B0FF059B06997E
:103220000A9ADDF82CC0DDF81CE00898CDF83CE0E7
:10323000CDF840C011931292FEF7A0FF0A984FF00C
:103240007041FEF77FFF0A980321CFF20001FEF7DD
:1032500079FF099A0A990B9814928DF854008DF809
:1032600055108DF8560014A80C90FEF775FE0A9ABA
:103270000B990C984FF4004314938DF854108DF86B
:1032800055208DF85610FEF767FE0E9A0D9840F601
:103290000801FFF7BDF80D980E9A8021C0F2804119
:1032A000FFF7B6F816B010BD80B59CB012A80B9011
:1032B0002821FDF724F800200A90119010900F901B
:1032C0000E900D904FF48050FEF7D6FB0420019035
:1032D000FEF7D2FB0A984AF2A0010D9109210E9146
:1032E000032104910F91109040F60000C4F20100F8
:1032F00003900DA90291FEF741FF019A02990398EC
:1033000044F240030D930E92FEF738FF049900201B
:10331000C4F2020007901022FEF7FCFC0499079803
:103320004FF400520592FEF7BDFC049907980A9AE3
:10333000FEF752FD049907980A9AFEF779FD049961
:10334000079880220692FEF713FD049907980A9ABF
:10335000FEF788FD049907980A9AFEF723FD07985F
:103360000A9A02210891FEF7D5FC059A0798089958
:10337000FEF798FC079808990A9AFEF72DFD079822
:1033800008990A9AFEF754FD069A07980899FEF7DD
:10339000EFFC079808990A9AFEF764FD07980899C8
:1033A0000A9AFEF7FFFC00F08DFF0A9A114600F022
:1033B00093F901462320099000F0D0FF099800F00E
:1033C00059FF0A980B9912904FF48272139214903D
:1033D000159016904FF400721792082218921990C7
:1033E0001A900A201B9043F20000C4F201000C90D6
:1033F000FFF7A0FA0C98FFF76BFA1CB080BD000035
:1034000080B59AB010A809902821FCF778FF002019
:1034100008900F900E900D900C900B904FF4804000
:10342000FEF7DCFA0820FEF727FB0898A021C0F27F
:10343000A0410B9109210C9103210D910E9040F6B2
:103440000040C4F2010001900BA90091FEF796FE26
:10345000009901984022C0F240420B92042202924D
:103460000C92FEF78BFE0299089A0020C4F202002B
:103470000590FEF74FFC029905984FF40052039215
:10348000FEF710FC02990598089AFEF7A5FC029930
:103490000598089AFEF7CCFC0299059880220492C0
:1034A000FEF766FC02990598089AFEF7DBFC029984
:1034B0000598089AFEF776FC0598052106911022DA
:1034C000FEF728FC039A05980699FEF7EBFB059892
:1034D0000699089AFEF780FC05980699089AFEF767
:1034E000A7FC049A05980699FEF742FC05980699F0
:1034F000089AFEF7B7FC05980699089AFEF752FC61
:1035000000F0E0FE089A114600F0E6F8014624209B
:10351000079000F023FF079800F0ACFE0898099987
:1035200010904FF4827211921290139014904FF4F5
:10353000007215921690179018900A20199043F671
:103540000000C4F200000A90FFF7F4F90A98FFF7B0
:10355000BFF91AB080BD000080B592B00020049081
:10356000119010900F900E900D900C900B900A906F
:1035700009900890079006904FF48040FEF78EFA6D
:1035800004200190FEF78AFA04980221C0F2024159
:1035900006910921079103210891099040F6000046
:1035A000C4F20100039006A90291FEF7E7FD019A1B
:1035B000029903980423C0F2044306930792FEF78E
:1035C000DDFD04984FF4E1310B910C900D900E90BD
:1035D0000C210F911090119043F60000C4F20100ED
:1035E00005900BA9FFF76CFB0598FFF751FB0598B9
:1035F000FFF75CFB12B080BDFFE7FEE7FFE7FEE7E9
:1036000088B0079006910592079800F00700049093
:103610000498C0F10700052803D3FFE704200190B8
:1036200004E00498C0F107000190FFE701980390BF
:1036300004980430062803D8FFE70020009003E038
:10364000049803380090FFE70098029006980399C9
:10365000012202FA01F101390840029B98400599C4
:103660009A40013A1140084308B0704788B007906B
:1036700006910592079800F0070004900498C0F1A5
:103680000700052803D3FFE70420019004E0049815
:10369000C0F107000190FFE70198039004980430FF
:1036A000062803D8FFE70020009003E004980338C1
:1036B0000090FFE70098029006980399012202FA11
:1036C00001F101390840029B984005999A40013A5E
:1036D0001140084308B0704788B0079006910592E2
:1036E000079800F0070004900498C0F1070005282F
:1036F00003D3FFE70420019004E00498C0F1070021
:103700000190FFE70198039004980430062803D83D
:10371000FFE70020009003E0049803380090FFE7E3
:103720000098029006980399012202FA01F10139EA
:103730000840029B984005999A40013A114008437D
:1037400008B070477047000010B58AB047F2C84013
:10375000C0F60000FCF78CFF46F2C652C0F600022D
:1037600004921E2103910846FDF7D2FC694601240C
:103770008C6010200990486047F27D40C0F6000040
:10378000059008602A204B2106911F2207924FF6D0
:10379000E073089300F03AF90399049A5A20FDF770
:1037A000B7FC05980699079A089BDDF824E0EC46DB
:1037B000CCF80840CCF804E0CCF80000662000F01B
:1037C00025F90399049A9620FDF7A2FC059806991D
:1037D000079A089BDDF824E0EC46CCF80840CCF8CA
:1037E00004E0CCF80000A22000F010F94FF496603D
:1037F000FFF706FC0AB010BD80B582B001900198B9
:103800000090FEF7E5FE01460098C9B20A0945F6A8
:103810003C31C0F60001895CC84002B080BD0000A8
:1038200080B582B0019001980090FEF7D9FE014664
:1038300000980A0A45F64C31C0F60001895CC84080
:1038400002B080BD80B582B0019001980090FEF773
:10385000CFFE01460098CA0A45F64C31C0F6000179
:10386000895CC84002B080BD80B582B00020019064
:10387000FEF7CEFE0146009140B1FFE70098042814
:103880000AD0FFE7009808280CD00FE041F2002092
:10389000C0F27A0001900FE041F20020C0F27A00FD
:1038A000019009E000F00CF8019005E041F20020E1
:1038B000C0F27A000190FFE7019802B080BD0000DD
:1038C00080B584B0002003900290FEF7F5FE0290D0
:1038D0000298019028B1FFE70198B0F5803F06D02B
:1038E00010E040F60010C0F23D00039010E0FEF73B
:1038F000F3FE411C41F20020C0F27A00B0FBF1F06F
:10390000039005E040F60010C0F23D000390FFE791
:1039100003980090FEF7D8FE02460098022101EBC2
:103920009241484304B080BD80B58AB000208DF834
:10393000270045F62C3CC0F6000CDCF80010DCF843
:103940000420DCF80830DCF80CC0CDF820C0079368
:10395000069205918DF82700FFE79DF827000328C0
:1039600034DCFFE79DF82700FDF7BCFF47F2B540C8
:10397000C0F60000FCF77CFE9DF8271005A850F863
:103980002100694601228A6010224A6008601420E2
:103990001E2103911F224FF6E07300F037F80398C1
:1039A00046F2C652C0F600023221FDF7B1FB4FF4D9
:1039B0007A700490FFF724FB0498FFF721FBFFE7E0
:1039C0009DF8270001308DF82700C6E70020FDF79D
:1039D00089FF0AB080BD000080B543F20000C4F248
:1039E000010001F0C3FD80BD80B540F29401C2F238
:1039F000000108780130087043F60000C4F20000AE
:103A000001F0B4FD80BD000070470000B0B588B083
:103A10008C4686460E980D990C9CADF81EE0ADF8CC
:103A20001CC0ADF81A20ADF818308DF817108DF8BD
:103A30001600BDF81E00ADF8140000208DF813002C
:103A4000FFE70C980078002800F0FC80FFE79DF865
:103A50001300002840F08580FFE7BDF81E0040F20B
:103A60009601C2F2000109889DF81720A1EB5201CE
:103A700088420DDCFFE7BDF81C0040F29601C2F25F
:103A8000000149889DF81720891A884201DDFFE767
:103A9000D8E00C980078812804DBFFE701208DF83E
:103AA00013005DE00C9800780D280FD1FFE79DF81A
:103AB0001710BDF81C000844ADF81C00BDF8140038
:103AC000ADF81E000C9801300C9045E09DF81700F1
:103AD00011281EDBFFE7BDF81E00BDF81C10BDF865
:103AE0001A20BDF81830DDF830C09CF800C09DF8F1
:103AF0001640EE46CEF808401024CEF80440CEF82A
:103B000000C0FDF77FFDBDF81E000830ADF81E00B7
:103B100021E0BDF81E00BDF81C10BDF81A20BDF84C
:103B20001830DDF830C09CF800C09DF817409DF8B3
:103B30001650EE46CEF80850CEF80440CEF800C03D
:103B4000FDF760FD9DF81710BDF81E0000EB510059
:103B5000ADF81E00FFE7FFE70C9801300C90FFE77F
:103B60006FE0BDF81E0040F29601C2F20001098824
:103B70009DF81720891A88420DDCFFE7BDF81C006C
:103B800040F29601C2F2000149889DF81720891A77
:103B9000884201DDFFE755E000208DF813009DF815
:103BA0001700202814D1FFE7BDF81E00BDF81C1037
:103BB000BDF81A20BDF81830DDF830C09DF8164069
:103BC000EE46CEF80440CEF800C0FDF7A5F92DE092
:103BD0009DF81700182814D1FFE7BDF81E00BDF8A6
:103BE0001C10BDF81A20BDF81830DDF830C09DF863
:103BF0001640EE46CEF80440CEF800C0FDF7A8F817
:103C000013E0BDF81E00BDF81C10BDF81A20BDF869
:103C10001830DDF830C09DF81640EE46CEF804406E
:103C2000CEF800C0FCF7ACFFFFE7FFE70C980230CE
:103C30000C909DF81710BDF81E000844ADF81E004A
:103C4000FFE7FEE608B0B0BD80B540F27C00C2F2EE
:103C50000000016801310160006847F6D501C2F239
:103C6000E96148434FEAB00041F26E21C0F283019E
:103C700088420AD8FFE740F60000C4F20100102194
:103C8000C0F21041FEF756FCFFE780BD80B582B060
:103C90000220FEF73DFAFFE7FEF732FA022801D0D4
:103CA000FFE7F9E7FEF7D8FCFFE7FEF7DFFC0128A6
:103CB00001D0FFE7F9E7FEF777FCFEF77FFC4FF452
:103CC00080304FF4E011FEF7D9FCFEF7EBFCFFE784
:103CD000FEF70AFD012801D0FFE7F9E70020019077
:103CE000FEF70AFD4FF48060FEF714FD0198FEF721
:103CF0001FFD0220FEF72AFDFFE7FEF781FC0828E2
:103D000001D0FFE7F9E74AF20020C0F24A400090F4
:103D1000FEF724FC0098FEF7B1FF02B080BD000062
:103D20007047000080B584B0002002908DF80F002D
:103D300047F23150C0F60000FCF79AFC029840F2BE
:103D40009601C2F200010A8849881439EC464FF600
:103D5000FF73CCF800308BB21421FDF799FB029869
:103D60008DF80F00FFE79DF80F00042824DCFFE723
:103D700040F29602C2F2000210889DF80F3019211D
:103D8000594301EB50005038528801EB520132394F
:103D900040F20002C2F2000232F81320EC46002387
:103DA000CCF800301E2300F017FDFFE79DF80F0050
:103DB00001308DF80F00D6E740F2DC50FFF720F914
:103DC00040F29600C2F200000288408814386B4628
:103DD0004FF6FF71196083B2002001901421FDF7A6
:103DE00057FB01988DF80F00FFE79DF80F0004289E
:103DF00024DCFFE740F29602C2F2000210889DF830
:103E00000F301921594301EB50005038528801EB13
:103E10005201323940F20002C2F2000232F813209D
:103E2000EC460123CCF800301E2300F0D5FCFFE760
:103E30009DF80F0001308DF80F00D6E740F2DC50FE
:103E4000FFF7DEF804B080BD10B58CB040F29600EC
:103E5000C2F2000003900288438869464FF6FF7063
:103E60000860002105910846FDF712FB6946012410
:103E70008C6010200690486047F29740C0F6000022
:103E80000860142007901E2108911F2204924FF60B
:103E9000E0730A93FFF7BAFD4FF448700B90FFF7F9
:103EA000AFF80398059902884388EC464FF47840B0
:103EB0000990CCF800000846FDF7EAFA049ADDF80C
:103EC00018C0079808990A9BEE46CEF80840CEF82D
:103ED00004C047F2263CC0F6000CCEF800C0FFF745
:103EE00095FD0B98FFF78CF8039805990288438895
:103EF000EC464FF4FC60CCF800000846FDF7C8FA29
:103F0000049ADDF818C0079808990A9BEE46CEF887
:103F10000840CEF804C047F2313CC0F6000CCEF8A1
:103F200000C0FFF773FD0B98FFF76AF8039B049836
:103F300005991A885B88EC46CCF800000846FDF726
:103F4000A7FADDF818C007980899099A0A9BEE4667
:103F5000CEF80840CEF804C047F22B3CC0F6000C67
:103F6000CEF800C0FFF752FD0B98FFF749F80CB0F0
:103F700010BD000080B584B0002002908DF80F00C5
:103F800047F24750C0F60000FCF772FB029840F27F
:103F90009601C2F200010A8849881439EC464FF6AE
:103FA000FF73CCF800308BB21421FDF771FA029840
:103FB0008DF80F00FFE79DF80F0004282EDCFFE7C7
:103FC0009DF80F1040F20000C2F2000030F811001E
:103FD00040F27801C2F20001088040F29603C2F27A
:103FE000000318889DF80F10C1EB011101EB50027E
:103FF000A2F150005B8801EB5303A3F15001143A86
:10400000143B80B289B292B29BB2FDF711FAFFE77E
:104010009DF80F0001308DF80F00CCE740F2DC5026
:10402000FEF7EEFF40F29600C2F2000002884088E0
:1040300014386B464FF6FF71196083B2002001906F
:104040001421FDF725FA01988DF80F00FFE79DF880
:104050000F0004282EDCFFE79DF80F1040F200004F
:10406000C2F2000030F8110040F27801C2F2000103
:10407000088040F29603C2F2000318889DF80F10E2
:10408000C1EB011101EB5002A2F150005B8801EB82
:104090005303A3F15001143A143B80B289B292B297
:1040A0009BB2FDF7FDF8FFE79DF80F0001308DF89A
:1040B0000F00CCE740F2DC50FEF7A2FF04B080BD59
:1040C00080B586B0002004908DF8170047F2165096
:1040D000C0F60000FCF7CCFA049840F29601C2F258
:1040E00000010A8849881439EC464FF6FF73CCF872
:1040F00000308BB21421FDF7CBF904988DF817002E
:10410000FFE79DF8170004283BDCFFE79DF8171038
:1041100040F20000C2F2000030F8110040F27801D5
:10412000C2F20001088040F29602C2F2000210883A
:1041300040089DF8171001EB810300EB830CACF1F4
:1041400050005288C1EB011101EB5203A3F114019D
:10415000ACF13302493BACF1150C89B2EE46CEF816
:1041600004101FFA8CFCCEF800C080B292B29BB251
:10417000FCF7D4FAFFE79DF8170001308DF817001F
:10418000BFE740F2DC50FEF73BFF40F29600C2F280
:1041900000000288408814386B464FF6FF711960A2
:1041A00083B2002003901421FDF772F903988DF873
:1041B0001700FFE79DF8170004283BDCFFE79DF898
:1041C000171040F20000C2F2000030F8110040F277
:1041D0007801C2F20001088040F29602C2F20002A9
:1041E000108840089DF8171001EB810300EB830C49
:1041F000ACF150005288C1EB011101EB5203A3F165
:104200001401ACF13302493BACF1150C89B2EE4616
:10421000CEF804101FFA8CFCCEF800C080B292B227
:104220009BB2FCF737FBFFE79DF8170001308DF8D4
:104230001700BFE740F2DC50FEF7E2FE06B080BD9B
:10424000FFE7FEE781B08DF803009DF90300002829
:104250000ED4FFE79DF9031001F01F0201209040EA
:104260004A094EF20011CEF2000141F82200FFE7A8
:1042700001B0704781B08DF803009DF9030000285C
:104280000ED4FFE79DF9031001F01F0201209040BA
:104290004A094EF20011CEF2000141F82200FFE778
:1042A00001B070474EF60C50CEF200000068C0F32B
:1042B000022070474EF60C50CEF200000068C0F3AA
:1042C000022070474EF60C50CEF200000068C0F39A
:1042D0000220704782B08DF8070000919DF9070019
:1042E00000280AD4FFE7009800019DF907104EF25C
:1042F0000042CEF2000288540BE0009800019DF8C5
:10430000071001F00F014EF61452CEF2000288544D
:10431000FFE702B07047000082B08DF807000091FF
:104320009DF9070000280AD4FFE7009800019DF9D5
:1043300007104EF20042CEF2000288540BE00098C3
:1043400000019DF8071001F00F014EF61452CEF255
:1043500000028854FFE702B07047000082B08DF879
:10436000070000919DF9070000280AD4FFE7009894
:1043700000019DF907104EF20042CEF2000288546F
:104380000BE0009800019DF8071001F00F014EF6B8
:104390001452CEF200028854FFE702B070470000CA
:1043A00083B00290029800F0070000904EF60C5186
:1043B000CEF200010868019001984FF6FF0210400C
:1043C00001900198009A40EA02200022C0F2FA52BD
:1043D000104301900198086003B0704780B586B023
:1043E00084460898CDF814C0049103920293ADF866
:1043F00006000598039908440499029A1144BDF8EF
:10440000062080B289B2FCF76FFE05980399401A26
:104410000499029A1144BDF8062080B289B2FCF7D3
:1044200063FE0598039908440499029A891ABDF815
:10443000062080B289B2FCF757FE05980399401A0E
:104440000499029A891ABDF8062080B289B2FCF755
:104450004BFE0598029908440499039A1144BDF84B
:10446000062080B289B2FCF73FFE05980299401AF7
:104470000499039A1144BDF8062080B289B2FCF772
:1044800033FE0598029908440499039A891ABDF8E5
:10449000062080B289B2FCF727FE05980299401ADF
:1044A0000499039A891ABDF8062080B289B2FCF7F4
:1044B0001BFE06B080BD000083B0029001910298FF
:1044C0000088ADF802000198008802990880BDF8C4
:1044D00002000199088003B07047000082B001908B
:1044E000009102B07047000080B584B0029018209F
:1044F000FBF790FE0190019818B9FFE700200390A8
:104500000EE002980199086001990020C86002201D
:10451000042100F083FA0199486001980390FFE7B5
:10452000039804B080BD000080B58CB000200B90D3
:104530000A9009900890079007A80590FDF7E6FFFC
:1045400041F20000C4F20100019041F2100100911B
:10455000FDF72CFF40F60000C4F20100039040F28A
:1045600004410291FDF722FF40F60040C4F2010031
:1045700006906FF07B410491FDF718FF009A0198B7
:1045800005990792FDF7FAFD029A0599039807929B
:10459000FDF7F4FD049A059906980792FDF7EEFDE4
:1045A0000CB080BD80B586B00020059004900390CB
:1045B0000290019001A80090FDF7A8FF0099E0206B
:1045C000C0F2E040019040F60040C4F20100FDF767
:1045D000D5FD06B080BD000080B540F60000C4F2F5
:1045E000010040F20221FDF709FF80BD80B540F6D1
:1045F0000000C4F2010040F20221FDF7E1FE80BD9F
:1046000083B0019040F28C00C2F20000006800907C
:10461000009800680199884203D1FFE70098029052
:1046200014E0FFE70098C06868B1FFE70098C06831
:104630000090009800680199884203D1FFE7009834
:10464000029003E0EEE700200290FFE7029803B03B
:104650007047000080B584B0029040F28C00C2F236
:104660000000006848B9FFE70298FFF73DFF40F2FD
:104670008C01C2F20001086029E040F28C00C2F215
:10468000000000680190019800680299884203D1F7
:10469000FFE70198039021E0FFE70198C06868B147
:1046A000FFE70198C068019001980068029988426C
:1046B00003D1FFE70198039010E0EEE70298FFF7BF
:1046C00013FF0199C8600198C068039006E040F2AA
:1046D0008C00C2F2000000680390FFE7039804B06A
:1046E00080BD000080B586B040F29000C2F20000AC
:1046F0004078C008C00770B1FFE743F60000C4F27D
:1047000000000590FEF7B2F80598FEF7C3F805988B
:10471000FEF7D4F8FFE740F29000C2F200004078C4
:104720008008C00780B3FFE743F60000C4F2000032
:104730000190FEF787F80198FEF78EF80020C4F28A
:104740000200039005210291FDF72EFA039804213F
:104750000491FDF729FA02990398FDF737FA0299B7
:104760000398FDF745FA02990398FDF753FA039869
:104770000499FDF72BFA03980499FDF739FA039889
:104780000499FDF747FAFFE740F2AC01C2F20001DD
:10479000087800F0F700087040F29001C2F20001C2
:1047A000487840F002004870487800F0FB004870FC
:1047B000487800F0F700487040F28400C2F2000030
:1047C00001684A68022111700068FBF752FDFFF78B
:1047D00003FF06B080BD000080B58AB0DDF830C0B0
:1047E00009900891ADF81E200693002005900698C8
:1047F000049006990320A0EB410002900C98D8B3D6
:10480000FFE7FFE705980499884234DCFFE7059845
:104810000390FFE703980499884210DCFFE70998AA
:104820000899059A039BBDF81EC0EE46CEF800C05D
:10483000FFF7D4FDFFE7039801300390EAE7029801
:10484000B0F1FF3F07DCFFE70298059900EB81001C
:10485000063002900BE002980599049A891A00EB41
:1048600081000A300290049801380490FFE705980F
:1048700001300590C6E72DE0FFE7059804998842CE
:1048800027DCFFE709980899059A049BBDF81EC02C
:10489000EE46CEF800C0FFF7A1FD0298B0F1FF3F51
:1048A00007DCFFE70298059900EB810006300290D3
:1048B0000BE002980599049A891A00EB81000A30EE
:1048C0000290049801380490FFE7059801300590A4
:1048D000D3E7FFE70AB080BD80B58AB040F284001C
:1048E000C2F200000068807A012835D1FFE700207D
:1048F000C4F2020007900521089141F29002FDF7F1
:1049000037F90798089940F28402C2F20002069231
:1049100012681289FDF7E0F9069A0798089912685B
:1049200052685268FDF712FA43F60000C4F2000024
:10493000FDF71AFF089902460798FDF767FA0798EE
:104940000899FDF78BF907980899FDF799F90798E9
:104950000899FDF771F95FE00020C4F202000490AD
:10496000042101914FF48452FDF702F90199049852
:1049700040F28402C2F20002029212681289FDF72C
:10498000ABF90199029A0498126852685268FDF7CF
:10499000DDF943F60000C4F200000390FDF7E4FEE9
:1049A000019902460498FDF731FA01990498FDF740
:1049B00055F901990498FDF763F901990498FDF7F9
:1049C0003BF904980521059141F21002FDF7D0F85A
:1049D000029A0498059912681289FDF77DF90498E6
:1049E000059940F21002C2F20002FDF7AFF90398F8
:1049F000FDF7BAFE059902460498FDF707FA0498F8
:104A00000599FDF72BF904980599FDF739F90498F4
:104A10000599FDF711F9FFE70AB080BD80B586B0B2
:104A2000049003911420FBF7F5FB0290029818B94B
:104A3000FFE70020059032E0049803994843FBF714
:104A4000E9FB019000200090FFE70098049988425C
:104A50000AD2FFE70199009A002041F82200FFE7FF
:104A6000009801300090F0E7019830B9FFE7029814
:104A7000FBF7FFFB0020059011E001980299086008
:104A800001980299486001980299886004980299F7
:104A9000C86003980299086102980590FFE705989D
:104AA00006B080BD10B590B0002005900F900E901C
:104AB0000D900C900B9041F20000C4F201000290A6
:104AC00043F230010191FDF771FC40F60000C4F2A1
:104AD00001000A9040F207710691FDF767FC40F66D
:104AE0000040C4F2010009906FF07B410791FDF78F
:104AF0005DFC019A029805990B92012203920C9297
:104B0000022204920D920E910BA90891FDF736FB3B
:104B1000DDF80CC0049B059A0899DDF818E00A98A6
:104B2000CDF82CE0CDF830C00D930E92FDF726FBAA
:104B3000079A089909980B9208220C9203220D9269
:104B4000FDF71CFB0A9840F20331FDF74DFC10B055
:104B500010BD000080B582B08DF807009DF80700F9
:104B6000012807D1FFE7FFF7DFFCFEF749FC00F063
:104B70000FF80AE043F60000C4F20000FDF7FAFD6A
:104B8000FFF710FDFFF78EFFFFE702B080BD0000CA
:104B900080B58AB000200090099008900790069098
:104BA000059040F60000C4F20100049040F2033189
:104BB0000391FDF7FBFB00990498039A05920122EB
:104BC000069202220792089105A90191FDF7D6FAF3
:104BD00001990098A022C0F2A042059209220692F3
:104BE00003220792089040F60040C4F201000290B0
:104BF000FDF7C4FA019902984022C0F240420592A2
:104C000004220692FDF7BAFA03990498FDF7ECFB2B
:104C10000AB080BD80B590B001200B9000F00AFA78
:104C20000E9000F01BFC0B99F120FCF71FFE0A20F0
:104C30000C90FEF7E5F90B9936200A90FCF7F6FD8B
:104C40000C98FEF7DDF90B9904200390FCF7EEFDBC
:104C50000C98FEF7D5F90B9900200D90FCF7E6FDB6
:104C60000C98FEF7CDF90B993C20FCF7DFFD0C9872
:104C7000FEF7C6F90B990F200490FCF7D7FD0C98AE
:104C8000FEF7BEF90B998F20FCF7D0FD0C98FEF7CC
:104C9000B7F90B99F220FCF7E9FD0C98FEF7B0F993
:104CA0000B991820FCF7C2FD0C98FEF7A9F90B9997
:104CB000A320FCF7BBFD0C98FEF7A2F90B9912207C
:104CC0000190FCF7B3FD0C98FEF79AF90B990220BE
:104CD000FCF7ACFD0C98FEF793F90B99B220FCF7AA
:104CE000A5FD0C98FEF78CF901980B99FCF79EFD39
:104CF0000C98FEF785F90B99FF20FCF797FD0C98AF
:104D0000FEF77EF90B9910200890FCF78FFD0C98A8
:104D1000FEF776F90B990D98FCF788FD0C98FEF7D5
:104D20006FF90B99F820FCF7A1FD0C98FEF768F9D4
:104D30000B992120FCF77AFD0C98FEF761F9039896
:104D40000B99FCF773FD0C98FEF75AF90B99F920B3
:104D5000FCF78CFD0C98FEF753F90B990D98FCF7B6
:104D600065FD0C98FEF74CF90B9908200290FCF7B2
:104D70005DFD0C98FEF744F90A980B99FCF776FD57
:104D80000C98FEF73DF902980B99FCF74FFD0C9833
:104D9000FEF736F90B99B420FCF768FD0C98FEF786
:104DA0002FF90B990D98FCF741FD0C98FEF728F9A7
:104DB0000B99C120FCF75AFD0C98FEF721F90B99CD
:104DC00047200690FCF732FD0C98FEF719F90B9975
:104DD000C520FCF74BFD0C98FEF712F90B990D98C6
:104DE000FCF724FD0C98FEF70BF90B99AF20FCF7AC
:104DF0001DFD0C98FEF704F90B998020FCF716FDB9
:104E00000C98FEF7FDF80B990D98FCF70FFD0C9828
:104E1000FEF7F6F80B99E020FCF728FD0C98FEF75A
:104E2000EFF804980B99FCF701FD0C98FEF7E8F8F1
:104E30000B991F20FCF7FAFC0C98FEF7E1F80B9990
:104E40001C20FCF7F3FC0C98FEF7DAF80B990C2009
:104E5000FCF7ECFC0C98FEF7D3F804980B99FCF7E0
:104E6000E5FC0C98FEF7CCF802980B99FCF7DEFCF9
:104E70000C98FEF7C5F80B994820FCF7D7FC0C9866
:104E8000FEF7BEF80B999820FCF7D0FC0C98FEF7C3
:104E9000B7F80B9937200790FCF7C8FC0C98FEF781
:104EA000AFF80B990C98FCF7C1FC0C98FEF7A8F82A
:104EB0000B991320FCF7BAFC0C98FEF7A1F80398A5
:104EC0000B99FCF7B3FC0C98FEF79AF80B9911209C
:104ED0000990FCF7ABFC0C98FEF792F80B990D20AB
:104EE0000590FCF7A3FC0C98FEF78AF80B990D9837
:104EF000FCF79CFC0C98FEF783F80B99E120FCF77B
:104F0000B5FC0C98FEF77CF804980B99FCF78EFC26
:104F10000C98FEF775F80B993220FCF787FC0C987B
:104F2000FEF76EF80B992E20FCF780FC0C98FEF72C
:104F300067F80B990B20FCF779FC0C98FEF760F8EA
:104F400005980B99FCF772FC0C98FEF759F80B9931
:104F50000520FCF76BFC0C98FEF752F806980B99AD
:104F6000FCF764FC0C98FEF74BF80B997520FCF7E6
:104F70005DFC0C98FEF744F807980B99FCF756FC7B
:104F80000C98FEF73DF80B990620FCF74FFC0C98A7
:104F9000FEF736F808980B99FCF748FC0C98FEF7DA
:104FA0002FF80B990320FCF741FC0C98FEF728F82A
:104FB0000B992420FCF73AFC0C98FEF721F80B998A
:104FC0002020FCF733FC0C98FEF71AF80B990D988B
:104FD000FCF72CFC0C98FEF713F80B993A20FCF721
:104FE00045FC0C98FEF70CF80B996620FCF71EFCAC
:104FF0000C98FEF705F809980B99FCF737FC0C980C
:10500000FDF7FEFF0A980B99FCF730FC0C98FDF7B2
:10501000F7FF0B992820FCF709FC7820FDF7F0FF3B
:105020000D992920FCF722FC0C98FDF7E9FF0D985B
:1050300010B080BD80B584B08DF80B000F20042126
:10504000FFF7ECFC40F2A401C2F20001086040F25C
:105050008401C2F200010020086040F28001C2F227
:105060000001088040F28801C2F20001087040F29D
:105070009001C2F20001487800F0FB0048704878C7
:1050800000F0FE004870487800F0F700487048785B
:1050900040F00200487040F2AC01C2F20001019100
:1050A000087800F0F7000870087800F0F900087040
:1050B000087800F0EF000870087840F001000870F0
:1050C0009DF80B20087802F0030200F0F90040EA96
:1050D000420008709DF80B00FFF73CFD0198006846
:1050E0000390039804B080BD80B58AB00020019081
:1050F000099040F27C01C2F200010860012000909A
:10510000FCF796FC4FF08050FCF756FC0320FFF7AD
:1051100047F9FFF7C7F8019A0F21FEF771FA014628
:105120004FF0FF30FFF7D6F8FDF700F8FEF7AEFDC1
:10513000FDF7EAFFFDF7A8FFFEF7B6F8FEF760F906
:10514000FEF70AFA009901980890079006900590DA
:10515000049044F2400202920492059102210691C9
:10516000079041F20000C4F20100039004A9FDF78A
:1051700005F802990398FDF72DF9FDF775FD62B664
:10518000FFF748FDFFE700F011F8FEF75DFEFEF7C0
:10519000F1FEFEF7C7FDFEF793FFFBF7F1FAFBF711
:1051A000D5F9FEF7D1FAFEF7BFFBECE780B58AB080
:1051B00047F26C50C0F60000FBF75AFA694601202E
:1051C0000590886010200690486047F2AC40C0F619
:1051D00000000860002007901E214FF478420492DE
:1051E0001F230893FBF7DAFF049A06990798089B98
:1051F000DDF814E0EC46CCF808E0CCF8041047F2F7
:105200007451C0F60001CCF800103C21FBF7C6FF3A
:10521000DDF814C006990798089B6A46C2F808C0D2
:10522000516047F28E31C0F6000111605A214FF4EF
:10523000FC62FBF7B3FFDDF814C006990798089BE2
:105240006A46C2F808C0516047F2BA31C0F60001A0
:10525000116078211A46FBF7A1FF40F2DC5009905B
:10526000FDF7CEFE0998FDF7CBFE0AB080BD000029
:1052700084B002900298006818B9FFE700200390FC
:1052800035E00298016848688968884209D1FFE7DB
:10529000029800688068006818B9FFE70020039052
:1052A00025E0029800688068006801900298006814
:1052B000816800200860029801688868043088606E
:1052C000029801680868C96800EB81000438009002
:1052D0000298006880680099884205D9FFE7029823
:1052E000016808688860FFE701980390FFE703986A
:1052F00004B0704780B586B084460898CDF810C0D9
:105300008DF80F108DF80E208DF80D308DF80C00F3
:1053100000208DF80B0040F2A901C2F2000101202B
:1053200008709DF80F0098B3FFE70C20FAF772FFA2
:105330000190FFE7019820B9FFE700208DF81700E2
:1053400048E0FFE79DF80E00019908709DF80F00F6
:10535000019908810498019948609DF80D00019910
:1053600088729DF80C000199C872FFE7019940F21C
:10537000A400C2F2000000F031F820B9FFE70020DD
:105380008DF8170026E0FFE701208DF80B00FFE7FE
:105390000498D0B1FFE740F29000C2F200004078DC
:1053A0004008C00788B1FFE740F2A901C2F200013E
:1053B0000220087045F2BD61C0F6000143F600000E
:1053C000C4F2000000F064F8FFE79DF80B008DF8D0
:1053D0001700FFE79DF8170006B080BD84B002906B
:1053E00001910298006818B9FFE70020039031E0AE
:1053F0000298016848688968884209D1FFE70298E5
:1054000000688068006818B1FFE70020039021E081
:10541000019802990968496808600298016848681B
:1054200004304860029801680868C96800EB810090
:10543000043800900298006840680099884205D9B5
:10544000FFE70298016808684860FFE70298006873
:105450000390FFE7039804B07047000080B584B064
:1054600040F60000C4F20100019040F201110291E7
:10547000FCF7A6FF0A200390FDF7C2FD01980299F0
:10548000FCF7BCFF0398FDF7BBFD04B080BD000036
:1054900080B588B00690059140F2A801C2F20001E3
:1054A0000291012008700698FFF7D4F80299049041
:1054B00002200870FFE7049820B9FFE700208DF86C
:1054C0001F003AE0FFE70498806830BBFFE70498CC
:1054D000007CC00708BBFFE70499087C40F001008E
:1054E000087405980499886040F2A801C2F200018E
:1054F000032008700499487D00F0FD004875049968
:10550000487D00F0FE00487504980190806880474F
:1055100001990390039848610BE040F2A801C2F2A0
:10552000000104200870049804300599FFF756FF25
:10553000FFE701208DF81F00FFE79DF81F0008B06E
:1055400080BD000080B541F20000C4F2010042F2CB
:105550002001FCF735FF80BD80B541F20000C4F2A8
:10556000010042F22001FCF749FF80BD80B588B000
:10557000069040F28901C2F20001087801300870FB
:1055800040F2A801C2F20001052008700698FFF75A
:1055900037F80590FFE7059820B9FFE700208DF860
:1055A0001F0086E0FFE70598407DC00720B1FFE7B8
:1055B00000208DF81F007CE00598407D4008C00762
:1055C000002849D0FFE740F2A801C2F200010620FE
:1055D000087005980430FFF74BFE05998860059820
:1055E000806828BBFFE70698FDF700FB48B1FFE79E
:1055F0000698FDF713FB20B1FFE70698FDF754F975
:10560000FFE70698FDF7EAFA48B1FFE70698FDF7CD
:10561000FDFA20B1FFE70698FDF732F9FFE705999B
:10562000087C00F0FE00087401208DF81F0040E0A7
:105630000599487D00F0FD00487540F2A801C2F2CE
:105640000001072008700598029080688047029941
:1056500004900498486113E00599487D00F0FD002E
:10566000487540F2A801C2F20001082008700598B0
:105670000190806880470199039003984861FFE793
:105680000598407D4008C00778B1FFE740F2A801C7
:10569000C2F20001082008700599087C00F0FE00A5
:1056A00008740698FFF762FFFFE701208DF81F00DE
:1056B000FFE79DF81F0008B080BD000080B582B0F4
:1056C00040F2AA01C2F2000108780130087040F2ED
:1056D000A901C2F200010320087040F2AC00C2F23E
:1056E00000000078C008C007A0BBFFE700F01AF96F
:1056F000E8B9FFE740F28400C2F20000006848B158
:10570000FFE740F28400C2F2000000684168002018
:105710000870FFE740F29001C2F20001487840F0C3
:1057200001004870487840F002004870FFE740F2FE
:10573000A901C2F200010420087040F2AA00C2F2DE
:105740000000017840F29000C2F200000170006891
:10575000019015E000F018F8FFE740F2A901C2F24D
:1057600000010520087040F2AA00C2F20000017892
:1057700040F29000C2F20000017000680190FFE763
:10578000019802B080BD000080B584B040F2A9014C
:10579000C2F2000108200870EFF3108072B6039087
:1057A00040F29000C2F200004078C008C007002814
:1057B00000F09280FFE740F28400C2F2000000682F
:1057C000807A012843D1FFE740F28000C2F2000056
:1057D000008840F28401C2F2000109680989884208
:1057E00021DAFFE740F28400C2F20000006840685E
:1057F000406840F28001C2F200010A88805C8DF8A6
:105800000B0008880130088040F2A901C2F20001B3
:10581000092008709DF80B1043F60000C4F2000048
:10582000FDF714FA12E040F2A901C2F200010A20C9
:105830000870FEF757FF40F2AC01C2F20001087891
:1058400000F0F700087000F06DF8FFE743E043F662
:105850000000C4F20000FDF7E9F98DF80A009DF898
:105860000A2040F28401C2F20001086840684368DF
:1058700040F28000C2F20000B0F800C003F80C2033
:10588000028801320280008809680989884208DAA2
:10589000FFE743F60000C4F20000FF21FDF7D6F950
:1058A00018E040F28400C2F200000068C07A0128CB
:1058B0000CD1FFE740F2AC01C2F20001087800F021
:1058C000F7000870FFF7FAFE019002E0FEF70AFF0A
:1058D000FFE7FFE7FFE7FFE740F29000C2F20000BA
:1058E00040788008C007C8B1FFE740F28400C2F2E8
:1058F00000000068C07A01280CD1FFE740F2AC013B
:10590000C2F20001087800F0F7000870FFF7D6FE39
:10591000009002E0FEF7E6FEFFE7FFE762B6012037
:1059200004B080BD80B584B040F2A901C2F200018C
:105930000620087040F2A400C2F20000FFF798FCB5
:1059400040F28401C2F200010860FFE740F28400E7
:10595000C2F20000006820B9FFE700208DF80F00B8
:10596000E0E0FFE740F29001C2F20001487800F069
:10597000FD00487040F2AC01C2F20001087840F02E
:105980000800087040F28800C2F200000121017096
:1059900040F28002C2F200020020108040F2840037
:1059A000C2F200000268526811700068807A012813
:1059B00069D1FFE7FEF71AFE40F28400C2F2000050
:1059C00000680078012803D1FFE7FFF7C5FDFFE776
:1059D00040F28400C2F2000000680078022803D17F
:1059E000FFE7FFF7AFFDFFE740F2AC00C2F20000B7
:1059F0000078C0F34100012843D1FFE740F2840062
:105A0000C2F2000000680089042811DBFFE740F2C1
:105A10009001C2F20001487840F004004870FEF79F
:105A20005BFF43F60000C4F20000FCF765FF27E0CF
:105A300040F29001C2F20001487840F0080048703E
:105A400040F28001C2F2000108880130088040F273
:105A5000A901C2F200010720087040F28400C2F2DE
:105A60000000006840684068017843F60000C4F216
:105A700000000290FDF7EAF80298FCF751FFFFE7FB
:105A800000E0FFE74AE040F28400C2F20000006854
:105A9000807A02283DD1FFE740F28001C2F2000186
:105AA0000020088040F28400C2F2000000680089F3
:105AB000042815DBFFE7FEF70FFF43F60000C4F2F2
:105AC00000000190FCF718FF0198FCF70BFF40F273
:105AD0009001C2F20001487840F00400487017E0DD
