:020000040800F2
:1000000070110020CD0100081D3B0008E50F00081D
:10001000193B0008A50A00082D5300080000000045
:10002000000000000000000000000000514F000828
:10003000A90A000800000000F9460008A14F0008C6
:10004000E7010008E7010008E70100082D48000863
:10005000E7010008E7010008E7010008E7010008E0
:10006000E70100087D0D0008E7010008E70100082E
:10007000E7010008E7010008E7010008E7010008C0
:10008000E7010008E7010008E7010008E7010008B0
:10009000E7010008E7010008E7010008E7010008A0
:1000A000E7010008E7010008E7010008E701000890
:1000B000E7010008E7010008E7010008E701000880
:1000C000E7010008E7010008E70100083D4F0008CC
:1000D000414F0008E7010008E7010008E7010008B8
:1000E000290D0008E7010008E7010008E701000802
:1000F000E7010008E7010008E7010008E701000840
:10010000E7010008E7010008E7010008E70100082F
:10011000E7010008E7010008E7010008E70100081F
:10012000E7010008E7010008E7010008E70100080F
:1001300000F002F800F03AF80AA090E8000C8244BF
:100140008344AAF10107DA4501D100F02FF8AFF29C
:10015000090EBAE80F0013F0010F18BFFB1A43F0A5
:1001600001031847B03E0300D03E0300103A24BFFD
:1001700078C878C1FAD8520724BF30C830C144BF0C
:1001800004680C607047000000230024002500264E
:10019000103A28BF78C1FBD8520728BF30C148BFEA
:1001A0000B6070471FB51FBD10B510BD00F05DF8A6
:1001B0001146FFF7F7FF06F017F800F07BF803B4DD
:1001C000FFF7F2FF03BC00F07FF80000094880470A
:1001D00009480047FEE7FEE7FEE7FEE7FEE7FEE729
:1001E000FEE7FEE7FEE7FEE704480549054A064B41
:1001F000704700009150000831010008700B00208A
:1002000070110020700D0020700D00204FF00002D2
:1002100000B5134694469646203922BFA0E80C50FC
:10022000A0E80C50B1F12001BFF4F7AF090728BFD7
:10023000A0E80C5048BF0CC05DF804EB890028BF53
:1002400040F8042B08BF704748BF20F8022B11F07C
:10025000804F18BF00F8012B7047704770477047F8
:1002600000487047C800002070477546FFF7F8FF48
:10027000AE4605006946534620F00700854618B093
:1002800020B5FFF7B1FFBDE820404FF000064FF06A
:1002900000074FF000084FF0000BAC46ACE8C00977
:1002A000ACE8C009ACE8C009ACE8C00921F007011E
:1002B0008D46704710B50446AFF300802046BDE878
:1002C0001040FFF77CBF000001491820ABBEFEE7DD
:1002D0002600020080B584B0ADF80E0040F2BC00EC
:1002E000C2F200000068806B029000F039FA0190C1
:1002F00000F040FA019ADDF808C00346BDF80E0090
:100300006946086000210846E04704B080BD00004F
:1003100080B586B0ADF81600ADF814100492BDF8A3
:1003200016000390BDF81400029040F22810C2F2AB
:100330000000806801909DF8100005F00DF9019A09
:1003400002990346039802EB8302526800F014FC02
:1003500006B080BD80B58EB0ADF83600ADF8341073
:100360000C928DF82F300120ADF82C000020ADF854
:100370002A000990089007900C980690069805F0BE
:100380000FF90790FFE70698411C0691007820B10D
:10039000FFE7099801300990F5E700F0E1F90799C6
:1003A000B0FBF1F00999B0FBF1F008909DF82F0037
:1003B00001460491012808D0FFE70498022811D0D3
:1003C000FFE70498032808D013E0BDF8360007992A
:1003D000A0EB5100ADF82C0010E0BDF83600ADF8F0
:1003E0002C000BE0BDF836100798401AADF82C0031
:1003F00004E0BDF83600ADF82C00FFE740F228100D
:10040000C2F20000806803900C98007805F0A4F810
:100410000146039800EB810040680088ADF81600A3
:10042000FFE70C980078002818BF0120029000F028
:1004300097F901460298BDF82C20891ABDF81630AC
:10044000CA1A00219A42A8BF012108422AD0FFE718
:10045000BDF82C00BDF834100C9A1278FFF758FF45
:10046000BDF81610BDF82C000844ADF82C000C980F
:1004700001300C90BDF82A000130ADF82A0040F29E
:100480002810C2F20000806801900C98007805F0F6
:1004900063F80146019800EB810040680088ADF8E0
:1004A0001600BEE70EB080BD80B586B0ADF8160070
:1004B000ADF8141004920020ADF80E00ADF80C0059
:1004C0000498029002980088ADF80C0002984088C9
:1004D000ADF80E00BDF81600BDF81410BDF80C20E4
:1004E000BDF80E3004F036FD40F2BC00C2F2000050
:1004F0000068006B68B1FFE740F2BC00C2F2000088
:100500000068036BBDF81600BDF81410049A9847F4
:10051000FFE700F025F9019000F02CF9019A03465D
:100520000021084604F016FD06B080BD80B584B0F9
:10053000ADF80E00ADF80C10ADF80A2000200190C7
:1005400040F2BC00C2F200000068006AA0B1FFE700
:1005500040F2BC00C2F200000068D0F820C040F2B7
:100560002810C2F200000088BDF80E10BDF80C2063
:10057000BDF80A30E0471CE000200190FFE7019839
:10058000BDF80A10884213D2FFE7BDF80E000199AA
:100590000844BDF80C1040F22812C2F20002128882
:1005A00080B200F009F8FFE7019801300190E6E71A
:1005B000FFE704B080BD000080B582B0ADF8060052
:1005C000ADF80410ADF8022040F2BC00C2F2000009
:1005D0000068406970B1FFE740F2BC00C2F2000061
:1005E00000684369BDF80600BDF80410BDF802209C
:1005F0009847FFE702B080BD80B582B0ADF8060035
:10060000ADF80410ADF80220ADF80030BDF80600DA
:10061000BDF80410BDF80220FFF788FFBDF8060002
:10062000BDF80410BDF8002011440139BDF80220C6
:1006300089B2FFF77BFFBDF80600BDF80410BDF8D6
:10064000002000F00FF8BDF80600BDF802100844C5
:100650000138BDF80410BDF8002080B200F002F8A7
:1006600002B080BD80B584B0ADF80E00ADF80C10BE
:10067000ADF80A200020019040F2BC00C2F2000058
:100680000068406AA0B1FFE740F2BC00C2F200007F
:100690000068D0F824C040F22810C2F200000088A0
:1006A000BDF80E10BDF80C20BDF80A30E0471CE084
:1006B00000200190FFE70198BDF80A10884213D28C
:1006C000FFE7BDF80E00BDF80C10019A114440F28E
:1006D0002812C2F20002128889B2FFF76DFFFFE70D
:1006E000019801300190E6E7FFE704B080BD00000B
:1006F00010B584B0ADF80E00ADF80C10ADF80A20BE
:10070000ADF8083040F2BC00C2F200000068D0F83A
:1007100038C0BDF80E00BDF80C10BDF80A20BDF8B9
:10072000083040F2281EC2F2000EBEF800E06C460F
:10073000C4F800E0E04704B010BD000040F228100B
:10074000C2F200008088704740F22810C2F2000018
:100750008068704740F22810C2F20000008870479D
:1007600080B540F2BC00C2F200000068806A804799
:1007700080BD000080B540F2BC00C2F200000068FD
:10078000C06A804780BD000080B582B001208DF82E
:10079000070040F2BC00C2F2000000680068804719
:1007A00040F22812C2F200024FF6FF7050600021A2
:1007B0000091116047F2C871C0F600019160FFF727
:1007C00089FD00988DF807009DF8070002B080BDF4
:1007D00081B0ADF80200BDF8020040F22811C2F26B
:1007E0000001486001B0704781B00090009840F26D
:1007F0002811C2F20001886001B0704781B0ADF8E5
:100800000200BDF8020040F22811C2F200010860A7
:1008100001B0704780B588B0079000208DF80700C0
:10082000FFE79DF80700092814DCFFE740F2C0004D
:10083000C2F200000068016900208847079908801B
:100840000A2002F013FEFFE79DF8070001308DF843
:100850000700E6E740F2C000C2F20000006801694C
:1008600000208847079908800798008800287AD0D8
:10087000FFE740F2C000C2F20000006843690020B8
:100880000DF11A0106AA9847BDF81A000590BDF8A7
:100890001800049005980799886004980799C86023
:1008A000059840F62631C2F20001B1F90010484324
:1008B000C11700EB915140F24010C2F20000B0F9B4
:1008C000000000EBA1200390049840F62831C2F20A
:1008D0000001B1F900104843C11700EB915140F2FB
:1008E0004210C2F20000B0F9000000EBA12002901B
:1008F0000398B0F1FF3F03DCFFE70020039011E015
:10090000039840F23611C2F200010988884208DBE0
:10091000FFE740F23610C2F2000000880138039071
:10092000FFE7FFE70298B0F1FF3F03DCFFE700209D
:10093000029011E0029840F23811C2F200010988D9
:10094000884208DBFFE740F23810C2F2000000885E
:1009500001380290FFE7FFE7039807994880029863
:1009600007998880FFE708B080BD000080B582B09D
:10097000ADF80600ADF8041001208DF80300BDF8B5
:10098000060040F23611C2F200010880BDF80400F2
:1009900040F23811C2F20001088040F24C00C2F26D
:1009A000000000680078C00718B9FFE704F010F8ED
:1009B00034E040F63C30C2F200008068012808D1E3
:1009C000FFE740F63C30C2F200004068022803D046
:1009D000FFE703F0FDFF20E040F24C00C2F2000010
:1009E0000168096A40F62632C2F2000211800168ED
:1009F000896A40F24012C2F2000211800168496A1D
:100A000040F62832C2F2000211800068C06A40F24B
:100A10004211C2F200010880FFE7FFE740F2C00088
:100A2000C2F20000006820B1FFE700208DF803004B
:100A3000FFE79DF8030048B9FFE740F2C000C2F2AB
:100A400000000068016800208847FFE79DF8030068
:100A500002B080BD82B0ADF80600ADF80410ADF86C
:100A60000220ADF80030BDF8060040F62631C2F293
:100A700000010880BDF8040040F62831C2F20001F0
:100A80000880BDF8020040F24011C2F20001088067
:100A9000BDF8000040F24211C2F20001088002B02D
:100AA00070470000FFE7FEE77047000080B58AB09E
:100AB00084460D980C98ADF826C0ADF82410ADF81A
:100AC0002220ADF820308DF81F009DF81F0001286E
:100AD00009D1FFE74FF2DE700290FFF78FFE029818
:100AE000FFF776FE08E04FF2BE700190FFF786FE3A
:100AF0000198FFF76DFEFFE7BDF82600BDF8241052
:100B0000BDF82220BDF82030FFF7F2FD0020009054
:100B1000FFF774FE47F2C870C0F60000FFF764FEEE
:100B20000098069005900D980490FFE70498411CEA
:100B30000491007820B1FFE7069801300690F5E7B0
:100B4000BDF82210BDF8260000EB5100ADF80E00F4
:100B5000BDF82010BDF8240000EB51000C38ADF8B2
:100B60000C00BDF80E00BDF80C100D9A0123FFF724
:100B7000F1FB0AB080BD000080B58CB0ADF82E004E
:100B8000ADF82C100A920020ADF82600ADF8240034
:100B900040F22811C2F2000189680988ADF82610D8
:100BA0000A99089108990988ADF8241040F2441177
:100BB000C2F200010791BDF82610079A5180BDF8D6
:100BC0002410079A1180BDF82410BDF82620514347
:100BD000079A51608021069105900490BDF8240089
:100BE000C0080390BDF82400400720B1FFE7039838
:100BF00001300390FFE70898049A039B059902FBD4
:100C0000031210440131059180788DF80B0000200B
:100C10000190FFE70198BDF82610BDF8242051434C
:100C2000B0EB410F73DAFFE79DF80B00069908421D
:100C300012D0FFE740F22810C2F200000168090A52
:100C4000019B40F24412C2F2000213445972006840
:100C500001991144087219E040F22810C2F2000014
:100C60004168090A8DF8031040688DF802009DF86C
:100C70000300019940F24412C2F20002114448728A
:100C80009DF80200019911440872FFE70698401090
:100C90000690069870B1FFE7019800EBD071012033
:100CA00000EB6102BDF8241092FBF1F000FB112073
:100CB00040BBFFE70598039988420DD1FFE700206C
:100CC00005900498013004900498BDF826108842DD
:100CD00001D1FFE71BE0FFE7802006900498BDF8F4
:100CE0002610884201DBFFE711E00898049A039B75
:100CF000059902FB031210440131059180788DF8AB
:100D00000B00FFE7FFE701980230019082E7BDF892
:100D10002E00BDF82C1040F24412C2F20002FFF780
:100D2000C3FB0CB080BD000080B54FF4006000F044
:100D3000C9FEB8B1FFE74FF4006000F085FD40F652
:100D40000000C4F201000821C0F2084101F02CF8B3
:100D500038B9FFE740F63831C2F2000101200870CF
:100D6000FFE7FFE74FF4004000F0ACFE28B1FFE7DB
:100D70004FF4004000F068FDFFE780BD80B508201B
:100D800000F0A0FEC0B1FFE7082000F05DFD40F6D6
:100D90000000C4F2010040F6080101F005F838B97E
:100DA000FFE740F63831C2F2000101200870FFE78A
:100DB000082000F049FDFFE780BD000081B0EFF39F
:100DC000108072B60090FFE7FEE7000080B582B0A9
:100DD000EFF3108072B60190FFE742F20C00C4F20C
:100DE00002000068C00708B1FFE7F6E706F034FA32
:100DF00042F20C00C4F2020000688006002809D507
:100E0000FFE742F20C01C4F20201086840F0200042
:100E10000860FFE742F21001C4F20201086840F0E6
:100E20000200086042F21402C4F202020020C0F67E
:100E300004001060086840F040000860FFE742F2DC
:100E40000C00C4F2020000688006002801D4FFE70D
:100E5000F5E742F20C01C4F202012020086042F2E0
:100E60001001C4F20201086820F00200086005F0D9
:100E7000B3F962B6012002B080BD000080B540F633
:100E8000E420C2F200000078C00718B9FFE705F0BF
:100E900043F9FFE740F6E420C2F2000080BD000005
:100EA00080B586B0FFF792FF20B9FFE701208DF8EB
:100EB000130092E0EFF3108072B60590FFE742F264
:100EC0000C00C4F202000068C00708B1FFE7F6E7B3
:100ED00006F0C2F942F20C00C4F20200006880067B
:100EE000002809D5FFE742F20C01C4F202010868AC
:100EF00040F020000860FFE742F21001C4F2020156
:100F0000086840F00100086040F6E420C2F20000EA
:100F1000043003900C20029000208DF80700FFE7BA
:100F20009DF807000299B0EB410F41D2FFE703980B
:100F300000889DF807200021C0F6040121F8120066
:100F4000039802300390FFE742F20C00C4F2020063
:100F50000068800600281ED4FFE742F20C00C4F2AD
:100F6000020000684007002814D5FFE705F034F9B7
:100F700042F21001C4F20201086820F0010008608A
:100F800042F20C01C4F202010420086001208DF835
:100F9000130022E0D8E742F20C01C4F20201202043
:100FA0000860FFE79DF8070001308DF80700B7E7FC
:100FB00042F21001C4F20201086820F0010008604A
:100FC00005F00AF940F6E421C2F200010020487061
:100FD00062B601208DF81300FFE79DF8130006B0FC
:100FE00080BD0000FFE7FEE780B582B00190019868
:100FF00002F03CFA02B080BD81B08DF803009DF88C
:10100000030038B1FFE740F29811C4F22221012019
:10101000086006E040F29811C4F222210020086026
:10102000FFE701B07047000081B00090FFE7009833
:10103000411E009108B1FFE7F9E701B070470000D9
:1010400080B582B041F21801C4F20201086840F094
:101050001C00086040F28011C4F22121009101209F
:101060000190086040F6000CC4F2010CDCF800109E
:10107000022363F30301CCF8001040F29811C4F28C
:101080002221086041F20002C4F20102116863F3F8
:101090001B61116040F28411C4F22121086040F20A
:1010A0009011C4F22221086040F28811C4F221217B
:1010B000086040F29411C4F222210860DCF80010AC
:1010C000032363F30711CCF80010116863F3134195
:1010D0001160DCF8001063F30B21CCF800101168EC
:1010E00063F31751116040F60042C4F201024FF061
:1010F0003331116040F60442C4F201021160FFF77F
:1011000073FF009A019800211160FFF76DFF0099AD
:1011100001980860FFF768FF02B080BD80B590B00D
:101120008DF83F000E910D920C9340F28411C4F2A1
:1011300021210020086040F29011C4F2222109917F
:1011400008609DF83F2040F62A31C2F200010A8073
:10115000098840F60C42C4F20102116040F2881185
:10116000C4F22121089108600720FFF75DFF089A6B
:10117000099901201060086040F60041C4F20101A5
:101180004FF04430086040F60441C4F201010860A9
:10119000FFE70C98411E0C9170B1FFE740F29411EB
:1011A000C4F222210791002008601120FFF73CFFC4
:1011B000079901200860ECE7FFE70D98411E0D91AB
:1011C000002874D0FFE740F29411C4F22221059167
:1011D00000200190086011200290FFF725FF01997F
:1011E0000298059A40F60843C4F201030393D3F82A
:1011F00000C040F62A33C2F200030493A3F800C0F3
:101200001B88ADF828300123069313601160FFF7A7
:101210000BFF01990298DDF810C0059A069BDDF8D6
:101220000CE0DEF800E0ACF800E0BCF800C0ADF87F
:101230002AC013601160FFF7F7FE039B049A05991B
:1012400006981B6813801288ADF82C2008609DF862
:1012500028209DF829009DF82B1000F0F8000002CE
:1012600002F0FC0240EAC20040EAD1000E99088078
:101270000E9802300E900D98C0B1FFE79DF82A003D
:101280009DF82C109DF82D2000F0F800000202F0CF
:10129000FC0240EAC20040EAD1000E9908800E9894
:1012A00002300E900D9801380D90FFE785E740F26F
:1012B0008411C4F221210120086040F60041C4F2EB
:1012C00001014FF03330086040F60441C4F20101DF
:1012D000086010B080BD000080B58AB08DF827008E
:1012E00008910792069340F28411C4F22121002054
:1012F000086040F29011C4F22221049108609DF828
:10130000272040F62A31C2F200010A80098840F6FF
:101310000C42C4F20102116040F28811C4F2212192
:10132000039108600720FFF77FFE039A04990120CC
:101330001060086040F60041C4F201014FF04430F3
:10134000086040F60441C4F201010860FFE7069816
:10135000411E069170B1FFE740F29411C4F22221C0
:101360000291002008601120FFF75EFE0299012023
:101370000860ECE7FFE70798411E079110B3FFE70D
:1013800040F29411C4F22221019100200860112042
:10139000FFF74AFE019940F60840C4F201000268D6
:1013A00040F62A30C2F2000002800088ADF8160034
:1013B000012008609DF8160008990870089801300F
:1013C0000890D8E740F28411C4F22121012008607E
:1013D00040F60041C4F201014FF03330086040F69E
:1013E0000441C4F2010108600AB080BD80B584B038
:1013F0008DF80F0040F28411C4F2212102910020E7
:10140000086040F29011C4F22221019108609DF819
:101410000F2040F62A31C2F200010A80098840F606
:101420000C42C4F20102116040F28811C4F2212181
:10143000009108600720FFF7F7FD009B019A0299D1
:10144000012018601060086004B080BD80B586B0CF
:101450008DF81700ADF81410049240F28411C4F214
:1014600021210020086040F29011C4F22221039152
:1014700008609DF8172040F62A31C2F200010A8068
:10148000098840F60C42C4F20102116040F2881152
:10149000C4F22121029108600720FFF7C5FD029ADE
:1014A0000399012010600860FFE70498411E049131
:1014B000D8B1FFE7BDF8141040F62A30C2F20000A0
:1014C0000180008840F60C41C4F20101086040F23E
:1014D0008811C4F221210191002008600720FFF744
:1014E000A3FD019901200860DFE740F28411C4F2F6
:1014F00021210120086006B080BD000080B586B0C3
:101500008DF817000491039240F28411C4F2212156
:101510000020086040F29011C4F22221029108607C
:101520009DF8172040F62A31C2F200010A8009888E
:1015300040F60C42C4F20102116040F28811C4F27C
:101540002121019108600720FFF76EFD019A0299A1
:10155000012010600860FFE70398411E0391F0B17D
:10156000FFE70498018840F62A30C2F200000180AB
:10157000008840F60C41C4F20101086040F2881175
:10158000C4F221210091002008600720FFF74CFDE4
:10159000009901200860049802300490DCE740F2D2
:1015A0008411C4F221210120086006B080BD000032
:1015B00080B586B08DF817000491039240F2841133
:1015C000C4F221210020086040F29011C4F22221CF
:1015D000029108609DF8172040F62A31C2F20001FE
:1015E0000A80098840F60C42C4F20102116040F200
:1015F0008811C4F22121019108600720FFF714FD32
:10160000019A0299012010600860FFE70398411ECB
:101610000391F0B1FFE70498017840F62A30C2F256
:1016200000000180008840F60C41C4F2010108600E
:1016300040F28811C4F221210091002008600720A7
:10164000FFF7F2FC00990120086004980130049033
:10165000DCE740F28411C4F221210120086006B0C9
:1016600080BD000080B584B0ADF80E0040F284115A
:10167000C4F22121029100200860BDF80E2040F63E
:101680002A31C2F200010A80098840F60C42C4F2F5
:101690000102116040F28811C4F221210191086019
:1016A0000720FFF7C1FC019A029901201060086031
:1016B00004B080BD80B584B08DF80F0040F2841175
:1016C000C4F221210291002008609DF80F2040F60D
:1016D0002A31C2F200010A80098840F60C42C4F2A5
:1016E0000102116040F28811C4F2212101910860C9
:1016F0000720FFF799FC019A029901201060086009
:1017000004B080BD82B00190019A41F21C00C4F285
:1017100002000168114301600068019908400090CF
:10172000009802B07047000082B00190019A41F227
:101730001C00C4F2020001681143016000680199B5
:1017400008400090009802B07047000082B00190FD
:10175000019A41F21C00C4F20200016811430160C9
:101760000068019908400090009802B0704700009E
:1017700082B00190019A41F21C00C4F2020001689B
:10178000114301600068019908400090009802B080
:101790007047000082B00190019A41F21800C4F233
:1017A000020001681143016000680199084000903F
:1017B000009802B07047000082B00190019A41F297
:1017C0001800C4F202000168114301600068019929
:1017D00008400090009802B07047000082B001906D
:1017E000019A41F21800C4F202000168114301603D
:1017F0000068019908400090009802B0704700000E
:1018000082B00190019A41F21800C4F2020001680E
:10181000114301600068019908400090009802B0EF
:101820007047000082B00190019A41F21800C4F2A2
:1018300002000168114301600068019908400090AE
:10184000009802B07047000081B00090009840F20C
:101850001441C4F20101086001B0704781B00090EA
:10186000009A40F20441C4F2010108689043086004
:1018700001B0704781B00090009A40F20C41C4F270
:10188000010108689043086001B0704781B0009082
:10189000009A40F20041C4F20101086890430860D8
:1018A00001B0704781B00090009A40F20841C4F244
:1018B000010108689043086001B0704781B0009052
:1018C000009A40F20441C4F2010108681043086024
:1018D00001B0704781B00090009A40F20C41C4F210
:1018E000010108681043086001B0704781B00090A2
:1018F000009A40F20041C4F20101086810430860F8
:1019000001B0704781B00090009A40F20841C4F2E3
:10191000010108681043086001B0704780B584B0C9
:10192000039000208DF80B0003984088C00808B988
:10193000FFE707E043F6EF50C0F603006E2103F027
:1019400005FEFFE70398007928B1FFE703980079C7
:10195000012801D1FFE707E043F6EF50C0F603008E
:101960006F2103F0F3FDFFE70398407950B1FFE7E3
:1019700003984079012805D0FFE7039840790228B1
:1019800001D1FFE707E043F6EF50C0F603007021F6
:1019900003F0DCFDFFE703980079002800F0848065
:1019A000FFE70398807978B1FFE7039880790128F1
:1019B0000AD0FFE703988079022805D0FFE7039853
:1019C0008079032801D1FFE707E043F6EF50C0F626
:1019D0000300752103F0BAFDFFE7039800680028B3
:1019E00061D0FFE7039840790146019140B1FFE7DC
:1019F000019801280DD0FFE70198022812D01AE0C3
:101A000003980068FFF72AFF03980068FFF76EFF4E
:101A100015E003980068FFF739FF03980068FFF7A7
:101A20004DFF0CE003980068FFF760FF0398006823
:101A3000FFF744FF03E001208DF80B00FFE7039858
:101A4000807978B3FFE703988079014600910128F7
:101A500008D0FFE7009802280DD0FFE70098032880
:101A600012D01AE003980068FFF704FF039800689B
:101A7000FFF748FF15E003980068FFF713FF03988E
:101A80000068FFF727FF0CE003980068FFF73AFFB4
:101A900003980068FFF71EFF03E001208DF80B009C
:101AA000FFE7FFE7FFE708E003980068FFF7EEFEB7
:101AB00003980068FFF7D2FEFFE79DF80B0004B023
:101AC00080BD000081B0009040F21440C4F20100DB
:101AD000006800990840401AB0FA80F0400901B04F
:101AE0007047000042F20000C4F20200006800F0FB
:101AF0000700704781B0009042F20001C4F2020179
:101B0000086820F00700009A1043086001B0704791
:101B10000421C4F20101086840F60042C0F20072DC
:101B200010430860704700000421C4F201010868F6
:101B300020F0E0600860086840F0007008607047BE
:101B400082B0019000919DF800000821C4F20101CB
:101B500051F82000009A4FEA124C20EA1240019BF3
:101B60009CFAACFCBCFA8CFC03FA0CF31843D2B21E
:101B700041F8220002B0704780B586B0059004910C
:101B8000059840F60001C4F20101884230D0FFE719
:101B9000059840F60041C4F20101884228D0FFE7D1
:101BA000059841F20001C4F20101884220D0FFE70C
:101BB000059841F20041C4F20101884218D0FFE7C4
:101BC000059841F60001C4F20101884210D0FFE7F8
:101BD000059841F60041C4F20101884208D0FFE7B0
:101BE000059842F20001C4F20101884201D1FFE7E9
:101BF00007E043F68050C0F60300A32103F0A6FCE3
:101C0000FFE7049800686FF07B41084207D0FFE7C8
:101C10000498C07810F0FB0F01D1FFE707E043F60E
:101C20008050C0F60300A42103F090FCFFE7049865
:101C30000068C0F30F200390039890FAA0F0B0FA68
:101C400080F00290FFE703980299C840002800F056
:101C5000A880FFE703980299C840C007002800F059
:101C60009C80FFE70298072806D8FFE7029940F218
:101C700001108840019009E00298A0F108014FF09E
:101C80000110884040F080600190FFE704984068B0
:101C9000082819D1FFE70498006928B1FFE70498E4
:101CA0000069012801D1FFE707E043F68050C0F644
:101CB0000300BF2103F04AFCFFE705980199049A4D
:101CC000126900F0E1F8FFE704984068A0B1FFE76F
:101CD0000498406804280FD0FFE70498406808285B
:101CE0000AD0FFE704984068012805D0FFE7049870
:101CF0004068092801D1FFE707E043F68050C0F6AD
:101D00000300C62103F022FCFFE705980199049A1D
:101D1000526800F085F804984068012805D0FFE774
:101D200004984068092837D1FFE7049880680228A2
:101D30000AD0FFE704988068012805D0FFE70498DF
:101D40008068032801D1FFE707E043F68050C0F622
:101D50000300CE2103F0FAFBFFE70498C06828B126
:101D6000FFE70498C068042801D1FFE707E043F6C5
:101D70008050C0F60300CF2103F0E8FBFFE7059891
:101D80000199049A926800F095F805980199049ACF
:101D9000D26800F05FF8FFE7FFE702980130029099
:101DA00051E7002006B080BD82B0019000910198FB
:101DB0008068BDF801100840401AB0FA80F0400970
:101DC00002B0704782B001900091BDF80100019906
:101DD000486102B07047000082B001900091BDF8E8
:101DE00001000199086102B07047000084B00390BF
:101DF0000291019203989DF80B10084400900099FD
:101E00000868029A92FAA2F2B2FA82F293000F22C2
:101E10009A409043019A9A401043086004B070477A
:101E200084B003900291019203989DF80B1008442E
:101E3000009000990868029A92FAA2F2B2FA82F22D
:101E400093000F229A409043019A9A4010430860F1
:101E500004B0704784B003900291019203989DF8FA
:101E60000B100844009000990868029A92FAA2F2B6
:101E7000B2FA82F2930004229A409043019A9A4067
:101E80001043086004B0704783B002900191009243
:101E90000298C06801990A0A20EA1120009992FA72
:101EA000A2F2B2FA82F2914008430299C86003B0EC
:101EB0007047000084B003900291019203989DF84E
:101EC0000B100844009000990868029A92FAA2F256
:101ED000B2FA82F2930003229A409043019A9A4008
:101EE0001043086004B0704784B0039002910398D7
:101EF000C0680190BDF809000090019A009802EABC
:101F00000001904340EA01400399086104B0704722
:101F100080B582B0019001984FF47A7100F002F818
:101F200002B080BD82B00190009101980099B0FB91
:101F3000F1F001384EF21401CEF2000108604EF2C9
:101F40001801CEF20001002008604EF21001CEF21E
:101F500000010520086002B07047000047F2000150
:101F6000C4F20001086840F4807008607047000007
:101F700041F22001C4F20201086840F40040086008
:101F80007047000041F20400C4F20200006800F053
:101F9000F000704741F20400C4F20200006800F44F
:101FA000E060704741F20400C4F20200006800F4EF
:101FB0006050704741F20400C4F20200006800F073
:101FC0000C00704741F20400C4F20200006800F007
:101FD0000C00704780B582B0019002F0C7FB0199F8
:101FE00008600198006802F089FB01994860019837
:101FF000406802F097FB019988600198406802F000
:10200000A3FB0199C86002B080BD000041F200014D
:10201000C4F20201086840F4803008607047000094
:1020200041F20000C4F202000068C0F34040704773
:1020300082B00190009141F20401C4F202010868EB
:1020400020F47C10019A02F44032009B1A431043A2
:10205000086002B07047000041F20001C4F20201C2
:10206000086840F0807008607047000041F204008A
:10207000C4F20200006800F48030704741F20400AE
:10208000C4F20200006800F47010704741F20400CE
:10209000C4F202000068C0F34040704741F2000003
:1020A000C4F202000068C0F34060704781B0009045
:1020B00041F20401C4F20201086820F0F000009A25
:1020C0001043086001B0704781B0009041F20401F4
:1020D000C4F20201086820F4E060009A104308602E
:1020E00001B0704781B0009041F20401C4F20201D6
:1020F000086820F46050009A1043086001B07047EF
:1021000081B0009041F20401C4F20201086820F09D
:102110000300009A1043086001B0704781B000903E
:102120000099486820F00200486001B07047000044
:1021300081B000900099486820F00400486001B028
:102140007047000081B000900099486820F00800B6
:10215000486001B07047000081B000900099486865
:1021600020F00100486001B07047000081B000908D
:102170000099486820F00100486001B070470000F5
:1021800081B000900099486840F01000486001B0AC
:102190007047000081B000900099086840F001008D
:1021A000086001B07047000081B000900099486855
:1021B00020F01000486001B07047000080B586B084
:1021C00005904FF47A70049000208DF80F00029073
:1021D000059842F60001C4F20001884201D1FFE7F0
:1021E00008E043F6B850C0F603004FF4BA7103F0AC
:1021F000ADF9FFE7059800F001F90290FFE70499B7
:102200000020019031B1FFE70298013818BF01208A
:102210000190FFE70198C007A8B1FFE700F0FCFBC1
:10222000012804D1FFE7049801380490FFE70598DE
:1022300000F0E4F80290049820B9FFE701208DF83F
:102240000F00FFE7DBE70598FFF79AFF9DF80F0007
:1022500006B080BD80B586B005904FF47A700490CA
:1022600000208DF80F000290059842F60001C4F29C
:102270000001884201D1FFE708E043F6B850C0F6FC
:10228000030040F29B1103F061F9FFE70598FFF7A7
:102290008BFF059800F0B2F80290FFE70499002048
:1022A000019031B1FFE70298013818BF0120019079
:1022B000FFE70198C007A8B1FFE700F0ADFB0128D8
:1022C00004D1FFE7049801380490FFE7059800F077
:1022D00095F80290049820B9FFE701208DF80F00CF
:1022E000FFE7DBE79DF80F0006B080BD80B584B046
:1022F0000390029101208DF80700039842F6000137
:10230000C4F20001884201D1FFE707E043F6B8506C
:10231000C0F60300A22103F019F9FFE70298016853
:102320000020B0EB115F01D1FFE707E043F6B850A2
:10233000C0F60300A32103F009F9FFE70298406803
:1023400088B1FFE70298406880280CD0FFE7029828
:102350004068B0F5807F06D0FFE702984068B0F58E
:10236000407F01D1FFE707E043F6B850C0F6030015
:10237000A42103F0EBF8FFE7039800F087F90128A8
:102380002FD0FFE70398FFF719FF012828D0FFE7B8
:102390000398FFF7C3FE0398FFF7CAFE0398FFF701
:1023A000E5FE0298406838B1FFE746F60040C4F207
:1023B000000000F065F8FFE70298416846F600402B
:1023C000C4F2000000F04EF803980299096800F08A
:1023D00033F80398FFF73EFF00208DF80700FFE772
:1023E000FFE79DF8070004B080BD000081B00090B9
:1023F00000984068C0F3C00001B0704781B0009001
:1024000000984068C0F3401001B0704782B001905E
:1024100000910198806820F00F00BDF80210084379
:10242000019988600198C068009961F30F000199D3
:10243000C86002B07047000082B00190009101981E
:10244000806820F00F00BDF80210084301998860F1
:102450000198C068009961F30F000199C86002B04B
:102460007047000082B0019000910198C06A20F48A
:102470006070009908430199C86202B0704700007B
:1024800081B0009046F63041C4F20001086820F0A7
:102490000100086001B0704780B586B005900491D6
:1024A000039201208DF80B0000200190059842F660
:1024B0000001C4F20001884201D1FFE707E043F6C2
:1024C000B850C0F60300E42103F040F8FFE7049899
:1024D00020B1FFE70498012801D1FFE707E043F6A8
:1024E000B850C0F60300E52103F030F8FFE7049888
:1024F00058BBFFE703980078172801D8FFE707E0EB
:1025000043F6B850C0F60300E92103F01FF8FFE7D7
:10251000039840783B2801D8FFE707E043F6B8501E
:10252000C0F60300EA2103F011F8FFE70398807872
:102530003B2801D8FFE707E043F6B850C0F6030098
:10254000EB2103F003F8FFE742E00398007801096C
:1025500001EB810100F00F0000EB4100C0B2172831
:1025600001D8FFE707E043F6B850C0F60300EF21BB
:1025700002F0ECFFFFE703984078010901EB8101CD
:1025800000F00F0000EB4100C0B23B2801D8FFE78C
:1025900007E043F6B850C0F60300F02102F0D6FF82
:1025A000FFE703988078010901EB810100F00F003B
:1025B00000EB4100C0B23B2801D8FFE707E043F63B
:1025C000B850C0F60300F12102F0C0FFFFE7FFE7BB
:1025D0000598FFF7F3FD012843D0FFE7049890B971
:1025E000FFE7039908784A7889784FF46163584384
:1025F000C2EB021200EB8200084401900598019999
:1026000000F036F829E0039908784A7889780309B8
:1026100003EB830300F00F0000EB4300C0B24FF464
:1026200061635843130903EB830302F00F0202EBCB
:102630004302D2B2C2EB021200EB82000A0902EBA3
:10264000820201F00F0101EB4201C9B2084401907E
:102650000598019900F00CF8FFE700208DF80B00B9
:10266000FFE70598FFF7F6FD9DF80B0006B080BD6B
:1026700082B001900091BDF8020001998861BDF817
:1026800000000199C86102B07047000080B586B0B3
:1026900005904FF47A70049000208DF80F0002909E
:1026A000059842F60001C4F20001884201D1FFE71B
:1026B00008E043F6B850C0F6030040F2F51102F00E
:1026C00045FFFFE70598FFF73DFD0598FFF78EFEF4
:1026D0000290FFE704990020019031B1FFE70298D2
:1026E000002818BF01200190FFE70198C007A8B19A
:1026F000FFE700F091F9012804D1FFE704980138C1
:102700000490FFE70598FFF771FE0290049820B946
:10271000FFE701208DF80F00FFE7DBE79DF80F00D2
:1027200006B080BD81B000900099086840F040007C
:10273000086001B07047000080B584B0039002913A
:1027400001208DF80700039843F20001C4F2010153
:10275000884210D0FFE7039843F60001C4F200015D
:10276000884208D0FFE7039843F60041C4F2000115
:10277000884201D1FFE707E043F62760C0F6030077
:10278000B72102F0E3FEFFE70298006890B1FFE78F
:1027900002980068B0F5806F0CD0FFE702980068DF
:1027A000B0F5004F06D0FFE702980068B0F5404F43
:1027B00001D1FFE707E043F62760C0F60300BA2126
:1027C00002F0C4FEFFE702984068B0F5827F04D0B3
:1027D000FFE70298406808B9FFE707E043F6276083
:1027E000C0F60300BB2102F0B1FEFFE7029880684B
:1027F00030B1FFE702988068B0F5006F01D1FFE7C4
:1028000007E043F62760C0F60300BC2102F09EFEFD
:10281000FFE70298C06828B1FFE70298C068022865
:1028200001D1FFE707E043F62760C0F60300BD21B2
:1028300002F08CFEFFE70298006928B1FFE70298DA
:102840000069012801D1FFE707E043F62760C0F6E1
:102850000300BE2102F07AFEFFE702984069B0F55E
:10286000007F0AD0FFE70298406930B1FFE7029885
:102870004069B0F5802F01D1FFE707E043F62760FC
:10288000C0F60300BF2102F061FEFFE702988069F5
:1028900018B3FFE70298806908281ED0FFE7029866
:1028A0008069102819D0FFE702988069182814D091
:1028B000FFE70298806920280FD0FFE7029880691F
:1028C00028280AD0FFE702988069302805D0FFE762
:1028D00002988069382801D1FFE707E043F62760B6
:1028E000C0F60300C02102F031FEFFE70298C06984
:1028F000802804D0FFE70298C06908B9FFE707E025
:1029000043F62760C0F60300C12102F01FFEFFE777
:102910000298006AB0F5005F04D0FFE70298006AF1
:1029200008B9FFE707E043F62760C0F60300C221BD
:1029300002F00CFEFFE7039800F052F8002845D1A2
:10294000FFE7039800684FF6BF718843029A009230
:102950001168D2F804E0D2F808C0D36841EA0E0149
:1029600041EA0C01194313691943536919439369E7
:102970001943D3691943126A114308430399086044
:102980000398406820F004000299C98A084303991B
:1029900048600298006AB0F5005F13D1FFE7029823
:1029A000406A08B1FFE707E043F62760C0F603007E
:1029B000E52102F0CBFDFFE703980299496A00F098
:1029C00017F8FFE700208DF80700FFE70399C869B3
:1029D00020F40060C8619DF8070004B080BD0000CD
:1029E00081B0009000980068C0F3801001B070477B
:1029F00082B001900091BDF800000199086102B019
:102A0000704700004EF21001CEF20001086840F05D
:102A100002000860704700004EF21000CEF2000085
:102A20000068C0F30040704781B00090009840F209
:102A30004801C2F20001086001B0704780B584B05F
:102A40000390029100200190039842F60041C4F2E5
:102A50000101884208D0FFE7039843F20041C4F225
:102A60000101884201D1FFE708E043F65E60C0F64D
:102A7000030040F2CA2102F069FDFFE702980068F6
:102A800030B1FFE702980068B0F5006F01D1FFE7B1
:102A900008E043F65E60C0F6030040F2CB2102F08E
:102AA00055FDFFE70298406830B1FFE702984068A3
:102AB000B0F5806F01D1FFE708E043F65E60C0F635
:102AC00003004FF4337102F041FDFFE70298806884
:102AD00090B1FFE702988068B0F5807F0CD0FFE7E7
:102AE00002988068B0F5007F06D0FFE70298806802
:102AF000B0F5407F01D1FFE708E043F65E60C0F625
:102B0000030040F2CD2102F021FDFFE70298C089C9
:102B100030B1FFE70298C089B0F5805F01D1FFE7CF
:102B200008E043F65E60C0F6030040F2CE2102F0FA
:102B30000DFDFFE70298006930B1FFE702980069D8
:102B4000B0F5005F01D1FFE708E043F65E60C0F634
:102B5000030040F2CF2102F0F9FCFFE70298406940
:102B600030B1FFE702984069B0F5804F01D1FFE72F
:102B700008E043F65E60C0F603004FF4347102F0E3
:102B8000E5FCFFE70298007B8DF80400019820F433
:102B900040700299896808430190019820F4806090
:102BA0000299496808430190019820F40060029955
:102BB000096808430190019820F480500299C9895E
:102BC00008430190019820F40050029909690843D4
:102BD0000190019820F480400299496908430190CE
:102BE000019820F400400299496908430190019836
:102BF00003994864002004B080BD000081B00090BB
:102C00000099086820F08000086001B0704700005B
:102C100081B000900099886820F08000886001B041
:102C20007047000081B000900099486940F00100B1
:102C3000486101B07047000080B584B003900291F4
:102C4000039842F60041C4F20101884235D0FFE703
:102C5000039843F20041C4F2010188422DD0FFE7FE
:102C60000398B0F1804F28D0FFE7039840F200416D
:102C7000C4F20001884220D0FFE7039840F600012B
:102C8000C4F20001884218D0FFE7039840F60041E3
:102C9000C4F20001884210D0FFE7039841F200011E
:102CA000C4F20001884208D0FFE7039841F20041D6
:102CB000C4F20001884201D1FFE708E043F65E60FC
:102CC000C0F603004FF4A57102F040FCFFE7029844
:102CD0004068A0B1FFE70298406810280FD0FFE7D6
:102CE0000298406840280AD0FFE7029840682028F0
:102CF00005D0FFE702984068602801D1FFE708E0AF
:102D000043F65E60C0F6030040F24B1102F01EFC79
:102D1000FFE70298C06860B1FFE70298C068B0F5AD
:102D2000807F06D0FFE70298C068B0F5007F01D130
:102D3000FFE708E043F65E60C0F603004FF4A671BB
:102D400002F004FCFFE7039800680190039842F644
:102D50000041C4F20101884225D0FFE7039843F205
:102D60000041C4F2010188421DD0FFE70398B0F191
:102D7000804F18D0FFE7039840F20041C4F20001F1
:102D8000884210D0FFE7039840F60001C4F200012A
:102D9000884208D0FFE7039840F60041C4F20001E2
:102DA000884208D1FFE7019820F070000299496835
:102DB00008430190FFE7039842F60041C4F2010185
:102DC000884225D0FFE7039843F20041C4F2010195
:102DD00088421DD0FFE70398B0F1804F18D0FFE77D
:102DE000039840F20041C4F20001884210D0FFE78E
:102DF000039840F60001C4F20001884208D0FFE7C2
:102E0000039840F60041C4F20001884208D1FFE770
:102E1000019820F440700299C96808430190FFE7C7
:102E200001980399086003980299896800F032F9C3
:102E300003980299098800F043F9039842F600418B
:102E4000C4F20101884208D0FFE7039843F2004131
:102E5000C4F20101884206D1FFE70398029909698B
:102E600000F036F9FFE70398FFF7DCFE002004B01E
:102E700080BD000089B0089007910798012803D110
:102E8000FFE70020049030E00798042803D1FFE713
:102E90000120039026E00798102803D1FFE70220C5
:102EA00002901CE00798402803D1FFE7032001901F
:102EB00012E00798B0F5807F03D1FFE7042000906F
:102EC00007E007990620B1F5806F08BF0520009044
:102ED000FFE700980190FFE701980290FFE7029852
:102EE0000390FFE703980490FFE704988DF81B0018
:102EF00008989DF81B2047F2BD21C0F60001895CAF
:102F00000844183005909DF81B1047F64820C0F67D
:102F10000000415C042000FA01F205990868904322
:102F2000086009B07047000089B0089007910798C1
:102F3000012803D1FFE70020049030E0079804281F
:102F400003D1FFE70120039026E00798102803D162
:102F5000FFE7022002901CE00798402803D1FFE71A
:102F60000320019012E00798B0F5807F03D1FFE7BE
:102F70000420009007E007990620B1F5806F08BF94
:102F800005200090FFE700980190FFE7019802906C
:102F9000FFE702980390FFE703980490FFE7049887
:102FA0008DF81B0008989DF81B2047F2BD21C0F644
:102FB0000001895C0844183005909DF81B1047F605
:102FC0004820C0F60000415C082000FA01F2059993
:102FD00008681043086009B07047000080B586B0EB
:102FE00005900491039201208DF80B000498019044
:102FF00001280ED0FFE70198102811D0FFE70198B3
:10300000B0F5807F13D0FFE70198B0F5805F15D051
:103010001BE00598039900F05BFE8DF80B0015E0AE
:103020000598039900F09CFF8DF80B000EE00598C1
:10303000039901F0E1F88DF80B0007E0059803997A
:1030400001F026FA8DF80B0000E0FFE79DF80B0079
:1030500006B080BD82B0019000910098019948634C
:1030600002B0704782B00190009100980199886386
:1030700002B0704782B00190009100980199C86336
:1030800002B0704782B001900091009801990864E5
:1030900002B0704782B00190009100980199C86217
:1030A00002B0704782B0019000910198806844F2AC
:1030B00007018843009908430199886002B070476E
:1030C00082B00190009100980199886202B0704727
:1030D00082B00190009100980199086302B0704796
:1030E00082B0019000910198406820F07000009932
:1030F00008430199486002B07047000081B0009019
:103100000099086920F4904008610099486920F00E
:103110002A00486101B0704781B000900099C868EA
:1031200040F40050C86001B07047000080B588B01E
:103130000790069101208DF8170000200490079851
:1031400043F60001C4F20101884220D0FFE707984E
:1031500044F20041C4F20001884218D0FFE707980A
:1031600044F60001C4F20001884210D0FFE707983E
:1031700044F60041C4F20001884208D0FFE70798F6
:1031800045F20001C4F20001884201D1FFE707E0E7
:1031900043F69560C0F60300CE2102F0D7F9FFE7B1
:1031A000069800684AF62021C0F24401884201D8FE
:1031B000FFE707E043F69560C0F60300CF2102F079
:1031C000C5F9FFE70698406830B1FFE70698406808
:1031D000B0F5805F01D1FFE707E043F69560C0F6E8
:1031E0000300D02102F0B2F9FFE706988068B0F53D
:1031F000805F10D0FFE70698806860B1FFE706980F
:103200008068B0F5405F06D0FFE706988068B0F5AB
:10321000005F01D1FFE707E043F69560C0F60300C9
:10322000D12102F093F9FFE70698C06860B1FFE78B
:103230000698C068B0F5806F06D0FFE70698C068B2
:10324000B0F5C06F01D1FFE707E043F69560C0F627
:103250000300D22102F07AF9FFE70698006978B1FD
:10326000FFE70698006904280AD0FFE7069800697E
:10327000082805D0FFE7069800690C2801D1FFE770
:1032800007E043F69560C0F60300D32102F05EF933
:10329000FFE70698406990B1FFE706984069B0F5EE
:1032A000807F0CD0FFE706984069B0F5007F06D01C
:1032B000FFE706984069B0F5407F01D1FFE707E0DE
:1032C00043F69560C0F60300D42102F03FF9FFE712
:1032D000079800F07FF8002878D1FFE70798C068CA
:1032E00041F20C618843069A5168D3681269194308
:1032F000114308430799C86007980699896800F048
:10330000A7F807980699496900F094F86846FEF70F
:1033100061FE079843F60001C4F20101884203D11F
:10332000FFE70398049030E0079844F20041C4F2AC
:103330000001884203D1FFE70298049024E0079837
:1033400044F60001C4F20001884203D1FFE702986D
:10335000049018E0079844F60041C4F20001884246
:1033600003D1FFE7029804900CE0079845F20001B2
:10337000C4F20001884203D1FFE70298049000E004
:10338000FFE7FFE7FFE7FFE7FFE70498E8B1FFE7A4
:1033900006980068C8B1FFE700208DF8170007986D
:1033A0000499069A126800F01DF8079880681028A2
:1033B00001D3FFE708E043F69560C0F603004FF441
:1033C0009B7102F0C3F8FFE7FFE7FFE79DF81700E6
:1033D00008B080BD81B000900098C068C0F3403054
:1033E00001B0704783B002900191009201981921B9
:1033F000484300998900B0FBF1F348F21F51C5F230
:10340000EB11A3FB01204209642002FB10333220A0
:1034100000EB0310A0FB0101F02000EA511000EBCB
:103420000210C1F34311084480B20299886003B0CE
:103430007047000082B0019000910198406920F42B
:103440004070009908430199486102B0704700003C
:1034500082B0019000910198006920F440500099D9
:1034600008430199086102B07047000082B00190E2
:103470004EF21000CEF20000006800900098019813
:10348000013020B1FFE7019801300190FFE7FFE72D
:10349000019870B1FFE74EF21000CEF20000006814
:1034A000C003002804D5FFE7019801380190FFE729
:1034B000EEE702B07047000010B598B000200F9002
:1034C0001790169015901490139012901190102050
:1034D000FEF772F92020FEF76FF904200C90FEF73A
:1034E0006BF908200790FEF767F941F20000C4F27B
:1034F0000100039040F20771C0F20241FEF762FC46
:1035000040F60040C4F2010002904FF6FF71C0F295
:103510001F410191FEF756FC40F60000C4F2010085
:103520000B901121C0F21141FEF74CFC41F200401A
:10353000C4F20100069040F204410591FEF742FCFE
:10354000039843F63801C0F20841FEF745FC0B989A
:1035500041F21771FEF740FC03980F9943F63F7252
:10356000C0F20A421192012209921292022208929A
:103570001392149111A90491FEF7FEFA0499089B85
:10358000DDF824C00F9A0B9841F2177EC0F2114E5D
:10359000CDF844E0CDF848C013931492FEF7ECFA4E
:1035A0000499089BDDF824C00F9ADDF804E0029826
:1035B000CDF844E0CDF848C013931492FEF7DCFA3E
:1035C00004990C9A03981423C0F214431193129295
:1035D000FEF7D2FA0499089BDDF824C00F9ADDF8B3
:1035E00014E00698CDF844E0CDF848C01393149247
:1035F000FEF7C2FA0F984FF07041FEF7A1FA0F984C
:103600000221CFF20001FEF79BFA0F980321CFF2BF
:103610000001FEF795FA079B0898099A0F991693EF
:103620008DF85C208DF85D108DF85E0016A80A906C
:10363000FEF774F9099A0F990A984FF400631693EC
:103640008DF85C208DF85D1003218DF85E10FEF77B
:1036500065F909990F9A0A984FF4004316938DF86B
:103660005C108DF85D208DF85E10FEF757F90C9A0E
:103670000B9840F60801FEF7B9FB0B980C9A08214D
:10368000C0F20841FEF7B2FB0B980C9A8021C0F201
:103690008041FEF7ABFB01F09BFE0F9A0E210E91CD
:1036A00000F074FA014609200D9001F0CBFE0D9850
:1036B00001F03EFE01F08CFE0E990F9A00F066FAC2
:1036C00001462820109001F0BDFE109801F030FE58
:1036D00018B010BD80B586B0002000900590049011
:1036E000FEF73CFC4FF00060FEF71EF8FEF740FCD2
:1036F00001F076FE009A0F2100F07EFA01460320C9
:10370000019001F0C1FE019801F02AFE47F6FF701A
:103710000290049042F60000C4F20000039004A955
:10372000FEF7E4FD02990398FEF770FE06B080BD37
:1037300080B596B00CA805902821FCF767FD002005
:1037400004900B900A900990089007904FF48050D5
:10375000FEF744F804200090FEF740F804984AF27F
:10376000A001079109210891032109910A9040F6CF
:103770000000C4F20100029007A90191FEF7FCF9D4
:10378000009A0199029844F2400307930892FEF7C9
:10379000F3F901F02DFE049A114600F063FA014698
:1037A0002320039001F092FE039801F0F1FD0498AC
:1037B00005990C904FF482720D920E900F9010901C
:1037C0004FF40072119220221292139014900A204A
:1037D000159043F20000C4F201000690FEF7ACFF22
:1037E0000698FEF79FFF16B080BD000080B596B02A
:1037F0000CA805902821FCF709FD002004900B90EF
:103800000A900990089007904FF48040FDF79EFFC2
:103810000820FDF7E3FF0498A021C0F2A041079122
:1038200009210891032109910A9040F60040C4F251
:103830000100029007A90191FEF79EF901990298F3
:103840004022C0F24042079204220892FEF794F907
:1038500001F0CEFD049A114600F004FA014624203E
:10386000039001F033FE039801F092FD049805994E
:103870000C904FF482720D920E900F9010904FF4B6
:10388000007211921290139014900A20159043F632
:103890000000C4F200000690FEF74EFF0698FEF707
:1038A00041FF16B080BD000080B596B000200390A7
:1038B0001590149013901290119010900F900E90FC
:1038C0000D900C900B900A9009900890079006902C
:1038D0000590049002200290FDF74AFF0398ADF88E
:1038E000440012904FF6FF711391149040F2004083
:1038F000C4F20000019011A9FFF79EF90198FFF7AB
:103900007DF9019801210091FFF70EFB00990198C4
:10391000039A602309930A920B920C920D9209AAC2
:10392000FFF75CFB00990198FFF7A4FA019803994F
:10393000FFF7D6FB0198FFF76BF91020FDF760FF4A
:103940000299039844F240020492092205920691DA
:10395000079041F20000C4F2010004A9FEF70CF93F
:10396000FEF7D6F816B080BD80B59EB00020059059
:103970001D901C901B901A901990189017901690FB
:103980001590149013901290119010900F900E902B
:103990000D900C900B900A9009900890079006905B
:1039A0004FF400500290FDF72BFF0598ADF864002E
:1039B0001A9041F61F411B911C901D9043F200404C
:1039C000C4F20100039019A9FFF736F90398FFF735
:1039D00015F903980599FFF765FB0398059911916F
:1039E000129113911491159116911791189110211C
:1039F000049111AA0092FFF7F1FA04990398FFF7D6
:103A000039FA009A0398202111914FF480710191A5
:103A1000FFF7E4FA01990398FFF72CFA0398059948
:103A2000FFF75EFB0398FFF7F3F8029A03980599F6
:103A30000B910C910D918DF83810ADF83A100F9252
:103A400010910BA9FEF7FAFF0498FDF7D9FE05982F
:103A500048F28101C0F2014106910921079102213A
:103A60000891099041F20000C4F2010006A9FEF796
:103A700083F81EB080BD000080B592B00020049095
:103A8000119010900F900E900D900C900B900A904A
:103A900009900890079006904FF48040FDF7C2FE11
:103AA00004200190FDF7BEFE04980221C0F20241FD
:103AB00006910921079103210891099040F6000021
:103AC000C4F20100039006A90291FEF755F8019A8D
:103AD000029903980423C0F2044306930792FEF769
:103AE0004BF804984FF4E1310B910C900D900E902F
:103AF0000C210F911090119043F60000C4F20100C8
:103B000005900BA9FFF712FB0598FFF7F7FA059848
:103B1000FFF702FB12B080BDFFE7FEE7FFE7FEE71D
:103B200088B0079006910592079800F0070004906E
:103B30000498C0F10700052803D3FFE70420019093
:103B400004E00498C0F107000190FFE7019803909A
:103B500004980430062803D8FFE70020009003E013
:103B6000049803380090FFE70098029006980399A4
:103B7000012202FA01F101390840029B984005999F
:103B80009A40013A1140084308B0704788B0079046
:103B900006910592079800F0070004900498C0F180
:103BA0000700052803D3FFE70420019004E00498F0
:103BB000C0F107000190FFE70198039004980430DA
:103BC000062803D8FFE70020009003E0049803389C
:103BD0000090FFE70098029006980399012202FAEC
:103BE00001F101390840029B984005999A40013A39
:103BF0001140084308B0704788B0079006910592BD
:103C0000079800F0070004900498C0F10700052809
:103C100003D3FFE70420019004E00498C0F10700FB
:103C20000190FFE70198039004980430062803D818
:103C3000FFE70020009003E0049803380090FFE7BE
:103C40000098029006980399012202FA01F10139C5
:103C50000840029B984005999A40013A1140084358
:103C600008B0704788B0079006910592079800F059
:103C7000070004900498C0F10700052803D3FFE76C
:103C80000420019004E00498C0F107000190FFE7D0
:103C90000198039004980430062803D8FFE7002019
:103CA000009003E0049803380090FFE7009802902A
:103CB00006980399012202FA01F101390840029B9A
:103CC000984005999A40013A1140084308B070475E
:103CD00080B586B005900491059842F60041C4F283
:103CE0000101884225D0FFE7059843F20041C4F264
:103CF000010188421DD0FFE70598B0F1804F18D030
:103D0000FFE7059840F20041C4F20001884210D05C
:103D1000FFE7059840F60001C4F20001884208D090
:103D2000FFE7059840F60041C4F20001884201D146
:103D3000FFE708E043F65E60C0F6030040F2FF21B3
:103D400001F004FCFFE70498006818B3FFE704984B
:103D5000006810281ED0FFE704980068202819D0BA
:103D6000FFE704980068302814D0FFE70498006843
:103D700040280FD0FFE70498006850280AD0FFE7DA
:103D800004980068602805D0FFE704980068702850
:103D900001D1FFE708E043F65E60C0F603004FF490
:103DA000407101F0D3FBFFE70498406828B1FFE7BA
:103DB00004984068012801D1FFE708E043F65E60FF
:103DC000C0F6030040F2013101F0C0FBFFE70498A8
:103DD000006928B1FFE704980069022801D1FFE7D4
:103DE00008E043F65E60C0F6030040F2023101F0E5
:103DF000ADFBFFE70498806828B1FFE7049880686E
:103E0000012801D1FFE708E043F65E60C0F6030039
:103E100040F2033101F09AFBFFE70498406928B1B2
:103E2000FFE704984069022801D1FFE708E043F664
:103E30005E60C0F603004FF4417101F087FBFFE7BD
:103E40000599086A20F0010008620598006A02904E
:103E5000059840680190059880690390039820F0C8
:103E600003000390039820F0700004990968084348
:103E70000390029820F00200049909690843029017
:103E8000029820F0010004994968084302900598BF
:103E900042F60041C4F20101884208D0FFE70598CC
:103EA00043F20041C4F20101884248D1FFE704987F
:103EB000C06930B1FFE70498C069B0F5807F01D1D7
:103EC000FFE708E043F65E60C0F603004FF4487178
:103ED00001F03CFBFFE70498806930B1FFE70498EC
:103EE0008069B0F5807F01D1FFE708E043F65E60AE
:103EF000C0F6030040F2213101F028FBFFE70298F1
:103F000020F008000499496940EA81000290029873
:103F100020F004000499896840EA81000290019829
:103F200020F480700499896908430190019820F475
:103F300000700499C96940EA41000190FFE70198C7
:103F40000599486003980599886105980499C9689E
:103F5000FFF780F8029805990862002006B080BD3E
:103F600080B586B005900491059842F60041C4F2F0
:103F70000101884225D0FFE7059843F20041C4F2D1
:103F8000010188421DD0FFE70598B0F1804F18D09D
:103F9000FFE7059840F20041C4F20001884210D0CA
:103FA000FFE7059840F60001C4F20001884208D0FE
:103FB000FFE7059840F60041C4F20001884201D1B4
:103FC000FFE708E043F65E60C0F6030040F24E31C2
:103FD00001F0BCFAFFE70498006818B3FFE7049803
:103FE000006810281ED0FFE704980068202819D028
:103FF000FFE704980068302814D0FFE704980068B1
:1040000040280FD0FFE70498006850280AD0FFE747
:1040100004980068602805D0FFE7049800687028BD
:1040200001D1FFE708E043F65E60C0F6030040F20E
:104030004F3101F08BFAFFE70498406828B1FFE7A1
:1040400004984068012801D1FFE708E043F65E606C
:10405000C0F603004FF4547101F078FAFFE70498BA
:10406000006928B1FFE704980069022801D1FFE741
:1040700008E043F65E60C0F6030040F2513101F003
:1040800065FAFFE70498806828B1FFE70498806824
:10409000012801D1FFE708E043F65E60C0F60300A7
:1040A00040F2523101F052FAFFE70498406928B11A
:1040B000FFE704984069022801D1FFE708E043F6D2
:1040C0005E60C0F6030040F2533101F03FFAFFE7B3
:1040D0000599086A20F0100008620598006A0290AD
:1040E000059840680190059880690390039820F432
:1040F00040700390039820F4E0400499096840EA76
:1041000001200390029820F020000499096940EAF8
:1041100001100290029820F010000499496840EACA
:1041200001100290059842F60041C4F20101884254
:1041300008D0FFE7059843F20041C4F2010188422C
:1041400049D1FFE70498C06930B1FFE70498C0691E
:10415000B0F5807F01D1FFE708E043F65E60C0F66E
:10416000030040F26F3101F0F1F9FFE70498806934
:1041700030B1FFE704988069B0F5807F01D1FFE797
:1041800008E043F65E60C0F603004FF45C7101F096
:10419000DDF9FFE7029820F080000499496940EAC0
:1041A00081100290029820F040000499896840EA4A
:1041B00081100290019820F480600499896940EA96
:1041C00081000190019820F400600499C96940EAD7
:1041D000C1000190FFE7019805994860039805998F
:1041E000886105980499C968FEF73CFF0298059913
:1041F0000862002006B080BD80B586B005900491AD
:10420000059842F60041C4F20101884225D0FFE73B
:10421000059843F20041C4F2010188421DD0FFE736
:104220000598B0F1804F18D0FFE7059840F20041A3
:10423000C4F20001884210D0FFE7059840F6000163
:10424000C4F20001884208D0FFE7059840F600411B
:10425000C4F20001884201D1FFE708E043F65E6046
:10426000C0F6030040F29D3101F070F9FFE70498B9
:10427000006818B3FFE70498006810281ED0FFE715
:1042800004980068202819D0FFE7049800683028B7
:1042900014D0FFE70498006840280FD0FFE7049887
:1042A000006850280AD0FFE704980068602805D00D
:1042B000FFE704980068702801D1FFE708E043F6A3
:1042C0005E60C0F6030040F29E3101F03FF9FFE767
:1042D0000498406828B1FFE704984068012801D19C
:1042E000FFE708E043F65E60C0F6030040F29F314E
:1042F00001F02CF9FFE70498006928B1FFE7049862
:104300000069022801D1FFE708E043F65E60C0F6CD
:1043100003004FF4687101F019F9FFE70498806811
:1043200028B1FFE704988068012801D1FFE708E081
:1043300043F65E60C0F6030040F2A13101F006F9D9
:10434000FFE70498406928B1FFE704984069022814
:1043500001D1FFE708E043F65E60C0F6030040F2DB
:10436000A23101F0F3F8FFE70599086A20F48070A4
:1043700008620598006A02900598406801900598C7
:10438000C0690390039820F003000390039820F085
:1043900070000499096808430390029820F40070A3
:1043A0000499096940EA01200290029820F4807083
:1043B0000499496840EA01200290059842F60041BC
:1043C000C4F20101884208D0FFE7059843F200419A
:1043D000C4F20101884249D1FFE70498C06930B1B5
:1043E000FFE70498C069B0F5807F01D1FFE708E0DE
:1043F00043F65E60C0F6030040F2BE3101F0A6F85D
:10440000FFE70498806930B1FFE704988069B0F550
:10441000807F01D1FFE708E043F65E60C0F603004D
:1044200040F2BF3101F092F8FFE7029820F40060FB
:104430000499496940EA81200290029820F4806042
:104440000499896840EA81200290019820F4805004
:104450000499896940EA01100190019820F4005004
:104460000499C96940EA41100190FFE70198059954
:10447000486003980599C86105980499C968FEF7D2
:10448000F9FD029805990862002006B080BD000081
:1044900080B586B005900491059842F60041C4F2BB
:1044A0000101884225D0FFE7059843F20041C4F29C
:1044B000010188421DD0FFE70598B0F1804F18D068
:1044C000FFE7059840F20041C4F20001884210D095
:1044D000FFE7059840F60001C4F20001884208D0C9
:1044E000FFE7059840F60041C4F20001884201D17F
:1044F000FFE708E043F65E60C0F603004FF47B710F
:1045000001F024F8FFE70498006818B3FFE7049867
:10451000006810281ED0FFE704980068202819D0F2
:10452000FFE704980068302814D0FFE7049800687B
:1045300040280FD0FFE70498006850280AD0FFE712
:1045400004980068602805D0FFE704980068702888
:1045500001D1FFE708E043F65E60C0F6030040F2D9
:10456000ED3100F0F3FFFFE70498406828B1FFE762
:1045700004984068012801D1FFE708E043F65E6037
:10458000C0F6030040F2EE3100F0E0FFFFE70498D0
:10459000006928B1FFE704980069022801D1FFE70C
:1045A00008E043F65E60C0F6030040F2EF3100F031
:1045B000CDFFFFE70498406928B1FFE70498406900
:1045C000022801D1FFE708E043F65E60C0F6030071
:1045D0004FF47C7100F0BAFFFFE70498806828B1BF
:1045E000FFE704988068012801D1FFE708E043F65F
:1045F0005E60C0F6030040F2F13100F0A7FFFFE774
:104600000599086A20F4805008620598006A0290B3
:104610000598406801900598C0690390039820F4BC
:1046200040700390039820F4E0400499096840EA40
:1046300001200390029820F400500499096940EA8F
:1046400001300290029820F480500499496840EAB1
:1046500001300290059842F60041C4F201018842FF
:1046600008D0FFE7059843F20041C4F201018842F7
:1046700031D1FFE70498C06930B1FFE70498C06901
:10468000B0F5807F01D1FFE708E043F65E60C0F639
:10469000030040F20D4100F059FFFFE704988069E4
:1046A00030B1FFE704988069B0F5807F01D1FFE762
:1046B00008E043F65E60C0F6030040F20E4100F0F1
:1046C00045FFFFE7019820F480400499896940EA9A
:1046D00081100190FFE701980599486003980599BA
:1046E000C86105980499C968FEF7CCFC0298059941
:1046F0000862002006B080BD7047000080B582B01F
:10470000019001980090FDF73DFC01460098C9B268
:104710000A0947F2A521C0F60001895CC84002B031
:1047200080BD000080B582B0019001980090FDF737
:1047300031FC014600980A0A47F2B521C0F6000193
:10474000895CC84002B080BD80B582B001900198FC
:104750000090FDF727FC01460098CA0A47F2B521F0
:10476000C0F60001895CC84002B080BD80B582B04F
:1047700000200190FDF726FC0146009140B1FFE7C3
:10478000009804280AD0FFE7009808280CD00FE012
:1047900041F20020C0F27A0001900FE041F20020C7
:1047A000C0F27A00019009E000F00CF8019005E0F9
:1047B00041F20020C0F27A000190FFE7019802B0B8
:1047C00080BD000080B584B0002003900290FDF70A
:1047D0004DFC02900298019028B1FFE70198B0F5D6
:1047E000803F06D010E040F60010C0F23D0003907C
:1047F00010E0FDF74BFC411C41F20020C0F27A00B2
:10480000B0FBF1F0039005E040F60010C0F23D006F
:104810000390FFE703980090FDF730FC02460098F4
:10482000022101EB9241484304B080BD80B500F005
:1048300007F842F60000C4F20000FDF78DFC80BDD1
:1048400080B582B040F64830C2F200008179013173
:10485000817180793C2848DBFFE740F64830C2F29E
:1048600000000021817141790131417140793C287A
:104870003ADBFFE740F64830C2F200000021417108
:10488000017901310171007918282CDBFFE740F62E
:104890004831C2F2000100200871C8780130C870A8
:1048A0008878C978019101F0FDFC014601988842A1
:1048B00018DDFFE740F64830C2F200000121C17068
:1048C00081780131817080780D280ADBFFE740F69E
:1048D0004831C2F200010888013008800120887048
:1048E000FFE7FFE7FFE7FFE7FFE702B080BD00005B
:1048F00080B588B0FBF72EFFADF81E004FF6FF70B5
:10490000FBF77CFF32210291402308461A46FBF751
:10491000EFFE0020FBF772FF029943F60772C0F624
:104920000302032305930846FBF714FD40F65430B9
:10493000C2F200000390806801F0EAFA0299059B38
:1049400002464B200690FBF705FD0298059B43F6B7
:104950000D72C0F6030242210091FBF7FBFC0398A5
:10496000C06801F0D5FA0099059B02460698FBF74E
:10497000F1FC0298059B43F6FB62C0F6030252214C
:104980000191FBF7E7FC0398408801F0C1FA019917
:10499000059B02460698FBF7DDFC0298059B43F653
:1049A0000172C0F6030262210491FBF7D3FC039865
:1049B000808801F0ADFA0499059B02460698FBF742
:1049C000C9FCBDF81E00FBF719FF08B080BD000050
:1049D00080B59CB000208DF86F0016901590149053
:1049E00013904CF2962CC0F6000CDCF80010DCF8AA
:1049F0000420DCF80830DCF80CC0CDF848C0119376
:104A000010920F918DF83B008DF83A001A98ADF88E
:104A100038001998ADF836001898ADF8340017989A
:104A2000ADF832004FF6FF70FBF754FCFBF78CFE3D
:104A30000B9047F2C870C0F60000FBF7D5FEFFF7F9
:104A400057FF9DF83A200FA8059000EB820130F83F
:104A500022000A38498880B215220692FBF766FDCB
:104A60000598069A9DF83A3000EB830130F8230050
:104A700049880A3989B2FBF7F5FDFFE79DF86F0019
:104A8000C007002840F03681FFE70A20FEF7EEFC61
:104A900040F65430C2F20000FBF7BCFE40F6503046
:104AA000C2F200000068002840F0C580FFE740F631
:104AB0005430C2F200000088012840F0BC80FFE7BB
:104AC00040F65031C2F200014FF496700860FFF7D3
:104AD0000FFF9DF83B0038B9FFE740F65430C2F2B3
:104AE0000000806804900DE09DF83A1013A830F89B
:104AF000210040F65431C2F20001896808444008A0
:104B00000490FFE704989DF83A2013A921F82200A9
:104B10009DF83B0038B9FFE740F65430C2F2000080
:104B2000C06803900EE09DF83A1013A800EB8100D6
:104B3000408840F65431C2F20001C9680844400878
:104B40000390FFE703989DF83A2013A901EB820137
:104B500048809DF83B00411CC8B28DF83B100128ED
:104B600068D1FFE79DF83A0001308DF83A009DF8D2
:104B70003A00042837DBFFE7BDF84800BDF83C10D9
:104B8000401A80021A901A98BDF85810BDF84C20AF
:104B9000891A90FBF1F01A90BDF84A00BDF83E105A
:104BA000401A8002BDF85A10BDF84E20891A90FBB9
:104BB000F1F01990BDF83C001A99BDF84C20514312
:104BC000CA1701EB9251A0EBA1201890BDF83E004E
:104BD0001999BDF84E205143CA1701EB9251A0EB31
:104BE000A120179025E04FF6FF70FBF773FBFFF74E
:104BF0007FFE9DF83A200FA8019000EB820130F86B
:104C000022000A38498880B215220292FBF78EFCF6
:104C10000198029A9DF83A3000EB830130F82300A6
:104C200049880A3989B2FBF71DFD00208DF83B0049
:104C3000FFE7FFE7FFE79DF83A00042859DBFFE7AD
:104C4000BDF96800BDF96410BDF96020BDF95C30A4
:104C500000F052F80146009140B1FFE700980128AA
:104C60000AD0FFE70098022834D041E000208DF8F8
:104C70003B008DF83A003BE0BDF96800BDF96410D7
:104C8000BDF96020BDF95C30FBF7E4FE00200A901E
:104C9000099008900790189809901A98079017980B
:104CA0000A901998089040F24C00C2F20000026885
:104CB0000799089BDDF824C0DDF828E0C2F82CE055
:104CC000C2F828C0536211620168012048708DF853
:104CD0006F000DE0BDF93800BDF93610BDF9342084
:104CE000BDF93230FBF7B6FE01208DF86F00FFE70B
:104CF000FFE7C3E61CB080BD80B596B0ADF85400A8
:104D0000ADF85210ADF85020ADF84E30FBF71CFD59
:104D10001290FBF713FDADF84600FBF71BFDADF855
:104D2000440047F2C820C0F60000FBF75DFD4FF6D7
:104D3000FF70FBF7CFFAFBF713FD01466FF04F0052
:104D400000EB51000C90FBF715FD01460C9828393B
:104D500043F61D72C0F603026B465A6000220E92A3
:104D60001A6080B289B228230F931A46FBF79EFE81
:104D7000FBF7F6FC01466FF0130000EB51000D90BD
:104D8000FBF7F8FC0E9A0F9B01460D98283943F665
:104D9000137EC0F6030EEC46CCF804E0CCF80020FD
:104DA00080B289B21A46FBF781FEFBF7D9FC0146B7
:104DB000142000EB51001090FBF7DCFC0E9A0F9BC7
:104DC00001461098283943F6187EC0F6030EEC46CB
:104DD000CCF804E0CCF8002089B21A46FBF766FE56
:104DE000FFF786FDBDF95400BDF95210BDF9502002
:104DF000BDF94E30FBF72EFEFFE70A20FEF736FB2B
:104E000040F65430C2F20000FBF704FD40F650308B
:104E1000C2F200000068002840F08A80FFE740F6F8
:104E20005430C2F200000088012840F08180FFE782
:104E300040F65031C2F200014FF496700860FFF75F
:104E400057FD40F65430C2F2000041880B91808833
:104E50000A90FBF785FC01466FF04F0000EB510014
:104E60000990FBF787FC099A0A9903460B98283B9F
:104E7000EE464FF0280CCEF804C0CEF800C092B237
:104E80009BB201F0CBF820B1FFE700208DF857006E
:104E90004FE040F65430C2F200004188089180880B
:104EA0000790FBF75DFC01466FF0130000EB51002B
:104EB0000690FBF75FFC069A079903460898283B83
:104EC000EE464FF0280CCEF804C0CEF800C092B2E7
:104ED0009BB201F0A3F820B1FFE701208DF8570045
:104EE00027E040F65430C2F20000418805918088E6
:104EF0000390FBF735FC0146142000EB51000490B1
:104F0000FBF738FC0399049A03460598283BEE46C4
:104F10004FF0280CCEF804C0CEF800C09BB201F0D0
:104F20007DF820B1FFE702208DF8570001E0FFE790
:104F300063E79DF8570016B080BD00007047000081
:104F400040F62431C2F20001087801300870704741
:104F50007047000080B582B0ADF80600ADF80410CF
:104F6000ADF80220ADF8003040F2BC00C2F2000003
:104F70000068C06988B1FFE740F2BC00C2F20000DF
:104F80000068D0F81CC0BDF80600BDF80410BDF8DC
:104F90000220BDF80030E047FFE702B080BD00000E
:104FA00080B540F65030C2F20000006840B1FFE723
:104FB00040F65031C2F20001086801380860FFE78E
:104FC00040F23C10C2F2000001680131016000684B
:104FD00047F6D501C2F2E96148434FEAB00041F219
:104FE0006E21C0F2830188420AD8FFE740F6000034
:104FF000C4F201001021C0F21041FCF775FFFFE779
:1050000080BD000080B582B00220FCF773FDFFE791
:10501000FCF768FD022801D0FFE7F9E7FCF7F6FF8F
:10502000FFE7FCF7FDFF012801D0FFE7F9E74FF4A8
:1050300080304FF4E011FCF7FBFFFDF70DF8FFE7C0
:10504000FDF72CF8012801D0FFE7F9E700200190D7
:10505000FDF72CF84FF48060FDF736F80198FDF766
:1050600041F80220FDF74CF8FFE7FCF7A3FF082802
:1050700001D0FFE7F9E74AF20020C0F24A40009071
:10508000FCF746FF0098FDF7CFFC02B080BD0000A2
:105090007047000040F24C00C2F200000068007847
:1050A000C007C0B9FFE740F63C33C2F2000300205E
:1050B0001860022058600121996040F24C00C2F251
:1050C000000002685170016818685A689B68CB61DB
:1050D0008A6148610FE040F24C00C2F200000168B2
:1050E00048698A69CB6940F63C31C2F200018B60A5
:1050F0004A600860FFE7704781B00090FFE70098C2
:10510000411E009108B1FFE7F9E701B070470000C8
:1051100080B582B040F23510C2F20000007848B984
:10512000FFE700F04BF840F23511C2F20001012018
:105130000870FFE740F20C10C4F22120006820B193
:10514000FFE700208DF8070003E001208DF807003D
:10515000FFE79DF8070002B080BD000080B582B077
:1051600040F29011C4F221210091002008609020AB
:1051700000F0BCF800F082F80099ADF806000120BC
:105180000860BDF80600C00802B080BD80B582B0DE
:1051900040F29011C4F22121009100200860D0203B
:1051A00000F0A4F800F06AF80099ADF806000120BC
:1051B0000860BDF80600C00802B080BD41F21801C9
:1051C000C4F20201086840F00400086040F2901147
:1051D000C4F221210120086040F29411C4F221217F
:1051E000086040F29C11C4F22121086040F60002E0
:1051F000C4F201021168042363F30F3111601168D6
:105200004FF0030C6CF31341116011684FF00B0C5D
:105210006CF31751116011686CF31F711160116804
:1052200063F31B61116040F23031C4F24221086027
:1052300043F20001C4F2010140F2673008600868DF
:1052400040F040000860704780B582B040F62330DF
:10525000C2F200000078C00768B9FFE74CF2C6212F
:10526000C0F6000108684968019100900098019912
:1052700001F0BCFDFFE702B080BD000080B582B048
:1052800043F20C01C4F20101002008700220FFF774
:1052900033FFFFE740F21C10C4F22620006808B17B
:1052A000FFE7F7E743F20C01C4F2010108788DF83B
:1052B0000700002008700220FFF71EFFFFE740F202
:1052C0001C10C4F22620006808B1FFE7F7E743F29C
:1052D0000C00C4F2010000788DF806009DF807105C
:1052E0009DF8060040EA012002B080BD80B582B082
:1052F0008DF807009DF8070043F20C01C4F201018C
:1053000008700220FFF7F8FEFFE740F21C10C4F21D
:105310002620006808B1FFE7F7E743F20C00C4F26B
:10532000010000788DF8070002B080BDFFE7FEE7BE
:1053300081B08DF803009DF9030000280ED4FFE72B
:105340009DF9031001F01F02012090404A094EF21E
:105350000011CEF2000141F82200FFE701B07047D2
:1053600081B08DF803009DF9030000280ED4FFE7FB
:105370009DF9031001F01F02012090404A094EF2EE
:105380000011CEF2000141F82200FFE701B07047A2
:1053900081B08DF803009DF9030000280ED4FFE7CB
:1053A0009DF9031001F01F02012090404A094EF2BE
:1053B0000011CEF2000141F82200FFE701B0704772
:1053C0004EF60C50CEF200000068C0F30220704789
:1053D0004EF60C50CEF200000068C0F30220704779
:1053E0004EF60C50CEF200000068C0F30220704769
:1053F0004EF60C50CEF200000068C0F30220704759
:1054000082B08DF8070000919DF9070000280AD4AA
:10541000FFE7009800019DF907104EF20042CEF21E
:10542000000288540BE0009800019DF8071001F07D
:105430000F014EF61452CEF200028854FFE702B07C
:105440007047000082B08DF8070000919DF90700B9
:1054500000280AD4FFE7009800019DF907104EF2DA
:105460000042CEF2000288540BE0009800019DF843
:10547000071001F00F014EF61452CEF200028854CC
:10548000FFE702B07047000082B08DF8070000917E
:105490009DF9070000280AD4FFE7009800019DF954
:1054A00007104EF20042CEF2000288540BE0009842
:1054B00000019DF8071001F00F014EF61452CEF2D4
:1054C00000028854FFE702B07047000082B08DF8F8
:1054D000070000919DF9070000280AD4FFE7009813
:1054E00000019DF907104EF20042CEF200028854EE
:1054F0000BE0009800019DF8071001F00F014EF637
:105500001452CEF200028854FFE702B07047000048
:1055100083B00290029800F0070000904EF60C5104
:10552000CEF200010868019001984FF6FF0210408A
:1055300001900198009A40EA02200022C0F2FA523B
:10554000104301900198086003B0704782B0019049
:10555000009102B07047000081B08DF802009DF804
:1055600002001F2804DCFFE700208DF8030013E091
:105570009DF8020020280BDBFFE79DF802007E2843
:1055800006DCFFE79DF8020020388DF8030003E0F9
:1055900000208DF80300FFE79DF8030001B070477D
:1055A00080B584B0039000200290FFE70398007854
:1055B000B8B1FFE740F22810C2F200008068019005
:1055C00003980078FFF7C8FF0146019800EB8100BF
:1055D00040680188029808440290039801300390C3
:1055E000E4E7029804B080BD80B50020FBF704FD1D
:1055F0001020FBF7FBFE80BD80B51120FBF7F6FE07
:105600000120FBF7F9FC80BD80B586B0ADF816002F
:10561000ADF814100492049801900198406802902B
:105620000498083004900499029A2C20FBF766FF36
:1056300006B080BD80B582B0ADF80600ADF80410AC
:10564000ADF80220ADF800302A20FBF7CFFE9DF820
:105650000500FCF72FF89DF80400FCF72BF8BDF8C7
:105660000400BDF8001008440138C0F30720FCF71F
:1056700021F8BDF80400BDF8001008440138C0B29C
:10568000FCF718F82B20FBF7B1FE9DF80300FCF7A0
:1056900011F89DF80200FCF70DF89DF80300FCF7E7
:1056A00009F89DF80200FCF705F8BDF80610BDF8F2
:1056B00000202C20FBF7CAFE02B080BD80B582B06E
:1056C000DDF810C0ADF80600ADF80410ADF802200A
:1056D000ADF80030BDF80600BDF80410BDF802209A
:1056E000BDF8003000F096FA0499BDF80200BDF84C
:1056F000002042432C20FBF701FF02B080BD0000D8
:1057000080B582B0ADF80600ADF80410ADF8022007
:10571000ADF800302A20FBF769FE9DF80500FBF785
:10572000C9FF9DF80400FBF7C5FF9DF80500FBF7D6
:10573000C1FF9DF80400FBF7BDFF2B20FBF756FED1
:105740009DF80300FBF7B6FF9DF80200FBF7B2FFE0
:10575000BDF80200BDF8001008440138C0F307206E
:10576000FBF7A8FFBDF80200BDF80010084401389F
:10577000C0B2FBF79FFFBDF80610BDF800202C203B
:10578000FBF764FE02B080BD80B584B08446069805
:10579000ADF80EC0ADF80C10ADF80A20ADF8083029
:1057A000ADF806002A20FBF721FE9DF80F00FBF75D
:1057B00081FF9DF80E00FBF77DFFBDF80E00BDF8E0
:1057C0000A1008440138C0F30720FBF773FFBDF847
:1057D0000E00BDF80A1008440138C0B2FBF76AFF9A
:1057E0002B20FBF703FE9DF80D00FBF763FF9DF8F0
:1057F0000C00FBF75FFFBDF80C00BDF80810084473
:105800000138C0F30720FBF755FFBDF80C00BDF8C9
:10581000081008440138C0B2FBF74CFFBDF8061071
:10582000BDF80A00BDF8082042432C20FBF70EFE0D
:1058300004B080BD4FF4A070704700004FF4F070CA
:105840007047000080B586B040F23410C2F200000C
:105850000078C007C8B9FFE740F23410C2F2000078
:10586000017841F00101017000788007002803D41D
:10587000FFE7FBF7E5FBFFE740F23411C2F200015E
:10588000087840F002000870FFE70A200090FBF75C
:10589000ABFB1120FBF7AAFD0098FBF7A5FB47F235
:1058A0009E21C0F600010291B42001220492FBF770
:1058B0007FFE05200590FBF797FB049A43F69B714A
:1058C000C0F60301C120FBF773FE0598FBF78CFBC4
:1058D00047F2A021C0F60001C5200422FBF768FEB4
:1058E0000598FBF781FB4CF2A621C0F60001E020F1
:1058F0000F220192FBF75CFE0598FBF775FB019AFE
:105900004CF2B621C0F60001E120FBF751FE0598EC
:10591000FBF76AFB049A44F20F01C0F603013A2038
:105920000390FBF745FE0598FBF75EFB0299049A8E
:10593000B020FBF73DFE0598FBF756FB0398049A51
:1059400044F20D01C0F60301FBF732FE0598FBF7A8
:105950004BFB3620FBF74AFD2820FBF7ABFE0598F2
:10596000FBF742FB1320FBF741FD0598FBF73CFBDF
:105970002020FBF73BFD7820FBF736FB2920FBF7C7
:1059800035FD06B080BD000080B582B000200090DB
:10599000D320694603220123FBF79EFC009849F2BD
:1059A0000041C0F28601884205D1FFE749F28640F6
:1059B000ADF8060003E00020ADF80600FFE7BDF8F3
:1059C000060002B080BD000080B584B0ADF80E00C6
:1059D000ADF80C1044F20F01C0F603013A2000901C
:1059E00001220192FBF7E4FD2A20FBF7FFFC9DF862
:1059F0000F00FBF75FFE9DF80E00FBF75BFE9DF8C6
:105A00000F00FBF757FE9DF80E00FBF753FE2B200F
:105A1000FBF7ECFC9DF80D00FBF74CFE9DF80C002D
:105A2000FBF748FE9DF80D00FBF744FE9DF80C00C7
:105A3000FBF740FE019B2E200DF10A011A46FBF7F1
:105A40006DFB0098019A44F20D01C0F60301FBF7CB
:105A5000AFFDBDF80A0004B080BD000080B584B081
:105A6000DDF818C0ADF80E00ADF80C10ADF80A2046
:105A7000ADF80830BDF80E00BDF80C10BDF80A20D6
:105A8000BDF8083000F0C6F844F20F01C0F603017B
:105A90003A20009001220192FBF78AFD019B0699B2
:105AA000BDF80A00BDF8082042432E20FBF736FB64
:105AB0000098019A44F20D01C0F60301FBF778FD4E
:105AC00004B080BD80B582B0ADF80600ADF804101A
:105AD000ADF80220BDF8040040F61A31C2F2000110
