:020000040800F2
:10000000A0060020D501000861320008150600088E
:100010005D3200080905000851400008000000009A
:10002000000000000000000000000000353F000854
:100030006D05000800000000D13D0008393F0008B0
:10004000EF010008EF010008EF010008EF010008D0
:10005000EF010008EF010008EF010008EF010008C0
:10006000EF010008EF010008EF010008EF010008B0
:100070000D050008110500081505000841050008D8
:10008000EF010008EF010008EF010008EF01000890
:10009000EF010008EF010008EF010008EF01000880
:1000A000EF010008EF010008EF010008EF01000870
:1000B000EF010008EF010008EF010008EF01000860
:1000C000EF010008EF010008EF010008053F0008FC
:1000D000153F0008EF010008EF010008EF010008DC
:1000E000EF010008EF010008EF010008EF01000830
:1000F000EF010008EF010008EF010008EF01000820
:10010000EF010008EF010008EF010008EF0100080F
:10011000EF010008EF010008EF010008EF010008FF
:10012000EF010008EF010008EF010008EF010008EF
:1001300000F002F800F03EF80AA090E8000C8244BB
:100140008344AAF10107DA4501D100F033F8AFF298
:10015000090EBAE80F0013F0010F18BFFB1A43F0A5
:100160000103184780060100A0060100103A24BFD1
:1001700078C878C1FAD8520724BF30C830C144BF0C
:1001800004680C607047000000230024002500264E
:10019000103A28BF78C1FBD8520728BF30C148BFEA
:1001A0000B6070471FB59DE8030000F0CFF81FBD3E
:1001B00010B510BD00F026F91146FFF7F3FF04F06B
:1001C000B9FD00F044F903B4FFF7F2FF03BC00F0FF
:1001D00075F900000948804709480047FEE7FEE737
:1001E000FEE7FEE7FEE7FEE7FEE7FEE7FEE7FEE7E7
:1001F00004480549054A064B704700004D40000879
:1002000031010008A0000020A0060020A00200206C
:10021000A002002070B5064600F07CF8056806F1E3
:100220000B0020F00704B4429CBF002070BD2B4699
:100230006A68BAB11068A04210D304F1080188427C
:100240003CBF5068586007D351681019416011686D
:10025000091B016058601460101D70BD1346526880
:10026000002AE7D12146284600F05CF80028DED1BC
:1002700070BD70B50446051F00F04CF80068002CF6
:1002800014BF446870BD002C18BFAC423CBF204670
:100290006468F8D301680A18AA4218BF456003D100
:1002A0002A6805461144016028684119A1421CBF13
:1002B0006C6070BD6168696021680844286070BD29
:1002C0004FF0000200B5134694469646203922BFEF
:1002D000A0E80C50A0E80C50B1F12001BFF4F7AF3A
:1002E000090728BFA0E80C5048BF0CC05DF804EB1C
:1002F000890028BF40F8042B08BF704748BF20F88A
:10030000022B11F0804F18BF00F8012B7047704787
:1003100070477047004870471000002070477047D2
:100320007047704738B504460A4600206946AFF367
:100330000080002808BF38BD02460099204600F022
:100340003FF8012038BD012000F054B8F8B5AFF3F4
:100350000080054600200C46102000BF0646A81964
:10036000A0420DD9324669460020AFF30080070055
:1003700008BF00F03FF80098A04218BF0546C41916
:10038000FFF7C8FF05600746F01D20F0070046197B
:10039000284600F00AF8B44208BFF8BDA21B314657
:1003A0003868BDE8F84000F00BB800210160C0E9F2
:1003B0000110704710207047004870470800002067
:1003C000034640688C46002818BF88423CBF03465D
:1003D0004068F8D318681844884207D00CF103002D
:1003E00020F00700001D411A521A0146081D0A603C
:1003F000FFF73FBF10B500F039F8BDE8104000F03E
:100400002FB870477546FFF7D7FFAE46050069461F
:10041000534620F00700854618B020B5FFF7E8FEE8
:10042000BDE820404FF000064FF000074FF00008F5
:100430004FF0000BAC46ACE8C009ACE8C009ACE832
:10044000C009ACE8C00921F007018D46704710B51E
:100450000446AFF300802046BDE81040FFF7B3BE6E
:10046000002801D000F02AB87047000010B501281C
:1004700005D0002103A000F027F8012010BD09A13C
:10048000F8E7000053494752544D454D3A204F7507
:1004900074206F662068656170206D656D6F72797C
:1004A000000000003A2048656170206D656D6F7234
:1004B0007920636F72727570746564000149182049
:1004C000ABBEFEE72600020070B505460C460A20CA
:1004D00000E06D1C00F011F835B128780028F8D143
:1004E00002E0641C00F009F814B120780028F8D16B
:1004F000BDE870400A20AFF3008008B569468DF86A
:1005000000000320ABBE08BDFFE7FEE77047000018
:100510007047000080B582B004F086FE0190002094
:10052000C4F20200009000F0AFFA009800F0BCFAAC
:10053000009800F0C9FA009800F0D6FA02B080BD29
:1005400080B582B004F070FE01900020C4F2020079
:10055000009000F0A1FA009800F0AEFA009800F0C8
:10056000BBFA009800F0C8FA02B080BD70470000E6
:1005700080B584B0DDF818C0ADF80E00ADF80C10F1
:10058000ADF80A20ADF80830BDF80E00BDF80C102B
:10059000BDF80A200244013ABDF808300B44013B83
:1005A00092B29BB200F074F800200190FFE701982E
:1005B000BDF80A10BDF80820514388421ADAFFE757
:1005C0000698019910F811008DF80200069801991B
:1005D00000EB410040788DF803009DF803109DF872
:1005E000020040EA012002F0C3FAFFE7019801305F
:1005F0000190DCE740F28200C2F20000018801397C
:10060000408801388AB283B20021084600F040F8E1
:1006100004B080BDFFE7FEE780B584B0ADF80E0002
:1006200040F28200C2F2000001880139408801389E
:100630008AB283B200210091084600F029F80098A0
:100640000290FFE7029840F28201C2F2000149885D
:1006500088421AD2FFE700200190FFE7019840F29C
:100660008201C2F200010988884209D2FFE7BDF881
:100670000E0002F07DFAFFE7019801300190EDE7EE
:10068000FFE7029801300290DCE704B080BD000073
:1006900080B584B0ADF80E00ADF80C10ADF80A20AE
:1006A000ADF8083040F28200C2F200000090807A7B
:1006B0000121019100F070F801999DF80F0000F000
:1006C0002DF801999DF80E0000F028F801999DF889
:1006D0000B0000F023F801999DF80A0000F01EF8C5
:1006E00000980199007B00F057F801999DF80D00E2
:1006F00000F014F801999DF80C0000F00FF8019932
:100700009DF8090000F00AF801999DF8080000F032
:1007100005F800F061F804B080BD000080B584B039
:100720008DF80F008DF80E100DF10F0002900020D3
:100730008DF804009DF80E006946086001A80123A9
:1007400019461A4604F08CFBFFE79DF804000228C6
:1007500001D0FFE7F9E704B080BD000080B586B0A6
:1007600005908DF813100598039000208DF808006F
:100770009DF813006946086002A8032101231A4668
:1007800004F06EFBFFE79DF80800022801D0FFE7A8
:10079000F9E706B080BD000080B584B08DF80F0089
:1007A0008DF80E100DF10F00029000208DF804005E
:1007B0009DF80E006946086001A80222012319462F
:1007C00004F04EFBFFE79DF80400022801D0FFE78C
:1007D000F9E704B080BD000080B540F28200C2F2AB
:1007E0000000007A0021FFF7D7FF80BD80B582B0FE
:1007F0008DF80700ADF804109DF807000121FFF700
:10080000CBFF9DF804000021FFF788FF02B080BDF8
:1008100080B582B08DF8070040F28201C2F200017B
:100820002A2048812B2088812C2008819DF80700F0
:1008300001460091032840D80099DFE801F0021139
:10084000202F40F28201C2F200014FF4A070088014
:100850004FF4F070488036204821FFF7C7FF2DE0A5
:1008600040F28201C2F200014FF4F07008804FF4B0
:10087000A070488036202821FFF7B8FF1EE040F224
:100880008201C2F200014FF4A07008804FF4F070B2
:10089000488036208821FFF7A9FF0FE040F282014F
:1008A000C2F200014FF4F07008804FF4A07048804D
:1008B0003620E821FFF79AFF00E0FFE702B080BD95
:1008C00082B00190019A41F21400C4F20200016862
:1008D000114301600068019908400090009802B03F
:1008E0007047000082B00190019A41F21C00C4F2EE
:1008F00002000168114301600068019908400090FE
:10090000009802B07047000082B00190019A41F255
:100910001C00C4F2020001681143016000680199E3
:1009200008400090009802B07047000082B001902B
:10093000019A41F21C00C4F20200016811430160F7
:100940000068019908400090009802B070470000CC
:1009500082B00190019A41F21C00C4F202000168C9
:10096000114301600068019908400090009802B0AE
:100970007047000081B00090009A41F21001C4F26B
:10098000020108681043086001B0704781B0009010
:10099000009A41F21001C4F2020108689043086015
:1009A00001B0704782B00190019A41F21800C4F280
:1009B000020001681143016000680199084000903D
:1009C000009802B07047000082B00190019A41F295
:1009D0001800C4F202000168114301600068019927
:1009E00008400090009802B07047000082B001906B
:1009F000019A41F21800C4F202000168114301603B
:100A00000068019908400090009802B0704700000B
:100A100082B00190019A41F21800C4F2020001680C
:100A2000114301600068019908400090009802B0ED
:100A30007047000082B00190019A41F21800C4F2A0
:100A400002000168114301600068019908400090AC
:100A5000009802B07047000081B00090009A41F207
:100A60000C01C4F2020108681043086001B070472D
:100A700081B00090009A41F20C01C4F202010868B2
:100A80009043086001B0704781B0009000994FF426
:100A90008050486001B0704781B0009000994FF4D9
:100AA0008030486001B0704781B0009000994FF4E9
:100AB0008040486001B0704781B0009000994FF4C9
:100AC0008020486001B0704781B0009000994FF4D9
:100AD0000050486001B0704781B0009000994FF419
:100AE0000030486001B0704781B0009000994FF429
:100AF0000040486001B0704781B0009000994FF409
:100B00000020486001B0704783B0029001910092CC
:100B10000298019945F2B763C0F60003194411F831
:100B2000011C405847F6F071884300990843029928
:100B3000019A1A4412F8012C885003B07047000043
:100B400082B0019000910199009845F2B762C0F619
:100B50000002104410F8012C885820F00100885041
:100B600002B0704782B0019000910199009845F25F
:100B7000B762C0F60002104410F8012C885820F02B
:100B80000400885002B0704782B001900091019932
:100B9000009845F2B762C0F60002104410F8012C2C
:100BA000885820F00200885002B0704782B001904F
:100BB00000910199009845F2B762C0F60002104416
:100BC00010F8012C885820F00800885002B07047B7
:100BD00082B0019000910199009845F2B762C0F689
:100BE0000002104410F8012C885840F00100885091
:100BF00002B0704782B0019000910199009845F2CF
:100C0000B762C0F60002104410F8012C885840F07A
:100C10000200885002B0704782B0019000910199A3
:100C2000009845F2B762C0F60002104410F8012C9B
:100C3000885840F00800885002B0704783B0029096
:100C4000019100920298019945F2B063C0F6000349
:100C5000194411F8011C405820F4405000990843F1
:100C60000299019A1A4412F8012C885003B0704777
:100C700083B00290019100920298019945F2B76306
:100C8000C0F60003194411F8011C084440684FF6EF
:100C9000FF718843009908430299019A1A4412F897
:100CA000012C1144486003B07047000083B00290EB
:100CB000019100920298019945F2B063C0F60003D9
:100CC000194411F8011C405844F21001884300995E
:100CD00008430299019A1A4412F8012C885003B073
:100CE0007047000083B00290019100920098029931
:100CF000019A45F2B763C0F600031A4412F8012CBA
:100D00001144C86003B0704783B002900191009213
:100D10000298019945F2B063C0F60003194411F836
:100D2000011C405820F08000009908430299019A64
:100D30001A4412F8012C885003B0704783B0029017
:100D4000019100920298019945F2B063C0F6000348
:100D5000194411F8011C405820F4406000990843E0
:100D60000299019A1A4412F8012C885003B0704776
:100D700083B00290019100920298019945F2B0630C
:100D8000C0F60003194411F8011C405820F020005F
:100D9000009908430299019A1A4412F8012C8850CC
:100DA00003B0704783B002900191009200980299BD
:100DB000019A45F2B763C0F600031A4412F8012CF9
:100DC0001144886003B0704783B002900191009293
:100DD0000298019945F2B063C0F60003194411F876
:100DE000011C405820F04000009908430299019AE4
:100DF0001A4412F8012C885003B0704783B0029057
:100E0000019100920298019945F2B063C0F6000387
:100E1000194411F8011C405820F44070009908430F
:100E20000299019A1A4412F8012C885003B07047B5
:100E300081B00090009A40F20441C4F201010868B8
:100E40009043086001B0704781B00090009A40F272
:100E50000C41C4F2010108689043086001B070477A
:100E600081B00090009A40F20041C4F2010108688C
:100E70009043086001B0704781B00090009A40F242
:100E80000841C4F2010108689043086001B070474E
:100E900081B00090009A40F20441C4F20101086858
:100EA0001043086001B0704781B00090009A40F292
:100EB0000C41C4F2010108681043086001B070479A
:100EC00081B00090009A40F20041C4F2010108682C
:100ED0001043086001B0704781B00090009A40F262
:100EE0000841C4F2010108681043086001B070476E
:100EF00080B584B0039000208DF80B0003984088E3
:100F0000C00808B9FFE707E040F20370C0F601002F
:100F10006E2103F06BF9FFE70398007928B1FFE732
:100F200003980079012801D1FFE707E040F2037040
:100F3000C0F601006F2103F059F9FFE703984079EB
:100F400050B1FFE703984079012805D0FFE70398E7
:100F50004079022801D1FFE707E040F20370C0F6B4
:100F60000100702103F042F9FFE70398007900289F
:100F700000F08480FFE70398807978B1FFE7039859
:100F8000807901280AD0FFE703988079022805D0EC
:100F9000FFE703988079032801D1FFE707E040F2DB
:100FA0000370C0F60100752103F020F9FFE70398F4
:100FB0000068002861D0FFE703984079014601915D
:100FC00040B1FFE7019801280DD0FFE70198022802
:100FD00012D01AE003980068FFF72AFF0398006810
:100FE000FFF76EFF15E003980068FFF739FF0398DD
:100FF0000068FFF74DFF0CE003980068FFF760FF03
:1010000003980068FFF744FF03E001208DF80B0010
:10101000FFE70398807978B3FFE70398807901466A
:101020000091012808D0FFE7009802280DD0FFE7C3
:101030000098032812D01AE003980068FFF704FF15
:1010400003980068FFF748FF15E003980068FFF772
:1010500013FF03980068FFF727FF0CE00398006870
:10106000FFF73AFF03980068FFF71EFF03E0012037
:101070008DF80B00FFE7FFE7FFE708E00398006843
:10108000FFF7EEFE03980068FFF7D2FEFFE79DF83A
:101090000B0004B080BD000042F20000C4F2020068
:1010A000006800F00700704781B0009042F2000134
:1010B000C4F20201086820F00700009A104308609B
:1010C00001B070470421C4F20101086840F60042F3
:1010D000C0F2007210430860704700000421C4F29F
:1010E0000101086820F0E0600860086840F00070C6
:1010F0000860704782B0019000919DF800000821BF
:10110000C4F2010151F82000009A4FEA124C20EA83
:101110001240019B9CFAACFCBCFA8CFC03FA0CF369
:101120001843D2B241F8220002B0704780B586B0B1
:1011300005900491059840F60001C4F2010188422F
:1011400030D0FFE7059840F60041C4F20101884223
:1011500028D0FFE7059841F20001C4F2010188425E
:1011600020D0FFE7059841F20041C4F20101884216
:1011700018D0FFE7059841F60001C4F2010188424A
:1011800010D0FFE7059841F60041C4F20101884202
:1011900008D0FFE7059842F20001C4F2010188423D
:1011A00001D1FFE707E040F29460C0F60100A321FF
:1011B00003F01CF8FFE7049800686FF07B410842D9
:1011C00007D0FFE70498C07810F0FB0F01D1FFE7CC
:1011D00007E040F29460C0F60100A42103F006F895
:1011E000FFE704980068C0F30F200390039890FA7B
:1011F000A0F0B0FA80F00290FFE703980299C8408F
:10120000002800F0A880FFE703980299C840C007B3
:10121000002800F09C80FFE70298072806D8FFE727
:10122000029940F201108840019009E00298A0F173
:1012300008014FF00110884040F080600190FFE706
:1012400004984068082819D1FFE70498006928B17C
:10125000FFE704980069012801D1FFE707E040F2A9
:101260009460C0F60100BF2102F0C0FFFFE70598BF
:101270000199049A126900F0F1F8FFE704984068B8
:10128000A0B1FFE70498406804280FD0FFE7049856
:10129000406808280AD0FFE704984068012805D074
:1012A000FFE704984068092801D1FFE707E040F212
:1012B0009460C0F60100C62102F098FFFFE7059890
:1012C0000199049A526800F095F804984068012842
:1012D00005D0FFE704984068092837D1FFE7049854
:1012E000806802280AD0FFE704988068012805D0AA
:1012F000FFE704988068032801D1FFE707E040F288
:101300009460C0F60100CE2102F070FFFFE7049860
:10131000C06828B1FFE70498C068042801D1FFE73E
:1013200007E040F29460C0F60100CF2102F05EFFBA
:10133000FFE705980199049A926800F0A5F80598CE
:101340000199049AD26800F06FF8FFE7FFE702986E
:101350000130029051E7002006B080BD82B00190BC
:101360000091BDF801000199486102B0704700008A
:1013700082B001900091BDF801000199486102B06E
:101380007047000082B001900091BDF80100019902
:10139000086102B07047000082B001900091BDF872
:1013A00001000199086102B07047000082B001900D
:1013B0000091BDF801000199086102B0704700007A
:1013C00084B003900291019203989DF80B10084499
:1013D000009000990868029A92FAA2F2B2FA82F298
:1013E00093000F229A409043019A9A40104308605C
:1013F00004B0704784B003900291019203989DF865
:101400000B100844009000990868029A92FAA2F220
:10141000B2FA82F293000F229A409043019A9A40C6
:101420001043086004B0704784B0039002910192A9
:1014300003989DF80B100844009000990868029AE0
:1014400092FAA2F2B2FA82F2930004229A409043F6
:10145000019A9A401043086004B0704783B002902C
:10146000019100920298C06801990A0A20EA1120AD
:10147000009992FAA2F2B2FA82F2914008430299DC
:10148000C86003B07047000084B0039002910192DD
:1014900003989DF80B100844009000990868029A80
:1014A00092FAA2F2B2FA82F2930003229A40904397
:1014B000019A9A401043086004B0704781B00090D0
:1014C00000996FF07B400860009904204860009A02
:1014D000022191600099C86000990020086101B064
:1014E0007047000084B0039002910398C068019097
:1014F000BDF809000090019A009802EA00019043AB
:1015000040EA01400399086104B0704780B582B099
:10151000019001984FF47A7100F002F802B080BD9A
:1015200082B00190009101980099B0FBF1F0013870
:101530004EF21401CEF2000108604EF21801CEF214
:101540000001002008604EF21001CEF200010520DB
:10155000086002B07047000047F20001C4F20001C9
:10156000086840F4807008607047000047F200018E
:10157000C4F20001086840F4807008607047000001
:1015800041F22001C4F20201086840F40040086002
:101590007047000041F22001C4F20201086840F4E3
:1015A000004008607047000041F22001C4F20201CF
:1015B000086840F4803008607047000041F2040081
:1015C000C4F20200006800F0F000704741F204002D
:1015D000C4F20200006800F4E060704741F20400C9
:1015E000C4F20200006800F46050704741F220002D
:1015F000C4F20200006800F44070704741F2040039
:10160000C4F20200006800F00C00704741F20400D0
:10161000C4F20200006800F00C00704780B582B090
:10162000019002F00FFC019908600198006802F037
:10163000D1FB019948600198406802F0DFFB0199F5
:1016400088600198406802F0EBFB0199C86002B025
:1016500080BD000041F20001C4F20201086840F4BC
:10166000803008607047000041F20000C4F20200C0
:101670000068C0F34040704741F22001C4F202010B
:10168000086840F0010008607047000041F2200047
:10169000C4F202000068C0F34000704782B00190BD
:1016A000009141F20401C4F20201086820F47C10A8
:1016B000019A02F44032009B1A431043086002B0C2
:1016C0007047000041F20001C4F20201086840F0D6
:1016D000807008607047000041F20400C4F202000C
:1016E000006800F48030704741F20400C4F2020048
:1016F000006800F47010704741F20400C4F2020068
:101700000068C0F34040704741F20000C4F202009C
:101710000068C0F34060704741F22001C4F202014A
:10172000086820F4803008607047000081B00090A5
:1017300041F20401C4F20201086820F0F000009AAE
:101740001043086001B0704781B0009041F204017D
:10175000C4F20201086820F4E060009A10430860B7
:1017600001B0704781B0009041F20401C4F202015F
:10177000086820F46050009A1043086001B0704778
:1017800081B0009041F22001C4F20201086820F407
:101790004070009A1043086001B0704781B000901B
:1017A00041F20401C4F20201086820F00300009A2B
:1017B0001043086001B0704781B0009000994868FC
:1017C00020F00200486001B07047000081B0009036
:1017D0000099486820F00400486001B0704700009C
:1017E00081B000900099486820F00800486001B07E
:1017F0007047000081B000900099486820F0010017
:10180000486001B07047000081B0009000994868BE
:1018100040F01000486001B07047000081B00090B7
:101820000099486820F01000486001B0704700003F
:1018300080B586B005904FF47A70049000208DF842
:101840000F000290059842F60001C4F200018842A0
:1018500001D1FFE708E040F2CC60C0F601004FF490
:10186000BA7102F0C3FCFFE7059800F001F902909D
:10187000FFE704990020019031B1FFE70298013899
:1018800018BF01200190FFE70198C007A8B1FFE74A
:1018900000F00CFD012804D1FFE704980138049002
:1018A000FFE7059800F0E4F80290049820B9FFE7FC
:1018B00001208DF80F00FFE7DBE70598FFF7A4FF95
:1018C0009DF80F0006B080BD80B586B005904FF43E
:1018D0007A70049000208DF80F000290059842F66F
:1018E0000001C4F20001884201D1FFE708E040F2A4
:1018F000CC60C0F6010040F29B1102F077FCFFE7DC
:101900000598FFF78BFF059800F0B2F80290FFE70B
:1019100004990020019031B1FFE70298013818BF07
:1019200001200190FFE70198C007A8B1FFE700F090
:10193000BDFC012804D1FFE7049801380490FFE7BB
:10194000059800F095F80290049820B9FFE701206F
:101950008DF80F00FFE7DBE79DF80F0006B080BDB4
:1019600080B584B00390029101208DF807000398A0
:1019700042F60001C4F20001884201D1FFE707E00E
:1019800040F2CC60C0F60100A22102F02FFCFFE77C
:10199000029801680020B0EB115F01D1FFE707E07A
:1019A00040F2CC60C0F60100A32102F01FFCFFE76B
:1019B0000298406888B1FFE70298406880280CD000
:1019C000FFE702984068B0F5807F06D0FFE70298F5
:1019D0004068B0F5407F01D1FFE707E040F2CC60FE
:1019E000C0F60100A42102F001FCFFE7039800F01B
:1019F00087F901282FD0FFE70398FFF719FF012887
:101A000028D0FFE70398FFF7D7FE0398FFF7DEFE25
:101A10000398FFF7EFFE0298406838B1FFE746F6FB
:101A20000040C4F2000000F065F8FFE7029841684A
:101A300046F60040C4F2000000F04EF80398029908
:101A4000096800F033F80398FFF73EFF00208DF897
:101A50000700FFE7FFE79DF8070004B080BD000026
:101A600081B0009000984068C0F3C00001B070479A
:101A700081B0009000984068C0F3401001B07047FA
:101A800082B0019000910198806820F00F00BDF8AD
:101A900002100843019988600198C068009961F3B9
:101AA0000F000199C86002B07047000082B0019039
:101AB00000910198806820F00F00BDF802100843E3
:101AC000019988600198C068009961F30F0001993D
:101AD000C86002B07047000082B001900091019888
:101AE000C06A20F46070009908430199C86202B08E
:101AF0007047000081B0009046F63041C4F200010A
:101B0000086820F00100086001B0704780B586B019
:101B100005900491039201208DF80B0000200190A4
:101B2000059842F60001C4F20001884201D1FFE7A6
:101B300007E040F2CC60C0F60100E42102F056FB61
:101B4000FFE7049820B1FFE70498012801D1FFE7DF
:101B500007E040F2CC60C0F60100E52102F046FB50
:101B6000FFE7049858BBFFE703980078172801D8CF
:101B7000FFE707E040F2CC60C0F60100E92102F087
:101B800035FBFFE7039840783B2801D8FFE707E0E3
:101B900040F2CC60C0F60100EA2102F027FBFFE72B
:101BA000039880783B2801D8FFE707E040F2CC603B
:101BB000C0F60100EB2102F019FBFFE742E00398B9
:101BC0000078010901EB810100F00F0000EB4100FA
:101BD000C0B2172801D8FFE707E040F2CC60C0F69A
:101BE0000100EF2102F002FBFFE7039840780109B2
:101BF00001EB810100F00F0000EB4100C0B23B2877
:101C000001D8FFE707E040F2CC60C0F60100F02108
:101C100002F0ECFAFFE703988078010901EB8101FB
:101C200000F00F0000EB4100C0B23B2801D8FFE7F5
:101C300007E040F2CC60C0F60100F12102F0D6FAD4
:101C4000FFE7FFE70598FFF7F3FD012843D0FFE723
:101C5000049890B9FFE7039908784A7889784FF497
:101C600061635843C2EB021200EB8200084401900A
:101C70000598019900F036F829E0039908784A7828
:101C80008978030903EB830300F00F0000EB4300A6
:101C9000C0B24FF461635843130903EB830302F0AE
:101CA0000F0202EB4302D2B2C2EB021200EB82003F
:101CB0000A0902EB820201F00F0101EB4201C9B2F5
:101CC000084401900598019900F00CF8FFE7002006
:101CD0008DF80B00FFE70598FFF7F6FD9DF80B0068
:101CE00006B080BD82B001900091BDF8020001995C
:101CF0008861BDF800000199C86102B0704700001A
:101D000080B586B005904FF47A70049000208DF86D
:101D10000F000290059842F60001C4F200018842CB
:101D200001D1FFE708E040F2CC60C0F6010040F2CC
:101D3000F51102F05BFAFFE70598FFF751FD0598F2
:101D4000FFF78EFE0290FFE704990020019031B169
:101D5000FFE70298002818BF01200190FFE70198D3
:101D6000C007A8B1FFE700F0A1FA012804D1FFE7FE
:101D7000049801380490FFE70598FFF771FE029080
:101D8000049820B9FFE701208DF80F00FFE7DBE79B
:101D90009DF80F0006B080BD81B0009000980C3017
:101DA00001B0704780B586B0059001208DF8130012
:101DB000059843F20001C4F20101884210D0FFE708
:101DC000059843F60001C4F20001884208D0FFE7FD
:101DD000059843F60041C4F20001884201D1FFE7B3
:101DE00007E040F23B70C0F60100802102F0FEF9EE
:101DF000FFE7059843F20001C4F2010188420CD1CB
:101E0000FFE74FF480500390FEF726FE0398FEF79D
:101E10002FFE00208DF81300FFE7059843F6000120
:101E2000C4F2000188420CD1FFE74FF480400290D9
:101E3000FEF7A0FD0298FEF7A9FD00208DF8130023
:101E4000FFE7059843F60041C4F2000188420CD137
:101E5000FFE74FF400400190FEF78CFD0198FEF77C
:101E600095FD00208DF81300FFE79DF8130006B0E4
:101E700080BD000081B000900099486820F001000A
:101E8000486001B07047000081B000900099486838
:101E900020F00200486001B07047000081B000905F
:101EA0000099486820F02000486001B070470000A9
:101EB00081B000900099486820F04000486001B06F
:101EC0007047000081B000900099486820F0400001
:101ED000486001B07047000081B0009000994868E8
:101EE00020F08000486001B07047000081B0009091
:101EF0000099486820F08000486001B070470000F9
:101F000081B000900099086840F04000086001B07E
:101F10007047000081B000900099486840F00100CF
:101F2000486001B07047000081B000900099486897
:101F300040F00200486001B07047000081B000909E
:101F40000099486840F04000486001B070470000C8
:101F500081B000900099486840F08000486001B06E
:101F60007047000080B584B00390029101208DF885
:101F70000700039843F20001C4F20101884210D027
:101F8000FFE7039843F60001C4F20001884208D03D
:101F9000FFE7039843F60041C4F20001884201D1F3
:101FA000FFE707E040F23B70C0F60100B72102F006
:101FB0001DF9FFE70298006890B1FFE702980068FA
:101FC000B0F5806F0CD0FFE702980068B0F5004FC5
:101FD00006D0FFE702980068B0F5404F01D1FFE757
:101FE00007E040F23B70C0F60100BA2102F0FEF8B3
:101FF000FFE702984068B0F5827F04D0FFE70298BF
:10200000406808B9FFE707E040F23B70C0F6010006
:10201000BB2102F0EBF8FFE70298806830B1FFE7E0
:1020200002988068B0F5006F01D1FFE707E040F249
:102030003B70C0F60100BC2102F0D8F8FFE702981F
:10204000C06828B1FFE70298C068022801D1FFE705
:1020500007E040F23B70C0F60100BD2102F0C6F877
:10206000FFE70298006928B1FFE70298006901289C
:1020700001D1FFE707E040F23B70C0F60100BE214E
:1020800002F0B4F8FFE702984069B0F5007F0AD08B
:10209000FFE70298406930B1FFE702984069B0F568
:1020A000802F01D1FFE707E040F23B70C0F601004E
:1020B000BF2102F09BF8FFE70298806918B3FFE7A1
:1020C0000298806908281ED0FFE7029880691028CE
:1020D00019D0FFE702988069182814D0FFE702980A
:1020E000806920280FD0FFE70298806928280AD04D
:1020F000FFE702988069302805D0FFE702988069E1
:10210000382801D1FFE707E040F23B70C0F601003C
:10211000C02102F06BF8FFE70298C069802804D064
:10212000FFE70298C06908B9FFE707E040F23B709B
:10213000C0F60100C12102F059F8FFE70298006AD9
:10214000B0F5005F04D0FFE70298006A08B9FFE726
:1021500007E040F23B70C0F60100C22102F046F8F1
:10216000FFE7039800F062F8002845D1FFE70398E5
:1021700000684FF6BF718843029A00921168D2F846
:1021800004E0D2F808C0D36841EA0E0141EA0C012C
:102190001943136919435369194393691943D3695F
:1021A0001943126A11430843039908600398406871
:1021B00020F004000299C98A0843039948600298F4
:1021C000006AB0F5005F13D1FFE70298406A08B1DA
:1021D000FFE707E040F23B70C0F60100E52102F0A6
:1021E00005F8FFE703980299496A00F03DF8FFE718
:1021F00000208DF80700FFE70399C86920F400600C
:10220000C8619DF8070004B080BD000081B0009057
:102210000098806800F0010001B0704781B0009024
:1022200000988068C0F3400001B0704781B0009012
:1022300000980068C0F3801001B0704781B0009032
:1022400000984068C0F3801001B0704781B00090E2
:1022500000984068C0B2C00901B0704781B00090DA
:102260000098007B01B0704782B001900091BDF8EA
:1022700000000199086102B07047000083B002902D
:102280008DF8071002980C3000909DF80700009917
:10229000087003B0704700004EF21001CEF200014A
:1022A000086840F002000860704700004EF210001D
:1022B000CEF200000068C0F30040704781B000908B
:1022C000009840F20001C2F20001086001B07047BE
:1022D00081B000900099086820F08000086001B08B
:1022E0007047000081B000900099886820F080005D
:1022F000886001B07047000081B000900099486983
:1023000040F00100486101B07047000080B584B022
:1023100003900291039842F60041C4F20101884201
:1023200035D0FFE7039843F20041C4F2010188422F
:102330002DD0FFE70398B0F1804F28D0FFE7039836
:1023400040F20041C4F20001884220D0FFE7039828
:1023500040F60001C4F20001884218D0FFE703985C
:1023600040F60041C4F20001884210D0FFE7039814
:1023700041F20001C4F20001884208D0FFE703984F
:1023800041F20041C4F20001884201D1FFE708E0B8
:1023900040F27270C0F601004FF4A57101F026FF03
:1023A000FFE702984068A0B1FFE702984068102854
:1023B0000FD0FFE70298406840280AD0FFE7029854
:1023C0004068202805D0FFE702984068602801D1C6
:1023D000FFE708E040F27270C0F6010040F24B11D6
:1023E00001F004FFFFE70298C06860B1FFE70298C0
:1023F000C068B0F5807F06D0FFE70298C068B0F5EE
:10240000007F01D1FFE708E040F27270C0F60100E2
:102410004FF4A67101F0EAFEFFE70398006801900F
:10242000039842F60041C4F20101884225D0FFE73B
:10243000039843F20041C4F2010188421DD0FFE736
:102440000398B0F1804F18D0FFE7039840F20041A5
:10245000C4F20001884210D0FFE7039840F6000163
:10246000C4F20001884208D0FFE7039840F600411B
:10247000C4F20001884208D1FFE7019820F0700003
:102480000299496808430190FFE7039842F600412A
:10249000C4F20101884225D0FFE7039843F20041CE
:1024A000C4F2010188421DD0FFE70398B0F1804FCC
:1024B00018D0FFE7039840F20041C4F200018842BF
:1024C00010D0FFE7039840F60001C4F200018842F3
:1024D00008D0FFE7039840F60041C4F200018842AB
:1024E00008D1FFE7019820F440700299C9680843B9
:1024F0000190FFE7019803990860039802998968A1
:1025000000F032F903980299098800F035F9039830
:1025100042F60041C4F20101884208D0FFE7039867
:1025200043F20041C4F20101884206D1FFE703985B
:102530000299096900F028F9FFE70398FFF7DCFE2C
:10254000002004B080BD000089B008900791079872
:10255000012803D1FFE70020049030E00798042809
:1025600003D1FFE70120039026E00798102803D14C
:10257000FFE7022002901CE00798402803D1FFE704
:102580000320019012E00798B0F5807F03D1FFE7A8
:102590000420009007E007990620B1F5806F08BF7E
:1025A00005200090FFE700980190FFE70198029056
:1025B000FFE702980390FFE703980490FFE7049871
:1025C0008DF81B0008989DF81B2045F2BE61C0F6EF
:1025D0000001895C0844183005909DF81B1045F2F5
:1025E000C560C0F60000415C042000FA01F20599C4
:1025F00008689043086009B07047000089B00890EF
:1026000007910798012803D1FFE70020049030E0EC
:102610000798042803D1FFE70120039026E00798DC
:10262000102803D1FFE7022002901CE00798402801
:1026300003D1FFE70320019012E00798B0F5807FF7
:1026400003D1FFE70420009007E007990620B1F5C9
:10265000806F08BF05200090FFE700980190FFE71A
:1026600001980290FFE702980390FFE70398049017
:10267000FFE704988DF81B0008989DF81B2045F291
:10268000BE61C0F60001895C0844183005909DF8D1
:102690001B1045F2C560C0F60000415C082000FA3E
:1026A00001F2059908681043086009B070470000FE
:1026B00080B586B005900491039201208DF80B003F
:1026C0000498019001280ED0FFE70198102811D03E
:1026D000FFE70198B0F5807F13D0FFE70198B0F5D0
:1026E000805F15D01BE00598039900F05DFE8DF822
:1026F0000B0015E00598039900F09EFF8DF80B0084
:102700000EE00598039901F0E3F88DF80B0007E05F
:102710000598039901F028FA8DF80B0000E0FFE717
:102720009DF80B0006B080BD82B00190009100982A
:102730000199486302B0704782B0019000910098FF
:102740000199886302B0704782B0019000910098AF
:102750000199C86302B0704782B00190009100985F
:102760000199086402B0704782B00190009100980E
:102770000199C86202B0704782B001900091009840
:102780000199886202B0704782B001900091009870
:102790000199086302B0704782B0019000910198DE
:1027A000406820F07000009908430199486002B029
:1027B0007047000081B000900099086920F49040B3
:1027C00008610099486920F02A00486101B070470B
:1027D00081B000900099C86840F40050C86001B012
:1027E0007047000080B588B00790069101208DF8F1
:1027F000170000200490079843F60001C4F201017D
:10280000884220D0FFE7079844F20041C4F200015B
:10281000884218D0FFE7079844F60001C4F200018F
:10282000884210D0FFE7079844F60041C4F2000147
:10283000884208D0FFE7079845F20001C4F2000182
:10284000884201D1FFE707E040F2A970C0F601001D
:10285000CE2101F0CBFCFFE7069800684AF6202164
:10286000C0F24401884201D8FFE707E040F2A970B6
:10287000C0F60100CF2101F0B9FCFFE706984068DF
:1028800030B1FFE706984068B0F5805F01D1FFE7FF
:1028900007E040F2A970C0F60100D02101F0A6FCCB
:1028A000FFE706988068B0F5805F10D0FFE70698D4
:1028B000806860B1FFE706988068B0F5405F06D099
:1028C000FFE706988068B0F5005F01D1FFE707E0F9
:1028D00040F2A970C0F60100D12101F087FCFFE7AA
:1028E0000698C06860B1FFE70698C068B0F5806FD1
:1028F00006D0FFE70698C068B0F5C06F01D1FFE7CA
:1029000007E040F2A970C0F60100D22101F06EFC90
:10291000FFE70698006978B1FFE706980069042888
:102920000AD0FFE706980069082805D0FFE7069857
:1029300000690C2801D1FFE707E040F2A970C0F65A
:102940000100D32101F052FCFFE70698406990B1E5
:10295000FFE706984069B0F5807F0CD0FFE7069846
:102960004069B0F5007F06D0FFE706984069B0F5F2
:10297000407F01D1FFE707E040F2A970C0F60100F7
:10298000D42101F033FCFFE7079800F07FF800281E
:1029900078D1FFE70798C06841F20C618843069A36
:1029A0005168D36812691943114308430799C860F5
:1029B00007980699896800F0A7F807980699496969
:1029C00000F094F86846FEF729FE079843F60001E8
:1029D000C4F20101884203D1FFE70398049030E07C
:1029E000079844F20041C4F20001884203D1FFE796
:1029F0000298049024E0079844F60001C4F2000114
:102A0000884203D1FFE70298049018E0079844F643
:102A10000041C4F20001884203D1FFE7029804900C
:102A20000CE0079845F20001C4F20001884203D18E
:102A3000FFE70298049000E0FFE7FFE7FFE7FFE70A
:102A4000FFE70498E8B1FFE706980068C8B1FFE720
:102A500000208DF8170007980499069A126800F074
:102A60001DF807988068102801D3FFE708E040F2BE
:102A7000A970C0F601004FF49B7101F0B7FBFFE7AE
:102A8000FFE7FFE79DF8170008B080BD81B0009018
:102A90000098C068C0F3403001B0704783B0029026
:102AA0000191009201981921484300998900B0FBD7
:102AB000F1F348F21F51C5F2EB11A3FB01204209CB
:102AC000642002FB1033322000EB0310A0FB010155
:102AD000F02000EA511000EB0210C1F3431108444A
:102AE00080B20299886003B07047000082B0019004
:102AF00000910198406920F44070009908430199C1
:102B0000486102B07047000082B0019000910198C6
:102B1000006920F44050009908430199086102B00F
:102B20007047000082B001904EF21000CEF200001B
:102B30000068009000980198013020B1FFE70198EB
:102B400001300190FFE7FFE7019870B1FFE74EF217
:102B50001000CEF200000068C003002804D5FFE793
:102B6000019801380190FFE7EEE702B070470000DE
:102B700080B582B0ADF806009DF8070000F0F800BF
:102B80008DF80300BDF80610FC2000EAD1008DF896
:102B90000400BDF80600C0008DF805000DF103002B
:102BA0000121FDF7DBFD02B080BD000080B586B0DD
:102BB0000120FDF785FE01F085FA002204921146FE
:102BC00000F086FB01460C20019001F0ADFA01985F
:102BD00001F040FA01F076FA049A114600F078FB11
:102BE00001460D20029001F09FFA029801F032FA9E
:102BF00001F068FA049A114600F06AFB01460E20C3
:102C0000039001F091FA039801F024FA01F05AFAC6
:102C1000049A114600F05CFB01460F20059001F07C
:102C200083FA059801F016FA06B080BD10B594B08D
:102C30000020089013901290119010900F900E9019
:102C40000D901020FDF7C0FE2020FDF7BDFE0420F2
:102C50000C90FDF7B9FE08200790FDF7B5FE41F294
:102C60000000C4F20100029048F28771C0F20341F3
:102C7000FEF774FB40F60040C4F2010001904FF6ED
:102C8000FF71C0F21F410091FEF768FB40F60000A3
:102C9000C4F201000B901121C0F21141FEF75EFB5E
:102CA00041F20040C4F20100069040F20441059157
:102CB000FEF754FB029843F63801C0F20841FEF7D4
:102CC0006BFB0B9841F21771FEF766FB02980899AF
:102CD0004BF6BF72C0F20B420D92012209920E9286
:102CE000022203920F9210910DA90491FEF71EFA91
:102CF000039B0499089ADDF824C00B9841F2177ED3
:102D0000C0F2114ECDF834E0CDF838C00F931092D8
:102D1000FEF70CFA039B0499089ADDF824C0DDF84D
:102D200000E00198CDF834E0CDF838C00F93109250
:102D3000FEF7FCF904990C9A0B980823C0F208439B
:102D40000D930E92FEF7F2F904990C9A029814234F
:102D5000C0F214430D930E92FEF7E8F9039B049919
:102D6000089ADDF824C0DDF814E00698CDF834E0C8
:102D7000CDF838C00F931092FEF7D8F908984FF0AD
:102D80007041FEF7B7F908980321CFF20001FEF772
:102D9000B1F9079A0899099812928DF84C008DF8AC
:102DA0004D108DF84E0012A80A90FEF7A1F8089A6F
:102DB00009990A984FF4004312938DF84C108DF83E
:102DC0004D208DF84E10FEF793F80C9A0B9840F6B4
:102DD0000801FEF7F5FA0B980C9A8021C0F28041A9
:102DE000FEF7EEFA14B010BD80B586B00020019059
:102DF000059004908DF80E00ADF80C00FEF7B6FBC0
:102E00004FF00060FDF780FDFEF7C4FB4FF0FF3090
:102E10000090049042F60000C4F20000029004A961
:102E2000FEF79EFD00990298FEF72AFE019902988E
:102E30000C228DF80C208DF80D108DF80E1001214C
:102E400003AAFEF763FE06B080BD000080B59CB00B
:102E500012A80B902821FDF733FA00200A90119058
:102E600010900F900E900D904FF48050FDF7BEFD26
:102E700004200190FDF7BAFD0A984AF2A0010D91D5
:102E800009210E91032104910F91109040F600004A
:102E9000C4F2010003900DA90291FEF747F9019ACF
:102EA0000299039844F240030D930E92FEF73EF907
:102EB00004990020C4F2020007901022FDF7F6FEEC
:102EC000049907984FF400520592FDF7B7FE049954
:102ED00007980A9AFDF74CFF049907980A9AFDF79C
:102EE00073FF0499079880220692FDF70DFF04995D
:102EF00007980A9AFDF782FF049907980A9AFDF746
:102F00001DFF07980A9A02210891FDF7CFFE059A46
:102F100007980899FDF792FE079808990A9AFDF715
:102F200027FF079808990A9AFDF74EFF069A079817
:102F30000899FDF7E9FE079808990A9AFDF75EFFE0
:102F4000079808990A9AFDF7F9FE01F0C3F80A9A62
:102F5000114600F0F3F901462320099001F006F92B
:102F6000099801F08FF80A980B9912904FF4827229
:102F700013921490159016904FF400721792082235
:102F8000189219901A900A201B9043F20000C4F284
:102F900001000C90FEF7E6FF0C98FEF7B1FF1CB0A5
:102FA00080BD000080B59AB010A809902821FDF7D7
:102FB00087F9002008900F900E900D900C900B90C8
:102FC0004FF48040FDF7B2FC0820FDF70FFD089894
:102FD000A021C0F2A0410B9109210C9103210D9178
:102FE0000E9040F60040C4F2010001900BA9009140
:102FF000FEF79CF8009901984022C0F240420B92E3
:10300000042202920C92FEF791F80299089A00208D
:10301000C4F202000590FDF749FE029905984FF4AD
:1030200000520392FDF70AFE02990598089AFDF7EF
:103030009FFE02990598089AFDF7C6FE0299059829
:1030400080220492FDF760FE02990598089AFDF728
:10305000D5FE02990598089AFDF770FE059805219E
:1030600006911022FDF722FE039A05980699FDF7B6
:10307000E5FD05980699089AFDF77AFE05980699E8
:10308000089AFDF7A1FE049A05980699FDF73CFE03
:1030900005980699089AFDF7B1FE05980699089AD1
:1030A000FDF74CFE01F016F8089A114600F046F9BB
:1030B00001462420079001F059F8079800F0E2FF3C
:1030C0000898099910904FF48272119212901390FF
:1030D00014904FF4007215921690179018900A20D1
:1030E000199043F60000C4F200000A90FEF73AFF80
:1030F0000A98FEF705FF1AB080BD000080B596B0B3
:10310000002003901590149013901290119010903D
:103110000F900E900D900C900B900A9009900890D3
:10312000079006900590049002200290FDF710FC95
:103130000398ADF8440012904FF6FF71139114906C
:1031400040F20040C4F20000019011A9FFF7DEF840
:103150000198FFF7BDF8019801210091FFF74EFAA1
:1031600000990198039A602309930A920B920C929A
:103170000D9209AAFFF79CFA00990198FFF7E4F96C
:1031800001980399FFF708FB0198FFF7ABF81020AF
:10319000FDF73EFC0299039844F240020492092292
:1031A00005920691079041F20000C4F2010004A9C3
:1031B000FDF7BCFFFDF786FF16B080BD80B592B06D
:1031C00000200490119010900F900E900D900C9094
:1031D0000B900A9009900890079006904FF4804059
:1031E000FDF728FC04200190FDF724FC049802213F
:1031F000C0F202410691092107910321089109902B
:1032000040F60000C4F20100039006A90291FDF708
:103210008DFF019A029903980423C0F20443069398
:103220000792FDF783FF04984FF4E1310B910C9066
:103230000D900E900C210F911090119043F600000C
:10324000C4F2010005900BA9FFF7CCFA0598FFF72F
:10325000B1FA0598FFF7BCFA12B080BDFFE7FEE7B0
:10326000FFE7FEE788B0079006910592079800F007
:10327000070004900498C0F10700052803D3FFE776
:103280000420019004E00498C0F107000190FFE7DA
:103290000198039004980430062803D8FFE7002023
:1032A000009003E0049803380090FFE70098029034
:1032B00006980399012202FA01F101390840029BA4
:1032C000984005999A40013A1140084308B0704768
:1032D00088B0079006910592079800F007000490C7
:1032E0000498C0F10700052803D3FFE704200190EC
:1032F00004E00498C0F107000190FFE701980390F3
:1033000004980430062803D8FFE70020009003E06B
:10331000049803380090FFE70098029006980399FC
:10332000012202FA01F101390840029B98400599F7
:103330009A40013A1140084308B0704788B007909E
:1033400006910592079800F0070004900498C0F1D8
:103350000700052803D3FFE70420019004E0049848
:10336000C0F107000190FFE7019803900498043032
:10337000062803D8FFE70020009003E004980338F4
:103380000090FFE70098029006980399012202FA44
:1033900001F101390840029B984005999A40013A91
:1033A0001140084308B0704780B586B0059004917D
:1033B000059842F60041C4F20101884225D0FFE79A
:1033C000059843F20041C4F2010188421DD0FFE795
:1033D0000598B0F1804F18D0FFE7059840F2004102
:1033E000C4F20001884210D0FFE7059840F60001C2
:1033F000C4F20001884208D0FFE7059840F600417A
:10340000C4F20001884201D1FFE708E040F2727087
:10341000C0F6010040F2FF2100F0E8FEFFE704984B
:10342000006818B3FFE70498006810281ED0FFE773
:1034300004980068202819D0FFE704980068302815
:1034400014D0FFE70498006840280FD0FFE70498E5
:10345000006850280AD0FFE704980068602805D06B
:10346000FFE704980068702801D1FFE708E040F208
:103470007270C0F601004FF4407100F0B7FEFFE734
:103480000498406828B1FFE704984068012801D1FA
:10349000FFE708E040F27270C0F6010040F201312F
:1034A00000F0A4FEFFE70498006928B1FFE7049844
:1034B0000069022801D1FFE708E040F27270C0F60F
:1034C000010040F2023100F091FEFFE704988068AD
:1034D00028B1FFE704988068012801D1FFE708E0E0
:1034E00040F27270C0F6010040F2033100F07EFE3F
:1034F000FFE70498406928B1FFE704984069022873
:1035000001D1FFE708E040F27270C0F601004FF40D
:10351000417100F06BFEFFE70599086A20F0010099
:1035200008620598006A0290059840680190059825
:1035300080690390039820F003000390039820F023
:1035400070000499096808430390029820F0020073
:103550000499096908430290029820F00100049937
:10356000496808430290059842F60041C4F20101FF
:10357000884208D0FFE7059843F20041C4F20101F8
:10358000884248D1FFE70498C06930B1FFE704984A
:10359000C069B0F5807F01D1FFE708E040F27270AA
:1035A000C0F601004FF4487100F020FEFFE70498D8
:1035B000806930B1FFE704988069B0F5807F01D160
:1035C000FFE708E040F27270C0F6010040F22131DE
:1035D00000F00CFEFFE7029820F00800049949690A
:1035E00040EA81000290029820F004000499896862
:1035F00040EA81000290019820F480700499896962
:1036000008430190019820F400700499C96940EAC8
:1036100041000190FFE701980599486003980599DA
:10362000886105980499C968FFF77EF802980599A2
:103630000862002006B080BD80B586B00590049178
:10364000059842F60041C4F20101884225D0FFE707
:10365000059843F20041C4F2010188421DD0FFE702
:103660000598B0F1804F18D0FFE7059840F200416F
:10367000C4F20001884210D0FFE7059840F600012F
:10368000C4F20001884208D0FFE7059840F60041E7
:10369000C4F20001884201D1FFE708E040F27270F5
:1036A000C0F6010040F24E3100F0A0FDFFE70498A3
:1036B000006818B3FFE70498006810281ED0FFE7E1
:1036C00004980068202819D0FFE704980068302883
:1036D00014D0FFE70498006840280FD0FFE7049853
:1036E000006850280AD0FFE704980068602805D0D9
:1036F000FFE704980068702801D1FFE708E040F276
:103700007270C0F6010040F24F3100F06FFDFFE72C
:103710000498406828B1FFE704984068012801D167
:10372000FFE708E040F27270C0F601004FF45471F8
:1037300000F05CFDFFE70498006928B1FFE70498FA
:103740000069022801D1FFE708E040F27270C0F67C
:10375000010040F2513100F049FDFFE70498806814
:1037600028B1FFE704988068012801D1FFE708E04D
:1037700040F27270C0F6010040F2523100F036FDA6
:10378000FFE70498406928B1FFE7049840690228E0
:1037900001D1FFE708E040F27270C0F6010040F28C
:1037A000533100F023FDFFE70599086A20F010006F
:1037B00008620598006A0290059840680190059893
:1037C00080690390039820F440700390039820F4DC
:1037D000E0400499096840EA01200390029820F033
:1037E00020000499096940EA01100290029820F033
:1037F00010000499496840EA01100290059842F6C9
:103800000041C4F20101884208D0FFE7059843F265
:103810000041C4F20101884249D1FFE70498C06920
:1038200030B1FFE70498C069B0F5807F01D1FFE7B0
:1038300008E040F27270C0F6010040F26F3100F013
:10384000D5FCFFE70498806930B1FFE704988069F0
:10385000B0F5807F01D1FFE708E040F27270C0F65A
:1038600001004FF45C7100F0C1FCFFE7029820F00A
:1038700080000499496940EA81100290029820F082
:1038800040000499896840EA81100290019820F470
:1038900080600499896940EA81000190019820F4D0
:1038A00000600499C96940EAC1000190FFE70198EE
:1038B0000599486003980599886105980499C96835
:1038C000FEF73AFF029805990862002006B080BD15
:1038D00080B586B005900491059842F60041C4F287
:1038E0000101884225D0FFE7059843F20041C4F268
:1038F000010188421DD0FFE70598B0F1804F18D034
:10390000FFE7059840F20041C4F20001884210D060
:10391000FFE7059840F60001C4F20001884208D094
:10392000FFE7059840F60041C4F20001884201D14A
:10393000FFE708E040F27270C0F6010040F29D31EE
:1039400000F054FCFFE70498006818B3FFE7049800
:10395000006810281ED0FFE704980068202819D0BE
:10396000FFE704980068302814D0FFE70498006847
:1039700040280FD0FFE70498006850280AD0FFE7DE
:1039800004980068602805D0FFE704980068702854
:1039900001D1FFE708E040F27270C0F6010040F28A
:1039A0009E3100F023FCFFE70498406828B1FFE750
:1039B00004984068012801D1FFE708E040F27270E6
:1039C000C0F6010040F29F3100F010FCFFE70498C0
:1039D000006928B1FFE704980069022801D1FFE7D8
:1039E00008E040F27270C0F601004FF4687100F018
:1039F000FDFBFFE70498806828B1FFE70498806822
:103A0000012801D1FFE708E040F27270C0F6010022
:103A100040F2A13100F0EAFBFFE70498406928B1C9
:103A2000FFE704984069022801D1FFE708E040F26F
:103A30007270C0F6010040F2A23100F0D7FBFFE740
:103A40000599086A20F4807008620598006A02905F
:103A50000598406801900598C0690390039820F08C
:103A600003000390039820F070000499096808434C
:103A70000390029820F400700499096940EA01203B
:103A80000290029820F480700499496840EA01206D
:103A90000290059842F60041C4F20101884208D024
:103AA000FFE7059843F20041C4F20101884249D181
:103AB000FFE70498C06930B1FFE70498C069B0F52A
:103AC000807F01D1FFE708E040F27270C0F601008C
:103AD00040F2BE3100F08AFBFFE70498806930B104
:103AE000FFE704988069B0F5807F01D1FFE708E027
:103AF00040F27270C0F6010040F2BF3100F076FB78
:103B0000FFE7029820F400600499496940EA8120A7
:103B10000290029820F480600499896840EA81202C
:103B20000290019820F480500499896940EA0110BC
:103B30000190019820F400500499C96940EA4110AD
:103B40000190FFE701980599486003980599C861BD
:103B500005980499C968FEF7F7FD0298059908626F
:103B6000002006B080BD000080B586B005900491AD
:103B7000059842F60041C4F20101884225D0FFE7D2
:103B8000059843F20041C4F2010188421DD0FFE7CD
:103B90000598B0F1804F18D0FFE7059840F200413A
:103BA000C4F20001884210D0FFE7059840F60001FA
:103BB000C4F20001884208D0FFE7059840F60041B2
:103BC000C4F20001884201D1FFE708E040F27270C0
:103BD000C0F601004FF47B7100F008FBFFE704988A
:103BE000006818B3FFE70498006810281ED0FFE7AC
:103BF00004980068202819D0FFE70498006830284E
:103C000014D0FFE70498006840280FD0FFE704981D
:103C1000006850280AD0FFE704980068602805D0A3
:103C2000FFE704980068702801D1FFE708E040F240
:103C30007270C0F6010040F2ED3100F0D7FAFFE7F4
:103C40000498406828B1FFE704984068012801D132
:103C5000FFE708E040F27270C0F6010040F2EE317A
:103C600000F0C4FAFFE70498006928B1FFE7049860
:103C70000069022801D1FFE708E040F27270C0F647
:103C8000010040F2EF3100F0B1FAFFE7049840691B
:103C900028B1FFE704984069022801D1FFE708E056
:103CA00040F27270C0F601004FF47C7100F09EFA91
:103CB000FFE70498806828B1FFE70498806801282E
:103CC00001D1FFE708E040F27270C0F6010040F257
:103CD000F13100F08BFAFFE70599086A20F4805073
:103CE00008620598006A029005984068019005985E
:103CF000C0690390039820F440700390039820F467
:103D0000E0400499096840EA01200390029820F4F9
:103D100000500499096940EA01300290029820F4A9
:103D200080500499496840EA01300290059842F6B3
:103D30000041C4F20101884208D0FFE7059843F230
:103D40000041C4F20101884231D1FFE70498C06903
:103D500030B1FFE70498C069B0F5807F01D1FFE77B
:103D600008E040F27270C0F6010040F20D4100F030
:103D70003DFAFFE70498806930B1FFE70498806955
:103D8000B0F5807F01D1FFE708E040F27270C0F625
:103D9000010040F20E4100F029FAFFE7019820F4FB
:103DA00080400499896940EA81100190FFE70198F9
:103DB0000599486003980599C86105980499C968F0
:103DC000FEF7CAFC029805990862002006B080BD83
:103DD0007047000080B582B0019001980090FDF717
:103DE000EDFB01460098C9B20A0945F29861C0F698
:103DF0000001895CC84002B080BD000080B582B07F
:103E0000019001980090FDF7E1FB014600980A0A35
:103E100045F2A861C0F60001895CC84002B080BDCF
:103E200080B582B0019001980090FDF7D7FB014664
:103E30000098CA0A45F2A861C0F60001895CC84032
:103E400002B080BD80B582B000200190FDF7DEFB9E
:103E50000146009140B1FFE7009804280AD0FFE72F
:103E6000009808280CD00FE041F20020C0F27A0040
:103E700001900FE041F20020C0F27A00019009E0C9
:103E800000F00CF8019005E041F20020C0F27A0049
:103E90000190FFE7019802B080BD000080B584B0BA
:103EA000002003900290FDF717FC02900298019009
:103EB00028B1FFE70198B0F5803F06D010E040F64A
:103EC0000010C0F23D00039010E0FDF715FC411C0E
:103ED00041F20020C0F27A00B0FBF1F0039005E05F
:103EE00040F60010C0F23D000390FFE703980090F9
:103EF000FDF7FAFB02460098022101EB924148438C
:103F000004B080BD80B543F20000C4F2010001F0AE
:103F1000E3F880BD80B540F28001C2F2000108786C
:103F20000130087043F60000C4F2000001F0D4F83C
:103F300080BD00007047000080B540F26800C2F20A
:103F40000000016801310160006847F6D501C2F246
:103F5000E96148434FEAB00041F26E21C0F28301AB
:103F600088420AD8FFE740F60000C4F201001021A1
:103F7000C0F21041FDF7B6FAFFE780BD80B582B010
:103F80000220FDF791F8FFE7FDF786F8022801D03F
:103F9000FFE7F9E7FDF75EFBFFE7FDF765FB0128AB
:103FA00001D0FFE7F9E7FDF7D7FAFDF71FFBB0F502
:103FB000807F05D0FFE7FDF7F7FAFDF7ADFBFFE7E0
:103FC000FDF75AFBFFE7FDF761FB012801D0FFE792
:103FD000F9E7FDF70BFBB0F5807F05D0FFE74FF465
:103FE0008070FDF7CDFBFFE7FDF7CAFA4FF4803094
:103FF0004FF4E011FDF752FBFDF764FBFFE7FDF71F
:1040000083FB012801D0FFE7F9E700200190FDF7CD
:104010008DFB4FF48060FDF797FB0198FDF7A2FB45
:104020000220FDF7BBFBFFE7FDF7E8FA082801D007
:10403000FFE7F9E74AF20020C0F24A400090FDF79E
:1040400065FA0098FEF73AF902B080BD70470000AB
:10405000FFE7FEE781B08DF803009DF9030000281B
:104060000ED4FFE79DF9031001F01F0201209040DC
:104070004A094EF20011CEF2000141F82200FFE79A
:1040800001B0704781B08DF803009DF9030000284E
:104090000ED4FFE79DF9031001F01F0201209040AC
:1040A0004A094EF20011CEF2000141F82200FFE76A
:1040B00001B070474EF60C50CEF200000068C0F31D
:1040C000022070474EF60C50CEF200000068C0F39C
:1040D000022070474EF60C50CEF200000068C0F38C
:1040E0000220704782B08DF8070000919DF907000B
:1040F00000280AD4FFE7009800019DF907104EF24E
:104100000042CEF2000288540BE0009800019DF8B6
:10411000071001F00F014EF61452CEF2000288543F
:10412000FFE702B07047000082B08DF807000091F1
:104130009DF9070000280AD4FFE7009800019DF9C7
:1041400007104EF20042CEF2000288540BE00098B5
:1041500000019DF8071001F00F014EF61452CEF247
:1041600000028854FFE702B07047000082B08DF86B
:10417000070000919DF9070000280AD4FFE7009886
:1041800000019DF907104EF20042CEF20002885461
:104190000BE0009800019DF8071001F00F014EF6AA
:1041A0001452CEF200028854FFE702B070470000BC
:1041B00083B00290029800F0070000904EF60C5178
:1041C000CEF200010868019001984FF6FF021040FE
:1041D00001900198009A40EA02200022C0F2FA52AF
:1041E000104301900198086003B0704782B00190BD
:1041F000009102B07047000080B584B00290182092
:10420000FCF708F80190019818B9FFE70020039027
:104210000EE002980199086001990020C860022010
:10422000042100F003FA0199486001980390FFE728
:10423000039804B080BD000080B58CB000200B90C6
:104240000A9009900890079007A80590FDF736F9A5
:1042500041F20000C4F20100019041F2100100910E
:10426000FDF77CF840F60000C4F20100039040F234
:1042700004410291FDF772F840F60040C4F20100DB
:1042800006906FF07B410491FDF768F8009A019861
:1042900005990792FCF74AFF029A0599039807923D
:1042A000FCF744FF049A059906980792FCF73EFF35
:1042B0000CB080BD80B586B00020059004900390BE
:1042C0000290019001A80090FDF7F8F80099E02015
:1042D000C0F2E040019040F60040C4F20100FCF75B
:1042E00025FF06B080BD000080B540F60000C4F296
:1042F000010040F20221FDF759F880BD80B540F67B
:104300000000C4F2010040F20221FDF731F880BD47
:1043100083B0019040F27800C2F200000068009083
:10432000009800680199884203D1FFE70098029045
:1043300014E0FFE70098C06868B1FFE70098C06824
:104340000090009800680199884203D1FFE7009827
:10435000029003E0EEE700200290FFE7029803B02E
:104360007047000080B584B0029040F27800C2F23D
:104370000000006848B9FFE70298FFF73DFF40F2F0
:104380007801C2F20001086029E040F27800C2F230
:10439000000000680190019800680299884203D1EA
:1043A000FFE70198039021E0FFE70198C06868B13A
:1043B000FFE70198C068019001980068029988425F
:1043C00003D1FFE70198039010E0EEE70298FFF7B2
:1043D00013FF0199C8600198C068039006E040F29D
:1043E0007800C2F2000000680390FFE7039804B071
:1043F00080BD000080B586B040F27C00C2F20000B3
:104400004078C008C00770B1FFE743F60000C4F26F
:1044100000000590FDF742FD0598FDF753FD059856
:10442000FDF764FDFFE740F27C00C2F20000407837
:104430008008C00780B3FFE743F60000C4F2000025
:104440000190FDF717FD0198FDF71EFD0020C4F255
:104450000200039005210291FCF772FB03980421EE
:104460000491FCF76DFB02990398FCF77BFB029922
:104470000398FCF789FB02990398FCF797FB0398D4
:104480000499FCF76FFB03980499FCF77DFB0398F4
:104490000499FCF78BFBFFE740F29801C2F20001A0
:1044A000087800F0F700087040F27C01C2F20001C9
:1044B000487840F002004870487800F0FB004870EF
:1044C000487800F0F700487040F27000C2F2000037
:1044D00001684A68022111700068FBF7CAFEFFF705
:1044E00003FF06B080BD000080B58AB040F27000C6
:1044F000C2F200000068807A012835D1FFE7002071
:10450000C4F2020007900521089141F29002FCF7E5
:10451000FBFA0798089940F27002C2F20002069274
:1045200012681289FCF7A4FB069A0798089912688A
:1045300052685268FCF7D6FB43F60000C4F2000054
:10454000FDF72AFC089902460798FCF72BFC079810
:104550000899FCF74FFB07980899FCF75DFB079853
:104560000899FCF735FB5FE00020C4F202000490DC
:10457000042101914FF48452FCF7C6FA0199049882
:1045800040F27002C2F20002029212681289FCF735
:104590006FFB0199029A0498126852685268FCF7FE
:1045A000A1FB43F60000C4F200000390FDF7F4FB0A
:1045B000019902460498FCF7F5FB01990498FCF771
:1045C00019FB01990498FCF727FB01990498FCF763
:1045D000FFFA04980521059141F21002FCF794FAC4
:1045E000029A0498059912681289FCF741FB049815
:1045F000059940F20402C2F20002FCF773FB039833
:10460000FDF7CAFB059902460498FCF7CBFB04981A
:104610000599FCF7EFFA04980599FCF7FDFA049860
:104620000599FCF7D5FAFFE70AB080BD80B586B0E2
:10463000049003911420FBF7EDFD0290029818B945
:10464000FFE70020059032E0049803994843FBF708
:10465000E1FD019000200090FFE700980499884256
:104660000AD2FFE70199009A002041F82200FFE7F3
:10467000009801300090F0E7019830B9FFE7029808
:10468000FBF7F7FD0020059011E001980299086002
:1046900001980299486001980299886004980299EB
:1046A000C86003980299086102980590FFE7059891
:1046B00006B080BD10B590B0002005900F900E9010
:1046C0000D900C900B9041F20000C4F2010002909A
:1046D00043F230010191FCF741FE40F60000C4F2C4
:1046E00001000A9040F207710691FCF737FE40F690
:1046F0000040C4F2010009906FF07B410791FCF784
:104700002DFE019A029805990B92012203920C92B8
:10471000022204920D920E910BA90891FCF706FD5E
:10472000DDF80CC0049B059A0899DDF818E00A989A
:10473000CDF82CE0CDF830C00D930E92FCF7F6FCCE
:10474000079A089909980B9208220C9203220D925D
:10475000FCF7ECFC0A9840F20331FCF71DFE10B0A8
:1047600010BD000080B582B08DF807009DF80700ED
:10477000012807D1FFE7FFF75FFDFEF713FC00F00C
:104780000FF80AE043F60000C4F20000FDF70AFB50
:10479000FFF790FDFFF78EFFFFE702B080BD00003E
:1047A00080B58AB00020009009900890079006908C
:1047B000059040F60000C4F20100049040F203317D
:1047C0000391FCF7CBFD00990498039A059201220E
:1047D000069202220792089105A90191FCF7A6FC16
:1047E00001990098A022C0F2A042059209220692E7
:1047F00003220792089040F60040C4F201000290A4
:10480000FCF794FC019902984022C0F240420592C4
:1048100004220692FCF78AFC03990498FCF7BCFD7D
:104820000AB080BD80B592B001200D9000F028FA4A
:10483000109000F0C9FB0D99F120FBF7ADFF0A20A5
:104840000C90FEF76FF90D9936200B90FBF766FF81
:104850000C98FEF767F90D9904200490FBF75EFFB2
:104860000C98FEF75FF90D9900200E90FBF756FFAC
:104870000C98FEF757F90D993C20FBF74FFF0C9869
:10488000FEF750F90D990F200590FBF747FF0C98A4
:10489000FEF748F90D998F20FBF740FF0C98FEF7C3
:1048A00041F90D99F220FBF777FF0C98FEF73AF9E2
:1048B0000D991820FBF732FF0C98FEF733F90D998C
:1048C000A320FBF72BFF0C98FEF72CF90D99122073
:1048D0000290FBF723FF0C98FEF724F90D990220B4
:1048E000FBF71CFF0C98FEF71DF90D99B220FBF7A2
:1048F00015FF0C98FEF716F902980D99FBF70EFFBD
:104900000C98FEF70FF90D99FF20FBF707FF0C98A5
:10491000FEF708F90D9910200990FBF7FFFE0C989F
:10492000FEF700F90D990E98FBF7F8FE0C98FEF7CC
:10493000F9F80D99F820FBF72FFF0C98FEF7F2F825
:104940000D992120FBF7EAFE0C98FEF7EBF804988E
:104950000D99FBF7E3FE0C98FEF7E4F80D99F920AA
:10496000FBF71AFF0C98FEF7DDF80D990E98FBF790
:10497000D5FE0C98FEF7D6F80D9908200390FBF7AA
:10498000CDFE0C98FEF7CEF80B980D99FBF704FFBF
:104990000C98FEF7C7F803980D99FBF7BFFE0C982B
:1049A000FEF7C0F80D99B420FBF7F6FE0C98FEF761
:1049B000B9F80D990E98FBF7B1FE0C98FEF7B2F816
:1049C0000D99C120FBF7E8FE0C98FEF7ABF80D99A6
:1049D00047200790FBF7A2FE0C98FEF7A3F80D996D
:1049E000C520FBF7D9FE0C98FEF79CF80D990E98A0
:1049F000FBF794FE0C98FEF795F80D99AF20FBF7A6
:104A00008DFE0C98FEF78EF80D998020FBF786FE40
:104A10000C98FEF787F80D990E98FBF77FFE0C981F
:104A2000FEF780F80D99E020FBF7B6FE0C98FEF734
:104A300079F805980D99FBF771FE0C98FEF772F85E
:104A40000D991F20FBF76AFE0C98FEF76BF80D9985
:104A50001C20FBF763FE0C98FEF764F80D990C2000
:104A6000FBF75CFE0C98FEF75DF805980D99FBF7D7
:104A700055FE0C98FEF756F803980D99FBF74EFE7D
:104A80000C98FEF74FF80D994820FBF747FE0C985D
:104A9000FEF748F80D999820FBF740FE0C98FEF7BA
:104AA00041F80D9937200890FBF738FE0C98FEF777
:104AB00039F80C980D99FBF731FE0C98FEF732F897
:104AC0000D991320FBF72AFE0C98FEF72BF804989B
:104AD0000D99FBF723FE0C98FEF724F80D99112091
:104AE0000A90FBF71BFE0C98FEF71CF80D990D20A1
:104AF0000690FBF713FE0C98FEF714F80D990E982C
:104B0000FBF70CFE0C98FEF70DF80D99E120FBF772
:104B100043FE0C98FEF706F805980D99FBF7FEFD8D
:104B20000C98FDF7FFFF0D993220FBF7F7FD0C986D
:104B3000FDF7F8FF0D992E20FBF7F0FD0C98FDF71F
:104B4000F1FF0D990B20FBF7E9FD0C98FDF7EAFF4B
:104B500006980D99FBF7E2FD0C98FDF7E3FF0D9920
:104B60000520FBF7DBFD0C98FDF7DCFF07980D999E
:104B7000FBF7D4FD0C98FDF7D5FF0D997520FBF7D9
:104B8000CDFD0C98FDF7CEFF08980D99FBF7C6FDFB
:104B90000C98FDF7C7FF0D990620FBF7BFFD0C9899
:104BA000FDF7C0FF09980D99FBF7B8FD0C98FDF7CC
:104BB000B9FF0D990320FBF7B1FD0C98FDF7B2FF8B
:104BC0000D992420FBF7AAFD0C98FDF7ABFF0D997A
:104BD0002020FBF7A3FD0C98FDF7A4FF0D990E987C
:104BE000FBF79CFD0C98FDF79DFF0D993A20FBF714
:104BF000D3FD0C98FDF796FF0D996620FBF78EFD0F
:104C00000C98FDF78FFF0A980D99FBF7C5FD0C98DE
:104C1000FDF788FF0B980D99FBF7BEFD0C98FDF78B
:104C200081FF0D992820FBF779FD7820FDF77AFFA9
:104C30000E992920FBF7B0FD0C98FDF773FF0D9836
:104C4000FBF7E6FD4FF6FF70FBF7E6FC6420FDF78F
:104C500069FFA5208DF83F0055208DF83E009DF896
:104C60003F009DF83E1045F2CC62C0F600026B4654
:104C70001A6096231A46FBF77BFC0E9812B080BD93
:104C800080B584B08DF80B000F200421FFF7CEFC17
:104C900040F29001C2F20001086040F27001C2F2DD
:104CA00000010020086040F26C01C2F2000108809F
:104CB00040F27401C2F20001087040F27C01C2F2BD
:104CC0000001487800F0FB004870487800F0FE00D2
:104CD0004870487800F0F7004870487840F00200CB
:104CE000487040F29801C2F200010191087800F08A
:104CF000F7000870087800F0F9000870087800F0F4
:104D0000EF000870087840F0010008709DF80B2053
:104D1000087802F0030200F0F90040EA420008704F
:104D20009DF80B00FFF71EFD0198006803900398A3
:104D300004B080BD80B58AB000200190099040F297
:104D40006801C2F20001086001200090FBF72AFE12
:104D50004FF08050FBF7C6FD0320FFF729FAFFF75D
:104D6000A9F9019A0F21FEF77DFA01464FF0FF30B5
:104D7000FFF7B8F9FCF7B2F9FFF700F9FDF756FFB6
:104D8000FDF714FFFEF762F8FEF70CF9FEF7B6F92F
:104D9000FEF714FAFEF728F800990198089007909A
:104DA00006900590049044F240020292049205910C
:104DB00002210691079041F20000C4F20100039025
:104DC00004A9FCF7B3F902990398FCF7DBFAFDF7A5
:104DD00063FA62B6FFF726FDFFE7FEE784B00290B4
:104DE0000298006818B9FFE70020039035E00298A8
:104DF000016848688968884209D1FFE7029800681D
:104E00008068006818B9FFE70020039025E0029849
:104E1000006880680068019002980068816800203E
:104E20000860029801688868043088600298016808
:104E30000868C96800EB8100043800900298006897
:104E400080680099884205D9FFE7029801680868E0
:104E50008860FFE701980390FFE7039804B070476C
:104E600080B586B084460898CDF810C08DF80F1034
:104E70008DF80E208DF80D308DF80C0000208DF887
:104E80000B0040F29501C2F20001012008709DF86C
:104E90000F0098B3FFE70C20FBF7BCF90190FFE788
:104EA000019820B9FFE700208DF8170048E0FFE7E0
:104EB0009DF80E00019908709DF80F000199088176
:104EC0000498019948609DF80D00019988729DF839
:104ED0000C000199C872FFE7019940F29000C2F2FC
:104EE000000000F031F820B9FFE700208DF817002E
:104EF00026E0FFE701208DF80B00FFE70498D0B112
:104F0000FFE740F27C00C2F2000040784008C00792
:104F100088B1FFE740F29501C2F20001022008705B
:104F200045F22921C0F6000143F60000C4F200005A
:104F300000F064F8FFE79DF80B008DF81700FFE71D
:104F40009DF8170006B080BD84B0029001910298D0
:104F5000006818B9FFE70020039031E0029801686B
:104F600048688968884209D1FFE70298006880682C
:104F7000006818B1FFE70020039021E00198029932
:104F80000968496808600298016848680430486008
:104F9000029801680868C96800EB81000438009035
:104FA0000298006840680099884205D9FFE7029896
:104FB000016808684860FFE7029800680390FFE70F
:104FC000039804B07047000080B584B040F600003C
:104FD000C4F20100019040F201110291FCF7C8F9FE
:104FE00046200390FDF79EFD01980299FCF7DEF93B
:104FF0000398FDF797FD04B080BD000080B588B030
:105000000690059140F29401C2F200010291012044
:1050100008700698FFF7A6F902990490022008701C
:10502000FFE7049820B9FFE700208DF81F003AE061
:10503000FFE70498806830BBFFE70498007CC00756
:1050400008BBFFE70499087C40F00100087405984C
:105050000499886040F29401C2F2000103200870B4
:105060000499487D00F0FD0048750499487D00F0E2
:10507000FE0048750498019080688047019903906C
:10508000039848610BE040F29401C2F20001042051
:105090000870049804300599FFF756FFFFE70120D8
:1050A0008DF81F00FFE79DF81F0008B080BD0000CD
:1050B00080B541F20000C4F2010042F22001FCF789
:1050C00057F980BD80B541F20000C4F2010042F200
:1050D0002001FCF76BF980BD80B588B0069040F2E6
:1050E0007501C2F2000108780130087040F29401A5
:1050F000C2F20001052008700698FFF709F9059033
:10510000FFE7059820B9FFE700208DF81F0086E033
:10511000FFE70598407DC00720B1FFE700208DF82C
:105120001F007CE00598407D4008C007002849D05A
:10513000FFE740F29401C2F20001062008700598D2
:105140000430FFF74BFE059988600598806828BBFE
:10515000FFE70698FDF762F848B1FFE70698FDF70C
:1051600075F820B1FFE70698FCF7B6FEFFE7069852
:10517000FDF74CF848B1FFE70698FDF75FF820B15E
:10518000FFE70698FCF794FEFFE70599087C00F01E
:10519000FE00087401208DF81F0040E00599487D4D
:1051A00000F0FD00487540F29401C2F200010720B2
:1051B00008700598029080688047029904900498CE
:1051C000486113E00599487D00F0FD00487540F204
:1051D0009401C2F2000108200870059801908068CF
:1051E00080470199039003984861FFE70598407D47
:1051F0004008C00778B1FFE740F29401C2F2000115
:10520000082008700599087C00F0FE0008740698D4
:10521000FFF762FFFFE701208DF81F00FFE79DF811
:105220001F0008B080BD000080B582B040F296013A
:10523000C2F2000108780130087040F29501C2F214
:1052400000010320087040F29800C2F200000078CC
:10525000C008C007A0BBFFE700F01AF9E8B9FFE7F4
:1052600040F27000C2F20000006848B1FFE740F26F
:105270007000C2F200000068416800200870FFE77B
:1052800040F27C01C2F20001487840F00100487011
:10529000487840F002004870FFE740F29501C2F202
:1052A00000010420087040F29600C2F2000001786C
:1052B00040F27C00C2F2000001700068019015E02D
:1052C00000F018F8FFE740F29501C2F20001052056
:1052D000087040F29600C2F20000017840F27C00B3
:1052E000C2F20000017000680190FFE7019802B06F
:1052F00080BD000080B584B040F29501C2F200018B
:1053000008200870EFF3108072B6039040F27C0022
:10531000C2F200004078C008C007002800F0928068
:10532000FFE740F27000C2F200000068807A0128B6
:1053300043D1FFE740F26C00C2F20000008840F267
:105340007001C2F2000109680989884221DAFFE789
:1053500040F27000C2F2000000684068406840F20D
:105360006C01C2F200010A88805C8DF80B0008888D
:105370000130088040F29501C2F200010920087056
:105380009DF80B1043F60000C4F20000FCF776FF16
:1053900012E040F29501C2F200010A200870FFF706
:1053A00029F840F29801C2F20001087800F0F700F5
:1053B000087000F06DF8FFE743E043F60000C4F228
:1053C0000000FCF74BFF8DF80A009DF80A2040F220
:1053D0007001C2F2000108684068436840F26C0046
:1053E000C2F20000B0F800C003F80C2002880132BD
:1053F0000280008809680989884208DAFFE743F6D5
:105400000000C4F20000FF21FCF738FF18E040F272
:105410007000C2F200000068C07A01280CD1FFE7DA
:1054200040F29801C2F20001087800F0F70008701D
:10543000FFF7FAFE019002E0FEF7DCFFFFE7FFE76F
:10544000FFE7FFE740F27C00C2F2000040788008EE
:10545000C007C8B1FFE740F27000C2F20000006868
:10546000C07A01280CD1FFE740F29801C2F2000196
:10547000087800F0F7000870FFF7D6FE009002E011
:10548000FEF7B8FFFFE7FFE762B6012004B080BD7A
:1054900080B584B040F29501C2F200010620087088
:1054A00040F29000C2F20000FFF798FC40F2700159
:1054B000C2F200010860FFE740F27000C2F2000093
:1054C000006820B9FFE700208DF80F00E0E0FFE75B
:1054D00040F27C01C2F20001487800F0FD00487003
:1054E00040F29801C2F20001087840F0080008700C
:1054F00040F27400C2F200000121017040F26C021F
:10550000C2F200020020108040F27000C2F20000DF
:105510000268526811700068807A012869D1FFE73B
:10552000FEF7ECFE40F27000C2F200000068007866
:10553000012803D1FFE7FFF7C5FDFFE740F2700048
:10554000C2F2000000680078022803D1FFE7FFF7ED
:10555000AFFDFFE740F29800C2F200000078C0F310
:105560004100012843D1FFE740F27000C2F2000081
:1055700000680089042811DBFFE740F27C01C2F2D9
:105580000001487840F004004870FEF7ADFF43F694
:105590000000C4F20000FCF7C7FC27E040F27C01E9
:1055A000C2F20001487840F00800487040F26C01F7
:1055B000C2F2000108880130088040F29501C2F271
:1055C00000010720087040F27000C2F2000000687D
:1055D00040684068017843F60000C4F20000029081
:1055E000FCF74CFE0298FCF7B3FCFFE700E0FFE796
:1055F0004AE040F27000C2F200000068807A02289F
:105600003DD1FFE740F26C01C2F2000100200880AA
:1056100040F27000C2F2000000680089042815DB27
:10562000FFE7FEF761FF43F60000C4F200000190BF
:10563000FCF77AFC0198FCF76DFC40F27C01C2F2A9
:105640000001487840F00400487017E043F600007D
:10565000C4F200000090FCF771FC009840F20401D5
:10566000C2F200010978FCF709FE40F27C01C2F2A7
:105670000001487840F008004870FFE703E0002090
:105680008DF80F0004E0FFE701208DF80F00FFE721
:105690009DF80F0004B080BD000000000000000075
:1056A00001020304060708090000000001020304C8
:1056B000081C3044586C80081C3044586C80000032
:1056C000000004040400000800000008FFFFFFFFC2
:1056D000FFFFFFFFFFFFFFFFFFFFFFFFFFFFFFFFDA
:1056E000FFFFFFFFFFFFFFFFFFFFFFFFFFFFFFFFCA
:1056F000FFFFFFFFFFFFFFFFFFFFFFFFFFFFFFFFBA
:10570000FFFFFFFFFFFFFFFFFFFFFFFFFFFFFFFFA9
:10571000FFFFFFFFFFFFFFFFFFFFFFFFFFFFFFFF99
:10572000FFFFFFFFFFFFFFFFFFFFFFFFFFFFFFFF89
:10573000FFFFFFFFFFFFFFFFFFFFFFFFFFFFFFFF79
:10574000FFFFFFFFFFFFFFFFFFFFFFFFFFFFFFFF69
:10575000FFFFFFFFFFFFFFFFFFFFBEFF92FCA6F969
:1057600041F841F8A6F992FCBEFFFFFFFFFFFFFFE3
:10577000FFFFFFFFFFFFFFFFFFFFFFFFFFFFFFFF39
:10578000FFFFFFFFFFFFFFFFFFFFFFFFFFFFFFFF29
:10579000FFFFFFFFFFFFFFFFFFFFFFFFFFFFFFFF19
:1057A000FFFFFFFFFFFFFFFFFFFFFFFFFFFFFFFF09
:1057B000FFFFFFFFFFFFFFFFFFFFFFFFFFFFFFFFF9
:1057C000FFFFFFFFFFFFFFFFFFFFFFFFFFFFFFFFE9
:1057D000FFFFFFFFFFFFFFFFFFFFFFFFFFFFFFFFD9
:1057E000FFFFFFFFFFFFFFFFFFFFFFFFFFFFFFFFC9
:1057F000FFFFFFFFFFFFFFFFFFFFFFFFFFFFFFFFB9
:10580000FFFFFFFFFFFFFFFFFFFFFFFFFFFFFFFFA8
:10581000FFFFFFFFFFFFFFFFFFFFFFFFFFFFFFFF98
:10582000FFFFFFFFFFFFFFFFFFFFFFFFFFFFFFFF88
:10583000FFFFFFFFFFFFFFFFFFFFFFFFFFFFFFFF78
:10584000FFFFFFFFFFFFFFFFFFFFFFFFFFFFFFFF68
:10585000FFFFFFFFFFFFFFFFFFFFFFFFFFFFFFFF58
:10586000FFFFFFFFFFFFFFFFFFFFFFFFFFFFFFFF48
:10587000FFFFFFFFFFFFFFFFFFFFFFFFFFFFFFFF38
:10588000FFFFFFFFFBFE65F900F800F800F800F8E5
:1058900000F800F865F9FBFEFFFFFFFFFFFFFFFFC9
:1058A000FFFFFFFFFFFFFFFFFFFFFFFFFFFFFFFF08
:1058B000FFFFFFFFFFFFFFFFFFFFFFFFFFFFFFFFF8
:1058C000FFFFFFFFFFFFFFFFFFFFFFFFFFFFFFFFE8
:1058D000FFFFFFFFFFFFFFFFFFFFFFFFFFFFFFFFD8
:1058E000FFFFFFFFFFFFFFFFFFFFFFFFFFFFFFFFC8
:1058F000FFFFFFFFFFFFFFFFFFFFFFFFFFFFFFFFB8
:10590000FFFFFFFFFFFFFFFFFFFFFFFFFFFFFFFFA7
:10591000FFFFFFFFFFFFFFFFFFFFFFFFFFFFFFFF97
:10592000FFFFFFFFFFFFFFFFFFFFFFFFFFFFFFFF87
:10593000FFFFFFFFFFFFFFFFFFFFFFFFFFFFFFFF77
:10594000FFFFFFFFFFFFFFFFFFFFFFFFFFFFFFFF67
:10595000FFFFFFFFFFFFFFFFFFFFFFFFFFFFFFFF57
:10596000FFFFFFFFFFFFFFFFFFFFFFFFFFFFFFFF47
:10597000FFFFFFFFFFFFFFFFFFFFFFFFFFFFFFFF37
:10598000FFFFFFFFFFFFFFFFFFFFFFFFFFFFFFFF27
:10599000FFFFFFFFFFFFFFFFFFFFFFFFFFFFFFFF17
:1059A000FFFFFFFFFFFFFFFFFFFFFFFFFFFF1CFFEA
:1059B00004F900F800F800F800F800F800F800F822
:1059C00000F8E3F8FBFEFFFFFFFFFFFFFFFFFFFF15
:1059D000FFFFFFFFFFFFFFFFFFFFFFFFFFFFFFFFD7
:1059E000FFFFFFFFFFFFFFFFFFFFFFFFFFFFFFFFC7
:1059F000FFFFFFFFFFFFFFFFFFFFFFFFFFFFFFFFB7
:105A0000FFFFFFFFFFFFFFFFFFFFFFFFFFFFFFFFA6
:105A1000FFFFFFFFFFFFFFFFFFFFFFFFFFFFFFFF96
:105A2000FFFFFFFFFFFFFFFFFFFFFFFFFFFFFFFF86
:105A3000FFFFFFFFFFFFFFFFFFFFFFFFFFFFFFFF76
:105A4000FFFFFFFFFFFFFFFFFFFFFFFFFFFFFFFF66
:105A5000FFFFFFFFFFFFFFFFFFFFFFFFFFFFFFFF56
:105A6000FFFFFFFFFFFFFFFFFFFFFFFFFFFFFFFF46
:105A7000FFFFFFFFFFFFFFFFFFFFFFFFFFFFFFFF36
:105A8000FFFFFFFFFFFFFFFFFFFFFFFFFFFFFFFF26
:105A9000FFFFFFFFFFFFFFFFFFFFFFFFFFFFFFFF16
:105AA000FFFFFFFFFFFFFFFFFFFFFFFFFFFFFFFF06
:105AB000FFFFFFFFFFFFFFFFFFFFFFFFFFFFFFFFF6
:105AC000FFFFFFFFFFFFFFFFFFFFFFFFFFFFFFFFE6
:105AD000FFFFFFFFFFFFFFFF1CFF04F900F800F8C6
