:020000040800F2
:10000000E80B0020CD010008014300083D10000866
:10001000FD420008310B0008E95300080000000011
:100020000000000000000000000000006150000817
:100030009D0C000800000000154F0008B15000089A
:10004000E7010008E7010008E7010008495000083F
:10005000E7010008E7010008E7010008E7010008E0
:10006000E7010008FD0F0008E7010008E7010008AC
:10007000E7010008E7010008350B0008050C00083F
:10008000E7010008E7010008E7010008E7010008B0
:10009000E7010008E7010008E7010008E7010008A0
:1000A000E7010008E7010008E7010008E701000890
:1000B000E7010008E7010008E7010008E701000880
:1000C000E7010008E7010008E70100084D500008BB
:1000D00051500008E7010008E7010008E7010008A7
:1000E000A50F0008E7010008E7010008E701000884
:1000F000E7010008E7010008E7010008E701000840
:10010000E7010008E7010008E7010008E70100082F
:10011000E7010008E7010008E7010008E70100081F
:10012000E7010008E7010008E7010008E70100080F
:1001300000F002F800F03AF80AA090E8000C8244BF
:100140008344AAF10107DA4501D100F02FF8AFF29C
:10015000090EBAE80F0013F0010F18BFFB1A43F0A5
:100160000103184788540100A8540100103A24BF25
:1001700078C878C1FAD8520724BF30C830C144BF0C
:1001800004680C607047000000230024002500264E
:10019000103A28BF78C1FBD8520728BF30C148BFEA
:1001A0000B6070471FB51FBD10B510BD00F05DF8A6
:1001B0001146FFF7F7FF06F025F900F07BF803B4CE
:1001C000FFF7F2FF03BC00F07FF80000094880470A
:1001D00009480047FEE7FEE7FEE7FEE7FEE7FEE729
:1001E000FEE7FEE7FEE7FEE704480549054A064B41
:1001F00070470000E551000831010008E8050020C3
:10020000E80B0020E8070020E80700204FF000027C
:1002100000B5134694469646203922BFA0E80C50FC
:10022000A0E80C50B1F12001BFF4F7AF090728BFD7
:10023000A0E80C5048BF0CC05DF804EB890028BF53
:1002400040F8042B08BF704748BF20F8022B11F07C
:10025000804F18BF00F8012B7047704770477047F8
:10026000004870479000002070477546FFF7F8FF80
:10027000AE4605006946534620F00700854618B093
:1002800020B5FFF7B1FFBDE820404FF000064FF06A
:1002900000074FF000084FF0000BAC46ACE8C00977
:1002A000ACE8C009ACE8C009ACE8C00921F007011E
:1002B0008D46704710B50446AFF300802046BDE878
:1002C0001040FFF77CBF000001491820ABBEFEE7DD
:1002D0002600020080B584B0ADF80E0040F2880020
:1002E000C2F200000068806B029000F0CDFA01902D
:1002F00000F0D4FA019ADDF808C00346BDF80E00FC
:100300006946086000210846E04704B080BD00004F
:1003100080B582B0ADF80600ADF804108DF803206A
:10032000BDF80600BDF8041040F2F002C2F200026F
:100330009368D3F800C09DF80320203AB3F806E094
:1003400002FB0EF29B880733DB0802FB03C200F0BE
:100350002FFD02B080BD000080B58AB0ADF8260048
:10036000ADF8241008928DF81F300120ADF81C0064
:100370000020ADF81A000590049008980390FFE75C
:100380000398411C0391007820B1FFE705980130E4
:100390000590F5E700F078FA40F2F001C2F20001B2
:1003A00089688988B0FBF1F004909DF81F00014630
:1003B0000291012808D0FFE70298022818D0FFE731
:1003C000029803280FD023E0BDF82600059940F2DB
:1003D000F002C2F20002926892885143A0EB5100F1
:1003E000ADF81C0019E0BDF82600ADF81C0014E0C3
:1003F000BDF826100498059A801A40F2F002C2F265
:100400000002926892885043401AADF81C0004E044
:10041000BDF82600ADF81C00FFE7FFE7089800785C
:10042000002818BF0120019000F02EFA0246019822
:10043000BDF81A1040F2F003C2F200039B689B88DB
:1004400001FB13218AB200219A42A8BF0121084270
:100450001CD0FFE7BDF81C00BDF82410089A1278E4
:10046000FFF756FF40F2F000C2F20000806881887A
:10047000BDF81C000844ADF81C0008980130089035
:10048000BDF81A000130ADF81A00C7E70AB080BD08
:1004900080B586B0ADF81600ADF8141004920020B7
:1004A000039002900498D0F8120002900498D0F8BB
:1004B00016000390BDF81600BDF81410BDF8082012
:1004C000BDF80C3004F0CEFD40F28800C2F200000E
:1004D0000068006B68B1FFE740F28800C2F20000DC
:1004E0000068036BBDF81600BDF81410049A984715
:1004F000FFE700F0C9F9019000F0D0F9019A034636
:100500000021084604F0AEFD06B080BD80B586B07F
:10051000ADF81600ADF81410ADF81220BDF81210A9
:100520000320A0EB4100039000200290BDF81200D0
:100530000190FFE702980199884200F29180FFE75D
:10054000BDF8160002990844BDF81410019A891AE2
:1005500040F2F002C2F200020092128880B289B228
:1005600000F0C6F8009ABDF816000299401ABDF8CE
:100570001410019BC91A128880B289B200F0B8F831
:10058000009ABDF8160001990844BDF81410029BAA
:10059000C91A128880B289B200F0AAF8009ABDF890
:1005A00016000199401ABDF81410029BC91A12884E
:1005B00080B289B200F09CF8009ABDF8160002994A
:1005C0000844BDF81410019B1944128880B289B206
:1005D00000F08EF8009ABDF816000299401ABDF896
:1005E0001410019B1944128880B289B200F080F87F
:1005F000009ABDF8160001990844BDF81410029B3A
:100600001944128880B289B200F072F8009ABDF8DD
:1006100016000199401ABDF81410029B1944128863
:1006200080B289B200F064F80398B0F1FF3F07DCB4
:10063000FFE70299039800EB8100063003900BE07E
:1006400002980199411A039800EB81000A30039047
:10065000019801380190FFE702980130029069E7A4
:1006600006B080BD80B584B0ADF80E00ADF80C10BA
:10067000ADF80A200020019040F28800C2F200008C
:100680000068006AA0B1FFE740F28800C2F20000F3
:100690000068D0F820C040F2F000C2F200000088EC
:1006A000BDF80E10BDF80C20BDF80A30E0471CE084
:1006B00000200190FFE70198BDF80A10884213D28C
:1006C000FFE7BDF80E0001990844BDF80C1040F298
:1006D000F002C2F20002128880B200F009F8FFE7CF
:1006E000019801300190E6E7FFE704B080BD00000B
:1006F00080B582B0ADF80600ADF80410ADF8022068
:1007000040F28800C2F200000068406970B1FFE763
:1007100040F28800C2F2000000684369BDF806009C
:10072000BDF80410BDF802209847FFE702B080BD75
:1007300080B586B0ADF81600ADF81410ADF81220F3
:10074000BDF812100320A0EB41000390002002909E
:10075000BDF81200019040F2F000C2F200000088E3
:1007600000F0E0F8FFE70298019988425CD8FFE7C3
:100770000198E8B1FFE7BDF81600019A801ABDF8AC
:100780001410029B1944520080B289B292B2FFF752
:1007900069FFBDF81600019A801ABDF81410029B7B
:1007A000C91A520080B289B292B2FFF75BFFFFE72D
:1007B0000298E8B1FFE7BDF81600029A801ABDF86A
:1007C0001410019BC91A520080B289B292B2FFF78D
:1007D00049FFBDF81600029A801ABDF81410019B5B
:1007E0001944520080B289B292B2FFF73BFFFFE793
:1007F0000398B0F1FF3F07DCFFE70299039800EB95
:100800008100063003900BE002980199411A039889
:1008100000EB81000A300390019801380190FFE756
:100820000298013002909EE7BDF81600BDF8141042
:10083000BDF81220FFF76AFE06B080BD10B584B087
:10084000ADF80E00ADF80C10ADF80A20ADF8083088
:1008500040F28800C2F200000068D0F838C0BDF84D
:100860000E00BDF80C10BDF80A20BDF8083040F2AB
:10087000F00EC2F2000EBEF800E06C46C4F800E0D4
:10088000E04704B010BD000080B540F28800C2F21D
:1008900000000068806A804780BD000080B540F29B
:1008A0008800C2F200000068C06A804780BD000076
:1008B00080B582B001208DF8070040F28800C2F2B6
:1008C000000000680068804740F2F002C2F20002B7
:1008D0004FF6FF70506000210091116040F210014E
:1008E000C2F200019160FFF7F5FC00988DF8070057
:1008F0009DF8070002B080BD81B0ADF80200BDF8E0
:10090000020040F2F001C2F20001486001B07047FD
:1009100081B00090009840F2F001C2F200018860BE
:1009200001B0704781B0ADF80200BDF8020040F29E
:10093000F001C2F20001086001B0704780B58AB0D2
:10094000099040F28C00C2F20000006801690020AA
:1009500088470999088009980088002800F083805A
:10096000FFE740F28C00C2F20000006843690020FB
:100970000DF1220108AA9847BDF822000790BDF8A2
:100980002000069040F20C20C2F200000088800295
:100990004EF61B41C9F2CB51A0FB0110C00A0390D7
:1009A00040F20E20C2F20000008880024BF66F0178
:1009B000C9F2D401A0FB0110C00A029003984FF4C1
:1009C000C8714843019002984FF48C7148430090DD
:1009D000079803994843800A0199A0EB912005905C
:1009E000069802994843800A0099A0EB9120049050
:1009F0000598B0F1FF3F03DCFFE70020059011E010
:100A0000059840F20C21C2F200010988884208DBF7
:100A1000FFE740F20C20C2F2000000880138059088
:100A2000FFE7FFE70498B0F1FF3F03DCFFE700209A
:100A3000049011E0049840F20E21C2F200010988EE
:100A4000884208DBFFE740F20E20C2F20000008877
:100A500001380490FFE7FFE705980999488004985A
:100A600009998880FFE70AB080BD000080B582B098
:100A7000ADF80600ADF8041001208DF80300BDF8B4
:100A8000060040F20C21C2F200010880BDF80420EB
:100A900040F20E20C2F200000280098889024EF660
:100AA0001B42C9F2CB52A1FB0221CA0A40F2945167
:100AB000C2F200010A60008880024BF66F02C9F2A0
:100AC000D402A0FB0220C20A40F29850C2F20000F9
:100AD000026009684FF4C872514340F21422C2F216
:100AE0000002116000684FF48C71484340F21821F5
:100AF000C2F20001086040F28C00C2F200000068FF
:100B000020B1FFE700208DF80300FFE79DF8030008
:100B100048B9FFE740F28C00C2F2000000680168AB
:100B200000208847FFE79DF8030002B080BD000069
:100B3000FFE7FEE780B582B00020C4F20200006843
:100B40008004002855D5FFE70421C4F202014FF4C8
:100B5000005008608021C4F2072100200860FFE7F0
:100B600040F20010C4F20720006840B1FFE743F6EE
:100B70000C00C4F2000000788DF80700F0E743F69F
:100B80000001C4F20001086840F4804020F0380001
:100B90000860022000F074FAFFE740F20010C4F28F
:100BA0000720006840B1FFE743F60C00C4F20000E4
:100BB00000688DF80700F0E743F60001C4F2000179
:100BC000086840F0400008604421C4F2020100209F
:100BD0000860FFE74420C4F202000068C00708B1C3
:100BE000FFE7F7E740F20011C2F2000100200860C1
:100BF00006E00421C4F202014FF480500860FFE7D0
:100C000002B080BD80B50020C4F2020000688003FD
:100C100000283BD5FFE70421C4F202014FF4003065
:100C200008605821C4F2020100200860FFE7582044
:100C3000C4F202000068C00708B1FFE7F7E78421AB
:100C4000C4F2072100200860FFE740F21C10C4F244
:100C50000720006808B1FFE7F7E7022000F010FA6C
:100C600040F20010C2F200000068012807D1FFE73F
:100C700040F28411C4F2212101200860FFE740F214
:100C80000011C2F200010020086006E00421C4F255
:100C900002014FF480300860FFE780BD704700001C
:100CA00080B58CB084460F980E98ADF82EC0ADF884
:100CB0002C10ADF82A20ADF828308DF827009DF8CB
:100CC0002700012809D1FFE74FF2DE700490FFF7FB
:100CD00029FE0498FFF710FE08E04FF2BE70039063
:100CE000FFF720FE0398FFF707FEFFE7BDF82E0091
:100CF000BDF82C10BDF82A20BDF82830FFF79EFD66
:100D000000200290FFF70EFE40F20800C2F2000041
:100D1000FFF7FEFD0298089007900F980690FFE7F6
:100D20000698411C0691007820B1FFE70898013031
:100D30000890F5E7BDF82A10BDF82E0000EB510031
:100D4000ADF81600BDF82810BDF82C0000EB5100DE
:100D5000ADF81400BDF81600BDF814104FF4784239
:100D60000192FFF7C5FC019ABDF82A10BDF82E00CC
:100D700000EB5100BDF82830BDF82C1001EB5301F9
:100D800080B289B2FFF7B4FCBDF82A10BDF82E007E
:100D900000EB5100BDF82820BDF82C1001EB5201EA
:100DA0000F9A80B289B20123FFF7D6FA0CB080BD4A
:100DB00080B58AB0ADF82600ADF824100892002066
:100DC0000090079006900590ADF81200ADF8100065
:100DD0008DF80F000290019040F2F001C2F2000184
:100DE0008A68D288ADF8122089688988ADF8101019
:100DF000BDF81210BDF810205143362202EB41031A
:100E000040F21C21C2F200014B80BDF81230BDF847
:100E100010C003FB0CF302EB43031B0C8B804A81D5
:100E2000BDF810204A828882BDF81220CA82088349
:100E3000BDF81020D11D01F0F801891A8DF80F10AE
:100E40000790FFE70798BDF81210884280F0838072
:100E5000FFE7089ABDF810000730C008079900FBAB
:100E600001200290BDF81000C11D0320B0EBD10F8E
:100E70000AD1FFE7029908784A788978000440EAA5
:100E8000022008440190FFE7BDF81000C11D0220B8
:100E9000B0EBD10F06D1FFE702980088000400BA3A
:100EA0000190FFE7BDF81000C11D0120B0EBD10F8C
:100EB00004D1FFE7029800780190FFE70020069038
:100EC000FFE70698BDF8101088423FD2FFE7079869
:100ED0000138BDF81010069A00FB0121382000EB04
:100EE000410005900198BDF81010069A891A9DF8E6
:100EF0000F2011440139C840C00788B1FFE740F214
:100F0000F000C2F200000168059B40F21C22C2F210
:100F10000002D1540068000A05991144487010E09D
:100F200040F2F000C2F200004168059B40F21C2232
:100F3000C2F20002D1544068000A05991144487079
:100F4000FFE7FFE7069801300690BAE7FFE707984A
:100F50000130079076E7BDF82600BDF8241040F276
:100F60001C22C2F20002FFF793FA0AB080BD000013
:100F700080B503F0B9FF012805D1FFE74FF47840B1
:100F8000FFF7D0FC04E04FF4FC60FFF7CBFCFFE779
:100F90004FF4CD705F210A22FFF7CAFB0020FFF754
:100FA000C1FC80BD80B54FF4006000F06FFEC8B199
:100FB000FFE74FF4006000F02BFD40F60000C4F2A4
:100FC00001000821C0F2084100F0D2FF48B9FFE754
:100FD00005F072FA40F2CB51C2F200010120087014
:100FE000FFE7FFE74FF4004000F050FE28B1FFE7B5
:100FF0004FF4004000F00CFDFFE780BD80B50820F5
:1010000000F044FEC0B1FFE7082000F001FD40F60B
:101010000000C4F2010040F6080100F0A9FF38B951
:10102000FFE740F2CB51C2F2000101200870FFE758
:10103000082000F0EDFCFFE780BD0000FFE7FEE7C1
:1010400080B582B00190019802F016FC02B080BD1C
:1010500081B08DF803009DF8030038B1FFE740F23E
:101060009811C4F222210120086006E040F2981194
:10107000C4F2222100200860FFE701B070470000A1
:1010800081B00090FFE70098411E009108B1FFE792
:10109000F9E701B07047000080B58AB041F218014D
:1010A000C4F20201086840F01C00086041F214011B
:1010B000C4F20201086840F00100086040F60441F3
:1010C000C4F2010102910868042262F31B60086007
:1010D00041F20001C4F20101039108680222019269
:1010E00062F31B60086001200590FFF7B1FFDDF897
:1010F00004C002990598DDF80CE040F60003C4F244
:1011000001031A686CF303021A6040F28012C4F201
:1011100021220492106040F29412C4F22222106044
:1011200040F28412C4F221221060DEF800204FF059
:10113000030C6CF31752CEF800201A686CF30712F8
:101140001A6048F2B412C4F22122106040F2B832A0
:10115000C4F24222106008680B2262F31750086044
:10116000086862F31F70086043F60001C4F20001D2
:1011700040F247300860086840F0400008600A20EC
:101180000690FFF75DFF049A069800211160FFF7B3
:1011900057FF049A059906981160FFF751FF0F2039
:1011A00007900D21089104F033FA079804F070F9C4
:1011B00008990E20099004F02BFA099804F068F9B8
:1011C0000AB080BD80B584B08DF80F000291019205
:1011D000009304F00BF92C21C4F2072100200860D1
:1011E00040F28411C4F2212108609DF80F0002F042
:1011F00069FB0098C0000090009802F089FB0298FB
:10120000019900F061F804B080BD000080B584B0A1
:101210008DF80F0002910192009304F0E7F82C2161
:10122000C4F207210020086040F28411C4F2212199
:1012300008609DF80F0002F045FB0098C000009088
:10124000009802F065FB0298019900F015F904B0CE
:1012500080BD000083B00290019100920421C4F28D
:1012600002014FF4805008604421C4F202010020C2
:101270000860FFE74420C4F202000068C00708B11C
:10128000FFE7F7E702985021C4F2020108604C2101
:10129000C4F2020143F60C00C4F200000860019899
:1012A0004821C4F20201086000984421C4F20201FE
:1012B0000860086840F0010008608021C4F207213E
:1012C0000120086003B0704780B588B00790069190
:1012D0000020049003900422C4F202024FF48051D3
:1012E00011604421C4F202010860FFE74420C4F207
:1012F00002000068C00708B1FFE7F7E740F20810F6
:10130000C2F200005021C4F2020108604C21C4F274
:10131000020143F60C00C4F2000008604821C4F248
:1013200002014FF48070086002904421C4F202016F
:1013300043F2A0000860086840F0010008608021C6
:10134000C4F2072101200860FFE70698002849D071
:10135000FFE702984821C4F202010968884240D0A0
:10136000FFE702980138029020B9FFE74FF4807040
:101370000290FFE700BF00BF00BF0499481C049023
:1013800040F20810C2F20000405C039A511C039125
:101390000DF1050188540498B0F5807F03D3FFE771
:1013A00000200490FFE70398032819D1FFE70020ED
:1013B00003900698013806909DF805009DF80620D8
:1013C0009DF8071000F0F800000202F0FC0240EA6D
:1013D000C20040EAD10007998A1C07920880FFE703
:1013E000FFE7B2E78021C4F2072100200860FFE791
:1013F00040F20010C4F20720006840B1FFE743F656
:101400000C00C4F2000000688DF81700F0E743F606
:101410000001C4F20001086840F4804020F0380068
:1014200008600220FFF72CFEFFE740F20010C4F234
:101430000720006840B1FFE743F60C00C4F200004B
:1014400000688DF81700F0E74421C4F20201002083
:101450000860FFE74420C4F202000068C00708B13A
:10146000FFE7F7E740F28411C4F221210120086070
:1014700002F08CFA08B080BD80B584B00390029170
:1014800043F282000190FFE7029860B3FFE7029801
:101490004FF6FF71884215D3FFE740F20011C2F208
:1014A0000001022008600398019A4FF6FE71009136
:1014B000FFF7D0FE00990298401A02900398084462
:1014C00003900DE040F20011C2F20001012008601B
:1014D00003980299019AFFF7BDFE00200290FFE7F2
:1014E00003F084FFD0E740F28411C4F221210120EF
:1014F000086002F04BFA04B080BD000080B582B0F5
:101500008DF8070003F072FF2C21C4F207210020A0
:10151000086040F28411C4F22121009108609DF816
:10152000070002F0CFF900990120086002B080BDE9
:1015300080B584B08DF80F00ADF80C10029203F066
:1015400055FF2C21C4F20721009100200190086072
:1015500040F28411C4F2212108609DF80F0002F0CE
:10156000B1F90099019A01200860029903A800F0DE
:10157000C1F804B080BD000080B584B08DF80F00C4
:101580000291019203F032FF2C21C4F20721009155
:101590000020086040F28411C4F2212108609DF807
:1015A0000F0002F08FF90098012202600298019961
:1015B00000F0A0F804B080BD80B584B08DF80F00B5
:1015C0000291019203F012FF2C21C4F207210020A6
:1015D000086040F28411C4F2212108609DF80F00D8
:1015E00002F070F902980199012200F007F904B0A5
:1015F00080BD000080B584B0ADF80E0003F0F6FEAB
:101600002C21C4F2072101200290086040F28411CD
:10161000C4F22121019100200860BDF80E0002F003
:10162000F3F901990298086004B080BD80B582B0DA
:101630008DF8070003F0DAFE2C21C4F20721002008
:10164000086040F28411C4F22121009108609DF8E5
:10165000070002F0F3F900990120086002B080BD94
:1016600083B00290019100920421C4F202014FF470
:101670008030086043F60001C4F20001086820F0E1
:10168000400008605821C4F2020100200860FFE712
:101690005820C4F202000068C00708B1FFE7F7E76E
:1016A00002986421C4F2020108606021C4F20201C0
:1016B00043F60C00C4F20000086001985C21C4F2FB
:1016C0000201086000985821C4F2020108608422D7
:1016D000C4F207220120106043F60002C4F20002A7
:1016E000106840F040001060086840F00100086099
:1016F00003B0704780B584B00390029101920198C5
:1017000060B9FFE70398018840F20820C2F20000A8
:101710000180039043F21250009003E043F2925094
:101720000090FFE7FFE70298002864D0FFE70298E7
:101730004FF6FE71884214D8FFE740F20011C2F262
:1017400000010120086003980299009AFFF788FFC2
:1017500000200290019818B1FFE703F047FEFFE771
:1017600048E002984FF6FB71C0F20101884221D88F
:10177000FFE740F20011C2F2000102200860039866
:1017800002994FF6FE72891A009AFFF769FF0198D5
:1017900050B1FFE70299039800EB41000421CFF616
:1017A000FE7108440390FFE74FF6FE70029003F0CD
:1017B0001DFE1EE040F20011C2F20001022008608E
:1017C0000398009A4FF6FE71FFF74AFF019840B167
:1017D000FFE703984FF6FC71C0F201010844039043
:1017E000FFE702984FF6FE71401A029003F0FEFDEB
:1017F000FFE7FFE797E704B080BD000080B584B045
:10180000039002910192019860B9FFE70398017873
:1018100040F20A20C2F200000170039043F212006D
:10182000009003E043F292000090FFE7FFE7029888
:10183000C0B3FFE702984FF6FE71884214D8FFE765
:1018400040F20011C2F200010120086003980299E1
:10185000009AFFF705FF00200290019818B1FFE7FA
:1018600003F0C4FDFFE71CE040F20011C2F20001EA
:10187000022008600398009A4FF6FE71FFF7F0FE11
:10188000019830B1FFE703984FF6FE7108440390CA
:10189000FFE702984FF6FE71401A029003F0A6FD92
:1018A000FFE7C4E704B080BD82B00190019A41F225
:1018B0001C00C4F202000168114301600068019934
:1018C00008400090009802B07047000082B001907C
:1018D000019A41F21C00C4F2020001681143016048
:1018E0000068019908400090009802B0704700001D
:1018F00082B00190019A41F21C00C4F2020001681A
:10190000114301600068019908400090009802B0FE
:101910007047000082B00190019A41F21C00C4F2AD
:1019200002000168114301600068019908400090BD
:10193000009802B07047000082B00190019A41F215
:101940001800C4F2020001681143016000680199A7
:1019500008400090009802B07047000082B00190EB
:10196000019A41F21800C4F20200016811430160BB
:101970000068019908400090009802B0704700008C
:1019800082B00190019A41F21800C4F2020001688D
:10199000114301600068019908400090009802B06E
:1019A0007047000082B00190019A41F21800C4F221
:1019B000020001681143016000680199084000902D
:1019C000009802B07047000082B00190019A41F285
:1019D0001800C4F202000168114301600068019917
:1019E00008400090009802B07047000082B001905B
:1019F000019A41F21800C4F202000168114301602B
:101A00000068019908400090009802B070470000FB
:101A100081B00090009840F21441C4F201010860C6
:101A200001B0704781B00090009A40F20441C4F2C6
:101A3000010108689043086001B0704781B00090D0
:101A4000009A40F20C41C4F201010868904308601A
:101A500001B0704781B00090009A40F20041C4F29A
:101A6000010108689043086001B0704781B00090A0
:101A7000009A40F20841C4F20101086890430860EE
:101A800001B0704781B00090009A40F20441C4F266
:101A9000010108681043086001B0704781B00090F0
:101AA000009A40F20C41C4F201010868104308603A
:101AB00001B0704781B00090009A40F20041C4F23A
:101AC000010108681043086001B0704781B00090C0
:101AD000009A40F20841C4F201010868104308600E
:101AE00001B0704780B584B0039000208DF80B00E2
:101AF00003984088C00808B9FFE707E045F2ED40C9
:101B0000C0F601006E2103F0C3FDFFE703980079E2
:101B100028B1FFE703980079012801D1FFE707E02A
:101B200045F2ED40C0F601006F2103F0B1FDFFE783
:101B30000398407950B1FFE703984079012805D018
:101B4000FFE703984079022801D1FFE707E045F25B
:101B5000ED40C0F60100702103F09AFDFFE7039805
:101B60000079002800F08480FFE70398807978B13D
:101B7000FFE70398807901280AD0FFE7039880796E
:101B8000022805D0FFE703988079032801D1FFE7F9
:101B900007E045F2ED40C0F60100752103F078FD45
:101BA000FFE703980068002861D0FFE703984079B9
:101BB0000146019140B1FFE7019801280DD0FFE7F0
:101BC0000198022812D01AE003980068FFF72AFF54
:101BD00003980068FFF76EFF15E003980068FFF7B1
:101BE00039FF03980068FFF74DFF0CE00398006889
:101BF000FFF760FF03980068FFF744FF03E0012050
:101C00008DF80B00FFE70398807978B3FFE703981E
:101C1000807901460091012808D0FFE7009802284A
:101C20000DD0FFE70098032812D01AE0039800684F
:101C3000FFF704FF03980068FFF748FF15E00398DB
:101C40000068FFF713FF03980068FFF727FF0CE019
:101C500003980068FFF73AFF03980068FFF71EFF3C
:101C600003E001208DF80B00FFE7FFE7FFE708E046
:101C700003980068FFF7EEFE03980068FFF7D2FEB6
:101C8000FFE79DF80B0004B080BD000081B000901C
:101C900040F21440C4F20100006800990840401A64
:101CA000B0FA80F0400901B07047000042F2000035
:101CB000C4F20200006800F00700704781B0009095
:101CC00042F20001C4F20201086820F00700009A05
:101CD0001043086001B070470421C4F20101086894
:101CE00040F60042C0F200721043086070470000E6
:101CF0000421C4F20101086820F0E060086008686F
:101D000040F000700860704782B0019000919DF82B
:101D100000000821C4F2010151F82000009A4FEAA6
:101D2000124C20EA1240019B9CFAACFCBCFA8CFCE1
:101D300003FA0CF31843D2B241F8220002B0704704
:101D400080B586B005900491059840F60001C4F274
:101D50000101884230D0FFE7059840F60041C4F207
:101D60000101884228D0FFE7059841F20001C4F242
:101D70000101884220D0FFE7059841F20041C4F2FA
:101D80000101884218D0FFE7059841F60001C4F22E
:101D90000101884210D0FFE7059841F60041C4F2E6
:101DA0000101884208D0FFE7059842F20001C4F221
:101DB0000101884201D1FFE707E045F27E40C0F60D
:101DC0000100A32103F064FCFFE7049800686FF0B2
:101DD0007B41084207D0FFE70498C07810F0FB0F62
:101DE00001D1FFE707E045F27E40C0F60100A421E3
:101DF00003F04EFCFFE704980068C0F30F20039047
:101E0000039890FAA0F0B0FA80F00290FFE70398F0
:101E10000299C840002800F0A880FFE703980299C3
:101E2000C840C007002800F09C80FFE70298072800
:101E300006D8FFE7029940F201108840019009E0BE
:101E40000298A0F108014FF00110884040F0806036
:101E50000190FFE704984068082819D1FFE704982B
:101E6000006928B1FFE704980069012801D1FFE764
:101E700007E045F27E40C0F60100BF2103F008FCF8
:101E8000FFE705980199049A126900F0F5F8FFE759
:101E900004984068A0B1FFE70498406804280FD078
:101EA000FFE70498406808280AD0FFE704984068D4
:101EB000012805D0FFE704984068092801D1FFE711
:101EC00007E045F27E40C0F60100C62103F0E0FBCA
:101ED000FFE705980199049A526800F099F8049870
:101EE0004068012805D0FFE704984068092837D1E9
:101EF000FFE70498806802280AD0FFE7049880680A
:101F0000012805D0FFE704988068032801D1FFE786
:101F100007E045F27E40C0F60100CE2103F0B8FB99
:101F2000FFE70498C06828B1FFE70498C068042858
:101F300001D1FFE707E045F27E40C0F60100CF2166
:101F400003F0A6FBFFE705980199049A926800F058
:101F5000A9F805980199049AD26800F073F8FFE790
:101F6000FFE702980130029051E7002006B080BDE3
:101F700082B00190009101988068BDF8011008407E
:101F8000401AB0FA80F0400902B0704782B0019068
:101F90000091BDF801000199486102B0704700004E
:101FA00082B001900091BDF801000199486102B032
:101FB0007047000082B001900091BDF801000199C6
:101FC000086102B07047000082B001900091BDF836
:101FD00001000199086102B07047000084B00390CD
:101FE0000291019203989DF80B100844009000990B
:101FF0000868029A92FAA2F2B2FA82F293000F22D1
:102000009A409043019A9A401043086004B0704788
:1020100084B003900291019203989DF80B1008443C
:10202000009000990868029A92FAA2F2B2FA82F23B
:1020300093000F229A409043019A9A4010430860FF
:1020400004B0704784B003900291019203989DF808
:102050000B100844009000990868029A92FAA2F2C4
:10206000B2FA82F2930004229A409043019A9A4075
:102070001043086004B0704783B002900191009251
:102080000298C06801990A0A20EA1120009992FA80
:10209000A2F2B2FA82F2914008430299C86003B0FA
:1020A0007047000084B003900291019203989DF85C
:1020B0000B100844009000990868029A92FAA2F264
:1020C000B2FA82F2930003229A409043019A9A4016
:1020D0001043086004B0704784B0039002910398E5
:1020E000C0680190BDF809000090019A009802EACA
:1020F0000001904340EA01400399086104B0704731
:1021000080B582B0019001984FF47A7100F002F826
:1021100002B080BD82B00190009101980099B0FB9F
:10212000F1F001384EF21401CEF2000108604EF2D7
:102130001801CEF20001002008604EF21001CEF22C
:1021400000010520086002B07047000047F200015E
:10215000C4F20001086840F4807008607047000015
:1021600047F20001C4F20001086840F48070086082
:102170007047000041F22001C4F20201086840F4F7
:10218000004008607047000041F22001C4F20201E3
:10219000086840F4004008607047000041F22001E8
:1021A000C4F20201086840F4803008607047000003
:1021B00041F20400C4F20200006800F0F000704731
:1021C00041F20400C4F20200006800F4E0607047CD
:1021D00041F20400C4F20200006800F4605070474D
:1021E00041F22000C4F20200006800F44070704721
:1021F00041F20400C4F20200006800F00C007047D5
:1022000041F20400C4F20200006800F00C007047C4
:1022100080B582B0019002F0B7FE01990860019884
:10222000006802F079FE019948600198406802F068
:1022300087FE019988600198406802F093FE019939
:10224000C86002B080BD000041F20001C4F202018A
:10225000086840F4803008607047000041F20000D8
:10226000C4F202000068C0F34040704741F2200110
:10227000C4F20201086840F00100086070470000E5
:1022800041F22000C4F202000068C0F34000704731
:1022900082B00190009141F20401C4F20201086889
:1022A00020F47C10019A02F44032009B1A43104340
:1022B000086002B07047000041F20001C4F2020160
:1022C000086840F0807008607047000041F2040028
:1022D000C4F20200006800F48030704741F204004C
:1022E000C4F20200006800F47010704741F204006C
:1022F000C4F202000068C0F34040704741F20000A1
:10230000C4F202000068C0F34060704741F220014F
:10231000C4F20201086820F48030086070470000B1
:1023200081B0009041F20401C4F20201086820F07B
:10233000F000009A1043086001B0704781B000902F
:1023400041F20401C4F20201086820F4E060009A3E
:102350001043086001B0704781B0009041F2040161
:10236000C4F20201086820F46050009A104308602B
:1023700001B0704781B0009041F22001C4F2020127
:10238000086820F44070009A1043086001B070475C
:1023900081B0009041F20401C4F20201086820F00B
:1023A0000300009A1043086001B0704781B00090AC
:1023B0000099486820F00200486001B070470000B2
:1023C00081B000900099486820F00400486001B096
:1023D0007047000081B000900099486820F0080024
:1023E000486001B07047000081B0009000994868D3
:1023F00020F00100486001B07047000081B00090FB
:102400000099486840F01000486001B07047000033
:1024100081B000900099486820F01000486001B039
:102420007047000080B586B005904FF47A70049034
:1024300000208DF80F000290059842F60001C4F2CA
:102440000001884201D1FFE708E045F2B640C0F63E
:1024500001004FF4BA7103F01BF9FFE7059800F093
:1024600001F90290FFE704990020019031B1FFE7E4
:102470000298013818BF01200190FFE70198C007BA
:10248000A8B1FFE700F0FCFB012804D1FFE70498A6
:1024900001380490FFE7059800F0E4F802900498F2
:1024A00020B9FFE701208DF80F00FFE7DBE7059873
:1024B000FFF7A4FF9DF80F0006B080BD80B586B081
:1024C00005904FF47A70049000208DF80F00029070
:1024D000059842F60001C4F20001884201D1FFE7ED
:1024E00008E045F2B640C0F6010040F29B1103F04F
:1024F000CFF8FFE70598FFF78BFF059800F0B2F8DB
:102500000290FFE704990020019031B1FFE70298A3
:10251000013818BF01200190FFE70198C007A8B15A
:10252000FFE700F0ADFB012804D1FFE70498013874
:102530000490FFE7059800F095F80290049820B900
:10254000FFE701208DF80F00FFE7DBE79DF80F00A4
:1025500006B080BD80B584B00390029101208DF853
:102560000700039842F60001C4F20001884201D13D
:10257000FFE707E045F2B640C0F60100A22103F0F4
:1025800087F8FFE7029801680020B0EB115F01D1E6
:10259000FFE707E045F2B640C0F60100A32103F0D3
:1025A00077F8FFE70298406888B1FFE70298406833
:1025B00080280CD0FFE702984068B0F5807F06D0F5
:1025C000FFE702984068B0F5407F01D1FFE707E0E0
:1025D00045F2B640C0F60100A42103F059F8FFE728
:1025E000039800F087F901282FD0FFE70398FFF741
:1025F00019FF012828D0FFE70398FFF7D7FE0398BB
:10260000FFF7DEFE0398FFF7EFFE0298406838B14F
:10261000FFE746F60040C4F2000000F065F8FFE76F
:102620000298416846F60040C4F2000000F04EF8FF
:1026300003980299096800F033F80398FFF73EFF0A
:1026400000208DF80700FFE7FFE79DF8070004B0C2
:1026500080BD000081B0009000984068C0F3C000C9
:1026600001B0704781B0009000984068C0F34010FE
:1026700001B0704782B0019000910198806820F00D
:102680000F00BDF802100843019988600198C068E6
:10269000009961F30F000199C86002B07047000013
:1026A00082B0019000910198806820F00F00BDF881
:1026B00002100843019988600198C068009961F38D
:1026C0000F000199C86002B07047000082B001900D
:1026D00000910198C06A20F4607000990843019944
:1026E000C86202B07047000081B0009046F63041E9
:1026F000C4F20001086820F00100086001B07047D2
:1027000080B586B005900491039201208DF80B00EE
:1027100000200190059842F60001C4F200018842B1
:1027200001D1FFE707E045F2B640C0F60100E42121
:1027300002F0AEFFFFE7049820B1FFE704980128FC
:1027400001D1FFE707E045F2B640C0F60100E52100
:1027500002F09EFFFFE7049858BBFFE7039800785C
:10276000172801D8FFE707E045F2B640C0F60100A0
:10277000E92102F08DFFFFE7039840783B2801D85C
:10278000FFE707E045F2B640C0F60100EA2102F09B
:102790007FFFFFE7039880783B2801D8FFE707E039
:1027A00045F2B640C0F60100EB2102F071FFFFE7F1
:1027B00042E003980078010901EB810100F00F006D
:1027C00000EB4100C0B2172801D8FFE707E045F24F
:1027D000B640C0F60100EF2102F05AFFFFE7039870
:1027E0004078010901EB810100F00F0000EB41008E
:1027F000C0B23B2801D8FFE707E045F2B640C0F67B
:102800000100F02102F044FFFFE7039880780109FE
:1028100001EB810100F00F0000EB4100C0B23B284A
:1028200001D8FFE707E045F2B640C0F60100F1210C
:1028300002F02EFFFFE7FFE70598FFF7F3FD012801
:1028400043D0FFE7049890B9FFE7039908784A78E6
:1028500089784FF461635843C2EB021200EB8200A7
:10286000084401900598019900F036F829E0039991
:1028700008784A788978030903EB830300F00F0096
:1028800000EB4300C0B24FF461635843130903EBFC
:10289000830302F00F0202EB4302D2B2C2EB021238
:1028A00000EB82000A0902EB820201F00F0101EB4A
:1028B0004201C9B2084401900598019900F00CF852
:1028C000FFE700208DF80B00FFE70598FFF7F6FD06
:1028D0009DF80B0006B080BD82B001900091BDF85C
:1028E000020001998861BDF800000199C86102B039
:1028F0007047000080B586B005904FF47A70049060
:1029000000208DF80F000290059842F60001C4F2F5
:102910000001884201D1FFE708E045F2B640C0F669
:10292000010040F2F51102F0B3FEFFE70598FFF752
:1029300051FD0598FFF78EFE0290FFE704990020F5
:10294000019031B1FFE70298002818BF01200190E3
:10295000FFE70198C007A8B1FFE700F091F901284F
:1029600004D1FFE7049801380490FFE70598FFF7CA
:1029700071FE0290049820B9FFE701208DF80F0046
:10298000FFE7DBE79DF80F0006B080BD81B0009047
:102990000099086840F04000086001B070470000EE
:1029A00080B584B00390029101208DF80700039850
:1029B00043F20001C4F20101884210D0FFE70398FE
:1029C00043F60001C4F20001884208D0FFE70398F3
:1029D00043F60041C4F20001884201D1FFE707E05D
:1029E00045F22550C0F60100B72102F051FEFFE785
:1029F0000298006890B1FFE702980068B0F5806F18
:102A00000CD0FFE702980068B0F5004F06D0FFE752
:102A100002980068B0F5404F01D1FFE707E045F2AA
:102A20002550C0F60100BA2102F032FEFFE70298FD
:102A30004068B0F5827F04D0FFE70298406808B98B
:102A4000FFE707E045F22550C0F60100BB2102F088
:102A50001FFEFFE70298806830B1FFE702988068A8
:102A6000B0F5006F01D1FFE707E045F22550C0F651
:102A70000100BC2102F00CFEFFE70298C06828B1FB
:102A8000FFE70298C068022801D1FFE707E045F29E
:102A90002550C0F60100BD2102F0FAFDFFE70298C3
:102AA000006928B1FFE702980069012801D1FFE71A
:102AB00007E045F22550C0F60100BE2102F0E8FD16
:102AC000FFE702984069B0F5007F0AD0FFE702985F
:102AD000406930B1FFE702984069B0F5802F01D11D
:102AE000FFE707E045F22550C0F60100BF2102F0E4
:102AF000CFFDFFE70298806918B3FFE7029880696D
:102B000008281ED0FFE702988069102819D0FFE737
:102B100002988069182814D0FFE70298806920285D
:102B20000FD0FFE70298806928280AD0FFE70298B3
:102B30008069302805D0FFE702988069382801D1E4
:102B4000FFE707E045F22550C0F60100C02102F082
:102B50009FFDFFE70298C069802804D0FFE7029834
:102B6000C06908B9FFE707E045F22550C0F601004B
:102B7000C12102F08DFDFFE70298006AB0F5005F09
:102B800004D0FFE70298006A08B9FFE707E045F2C2
:102B90002550C0F60100C22102F07AFDFFE703983C
:102BA00000F052F8002845D1FFE7039800684FF67F
:102BB000BF718843029A00921168D2F804E0D2F8FB
:102BC00008C0D36841EA0E0141EA0C0119431369B8
:102BD00019435369194393691943D3691943126A15
:102BE00011430843039908600398406820F00400EB
:102BF0000299C98A0843039948600298006AB0F5AF
:102C0000005F13D1FFE70298406A08B1FFE707E0D1
:102C100045F22550C0F60100E52102F039FDFFE73D
:102C200003980299496A00F017F8FFE700208DF831
:102C30000700FFE70399C86920F40060C8619DF8A8
:102C4000070004B080BD000081B0009000980068CB
:102C5000C0F3801001B0704782B001900091BDF8C0
:102C600000000199086102B0704700004EF21001A7
:102C7000CEF20001086840F00200086070470000D2
:102C80004EF21000CEF200000068C0F30040704722
:102C900081B00090009840F21801C2F20001086073
:102CA00001B0704780B584B003900291002001907C
:102CB000039842F60041C4F20101884208D0FFE7C0
:102CC000039843F20041C4F20101884201D1FFE7B9
:102CD00008E045F25C50C0F6010040F2CA2102F063
:102CE000D7FCFFE70298006830B1FFE70298006860
:102CF000B0F5006F01D1FFE708E045F25C50C0F687
:102D0000010040F2CB2102F0C3FCFFE702984068CB
:102D100030B1FFE702984068B0F5806F01D1FFE75E
:102D200008E045F25C50C0F601004FF4337102F048
:102D3000AFFCFFE70298806890B1FFE702988068D7
:102D4000B0F5807F0CD0FFE702988068B0F5007F77
:102D500006D0FFE702988068B0F5407F01D1FFE719
:102D600008E045F25C50C0F6010040F2CD2102F0CF
:102D70008FFCFFE70298C08930B1FFE70298C08955
:102D8000B0F5805F01D1FFE708E045F25C50C0F686
:102D9000010040F2CE2102F07BFCFFE702980069BF
:102DA00030B1FFE702980069B0F5005F01D1FFE79D
:102DB00008E045F25C50C0F6010040F2CF2102F07D
:102DC00067FCFFE70298406930B1FFE7029840696D
:102DD000B0F5804F01D1FFE708E045F25C50C0F646
:102DE00001004FF4347102F053FCFFE70298007BBE
:102DF0008DF80400019820F4407002998968084316
:102E00000190019820F4806002994968084301907C
:102E1000019820F400600299096808430190019824
:102E200020F480500299C98908430190019820F448
:102E300000500299096908430190019820F48040EC
:102E40000299496908430190019820F400400299D1
:102E5000496908430190019803994864002004B02F
:102E600080BD000082B001900091009A0199086A2B
:102E70001043086202B0704781B000900099086862
:102E800020F08000086001B07047000081B0009021
:102E90000099086820F08000086001B070470000C9
:102EA00081B000900099886820F08000886001B0AF
:102EB0007047000081B000900099886820F0800081
:102EC000886001B07047000081B000900099486CA4
:102ED00040F40040486401B07047000081B00090A9
:102EE0000099086840F00100086001B070470000D8
:102EF00081B000900099486940F00100486101B03C
:102F00007047000080B584B003900291039842F6A8
:102F10000041C4F20101884235D0FFE7039843F233
:102F20000041C4F2010188422DD0FFE70398B0F1BF
:102F3000804F28D0FFE7039840F20041C4F200011F
:102F4000884220D0FFE7039840F60001C4F2000158
:102F5000884218D0FFE7039840F60041C4F2000110
:102F6000884210D0FFE7039841F20001C4F200014B
:102F7000884208D0FFE7039841F20041C4F2000103
:102F8000884201D1FFE708E045F25C50C0F601003D
:102F90004FF4A57102F07CFBFFE702984068A0B1F6
:102FA000FFE70298406810280FD0FFE702984068BA
:102FB00040280AD0FFE702984068202805D0FFE7A4
:102FC00002984068602801D1FFE708E045F25C50B4
:102FD000C0F6010040F24B1102F05AFBFFE70298E5
:102FE000C06860B1FFE70298C068B0F5807F06D086
:102FF000FFE70298C068B0F5007F01D1FFE708E065
:1030000045F25C50C0F601004FF4A67102F040FB9F
:10301000FFE7039800680190039842F60041C4F26C
:103020000101884225D0FFE7039843F20041C4F232
:10303000010188421DD0FFE70398B0F1804F18D0FE
:10304000FFE7039840F20041C4F20001884210D02B
:10305000FFE7039840F60001C4F20001884208D05F
:10306000FFE7039840F60041C4F20001884208D10E
:10307000FFE7019820F07000029949680843019029
:10308000FFE7039842F60041C4F20101884225D0CF
:10309000FFE7039843F20041C4F2010188421DD0CA
:1030A000FFE70398B0F1804F18D0FFE7039840F294
:1030B0000041C4F20001884210D0FFE7039840F6B7
:1030C0000001C4F20001884208D0FFE7039840F6EF
:1030D0000041C4F20001884208D1FFE7019820F4C2
:1030E00040700299C96808430190FFE7019803996D
:1030F000086003980299896800F0B2F90398029970
:10310000098800F0C3F9039842F60041C4F20101B6
:10311000884208D0FFE7039843F20041C4F201015E
:10312000884206D1FFE703980299096900F0B6F9D1
:10313000FFE70398FFF7DCFE002004B080BD00002D
:1031400089B0089007910798012803D1FFE7002074
:10315000049030E00798042803D1FFE70120039092
:1031600026E00798102803D1FFE7022002901CE018
:103170000798402803D1FFE70320019012E0079849
:10318000B0F5807F03D1FFE70420009007E00799A6
:103190000620B1F5806F08BF05200090FFE700987A
:1031A0000190FFE701980290FFE702980390FFE784
:1031B00003980490FFE704988DF81B0008989DF889
:1031C0001B2049F27F01C0F60001895C08441830D9
:1031D00005909DF81B1049F28D00C0F60000415C7F
:1031E000042000FA01F2059908689043086009B0CC
:1031F0007047000089B0089007910798012803D113
:10320000FFE70020049030E00798042803D1FFE78F
:103210000120039026E00798102803D1FFE7022041
:1032200002901CE00798402803D1FFE7032001909B
:1032300012E00798B0F5807F03D1FFE704200090EB
:1032400007E007990620B1F5806F08BF05200090C0
:10325000FFE700980190FFE701980290FFE70298CE
:103260000390FFE703980490FFE704988DF81B0094
:1032700008989DF81B2049F28601C0F60001895C80
:103280000844183005909DF81B1049F29400C0F6D0
:103290000000415C042000FA01F20599086890439F
:1032A000086009B07047000089B00890079107983E
:1032B000012803D1FFE70020049030E0079804289C
:1032C00003D1FFE70120039026E00798102803D1DF
:1032D000FFE7022002901CE00798402803D1FFE797
:1032E0000320019012E00798B0F5807F03D1FFE73B
:1032F0000420009007E007990620B1F5806F08BF11
:1033000005200090FFE700980190FFE701980290E8
:10331000FFE702980390FFE703980490FFE7049803
:103320008DF81B0008989DF81B2049F27F01C0F61C
:103330000001895C0844183005909DF81B1049F283
:103340008D00C0F60000415C082000FA01F20599EA
:1033500008681043086009B07047000080B586B067
:1033600005900491039201208DF80B0004980190C0
:1033700001280ED0FFE70198102811D0FFE701982F
:10338000B0F5807F13D0FFE70198B0F5805F15D0CE
:103390001BE00598039901F08DF88DF80B0015E0FE
:1033A0000598039901F0CEF98DF80B000EE0059811
:1033B000039901F013FB8DF80B0007E005980399C2
:1033C00001F058FC8DF80B0000E0FFE79DF80B00C2
:1033D00006B080BD82B001900091009801994863C9
:1033E00002B0704782B00190009100980199886303
:1033F00002B0704782B001900091009801998863F3
:1034000002B0704782B00190009100980199C863A2
:1034100002B0704782B00190009100980199C86392
:1034200002B0704782B00190009100980199086441
:1034300002B0704781B000900099002008600099A8
:103440004860009988600099C860009908610099F7
:103450004861009988610099C86101B07047000017
:1034600082B00190009100980199C86202B0704743
:1034700082B0019000910198806844F2070188436E
:10348000009908430199886002B0704782B00190AA
:10349000009100980199886202B0704782B0019053
:1034A000009100980199086302B0704782B00190C2
:1034B00000910198406820F070000099084301993C
:1034C000486002B07047000082B0019000910198FE
:1034D000406820F07000009908430199486002B0EC
:1034E0007047000081B0009000990020088000998A
:1034F0004860009A4FF0FF3191600099C8600099D0
:10350000086101B07047000081B00090009908691F
:1035100020F4904008610099486920F02A00486131
:1035200001B0704781B000900099C86840F4005025
:10353000C86001B07047000080B588B00790069160
:1035400001208DF8170000200490079843F6000131
:10355000C4F20101884220D0FFE7079844F20041FD
:10356000C4F20001884218D0FFE7079844F6000132
:10357000C4F20001884210D0FFE7079844F60041EA
:10358000C4F20001884208D0FFE7079845F2000125
:10359000C4F20001884201D1FFE707E045F29350F1
:1035A000C0F60100CE2102F073F8FFE7069800682C
:1035B0004AF62021C0F24401884201D8FFE707E023
:1035C00045F29350C0F60100CF2102F061F8FFE709
:1035D0000698406830B1FFE706984068B0F5805F14
:1035E00001D1FFE707E045F29350C0F60100D0217A
:1035F00002F04EF8FFE706988068B0F5805F10D0C3
:10360000FFE70698806860B1FFE706988068B0F52C
:10361000405F06D0FFE706988068B0F5005F01D1F3
:10362000FFE707E045F29350C0F60100D12102F018
:103630002FF8FFE70698C06860B1FFE70698C068FA
:10364000B0F5806F06D0FFE70698C068B0F5C06F90
:1036500001D1FFE707E045F29350C0F60100D22107
:1036600002F016F8FFE70698006978B1FFE70698C0
:10367000006904280AD0FFE706980069082805D0E9
:10368000FFE7069800690C2801D1FFE707E045F243
:103690009350C0F60100D32101F0FAFFFFE706982E
:1036A000406990B1FFE706984069B0F5807F0CD083
:1036B000FFE706984069B0F5007F06D0FFE706985F
:1036C0004069B0F5407F01D1FFE707E045F2935034
:1036D000C0F60100D42101F0DBFFFFE7079800F0FE
:1036E0007FF8002878D1FFE70798C06841F20C61A5
:1036F0008843069A5168D3681269194311430843F5
:103700000799C86007980699896800F0A7F8079894
:103710000699496900F094F86846FEF779FD079824
:1037200043F60001C4F20101884203D1FFE7039888
:10373000049030E0079844F20041C4F2000188424E
:1037400003D1FFE70298049024E0079844F60001B3
:10375000C4F20001884203D1FFE70298049018E008
:10376000079844F60041C4F20001884203D1FFE704
:10377000029804900CE0079845F20001C4F20001A1
:10378000884203D1FFE70298049000E0FFE7FFE7DB
:10379000FFE7FFE7FFE70498E8B1FFE70698006856
:1037A000C8B1FFE700208DF8170007980499069A22
:1037B000126800F01DF807988068102801D3FFE711
:1037C00008E045F29350C0F601004FF49B7101F000
:1037D0005FFFFFE7FFE7FFE79DF8170008B080BD38
:1037E00081B000900098C068C0F3403001B07047CD
:1037F00083B00290019100920198192148430099E9
:103800008900B0FBF1F348F21F51C5F2EB11A3FBA5
:1038100001204209642002FB1033322000EB031028
:10382000A0FB0101F02000EA511000EB0210C1F3EF
:103830004311084480B20299886003B070470000C9
:1038400082B0019000910198406920F44070009985
:1038500008430199486102B07047000082B00190AE
:1038600000910198006920F44050009908430199A3
:10387000086102B07047000082B001904EF2100063
:10388000CEF200000068009000980198013020B14D
:10389000FFE7019801300190FFE7FFE7019870B161
:1038A000FFE74EF21000CEF200000068C0030028CF
:1038B00004D5FFE7019801380190FFE7EEE702B079
:1038C0007047000080B582B08DF8070040F2941177
:1038D000C4F22221002008609DF8070043F60C0185
:1038E000C4F2000108600220FDF7CAFBFFE740F2C6
:1038F0001C10C4F20720006808B1FFE7F7E740F2A8
:103900009411C4F222210120086002B080BD0000A1
:1039100081B0009040F60441C4F20101086803221E
:1039200062F317500860FFE70098411E009148B10C
:10393000FFE748F2B411C4F2212100200860012001
:103940000860F1E740F60441C4F2010108680B2267
:1039500062F317500860FFE740F20010C4F207203E
:10396000006838B1FFE743F60C00C4F200000068BD
:103970000090F1E743F60001C4F20001086840F44A
:10398000806020F03800086001B0704780B582B0D8
:1039900043F60001C4F20001086820F0400008600E
:1039A000FFE740F20010C4F20720006838B1FFE7DB
:1039B00043F60C00C4F2000000680190F1E743F602
:1039C0000001C4F20001086820F48760086002204A
:1039D000FDF756FBFFE740F20010C4F20720006835
:1039E00038B1FFE743F60C00C4F200000068019014
:1039F000F1E743F60001C4F20001086840F040001E
:103A0000086002B080BD000080B582B0ADF806004D
:103A1000BDF8060043F60C01C4F200010860012065
:103A2000FDF72EFBFFE740F21C10C4F207200068F0
:103A300008B1FFE7F7E702B080BD000080B582B0B3
:103A40008DF807009DF8070043F60C01C4F2000151
:103A500008600220FDF714FBFFE740F21C10C4F2DF
:103A60000720006808B1FFE7F7E702B080BD00005B
:103A700080B582B040F29C50C2F2000090F8200065
:103A8000C008C00750B9FFE741F20000C4F20100CE
:103A90000121C0F20141FEF783FA10E040F29C518F
:103AA000C2F200010191086889680131FFF7A2FCA8
:103AB0000199086889680131FFF7ACFCFFE702B0A3
:103AC00080BD000080B582B040F29C50C2F2000080
:103AD00090F82000C008C00780B9FFE741F200005D
:103AE000C4F2010001900121C0F20141FEF76CFA1D
:103AF000019848F28001FEF753FA0EE040F29C5123
:103B0000C2F2000100910868C968FFF783FC0099C0
:103B10000868C969FFF76EFCFFE702B080BD0000CE
:103B200080B584B08DF80F00029140F29C51C2F232
:103B3000000191F8200000F0FB0081F8200091F8CE
:103B4000200000F0FD0081F820009DF80F2091F882
:103B5000200002F0010200F0F70040EAC20081F804
:103B60002000029808609DF80F00012803D1FFE7AC
:103B700002F0FCFAFFE702F095FA642000F086F804
:103B800040F29C51C2F20001019191F8200040F0F6
:103B9000010081F820009DF80F0002F07BFD0198E4
:103BA00000681021FFF75EF9019800684FF48071FA
:103BB000FFF758F901980068FFF786F90198006847
:103BC000FFF78CF904B080BD80B582B040F29C5004
:103BD000C2F2000090F82000C008C00780B9FFE7DB
:103BE00041F20000C4F2010001900121C0F2014144
:103BF000FEF7EAF9019848F28001FEF7E5F90EE0D8
:103C000040F29C51C2F2000100910868C969FFF7B7
:103C100001FC00990868C968FFF7ECFBFFE702B0F8
:103C200080BD000080B582B08DF807009DF80700C8
:103C300040F29C51C2F2000191F82010C1F38001C2
:103C4000884201D1FFE71FE09DF8072040F29C5118
:103C5000C2F2000191F8200002F0010200F0FB0026
:103C600040EA820081F82000FFE740F29C50C2F257
:103C7000000090F820004008C00728B1FFE700F0DE
:103C800069F800F04BF8FFE702B080BD80B582B064
:103C90008DF807009DF80700652804DBFFE7642026
:103CA0008DF80700FFE79DF807003B2804DCFFE7DD
:103CB0003C208DF80700FFE79DF8071040F29C506C
:103CC000C2F20000416090F82000C008C007A8B10F
:103CD000FFE740F29C51C2F20001886848F21F528F
:103CE000C5F2EB12A0FB02204009009000989DF85D
:103CF0000720504300900098C861FFE740F29C50B5
:103D0000C2F2000090F820004008C00718B1FFE799
:103D100000F004F8FFE702B080BD000080B540F27B
:103D20009C50C2F2000090F820008008C00718B92B
:103D3000FFE7FFF7C7FE02E0FFF746FFFFE740F2AD
:103D40009C51C2F2000191F8200040F0020081F87D
:103D5000200080BD80B540F29C50C2F2000090F877
:103D600020004008C00768B1FFE7FFF781FE40F27E
:103D70009C51C2F2000191F8200000F0FD0081F892
:103D80002000FFE780BD000010B598B000200F9024
:103D90001790169015901490139012901190102077
:103DA000FDF7DCFD2020FDF7D9FD04200C90FDF788
:103DB000D5FD08200790FDF7D1FD41F20000C4F2C7
:103DC0000100039040F20771C0F20241FEF7DEF8F5
:103DD00040F60040C4F2010002904FF6FF71C0F2BD
:103DE0001F410191FEF7D2F840F60000C4F2010035
:103DF0000B901121C0F21141FEF7C8F841F20040CA
:103E0000C4F20100069040F204410591FEF7BEF8AD
:103E1000039843F63801C0F20841FEF7CBF80B983F
:103E200041F21771FEF7C6F803980F9943F63F72F7
:103E3000C0F20A42119201220992129202220892C1
:103E40001392149111A90491FDF77AFF0499089B2C
:103E5000DDF824C00F9A0B9841F2177EC0F2114E84
:103E6000CDF844E0CDF848C013931492FDF768FFF5
:103E70000499089BDDF824C00F9ADDF804E002984D
:103E8000CDF844E0CDF848C013931492FDF758FFE5
:103E900004990C9A03981423C0F2144311931292BC
:103EA000FDF74EFF0499089BDDF824C00F9ADDF85A
:103EB00014E00698CDF844E0CDF848C0139314926E
:103EC000FDF73EFF0F984FF07041FDF71DFF0F9873
:103ED0000221CFF20001FDF717FF0F980321CFF267
:103EE0000001FDF711FF079B0898099A0F99169397
:103EF0008DF85C208DF85D108DF85E0016A80A9094
:103F0000FDF7F0FD099A0F990A984FF40063169394
:103F10008DF85C208DF85D1003218DF85E10FDF7A3
:103F2000E1FD09990F9A0A984FF4004316938DF812
:103F30005C108DF85D208DF85E10FDF7D3FD0C9AB6
:103F40000B9840F60801FEF749F80B980C9A0821E7
:103F5000C0F20841FEF742F80B980C9A8021C0F29B
:103F60008041FEF73BF801F0B3FA0F9A0E210E9153
:103F700000F0FEF9014609200D9001F0E3FA0D98DA
:103F800001F03EFA01F0A4FA0E990F9A00F0F0F950
:103F900001462820109001F0D5FA109801F030FA6F
:103FA00018B010BD80B588B000200390079006902F
:103FB0008DF81600ADF81400FEF7D2F84FF000604F
:103FC000FDF784FCFEF7E0F801F08AFA039A0F216E
:103FD00000F004FA01460320019001F0D5FA01989F
:103FE00001F026FA4FF0FF300290069042F60000F2
:103FF000C4F20000049006A9FEF7ACFA02990498F6
:10400000FEF738FB039904980C228DF814208DF8E4
:1040100015108DF81610012105AAFEF771FB08B0E6
:1040200080BD000080B596B00CA805902821FCF753
:10403000EDF8002004900B900A90099008900790EA
:104040004FF48050FDF79CFC04200090FDF798FC95
:1040500004984AF2A00107910921089103210991CE
:104060000A9040F60000C4F20100029007A90191F5
:10407000FDF766FE009A0199029844F24003079307
:104080000892FDF75DFE01F033FA049A114600F044
:10409000DBF901462320039001F098FA039801F020
:1040A000DFF9049805990C904FF482720D920E90EE
:1040B0000F9010904FF400721192202212921390E0
:1040C00014900A20159043F20000C4F201000690FB
:1040D000FEF766FC0698FEF759FC16B080BD00009E
:1040E00080B596B00CA805902821FCF78FF8002029
:1040F00004900B900A900990089007904FF480402C
:10410000FDF7F6FB0820FDF73BFC0498A021C0F268
:10411000A041079109210891032109910A9040F6D5
:104120000040C4F20100029007A90191FDF708FECA
:10413000019902984022C0F240420792042208925C
:10414000FDF7FEFD01F0D4F9049A114600F07CF968
:1041500001462420039001F039FA039801F080F918
:10416000049805990C904FF482720D920E900F9066
:1041700010904FF4007211921290139014900A2034
:10418000159043F60000C4F200000690FEF708FC0C
:104190000698FEF7FBFB16B080BD000080B596B018
:1041A000002003901590149013901290119010908D
:1041B0000F900E900D900C900B900A900990089023
:1041C000079006900590049002200290FDF7A2FB54
:1041D0000398ADF8440012904FF6FF7113911490BC
:1041E00040F20040C4F20000019011A9FEF78AFEDF
:1041F0000198FEF741FE019801210091FFF754F864
:1042000000990198039A602309930A920B920C92E9
:104210000D9209AAFFF7A2F800990198FEF790FF06
:1042200001980399FFF742F90198FEF739FE102033
:10423000FDF7B8FB0299039844F240020492092268
:1042400005920691079041F20000C4F2010004A912
:10425000FDF776FDFDF740FD16B080BD80B592B04C
:1042600000200490119010900F900E900D900C90E3
:104270000B900A9009900890079006904FF48040A8
:10428000FDF7A2FB04200190FDF79EFB049802219C
:10429000C0F202410691092107910321089109907A
:1042A00040F60000C4F20100039006A90291FDF758
:1042B00047FD019A029903980423C0F20443069330
:1042C0000792FDF73DFD04984FF4E1310B910C90FE
:1042D0000D900E900C210F911090119043F600005C
:1042E000C4F2010005900BA9FFF726F90598FFF726
:1042F0000BF90598FFF716F912B080BDFFE7FEE74E
:10430000FFE7FEE788B0079006910592079800F056
:10431000070004900498C0F10700052803D3FFE7C5
:104320000420019004E00498C0F107000190FFE729
:104330000198039004980430062803D8FFE7002072
:10434000009003E0049803380090FFE70098029083
:1043500006980399012202FA01F101390840029BF3
:10436000984005999A40013A1140084308B07047B7
:1043700088B0079006910592079800F00700049016
:104380000498C0F10700052803D3FFE7042001903B
:1043900004E00498C0F107000190FFE70198039042
:1043A00004980430062803D8FFE70020009003E0BB
:1043B000049803380090FFE700980290069803994C
:1043C000012202FA01F101390840029B9840059947
:1043D0009A40013A1140084308B0704788B00790EE
:1043E00006910592079800F0070004900498C0F128
:1043F0000700052803D3FFE70420019004E0049898
:10440000C0F107000190FFE7019803900498043081
:10441000062803D8FFE70020009003E00498033843
:104420000090FFE70098029006980399012202FA93
:1044300001F101390840029B984005999A40013AE0
:104440001140084308B0704788B007900691059264
:10445000079800F0070004900498C0F107000528B1
:1044600003D3FFE70420019004E00498C0F10700A3
:104470000190FFE70198039004980430062803D8C0
:10448000FFE70020009003E0049803380090FFE766
:104490000098029006980399012202FA01F101396D
:1044A0000840029B984005999A40013A1140084300
:1044B00008B0704780B586B005900491059842F623
:1044C0000041C4F20101884225D0FFE7059843F27C
:1044D0000041C4F2010188421DD0FFE70598B0F108
:1044E000804F18D0FFE7059840F20041C4F2000168
:1044F000884210D0FFE7059840F60001C4F20001A1
:10450000884208D0FFE7059840F60041C4F2000158
:10451000884201D1FFE708E045F25C50C0F6010097
:1045200040F2FF2101F0B4F8FFE70498006818B3E7
:10453000FFE70498006810281ED0FFE70498006881
:10454000202819D0FFE704980068302814D0FFE72E
:104550000498006840280FD0FFE7049800685028AE
:104560000AD0FFE704980068602805D0FFE70498A8
:104570000068702801D1FFE708E045F25C50C0F602
:1045800001004FF4407101F083F8FFE704984068A0
:1045900028B1FFE704984068012801D1FFE708E04F
:1045A00045F25C50C0F6010040F2013101F070F8B4
:1045B000FFE70498006928B1FFE704980069022822
:1045C00001D1FFE708E045F25C50C0F6010040F27F
:1045D000023101F05DF8FFE70498806828B1FFE739
:1045E00004988068012801D1FFE708E045F25C509B
:1045F000C0F6010040F2033101F04AF8FFE70498E9
:10460000406928B1FFE704984069022801D1FFE71B
:1046100008E045F25C50C0F601004FF4417101F032
:1046200037F8FFE70599086A20F00100086205984D
:10463000006A02900598406801900598806903908F
:10464000039820F003000390039820F07000049971
:10465000096808430390029820F002000499096950
:1046600008430290029820F0010004994968084329
:104670000290059842F60041C4F20101884208D038
:10468000FFE7059843F20041C4F20101884248D196
:10469000FFE70498C06930B1FFE70498C069B0F53E
:1046A000807F01D1FFE708E045F25C50C0F60100D1
:1046B0004FF4487100F0ECFFFFE70498806930B1D7
:1046C000FFE704988069B0F5807F01D1FFE708E03B
:1046D00045F25C50C0F6010040F2213100F0D8FFF5
:1046E000FFE7029820F008000499496940EA810038
:1046F0000290029820F004000499896840EA810041
:104700000290019820F4807004998969084301900F
:10471000019820F400700499C96940EA41000190B1
:10472000FFE7019805994860039805998861059805
:104730000499C968FEF74EFE0298059908620020A8
:1047400006B080BD80B586B005900491059842F60C
:104750000041C4F20101884225D0FFE7059843F2E9
:104760000041C4F2010188421DD0FFE70598B0F175
:10477000804F18D0FFE7059840F20041C4F20001D5
:10478000884210D0FFE7059840F60001C4F200010E
:10479000884208D0FFE7059840F60041C4F20001C6
:1047A000884201D1FFE708E045F25C50C0F6010005
:1047B00040F24E3100F06CFFFFE70498006818B338
:1047C000FFE70498006810281ED0FFE704980068EF
:1047D000202819D0FFE704980068302814D0FFE79C
:1047E0000498006840280FD0FFE70498006850281C
:1047F0000AD0FFE704980068602805D0FFE7049816
:104800000068702801D1FFE708E045F25C50C0F66F
:10481000010040F24F3100F03BFFFFE70498406891
:1048200028B1FFE704984068012801D1FFE708E0BC
:1048300045F25C50C0F601004FF4547100F028FFBF
:10484000FFE70498006928B1FFE70498006902288F
:1048500001D1FFE708E045F25C50C0F6010040F2EC
:10486000513100F015FFFFE70498806828B1FFE799
:1048700004988068012801D1FFE708E045F25C5008
:10488000C0F6010040F2523100F002FFFFE7049849
:10489000406928B1FFE704984069022801D1FFE789
:1048A00008E045F25C50C0F6010040F2533100F0E0
:1048B000EFFEFFE70599086A20F0100008620598EE
:1048C000006A0290059840680190059880690390FD
:1048D000039820F440700390039820F4E04004997A
:1048E000096840EA01200390029820F02000049912
:1048F000096940EA01100290029820F01000049922
:10490000496840EA01100290059842F60041C4F25D
:104910000101884208D0FFE7059843F20041C4F244
:104920000101884249D1FFE70498C06930B1FFE72F
:104930000498C069B0F5807F01D1FFE708E045F237
:104940005C50C0F6010040F26F3100F0A1FEFFE7BD
:104950000498806930B1FFE704988069B0F5807FE2
:1049600001D1FFE708E045F25C50C0F601004FF4CA
:104970005C7100F08DFEFFE7029820F08000049942
:10498000496940EA81100290029820F040000499A1
:10499000896840EA81100290019820F480600499AF
:1049A000896940EA81000190019820F4006004992F
:1049B000C96940EAC1000190FFE701980599486084
:1049C00003980599886105980499C968FEF70AFD5E
:1049D000029805990862002006B080BD80B586B0B7
:1049E00005900491059842F60041C4F20101884205
:1049F00025D0FFE7059843F20041C4F20101884247
:104A00001DD0FFE70598B0F1804F18D0FFE705985B
:104A100040F20041C4F20001884210D0FFE705983F
:104A200040F60001C4F20001884208D0FFE7059873
:104A300040F60041C4F20001884201D1FFE708E0DE
:104A400045F25C50C0F6010040F29D3100F020FEBE
:104A5000FFE70498006818B3FFE70498006810287F
:104A60001ED0FFE704980068202819D0FFE70498BB
:104A70000068302814D0FFE70498006840280FD061
:104A8000FFE70498006850280AD0FFE70498006800
:104A9000602805D0FFE704980068702801D1FFE77F
:104AA00008E045F25C50C0F6010040F29E3100F093
:104AB000EFFDFFE70498406828B1FFE704984068DD
:104AC000012801D1FFE708E045F25C50C0F6010083
:104AD00040F29F3100F0DCFDFFE70498006928B147
:104AE000FFE704980069022801D1FFE708E045F2DA
:104AF0005C50C0F601004FF4687100F0C9FDFFE79B
:104B00000498806828B1FFE704988068012801D1E3
:104B1000FFE708E045F25C50C0F6010040F2A13129
:104B200000F0B6FDFFE70498406928B1FFE704985C
:104B30004069022801D1FFE708E045F25C50C0F669
:104B4000010040F2A23100F0A3FDFFE70599086AD9
:104B500020F4807008620598006A02900598406809
:104B600001900598C0690390039820F0030003901A
:104B7000039820F070000499096808430390029894
:104B800020F400700499096940EA0120029002981B
:104B900020F480700499496840EA01200290059849
:104BA00042F60041C4F20101884208D0FFE70598AF
:104BB00043F20041C4F20101884249D1FFE7049861
:104BC000C06930B1FFE70498C069B0F5807F01D1BA
:104BD000FFE708E045F25C50C0F6010040F2BE314C
:104BE00000F056FDFFE70498806930B1FFE70498B4
:104BF0008069B0F5807F01D1FFE708E045F25C50A5
:104C0000C0F6010040F2BF3100F042FDFFE702981C
:104C100020F400600499496940EA812002900298DA
:104C200020F480600499896840EA8120029001980C
:104C300020F480500499896940EA0110019001989C
:104C400020F400500499C96940EA41100190FFE73F
:104C500001980599486003980599C86105980499D9
:104C6000C968FEF7CFFB029805990862002006B0DC
:104C700080BD000080B586B005900491059842F68D
:104C80000041C4F20101884225D0FFE7059843F2B4
:104C90000041C4F2010188421DD0FFE70598B0F140
:104CA000804F18D0FFE7059840F20041C4F20001A0
:104CB000884210D0FFE7059840F60001C4F20001D9
:104CC000884208D0FFE7059840F60041C4F2000191
:104CD000884201D1FFE708E045F25C50C0F60100D0
:104CE0004FF47B7100F0D4FCFFE70498006818B320
:104CF000FFE70498006810281ED0FFE704980068BA
:104D0000202819D0FFE704980068302814D0FFE766
:104D10000498006840280FD0FFE7049800685028E6
:104D20000AD0FFE704980068602805D0FFE70498E0
:104D30000068702801D1FFE708E045F25C50C0F63A
:104D4000010040F2ED3100F0A3FCFFE70498406859
:104D500028B1FFE704984068012801D1FFE708E087
:104D600045F25C50C0F6010040F2EE3100F090FCDC
:104D7000FFE70498006928B1FFE70498006902285A
:104D800001D1FFE708E045F25C50C0F6010040F2B7
:104D9000EF3100F07DFCFFE70498406928B1FFE7A0
:104DA00004984069022801D1FFE708E045F25C5011
:104DB000C0F601004FF47C7100F06AFCFFE7049834
:104DC000806828B1FFE704988068012801D1FFE7D7
:104DD00008E045F25C50C0F6010040F2F13100F00D
:104DE00057FCFFE70599086A20F48050086205988F
:104DF000006A02900598406801900598C069039088
:104E0000039820F440700390039820F4E040049944
:104E1000096840EA01200390029820F400500499A8
:104E2000096940EA01300290029820F48050049908
:104E3000496840EA01300290059842F60041C4F208
:104E40000101884208D0FFE7059843F20041C4F20F
:104E50000101884231D1FFE70498C06930B1FFE712
:104E60000498C069B0F5807F01D1FFE708E045F202
:104E70005C50C0F6010040F20D4100F009FCFFE774
:104E80000498806930B1FFE704988069B0F5807FAD
:104E900001D1FFE708E045F25C50C0F6010040F2A6
:104EA0000E4100F0F5FBFFE7019820F480400499E3
:104EB000896940EA81100190FFE7019805994860EF
:104EC00003980599C86105980499C968FEF7AAFA7C
:104ED000029805990862002006B080BD40F2845017
:104EE000C2F200000068704740F2CD50C2F20000EC
:104EF0000078704780B540F28451C2F20001002072
:104F00000860012043F20041C4F20101FEF708FEEF
:104F100080BD00007047000080B582B0019001980C
:104F20000090FDF745F901460098C9B20A0946F21A
:104F3000D761C0F60001895CC84002B080BD0000A6
:104F400080B582B0019001980090FDF739F90146D3
:104F500000980A0A46F2E761C0F60001895CC84081
:104F600002B080BD80B582B0019001980090FDF73D
:104F70002FF901460098CA0A46F2E761C0F600011F
:104F8000895CC84002B080BD80B582B0002001902D
:104F9000FDF736F90146009140B1FFE7009804287B
:104FA0000AD0FFE7009808280CD00FE041F200205B
:104FB000C0F27A0001900FE041F20020C0F27A00C6
:104FC000019009E000F00CF8019005E041F20020AA
:104FD000C0F27A000190FFE7019802B080BD0000A6
:104FE00080B584B0002003900290FDF76FF9029025
:104FF0000298019028B1FFE70198B0F5803F06D0F4
:1050000010E040F60010C0F23D00039010E0FDF704
:105010006DF9411C41F20020C0F27A00B0FBF1F0C2
:10502000039005E040F60010C0F23D000390FFE75A
:1050300003980090FDF752F902460098022101EB17
:105040009241484304B080BD7047000070470000A3
:1050500040F29351C2F200010878013008707047A5
:105060007047000080B582B0ADF80600ADF80410BE
:10507000ADF80220ADF8003040F28800C2F2000026
:105080000068C06988B1FFE740F28800C2F2000002
:105090000068D0F81CC0BDF80600BDF80410BDF8CB
:1050A0000220BDF80030E047FFE702B080BD0000FD
:1050B00080B540F2D050C2F20000006840B1FFE776
:1050C00040F2D051C2F20001086801380860FFE7E1
:1050D00040F21020C2F20000016801310160006856
:1050E00047F6D501C2F2E96148434FEAB00041F208
:1050F0006E21C0F2830188420AD8FFE740F6000023
:10510000C4F201001021C0F21041FCF7E5FFFFE7F7
:1051100080BD000080B582B00220FCF7CFFDFFE724
:10512000FCF7C4FD022801D0FFE7F9E7FDF78CF892
:10513000FFE7FDF793F8012801D0FFE7F9E7FDF756
:1051400005F8FDF74DF8B0F5807F05D0FFE7FDF7D6
:1051500025F8FDF7DBF8FFE7FDF788F8FFE7FDF737
:105160008FF8012801D0FFE7F9E7FDF739F8B0F52E
:10517000807F05D0FFE74FF48070FDF7FBF8FFE775
:10518000FCF7F8FF4FF480304FF4E011FDF780F8A2
:10519000FDF792F8FFE7FDF7B1F8012801D0FFE72E
:1051A000F9E700200190FDF7BBF84FF48060FDF7B0
:1051B000C5F80198FDF7D0F80220FDF7E9F8FFE700
:1051C000FDF716F8082801D0FFE7F9E74AF20020BA
:1051D000C0F24A400090FCF793FF0098FDF758FD9D
:1051E00002B080BD7047000081B00090FFE70098DA
:1051F000411E009108B1FFE7F9E701B070470000D8
:1052000080B582B040F20B20C2F20000007848B9AD
:10521000FFE700F04BF840F20B21C2F20001012041
:105220000870FFE740F20C10C4F22120006820B1A2
:10523000FFE700208DF8070003E001208DF807004C
:10524000FFE79DF8070002B080BD000080B582B086
:1052500040F29011C4F221210091002008609020BA
:1052600000F0A2F800F068F80099ADF806000120FF
:105270000860BDF80600C00802B080BD80B582B0ED
:1052800040F29011C4F22121009100200860D0204A
:1052900000F08AF800F050F80099ADF806000120FF
:1052A0000860BDF80600C00802B080BD41F21801D8
:1052B000C4F20201086840F00400086040F2901156
:1052C000C4F221210120086040F29411C4F221218E
:1052D000086040F29C11C4F22121086040F60002EF
:1052E000C4F201021168042363F30F3111601168E5
:1052F0004FF0030C6CF31341116011684FF00B0C6D
:105300006CF31751116011686CF31F711160116813
:1053100063F31B61116040F23031C4F24221086036
:1053200043F20001C4F2010140F2673008600868EE
:1053300040F040000860704780B582B043F20C0135
:10534000C4F20101002008700220FFF74DFFFFE7C3
:1053500040F21C10C4F22620006808B1FFE7F7E70E
:1053600043F20C01C4F2010108788DF80700002017
:1053700008700220FFF738FFFFE740F21C10C4F26C
:105380002620006808B1FFE7F7E743F20C00C4F2FB
:10539000010000788DF806009DF807109DF80600C2
:1053A00040EA012002B080BD80B582B08DF80700D0
:1053B0009DF8070043F20C01C4F2010108700220BD
:1053C000FFF712FFFFE740F21C10C4F2262000682E
:1053D00008B1FFE7F7E743F20C00C4F201000078E0
:1053E0008DF8070002B080BDFFE7FEE7FFE740F25F
:1053F0000010C2F20000006808B1FFE7F7E770474D
:1054000081B08DF803009DF9030000280ED4FFE75A
:105410009DF9031001F01F02012090404A094EF24D
:105420000011CEF2000141F82200FFE701B0704701
:1054300081B08DF803009DF9030000280ED4FFE72A
:105440009DF9031001F01F02012090404A094EF21D
:105450000011CEF2000141F82200FFE701B07047D1
:1054600081B08DF803009DF9030000280ED4FFE7FA
:105470009DF9031001F01F02012090404A094EF2ED
:105480000011CEF2000141F82200FFE701B07047A1
:1054900081B08DF803009DF9030000280ED4FFE7CA
:1054A0009DF9031001F01F02012090404A094EF2BD
:1054B0000011CEF2000141F82200FFE701B0704771
:1054C0004EF60C50CEF200000068C0F30220704788
:1054D0004EF60C50CEF200000068C0F30220704778
:1054E0004EF60C50CEF200000068C0F30220704768
:1054F0004EF60C50CEF200000068C0F30220704758
:1055000082B08DF8070000919DF9070000280AD4A9
:10551000FFE7009800019DF907104EF20042CEF21D
:10552000000288540BE0009800019DF8071001F07C
:105530000F014EF61452CEF200028854FFE702B07B
:105540007047000082B08DF8070000919DF90700B8
:1055500000280AD4FFE7009800019DF907104EF2D9
:105560000042CEF2000288540BE0009800019DF842
:10557000071001F00F014EF61452CEF200028854CB
:10558000FFE702B07047000082B08DF8070000917D
:105590009DF9070000280AD4FFE7009800019DF953
:1055A00007104EF20042CEF2000288540BE0009841
:1055B00000019DF8071001F00F014EF61452CEF2D3
:1055C00000028854FFE702B07047000082B08DF8F7
:1055D000070000919DF9070000280AD4FFE7009812
:1055E00000019DF907104EF20042CEF200028854ED
:1055F0000BE0009800019DF8071001F00F014EF636
:105600001452CEF200028854FFE702B07047000047
:1056100082B08DF8070000919DF9070000280AD498
:10562000FFE7009800019DF907104EF20042CEF20C
:10563000000288540BE0009800019DF8071001F06B
:105640000F014EF61452CEF200028854FFE702B06A
:105650007047000083B00290029800F007000090AD
:105660004EF60C51CEF200010868019001984FF6F9
:10567000FF02104001900198009A40EA02200022A7
:10568000C0F2FA52104301900198086003B07047CD
:1056900082B00190009102B07047000080B50020F8
:1056A000FBF7D6FC1020FBF729FF80BD80B5112049
:1056B000FBF724FF0120FBF7CBFC80BD80B584B055
:1056C000ADF80E00ADF80C1002920298D0F802006E
:1056D00000900298D0F80A00019000980199401AB1
:1056E0004008009001990298084402900299009A9B
:1056F0002C20FBF741FF04B080BD000080B582B0D4
:10570000ADF80600ADF80410ADF80220ADF8003099
:105710002A20FBF7F3FE9DF80500FBF787FF9DF8B5
:105720000400FBF783FFBDF80400BDF80010084437
:105730000138C0F30720FBF779FFBDF80400BDF87E
:10574000001008440138C0B2FBF770FF2B20FBF7B4
:10575000D5FE9DF80300FBF769FF9DF80200FBF7FB
:1057600065FF9DF80300FBF761FF9DF80200FBF762
:105770005DFFBDF80610BDF800202C20FBF7D8FE19
:1057800002B080BD80B582B0DDF810C0ADF8060073
:10579000ADF80410ADF80220ADF80030BDF80600F9
:1057A000BDF80410BDF80220BDF8003000F094FAF6
:1057B0000499BDF80200BDF8002042432C20FBF7FD
:1057C000DBFE02B080BD000080B582B0ADF80600FF
:1057D000ADF80410ADF80220ADF800302A20FBF738
:1057E0008DFE9DF80500FBF721FF9DF80400FBF7F7
:1057F0001DFF9DF80500FBF719FF9DF80400FBF75E
:1058000015FF2B20FBF77AFE9DF80300FBF70EFF38
:105810009DF80200FBF70AFFBDF80200BDF800107A
:1058200008440138C0F30720FBF700FFBDF8020071
:10583000BDF8001008440138C0B2FBF7F7FEBDF810
:105840000610BDF800202C20FBF772FE02B080BDD0
:1058500080B584B084460698ADF80EC0ADF80C1043
:10586000ADF80A20ADF80830ADF806002A20FBF7A5
:1058700045FE9DF80F00FBF7D9FE9DF80E00FBF7E3
:10588000D5FEBDF80E00BDF80A1008440138C0F37B
:105890000720FBF7CBFEBDF80E00BDF80A10084448
:1058A0000138C0B2FBF7C2FE2B20FBF727FE9DF8A4
:1058B0000D00FBF7BBFE9DF80C00FBF7B7FEBDF833
:1058C0000C00BDF8081008440138C0F30720FBF7AE
:1058D000ADFEBDF80C00BDF8081008440138C0B298
:1058E000FBF7A4FEBDF80610BDF80A00BDF80820BD
:1058F00042432C20FBF71CFE04B080BD4FF4A07087
:10590000704700004FF4F0707047000080B586B01B
:1059100040F2FC00C2F200000078C007C8B9FFE7FF
:1059200040F2FC00C2F20000017841F00101017078
:1059300000788007002803D4FFE7FBF7ADFBFFE703
:1059400040F2FC01C2F20001087840F00200087049
:10595000FFE70A200090FBF773FB1120FBF7CEFD59
:105960000098FBF76DFB46F2D061C0F60001029192
:10597000B42001220492FBF71FFE05200590FBF7DF
:105980005FFB049A45F2E651C0F60101C120FBF726
:1059900013FE0598FBF754FB46F2D261C0F60001F6
:1059A000C5200422FBF708FE0598FBF749FB49F2E6
:1059B0009B01C0F60001E0200F220192FBF7FCFDE5
:1059C0000598FBF73DFB019A49F2AB01C0F60001D7
:1059D000E120FBF7F1FD0598FBF732FB049A45F255
:1059E000EA51C0F601013A200390FBF7E5FD059866
:1059F000FBF726FB0299049AB020FBF7DDFD059822
:105A0000FBF71EFB0398049A45F2E851C0F601012A
:105A1000FBF7D2FD0598FBF713FB3620FBF76EFD75
:105A2000E820FBF703FE0598FBF70AFB1320FBF7C2
:105A300065FD0598FBF704FB2020FBF75FFD782050
:105A4000FBF7FEFA2920FBF759FD06B080BD0000E8
:105A500080B582B000200090D32069460322012344
:105A6000FBF7D4FB009849F20041C0F2860188425E
:105A700005D1FFE749F28640ADF8060003E00020BB
:105A8000ADF80600FFE7BDF8060002B080BD0000DB
:105A900080B584B0ADF80E00ADF80C1045F2EA51B7
:105AA000C0F601013A20009001220192FBF784FD2B
:105AB0002A20FBF723FD9DF80F00FBF7B7FD9DF8AB
:105AC0000E00FBF7B3FD9DF80F00FBF7AFFD9DF84F
:105AD0000E00FBF7ABFD2B20FBF710FD9DF80D0032
